:020000041100E9
:103000007FB50023284C294D03932800217C284AB2
:1030100001F0CDFA002812D103232800217C03AA55
:1030200001F06CFA00280AD1224B039A9A4206D189
:10303000214B2248E360224B636104B070BD02263D
:10304000217CFE2228001F4B009601F029FA00285F
:1030500001D00020F1E71C4BA2899A42F9D1217CD2
:10306000FF222800194B009601F01AFA0028F0D12F
:10307000E389174A934203D1164B17486361DCE793
:10308000164A9342E5D1164B164A1B68934206D95D
:10309000C02304222800217C9B0001F06AFA124B15
:1030A00012486361C9E7C046FC61FF1F3442FF1F3D
:1030B00081370000595953005959832004BF00112A
:1030C000E54100110862FF1F595900000A62FF1F05
:1030D000830500009D410011E4BE0011821500002F
:1030E0002062FF1F871300009D420011F4BE0011F3
:1030F000002370B51A4E1B4C30006361637401F0FD
:103100007DF9402323744B2B0CD9CC233821AC22DE
:1031100030009B01217401F02CFA00280AD0002510
:1031200025740CE0FFF76CFF051E08D1237C0433E7
:10313000DBB2E7E70C4B0D4D63610D4BE381236878
:10314000002B08D1002D06D00C222900200008F009
:103150007BFC2B7B6374300001F08EF970BDC046A0
:103160003442FF1FFC61FF1F39420011D4BE001121
:10317000AAAAFFFFF7B5164B0192C318021D002043
:10318000009388235B05D3181B685C1C1AD09CB283
:10319000402C18D88D781E0CAC466746CD782D0291
:1031A0003D43AE4206D1019800280ED110000C70AC
:1031B000240A4C7003249BB20733A343D218009B0C
:1031C0009A42DED3FEBD4432F9E71000FAE7C0466A
:1031D000FC0F0000802213B503000324019189B283
:1031E000520107319B18A14304305A1A88235B050A
:1031F000C3181B68591C03D190429241104016BD60
:1032000099B2402907D80B000733A343C018904256
:10321000ECD30020F3E74430F9E7134B134A1B6863
:10322000126810B5FA24934201D81A00F824104B02
:10323000E4021B689A4210D813000E4A12689A42A0
:103240000ED3013307D1F823DB029C4203D10A4994
:10325000054808F039FC200010BDFC24E402ECE72E
:10326000FE24E402F7E7C04600C0071100D00711B2
:1032700000E0071100F00711FFFFFF7FF0B59BB0E2
:10328000150003900491402A5CD806AC618022802E
:10329000FFF7C3FF002221000600FFF76BFF0528A0
:1032A0000FD92388AB420CD1002D07D0504B2A00F8
:1032B0000399C01808F090FB002802D101201BB030
:1032C000F0BD258030000699FFF784FF041E79D1F8
:1032D000069B0793FFF7A1FF80235B01C61880239D
:1032E00007001B039E4201D1F826F60288235B05E6
:1032F000F31801931B68013302D0019808F074FCA5
:103300003C49019808F0E0FB3B1D0293331D0593F7
:103310008822029B52059B181B6808935A1C13D1E4
:1033200088235B05FF1839680198013908F0CCFB48
:10333000380008F059FC30000799FFF74BFF0400F4
:10334000002C41D10020BAE744219AB20091402AD2
:1033500004D80320D11D814389B2009104991B0C2C
:103360008B4224D0402A22D80122300008A9FFF73E
:1033700001FF021E1BD1380008A9FFF7FBFE040065
:103380000428DDD9009A059B9B1880225201B218AF
:1033900093422AD288235B05C118009A09A808F035
:1033A00053FB134B009A09A9F01808F065FC009A2A
:1033B000029B9446634402930F4B029AFB189A4275
:1033C000A6D3ADE70428BDD088235B05E018069995
:1033D00008F07AFB0323EA1C9A4300D16EE7044B02
:1033E0000399E01808F048FC68E70424ECE7C046BD
:1033F00004000011FFFFFF7FF80F000073B5040009
:103400001600402A1ED801AD6980FFF706FF002292
:1034100029002A80FFF7AEFE042810D92D88002E3F
:103420000BD0002C09D0321CAE4200D92A1C074B0D
:1034300092B2C118200008F007FB28B276BDC04345
:1034400000B2FBE703204042F8E7C0460400001149
:1034500037B5042204000D0001A81649FFF7CEFF7E
:10346000020004280BD1019BA34208D3AB4204D035
:10347000104901A80195FFF701FF01203EBD0E4C48
:1034800023682000019308F0AFFB01992000013967
:10349000019108F019FB80235B01E418074B9C4263
:1034A000EED10422034901A80195FFF7E7FE0020B1
:1034B000E4E7C0465555000000C0071100000811A0
:1034C000F0B589B008F0F8F910226946264808F0EE
:1034D0005BFA264B009A6C469A4211D1019B0F2B46
:1034E00035D80699029A8C4618001100002604ADC2
:1034F000013808D2002E01D00A00A16001322FD17C
:103500000023A36023E04F1CF2D161460126EFE7C0
:10351000103610222900300008F036FAA368A86897
:10352000013300D1A060882329685B05C9186B6846
:1035300029601A03120B6A60814203D03B4201D119
:1035400008F082FA6368013B6360002BE0D1A36856
:10355000002B03D0049304984168084709B0F0BDDC
:10356000E027014E3F03F0E70000011150485936B3
:103570008022F8B5964C974BD200002120001C60A9
:1035800008F0F2FA2300944A88331A60934B1A78B1
:103590006A23002A00D01133E3620A232365904B8B
:1035A00037221B780820A3638E4B2118E361102378
:1035B00023628D4B3B256361C823DB00A36123009D
:1035C0008C331A602823013AE26320646364CA677B
:1035D000043A211DCA672100BC310D602100C031B1
:1035E00008602100C4310B6021000635CC310D602C
:1035F0002100083DC8310D602100D0310A60220051
:10360000D43210602200D832136022000227E03248
:10361000210017604222DC310A6021001B3DE431A9
:103620000D602100E83108602100EC310B602300BF
:103630000521F43319602300F0331A602300183297
:1036400090331A6023009433186023001E3A983395
:103650001A60AF23DB002360644BFA262363644BBC
:10366000644DE360644BF031A3642300FF31FC330D
:10367000B600A16021611E60A5627325E5656D3D00
:103680006565A56596255D4AAD00E2646662586091
:103690006766A56600270925A767E566584F594D57
:1036A000606720002567E2673A6015279C306760F5
:1036B00007001A2038602000A03007002120386061
:1036C0002000A83007004C4838602000F830066021
:1036D00026006427A436376026005F3FAC3637608B
:1036E0002600033FB03637602600C637B436376051
:1036F00026000027B836376038269E60424E962056
:103700005E64424E5A66DE61414E9A645E62F53EE8
:10371000FF3E9E621E269A67354A8000DE661F675E
:103720005F67DD651D661862DA67BE23394A5B0094
:10373000E250394BD838235004302250C422520072
:10374000A350C623E4205B00E1500433334AE15028
:103750003349344BD1603449800019503349E9383A
:10376000FF38195032490430195032493248D1617A
:1037700032491163324951631900F4310860CE2097
:103780003049400011603049195019002F48F83174
:1037900008602F49D16582212E4A89005A501A00AB
:1037A0002D490832D1671A002C49B43211608821A2
:1037B0002B4A89005A501A002A49883211602A4A35
:1037C000DA6408F0A1F8012008F0B6F9F8BDC046A7
:1037D0000004FF1FB064FF1F806FFF1F6C44FF1FBA
:1037E0004A0AFF1F3A07000080C3C9019A0200007D
:1037F000DC0500006A18000050C3000088130000B8
:10380000F009FF1F204E00006509FF1F681000002F
:10381000C409000040420F0010270000FC00FF1FF9
:10382000B11CFF1F0000FF1F092DFF1F9130FF1F5C
:10383000292FFF1F7120FF1F6927FF1F8D20FF1FEA
:103840003D22FF1FFD1FFF1F8D29FF1F752AFF1F30
:103850009519FF1F9928FF1FC525FF1FD125FF1FA1
:10386000FD1EFF1FB51FFF1F751EFF1FF0B50225B0
:103870000124614B91B002931D70604B604E1C702F
:10388000604F0393336800212800BB7006F098FE58
:10389000280006F08FFD0023984205D0BA78552AFB
:1038A00002D0332A00D09AE03360042006F0EEFF05
:1038B00007F0A2FFFFF75CFE08F09EF81F2201242C
:1038C0000021514B1A70514B1C70514B1970514BC8
:1038D00019689143163A0A431A60602219689143A5
:1038E000403A0A431A6008F0E7F908F01DF94A4B1C
:1038F0009847C120FF21494B80001A588A431A502B
:10390000C522920098588843BF390143995098586E
:10391000434908408021C9010143802099509958AA
:10392000C0050902090A0143995080213D48490117
:1039300008F0F2F9032322003B49019400933B482D
:1039400008F03AFA2C223A4905A808F07DF805ACAF
:103950006178207806F04EFD023410ABA342F7D117
:10396000344C354B226803201A40A023DB0213435A
:103970002360802322689B041343236022682F4B1B
:103980001A4080239B03134323602D4A2D4B9342FF
:1039900000D8012008F0D8F907F0F6FE802322684D
:1039A000DB0413432360029B187807F0BDFF039BE1
:1039B0001878C0B207F028FF08F06EF922490420F9
:1039C00007F0EAFE06F02EFF00F040F800F024FEBB
:1039D00000F0CAFE00F014FA002011B0F0BD009310
:1039E0002100194A042008F0F7F88023DB059C62C7
:1039F000FFF766FD59E7C0464A0AFF1F6C44FF1FE8
:103A000034F000402C62FF1F480AFF1F490AFF1FC5
:103A1000680AFF1FBCF00040E1A2000000E100E0E6
:103A2000FF00FFFF7044FF1FF456FF1F7054FF1F7D
:103A3000F8BD001114F00040FF7FF8FFFFFF9FFF6B
:103A40000080FF1F806FFF1F3B000108002210B5A0
:103A50001100112008F058F910BD0000F8B500233E
:103A60000925374F374C3B62E3681120AB43E360D5
:103A700007F002FF112007F07FFF112007F094FFED
:103A80004023226880261343236080236268DB0280
:103A900013436360A3682C4A3343A360A3682800E0
:103AA0001340A3608023A2689B0113431022A360EC
:103AB000236C022193432364236C0F3A1343236442
:103AC00080235B013B62226B204B1A402263626BB6
:103AD0001A406263A26B1A40A263E26B1340E36375
:103AE000E3681B4A1340E36006F084FC28000121D0
:103AF00006F094FD8023174A9B00516C11200B4364
:103B0000536407F069FEFD21134B144A89005A5093
:103B10008023C720E26B5B031343E363E368800009
:103B20001D430F4BE56019580E4A114080221202C6
:103B30000A431A50802292051A600B4B5E63F8BD4F
:103B400000F000403CF00040FFFFDFFFEFFFEFFF21
:103B5000FFFF7FFF003800400000FF1F5118FF1FCC
:103B600000E100E0FF00FFFF00000540E12010B58C
:103B7000C00407F029FE10BD70B52B4C238C002B20
:103B800029D0FA22D200934201D2FFF7EFFF238A15
:103B9000208C002B20D1C30020826082A082E08292
:103BA00020836083A083E08323606360A360E3607D
:103BB0001E4D1F4A6423E880904209D8FA22002350
:103BC000D200904204D90A2107F08EFFC838C3B250
:103BD0002B720023238470BD0721E21CD37F0133A5
:103BE0000B40D37705D10325211DCA7F01322A401E
:103BF000CA7708335B00E052002321001A00088ACC
:103C000001321B180231082AF9D1221DD27F9200FD
:103C1000A35063682068C018A368C018E368C01880
:103C2000400980B2C4E7C0466C61FF1F1462FF1FE9
:103C3000B70B000030B503A804880B20002C0ED170
:103C40004968074D08784978090201430A20A942CA
:103C500005D1012120001980024B1B7A137030BD61
:103C6000192A00001462FF1FF7B5150008AA16886C
:103C70004A680F4F14785278120222430A24BA423B
:103C800014D10122DBB2019200962A0007F016FD42
:103C9000041E0BD1074B1B68002B07D068782A78CD
:103CA0000002104342425041013098472000FEBDBF
:103CB000022900009861FF1F30B501250379040037
:103CC000BFB02B4211D00A49408807F067F828425C
:103CD0000BD0084B01A95B8D4D800B80064B002259
:103CE0001B7A60880B7104F049F93FB030BDC046C3
:103CF0009061FF1FA840FF1F1462FF1F10B5054908
:103D0000054807F001F80421044A054806F0BEFF03
:103D100010BDC0469061FF1FFFFF000024BE0011D0
:103D2000A840FF1F10B5024804F0ACFF10BDC0460C
:103D3000B93C0011012303700B4B1A7A4270022226
:103D400082709A78C270DA780271032242711A790D
:103D500082715A79C2710C2202729A794272DB79AD
:103D600083720B207047C0461462FF1F022310B5F8
:103D70000370013B43700533837010330371443B80
:103D800043712A3383714433C37100230372054B9B
:103D900004001B8843720A30FFF7CCFF1123152063
:103DA000E37010BD1462FF1F10B5142007F0CCFEA5
:103DB000124B14220021186007F0D6FE002007F0F5
:103DC000CBFF012007F090FD022007F065FE0320E5
:103DD00004F0FAF9042006F013FA052003F032FC8F
:103DE000062004F005F9072001F0ACFA082006F0DF
:103DF0002DFF092001F088F810BDC0469C61FF1F0F
:103E000007F082FE012007F017FE07F0A5FD000075
:103E1000094B10B50400984205D0012904D12000B7
:103E2000064906F071FF10BD0229FCD1013904F0EA
:103E3000E3FE0028F3D0F6E7FEFF0000C261FF1F9B
:103E400070B50D7A100004AA2C00168810221440B8
:103E5000154220D1002E20D10A78022A18D14A68B2
:103E6000517815780E4A09022943914205D00D4A2E
:103E7000914209D01C800A2404E014220A491A80C5
:103E800007F0E2FD200070BD0C2208491A80F7E718
:103E90001C800124F6E70824F4E70B24F2E7C0466F
:103EA000F3FF0000F4FF0000F842FF1F20BF0011E5
:103EB00010B504000749084806F026FF074804F03B
:103EC0001DFE0020E40704D50721054A054806F039
:103ED000DDFE10BDC261FF1FFFFF0000113E00119B
:103EE00068BE0011EC40FF1F10B50B4BBEB01A7836
:103EF0000A4902A800F0F2FC01AC80B26080002800
:103F000008D0074B00221B8821002380054B18880E
:103F100004F034F83EB010BDA061FF1FA161FF1F87
:103F20004641FF1F5042FF1F10B50B4BBEB01A7821
:103F30000A4902A801F066FF01AC80B26080002847
:103F400008D0074B00225B8D21002380054B188889
:103F500004F014F83EB010BDCA61FF1FCB61FF1F13
:103F6000EC40FF1F5042FF1FF7B50E00377A1C00D0
:103F700008AB11003D001A8820231D401F423CD190
:103F80003378022B3BD173681F785B781B023B436D
:103F90001E4FBB4208D01E4FBB4214D01D4DAB423A
:103FA00021D00A252800FEBD002A2AD1142C2AD8A7
:103FB0002200F06807F048FD174B1C70012CF1D966
:103FC000FFF7B2FFEEE7002A1BD1202C1BD82200FE
:103FD000F06807F039FD114B04211C70104B187864
:103FE00007F042FCDEE7E3B20124009201940A00EC
:103FF000310007F063FB0500D4E70825D2E701256F
:10400000D0E70B25CEE70D25CCE7C046F3FF000037
:10401000F4FF000002290000CA61FF1FA061FF1F1A
:104020004C62FF1F332310B5040003700A220749B6
:10403000013007F009FD064B0F201B681A0AE372D6
:1040400022731A0C1B0E6273A37310BD1462FF1F40
:104050003C62FF1F30B5012503790400BFB02B423D
:1040600013D00B49408806F099FE28420DD0094B29
:1040700001AD1B8802A82B80FFF7D4FF0F236B80B4
:1040800000222900608803F079FF3FB030BDC046B0
:10409000C261FF1F4641FF1F10B5024804F0F2FD48
:1040A00010BDC0465540001170B5160004AA148812
:1040B00005AA15784A685078117800022A4A084300
:1040C000801805284BD807F017FC03131E29343F2E
:1040D0000720042C0BD80522121BAA4200D92A0063
:1040E00022491A803000091907F0AEFC002070BD8B
:1040F0000720112CFBD81222121BAA4200D92A0039
:104100001B491A80EEE707200E2CF0D80F22121B55
:10411000AA4200D92A0017491A80E3E70720032C96
:10412000E5D80422121BAA4200D92A0012491A809B
:10413000D8E70720032CDAD80422121BAA4200D9A0
:104140002A000E491A80CDE70720032CCFD804227D
:10415000121BAA4200D92A0009491A80C2E700228C
:104160000A201A80C3E7C046DCD5FFFFB3BE0011AA
:10417000E861FF1FA3BE00119EBE001199BE001191
:1041800094BE001110B50D21024A034806F07EFDD1
:1041900010BDC04688BE00115C41FF1F37B50F4CF3
:1041A00001AD04232A00217C00F0A8F9002813D1D6
:1041B0002988236849BA89B24B4321891B0C5B18B3
:1041C000074A6988538049BA636889B24B43618959
:1041D0001B0C5B1893803EBD0120FCE7FC61FF1FB8
:1041E0001462FF1F37B5124C06236A46217C6D46C8
:1041F00000F084F9002818D12988236849BA89B2C7
:104200004B4321890B4A1B0C5B1853806B460333CD
:104210005B78E9781B020B435BBA61689BB24B4346
:1042200061891B0C5B1893803EBD0120FCE7C046F2
:10423000FC61FF1F1462FF1F73B5164C07236A460B
:10424000217C6D4600F05AF9002820D12B787F2B75
:104250001DD8F023EE781B0332041A40AB880E49B8
:104260005BBA9BB21A4323683609534322891B0C5D
:104270009B184B806A78AB7812031B011A43636862
:104280003243534362891B0C9B188B8076BD0120FF
:10429000FCE7C046FC61FF1F1462FF1FF0B5022758
:1042A00085B0154C03AD217C2B0000220097060041
:1042B00000F0F6F8002802D0012005B0F0BD0E2372
:1042C000217C0122300000976B4400F0E9F80028BF
:1042D000F2D129882368C9BA4B4321891B145B1882
:1042E000064A6988538049BA636889B24B43618939
:1042F0001B0C5B189380E0E7FC61FF1F1462FF1F3B
:1043000070B5184C237C002B0FD0382B0ED1164DD6
:10431000280000F073F8CC23AC222800217C9B01FC
:1043200000F027F9280000F0A7F870BDE3890F4AD4
:10433000934209D10C4D280000F060F800222800BB
:10434000217C00F005F9EDE7094A9342EDD1064DD5
:10435000280000F053F890222800217C920100F000
:1043600026F9DFE7FC61FF1F3442FF1F83050000D1
:104370008320000070B5144C237C002B1FD0636990
:10438000002B1CD0114D280000F038F8636928007C
:1043900098470400280000F06FF8002C10D10C4B57
:1043A0000422995E002905DA9C801A8801321A805D
:1043B000200070BD074A9142F7DD9A80F5E701249D
:1043C000FEF796FEF4E7C046FC61FF1F3442FF1F74
:1043D0001462FF1F0F27000010B58024064AA400B6
:1043E0001168436B234205D113685B1A032BF8D97C
:1043F000012010BD0020FCE76008FF1F70B5C179E7
:1044000005000C00631E9C411A4BE402E4184900AD
:104410000460C9B2007906F037F9E9796879490092
:104420000131C9B206F030F9E8790930C0B207F0BD
:10443000BBFA0023E36661332360AA795B3B002A61
:104440000ED022689A43023B134323600A23E361A0
:104450000733236200232363A3630133E36370BD47
:1044600022689A4302231343236046236361063381
:10447000A361EFE70050004070B500250400036819
:10448000DD66C0790930C0B207F0F6F9290020795D
:1044900006F096F82900607906F092F870BD0000E9
:1044A000F8B51E0006AB1D78002304681700E3660C
:1044B000616007F001FA01238022E3662B00276187
:1044C0005200013B08D207F0BFFB08200A4A1168DE
:1044D000002D03D12800F8BD2261F2E7236F0342CB
:1044E00003D02369013D3370013613685B1A032B37
:1044F000EED90125EEE7C0466008FF1F70B51C002D
:10450000002305681600EB66696007F0D5F9012302
:104510008022EB6623005200013B08D207F094FB97
:1045200008200A4A1168002C03D1200070BD2A61BE
:10453000F2E72B6F034203D02B69013C3370013645
:1045400013685B1A032BEED90124EEE76008FF1F06
:10455000002370B504681500E366616007F0ACF9EC
:104560000123E366256107F06FFB2000FFF734FFAE
:1045700070BD70B51D00002304681600E36661601D
:1045800007F09AF90123E36626610F33626B1A4242
:10459000FCD02B0A23611023626B1A42FCD0EDB2CF
:1045A000256107F051FB2000FFF716FF70BD0023C7
:1045B00070B504681500E366616007F07DF90123BA
:1045C000E3662B0A23611023626B1A42FCD0EDB222
:1045D000256107F039FB2000FFF7FEFE70BD70B5C6
:1045E0001E00002305681400EB66696007F064F99B
:1045F0000123A619EB660F33B44205D107F024FB63
:104600002800FFF7E9FE70BD21782961696B194226
:10461000FCD00134F0E7000010B5084CE368002B33
:1046200008D18022064B52021B689B186360054B21
:104630001B68236007F078FBA06010BD3C62FF1F81
:10464000C8F00040CCF00040F0B5184A936A916A77
:104650009942FBD116498A689A421FD39A1A8B60F5
:10466000144B4C68186893B2D2024343D20E4243B3
:104670001B0A08681B1912029B180024020001275C
:104680000D4D4B60561CAB420BD8002C01D01000D6
:104690000CC10A4A13600A4B1860F0BD581E821AFA
:1046A000DDE7084A3C009B183200EBE700F00040D1
:1046B0003C62FF1F140AFF1F40420F00C8F0004079
:1046C000CCF00040C0BDF0FF70B51E4C23793F2BED
:1046D00001D93F2323711C4A13701078C0B207F030
:1046E000CBF91823194A1A4913801A4A0B801380F0
:1046F0004B80A0790C3B421C534380221201934211
:104700001ED81A00144D888028801448CB8002805F
:104710006279002A01D101326271237A012B01D81A
:104720000223237253430E480A21584307F0DCF951
:104730000C4D2860E379052B01D81023E37170BD7F
:104740001300DFE73062FF1F480AFF1F4E42FF1FC2
:104750001844FF1F4C42FF1F4A42FF1F4842FF1FE1
:10476000710200002062FF1FF8B520210020FEF733
:104770006FFE114C011E114D09D10C22104BC1CB03
:10478000C1C4280007F0F0F9FFF79EFFF8BD0C2226
:1047900020000C49FEF732FE0C2802D0084B43CB18
:1047A00043C40C2228000849FEF728FE0C28EBD051
:1047B0000C220021E5E7C0463062FF1FFC61FF1FAD
:1047C00014BF0011FC0C0000F50C0000F0B51D4CEE
:1047D0008022A5440400882069465201400506F065
:1047E000EBFF902212016A441300200032C832C34A
:1047F00016C816C38023144C144FA6689B0333437A
:10480000A3603B6007F0C8F98823A0685B05C01867
:1048100007F0EAF90025882329008022A0685B05BB
:10482000C01840196944520007F026FA8023013568
:10483000FF355B019D42EED1A6603E60044B9D4476
:10484000F0BDC046FCEFFFFF8843FF1F9808FF1F25
:1048500004100000F0B587B0051E6C4627D06846EE
:1048600007F0E2F81B4D022806D10622694628000F
:1048700007F0B2F8002818D00F22210000230120F1
:1048800094460600EA5C013317091037BE40370032
:10489000664632400600964032003A434A61043987
:1048A000062BEED12000FFF791FF07B0F0BD1822D4
:1048B0006946094806F080FFAB00E358013305D094
:1048C0001822FF21200007F04FF9EBE70135062DF4
:1048D000F2D1EAE76509FF1F00090011F0B50027D2
:1048E00004000E00150085B0BA4200D187E08A7836
:1048F0004B1C01934B7812021A43CB7808781B04A7
:1049000013430A79207012061A43009203926770CB
:10491000252800D196E033D8112813D807F084F960
:1049200069003701370137013701AA00B800B1002B
:1049300037013701370137013701370137013701B7
:1049400011013101232800D1E9E0DB2800D044E146
:10495000042D00D8B1E0052D00D13BE16F1F3A00D6
:104960000098711D07F070F805223100200007F053
:104970006BF83A000099601D07F066F82F003EE0E2
:10498000562859D00FD8332800D1A7E0552839D060
:104990002628DAD1A84D13223900280007F0E4F8C0
:1049A000FEF7A6FB5DE0712800D178E0722800D107
:1049B0008AE0602800D196E0DC28C6D1022D00D81C
:1049C0007BE04B7863708B78A3706B461F88032D58
:1049D00005D0033DC81CAAB23900FEF74FFC3900D0
:1049E0001022E01CFEF70AFDC71C002807DA6070E1
:1049F00070E00C222000914907F026F80C273800BF
:104A000005B0F0BD6A1E8E4D0C2A13D8002A0AD0BC
:104A10002800019907F018F8FFF756FE0C2228002D
:104A20008849FEF72BFC0C222900601C07F00CF8CB
:104A30000D27E4E70C22EBE7814D834B2A0043CBA3
:104A400043C2E9E76A1E7C4D0C2A11D8002A08D01F
:104A50000199280006F0F8FF0C2228007B49FEF798
:104A60000DFC13222900601C06F0EEFF1427C6E798
:104A70000C22EDE706227649601C06F0E5FF0627CA
:104A8000BDE712227349601C06F0DEFF1327B6E76C
:104A90007149601C082206F0D7FF0927AFE7012DF6
:104AA0000ED04978F02908D86C4D288801F004FE12
:104AB0006B4B2A885200D35A00E0FF23637009E051
:104AC000664A674B1288F5E7664B012D04D04A7899
:104AD0005A706270022792E75B78EFE72000FFF7D9
:104AE000A1FA07008BE76A1E5F4E082A07D8002A42
:104AF00006D100230120336001F0CEF80CE008223B
:104B000096215A4B89001B6859485B1801993360FC
:104B100006F09AFF01F086F8601C711DBAE7042DBB
:104B200005D9524D009B2B6007F0FEF8A860FFF7F7
:104B30008BFD0422039003A9601C06F085FF052766
:104B40005DE74C4E062D15D906223000019906F07E
:104B500043FF00280ED006220199300006F074FFB2
:104B6000062245493000FEF789FB01233D4A517872
:104B70000B43537006223100601C06F065FF0727C7
:104B80003DE7012D99D04878FFF764FEA2E70128A0
:104B900000D0DAE6394AAB1E0092132B06D84B78C8
:104BA000002B0BD100F01EF900F054F9344B0099A2
:104BB0001F78601C7A1E06F047FF20E7013D2A009F
:104BC0000199009806F040FF2E490098AAB2FEF71E
:104BD00055FBE9E715251027C6E6DA281FD1042D75
:104BE00000D86AE7082D17D9B37972791B021343ED
:104BF000F27912041A43337A1B061343009A1360A6
:104C0000009B05221B6831002000039306F01CFF67
:104C10000422601D03A93EE7FE236370F0E7DE284F
:104C200000D04AE7691E012D01D10027E7E601986F
:104C300000F0DEFFF9E7C046FC61FF1F20BF001156
:104C40003062FF1FFC0C000014BF0011F50C0000C7
:104C50000862FF1FE861FF1F8C43FF1F5042FF1FC8
:104C6000B464FF1F2C62FF1F8C64FF1F3C62FF1F98
:104C70009164FF1F6509FF1FADAC00002D64FF1F8D
:104C80002B64FF1FAEDE000070477047020010B5B6
:104C9000094B0A32094C92B2DA815A829881188201
:104CA000207802F06DFB0422054B012120781A7058
:104CB00006F0DAFD10BDC0461643FF1F7664FF1FE5
:104CC0007564FF1F013870B5042809D806F014FE7A
:104CD000030928081200234B0221187806F0C4FDAE
:104CE00070BD204B0821187807F03EF800221E4BBB
:104CF0001A72F5E7802200241B4B1A4D52001A81CC
:104D000008211A682878DC7206F086FE21002878CF
:104D100006F0BAFE012000F075FE00F083FFDFE729
:104D2000104B0821187807F01FF81048FFF71EF8FD
:104D30000F4B104A9B79002093800F4A13808022EA
:104D4000094B5200D8721A8100F05CFE00F06AFF35
:104D50000A4B5B78002BC3D0094A136006F04CFF66
:104D6000BEE7C0464C62FF1F2062FF1F5942FF1F73
:104D70003062FF1F1844FF1F4A42FF1F2C62FF1FB3
:104D800034F0004010B500290BD1022809D1054BA1
:104D90001B78002B05D02622034B04485A72FFF7DC
:104DA00075FF10BD4E64FF1F2062FF1FC409000085
:104DB0000300F0B50A4D8E18B14202D1520080189E
:104DC000F0BD0C782F6824093C5D0F271C700C780F
:104DD00001313C402F683C5D5C700233ECE7C0461B
:104DE0004442FF1F0E22124B10B51A700D23114CB6
:104DF00011492370093A043B1048637006F024FE01
:104E00002D2301220E490F48E371FFF7D1FF012244
:104E10000D49FFF7CDFF01220C49FFF7C9FF030041
:104E200000200B4902001870FEF728FA10BDC0469A
:104E30004A64FF1F2B64FF1FB3BE00112D64FF1FC8
:104E40006709FF1F3364FF1F6609FF1F6509FF1F06
:104E5000AEDE000070B5134C142220001249FEF79C
:104E6000CDFA431E114D132B19D8AB78002B16D059
:104E7000431C2B7009236B700023001903702878E2
:104E80000B4B01302900C0B2187006F01DFD2978C7
:104E900022000139C9B2002005F016FE70BDFFF7EF
:104EA000A1FFECE72D64FF1FAEDE00002B64FF1FA7
:104EB0004A64FF1F10B5114B1A781870002A0ED0E3
:104EC00000280BD10E4B1A78062A07D85423D3405A
:104ED000DB0703D50B4B187802F052FA10BD0028FF
:104EE000FCD0074B1B78012B02D0033B022BF5D8DB
:104EF000044B0121187806F0B7FCEFE74E64FF1F62
:104F00007564FF1F7664FF1F70B54A4E4A4A4B49CD
:104F10003070022005F064FC00F010FFFEF7E8F8A6
:104F200006F052FE032246494648FFF741FF2D2472
:104F3000030004221C7044490130FFF739FF30237D
:104F40000470424D424C437083702E3B0622200079
:104F50004049EB87FEF752FA062813D0200006F0EE
:104F600063FD022809D00321200006F035FF8D23C0
:104F7000E3706E3B237119336371062220003549BB
:104F8000FEF77CF9344B1B68FC335C64FFF762FF6F
:104F90000020FFF78FFF314C314A0121314B12784D
:104FA000207802F0AFF9304A304B12780021207897
:104FB00002F0A8F901222E4B1A702E4B9B78552B2C
:104FC00031D12D4B3B325A722C4B2D4AAB81EA81A9
:104FD0002B826A822021307806F0EEFC01204042CC
:104FE00005F0BEFD0120404205F05AFEFFF7CAF869
:104FF000FEF784FE00F0B0FC01204042FEF758FFAF
:10500000012006F0D1FEF02001F03AFB01213078BA
:1050100006F02AFC307802F00FFB1A4806F0FCFD7F
:10502000FEF71CFD70BD6422174B5B7953431A00D9
:105030000A32CBE74C62FF1F854D0011894C0011ED
:105040008C43FF1FE861FF1F0862FF1F1643FF1F0D
:105050006509FF1FADAC0000B064FF1F7664FF1F41
:105060007842FF1F5942FF1F4A64FF1F2B64FF1F36
:105070001C64FF1F2C62FF1F2062FF1FC409000079
:10508000CE0900004E62FF1F3062FF1FF8B50A0014
:1050900020230D001A40194263D05E4B1B78002B71
:1050A0005CD0FFF7D1FA5C4B5C4C5D4E996862684E
:1050B000737A8A1ADB039A4202D36160FEF7CEFC50
:1050C000327A217A531EDBB2994205D1FFF718F9E3
:1050D000002000F0E1FD15E09142F9D3002727728E
:1050E000FFF748F9A37ABB4202D0A772FEF744FD4E
:1050F000012000F0D1FD4B4F3800FEF737FE39009C
:1051000006F072FE637A002B25D0013BDBB263729E
:10511000002B20D1444B9B78552B01D106F06CFD20
:10512000E37A002B12D00023A27AE3729A4202D0D3
:10513000A372FEF721FD3D4A3A4F13883800013330
:105140001380FEF713FE390006F04EFE64237079DB
:105150005843FFF79BFD237A0133237220206840D8
:10516000F8BD0BB2002B0ADA314B187806F0D4FCEC
:10517000002801D006F0A0FC80200002EFE7022406
:10518000214206D0254B01201A72FFF793FE200022
:10519000E5E70B071ED5FFF757FA1F4B1F49204CB9
:1051A00098684A68637A821ADB039A4202D348609D
:1051B000FEF754FCFFF7DEF8FFF7A2F8012000F03D
:1051C0006BFD00F0E3FB2368DB0701D5FEF764FF0E
:1051D0000820C4E7CB0609D5FEF7CEFC0D4B1B78A3
:1051E000002B01D1FEF79EFD1020B8E701242142DB
:1051F00007D0104800F06AF806F0CEFD00F02CFD54
:10520000C5E70424080020402142A9D0FEF76CFE27
:10521000BDE7C0464E64FF1F3C62FF1F2062FF1FB8
:105220003062FF1F5942FF1F2C62FF1F1462FF1FD5
:105230004C62FF1F3C42FF1FF0B51A4B1A4F1B88F0
:105240003A880400194E1A4D85B09A420DD832881A
:105250009A420AD3174B1A882B889A4205D1164ACC
:10526000164B12881B889A421AD0052001F05EFA6C
:105270003B8802A90B80338801904B802B88104D0E
:105280008B800E4B2A781B88CB800E4B188802F03F
:105290007FFF0D4B08212878019A1C7006F0E4FC72
:1052A00005B0F0BD1A64FF1F4E42FF1F4C42FF1FA6
:1052B0004A42FF1F1864FF1F1664FF1F4842FF1F6A
:1052C0007664FF1F5042FF1F1464FF1F13B50C4B81
:1052D0001C78002C11D1002801D00A4B18600A4A12
:1052E0000A4B11780A4A10780A4A01920A4A009237
:1052F000002205F0E1FA200016BD1124FBE7C046AC
:105300007564FF1F1064FF1F7464FF1F6464FF1F38
:105310007664FF1F5064FF1F5464FF1F10B5064BD7
:1053200012201B78052B06D1044B13221988044B3D
:10533000187801F0D7FB10BD7564FF1F5042FF1FA6
:105340007664FF1F10B500240122114B52421870E1
:10535000104B1C70104B1A8002F06EF904220F4B98
:1053600021001A700E480C3206F01EFC102221009B
:105370000C4806F019FC07220B4B1C600B4B1C70F1
:105380000B4B1C700B4B1A700B4B1C7010BDC046A6
:105390007664FF1F7564FF1F5042FF1F7464FF1F78
:1053A0006464FF1F5464FF1F5064FF1F2A64FF1FC3
:1053B0002964FF1F5242FF1F2864FF1FF8B5174CD6
:1053C0000600257806A814240078052D23D1B41FE3
:1053D000134FA5B21824BD421DD88D1FADB2BD42DA
:1053E00019D8FA256D00AA4215D21D000D4F0A3DAD
:1053F000ADB2BD420FD80C4C26800C4C21800C491C
:1054000000240A800B4A1380FFF716FF0A4B042181
:10541000187806F0A9FC2000F8BDC0467564FF1F8F
:10542000790C0000750C00004E42FF1F4C42FF1F1C
:105430004A42FF1F4842FF1F7664FF1FF0B50BB2C0
:105440000D0089B0002B00DB70E1A44E307806F02F
:1054500063FB041E50D00378A22B00D122E1D02B95
:105460001AD0912B45D143780E2B42D19C4B828888
:105470009A423ED19B4B1B78052B3AD1836803207F
:1054800018567F2835D0984B1B68002B31D05B68AD
:10549000002B2ED098472CE08078072829D806F0DA
:1054A0002BFA0428183F3F74A8D86378002B0CD13E
:1054B00001218C4B19708D4B1A78002A5BD08C4BD4
:1054C000307801F01FFF002855D00722854B1A7055
:1054D00051E061780029F8D1E378002B11D0854A9A
:1054E000854B1278307801F00DFF60706378002BE7
:1054F000EBD1200006F0E0FA80200002684009B0FD
:10550000F0BD784B1B78022BF3D00121307806F0E8
:10551000CBFA0028EAD10121307806F0A5F9E5E7B9
:105520006378002BD1D16F4F032807D13B78052B2F
:1055300002D101333B701EE00223FBE76F4B1A8858
:105540006F4B0293002A0BD01B78002B03D0012154
:10555000307806F089FB3B78062B04D1013BE9E764
:10556000029B1A70F7E7042B41D10121029B30788E
:10557000197006F079F95C4B1B68002BB9D01B68D9
:10558000002BB6D0574A107884E76378554F002B2C
:1055900027D10622211D5B4806F056FA62895A4B34
:1055A0005A491A80A2895A4B1A80E3890B80052137
:1055B000397058490A80584A1380228A574B1A80FA
:1055C000574B1B78012B09D11F2001F0AFF8FA22AD
:1055D000920042430421307806F046FB0022484BFB
:1055E00075E7312B00D070E70022454B1A7003237A
:1055F000A0E706220021434806F0D6FA0023454AD8
:1056000004211380444A30781380444A138006F002
:10561000ABFB0821307806F0A7FBA379083B5A4280
:105620005341304A03331370304B1B78002B06D0A4
:10563000334B30781A78002A06D001F0A1FE0122FF
:10564000314B52421A8096E70121197006F00CF98D
:10565000F5E70821307806F087FB6378002B00D04F
:1056600047E72C4B2D4F0293E388029A04211380C5
:10567000294B307803932389039A138063893B80F5
:1056800006F012FA002800D033E7264B1B68002BE7
:1056900000D12EE7039902983A88098800881B6890
:1056A000984726E74379132B00D022E70389012B83
:1056B0000AD11D4B1B78022B06D10821307806F049
:1056C00053FBFFF72BFE14E7052001F02FF808210C
:1056D0000200307806F0C8FA0BE7C0467664FF1F78
:1056E000051400007564FF1F1064FF1F7842FF1F40
:1056F0005942FF1F4A64FF1F2B64FF1F4C64FF1FAA
:105700004E64FF1F1D64FF1F5042FF1F2464FF1FD4
:105710002664FF1F1A64FF1F1864FF1F1664FF1F13
:105720001C64FF1F0C64FF1F1464FF1F8020C00156
:10573000014200D0E2E6CB0731D5324B1B78002B7B
:105740001DD0314E05AC3378052B1AD1023B2370A6
:105750002E4B21001B7823722D4B1B7863722D4B2F
:10576000187801F073FD002809D007202A4B30700B
:105770001B68002B03D01B68002B00D0984701202A
:10578000BCE60E20254B06221B7825492370254BAD
:105790001B78637002ABC01806F056F9D8E70223F5
:1057A00008001840194209D0174B1B78052B03D16C
:1057B0001D4B188806F0C8F802209FE604242142F9
:1057C00003D0FFF739FD200098E6082308001840B1
:1057D000194200D193E6154B1C78012C03D0022C02
:1057E0000DD008208AE6124B124A134913481B8831
:1057F0001288098800880094FFF7E0FDF1E7FFF7C1
:105800008DFDEEE74E64FF1F7564FF1F5242FF1FC0
:105810002864FF1F7664FF1F1064FF1F2A64FF1FA8
:105820005342FF1F2964FF1F5042FF1F1464FF1FD4
:105830004842FF1F4A42FF1F4C42FF1F4E42FF1FBC
:1058400010B502A804880B20002C10D149680878F4
:105850004978090201430C48814209D1022119808B
:105860000A4B59881170DB7800205BB2537010BD71
:10587000074C0A20A142FAD102211980034B9988D2
:1058800011705B79F0E7C0466E2A00001462FF1FBA
:105890006F2A0000F7B5150008AA16884A680F4F4E
:1058A00014785278120222430A24BA4214D10122F7
:1058B000DBB2019200962A0005F000FF041E0BD116
:1058C000074B1B68002B07D068782A78000210432A
:1058D00042425041013098472000FEBD022900009D
:1058E0008864FF1F30B5012503790400BFB02B4247
:1058F00025D01449408805F051FA28420CD0124BAB
:1059000001A95B8D60880B8002234B800F4B002226
:105910005B888B8002F032FB0D49608805F03EFA0F
:10592000C0070CD50B4B01A91B8800220B8002235A
:105930004B80064B9B888B80608802F01FFB3FB03A
:1059400030BDC0468064FF1F7C42FF1F1462FF1FF2
:105950007864FF1FD642FF1F10B50749074805F0BE
:10596000D3F90749054805F0CFF90721054A06484C
:1059700005F08CF910BDC0468064FF1FFFFF0000DA
:105980007864FF1F40BF00117C42FF1F10B5024822
:1059900003F078F910BDC046E55800110E2110B58E
:1059A00008240A4B9A7A8A43C107C91721400A433F
:1059B0009A720222104202D0997A0A439A72042201
:1059C000104202D0997A0A439A7210BD8C64FF1F6C
:1059D0000F2110B50A240A4B5A798A43C107C91707
:1059E00021400A435A71820703D5062259790A4396
:1059F0005A71400703D5012259790A435A7110BDE3
:105A00008C64FF1F10B5054B102459790A00A2437E
:105A1000002801D022000A435A7110BD8C64FF1F78
:105A200070B5144A6621557A60242E00137AA64375
:105A30008B431372002801D1567270BD402131434F
:105A400051720D49097A54290BD92C4354720421FF
:105A50000B4302210B4320210B4340210B431372C4
:105A6000EBE74429F3D83429F3D82429F3D81429AF
:105A7000E3D9F2E78C64FF1F1462FF1FF8B50E2311
:105A8000374C0500A67A677A1E4011339F43354B89
:105A9000A6726772984204DD6E2323736C3BE37237
:105AA000F8BD314B984203DA1A2323731C33F6E70F
:105AB00000232E4AE372237383B29A182C4992B2C0
:105AC0008A4224D905300A2100B206F00DF8294B8C
:105AD00000B29D4242DC05006421280006F004F873
:105AE0000A2100B205F0B8FE234B09B2227B5B5CB1
:105AF000134323730A21280005F0F6FF0A2100B2A0
:105B000005F0AAFE1C4B09B25B5CE27A0DE00122B3
:105B1000164300281BDA5B421DB20423E372E37ACA
:105B2000632DD9DCFA22092DE4DC1343E3720A2148
:105B3000280005F091FE0F22104B09B25B5C1A4061
:105B400017431F2293431E436772A672A8E7FA23E6
:105B50009B009842E3DB01232373BDE70500FAE7CE
:105B60008C64FF1F1B4E00001DFCFFFFCB070000D5
:105B7000960F00000A2700008ABF00117ABF0011AB
:105B800070B5194D04006B7A002909D080221343A7
:105B90006B72632C07DD7623AB71363BEB7170BD06
:105BA0007F221340F4E72300093303DA5823AB7153
:105BB0001433F3E700230D4EAB719C420ADA6442C2
:105BC00024B22033AB710A21200005F045FE09B252
:105BD000735CE3E7092CF6DD0A21200005F084FF61
:105BE00000B2335CEEE7C0468C64FF1F6ABF001151
:105BF000F8B50A4F05003B790E00002B0CD0084C7D
:105C00002000FEF7FBFB33002A0020003979FEF765
:105C1000E6FC2000FEF730FCF8BDC0468C64FF1F98
:105C2000F042FF1F70B5094D094C082229002000E1
:105C300005F0D2FE002808D029000822200005F037
:105C400003FF09210348FFF7D3FF70BD9164FF1FD5
:105C50009A64FF1F9964FF1F102110B50B4B5A79EE
:105C60000A405A711A7A56310A401A726022597AD9
:105C70001140074A5A813E221A733D3A0A435A722A
:105C8000044ADA80FFF7CEFF10BDC0468C64FF1FC8
:105C9000E03600006B5F0000224A234B12681B684D
:105CA00010B59A4234D3002832D0204C0223E05E53
:105CB0001F4B1B685B062CD509233221584305F086
:105CC00013FF4130FF3000B2FFF7D8FE0520FFF789
:105CD00065FE0422A35E174A6320934205DC32333B
:105CE0001800642105F000FF00B20121FFF748FF12
:105CF0000120FFF795FE0020FFF76AFE0E4B187893
:105D0000053843425841C0B2FFF77CFEFFF78AFFD7
:105D100010BD0A21053005F0E7FE00B2FFF7AEFE28
:105D20000320D4E73C62FF1F8C64FF1F1462FF1F37
:105D30003062FF1FDD2600007564FF1F70B500256F
:105D40000A4C2000A571FEF759FB10233E212000CC
:105D5000074AFEF744FCA84200D13E35054B20001F
:105D60001D71FEF789FB0123A37170BDF042FF1F77
:105D70005ABF00118C64FF1F0200F0B501270A48CA
:105D80000A4E51188B1A002B00DCF0BD0824157840
:105D90004308684038404000805B013C58406D0833
:105DA000002CF5D10132EDE7FFFF00009ABF001192
:105DB000F0B500250F269D4200DBF0BD4C5D0709C4
:105DC00044403440A400A05801357840F3E7000077
:105DD00070B50C0088B06B460F2610340A7801317C
:105DE0001500120935401D705A700233A142F5D1D9
:105DF00020236946024AFFF7DBFF08B070BDC046AA
:105E0000A0BF0011F0B54E780B7889B036020C00B7
:105E1000170001901E43012A61D9954B9E4200D87C
:105E200077E001339E421CD1062A17D1CA788B78BD
:105E300012021A430B791B0413434A7912061A43C0
:105E40008C4B5A6100221A705A808B4A5A608B4AD6
:105E50009A608B4ADA60002009B0F0BD88225205B2
:105E6000EEE7884B9E423CD182498B78002B00D0D4
:105E7000F6E00C2A31D10F22A3789343E278120284
:105E800013432279120413436279120613434B60C1
:105E9000E279A07912020243207A00041043627A68
:105EA00012060243CA60E27AA07A120202437648DE
:105EB0004A81834208D804236E49142201980B704A
:105EC00005F0C2FD1420C7E71201D21889235B0533
:105ED0009A42F0D801238B70BDE7022AFAD005233D
:105EE000EAE76A4A01239642E6D1FFF717FA052F3F
:105EF0000CD9E378A2781B021343227912041A43C7
:105F000063791B061343624A0393136005F074FE22
:105F1000A1E7584D2B78002B9DD1AB78002B00D1F9
:105F2000A0E02B8901339BB20093B34200D091E0F3
:105F3000132AD4D9CF7C8B7C3F02122120001F432F
:105F4000FFF71AFF874200D08EE0002E3DD1E378A4
:105F5000A2781B0213432279E96812041A43637979
:105F60001B06134303930A228B4212D1FF23A37013
:105F7000E370237163716B89002B09D1E37B227C71
:105F80001B0212041343A27B13431B0901336B81D1
:105F900000226B89002B8ED0002A67D168683701F8
:105FA0003818000B6B6900030390984205D96861AB
:105FB00005F01AFEEB780133EB7068681022A11C23
:105FC000381805F059FE2E8145E76F89009A7B1E2F
:105FD0009BB293423AD1E278A37812021A43237912
:105FE00005A81B04134362796C6812061A43EB6818
:105FF00000920392211D0C22049305F025FD01203F
:10600000260004A940421036FFF7E2FE013F012FAF
:1060100017D1009A0B232861824200D04CE704225A
:106020001C49200005F028FE042203A9686805F039
:10603000C3FBE968039AFF23914200D13CE7F73B99
:106040003AE73100FFF7C4FE1036DFE70923B74215
:10605000A4D831E7009BB34200D9FCE607232BE725
:10606000022329E7032327E7062325E70A2323E75B
:10607000FFFE0000F842FF1F00000111FFFF0000BB
:106080005048593601FF0000FFFF001102FF0000D9
:1060900034F000400443FF1F10B5034C0B000122F5
:1060A000210000F06BFA10BD596200110B8870B529
:1060B00006000D000224162B11D92B0003220949DA
:1060C00000F05CFA041E0AD1074B2A881B88191CB1
:1060D000934200D9111C300089B200F0EDFA200083
:1060E00070BDC04685620011B664FF1F10B54A78C6
:1060F0000400013A0B000220012A07D80A78002A7E
:1061000004D005222000024900F038FA10BDC04634
:10611000B36200110A7810B50B0004000220002AB7
:1061200004D007222000024900F028FA10BDC04622
:106130005F6300110A7810B50B0004000220002AEA
:1061400004D009222000024900F018FA10BDC04610
:10615000C563001110B5034C0B000B22210000F0A9
:106160000DFA10BDF563001110B5034C0B000D22A4
:10617000210000F003FA10BD6764001110B5034C54
:106180000B000F22210000F0F9F910BDC1640011CD
:106190000A7810B50B0004000220002A04D0112256
:1061A0002000024900F0EAF910BDC046D164001198
:1061B000002310B51322190000F0E0F910BD000013
:1061C00010B5034C0B001722210000F0D7F910BDC9
:1061D00023650011002310B51922190000F0CEF933
:1061E00010BD000010B5034C0B001B22210000F075
:1061F000C5F910BD5D650011F7B584890D00060075
:106200000121002C22D000238268D3561778002B5E
:106210001EDA0C2C1AD90C3CA4B213194088009336
:10622000230002F090FE431E984101307B06DB0FF5
:106230006B703F23013C1F40A4B22870AF70AC804C
:10624000002C07D0B3680133AB6000210800FEBD0D
:106250000020EBE7AC60F8E70B7803704B884370E5
:106260004B881B0A83700B79C3700420704704208D
:10627000022B06D10020537811781B02009A0B43A1
:10628000138070470B8803700B881B0A4370022031
:1062900070470420009983420AD1537810781B027A
:1062A00003430B80D37890781B02034300204B807C
:1062B0007047F8B50D004B7801240021461C03708F
:1062C0002B788B4201D82000F8BD6B78B01C4F1C96
:1062D000012B10D1890069184B88022233704B883A
:1062E000B9001B0A7370691805F0B6FC0436043453
:1062F000A4B2F9B2E4E7122359436B185A88043167
:1063000032705B8810221B0A7370691805F0A4FCB8
:1063100012361234ECE770B5049D14001E00052BF4
:1063200001D8042070BD637812781B0213432B80C0
:10633000E378A2781B02134302226B802A71211D8D
:10634000681D063E05F088FCB2B22A81E92AE8D829
:106350002800A11D0A3005F07FFC0020E2E70023A1
:1063600010B50A789A4201D8900010BD9A008A1898
:106370005488013304705488DBB2240A4470948832
:1063800084709288120AC2700430EAE710B51100D6
:10639000029C062B04D004201022142B01D010BD27
:1063A000022222714B7808781B0203432380CB78AA
:1063B00088781B02034363800431601D05F04CFCA8
:1063C0000020ECE710B50C788B7804315C43E4B224
:1063D00003702200013005F03FFC601C10BD04205A
:1063E000022B06D10020537811781B02009A0B4330
:1063F0001380704710B50C000A88023105F02CFCA0
:10640000208810BD70B504000D0004981100012B08
:1064100001D8042070BD16785278120232430280EF
:106420000200F13255701470E125002C00D10C35BA
:10643000023B9AB24280AA42EBD80231043005F006
:106440000BFC0020E6E70420009983420AD1537830
:1064500010781B0203430B80D37890781B02034310
:1064600000204B80704710B50C000A88023105F0FF
:10647000F3FB208810BD000070B501211E00042030
:10648000049C0E400B4218D1CB40DDB28D4214D992
:106490000A49DBB2098899420FD32300EE331D70FD
:1064A0003300580011184978165C09023143013352
:1064B0002152D9B28D42F4D8002070BD1043FF1F85
:1064C00010B50C000A88023105F0C6FB208810BD0B
:1064D00010B50C788B7804315C43E4B20370220071
:1064E000013005F0B9FB601C10BD10B51100029819
:1064F000032B01D8042010BD14785278043B1202FB
:1065000022430280CA788C781202224342809AB2D7
:106510008280EB2AEED80431063005F09DFB002086
:10652000E9E710B50C000B8803700B881B0A437059
:106530004B8883704B881B0AC3708A8804300631ED
:1065400005F08AFBA088043080B210BD0420012B26
:1065500003D100201378009A1370704710B50C0017
:106560000B8803700B881B0A43704A880230043181
:1065700005F072FB6088023080B210BDF0B589B0C2
:1065800003931D4B029242000700D05A019102F082
:1065900022F81325061E2CD0029B01240370019BB8
:1065A000002B04D0001903999847001984B26B4658
:1065B0001B7A5BB2002B0FDA1021380002F01CFBB3
:1065C0001925002812D130003219E1B202F070FC16
:1065D000051E0BD10C34A4B2042305A938000B808E
:1065E0000C814E6001F0B2FD051E02D0300005F0B6
:1065F000FBF9280009B0F0BDB464FF1F70B50500B9
:106600000C0000280CD00020814209D0102220006C
:10661000044905F021FB01202B7823736B78637309
:1066200070BDC046E0BF0011F0B506000D001700B8
:106630001C0085B002291BD00020102907D1022B95
:1066400007D0102B03D115E00020102C08D005B086
:10665000F0BD69463800FFF7D1FF2A0069460BE01C
:1066600069463000FFF7CAFF22006946380004E09F
:10667000022BE9D12A003900300005F0DDFAE6E707
:10668000031CF02800D9F023032008499AB2013AEC
:106690000B80D317034006499B189B100B80D30F28
:1066A00004499B185B100B807047C0461443FF1FC2
:1066B0001243FF1F1043FF1F034B1B888B4202D363
:1066C000024B4000C15270471443FF1FB464FF1FC8
:1066D000014B4000185A7047B464FF1F1722014B4A
:1066E0001A807047B464FF1F70B505000E2005F0D6
:1066F0004BFA041E13D0D0230370002306228370AC
:1067000007494570033005F0A7FA064B2100DA8AE5
:1067100062811B7E2373044B187805F075FA70BDF7
:10672000D064FF1FC064FF1F6443FF1F262803D8E7
:10673000024B4000C05A70470148FCE71643FF1F58
:10674000FFFF000070B506000C00094D1C2200215F
:10675000280005F029FA074B1E70074B1C7005F046
:1067600033FB0123002801D0002312202B7070BDC1
:10677000C064FF1F6443FF1FE164FF1F70B5050085
:106780000D4C0800E260A16010220021656005F058
:10679000ABFA012803D11021A06802F061FD10229C
:1067A0000021280005F0A0FA012803D1102160681B
:1067B00002F056FD70BDC046C064FF1F70B5041ED8
:1067C00005D1002903D006220D4805F045FA0D4BEE
:1067D0001D78012D11D1002C05D102221A7005F06F
:1067E000CBFA280070BD00221A70074B1B78FF2BD4
:1067F000F7D02000FFF778FFF3E70025F1E7C04668
:10680000D064FF1FC064FF1F6443FF1F030010B567
:10681000002801D1002010BD00780B4A002803D1C8
:106820005988D1821B7913761378022BF2D1002379
:10683000984200D103331370044B1B78FF2B01D017
:10684000FFF752FF0120E6E7C064FF1F6443FF1F0C
:10685000002911D000280CD04B79012803D1402207
:106860005242134303E03F221340032802D0012089
:106870004B7170474022F4E70800FAE770B5094D04
:106880000100287800280BD0074C0622200005F0D4
:10689000E3F921002878FFF7DBFF200005F004FA78
:1068A00070BDC046E064FF1FBA64FF1F00290AD014
:1068B000012808D13F224B799343C02B03D0403BA2
:1068C0005A425341981C704770B5174D06002B78FB
:1068D000FF2B15D00A2005F057F9041E10D0D02345
:1068E0000370C83B8370114B11491B784670C3700D
:1068F0000622043005F0B0F92100287805F084F96B
:106900000C4B1B78012B0DD10B4B1B68002B03D0BC
:106910009B68002B00D09847084B04211878084A40
:1069200005F07AF870BDC0466443FF1FE064FF1FA6
:10693000BA64FF1FDC64FF1F0865FF1F0C65FF1FA3
:1069400060EA0000014B98687047C046C064FF1FB2
:10695000014BDB6818687047C064FF1F074B10B518
:10696000DA68136801331360054B1878FF2803D0E9
:106970008021C90104F078FF10BDC046C064FF1F2C
:106980006443FF1FF7B50E0002F0CAF8051E1CD0C5
:106990000E4B06621F78002F00D10778AB791020CC
:1069A000019305F0F1F8041E0FD0D0230380C73BFC
:1069B0008370019BE91DC3700622043005F04CF979
:1069C00021003800E66005F01FF9F7BD6243FF1FA4
:1069D000014B18787047C046E064FF1F054B002844
:1069E00005D1054B1A78054B002A00D1014B180040
:1069F0007047C046D064FF1FE064FF1FBA64FF1FEA
:106A0000014B58687047C046C064FF1F024B1868AE
:106A1000431E9841C0B27047E464FF1F421E03004A
:106A20000120152A03D9FF3B5A425341D8B270477F
:106A3000F0B51C0000230E0085B0039002920B708D
:106A4000029A934201D3002019E0E55C5A1CD2B2AD
:106A5000002DF8D0029851198142F4DC0233DFB2E4
:106A6000A35C18000193FFF7D9FF002807D0013D70
:106A7000019A0399EBB233708A4202D1E01905B052
:106A8000F0BDDB19DBB2DBE710B50C0002F0A0F8BB
:106A900003001220002B03D02100588805F06CF869
:106AA00010BD000070B50E4D84006359002B15D049
:106AB000186A002801D004F0BFFE2B59586A00283C
:106AC00001D004F0B9FE2B59986A002801D004F0D7
:106AD000B3FE285904F0B0FE00232B5170BDC04610
:106AE000F064FF1F1C4B70B504000E0015009942A6
:106AF0000AD11A4B1B68002B01D1122070BD1B68F4
:106B0000002BFAD09847F9E7154B994215D1134B52
:106B10001B68002B0AD01B68002B07D09847002861
:106B200004D1104B1C70104B1D70E7E729002000AA
:106B3000FFF7AAFF0028E1D1F3E7080001F0F0FF1A
:106B40000028DAD003780320A342D7D129003000EF
:106B500005F012F8D2E7C046FEFF0000EC64FF1F0C
:106B6000FFFF0000E964FF1FE864FF1FF7B50400A2
:106B7000808801F0D5FF0025A84203D00578A088C1
:106B800002F00AF81C4E3378002B1FD0AB421DD107
:106B90001A4B28001978FFF777FF002818D0002338
:106BA0003370A3790820A778A688019304F0ECFF3E
:106BB000011E0DD0D0230370CA3B8370019B477028
:106BC00086808371280005F01FF801E0002DE8D1D0
:106BD000A0880B4B8200D358002B01D0FFF762FF37
:106BE0001721A088FFF768FDA08801F02BFDA08881
:106BF00001F002FEF7BDC046E964FF1FE864FF1F15
:106C0000F064FF1FF0B587B01D000CAB1B880700B8
:106C100001930DAB1B88142002930EAB1B8816004A
:106C200003930FAB1B880091049310AB1B88059353
:106C300004F0AAFF041E1AD0D0230370CB3B477088
:106C40008370C670062229000430002D11D005F093
:106C500003F8019B21006381029B0098A381039BA1
:106C6000E381049B2382059BA37404F0CDFF07B04E
:106C7000F0BD04F099FFECE7F7B5009308AB1B8873
:106C800007000C200D001600019304F07DFF041E88
:106C900013D0280001F044FF00280FD00078D02343
:106CA0002370C93BA370009B21002381019B677067
:106CB000A580E680638104F0A7FFF7BD014B18783B
:106CC000EDE7C0466443FF1F13B5040064890389E0
:106CD000C2888188C0780094FFF7CEFF13BD000002
:106CE00010B5044C2068002803D004F0A5FD002353
:106CF000236010BDF464FF1FA122F0B581889200CB
:106D00004A43384B384F1B6889B09B189D2292002C
:106D10009B18827904001A603B68002B5FD01D78B5
:106D2000324B1B68002B04D05B68002B01D0002085
:106D30009847260008363100E079FFF7B7FD237D3C
:106D4000E0710200E0780493638A29000393238AA8
:106D50000293E3890193A38800933300FFF752FF66
:106D6000E378002B0BD1E289A379A18802920196E6
:106D7000E27928000092012201F0DCFEE0703B681D
:106D8000002B20D0FFF7ACFF194D287800281AD02F
:106D9000184B1978FFF778FE002814D02B780820BC
:106DA000A788E678079304F0EFFE011E09D0D023F0
:106DB0000370CA3B4670837087808671079804F021
:106DC00023FF00232B701721A088FFF775FCA088F4
:106DD00001F038FCA08801F00FFD09B0F0BD064BB2
:106DE0009DE7C0463409FF1FF464FF1F0865FF1FBD
:106DF000E964FF1FE864FF1F6443FF1FF8B5070045
:106E000008000E0001F08CFE041E18D02620FFF7AB
:106E10008DFC051E00D12578062004F0B5FE041E69
:106E20000DD00021062204F0BFFED0232370C23B08
:106E300021006770A370A680E8B204F0E5FEF8BDFB
:106E4000F0B585B001930AAB1B78070002930BAB3A
:106E50001B7808000D000092039301F061FE061EEE
:106E600022D0102004F090FE041E1DD0102200211C
:106E700004F09AFE2620FFF759FC002800D1307854
:106E8000D0232370C13BA370009B21002372019B80
:106E900067706372029BA580A372039BC0B2E3720A
:106EA0000C9BE36004F0B0FE05B0F0BDF7B50D003B
:106EB000019001F035FE071E1FD00E2004F064FE85
:106EC000041E1AD02620FFF731FC061E00D13E78A2
:106ED000D0232380C53BA370F91D0622E01C04F0DB
:106EE000BBFE019B2100638101232B40AD07ED0F09
:106EF00023736573F0B204F087FEF7BDF0B585B07B
:106F0000029010000D0017000A9E039301F008FE86
:106F1000041E31D0029B002B2ED1039B02795B070C
:106F200024D5122313430422002E08D10B990029E3
:106F300005D10C99002902D10D9900291AD01A43C4
:106F40000D9B2271002B00D0C9E0002E00D1CFE0B4
:106F5000002D00D0CCE0606A002801D004F06CFC69
:106F60001C21300004F098FC606205E002239A4383
:106F70000E33D7E793432371654BBA00D458002CE6
:106F800000D1AAE0002E10D0236A002B03D11C20D0
:106F900004F0DAFD20625E4BBA00D358186A00286C
:106FA00003D01C22310004F057FE0C9B002B12D0A2
:106FB000574CBB001D596B6A002B03D1162004F0FF
:106FC000C3FD6862BB00E358586A002803D016224C
:106FD0000C9904F041FE0D9B002B11D04C4DBC00D0
:106FE0006659B36A002B03D1142004F0ADFDB062E2
:106FF0002B59986A002803D014220D9904F02CFE16
:10700000380001F08DFD051E67D0414BBA00D35802
:10701000002B62D01A6A3420002A00D11C389A6AE8
:10702000002A01D0143080B20B9A002A01D01C3003
:1070300080B25B6A002B01D0163080B204F0A4FD50
:10704000041E4AD01822002104F0AEFD2620FFF7CE
:107050006DFB0190002801D12B780193D023237080
:10706000029B200063700A23294EA370039BBD007E
:10707000A371AB59A780196A1830002905D01C22CA
:10708000A06004F0E9FD200034307359996A0029AA
:1070900007D0030014221433E060029304F0DCFDF7
:1070A00002980B9B002B08D003001C221C330B9969
:1070B0002061029304F0D0FD02987359596A0029A7
:1070C00003D01622606104F0C7FD6B4621001879D9
:1070D00004F09AFD3800FFF7E5FC05B0F0BD102282
:1070E0000D9B0D991B69A018236204F0B5FD2CE7D8
:1070F0000B9B002B00D13FE7012D00D03CE7606ADD
:10710000002801D004F098FB1C210B982AE7C04608
:10711000F064FF1F10B5044C2068002803D004F071
:107120008BFB0023236010BDE464FF1F0B4B07B5EE
:107130001A68002A01D100200EBD6946531C0120A7
:1071400012780731FFF774FC0028F4D0027801238D
:10715000100018401A42EED0EEE7C0460065FF1F4F
:10716000F0B51F4F01203B6887B0002B25D09B78DE
:10717000059300F0B3FB002821D00A20FFF7D6FAD0
:1071800004000B20FFF7D2FA164B05001E78731E81
:107190009E413B68F6B2191DD878FFF759FB3B6852
:1071A0002900DA7A043303929A79019302920090CB
:1071B00033002000059A04F0E7FD07B0F0BDFFF7AB
:1071C000B5FF002805D00620FFF7B0FA040007201D
:1071D000D8E70820FFF7AAFA04000920D2E7C04642
:1071E000E464FF1FE064FF1F70B50A4E04003378AB
:1071F0000D00FF2B0DD0042004F0C6FC011E08D0AA
:10720000D0230370CE3B45708370C470307804F097
:10721000FBFC70BD7443FF1F70B5040006200D0019
:1072200004F0B2FC011E0AD0D0230370CD3B837062
:10723000054B44701B688580187804F0E5FC002C31
:1072400001D0FFF767FF70BDE464FF1FF8B5264F5C
:1072500006003B680D001124002B05D10522234BAD
:107260001B78134202D112242000F8BD204A1024BA
:107270001268002AF8D01278002AF5D0DB0719D559
:107280002B789A1E012A1AD80C2004F05DFC1324D6
:1072900038600028E8D000230A22437029000670D5
:1072A000023004F0D9FCFFF75BFF041E0AD0FFF7A1
:1072B00031FFD9E700F012FB0028E1D1E4E7002B11
:1072C000E2D0D0E70B4B1B78032BCDD11D20FFF76D
:1072D0002DFA094B18800028C6D0084B04211878D5
:1072E000074A04F099FBBFE7E464FF1FE164FF1F56
:1072F0000065FF1FE064FF1FDE64FF1F0C65FF1FBA
:1073000060EA0000F7B50193194B14001A780523C1
:1073100006000F0012201A4221D0012920D1154B5E
:107320001D68002D1BD002201F2C18D8002C02D065
:10733000019B002B13D0104B1F221E706E1C0021CE
:10734000300004F031FC01992200300004F084FC8C
:10735000310020002C70002F06D004F0FDFBFEBD94
:10736000064B12201D68DCE704F0AEFAF7E7C046D2
:10737000E164FF1F0065FF1F7443FF1FFC64FF1FD4
:10738000F8B50F4E12243368002B17D01B780F3C32
:10739000834213D100250B4F0221387804F0E4FC1E
:1073A000094B042138781D8004F0DEFC074B2800CF
:1073B0001D8033685C7004F067FC04002000F8BD99
:1073C000E464FF1F0C65FF1FF864FF1FDE64FF1FEE
:1073D00070B5012823D11B4C2388002B03D01A4AF7
:1073E0001578002D07D0194B1B68002B02D0187898
:1073F000FFF7C6FF70BD3B2B02D93C3B2380F9E76A
:10740000134E0221307804F0AFFCFA222388920058
:1074100002215A43307804F027FC2580EAE70B4B21
:107420001B68002BE6D00B4B1B785B07E2D5084BA3
:107430000221187804F098FC0022024B1A80FFF712
:1074400069FED7E7F864FF1FDC64FF1FE464FF1FD9
:107450000C65FF1FE164FF1FF8B51E4D286800286A
:1074600003D004F0E9F900232B601B4E306800289C
:1074700003D004F0E1F900233360184F05243B7872
:1074800018002040234221D0154800F02BFA3B7809
:10749000234213D0202004F057FB2860002813D08B
:1074A0002022002104F080FB202004F04DFB041E6C
:1074B000306005D02022002104F076FB002004E09B
:1074C000286804F0B9F92C601320F8BD00F00AFA1E
:1074D000F4E7C0460065FF1FFC64FF1FE164FF1F67
:1074E0006843FF1F10B50A4C23681A1E0ED00028EF
:1074F00008D10130587004F0C7FB002805D023687C
:10750000002B02D00021FFF787FE0122100010BDE2
:10751000E464FF1FF7B5274E050033680191181E7C
:1075200021D05C78244F012C30D1FFF7FFFD0028DB
:1075300025D02000FFF7FAF80400412814D91F4B8A
:10754000022118781E4A04F067FA1E4B3C3C1C804E
:10755000022233685A703B78002B14D1280001991D
:10756000FFF75AFE0120FEBDFA2292004243002A94
:10757000EED0124B0221187804F076FBE8E7FFF713
:10758000D5F80200F3E700233B70EBE73B78002BD4
:10759000E8D1032004F0F8FA011E08D0D0230370CC
:1075A000CC3B457083703368187804F02DFBFFF7EF
:1075B000B1FDD7E7E464FF1FDC64FF1F0C65FF1F0C
:1075C00060EA0000F864FF1F10B5174983880200C5
:1075D0008B4220D011D815498B4217D01449002076
:1075E0005B1899B2012907D8926811785A42534121
:1075F000D8B2FFF7F9FD012010BD0E4A00209B18FC
:1076000007229BB29A424041C0B2F5E783681878DE
:10761000FFF768FFF0E7836899785A7809021878CD
:107620001143FFF777FFE7E70A200000062000007C
:10763000F8DFFFFFAFDFFFFF014B18707047C04658
:107640007543FF1F10B5064C207001F045FA2078F5
:1076500004F052FB0521207800F068FD10BDC04603
:107660000C65FF1F0BB273B50D00002B00DBC4E0EF
:10767000884B187804F050FA041E0ED00378912B32
:107680000FD0A22B00D1A1E0834B1878FF2852D055
:10769000210004F0B9FA00284DD180200002684092
:1076A00076BD43780F2B76D013D8052B70D00E2BD8
:1076B000EAD18088794B98422BD8794B98421BD8D5
:1076C000784B9842E0D1A3681878591CFFF776F8F8
:1076D00038E03E2BD8D18378032B74D06CD8012BA3
:1076E0006ED0022BD0D1704B1B68002B23D05B686F
:1076F000002B20D098471EE06C4BC0180C28C3D834
:1077000004F062F91DC2C2150BC20B0B0B3223C26F
:107710003C00674BC0180728B6D8664B1B68002B87
:1077200009D01B68002B06D0200098470AE0A36808
:107730001878FFF7C9F8200004F0BEF9ADE7A0689B
:10774000FFF764F800289FD0F5E7A3681B78002BAB
:10775000F1D0554B1B68002BEDD01B68002BEAD0F5
:10776000210055489847EDE74F4B1B68002BE2D0AE
:107770001B68002BDFD021005048F3E7504B1B68FB
:10778000002BD8D05B68002BD5D021004348E9E717
:10779000FFF7ECF9CFE780884A4B984203D04A4B79
:1077A000984200D070E7464B1B68002BC3D05B6843
:1077B000002BC0D02100D5E7153B012BBBD963E7D7
:1077C000FFF79AFAB7E7FFF77FFAB4E73F4B1B786A
:1077D000042B07D100236A4613800179408800F00A
:1077E000CBFCA8E7364B1B68002BA4D05B68002BB2
:1077F000A1D00100364898479DE7012421420AD0D4
:10780000294B1B68002B04D05B68002B01D00020A3
:107810009847012043E78B070AD5264B1B68002BAE
:1078200004D05B68002B01D020009847022036E787
:107830000421280008400D4200D131E7254E33884D
:10784000002B21D0013B9BB23380002B1AD1FFF7D4
:10785000DDF800280AD0204B1C70164B1B68002B4B
:1078600004D05B68002B01D020009847FFF7C8F8D0
:10787000694601F00CFD6846FFF700F81D20FEF791
:1078800055FF308004200AE7024B187804F06CFAA8
:10789000F8E7C0460C65FF1F7543FF1F0E20000070
:1078A00001200000091000000465FF1FFEDFFFFF3C
:1078B000AFDFFFFF0865FF1F0C2000000B2000005A
:1078C000EC64FF1F0D20000013200000E164FF1F87
:1078D000FFFF0000DE64FF1FDC64FF1F10B501F036
:1078E0009FF910BD014B18607047C0460865FF1F27
:1078F0000B880020162B01D817230420014A13807F
:107900007047C046B664FF1F00207047074A030057
:107910001188814207D091880020994202D101301C
:107920008000101870470020FAE7C0461465FF1F5A
:10793000F0B58F7806000D00C5B01E2F15D1FFF7EA
:10794000E5FF051E03D10024200045B0F0BD002254
:107950003B003100C078009200F0B8FB0400A81C86
:1079600000F0D8FBFF23EB70EEE7264B06240393D1
:107970001B78FF2BE8D0182FE6D87B08224A013B62
:10798000DB0002929A589446002ADDD0029AD3185E
:107990005B68002BD8D00878002802D14B78012BE7
:1079A00002D10624122FCFD107AFAB886978009798
:1079B0006446AA68A047041EC6D1AB78029A5B0849
:1079C000013BDB00D318390030005B689847041E88
:1079D0000BD1AB78042BB6D0039A3100107822007B
:1079E000009700F073FB0400AEE76A78002AABD181
:1079F000AA7805A93B88087130000A704B80FEF711
:107A00004BFBA0E77843FF1FF0BF00111D4B37B5BC
:107A1000050098420BD000290AD1FFF777FF002814
:107A200005D11948FFF772FF002800D0058037BD47
:107A300001291AD1FFF76AFF041EF8D001235B4227
:107A40000380A378FF2BF2D0FE2B07D00023E07831
:107A50001422009329001E3300F038FBA01C00F014
:107A600059FB01235B426380E1E70229DFD1013941
:107A700001F0C2F80028DAD12800FFF747FF041E02
:107A8000DFD1D4E7FEFF0000FFFF0000022210B5A7
:107A9000074B52421A80074801325A809A80DA8096
:107AA00000F084FA044801F029F8002010BDC04617
:107AB0001465FF1F317900110D7A00110388F7B5A5
:107AC0000400002B02D102252800FEBD42680221DD
:107AD000137825485268FEF7A7FD00282ED0234FC3
:107AE00001253A88002AEFD0802321885B020125F6
:107AF0009B1A9942E8DC0C2004F026F8061E31D0CF
:107B00003B8822889C4600231800019561469DB25F
:107B1000491989B2AA421BD8002801D062443A8090
:107B200000233000082208C0210004F095F8104A14
:107B30001368002B13D100251660C5E76268022187
:107B400013780C485268FEF76FFD0028C7D1BAE7DA
:107B500060681D014019418101330198D6E71A0080
:107B60001B68E6E71325AFE75EC000117643FF1FF1
:107B70001065FF1F5CC00011014B18707047C046B4
:107B80007843FF1F14230A0010B51A40194204D08D
:107B90000122102101F04CF810BD4B06F9D4C84366
:107BA000022340001840F7E710B514008B0604D5F7
:107BB0000122102101F03CF810BD08230A001A40F0
:107BC000194202D14BB2002B0FDA102101F030F82C
:107BD000002808D02300F2331B78002BECD0F134BE
:107BE0002378012BE8D10020E6E703208907FAD4A7
:107BF000E2E70000F0B51F00184B85B01C6801904B
:107C000002910392002C27D1200005B0F0BDA56899
:107C10003301ED186B89019A934211D3029A934272
:107C20000ED8002F04D10A9B002B10D12C00EBE7BB
:107C30003B002978039A6868FEF7F6FC0028F2D129
:107C40000136B6B2A388B342E1D82468DAE7A36864
:107C50000A9A5B891380E9E70026F3E71065FF1FA6
:107C600037B50C000A8849880123914217D3002AAE
:107C700015D0651D23792A0002210A48FEF7D4FC9D
:107C8000102300280BD023796188208800242A0043
:107C90000094FFF7AFFF0A23A04200D02300180092
:107CA0003EBDC0465EC0001113B50A000888498871
:107CB000012388420BD8002809D00024137905320B
:107CC0000094FFF797FF0A23A04200D0230018007A
:107CD00016BD13B50A0008884988012388420BD8CD
:107CE000002809D00024137905320094FFF782FFA1
:107CF0000A23A04200D02300180016BDF0B58BB0B7
:107D000003904A8808880E000123824213D300287A
:107D100011D00023012704AC2370002271881300C6
:107D20000092FFF767FF05002078002D06D122782A
:107D30000A23002A41D118000BB0F0BD002835D12C
:107D40002B78022B18D167706A8983000130E31801
:107D500080005A8069680222201803F07DFF237892
:107D60000133DBB22370042B19D93B006889013041
:107D700080B2002BD1D0DAE702236370122358437C
:107D80006A89231804305A8069681022201803F089
:107D900063FF23780133DBB22370002BE5D10A4A5D
:107DA0006B899B185A425341DBB2DFE76378012BA2
:107DB000E4D12B78022BC7D0B9E721000398FEF756
:107DC00095F90023B7E7C0460100FFFF0F4BF0B560
:107DD00004001868002816D083685D89A54207D87A
:107DE0008288AE18B44203DA12019A18934201D184
:107DF0000068EFE71E005F891036A74204D1002912
:107E000000D00D801800F0BD3300EFE71065FF1FB4
:107E100070B505000C0008880021FFF7D7FF0300AC
:107E20000120002B04D022002800197AFFF7BCFEA5
:107E300070BDF7B50C00002501902300EE331B78D0
:107E4000AB4201D800200AE06B00E65A0021300066
:107E5000E718FFF7BBFF002802D126800130FEBDE6
:107E6000017A0198FFF78EFE002802D03B8823801C
:107E7000F5E70135EDB2E0E710B504000888002110
:107E8000FFF7A4FF03000120002B03D02000197A84
:107E9000FFF778FE10BD0000054B1B68002B01D1D9
:107EA000180004E09A6852898242F6D19888704797
:107EB0001065FF1FF0B50E27002687B0039302ABB5
:107EC000FF183E8005001F4B40891400984207D0E0
:107ED0002B78013000976A6880B2FFF78BFE0600AE
:107EE00002212B7818486A68FEF79EFB00280FD005
:107EF0006C892000FFF7D0FF002802D0013C041954
:107F0000A4B2039B002B00D01C80300007B0F0BD52
:107F100002212B780D486A68FEF786FB0028E7D11E
:107F200002212B780A486A68FEF77EFB002807D0FA
:107F3000002EDED03B88A342DBD17489013CDFE711
:107F40006C89DEE7FFFF00005EC000115CC000111D
:107F50005AC0001110B50C00FFF7D8FC0300022036
:107F6000002B0AD0002C00D023609B781720FE2B1A
:107F700003D00138FF2B00D1002010BD73B50D00D8
:107F800001A904001600FFF7E5FF172805D0002E11
:107F900004D129002000FEF725F976BD0122102129
:107FA000200000F045FE0028F3D0F6E7014B1860F2
:107FB0007047C0462065FF1F37B56B469D1D010009
:107FC00004000222280003F03FFD2B88B02B0ED1C5
:107FD0002379122B09D12300FA331B78012B06D108
:107FE0000121608800F0E0F801E01B2BF8D037BDDC
:107FF00010B5054B0421187000F098F8FFF746FD06
:10800000FEF76CFB10BDC0462465FF1F0020F0B5D5
:108010000BB20F0087B0834234DA274B187803F095
:108020007BFD051E2BD00378A02B25D103AE31009C
:10803000FEF7E2F8041E0BD1B378DB0724D51F4B03
:1080400006341B68002B03D0310068889847040071
:10805000A868002801D003F0C7FC002C08D1184AFA
:10806000039B1340174A934206D0B3781B2B03D0CF
:108070000121688800F098F8280003F01DFD802099
:108080000002784007B0F0BD0F4B1B68002B10D0EA
:10809000310068889847041EDAD07378002BD7D156
:1080A000B27801A90A704B800C716888FDF7F4FF63
:1080B000CEE70624F1E7C0462465FF1F1C65FF1FBD
:1080C00000FFFF00000112002065FF1FF7B50190BF
:1080D000FC200D0017001E0003F056FD04001320C5
:1080E000002C12D0B02320002370089BF42267706C
:1080F000658026710830002B08D0190003F0ACFD14
:108100002100019803F080FD0020FEBD089903F0D6
:108110004BFDF5E710B5041E06D00078FD2803D806
:1081200003F07AFBFF23237010BD00000A1F93B2F7
:1081300010B504000220032B05D882400020024B1A
:10814000D1529B189C7010BD4465FF1F0B8870B501
:10815000043B04000D000220032B0BD8012120005A
:1081600000F04AFD03001420002B03D0290020005A
:1081700000F0DEFB70BD000007B51300034A00925B
:108180000A00012100F02CFC0EBDC046B583001191
:1081900007B5019203220092024B0A00122100F05F
:1081A00047FC0EBD3384001107B56B4601AA118050
:1081B0000449D88008780633012802D1190003F059
:1081C00053FC07BD2565FF1F0C4B10B5187000232D
:1081D000FF210B4A1380138193819380094A5380B6
:1081E0001370517293819372D174D3821375517746
:1081F00003F082FC00F0FCF910BDC0465465FF1F7F
:108200004465FF1F2665FF1FF0B58DB06B4600204B
:1082100003910C229B5E834200DBB1E05D4B18783A
:1082200003F07AFC051E00D1A5E00378902B00D066
:108230009EE006AF01004688380000F013FA796826
:108240000400002900D19DE03B88052B6FD13B89BC
:10825000032B1CD905AC200000F0A2F86288172A75
:1082600060D83989131D994231D179682378043156
:108270000291D90738D5607800F08EF9071E06D034
:10828000002303712378012B08D0132B23D0A86877
:10829000002800D179E003F0A7FB76E0628802991C
:1082A00009A800F0A6F80290380000F08BF909AA9E
:1082B0002378387A0192002231000092029A00F06D
:1082C00012F9380000F064F9029B002BDFD0300077
:1082D00000F080F9DBE70378032BD8D1628802999C
:1082E00009A800F0D6F8DEE709AF122B12D138004A
:1082F000029900F0B4F8021EE9D127498B88002BBF
:10830000C5D088792378019761780091310000F019
:10831000EAF8BCE700233A003B8061783000FFF7C1
:108320002BFFB4E71D4B09AA09936178F6E7042BEC
:1083300002D09A1F012AAAD8174A043B9B00995AD7
:108340000029A4D0D218907831003A0000F0ADF89E
:1083500000289CD13B88042B03D001213000FFF77B
:1083600023FF012C04D1A868002801D003F03CFBB6
:10837000280003F0A1FB8020039B0002434018006B
:108380000DB0F0BD012800D181E701213000FFF7D9
:108390000BFFEDE75465FF1F4465FF1F0100170049
:1083A0000B7803704B784370CB788A781B021343A9
:1083B000438070470A88030002700A88120A4270DC
:1083C0000A88012A06D14A8882704A88120AC27035
:1083D0000420704702208242FBD14A8804309A7000
:1083E0004A88120ADA708A881A718A88120A5A71BF
:1083F000EFE710B50400012082420CD94B780A78CF
:108400001B0213432380834206D1CB788A781B0258
:1084100013436380002010BD022BFBD1CB788A78F8
:108420001B02134363804B790A791B021343A38019
:10843000F0E70B8803700B881B0A43704B8883702E
:108440004B881B0AC3708B8803718B881B0A43718E
:10845000CB888371CB881B0AC37108207047030047
:108460000120082A14D14A780878120202431A809F
:10847000CA788878120202435A804A79087912022F
:1084800002439A80CA798879120202430020DA8076
:10849000704710B504000120022A05D100204B7856
:1084A0000A781B021343238010BDF8B50600102084
:1084B0000F00150003F068FB04000120002C0ED013
:1084C000A0230C22290023806780201D002D07D0C7
:1084D00003F0C2FB2100300003F096FB0020F8BD42
:1084E00003F062FBF6E7F7B51E00009008AB14201E
:1084F00017001D78019103F047FB041E12D0A22340
:108500000370019B47704380099B057146710C22E3
:108510000830002B07D0190003F09EFB21000098C3
:1085200003F072FBF7BD099903F03EFBF6E737B5A0
:10853000041E0FD04388002B0CD00025C1881323C4
:10854000007A172201950095FFF7CDFFFF23658084
:108550006372257037BD000010B50C4904004A88CD
:10856000002A09D08B89002B05D00020CB8A02225B
:10857000834201D010BD012213000A204343002092
:108580004032C854C81842800472F3E72665FF1FC2
:108590000023438003707047094B00211A0010B577
:1085A0005C88002C06D01C79844203D10A234B43FB
:1085B000D01810BD01310A330329F1D10020F8E7AA
:1085C0002665FF1F10B50400407A03F025F9FF234C
:1085D000637210BD7047043010B580B203F0ACFB7D
:1085E000002803D00421494203F04EF910BD0000D9
:1085F00070B50025104CA0682580A581A580A842F3
:1086000002D003F0F1F9A56000250C4C0C4B606D15
:108610001D80230058331D70A84202D003F0E4F9F6
:10862000656500256068002801D003F0DDF901359B
:1086300008340A2DF6D170BDEC65FF1F9065FF1F51
:10864000E065FF1F70B5041E09D1054D2880A88183
:10865000A880A868002802D003F0C6F9AC6070BDFD
:10866000EC65FF1FF0B54B8885B001930023436094
:108670000A7905000F00022A00D07BE0CA88032A8D
:1086800017D98B685E7819783602DC78D8790E4372
:1086900099781B7A24021B020C43034353495BBAAB
:1086A0000B80331D93421ED1042C04D0631F022B78
:1086B0000ED9012015E0019A4D4B1201D35A002B1F
:1086C00006D00198FFF7BEFF4A4A136901331361D0
:1086D0000421B8682E812C80494203F0D5F86860E7
:1086E000002005B0F0BD434D042C06D0631F022BC3
:1086F0000FD9EB680133EB60DBE7019A3C4B1201C9
:10870000D35A002B05D00198FFF79CFF2B6901334A
:108710002B61374B30000293019B029A1B0101939E
:10872000002301998C468B52130063449C80039371
:108730009E81FFF750FF039B041E986016D0042112
:10874000B868494203F0A0F8FA880100043A200012
:1087500003F082FA0199029AFB888A5A043B9B181B
:10876000029A8B522B6801332B60A2E7AB6901336D
:10877000AB619EE71E4B0293019B1E01029BF35AC5
:10878000002B2DD002998C19A068002828D0012A2E
:1087900026D1FA889B189BB27352A189994217D3AC
:1087A0009B1AC018B96803F057FA029BA289F35AC2
:1087B000934200D07DE700222B81A3882B80A36801
:1087C0006B60029BF2520B4A53680133536070E7AF
:1087D000084A9368013393600198FFF733FF68E715
:1087E000044A536901335361F6E7C0465665FF1FDB
:1087F000EC65FF1F5C65FF1F70B5051E15D10B4CA6
:108800000B4B1880230058331870606D002802D07D
:1088100003F0EAF86565250050356068002801D04E
:1088200003F0E2F80834AC42F7D170BD9065FF1F49
:10883000E065FF1FF0B51700A12285B092000193FB
:108840004243394B06001B680C009B18D933FF3399
:108850001D78FDF73DFF0430854204DD3000FDF753
:1088600037FF0430C5B2BD4207D33A0000213000C3
:10887000019B03F051F805B0F0BD2900380003F06A
:10888000C3F82300C6B250331E700393019B290026
:108890006365380003F080F8CBB20293002B02D05E
:1088A000039B01361E7000262300503303931B7870
:1088B000B34204D8606D002831D10020DBE7029A72
:1088C0002800002A04D0013B1000B34200D0280049
:1088D000F700E719387002F087FF786000280ED0A3
:1088E0003A78019903F0B8F9019A3B780136D31828
:1088F0000E4A0193D369F6B20133D361D4E7039BE7
:1089000018706065A74205D1084A1320D36A013365
:10891000D362B0E7606803F067F80834F2E703F069
:1089200063F800236365C8E73409FF1F5C65FF1F18
:10893000F7B50D0007000421686802F0A5FF2B8938
:10894000040003702B891B0A43702B8883702B88CB
:108950001B0AC3702E8902250436F6B2F42E15D8F0
:108960001B4B9F4214D10C2003F00EF91135011E50
:108970000CD0902303708E3B0371043B4380154B56
:108980008460C680187803F03FF900252800FEBDFA
:108990005C237B43104AD3180093583301931B7810
:1089A000002B0FD10300320038000099FFF742FF7F
:1089B000019B05001B78002BE8D13800009903F0DB
:1089C0004BF8E3E7054A0725536A01335362DDE7B5
:1089D000FEFF00005465FF1F9065FF1F5C65FF1FD1
:1089E000F0B587B0009017200F0016000193FFF735
:1089F000F2FD1325041E18D00C98031E02D0019915
:108A0000201D9847030AE370052303A9A0700430D2
:108A100008812770009866700B804C60FFF788FF14
:108A2000051E02D0200002F0DFFF280007B0F0BDD5
:108A3000F0B587B01F000CAB1B78039105930121A3
:108A40000DAB06001C78049200F0D6F8142500281F
:108A500021D02000FFF780FD0135041E1BD01149F5
:108A6000059B0A7803700132D2B2131EC68001D171
:108A700001231A000B7022713000049B03990097A8
:108A8000FFF7AEFF051E09D1230021000648074A63
:108A9000093303F021F9280007B0F0BD00236380FB
:108AA0002370F8E75865FF1F2F850011307500000F
:108AB000F8B505000E00064C064F2368002B02D0C7
:108AC0003100280098470434BC42F6D1F8BDC046B6
:108AD000FC65FF1F1066FF1F0123064A5B4253809F
