:020000041100E9
:10300000F7B5164B0192C318021D002000938823C8
:103010005B05D3181B685C1C1AD09CB2402C18D8D6
:103020008D781E0CAC466746CD782D023D43AE42EE
:1030300006D1019800280ED110000C70240A4C70A3
:1030400003249BB20733A343D218009B9A42DED3DA
:10305000FEBD4432F9E71000FAE7C046FC0F00005D
:10306000802213B503000324019189B25201073174
:103070009B18A14304305A1A88235B05C3181B68A8
:10308000591C03D190429241104016BD99B240297B
:1030900007D80B000733A343C0189042ECD300209D
:1030A000F3E74430F9E7134B134A1B68126810B575
:1030B000F424934201D81A00F024104BA4021B6898
:1030C0009A4210D813000E4A12689A420ED3013366
:1030D00007D1F0239B029C4203D10A49054808F01E
:1030E0006FFA200010BDF824A402ECE7FC24A4022F
:1030F000F7E7C04600C0031100D0031100E0031140
:1031000000F00311FFFFFF7FF0B59BB015000490A6
:103110000391402A00D9A0E006AB59801A80FFF73E
:10312000C2FF0400042816D9002206A9FFF768FF91
:10313000052810D906AB1B88AB420CD1002D07D057
:10314000514B2A000499C01808F02AFA002802D12D
:1031500001201BB0F0BD06AB1D8020000699FFF7D3
:103160007FFF041E7BD1069B0793FFF79CFF802304
:103170005B01C61880230700DB029E4201D3F026C4
:10318000B60288235B05F31801931B68013302D054
:10319000019807F0F5FF3D49019808F011FA3B1D31
:1031A0000293331D05938822029B52059B181B68CE
:1031B00008935A1C3CD044219AB20091402A04D86A
:1031C0000320D11D814389B2009103991B0C8B42CE
:1031D00024D0402A22D80122300008A9FFF710FF8E
:1031E000021E1BD1380008A9FFF70AFF04000428BB
:1031F00031D9009A059B9B1880225201B218934244
:1032000040D288235B05C118009A09A807F0A8FFDF
:103210001D4B009A09A9F01808F0FAF8009A029BD1
:103220009446634402931A4B029AFB189A42BAD30B
:1032300088235B05FC1821680198013908F0C0F962
:10324000200007F09DFF039A07AB5A8030000799D2
:10325000FFF706FF0400002C03D1002079E70428C3
:10326000FBD988235B05E018069908F0A9F9032328
:10327000EA1C9A4300D16BE7034B0499E01808F06D
:10328000C7F865E70424ECE704000011FFFFFF7FA7
:10329000F80F0000F7B505001400402A21D80027D8
:1032A00001AE71803780FFF7FEFE042816D93A0080
:1032B0003100FFF7A5FE042810D93688BC420BD098
:1032C000BD4209D0221CB44200D9321C064B92B236
:1032D000C118280007F044FF30B2FEBDC04300B261
:1032E000FBE703204042F8E70400001137B5042251
:1032F00004000D0001A81649FFF7CCFF02000428C6
:103300000BD1019BA34208D3AB4204D0104901A8C2
:103310000195FFF7F9FE01203EBD0E4C2368200009
:10332000019307F02DFF019920000139019108F068
:1033300047F980235B01E418074B9C42EED104223D
:10334000034901A80195FFF7DFFE0020E4E7C0462E
:103350005555000000C003110000041130B589B0BC
:1033600007F0E6FE10226946254808F019F8254BBB
:10337000009A9A420ED1019B029A0F2B33D800215A
:1033800001240698013B08D2002900D00292029B3A
:10339000013331D10023029325E0551CF2D1020004
:1033A0002100EFE710341022200004A907F0F8FFF5
:1033B000029B013301D1069B0293882304995B058C
:1033C000C918059B06981A03120B049105928142B5
:1033D00003D02B4201D107F0C3FE019B013B0193B7
:1033E000019B002BDED1029B002B03D00493049899
:1033F0004168084709B030BDE025014C2D03EFE7D7
:1034000000000111504859368022F8B5964C974B70
:10341000D200002120001C6008F0F2F82300944A3A
:1034200088331A60934B1A786A23002A00D011332C
:10343000E3620A232365904B37221B780820A3639D
:103440008E4B2118E361102323628D4B3B25636172
:10345000C823DB00A36123008C331A602823013AC0
:10346000E26320646364CA67043A211DCA672100CD
:10347000BC310D602100C03108602100C4310B60F7
:1034800021000635CC310D602100083DC8310D60AA
:103490002100D0310A602200D43210602200D832DC
:1034A000136022000227E032210017604222DC3143
:1034B0000A6021001B3DE4310D602100E831086005
:1034C0002100EC310B6023000521F4331960230047
:1034D000F0331A602300183290331A6023009433BB
:1034E000186023001E3A98331A60AF23DB00236074
:1034F000644BFA262363644B644DE360644BF03104
:10350000A3642300FF31FC33B600A16021611E607B
:10351000A5627325E5656D3D6565A56596255D4AE2
:10352000AD00E264666258606766A56600270925FB
:10353000A767E566584F594D606720002567E26729
:103540003A6015279C30676007001A203860200019
:10355000A0300700212038602000A83007004C4828
:1035600038602000F830066026006427A4363760F3
:1035700026005F3FAC3637602600033FB036376029
:103580002600C637B436376026000027B8363760C5
:1035900038269E60424E96205E64424E5A66DE6138
:1035A000414E9A645E62F53EFF3E9E621E269A6719
:1035B000354A8000DE661F675F67DD651D6618623D
:1035C000DA67BE23394A5B00E250394BD8382350C2
:1035D00004302250C4225200A350C623E4205B00D2
:1035E000E1500433334AE1503349344BD16034491C
:1035F000800019503349E938FF38195032490430F6
:10360000195032493248D16132491163324951630C
:103610001900F4310860CE20304940001160304973
:10362000195019002F48F83108602F49D1658221BF
:103630002E4A89005A501A002D490832D1671A00C3
:103640002C49B432116088212B4A89005A501A0043
:103650002A49883211602A4ADA6407F0C9FD01203C
:1036600008F04EF8F8BDC0460004FF1F8064FF1F3D
:10367000506FFF1F2044FF1F4A0AFF1F3A07000038
:1036800080C3C9019A020000DC0500006A1800002E
:1036900050C3000088130000F009FF1F204E0000F7
:1036A0006509FF1F68100000C409000040420F00B8
:1036B00010270000FC00FF1F751CFF1F0000FF1FEC
:1036C000C92CFF1F5130FF1FE92EFF1F3520FF1FA0
:1036D0002527FF1F5120FF1FFD21FF1FC11FFF1FB7
:1036E0004929FF1F312AFF1F8D19FF1F5528FF1F72
:1036F0007925FF1F8525FF1FC11EFF1F791FFF1F93
:10370000391EFF1F0223F0B50124634D634E2B7059
:10371000634B8BB01C70634F039333680021092007
:10372000BB7006F025FC092006F02CFB031E05D11A
:10373000BA78552A02D0332A00D0A0E000233360A3
:10374000042006F073FD07F06BFEFFF75DFE07F047
:103750001FFE1F2201240021534B1E261A70534BBB
:103760001C70534B1970534B19689143163A0A4316
:103770001A60602219689143403A0A431A6007F0C0
:10378000AFFD07F02DFD4C4B9847C120FF214B4B5F
:1037900080001A588A431A50C522920098588843CC
:1037A000BF39014399509858454908408021C901C3
:1037B0000143802099509958C0050902090A014324
:1037C000995080213F48490107F0A2FD03232200C0
:1037D00000933D4901943D4807F0D2FE16223C4932
:1037E00004A807F0BDFC02AB04ACF61861782078A1
:1037F000023406F0D7FAA642F8D1364C0320012154
:1038000006F0E4FB2268344B03201A40A023DB02BD
:1038100013432360802322689B04134323602268A0
:103820002E4B1A4080239B03134323602C4A2D4BBD
:10383000934200D8012007F09BFD07F039FE80235A
:103840002268DB0413432360287807F0D9FC039B2C
:103850001878C0B207F01CFF07F052FD224904207F
:1038600007F05EFD06F0AEFC00F040F800F08EFDC3
:1038700000F03AFE00F0B8FB00200BB0F0BD009065
:103880002100194A042007F06BFD8023DB059C62B0
:10389000FFF764FD54E7C0464A0AFF1F34F00040BA
:1038A0002044FF1F2862FF1F480AFF1F490AFF1F0D
:1038B000680AFF1FBCF00040E1A2000000E100E048
:1038C000FF00FFFF2444FF1FA856FF1F2454FF1FC3
:1038D000A0B7001114F00040FF7FF8FFFFFF9FFF2B
:1038E0000080FF1F506FFF1F3B000108002210B532
:1038F0001100112007F0BCFE10BD0000F8B5002338
:103900000926374F374C3B62E3681120B343E3602D
:1039100007F02EFF112007F0DBFE112007F030FF2B
:103920004023226880251343236080236268DB02E2
:1039300013436360A3682C4A2B43A360A36802214E
:103940001340A3608023A2689B0113431022A3604D
:10395000236C072093432364236C0F3A134323649F
:1039600080235B003B62226B204B1A402263626B18
:103970001A406263A26B1A40A263E26B1340E363D6
:10398000E3681B4A1340E36006F00CFA01210720AC
:1039900006F01CFB174B11205A6C15435D6407F0B1
:1039A000E7FBFD21144B154A89005A508023C7209C
:1039B000626B5B0313436363E36880003343E3603C
:1039C0000F4B104A19581140802212020A431A5014
:1039D000802292051A6008220B4B5A63F8BDC0463C
:1039E00000F000403CF00040FFFFDFFFEFFFEFFF83
:1039F000FFFF7FFF003800400000FF1F5118FF1F2E
:103A000000E100E0FF00FFFF0000054007B50422D1
:103A1000044901A807F0A4FB012101A807F0C8FD93
:103A200007BDC046B6B7001170B52B4C238C002BD8
:103A30002AD0FA22D200934201D2FFF7E7FF228A6E
:103A4000238C002A21D1DA0023826382A382E382BD
:103A500023836383A383E38322606260A260E260C6
:103A60001E4D1F4A6420EB8093420AD8FA220020A0
:103A7000D200934205D91B4A0A21981807F050FD3D
:103A8000C0B200232872238470BD0720E11CCA7FC6
:103A900001320240CA7705D10325201DC17F0131C3
:103AA0002940C17708325200A352002321001A0096
:103AB000088A01321B180231082AF9D1221DD27F4F
:103AC0009200A350626823689B18A2689B18E26862
:103AD0009B185B099BB2C3E72061FF1F0862FF1FB1
:103AE000B70B000030F8FFFF30B503A804880B20A7
:103AF000002C0ED14968074D087849780902014326
:103B00000A20A94205D1012120001980024B1B7A0D
:103B1000137030BD192A00000862FF1FF7B51500A9
:103B200008AA16884A680F4F147852781202224366
:103B30000A24BA4214D10122DBB2019200962A0073
:103B400007F090FA041E0BD1074B1B68002B07D01F
:103B500068782A7800021043424250410130984769
:103B60002000FEBD022900004C61FF1F30B5012579
:103B700003790400BFB02B4211D00A49408806F0F7
:103B8000DDFD28420BD0084B01A95B8D4D800B80D9
:103B9000064B00221B7A60880B7103F0DBFE3FB0FE
:103BA00030BDC0464461FF1FE040FF1F0862FF1F99
:103BB00010B50549054806F077FD0421044A05487B
:103BC00006F034FD10BDC0464461FF1FFFFF00003A
:103BD000BCB70011E040FF1F10B5024804F03CFDE7
:103BE00010BDC0466D3B0011F0B593B005921D00AD
:103BF000DAB20F239B1ADFB20E239B1ADBB20493B7
:103C00001C9B049A023B5B08DB00134306AA13705B
:103C1000199E06AB2A0003900191581C059907F0E4
:103C20009FFA3400002206AB013BBA4252D1002C6D
:103C300000D0B9E0102221000AA807F0E1FC0AAB8D
:103C4000029306A91A78615C01344A401A70013364
:103C5000102CF6D10AAA1100019807F0C1FB20220E
:103C6000212006AB9B18049A05991A7006AB2A000E
:103C7000C01807F075FA01350EAB58193A0000214B
:103C800007F0BEFC2F210123250006AA521813704D
:103C9000002E24D112AB3A003100D81B07F0B0FC43
:103CA000019806AA0EA907F09BFB029B06AA925D4B
:103CB0001B7801365340029A1370130001330293AC
:103CC000102EF2D11C9A1B980AA907F049FA00207D
:103CD00013B0F0BD01321C74D2B2240AA4E7340040
:103CE000102E00D92C00039B002B19D119002A009B
:103CF00006A807F085FC2200189906A807F030FAFC
:103D0000039B0AAA06A81178185C01334140117080
:103D10000132102BF6D10AAA1100019807F060FBBE
:103D2000019806AA0EA907F05BFB0023189A06A9C2
:103D3000C95CD25C4A401A99CA5401339C42F5D1FD
:103D4000039B012B19D11022002106A807F058FC73
:103D500022001A9906A807F003FA00230AAA06A867
:103D60001178185C0133414011700132102BF6D1EB
:103D70000AAA1100019807F033FB00221A9B361B98
:103D80001B191A93189B0EA91B191893BA4200D13C
:103D90007EE7CB7B01390133DBB20B74002B00D003
:103DA00076E70132D2B2F1E70120404290E700000D
:103DB00010B5134A134B5179134C19701179200027
:103DC0005970D17899709178D970517812781971A9
:103DD0005A712E2252429A712A32DA7145321A727F
:103DE0000A49313AFFF756FA102808D0102120006E
:103DF00007F0AEF9102220000449FFF785F910BD45
:103E00006509FF1F6061FF1F5061FF1F0DBC0000AF
:103E1000F0B5431805000020114F124A3E8889B0C2
:103E20000C00114956720792320A4A70320ECA705B
:103E300088701E70042639889870090A5970D870E5
:103E40009B19039301940D230849079A0496029540
:103E50000095FFF7C9FE0834E0B209B0F0BDC046D6
:103E60000862FF1F6061FF1F6961FF1F5061FF1F34
:103E7000012202700C4A0300117A41700C209870E4
:103E80009179D970D17919713A21597192789A71D1
:103E90003E22DA71054A117B1972517B5972917B6E
:103EA000D27B9972DA7270470862FF1F1462FF1F9B
:103EB00070B51F4A1F4BD17C04001B681E4A0029A5
:103EC00006D1190604D50323137000F039F870BD2C
:103ED00000211170022219002270013A627005322D
:103EE000A27010322271443A62712A32A2712432D5
:103EF0001140134210D0250041230835E3712800FA
:103F0000FFF7B6FF01002800FFF782FF0430C0B2C0
:103F1000E0700430C0B2DAE740232000E371074BC1
:103F200021721B880A306372FFF7A2FF0630EEE7AA
:103F30001462FF1F2C62FF1F2664FF1F0862FF1F11
:103F400010B5040006220E4907F00AF916220D49A1
:103F5000E01D07F005F90C4B1B789B0963770B4BB1
:103F60001A7A0023502A06D840333C2A03D840331B
:103F7000192A00D84033A37100231F20A37710BD56
:103F8000D4B700118F61FF1F8961FF1F0862FF1FF7
:103F900010B5142007F0E4FA124B14220021186027
:103FA00007F02EFB002007F003F9012007F048F985
:103FB000022007F0B5FB032003F0F2FD042005F01A
:103FC00007FE052003F030F8062003F0FDFC072073
:103FD00001F042F9082006F009FB092000F0B0FECC
:103FE00010BDC046A861FF1F07F07AFA012007F054
:103FF0001FFA07F055F90000094B10B5040098426C
:1040000005D0012904D12000064906F04DFB10BD62
:104010000229FCD1013904F0DDFA0028F3D0F6E7DB
:10402000FEFF0000CE61FF1F70B50D7A100004AADC
:104030002C00168810221440154220D1002E20D1C9
:104040000A78022A18D14A68517815780E4A09026E
:104050002943914205D00D4A914209D01C800A247F
:1040600004E014220A491A8007F07AF8200070BD93
:104070000C2208491A80F7E71C800124F6E708247F
:10408000F4E70B24F2E7C046F3FF0000F4FF000062
:10409000AC42FF1F78B8001110B50400074908486A
:1040A00006F002FB074804F017FA0020E40704D5E5
:1040B0000721054A054806F0B9FA10BDCE61FF1F79
:1040C000FFFF0000F93F001104B800112441FF1F59
:1040D00000B50C4BBFB01A780B4902A800F0B4FA37
:1040E0006B4680B2D880002809D06A46074B01A9E8
:1040F0001B889380064B0022188803F02BFC3FB0EE
:1041000000BDC046AC61FF1FAD61FF1F7E41FF1FB8
:104110008042FF1F00B50C4BBFB01A780B4902A8B4
:1041200001F05EFB6B4680B2D880002809D06A4659
:10413000074B01A95B8D9380064B0022188803F082
:1041400009FC3FB000BDC046D661FF1FD761FF1F0D
:104150002441FF1F8042FF1FF7B50E00377A1C0075
:1041600008AB11003D001A8820231D401F423CD19E
:104170003378022B3BD173681F785B781B023B437B
:104180001E4FBB4208D01E4FBB4214D01D4DAB4248
:1041900021D00A252800FEBD002A2AD1142C2AD8B5
:1041A0002200F06806F0DCFF174B1C70012CF1D9DF
:1041B000FFF7B0FFEEE7002A1BD1202C1BD822000E
:1041C000F06806F0CDFF114B04211C70104B1878DD
:1041D00007F09EFADEE7E3B20124009201940A00A0
:1041E000310006F03FFF0500D4E70825D2E701259E
:1041F000D0E70B25CEE70D25CCE7C046F3FF000046
:10420000F4FF000002290000D661FF1FAC61FF1F10
:104210004862FF1F332310B5040003700A220749C8
:10422000013006F09DFF064B0F201B681A0AE3724F
:1042300022731A0C1B0E6273A37310BD0862FF1F5A
:104240003862FF1F30B5012503790400BFB02B424F
:1042500013D00B49408806F071FA28420DD06A4607
:10426000084B02A81B889380FFF7D4FF6B46D880C9
:104270000022608801A903F06DFB3FB030BDC0464D
:10428000CE61FF1F7E41FF1F10B5024804F0E4F924
:1042900010BDC0464542001170B5160004AA14882E
:1042A00005AA15784A685078117800022A4A08430E
:1042B000801805284BD807F0ABF903131E29343FAB
:1042C0000720022C0BD80322121BAA4200D92A0075
:1042D00022491A803000091906F042FF002070BD03
:1042E0000720112CFBD81222121BAA4200D92A0047
:1042F0001B491A80EEE707200E2CF0D80F22121B64
:10430000AA4200D92A0017491A80E3E70720032CA4
:10431000E5D80422121BAA4200D92A0012491A80A9
:10432000D8E70720032CDAD80422121BAA4200D9AE
:104330002A000E491A80CDE70720022CCFD803228D
:10434000121BAA4200D92A0009491A80C2E700229A
:104350000A201A80C3E7C046DCD5FFFF4EB8001123
:10436000F461FF1F3EB8001139B8001134B80011D4
:1043700030B8001110B50D21024A034806F056F975
:1043800010BDC04624B800119441FF1F10B5084C61
:10439000E368002B08D18022064B52021B689B1851
:1043A0006360054B1B68236007F072F8A06010BDC6
:1043B0003862FF1FC8F00040CCF0004070B5184ACA
:1043C000936A916A9942FBD116498A689A421FD32F
:1043D0009A1A8B60144B0126186893B2D202D20E3F
:1043E0004343424300204C681B0A1B1912029B18CE
:1043F0000E4C0A684B60551CA3420CD8002801D013
:104400004B600A600A4A136008680A4B186070BD66
:10441000581E821ADDE7084A30009B182A00EAE796
:1044200000F000403862FF1F140AFF1F40420F00D7
:10443000C8F00040CCF00040C0BDF0FF70B5214C8A
:1044400023793F2B01D93F2323711F4B22791A7007
:104450001878C0B207F0FCF818231C491C4A0B80DE
:104460001C4913800B805380A3791B4980200B804B
:104470000C21938001334B43184D191C00018342DA
:1044800000D9011C2980D1806379002B16D101331A
:104490006371237A012B01D8022323726279237A74
:1044A0000F4853430A21584307F03AF80D4D28604E
:1044B000E379052B01D81023E37170BDA02BE8D957
:1044C000A023E5E72C62FF1F480AFF1F7E42FF1F63
:1044D000CC43FF1F7C42FF1F7A42FF1F7842FF1F21
:1044E000710200001462FF1F70B520210020FEF74A
:1044F000FDFE0C4C002805D10B4B23CB23C4FFF74A
:104500009DFF70BD0C2220000849FEF7C3FE0C2859
:1045100002D0054B23CB23C41C2205490548FEF7D6
:10452000B9FEECE72C62FF1F6CB80011FC0C000018
:10453000D1F100008961FF1FF0B51D4C8022A54418
:104540000400882069465201400507F021F89022B6
:1045500012016A441300200032C832C316C816C3C1
:104560008023144C144FA6689B033343A3603B6025
:1045700006F016FE8823A0685B05C01806F000FE52
:104580000025882329008022A0685B05C0184019F7
:104590006944520006F03CFF80230135FF355B0182
:1045A0009D42EED1A6603E60044B9D44F0BDC046E6
:1045B000FCEFFFFF3C43FF1F9808FF1F04100000A3
:1045C000F0B5040087B0002825D0684606F0F8FD55
:1045D0001B4C022806D106226946200006F0E0FFA7
:1045E000002816D06946002301250F262F00E25C23
:1045F000013310091030874038002F0032409740B7
:104600003A0002434A610439062BEFD16846FFF7AE
:1046100093FF07B0F0BD182269460A4806F0B8FFBC
:104620006A46A300D358013305D01822FF216846FB
:1046300006F0E6FFEAE70134062CF1D1E9E7C046CF
:104640006509FF1F00090011F0B5002704000E00E6
:10465000150085B0BA4200D190E04A1C0B78019257
:104660004A78897809021143F27812040A433179B1
:10467000037009061143009103914770192B30D83C
:104680000F2B1ED8062B00D146E1072B00D13CE1B1
:10469000BB426ED0012B2FD1BC4AAB1E0092132B14
:1046A00007D87378002B00D0C1E100F0A9FA00F020
:1046B000DFFAB74B00991F78601C7A1E06F050FD98
:1046C0005CE0180010380928E4D807F041F88901A7
:1046D000A901E3FFE3FFE3FFE3FFE3FFE3FF7A006A
:1046E000A200562B67D022D8332B00D137E1552BAF
:1046F00047D0232B00D136E1DB2B00D0A3E1042DE2
:1047000000D882E01027052D05D06F1F3A000098D1
:10471000711D06F025FD05223100200006F020FD68
:104720003A000099601D06F01BFD053726E0712B4D
:1047300000D1F8E0722B00D108E1DC2BDCD1022D96
:1047400063D973784370B37883706B461F88032DE9
:1047500005D0033D3900AAB2F01CFEF7D5FC3900A4
:104760001022E01CFEF796FDC71C002806DA6070D8
:104770004DE00C22874906F0F3FC0C27380005B009
:10478000F0BD6A1E844D0C2A13D8002A0AD02800D6
:10479000019906F0E5FCFFF751FE0C2228007F4945
:1047A000FEF7B2FC0C222900601C06F0D9FC0D2794
:1047B000E4E70C22EBE7784D794B2A0043CB43C268
:1047C000E9E7784E112D12D110223000019906F040
:1047D000E7FE00280BD010220199300006F0C0FC43
:1047E000102271493000FEF78FFCFFF7E1FA10222A
:1047F00030006D49FEF74EFD0200102805D1310052
:10480000601C06F0ADFC1127B8E7FF236370022798
:10481000B4E7102D53D17778032F0DD1634D0E22BD
:10482000B11C280006F09CFC0E222900A01C06F0FA
:1048300097FC67701027A1E7042FE6D15C4DB11CEF
:104840000E22280006F08CFC29000E22A01C06F087
:1048500087FC564D574E1C222900300006F0A0FE62
:10486000002829D01C222900300006F079FC1C22E7
:1048700030005149FEF748FC40232A785B4213433D
:10488000290028002B7000F023FA4C4E0622290044
:10489000300006F085FE00280ED0062229003000E8
:1048A00006F05EFC062246493000FEF72DFC01238F
:1048B000444A51780B43537004236370BAE7022DC6
:1048C000A3D17678012E10D13A4D1C2228003A4906
:1048D000FEF7E0FC1C2806D10E222900A01C06F0E1
:1048E0003FFC6670A6E7FE2390E7022E8DD11C22C6
:1048F00030483149FEF7CEFC1C28F4D10E22324953
:10490000A01C06F02DFC657094E712222F4901309F
:1049100006F026FC132731E708222D49013006F066
:104920001FFC09272AE7012D0CD07178F02900D946
:104930006BE7284D288801F0AFFB274B2A885200EF
:10494000D35A63E7234A244B1288F8E71D4B012D05
:1049500003D072785A70427059E75B7856E7FFF7D8
:1049600059FC07000AE7042D05D91C4D009B2B605C
:1049700006F08EFDA860FFF721FD0422039003A935
:10498000601C06F0EDFB0527F8E6C0462964FF1F12
:104990002764FF1F78B800112C62FF1FFC0C000079
:1049A0006CB800115061FF1F0DBC00006D61FF1F4E
:1049B0007B61FF1F8961FF1FD1F100006509FF1FA7
:1049C000ADAC00002862FF1F9761FF1FF461FF1F5D
:1049D0004043FF1F8042FF1F8464FF1F3862FF1F98
:1049E0002A4E062D15D906223000019906F0D8FD71
:1049F00000280ED006220199300006F0B1FB0622F5
:104A000023493000FEF780FB0123224A51780B43F3
:104A1000537006223100601C06F0A2FB0727ADE6AA
:104A2000012D00D1F1E67078FFF7CAFDEFE6013DF8
:104A30002A000199009806F093FB17490098AAB242
:104A4000FEF762FB33E6DA2B00D0DEE6042D00D859
:104A5000DBE6082D17D9B37972791B021343F2797B
:104A600012041A43337A1B061343009A1360009B07
:104A700005221B6831002000039306F071FB04221D
:104A8000601D03A94BE7FE236370F0E76509FF1F74
:104A9000ADAC00002862FF1FAEDE000070470000D2
:104AA000020010B5094B0A32094C92B2DA815A82DF
:104AB00098811882207802F055F90422054B0121D3
:104AC00020781A7006F024FE10BDC046CA42FF1FAF
:104AD0007264FF1F7164FF1F013870B5042809D884
:104AE00006F096FD030927081200204B02211878D2
:104AF00006F00EFE70BD1D4B0821187806F0B0FCC4
:104B000000221B4B1A74F5E780220024184B520038
:104B10001A82FA22DC74174B144D5B7A920008213A
:104B20005A43287806F08CFD2100287806F0B0FB67
:104B3000E0E70E4B0821187806F092FC0E48FFF7CC
:104B4000B7F90C4B0D4A9B7993800D4A13800022D4
:104B5000074BDA740132FF321A820A4B5B78002B62
:104B6000C8D0094A136006F033FBC3E74862FF1F51
:104B70001462FF1F2C62FF1F8942FF1FCC43FF1FDF
:104B80007A42FF1F2862FF1F34F0004010B5002951
:104B900009D1092807D1063805F018FA024B8021FF
:104BA000187806F0B5FD10BD4862FF1F10B5012949
:104BB00009D1092807D1063805F008FA024B8021EF
:104BC000187806F0A5FD10BD4862FF1F0300F0B580
:104BD0000A4D8E18B14202D152008018F0BD0C78F7
:104BE0002F6824093C5D0F271C700C7801313C4074
:104BF0002F683C5D5C700233ECE7C0467442FF1FD7
:104C00000C22124B10B51A700B23114C1149237052
:104C1000093A023B1048637006F0A2FA2D230122E4
:104C20000E490F486371FFF7D1FF01220D49FFF7CD
:104C3000CDFF01220C49FFF7C9FF030000200B49FB
:104C400002001870FEF760FA10BDC0464664FF1FF0
:104C50002764FF1F4EB800112964FF1F6709FF1F5B
:104C60002D64FF1F6609FF1F6509FF1FAEDE0000F0
:104C700070B5134C142220001249FEF70BFB431EA3
:104C8000114D132B19D8AB78002B16D0431C2B7069
:104C900009236B7000230019037028780B4B013037
:104CA0002900C0B2187006F0DBFC29782200013917
:104CB000C9B2002005F0D8FB70BDFFF7A1FFECE7FB
:104CC0002964FF1FAEDE00002764FF1F4664FF1F3C
:104CD000F0B54A784F790E79CD788C780B780770DB
:104CE00046708570C47002714371F0BD10B5114BF0
:104CF0001A781870002A0ED000280BD10E4B1A78A3
:104D0000062A07D85423D340DB0703D50B4B18786A
:104D100002F028F810BD0028FCD0074B1B78012BAF
:104D200002D0033B022BF5D8044B0121187806F082
:104D3000EFFCEFE74A64FF1F7164FF1F7264FF1FFF
:104D4000F7B5574D574A58492870092005F018FA09
:104D50000121032005F03AF9032005F0FFF906F0E0
:104D60009FFB032251495248FFF730FF2D240300D7
:104D700088211C70042249050130FFF727FF3023EA
:104D800004704C4E4C4C437083702E3B0622300016
:104D90004A49E387FEF77EFA062813D0300006F072
:104DA0000FFA022809D00321300006F0D1F98D2333
:104DB000F3706E3B337119337371062230003F4933
:104DC000FEF7A2F93E4B1B68FC335E64FFF750FF11
:104DD000FEF7EEFF0020FFF789FF3A4E8022316890
:104DE000394F08000197394B394F104011424FD0CD
:104DF0007D3A01981A70FFF7A3F838703A78354F6A
:104E000001213878019B01F06FFF334A334B127850
:104E10003878002101F068FF0122314B314F1A70C0
:104E2000314B9B78552B35D1193B7B742F4A304B36
:104E3000A381E281238262822021287806F038FA59
:104E40000120404205F05CFB0120404205F0F8FBE8
:104E5000FFF790FAFEF7ACFE01204042FFF71CF985
:104E6000012006F085FBF02001F0FAF801212878F6
:104E700006F04EFC287802F0D1F81E4806F000FC3F
:104E8000FEF73CFD1C4B1D4A9B689B18BB60F7BDA1
:104E90001870B3E76422737953431A000A32C7E7E4
:104EA0004862FF1F8D4B0011AD4B00114043FF1FA7
:104EB000F461FF1F6509FF1FCA42FF1FADAC000070
:104EC0008064FF1F2C62FF1F8942FF1F2664FF1FA3
:104ED000A842FF1F7264FF1F4664FF1F2764FF1F65
:104EE0001864FF1F1462FF1F2862FF1FCE09000015
:104EF000C40900004A62FF1F3862FF1F0000B8FCAF
:104F0000F8B50A0020230D001A40194200D17EE0B6
:104F1000834B1B78002B50D0FFF750FA814B824C0B
:104F2000824E99686268737A8A1ADB039A4247D381
:104F30006160FEF7E3FC637C002B3BD0013BDBB2FE
:104F40006374002B36D17A4B9B78552B01D106F038
:104F50003FF9E37C774F002B45D00021032005F07B
:104F600035F8F3796374BB78002B23D1A27C002A37
:104F700002D0A374FEF758FD0121052005F026F8A4
:104F80003B880021013305203B8005F01FF86A4E65
:104F90003000FEF78DFF310006F03AF901210520BF
:104FA00005F014F800210520E17405F00FF8C82081
:104FB000FFF776FD237C0133237420206840F8BD81
:104FC000A37C002BB7D00023A374FEF72DFD594A14
:104FD000594F1388380001331380FEF769FF3900F9
:104FE00006F016F9A7E7A27C002A02D0A374FEF708
:104FF0001BFD3B8801333B804F4F3800FEF758FFC5
:10500000390006F005F9642370795843D0E70BB2F4
:10501000002B0ADA494B187806F0F2F9002801D083
:1050200006F056F980200002C8E70224214206D08B
:105030003D4B01201A74FFF759FE2000BEE70824FB
:10504000214204D0FFF7BAF9FEF758FCF5E7102328
:105050000E001E4019420FD0FEF7E6FC304B1B78C5
:10506000002B07D1FEF7B8FD304B1B68DB0701D5DD
:10507000FFF70AF91020A1E70124214209D03048A6
:1050800000F0AEF806F0FCF83100032004F09EFFBB
:10509000D3E70B063BD5092004F074FE254B5A7A62
:1050A000002828D0224203D022435A72802085E76C
:1050B0001D4922435A721A4AC86812780130C860E2
:1050C0009C701A48002A1AD01A881B4C01321A8088
:1050D0000123CB74C3791B4A4B74124B20009B688D
:1050E0009B188B60FEF7E4FE210006F091F8C820C3
:1050F000FFF7D6FCDAE7A2435A729870D6E7036846
:10510000DB07D3D5FFF75AF9FFF7BEF8CEE7042443
:1051100008002040214200D151E7FEF7D9FF8CE77B
:105120004A64FF1F3862FF1F1462FF1F2C62FF1FBB
:105130002862FF1F0862FF1F8942FF1F4862FF1F8E
:105140006C42FF1F000082FCF0B51B4B1B4F1B88FD
:105150003A8804001A4E1B4D85B09A420DD8328809
:105160009A420AD3184B1A882B889A4205D1174ABB
:10517000174B12881B889A421BD0052000F0C6FFEF
:105180003B8802AA13803388019053802B88114DED
:1051900093800F4B02A91B88D3800F4B2A78188865
:1051A00002F0E2FC0D4B08212878019A1C7006F0F1
:1051B000D7FA05B0F0BDC0461664FF1F7E42FF1F40
:1051C0007C42FF1F7A42FF1F1464FF1F1264FF1FFF
:1051D0007842FF1F7264FF1F8042FF1F1064FF1F91
:1051E00013B50C4B1C78002C11D1002801D00A4BB0
:1051F00018600A4A0A4B11780A4A10780A4A019242
:105200000A4A0092002205F027F8200016BD11245A
:10521000FBE7C0467164FF1F0C64FF1F7064FF1F33
:105220006064FF1F7264FF1F4C64FF1F5064FF1F08
:1052300010B5064B12201B78052B06D1044B132208
:105240001988044B187801F03DF910BD7164FF1FF7
:105250008042FF1F7264FF1F10B500240122114B12
:1052600052421870104B1C70104B1A8001F0D6FE81
:1052700004220F4B21001A700E480C3206F060F821
:10528000102221000C4806F05BF807220B4B1C6033
:105290000B4B1C700B4B1C700B4B1A700B4B1C7088
:1052A00010BDC0467264FF1F7164FF1F8042FF1F64
:1052B0007064FF1F6064FF1F5064FF1F4C64FF1F7A
:1052C0002664FF1F2564FF1F8242FF1F2464FF1F07
:1052D000F8B5174C0600257806A814240078052D8B
:1052E00023D1B41F134FA5B21824BD421DD88D1F62
:1052F000ADB2BD4219D8FA256D00AA4215D21D00E3
:105300000D4F0A3DADB2BD420FD80C4C26800C4C5F
:1053100021800C4900240A800B4A1380FFF714FFF8
:105320000A4B0421187806F09BF82000F8BDC0460F
:105330007164FF1F790C0000750C00007E42FF1F96
:105340007C42FF1F7A42FF1F7842FF1F7264FF1FDB
:10535000F0B50BB20D0089B0002B00DB70E1A44E5C
:10536000307806F04DF8041E50D00378A22B00D1FF
:1053700022E1D02B1AD0912B45D143780E2B42D16C
:105380009C4B82889A423ED19B4A83681278052AB8
:1053900039D1032018567F2835D0984B1B68002B35
:1053A00031D05B68002B2ED098472CE080780728FE
:1053B00029D806F02DF90428183F3F74A8D863783F
:1053C000002B0CD101218C4B19708D4B1A78002ABF
:1053D0005BD08C4B307801F087FC002855D0072239
:1053E000854B1A7051E061780029F8D1E378002BE1
:1053F00011D0854A854B1278307801F075FC6070C9
:105400006378002BEBD1200005F062FF80200002C2
:10541000684009B0F0BD784B1B78022BF3D0012116
:10542000307806F015F80028EAD10121307806F02E
:105430006FF9E5E76378002BD1D16F4F032807D1CF
:105440003B78052B02D101333B701EE00223FBE7C2
:105450006F4B1A886F4B0293002A0BD01B78002BDE
:1054600003D00121307806F07BF93B78062B04D17C
:10547000013BE9E7029B1A70F7E7042B41D10121B8
:10548000029B3078197006F043F95C4B1B68002BC7
:10549000B9D01B68002BB6D0574A107884E76378E0
:1054A000554F002B27D10622211D5B4805F058FEE1
:1054B00062895A4B5A491A80A2895A4B1A80E38949
:1054C0000B800521397058490A80584A1380228A76
:1054D000574B1A80574B1B78012B09D11F2000F026
:1054E00015FEFA22920042430421307806F038F982
:1054F0000022484B75E7312B00D070E70022454B66
:105500001A700323A0E706220021434805F018FF84
:105510000023454A04211380444A30781380444ACA
:10552000138005F09DFF0821307805F099FFA379DD
:10553000083B5A425341304A03331370304B1B78B7
:10554000002B06D0334B30781A78002A06D001F0B1
:1055500009FC0122314B52421A8096E70121197051
:1055600006F0D6F8F5E70821307805F079FF637882
:10557000002B00D047E72C4B2D4F0293E388029A73
:1055800004211380294B307803932389039A1380D5
:1055900063893B8005F05CFF002800D033E7264B91
:1055A0001B68002B00D12EE7039902983A880988DE
:1055B00000881B68984726E74379132B00D022E721
:1055C0000389012B0AD11D4B1B78022B06D1082120
:1055D000307805F045FFFFF72BFE14E7052000F0BB
:1055E00095FD08210200307806F0BAF80BE7C046B6
:1055F0007264FF1F051400007164FF1F0C64FF1F1D
:10560000A842FF1F8942FF1F4664FF1F2764FF1F38
:105610004864FF1F4A64FF1F1964FF1F8042FF1F79
:105620002064FF1F2264FF1F1664FF1F1464FF1F06
:105630001264FF1F1864FF1F0864FF1F1064FF1F20
:105640008020C001014200D0E2E6CB0731D5324BC9
:105650001B78002B1DD0314E05AC3378052B1AD1A9
:10566000023B23702E4B21001B7823722D4B1B789D
:1056700063722D4B187801F0DBFA002809D007205F
:105680002A4B30701B68002B03D01B68002B00D006
:1056900098470120BCE60E20254B06221B782549A1
:1056A0002370254B1B78637002ABC01805F058FDC2
:1056B000D8E7022308001840194209D0174B1B787D
:1056C000052B03D11D4B188805F082FF02209FE6B1
:1056D0000424214203D0FFF737FD200098E6082379
:1056E00008001840194200D193E6154B1C78012C94
:1056F00003D0022C0DD008208AE6124B124A13491F
:1057000013481B881288098800880094FFF7E0FD81
:10571000F1E7FFF78DFDEEE74A64FF1F7164FF1F9D
:105720008242FF1F2464FF1F7264FF1F0C64FF1F6F
:105730002664FF1F8342FF1F2564FF1F8042FF1F57
:105740001064FF1F7842FF1F7A42FF1F7C42FF1F39
:105750007E42FF1F0200F0B501270A480A4E511889
:105760008B1A002B00DCF0BD082415784308684034
:1057700038404000805B013C58406D08002CF5D15A
:105780000132EDE7FFFF000096B80011F0B50025EB
:105790000F269D4200DBF0BD4C5D070944403440BC
:1057A000A400A05801357840F3E70000F0B589B0B7
:1057B0006A460D000B000F27110010351C780133CD
:1057C000260024093E40167054700232AB42F5D1D7
:1057D0002023024AFFF7DAFF09B0F0BD9CB80011A0
:1057E000F0B54E780B7889B036020C0017000190A6
:1057F0001E43012A61D9954B9E4200D877E00133C0
:105800009E421CD1062A17D1CA788B7812021A43FD
:105810000B791B0413434A7912061A438C4B5A61C5
:1058200000221A705A808B4A5A608B4A9A608B4ABF
:10583000DA60002009B0F0BD88225205EEE7884BFF
:105840009E423CD182498B78002B00D0F6E00C2A96
:1058500031D10F22A3789343E278120213432279C5
:10586000120413436279120613434B60E279A07964
:1058700012020243207A00041043627A12060243A5
:10588000CA60E27AA07A1202024376484A818342D1
:1058900008D804236E49142201980B7005F060FCAF
:1058A0001420C7E71201D21889235B059A42F0D869
:1058B00001238B70BDE7022AFAD00523EAE76A4A82
:1058C00001239642E6D1FFF7B3FC052F0CD9E3780C
:1058D000A2781B021343227912041A4363791B0630
:1058E0001343624A0393136005F072FCA1E7584D1D
:1058F0002B78002B9DD1AB78002B00D1A0E02B8919
:1059000001339BB20093B34200D091E0132AD4D963
:10591000CF7C8B7C3F02122120001F43FFF71AFF30
:10592000874200D08EE0002E3DD1E378A2781B02A2
:1059300013432279E96812041A4363791B0613435F
:1059400003930A228B4212D1FF23A370E3702371C9
:1059500063716B89002B09D1E37B227C1B0212044B
:105960001343A27B13431B0901336B8100226B8914
:10597000002B8ED0002A67D1686837013818000BD9
:105980006B6900030390984205D9686105F0F8FB44
:10599000EB780133EB7068681022A11C381805F011
:1059A00037FD2E8145E76F89009A7B1E9BB293429B
:1059B0003AD1E278A37812021A43237905A81B048E
:1059C000134362796C6812061A43EB6800920392E3
:1059D000211D0C22049305F0C3FB0120260004A91D
:1059E00040421036FFF7E2FE013F012F17D1009A27
:1059F0000B232861824200D04CE704221C4920007E
:105A000005F006FD042203A9686805F0C1FDE968F8
:105A1000039AFF23914200D13CE7F73B3AE731007C
:105A2000FFF7C4FE1036DFE70923B742A4D831E7F9
:105A3000009BB34200D9FCE607232BE7022329E7AA
:105A4000032327E7062325E70A2323E7FFFE0000B9
:105A5000AC42FF1F00000111FFFF00005048593603
:105A600001FF0000FFFF001102FF000034F00040C2
:105A7000B842FF1F10B5034C0B000122210000F0BB
:105A80006BFA10BD355C00110B8870B506000D0077
:105A90000224162B11D92B000322094900F05CFACD
:105AA000041E0AD1074B2A881B88191C934200D96F
:105AB000111C300089B200F0EFFA200070BDC04622
:105AC000615C00118664FF1F10B54A780400013A3A
:105AD0000B000220012A07D80A78002A04D00522E8
:105AE0002000024900F038FA10BDC0468F5C00115A
:105AF0000A7810B50B0004000220002A04D0072207
:105B00002000024900F028FA10BDC0463B5D00119C
:105B10000A7810B50B0004000220002A04D00922E4
:105B20002000024900F018FA10BDC046A15D001126
:105B300010B5034C0B000B22210000F00DFA10BD34
:105B4000D15D001110B5034C0B000D22210000F0B7
:105B500003FA10BD435E001110B5034C0B000F2279
:105B6000210000F0F9F910BD9D5E00110A7810B512
:105B70000B0004000220002A04D011222000024958
:105B800000F0EAF910BDC046AD5E0011002310B56B
:105B90001322190000F0E0F910BD000010B5034C0D
:105BA0000B001722210000F0D7F910BDFF5E001195
:105BB000002310B51922190000F0CEF910BD000025
:105BC00010B5034C0B001B22210000F0C5F910BDDD
:105BD000395F0011F7B584890D0006000121002C02
:105BE00022D000238268D3561778002B1EDA0C2CA3
:105BF0001AD90C3CA4B2131940880093230002F078
:105C000086FE431E984101307B06DB0F6B703F23FD
:105C1000013C1F40A4B22870AF70AC80002C07D0AC
:105C2000B3680133AB6000210800FEBD0020EBE744
:105C3000AC60F8E70B7803704B8843704B881B0A05
:105C400083700B79C370042070470420022B06D1A7
:105C50000020537811781B02009A0B431380704781
:105C60000B8803700B881B0A4370022070470420C6
:105C7000009983420AD1537810781B0203430B80AA
:105C8000D37890781B02034300204B807047F8B50F
:105C90000D004B7801240021461C03702B788B42A9
:105CA00001D82000F8BD6B78B01C4F1C012B10D11F
:105CB000890069184B88022233704B88B9001B0A8F
:105CC0007370691805F024FC04360434A4B2F9B2E8
:105CD000E4E7122359436B185A88043132705B8809
:105CE00010221B0A7370691805F012FC1236123468
:105CF000ECE770B5049D14001E00052B01D80420AC
:105D000070BD637812781B0213432B80E378A2786E
:105D10001B02134302226B802A71211D681D063E5F
:105D200005F0F6FBB2B22A81E92AE8D82800A11DC5
:105D30000A3005F0EDFB0020E2E7002310B50A78F9
:105D40009A4201D8900010BD9A008A1854880133F5
:105D500004705488DBB2240A44709488847092885A
:105D6000120AC2700430EAE710B51100029C062B3B
:105D700004D004201022142B01D010BD0222227165
:105D80004B7808781B0203432380CB7888781B026A
:105D9000034363800431601D05F0BAFB0020ECE78B
:105DA00010B50C788B7804315C43E4B203702200A8
:105DB000013005F0ADFB601C10BD0420022B06D1A4
:105DC0000020537811781B02009A0B431380704710
:105DD00010B50C000A88023105F09AFB208810BD2E
:105DE00070B504000D0004981100012B01D80420A7
:105DF00070BD167852781202324302800200F132EE
:105E000055701470E125002C00D10C35023B9AB27C
:105E10004280AA42EBD80231043005F079FB002021
:105E2000E6E70420009983420AD1537810781B02D8
:105E300003430B80D37890781B02034300204B80F0
:105E4000704710B50C000A88023105F061FB20880C
:105E500010BD000070B501211E000420049C0E40FE
:105E60000B4218D1CB40DDB28D4214D90A49DBB2C6
:105E7000098899420FD32300EE331D703300580078
:105E800011184978165C0902314301332152D9B205
:105E90008D42F4D8002070BDC442FF1F10B50C0025
:105EA0000A88023105F034FB208810BD10B50C784B
:105EB0008B7804315C43E4B203702200013005F0BA
:105EC00027FB601C10BD10B511000298032B01D8F0
:105ED000042010BD14785278043B12022243028041
:105EE000CA788C781202224342809AB28280EB2ACE
:105EF000EED80431063005F00BFB0020E9E710B5C1
:105F00000C000B8803700B881B0A43704B8883704E
:105F10004B881B0AC3708A880430063105F0F8FAF2
:105F2000A088043080B210BD0420012B03D10020D2
:105F30001378009A1370704710B50C000B8803702B
:105F40000B881B0A43704A880230043105F0E0FADE
:105F50006088023080B210BDF0B589B003931E4B4B
:105F6000029242000700D05A019102F020F8132556
:105F7000061E2DD0029B01240370019B002B04D030
:105F8000001903999847001984B26B461B7A5BB2DB
:105F9000002B0FDA1021380002F01CFB1925002815
:105FA00013D130003219E1B202F066FC051E0CD1AB
:105FB0000C34A4B2042304AA380005A993800696E1
:105FC000948101F0AFFD051E02D0300005F068FBA2
:105FD000280009B0F0BDC0468464FF1F70B50500FD
:105FE0000C0000280CD00020814209D01022200093
:105FF000044905F08DFA01202B7823736B786373C5
:1060000070BDC046DCB80011F0B506000D001700E9
:106010001C0085B002291BD00020102907D1022BBB
:1060200007D0102B03D115E00020102C08D005B0AC
:10603000F0BD69463800FFF7D1FF2A0069460BE042
:1060400069463000FFF7CAFF22006946380004E0C5
:10605000022BE9D12A003900300005F0E1F8E6E72B
:10606000031CF02800D9F023032008499AB2013A12
:106070000B80D317034006499B189B100B80D30F4E
:1060800004499B185B100B807047C046C842FF1F35
:10609000C642FF1FC442FF1F034B1B888B4202D323
:1060A000024B4000C1527047C842FF1F8464FF1F6B
:1060B000014B4000185A70478464FF1F1722014BA0
:1060C0001A8070478464FF1F70B505000E2005F02C
:1060D0000FF9041E13D0D02303700023062283700F
:1060E00007494570033005F013FA064B2100DA8AA0
:1060F00062811B7E2373044B187805F021FB70BD71
:10610000A064FF1F9064FF1F1843FF1F262803D8B9
:10611000024B4000C05A70470148FCE7CA42FF1FCB
:10612000FFFF000070B506000C00094D1C22002185
:10613000280005F005F9074B1E70074B1C7005F091
:10614000DFF90123002801D0002312202B7070BD3D
:106150009064FF1F1843FF1FB164FF1F70B5050057
:106160000D4C0800E260A16010220021656005F07E
:106170000FFB012803D11021A06802F058FD102266
:106180000021280005F004FB012803D110216068DC
:1061900002F04DFD70BDC0469064FF1F70B5041E37
:1061A00005D1002903D006220D4805F0B1F90D4BA9
:1061B0001D78012D11D1002C05D102221A7004F096
:1061C000BFFF280070BD00221A70074B1B78FF2B01
:1061D000F7D02000FFF778FFF3E70025F1E7C0468E
:1061E000A064FF1F9064FF1F1843FF1F030010B53A
:1061F000002801D1002010BD00780B4A002803D1EF
:106200005988D1821B7913761378022BF2D100239F
:10621000984200D103331370044B1B78FF2B01D03D
:10622000FFF752FF0120E6E79064FF1F1843FF1FAE
:10623000002911D000280CD04B79012803D140222D
:106240005242134303E03F221340032802D00120AF
:106250004B7170474022F4E70800FAE770B5094D2A
:106260000100287800280BD0074C0622200005F0FA
:106270004FF921002878FFF7DBFF200005F060F9D7
:1062800070BDC046B064FF1F8A64FF1F00290AD09A
:10629000012808D13F224B799343C02B03D0403BC8
:1062A0005A425341981C704770B5174D06002B7821
:1062B000FF2B15D00A2005F01BF8041E10D0D023A8
:1062C0000370C83B8370114B11491B784670C37033
:1062D0000622043005F01CF92100287805F030FA78
:1062E0000C4B1B78012B0DD10B4B1B68002B03D0E3
:1062F0009B68002B00D09847084B04211878084A67
:1063000005F09EF970BDC0461843FF1FB064FF1F23
:106310008A64FF1FAC64FF1FD864FF1FDC64FF1F8B
:1063200060EA0000014B98687047C0469064FF1F08
:10633000014BDB68186870479064FF1F074B10B56E
:10634000DA68136801331360054B1878FF2803D00F
:106350008021C90105F0DCF910BDC0469064FF1F23
:106360001843FF1FF7B50E0002F0C8F8051E1CD039
:106370000E4B06621F78002F00D10778AB791020F2
:10638000019304F0B5FF041E0FD0D0230380C73B58
:106390008370019BE91DC3700622043005F0B8F834
:1063A00021003800E66005F0CBF9F7BD1643FF1F6A
:1063B000014B18787047C046B064FF1F054B00289A
:1063C00005D1054B1A78054B002A00D1014B180066
:1063D0007047C046A064FF1FB064FF1F8A64FF1FA0
:1063E000014B58687047C0469064FF1F024B186805
:1063F000431E9841C0B27047B464FF1F421E0300A1
:106400000120152A03D9FF3B5A425341D8B27047A5
:10641000F0B51C0000230E0085B0039002920B70B3
:10642000029A934201D3002019E0E55C5A1CD2B2D3
:10643000002DF8D0029851198142F4DC0233DFB20A
:10644000A35C18000193FFF7D9FF002807D0013D96
:10645000019A0399EBB233708A4202D1E01905B078
:10646000F0BDDB19DBB2DBE710B50C0002F09EF8E3
:1064700003001220002B03D02100588805F068F893
:1064800010BD000070B50E4D84006359002B15D06F
:10649000186A002801D005F00BF92B59586A00281A
:1064A00001D005F005F92B59986A002801D005F0B4
:1064B000FFF8285905F0FCF800232B5170BDC046A9
:1064C000C064FF1F1C4B70B504000E0015009942FC
:1064D0000AD11A4B1B68002B01D1122070BD1B681A
:1064E000002BFAD09847F9E7154B994215D1134B79
:1064F0001B68002B0AD01B68002B07D09847002888
:1065000004D1104B1C70104B1D70E7E729002000D0
:10651000FFF7AAFF0028E1D1F3E7080001F0EEFF42
:106520000028DAD003780320A342D7D12900300015
:1065300005F00EF8D2E7C046FEFF0000BC64FF1F66
:10654000FFFF0000B964FF1FB864FF1FF7B5040028
:10655000808801F0D3FF0025A84203D00578A088E9
:1065600002F008F81C4E3378002B1FD0AB421DD12F
:106570001A4B28001978FFF777FF002818D000235E
:106580003370A3790820A778A688019304F0B0FEA1
:10659000011E0DD0D0230370CA3B8370019B47704E
:1065A00086808371280005F0CBF801E0002DE8D14A
:1065B000A0880B4B8200D358002B01D0FFF762FF5D
:1065C0001721A088FFF768FDA08801F027FDA088AB
:1065D00001F0FEFDF7BDC046B964FF1FB864FF1FA0
:1065E000C064FF1FF0B587B01D000CAB1B8807000F
:1065F00001930DAB1B88142002930EAB1B88160071
:1066000003930FAB1B880091049310AB1B88059379
:1066100004F06EFE041E1AD0D0230370CB3B4770EB
:106620008370C670062229000430002D11D004F0BA
:106630006FFF019B21006381029B0098A381039B54
:10664000E381049B2382059BA37405F079F807B0CE
:10665000F0BD04F075FEECE7F7B5009308AB1B88BE
:1066600007000C200D001600019304F041FE041EEB
:1066700013D0280001F042FF00280FD00078D0236B
:106680002370C93BA370009B21002381019B67708D
:10669000A580E680638105F053F8F7BD014B1878BB
:1066A000EDE7C0461843FF1F13B504006489038952
:1066B000C2888188C0780094FFF7CEFF13BD000028
:1066C00010B5044C2068002803D004F0F1FF00232B
:1066D000236010BDC464FF1FA122F0B58188920021
:1066E0004A43384B384F1B6804009B189D22920088
:1066F0009B18827989B01A603B68002B5FD01D78A7
:10670000324B1B68002B04D05B68002B01D00020AB
:106710009847260008363100E079FFF7B7FD237D62
:10672000E0710200E0780493638A29000393238ACE
:106730000293E3890193A38800933300FFF752FF8C
:10674000E378002B0BD1E289A379A188029201960C
:10675000E27928000092012201F0DAFEE0703B6845
:10676000002B20D0FFF7ACFF194D287800281AD055
:10677000184B1978FFF778FE002814D02B78E678AC
:1067800008200793A78804F0B3FD011E09D0D02389
:106790000370CA3B4670837087808671079804F047
:1067A000CFFF00232B701721A088FFF775FCA0886E
:1067B00001F034FCA08801F00BFD09B0F0BD064BE0
:1067C0009DE7C0463409FF1FC464FF1FD864FF1F44
:1067D000B964FF1FB864FF1F1843FF1FF8B5070017
:1067E00008000E0001F08AFE041E18D02620FFF7D4
:1067F0008DFC051E00D12578062004F079FD041ECD
:106800000DD00021062204F09BFDD0232370C23B53
:1068100021006770A370A680E8B204F091FFF8BD74
:10682000F0B585B001930AAB1B78070002930BAB60
:106830001B7808000D000092039301F05FFE061E16
:1068400022D0102004F054FD041E1DD0102200217F
:1068500004F076FD2620FFF759FC002800D130789F
:10686000D0232370C13BA370009B21002372019BA6
:1068700067706372029BA580A372039BC0B2E37230
:106880000C9BE36004F05CFF05B0F0BDF7B50D00B4
:10689000019001F033FE071E20D00E2004F028FDE9
:1068A000041E1BD02620FFF731FC061E00D13E78C7
:1068B000D0232380C53B0622A370F91DE01C04F001
:1068C00027FE019B2A0063810123DD401A401D4001
:1068D000210022736573F0B204F032FFF7BD0000AF
:1068E000F0B585B0029010000D0017000A9E0393CA
:1068F00001F004FE041E31D0029B002B2ED1039B1D
:1069000002795B0724D5122313430422002E08D1F9
:106910000B99002905D10C99002902D10D99002964
:106920001AD01A430D9B2271002B00D0C9E0002E13
:1069300000D1CFE0002D00D0CCE0606A002801D06B
:1069400004F0B6FE1C21300004F002FD606205E098
:1069500002239A430E33D7E793432371654BBA0062
:10696000D458002C00D1AAE0002E10D0236A002BAE
:1069700003D11C2004F0F4FD20625E4BBA00D35812
:10698000186A002803D01C22310004F0C1FD0C9BC2
:10699000002B12D0574CBB001D596B6A002B03D142
:1069A000162004F0DDFD6862BB00E358586A002839
:1069B00003D016220C9904F0ABFD0D9B002B11D0D7
:1069C0004C4DBC006659B36A002B03D1142004F06F
:1069D000C7FDB0622B59986A002803D014220D9984
:1069E00004F096FD380001F089FD051E67D0414B8B
:1069F000BA00D358002B62D01A6A3420002A00D182
:106A00001C389A6A002A01D0143080B20B9A002AEE
:106A100001D01C3080B25B6A002B01D0163080B2EE
:106A200004F066FC041E4AD01822002104F088FC01
:106A30002620FFF76BFB0190002801D12B780193F2
:106A4000D0232370029B200063700A23294EA37079
:106A5000039BBD00A371AB59A780196A18300029A8
:106A600005D01C22A06004F053FD2000343073597F
:106A7000996A002907D0030014221433E0600293BE
:106A800004F046FD02980B9B002B08D003001C224B
:106A90001C330B992061029304F03AFD029873595C
:106AA000596A002903D01622606104F031FD6B465B
:106AB0002100187904F044FE3800FFF7E3FC05B02C
:106AC000F0BD10220D9B0D991B69A018236204F0E4
:106AD0001FFD2CE70B9B002B00D13FE7012D00D0C1
:106AE0003CE7606A002801D004F0E2FD1C210B980D
:106AF0002AE7C046C064FF1F10B5044C2068002878
:106B000003D004F0D5FD0023236010BDB464FF1F43
:106B10000B4B07B51A68002A01D100200EBD69464B
:106B2000531C012012780731FFF772FC0028F4D0C3
:106B300002780123100018401A42EED0EEE7C0465A
:106B4000D064FF1FF0B51F4F01203B6887B0002BBA
:106B500025D09B78059300F0B3FB002821D00A20B4
:106B6000FFF7D4FA04000B20FFF7D0FA164B05000C
:106B70001E78731E9E413B68F6B2191DD878FFF748
:106B800057FB3B682900DA7A043303929A79019320
:106B90000292009033002000059A04F099FC07B09F
:106BA000F0BDFFF7B5FF002805D00620FFF7AEFACD
:106BB00004000720D8E70820FFF7A8FA04000920FE
:106BC000D2E7C046B464FF1FB064FF1F70B50A4E21
:106BD000040033780D00FF2B0DD0042004F088FB57
:106BE000011E08D0D0230370CE3B45708370C47063
:106BF000307804F0A5FD70BD2843FF1F70B5040078
:106C000006200D0004F074FB011E0AD0D02303708F
:106C1000CD3B8370054B44701B688580187804F069
:106C20008FFD002C01D0FFF767FF70BDB464FF1F1C
:106C3000F8B5264F06003B680D001124002B05D146
:106C40000522234B1B78134202D112242000F8BDE9
:106C5000204A10241268002AF8D01278002AF5D0B1
:106C6000DB0719D52B789A1E012A1AD80C2004F0BC
:106C700077FC132438600028E8D000230A224370F0
:106C800029000670023004F043FCFFF75BFF041E8E
:106C90000AD0FFF731FFD9E700F012FB0028E1D15D
:106CA000E4E7002BE2D0D0E70B4B1B78032BCDD1D0
:106CB0001D20FFF72BFA094B18800028C6D0084B7F
:106CC00004211878074A04F0BBFCBFE7B464FF1F37
:106CD000B164FF1FD064FF1FB064FF1FAE64FF1FCD
:106CE000DC64FF1F60EA0000F7B50193194B140044
:106CF0001A78052306000F0012201A4221D001291C
:106D000020D1154B1D68002D1BD002201F2C18D838
:106D1000002C02D0019B002B13D0104B1F221E70A1
:106D20006E1C0021300004F00BFB019922003000A2
:106D300004F0EEFB310020002C70002F06D004F090
:106D40009FFBFEBD064B12201D68DCE704F088FCAB
:106D5000F7E7C046B164FF1FD064FF1F2843FF1F41
:106D6000CC64FF1FF8B50F4E12243368002B17D0E8
:106D70001B780F3C834213D100250B4F022138783A
:106D800004F06EFB094B042138781D8004F068FB89
:106D9000074B28001D8033685C7004F061FA040022
:106DA0002000F8BDB464FF1FDC64FF1FC864FF1F30
:106DB000AE64FF1F70B5012823D11B4C2388002B24
:106DC00003D01A4A1578002D07D0194B1B68002BE9
:106DD00002D01878FFF7C6FF70BD3B2B02D93C3BB1
:106DE0002380F9E7134E0221307804F039FBFA22B0
:106DF0002388920002215A43307804F0B1FC2580A8
:106E0000EAE70B4B1B68002BE6D00B4B1B785B07AC
:106E1000E2D5084B0221187804F022FB0022024B35
:106E20001A80FFF769FED7E7C864FF1FAC64FF1F35
:106E3000B464FF1FDC64FF1FB164FF1FF8B51E4D73
:106E40002868002803D004F033FC00232B601B4E7D
:106E50003068002803D004F02BFC00233360184F67
:106E600005243B7818002040234221D0154800F02B
:106E70002BFA3B78234213D0202004F071FB2860CA
:106E8000002813D02022002104F05AFA202004F018
:106E900067FB041E306005D02022002104F050FA68
:106EA000002004E0286804F003FC2C601320F8BDE7
:106EB00000F00AFAF4E7C046D064FF1FCC64FF1F5D
:106EC000B164FF1F1C43FF1F10B50A4C23681A1E34
:106ED0000ED0002808D10130587004F0C1F9002804
:106EE00005D02368002B02D00021FFF787FE012286
:106EF000100010BDB464FF1FF7B5274E05003368BE
:106F00000191181E21D05C78244F012C30D1FFF75D
:106F1000FFFD002825D02000FFF7F8F804004128E5
:106F200014D91F4B022118781E4A04F089FB1E4B0E
:106F30003C3C1C80022233685A703B78002B14D1F1
:106F400028000199FFF75AFE0120FEBDFA229200A7
:106F50004243002AEED0124B0221187804F000FCC4
:106F6000E8E7FFF7D3F80200F3E700233B70EBE715
:106F70003B78002BE8D1032004F0BAF9011E08D0B9
:106F8000D0230370CC3B457083703368187804F0CD
:106F9000D7FBFFF7B1FDD7E7B464FF1FAC64FF1F59
:106FA000DC64FF1F60EA0000C864FF1F10B51749CA
:106FB000838802008B4220D011D815498B4217D00C
:106FC000144900205B1899B2012907D892681178FA
:106FD0005A425341D8B2FFF7F9FD012010BD0E4AC5
:106FE00000209B1807229BB29A424041C0B2F5E7AD
:106FF00083681878FFF768FFF0E7836899785A7814
:10700000090218781143FFF777FFE7E70A2000002D
:1070100006200000F8DFFFFFAFDFFFFF014B187015
:107020007047C0462943FF1F10B5064C207001F081
:1070300041FA207804F0ACF80521207800F062FDD8
:1070400010BDC046DC64FF1F0BB273B50D00002BF2
:1070500000DBC4E0884B187804F0D2F9041E0ED08F
:107060000378912B0FD0A22B00D1A1E0834B18788D
:10707000FF2852D0210004F063FB00284DD180206E
:107080000002684076BD43780F2B76D013D8052BCD
:1070900070D00E2BEAD18088794B98422BD8794B4F
:1070A00098421BD8784B9842E0D1A3681878591CB5
:1070B000FFF774F838E03E2BD8D18378032B74D0D7
:1070C0006CD8012B6ED0022BD0D1704B1B68002BDB
:1070D00023D05B68002B20D098471EE06C4BC01873
:1070E0000C28C3D804F004FB1DC2C2150BC20B0B45
:1070F0000B3223C23C00674BC0180728B6D8664B3A
:107100001B68002B09D01B68002B06D02000984775
:107110000AE0A3681878FFF7C7F8200004F0D8F851
:10712000ADE7A068FFF762F800289FD0F5E7A368F5
:107130001B78002BF1D0554B1B68002BEDD01B6842
:10714000002BEAD0210055489847EDE74F4B1B68CC
:10715000002BE2D01B68002BDFD021005048F3E762
:10716000504B1B68002BD8D05B68002BD5D021007A
:107170004348E9E7FFF7EAF9CFE780884A4B9842AE
:1071800003D04A4B984200D070E7464B1B68002B57
:10719000C3D05B68002BC0D02100D5E7153B012B85
:1071A000BBD963E7FFF798FAB7E7FFF77DFAB4E7D3
:1071B0003F4B1B78042B07D100236A4613800179CB
:1071C000408800F0C5FCA8E7364B1B68002BA4D014
:1071D0005B68002BA1D00100364898479DE7012449
:1071E00021420AD0294B1B68002B04D05B68002B7E
:1071F00001D000209847012043E78B070AD5264B92
:107200001B68002B04D05B68002B01D0200098473E
:10721000022036E70421280008400D4200D131E762
:10722000254E3388002B21D0013B9BB23380002BAD
:107230001AD1FFF7DBF800280AD0204B1C70164B40
:107240001B68002B04D05B68002B01D020009847FE
:10725000FFF7C6F8694601F001FD6846FEF7FEFF3C
:107260001D20FEF753FF308004200AE7024B1878F8
:1072700004F0F6F8F8E7C046DC64FF1F2943FF1F5F
:107280000E2000000120000009100000D464FF1F40
:10729000FEDFFFFFAFDFFFFFD864FF1F0C20000001
:1072A0000B200000BC64FF1F0D2000001320000015
:1072B000B164FF1FFFFF0000AE64FF1FAC64FF1F3F
:1072C00010B501F09BF910BD014B18607047C04626
:1072D000D864FF1F0B880020162B01D81723042029
:1072E000014A13807047C0468664FF1F0020704724
:1072F000074A03001188814207D0918800209942F3
:1073000002D101308000101870470020FAE7C04613
:10731000E464FF1FF0B58F7806000D00C5B01E2F86
:1073200015D1FFF7E5FF051E03D10024200045B06D
:10733000F0BD00223B003100C078009200F0B2FBAB
:107340000400A81C00F0D2FBFF23EB70EEE7264BF5
:10735000062403931B78FF2BE8D0182FE6D87B0870
:10736000224A013BDB0002929A589446002ADDD063
:10737000029AD3185B68002BD8D00878002802D175
:107380004B78012B02D10624122FCFD107AFAB8847
:10739000697800976446AA68A047041EC6D1AB78F6
:1073A000029A5B08013BDB00D318390030005B68B0
:1073B0009847041E0BD1AB78042BB6D0039A31004A
:1073C00010782200009700F06DFB0400AEE76A78A9
:1073D000002AABD1AA7805A93B88087130000A7051
:1073E0004B80FEF747FBA0E72C43FF1FECB80011D2
:1073F0001D4B37B5050098420BD000290AD1FFF785
:1074000077FF002805D11948FFF772FF002800D048
:10741000058037BD01291AD1FFF76AFF041EF8D095
:1074200001235B420380A378FF2BF2D0FE2B07D011
:107430000023E0781422009329001E3300F032FB71
:10744000A01C00F053FB01235B426380E1E70229AB
:10745000DFD1013901F0BEF80028DAD12800FFF7AA
:1074600047FF041EDFD1D4E7FEFF0000FFFF00004E
:10747000022210B5074B52421A80074801325A8047
:107480009A80DA8000F07EFA044801F025F80020A6
:1074900010BDC046E464FF1F15730011F1730011A5
:1074A0000388F7B50400002B02D102252800FEBD99
:1074B00042680221137825485268FEF7A5FD00288E
:1074C0002ED0234F01253A88002AEFD0802321882F
:1074D0005B0201259B1A9942E8DC0C2004F040F87D
:1074E000061E31D03B8822889C4600231800019557
:1074F00061469DB2491989B2AA421BD8002801D021
:1075000062443A8000233000082208C0210003F0C2
:10751000FFFF104A1368002B13D100251660C5E742
:107520006268022113780C485268FEF76DFD00284E
:10753000C7D1BAE760681D01401941810133019844
:10754000D6E71A001B68E6E71325AFE75AB9001122
:107550002A43FF1FE064FF1F58B90011014B187048
:107560007047C0462C43FF1F14230A0010B51A4071
:10757000194204D00122102101F048F810BD4B0639
:10758000F9D4012088434000F8E710B514008B06B9
:1075900004D50122102101F039F810BD08230A009A
:1075A0001A40194202D14BB2002B0FDA102101F020
:1075B0002DF8002808D02300F2331B78002BECD0E4
:1075C000F1342378012BE8D10020E6E70320890776
:1075D000FAD4E2E7F0B51F00184B85B01C680190A3
:1075E00002910392002C27D1200005B0F0BDA568C0
:1075F0003301ED186B89019A934211D3029A934299
:107600000ED8002F04D10A9B002B10D12C00EBE7E1
:107610003B002978039A6868FEF7F6FC0028F2D14F
:107620000136B6B2A388B342E1D82468DAE7A3688A
:107630000A9A5B891380E9E70026F3E7E064FF1FFD
:1076400037B50C000A8849880123914217D3002AD4
:1076500015D0651D23792A0002210A48FEF7D4FCC3
:10766000102300280BD023796188208800242A0069
:107670000094FFF7AFFF0A23A04200D023001800B8
:107680003EBDC0465AB9001113B50A0008884988A2
:10769000012388420BD8002809D000241379053231
:1076A0000094FFF797FF0A23A04200D023001800A0
:1076B00016BD13B50A0008884988012388420BD8F3
:1076C000002809D00024137905320094FFF782FFC7
:1076D0000A23A04200D02300180016BDF0B58BB0DD
:1076E00003904A8808880E000123824255D300285F
:1076F00053D00023012704AC2370002271881300AB
:107700000092FFF767FF051E3ED02078002835D194
:107710002B78022B18D167706A8983000130E31837
:1077200080005A8069680222201803F0F1FE237855
:107730000133DBB22370042B19D93B006889013077
:1077400080B2002BD9D01FE002236370122358436C
:107750006A89231804305A8069681022201803F0BF
:10776000D7FE23780133DBB22370002BE5D10C4A1E
:107770006B899B185A425341DBB2DFE76378012BD8
:10778000E4D12B78022BC7D022780A23002A04D018
:1077900021000398FEF798F9002318000BB0F0BD04
:1077A0000100FFFF0F4BF0B504001868002816D049
:1077B00083685D89A54207D88288AE18B44203DA8F
:1077C00012019A18934201D10068EFE71E005F8909
:1077D0001036A74204D1002900D00D801800F0BD5A
:1077E0003300EFE7E064FF1F70B505000C00088868
:1077F0000021FFF7D7FF03000120002B04D0220057
:107800002800197AFFF7C1FE70BDF7B50C000025FE
:1078100001902300EE331B78AB4201D800200AE030
:107820006B00E65A00213000E718FFF7BBFF002885
:1078300002D126800130FEBD017A0198FFF794FE47
:10784000002802D03B882380F5E70135EDB2E0E760
:1078500010B5040008880021FFF7A4FF03000120F1
:10786000002B03D02000197AFFF77EFE10BD000028
:10787000054B1B68002B01D1180004E09A6852895F
:107880008242F6D198887047E064FF1FF0B50E275A
:10789000002687B0039302ABFF183E8005001F4B04
:1078A00040891400984207D02B78013000976A680D
:1078B00080B2FFF78FFE060002212B7818486A6815
:1078C000FEF7A2FB00280FD06C892000FFF7D0FF45
:1078D000002802D0013C0419A4B2039B002B00D065
:1078E0001C80300007B0F0BD02212B780D486A687B
:1078F000FEF78AFB0028E7D102212B780A486A6844
:10790000FEF782FB002807D0002EDED03B88A34282
:10791000DBD17489013CDFE76C89DEE7FFFF000003
:107920005AB9001158B9001156B9001110B50C0020
:10793000FFF7DEFC03000220002B0AD0002C00D051
:1079400023609B781720FE2B03D00138FF2B00D13A
:10795000002010BD73B50D0001A904001600FFF74B
:10796000E5FF172805D0002E04D129002000FEF7DE
:1079700027F976BD01221021200000F047FE0028E3
:10798000F3D0F6E7014B18607047C046F064FF1F64
:1079900037B56B469D1D010004000222280003F04C
:1079A000DFFB2B88B02B0ED12379122B09D12300BA
:1079B000FA331B78012B06D10121608800F0E0F832
:1079C00001E01B2BF8D037BD10B5054B0421187012
:1079D00000F098F8FFF74CFDFEF770FB10BDC046B5
:1079E000F464FF1F0020F0B50BB20F0087B0834294
:1079F00034DA274B187803F003FD051E2BD00378EB
:107A0000A02B25D103AE3100FEF7E4F8041E0BD104
:107A1000B378DB0724D51F4B06341B68002B03D03B
:107A20003100688898470400A868002801D003F056
:107A300037FE002C08D1184A039B1340174A934283
:107A400006D0B3781B2B03D00121688800F098F88A
:107A5000280003F03DFC80200002784007B0F0BD14
:107A60000F4B1B68002B10D0310068889847041E0C
:107A7000DAD07378002BD7D1B27801A90A704B8085
:107A80000C716888FDF7F6FFCEE70624F1E7C046E3
:107A9000F464FF1FEC64FF1F00FFFF0000011200F1
:107AA000F064FF1FF7B50190FC200D0017001E00C9
:107AB00003F01EFC04001320002C12D0B023200081
:107AC0002370089BF4226770658026710830002BB4
:107AD00008D0190003F01CFD2100019803F030FECE
:107AE0000020FEBD089903F02BFCF5E710B5041E3D
:107AF00006D00078FD2803D803F062FCFF23237032
:107B000010BD00000A1F93B210B504000220032B21
:107B100005D882400020024BD1529B189C7010BDAA
:107B20001465FF1F0B8870B5043B04000D00022094
:107B3000032B0BD80121200000F04CFD0300142082
:107B4000002B03D02900200000F0DEFB70BD0000F8
:107B500007B51300034A00920A00012100F02CFC33
:107B60000EBDC0468D7D001107B501920322009223
:107B7000024B0A00122100F049FC0EBD0B7E0011E1
:107B800007B56B4601AA11800449D88008780633EE
:107B9000012802D1190003F023FD07BDF564FF1F82
:107BA0000C4B10B518700023FF210B4A1380138172
:107BB00093819380094A5380137051729381937219
:107BC000D174D3821375517703F03AFC00F0FCF9BD
:107BD00010BDC0462465FF1F1465FF1FF664FF1F1C
:107BE000F0B58DB06B46002003910C229B5E834262
:107BF00000DBB0E05D4B187803F002FC051E00D1FD
:107C0000A4E00378902B00D09DE006AF01004688E9
:107C1000380000F013FA79680400002900D19CE0D4
:107C20003B88052B6ED13B89032B1CD905AC20006A
:107C300000F0A2F86288172A61D83989131D994289
:107C400031D17968237804310291D90738D5607829
:107C500000F08EF9071E06D0002303712378012B54
:107C600008D0132B23D0A868002800D178E003F0B7
:107C700017FD75E06288029909A800F0A6F8029045
:107C8000380000F08BF909AA2378387A0192002293
:107C900031000092029A00F012F9380000F064F905
:107CA000029B002BDFD0300000F080F9DBE7037887
:107CB000032BD8D16288029909A800F0D6F8DEE734
:107CC000122B13D1029909A800F0B5F8021EEAD1CF
:107CD00027498B88002BC6D0887909A92378019180
:107CE00061780091310000F0EAF8BCE7002302AAB5
:107CF00093833000617809AAFFF72AFFB3E71D4B91
:107D00000993F6E7042B02D09A1F012AABD8184A30
:107D1000043B9B00995A0029A5D0D21890783100D5
:107D20003A0000F0AEF800289DD13B88042B03D028
:107D300001213000FFF724FF012C04D1A86800289E
:107D400001D003F0ADFC280003F0C2FA8020039BB1
:107D50000002434018000DB0F0BD012800D182E7B9
:107D600001213000FFF70CFFEDE7C0462465FF1F3F
:107D70001465FF1F010017000B7803704B784370E8
:107D8000CB788A781B021343438070470A8803002C
:107D900002700A88120A42700A88012A06D14A88AB
:107DA00082704A88120AC270042070470220824200
:107DB000FBD14A8804309A704A88120ADA708A889D
:107DC0001A718A88120A5A71EFE710B5040001206F
:107DD00082420CD94B780A781B02134323808342DA
:107DE00006D1CB788A781B0213436380002010BD34
:107DF000022BFBD1CB788A781B02134363804B792B
:107E00000A791B021343A380F0E70B8803700B88E9
:107E10001B0A43704B8883704B881B0AC3708B8886
:107E200003718B881B0A4371CB888371CB881B0A33
:107E3000C3710820704703000120082A14D14A7832
:107E40000878120202431A80CA7888781202024324
:107E50005A804A790879120202439A80CA7988794D
:107E6000120202430020DA80704710B5040001209E
:107E7000022A05D100204B780A781B021343238085
:107E800010BDF8B5060010200F00150003F030FA01
:107E900004000120002C0ED0A0230C2229002380F6
:107EA0006780201D002D07D003F032FB2100300039
:107EB00003F046FC0020F8BD03F042FAF6E7F7B500
:107EC0001E00009008AB142017001D78019103F0EC
:107ED0000FFA041E12D0A2230370019B4770438047
:107EE000099B057146710C220830002B07D0190040
:107EF00003F00EFB2100009803F022FCF7BD099966
:107F000003F01EFAF6E737B5041E0FD04388002BA6
:107F10000CD00025C1881323007A17220195009503
:107F2000FFF7CDFFFF2365806372257037BD00002A
:107F300010B50C4904004A88002A09D08B89002B0F
:107F400005D00020CB8A0222834201D010BD01223D
:107F500013000A20434300204032C854C81842800E
:107F60000472F3E7F664FF1F002343800370704739
:107F7000094B00211A0010B55C88002C06D01C7932
:107F8000844203D10A234B43D01810BD01310A3378
:107F90000329F1D10020F8E7F664FF1F10B50400B3
:107FA000407A03F00DFAFF23637210BD704704306E
:107FB00010B580B203F01CFA002803D00421494216
:107FC00003F046F910BD000070B50025104CA06804
:107FD0002580A581A580A84202D003F061FBA560A1
:107FE00000250C4C0C4B606D1D80230058331D7018
:107FF000A84202D003F054FB6565002560680028A4
:1080000001D003F04DFB013508340A2DF6D170BDC7
:10801000BC65FF1F6065FF1FB065FF1F70B5041EC4
:1080200009D1054D2880A881A880A868002802D021
:1080300003F036FBAC6070BDBC65FF1FF0B54B882C
:1080400085B00193002343600A7905000F00022ADE
:1080500000D07BE0CA88032A17D98B685E7819782C
:108060003602DC78D8790E4399781B7A24021B02F9
:108070000C43034353495BBA0B80331D93421ED11B
:10808000042C04D0631F022B0ED9012015E0019AA5
:108090004D4B1201D35A002B06D00198FFF7BEFFBB
:1080A0004A4A1369013313610421B8682E812C8078
:1080B000494203F0CDF86860002005B0F0BD434DA3
:1080C000042C06D0631F022B0FD9EB680133EB6041
:1080D000DBE7019A3C4B1201D35A002B05D00198E3
:1080E000FFF79CFF2B6901332B61374B3000029364
:1080F000019B029A1B010193002301998C468B522C
:10810000130063449C8003939E81FFF750FF039B01
:10811000041E986016D00421B868494203F098F80C
:10812000FA880100043A200003F0F2F90199029A5A
:10813000FB888A5A043B9B18029A8B522B680133A6
:108140002B60A2E7AB690133AB619EE71E4B029344
:10815000019B1E01029BF35A002B2DD002998C1912
:10816000A068002828D0012A26D1FA889B189BB243
:108170007352A189994217D39B1AC018B96803F0AA
:10818000C7F9029BA289F35A934200D07DE70022EF
:108190002B81A3882B80A3686B60029BF2520B4A51
:1081A00053680133536070E7084A93680133936062
:1081B0000198FFF733FF68E7044A536901335361BD
:1081C000F6E7C0462665FF1FBC65FF1F2C65FF1F35
:1081D00070B5051E15D10B4C0B4B1880230058337E
:1081E0001870606D002802D003F05AFA656525000A
:1081F00050356068002801D003F052FA0834AC42D0
:10820000F7D170BD6065FF1FB065FF1FF0B51700A7
:10821000A12285B0920001934243394B06001B68AE
:108220000C009B18D933FF331D78FDF741FF043054
:10823000854204DD3000FDF73BFF0430C5B2BD428E
:1082400007D33A0000213000019B03F011F805B07C
:10825000F0BD2900380003F04BF92300C6B25033BB
:108260001E700393019B29006365380002F0E0FF54
:10827000CBB20293002B02D0039B01361E70002666
:108280002300503303931B78B34204D8606D002859
:1082900031D10020DBE7029A2800002A04D0013BFC
:1082A0001000B34200D02800F700E719387003F03F
:1082B000BFF9786000280ED03A78019903F028F9C8
:1082C000019A3B780136D3180E4A0193D369F6B26E
:1082D0000133D361D4E7039B18706065A74205D1D1
:1082E000084A1320D36A0133D362B0E7606803F011
:1082F000D7F90834F2E703F0D3F900236365C8E740
:108300003409FF1F2C65FF1FF7B50D00070004217E
:10831000686802F09DFF2B89040003702B891B0AFB
:1083200043702B8883702B881B0AC3702E8902250B
:108330000436F6B2F42E15D81B4B9F4214D10C20F4
:1083400002F0D6FF1135011E0CD0902303708E3B36
:108350000371043B4380154B8460C680187803F09A
:10836000EFF900252800FEBD5C237B43104AD3189B
:108370000093583301931B78002B0FD10300320078
:1083800038000099FFF742FF019B05001B78002B86
:10839000E8D13800009903F06BF8E3E7054A0725B8
:1083A000536A01335362DDE7FEFF00002465FF1FBF
:1083B0006065FF1F2C65FF1FF0B587B00090172088
:1083C0000F0016000193FFF7F2FD1325041E19D0CC
:1083D0000C98031E02D00199201D9847030AE370F0
:1083E000052302AAA070043090812770009866705F
:1083F00003A993800494FFF787FF051E02D0200095
:1084000003F04EF9280007B0F0BD0000F0B587B0CA
:108410001F000CAB1B780391059301210DAB0600E7
:108420001C78049200F0D6F81425002821D02000F2
:10843000FFF77EFD0135041E1BD01149059B0A780C
:1084400003700132D2B2131EC68001D101231A007B
:108450000B7022713000049B03990097FFF7ACFF6B
:10846000051E09D1230021000648074A093302F0FE
:10847000AFFF280007B0F0BD002363802370F8E74A
:108480002865FF1F077F001130750000F8B5050053
:108490000E00064C064F2368002B02D03100280046
:1084A00098470434BC42F6D1F8BDC046CC65FF1FE6
:1084B000E065FF1F0123064A5B42538000231371CE
:1084C0005362044A136053609360D3601361704732
:1084D000E065FF1FCC65FF1F0200002310B50649B1
:1084E0009C000859002801D1625010BD0133052BB2
:1084F000F6D11320F9E7C046CC65FF1F034A538825
:10850000181A43425841404210407047E065FF1F2F
:10851000F0B585B002930AAB1F780CAB1B880090B6
:1085200008000E0001920393FFF7E8FF05001120F9
:10853000002D1BD10E48FFF7E1FF04001520002C91
:1085400014D006220B99A771E01D02F0E1FF019BF8
:1085500030002371029B29006371009B66802370A9
:10856000039B6562E381FFF791FF280005B0F0BD32
:10857000FFFF000010B5FFF7C1FF04000220002C30
:1085800012D060880121FFF781FF606A002801D0C6
:1085900003F08EF828220021200002F0D1FE0123F2
:1085A00000205B426380207110BD000030B5074A97
:1085B000074C5588010013780020A54204D05B1AAF
:1085C00059424B415842104030BDC046E065FF1F44
:1085D000FFFF0000084A10B501230C00904208D0AC
:1085E000FFF78CFF031E04D0037923405A1E9341EA
:1085F000DBB2180010BDC046FEFF0000024B187928
:10860000431E9841C0B27047E065FF1F70B504007B
:108610000D001600FFF772FF002804D10D4B9C429D
:1086200000D0143070BD416A03790520002907D0BD
:1086300012221A40102A02D10520002EF2D10F205A
:10864000DB06EFD5897E0C20A94289414942494287
:108650000840E7E7FEFF0000030010B5002800D146
:1086600010BD0348034A41889142F9D09847F7E783
:10867000E065FF1FFFFF0000002330B5C45CCD5C48
:108680006C40D4540133102BF8D130BD0F2300229D
:1086900010B5C45C64002243CA54C25CD209013BD9
:1086A000F7D210BD0200010010B52032103102F0E7
:1086B0009FFF10BDF0B58BB00390102005931700FD
:1086C000049102F04DFF0090102002F049FF009B42
:1086D00013240190002B05D000280CD113240098FE
:1086E00002F0E6FF019B002B02D0180002F0E0FF31
:1086F00020000BB0F0BD102002F032FF0600102069
:1087000002F02EFF13240500002E00D1AEE0002859
:1087100019D01022002102F013FE32002900039824
:1087200002F066FF041E0ED133787F2B51D8300043
:108730000099FFF7ABFF009B1B787F2B53D8019963
:108740000098FFF7A3FF300002F0B2FF002D02D027
:10875000280002F0ADFF002CC1D1102002F000FF74
:108760000600102002F0FCFE0290002E7CD00028B3
:1087700078D03A000F3223000125121105D00F33B3
:108780003B4015B25A4253411BB26A1E1201002BE4
:1087900033D0049BD2B298180099029AFFF76CFF6D
:1087A000013D10220021300002F0CAFDADB2049F4D
:1087B0002D017D19AF4242D0002C33D0300002F0A1
:1087C00077FF029B002B00D189E7180002F070FFB1
:1087D00085E729003000FFF759FF28002549009A56
:1087E000FFF74AFFA7E729000098FFF74FFF28008F
:1087F0002049019AFFF740FFA5E70F210F40049998
:108800008A18D9B28F4208D9D15C06A8195401330D
:10881000102BF6D1029A0199C0E7791A48424141DA
:10882000C901F2E73900300006AAFFF725FF320040
:10883000039806A902F0DCFE10370400BAE7002C0A
:10884000BCD13000029906AAFFF716FF320006A934
:10885000039802F0CDFE082204003100059802F0D2
:1088600057FEABE71324A9E71324AAE7002800D09A
:108870006EE733E760B90011F0B58BB00F0016005A
:108880000225009000283FD0002A3DD00B1DDBB20E
:108890001800029302F064FE1135041E34D0FDF777
:1088A00047FD05003A000099201D02F009FEEBB2D9
:1088B0000393E3702B0CDBB22F0A00936370FFB2BB
:1088C0002B0E2370A7700193FDF72CFD10220100E1
:1088D00006A802F0F5FD2100029A04AB06A8FFF7F6
:1088E000E9FE051E0DD1039B08223370009B04A9ED
:1088F000B370019B7770F370301D02F0E1FDFDF75E
:108900001DFD200002F0D4FE28000BB0F0BDF0B534
:108910008FB00D00149E039004920593002A03D19A
:10892000022420000FB0F0BD002EF9D00398FFF70D
:10893000E5FD1424071EF4D07278337812021A432E
:10894000B3781B041343F27812061A43036A0192A8
:10895000934201D30133E3D1002D03D03B790124AD
:108960009B07DED50822002106A802F0E9FC059B42
:1089700013240433DBB21800029302F0F1FD051E4C
:10898000CFD0059A0499043002F09AFD04223100F8
:10899000280002F095FD3900102210310AA802F0DB
:1089A0008FFD2900029A06AB0AA8FFF783FE041E7A
:1089B0000FD1082206A908A802F082FD0822311D65
:1089C00008A802F02DFC012807D101990398FDF7B2
:1089D000C9FC280002F06CFEA3E70124F9E70000BF
:1089E00070B51C4C05002368181E10D0002D14D142
:1089F0001A78002A0CD1981C083202F089FD02F086
:108A00006FFE0135002808D123681D70012070BD5C
:108A10000A331800082202F07BFD2368002BF5D0F2
:108A2000122002F065FC061E0DD0C12321680370E0
:108A3000457002311022023002F06AFD23683100D5
:108A4000587802F07DFE206802F032FE0023236099
:108A5000DCE7C0460866FF1FF8B504002020FDF7DC
:108A600055FB0D4EA700BB590500002B0DD000286B
:108A70000BD0D878FF2809D108492A000C55F359A2
:108A800007480333611802F0A3FCF8BD290002F087
:108A90008FFC0028F0D1F8E72466FF1F0C66FF1F4B
:108AA000B19C001170B5064D84006359002B05D0B0
:108AB000D87802F085FCFF226359DA7070BDC04699
:108AC0002466FF1F70B506008CB00C001500002155
:108AD0003022684602F034FC31001022684602F071
