:020000041100E9
:10300000002373B52B4D2C4C28006361022601F080
:1030100079F94021FE2221742800284B009601F006
:10302000C3F9002836D1217CFF222800244B0096CA
:1030300001F0BAF900282DD1224BA2899A4226D15B
:10304000E389214A93420DD1204B6361204B2268D2
:10305000002A03D1002B01D043CB43C4280001F048
:103060008FF973BD1B4A934201D00023EFE71A4B3F
:103070001A4A1B68934206D9C02304222800217CE7
:103080009B0001F007FA114B6361154BDFE700234A
:103090002374EAE7CC233821AC2228009B01217459
:1030A00001F0F8F90028F2D10E4B63610E4BE38179
:1030B0000E4BCCE7F441FF1F9C61FF1FA861FF1F6F
:1030C000AA61FF1F5959000083050000314100111A
:1030D00014BD001182150000C061FF1F871300009E
:1030E00020BD0011E9410011AAAAFFFF08BD00118F
:1030F000F7B5164B0192C318021D002000938823D8
:103100005B05D3181B685C1C1AD09CB2402C18D8E5
:103110008D781E0CAC466746CD782D023D43AE42FD
:1031200006D1019800280ED110000C70240A4C70B2
:1031300003249BB20733A343D218009B9A42DED3E9
:10314000FEBD4432F9E71000FAE7C046FC0F00006C
:10315000802213B503000324019189B25201073183
:103160009B18A14304305A1A88235B05C3181B68B7
:10317000591C03D190429241104016BD99B240298A
:1031800007D80B000733A343C0189042ECD30020AC
:10319000F3E74430F9E7134B134A1B68126810B584
:1031A000FA24934201D81A00F824104BE4021B6859
:1031B0009A4210D813000E4A12689A420ED3013375
:1031C00007D1F823DB029C4203D10A49054808F0E5
:1031D000AFFB200010BDFC24E402ECE7FE24E40277
:1031E000F7E7C04600C0071100D0071100E0071143
:1031F00000F00711FFFFFF7FF0B59BB015000490B2
:103200000391402A00D9A0E006AB59801A80FFF74D
:10321000C2FF0400042816D9002206A9FFF768FFA0
:10322000052810D906AB1B88AB420CD1002D07D066
:10323000514B2A000499C01808F02AFC002802D13A
:1032400001201BB0F0BD06AB1D8020000699FFF7E2
:103250007FFF041E7BD1069B0793FFF79CFF802313
:103260005B01C618802307001B039E4201D3F8268A
:10327000F60288235B05F31801931B68013302D023
:10328000019808F045FB3D49019808F051FB3B1DB2
:103290000293331D05938822029B52059B181B68DD
:1032A00008935A1C3CD044219AB20091402A04D879
:1032B0000320D11D814389B2009103991B0C8B42DD
:1032C00024D0402A22D80122300008A9FFF710FF9D
:1032D000021E1BD1380008A9FFF70AFF04000428CA
:1032E00031D9009A059B9B1880225201B218934253
:1032F00040D288235B05C118009A09A808F0D0FACB
:103300001D4B009A09A9F01808F072FA009A029B66
:103310009446634402931A4B029AFB189A42BAD31A
:1033200088235B05FC1821680198013908F000FB2F
:10333000200008F0EDFA039A07AB5A803000079995
:10334000FFF706FF0400002C03D1002079E70428D2
:10335000FBD988235B05E018069908F0E9FA0323F6
:10336000EA1C9A4300D16BE7034B0499E01808F07C
:103370003FFA65E70424ECE704000011FFFFFF7F3C
:10338000F80F0000F7B505001400402A21D80027E7
:1033900001AE71803780FFF7FEFE042816D93A008F
:1033A0003100FFF7A5FE042810D93688BC420BD0A7
:1033B000BD4209D0221CB44200D9321C064B92B245
:1033C000C118280008F06CFA30B2FEBDC04300B24C
:1033D000FBE703204042F8E70400001137B5042260
:1033E00004000D0001A81649FFF7CCFF02000428D5
:1033F0000BD1019BA34208D3AB4204D0104901A8D2
:103400000195FFF7F9FE01203EBD0E4C2368200018
:10341000019308F07DFA019920000139019108F02B
:1034200087FA80235B01E418074B9C42EED104220B
:10343000034901A80195FFF7DFFE0020E4E7C0463D
:103440005555000000C007110000081130B589B0C3
:1034500008F09EF910226946254808F061FA254BCC
:10346000009A9A420ED1019B029A0F2B33D8002169
:1034700001240698013B08D2002900D00292029B49
:10348000013331D10023029325E0551CF2D1020013
:103490002100EFE710341022200004A908F040FAC0
:1034A000029B013301D1069B0293882304995B059B
:1034B000C918059B06981A03120B049105928142C4
:1034C00003D02B4201D108F0EBF9019B013B0193A2
:1034D000019B002BDED1029B002B03D004930498A8
:1034E0004168084709B030BDE025014C2D03EFE7E6
:1034F00000000111504859368022F8B5964C974B80
:10350000D200002120001C6008F02AFB2300944A0E
:1035100088331A60934B1A786A23002A00D011333B
:10352000E3620A232365904B37221B780820A363AC
:103530008E4B2118E361102323628D4B3B25636181
:10354000C823DB00A36123008C331A602823013ACF
:10355000E26320646364CA67043A211DCA672100DC
:10356000BC310D602100C03108602100C4310B6006
:1035700021000635CC310D602100083DC8310D60B9
:103580002100D0310A602200D43210602200D832EB
:10359000136022000227E032210017604222DC3152
:1035A0000A6021001B3DE4310D602100E831086014
:1035B0002100EC310B6023000521F4331960230056
:1035C000F0331A602300183290331A6023009433CA
:1035D000186023001E3A98331A60AF23DB00236083
:1035E000644BFA262363644B644DE360644BF03113
:1035F000A3642300FF31FC33B600A16021611E608B
:10360000A5627325E5656D3D6565A56596255D4AF1
:10361000AD00E264666258606766A566002709250A
:10362000A767E566584F594D606720002567E26738
:103630003A6015279C30676007001A203860200028
:10364000A0300700212038602000A83007004C4837
:1036500038602000F830066026006427A436376002
:1036600026005F3FAC3637602600033FB036376038
:103670002600C637B436376026000027B8363760D4
:1036800038269E60424E96205E64424E5A66DE6147
:10369000414E9A645E62F53EFF3E9E621E269A6728
:1036A000354A8000DE661F675F67DD651D6618624C
:1036B000DA67BE23394A5B00E250394BD8382350D1
:1036C00004302250C4225200A350C623E4205B00E1
:1036D000E1500433334AE1503349344BD16034492B
:1036E000800019503349E938FF3819503249043005
:1036F000195032493248D16132491163324951631C
:103700001900F4310860CE20304940001160304982
:10371000195019002F48F83108602F49D1658221CE
:103720002E4A89005A501A002D490832D1671A00D2
:103730002C49B432116088212B4A89005A501A0052
:103740002A49883211602A4ADA6407F0B1FF012061
:1037500007F036FFF8BDC0460004FF1F4064FF1F9E
:10376000206FFF1F3044FF1F4A0AFF1F3A07000067
:1037700080C3C9019A020000DC0500006A1800003D
:1037800050C3000088130000F009FF1F204E000006
:103790006509FF1F68100000C409000040420F00C7
:1037A00010270000FC00FF1FC11BFF1F0000FF1FB0
:1037B000152CFF1FA52FFF1F3D2EFF1F811FFF1F71
:1037C0007126FF1F9D1FFF1F4921FF1F0D1FFF1F98
:1037D0009528FF1F7D29FF1FD918FF1FA127FF1F55
:1037E000C524FF1FD124FF1F0D1EFF1FC51EFF1F75
:1037F000851DFF1F0223F0B501245F4D5F4E2B7026
:103800005F4B91B01C705F4F039333680021200021
:10381000FB7006F0E9FD200006F0E0FC0023984272
:1038200005D0FA78552A02D0332A00D097E03360C9
:10383000042006F041FF07F00BFFFFF75DFE07F0E5
:103840003FFF1F22012400214F4B10AE1A704F4B37
:103850001C704F4B19704F4B19689143163A0A432D
:103860001A60602219689143403A0A431A6007F0CF
:103870003FFF07F085FFC120FF21474B80001A580A
:103880008A431A50C522920098588843BF39014391
:1038900099509858414908408021C901014380202E
:1038A00099509958C0050902090A0143995080218D
:1038B0003B48490108F0C4F8032322003949019428
:1038C0000093394808F06CF82C22384905A807F015
:1038D000E7FF05AC61782078023406F09FFCA64231
:1038E000F8D1334C334B226803201A40A023DB026B
:1038F00013432360802322689B04134323602268C0
:103900002D4B1A4080239B03134323602B4A2C4BDF
:10391000934200D8012007F063FF07F029FF8023BE
:103920002268DB0413432360287807F069FF039BB8
:103930001878C0B208F0F4F808F042F821490420E1
:1039400008F0E6F806F084FE00F0AAF800F0F8FDB2
:1039500000F0A0FE00F01AFA002011B0F0BD0093B4
:103960002100184A042008F04BF88023DB059C62F4
:10397000FFF76CFD5CE7C0464A0AFF1F34F00040C9
:103980003044FF1FCC61FF1F480AFF1F490AFF1F79
:10399000680AFF1FBCF0004000E100E0FF00FFFFED
:1039A0003444FF1FB856FF1F3454FF1F30BC0011B2
:1039B00014F00040FF7FF8FFFFFF9FFF0080FF1F14
:1039C000206FFF1F3B00010870B500252549264ADE
:1039D00026484D6308CA1B051B0DED188242F9D11C
:1039E00000268022224B92058B630921214B224C19
:1039F0001E62224B1120DA67214BDA688A43DA60B3
:103A00009A6820490A409A60266008F0C9F8112097
:103A100007F0E6FF636C1C4A13406364EE24E40085
:103A20006C431A4A200C0400642390420AD8FA22FC
:103A30003300D200904205D9154B0A21C01807F077
:103A4000FFFDC3B2134A11201372D48007F0E0FDCA
:103A5000114B1B78002B04D1104B1021187808F063
:103A6000A7F870BD00000540080605408006054027
:103A7000FF01000000F000400038004004E100E0D9
:103A80003CF00040FFDFFFFFFFFEFFFFB70B000031
:103A900030F8FFFFB461FF1FEE63FF1FEC61FF1FF3
:103AA000002210B51100112007F092FF10BD000098
:103AB000F8B500230926364F364C3B62E3681120E7
:103AC000B343E36007F08CFF112008F069F8112080
:103AD00008F016F840232268102513432360802342
:103AE0006268DB02134363608023A26802211343F0
:103AF000A360A368284A08201340A3608023A2681B
:103B00009B0113430122A360236CAB432364236C0A
:103B10001343236480231B013B62226B1F4B1A401B
:103B20002263626B1A406263A26B1A40A263E26B6B
:103B30001340E363E3681A4A1340E36006F06EFB48
:103B40000121082006F07EFC8023164A5B00516CA0
:103B500011200B43536407F03BFDFD21C720124B9E
:103B6000124A89005A50A36B80002B43A363E36879
:103B70000F4A3343E3600F4B195811408022120261
:103B80000A431A50802292051A600B4B5D63F8BD00
:103B900000F000403CF00040FFFFDFFFEFFFEFFFD1
:103BA000FFFF7FFF003800400000FF1FC9390011F0
:103BB000FF00FFFF00E100E00000054030B503A872
:103BC00004880B20002C0ED14968074D08784978ED
:103BD000090201430A20A94205D1012120001980D0
:103BE000024B1B7A137030BD192A0000B461FF1F0D
:103BF000F7B5150008AA16884A680F4F147852784E
:103C0000120222430A24BA4214D10122DBB20192E9
:103C100000962A0007F06CFC041E0BD1074B1B68B2
:103C2000002B07D068782A780002104342425041A6
:103C3000013098472000FEBD022900003861FF1FB7
:103C400030B5012503790400BFB02B4211D00A49D9
:103C5000408806F0B9FF28420BD0084B01A95B8DC4
:103C60004D800B80064B00221B7A60880B7104F09C
:103C70009DF83FB030BDC0463061FF1F6840FF1F58
:103C8000B461FF1F10B50549054806F053FF042134
:103C9000044A054806F010FF10BDC0463061FF1F02
:103CA000FFFF00005CBC00116840FF1F10B5024818
:103CB00004F0FEFE10BDC046413C0011012303701C
:103CC0000B4B1A7A4270022282709A78C270DA78AC
:103CD0000271032242711A7982715A79C2710C22DF
:103CE00002729A794272DB7983720B207047C04668
:103CF000B461FF1F022310B50370013B437005330D
:103D0000837010330371443B43712A33837144330E
:103D1000C37100230372064B04001B8843720A30F0
:103D2000FFF7CCFF831D0A30C0B2E37010BDC04660
:103D3000B461FF1F10B5142007F0CAFD124B142206
:103D40000021186007F00CFF002007F049FC01205B
:103D500007F036FF022007F01BFE032004F04CF9A9
:103D6000042006F061F9052003F08AFB062004F028
:103D700057F8072001F054FA082006F07DFE0920CC
:103D800001F03CF810BDC0463C61FF1F07F010FE7B
:103D9000012007F0CDFC07F033FF0000094B10B500
:103DA0000400984205D0012904D12000064906F0FC
:103DB000C1FE10BD0229FCD1013904F037FE0028F4
:103DC000F3D0F6E7FEFF00006261FF1F70B50D7AC9
:103DD000100004AA2C00168810221440154220D18D
:103DE000002E20D10A78022A18D14A685178157815
:103DF0000E4A09022943914205D00D4A914209D049
:103E00001C800A2404E014220A491A8007F048FDA5
:103E1000200070BD0C2208491A80F7E71C8001249D
:103E2000F6E70824F4E70B24F2E7C046F3FF0000AE
:103E3000F4FF0000BC42FF1F38BD001110B50400A4
:103E40000749084806F076FE074804F071FD002097
:103E5000E40704D50721054A054806F02DFE10BDEC
:103E60006261FF1FFFFF00009D3D0011A0BC00111B
:103E7000AC40FF1F00B50C4BBFB01A780B4902A82D
:103E800000F0C2FC6B4680B2D880002809D06A4698
:103E9000074B01A91B889380064B0022188803F06A
:103EA00085FF3FB000BDC0464061FF1F4161FF1F5D
:103EB0000641FF1F1042FF1F00B50C4BBFB01A7820
:103EC0000B4902A801F0B8FE6B4680B2D8800028EA
:103ED00009D06A46074B01A95B8D9380064B0022EF
:103EE000188803F063FF3FB000BDC0466A61FF1F42
:103EF0006B61FF1FAC40FF1F1042FF1FF7B50E00A4
:103F0000377A1C0008AB11003D001A8820231D40A1
:103F10001F423CD13378022B3BD173681F785B780A
:103F20001B023B431E4FBB4208D01E4FBB4214D066
:103F30001D4DAB4221D00A252800FEBD002A2AD102
:103F4000142C2AD82200F06807F0AAFC174B1C702A
:103F5000012CF1D9FFF7B0FFEEE7002A1BD1202C8E
:103F60001BD82200F06807F09BFC114B04211C7049
:103F7000104B187807F01CFEDEE7E3B20124009234
:103F800001940A00310007F0B3FA0500D4E70825D0
:103F9000D2E70125D0E70B25CEE70D25CCE7C046BB
:103FA000F3FF0000F4FF0000022900006A61FF1F18
:103FB0004061FF1FEC61FF1F332310B50400037045
:103FC0000A220749013007F06BFC064B0F201B68E3
:103FD0001A0AE37222731A0C1B0E6273A37310BDCC
:103FE000B461FF1FDC61FF1F30B5012503790400B8
:103FF000BFB02B4213D00B49408806F0E5FD2842A4
:104000000DD06A46084B02A81B889380FFF7D4FFA7
:104010006B46D8800022608801A903F0C7FE3FB03C
:1040200030BDC0466261FF1F0641FF1F10B5024848
:1040300004F03EFD10BDC046E93F001170B516000A
:1040400004AA148805AA15784A68507811780002E5
:104050002A4A0843801805284BD807F079FC031337
:104060001E29343F0720032C0BD80422121BAA421E
:1040700000D92A0022491A803000091907F010FCE3
:10408000002070BD0720112CFBD81222121BAA425F
:1040900000D92A001B491A80EEE707200E2CF0D821
:1040A0000F22121BAA4200D92A0017491A80E3E7FF
:1040B0000720032CE5D80422121BAA4200D92A00AB
:1040C00012491A80D8E70720032CDAD80422121BE1
:1040D000AA4200D92A000E491A80CDE70720032CF6
:1040E000CFD80422121BAA4200D92A0009491A80FB
:1040F000C2E700220A201A80C3E7C046DCD5FFFFD2
:10410000EBBC00118861FF1FDBBC0011D6BC0011A5
:10411000D1BC0011CCBC001110B50D21024A0348DE
:1041200006F0CAFC10BDC046C0BC00111C41FF1FF8
:10413000F0B50024274E85B03000B47100F0E2F8ED
:10414000254D264BEA89297C9A422FD10423300041
:1041500003AA00F057F90400300000F011F9012320
:10416000B371002C34D16B4699892B68C9BA4B4383
:1041700029891B4A1B145B1853806B46D9896B68CD
:1041800049BA89B24B4369891B0C5B181548191C45
:104190001BB2834200DD011C0B0400D500211388F3
:1041A000918001331380200005B0F0BD022722006A
:1041B00003AB3000009700F0F7F80E230400297CD1
:1041C0000122300000976B4400F0EEF80443C3E78F
:1041D0001C00E8E7F441FF1F9C61FF1F83050000FE
:1041E000B461FF1F0F27000073B5234E300000F0AD
:1041F00089F8224D07236A463000297C00F002F935
:1042000004003000002C33D16B461B787F2B2FD855
:1042100000F0B6F86B46D878F02302041B031A406E
:104220006B469B8816495BBA9BB21A432B68000900
:1042300053432A891B0C9B184B806B465A789B78FA
:1042400012031B011A436B68024353436A891B0C18
:104250009B180C481A1C1BB2834200DD021C13047D
:1042600000D500220B888A8001330B80200076BDA8
:1042700000F086F80124F9E7F441FF1F9C61FF1F5D
:10428000B461FF1F0F27000070B5114C237C002B79
:104290000FD0382B0ED10F4D280000F033F8CC236F
:1042A000AC222800217C9B0100F0F4F8280000F0EB
:1042B00067F870BD084BE2899A42FAD1054D280093
:1042C00000F020F800222800217C00F0C5F8EDE77E
:1042D0009C61FF1FF441FF1F8305000010B5084BD0
:1042E0001A7C002A09D05B69002B06D09847041E6F
:1042F00001D0FEF785FE200010BD0124F9E7C0467D
:104300009C61FF1F70B5C17905000C00631E9C41C4
:104310001A4BE402E41849000460C9B2007906F0BF
:10432000C7F8E979687949000131C9B206F0C0F8E7
:10433000E8790930C0B207F0E3FB0023E36661339C
:104340002360AA795B3B002A0ED022689A43023B85
:10435000134323600A23E3610733236200232363AB
:10436000A3630133E36370BD22689A4302231343BE
:104370002360462363610633A361EFE700500040EA
:1043800070B5002504000368DD66C0790930C0B24D
:1043900007F026FB2900207906F026F8290060792D
:1043A00006F022F870BD0000F8B51E0006AB1D78BF
:1043B000002304681700E366616007F0E9F9012350
:1043C0008022E3662B0027615200013B08D207F0F0
:1043D0007FFB08200A4A1168002D03D12800F8BD90
:1043E0002261F2E7236F034203D02369013D33705A
:1043F000013613685B1A032BEED90125EEE7C046A0
:104400006008FF1F70B51C00002305681600EB66EE
:10441000696007F0BDF901238022EB66230052009A
:10442000013B08D207F054FB08200A4A1168002C0F
:1044300003D1200070BD2A61F2E72B6F034203D045
:104440002B69013C3370013613685B1A032BEED9DC
:104450000124EEE76008FF1F002370B50468150013
:10446000E366616007F094F90123E366256107F0D4
:104470002FFB8020064A80001168636B034205D140
:1044800013685B1A032BF8D9012070BD0020FCE7EC
:104490006008FF1F70B51D00002304681600E36666
:1044A000616007F075F90123E36626610F33626BE3
:1044B0001A42FCD02B0A23611023626B1A42FCD0F3
:1044C000EDB2256107F004FB8020074A80001168E7
:1044D000636B034205D113685B1A032BF8D90120E3
:1044E00070BD0020FCE7C0466008FF1F70B51E00CD
:1044F000002305681400EB66696007F049F90123A1
:10450000A619EB660F33B4420ED107F0E1FA802012
:104510000A4A800011686B6B03420CD113685B1A66
:10452000032BF8D9012070BD21782961696B1942EC
:10453000FCD00134E7E70020F5E7C0466008FF1F24
:1045400010B5084CE368002B08D18022064B5202BC
:104550001B689B186360054B1B68236007F018FB02
:10456000A06010BDDC61FF1FC8F00040CCF000402F
:1045700070B5184A936A916A9942FBD116498A68C4
:104580009A421FD39A1A8B60144B0126186893B273
:10459000D202D20E4343424300204C681B0A1B192F
:1045A00012029B180E4C0A684B60551CA3420CD893
:1045B000002801D04B600A600A4A136008680A4B61
:1045C000186070BD581E821ADDE7084A30009B183B
:1045D0002A00EAE700F00040DC61FF1F140AFF1F19
:1045E00040420F00C8F00040CCF00040C0BDF0FFDA
:1045F00070B51F4C23793F2B01D93F2323711D4BED
:1046000022791A701878C0B207F072FA18231A4982
:104610001A4A0B801A4913800B805380A3791949D9
:1046200080200B800C21938001334B43164D191CC5
:104630000001834200D9011C2980D1806379002BBD
:1046400011D101336371237A012B01D80223237224
:104650006279237A0D4853430A21584306F0F0FF4C
:104660000B4D286070BDA02BEDD9A023EAE7C04612
:10467000D061FF1F480AFF1F0E42FF1FDC43FF1FD0
:104680000C42FF1F0A42FF1F0842FF1F7102000079
:10469000C061FF1FF8B515210020FEF79FFE114CE9
:1046A000011E114D09D10C22104BC1CBC1C42800F1
:1046B00007F056FAFFF79CFFF8BD0C2220000C49CA
:1046C000FEF760FE0C2802D0084B43CB43C40C22FB
:1046D00028000849FEF756FE0C28EBD00C220021DA
:1046E000E5E7C046D061FF1F9C61FF1F2CBD001194
:1046F000FC0C0000F50C0000F0B51D4C8022A54418
:104700000400882069465201400507F0A1F8902274
:1047100012016A441300200032C832C316C816C3FF
:104720008023144C144FA6689B033343A3603B6063
:1047300007F0BEF98823A0685B05C01807F0E8F809
:104740000025882329008022A0685B05C018401935
:104750006944520007F04CF880230135FF355B01B6
:104760009D42EED1A6603E60044B9D44F0BDC04624
:10477000FCEFFFFF4C43FF1F9808FF1F04100000D1
:10478000F0B5040087B0002825D0684606F0E8FFA1
:104790001B4C022806D106226946200007F078F952
:1047A000002816D06946002301250F262F00E25C61
:1047B000013310091030874038002F0032409740F5
:1047C0003A0002434A610439062BEFD16846FFF7ED
:1047D00093FF07B0F0BD182269460A4807F038F881
:1047E0006A46A300D358013305D01822FF2168463A
:1047F00007F0B6F9EAE70134062CF1D1E9E7C04643
:104800006509FF1F00090011F0B5002504000E0026
:1048100085B0AA4200D186E04B1C087801934B7802
:104820008978377909021943F3783F061B040B4353
:104830001F43039720706570252800D196E033D878
:10484000112813D806F0E4FF69002B012B012B017E
:104850002B01AA00B800B1002B012B012B012B0169
:104860002B012B012B012B0105012501232800D150
:10487000DEE0DB2800D034E1042A00D8ACE01025CB
:10488000052A05D0551F2A003800711D07F008F8C9
:1048900005223100200007F003F82A003900601DCE
:1048A00006F0FEFF05353EE0562859D010D83328D3
:1048B00000D19DE0552839D02628DAD19F4B290018
:1048C000132218001D0007F04BF9FEF799FB5CE07E
:1048D000712800D177E0722800D180E0602800D1F3
:1048E0008BE0DC28C5D1022A00D875E07378BFB20E
:1048F0006370B378A370032A05D0033A390092B2EB
:10490000F01CFEF779FC10223900E01CFEF73AFD9E
:10491000C51C002807DA60705CE00C222000884982
:1049200006F0BEFF0C25280005B0F0BD013A854D0C
:104930000C2A13D8002A0AD02800019906F0B0FFEB
:10494000FFF756FE0C2228007F49FEF755FC290090
:104950000C22601C06F0A4FF0D25E4E70C22EBE717
:10496000784D7A4B2A0043CB43C2E9E7013A734DB5
:104970000C2A11D8002A08D00199280006F090FFCF
:104980000C2228007249FEF737FC29001322601C14
:1049900006F086FF1425C6E70C22EDE705226D49D7
:1049A000601C06F07DFF0625BDE712226A49601CE7
:1049B00006F076FF1325B6E708226849601C06F06A
:1049C0006FFF0925AFE77178F02905D8644B188887
:1049D00001F08EFD0225A6E7FF236370FAE7614B25
:1049E000012A03D072789A706270F3E79B78F4E73B
:1049F0002000FFF7E1FA050095E7013A594B5A4DBF
:104A0000072A10D8002A10D00121280059700199D6
:104A100006F046FF01F04AF829000722601C06F064
:104A20003FFF08257FE70722EEE700225A70F3E7F1
:104A3000042A04D94D4D2F6007F0AAF8A860FFF7AB
:104A400097FD0422039003A9601C06F029FF0525A9
:104A500069E7474D062A15D906222800019907F073
:104A600017F800280ED006220199280006F018FF3A
:104A7000062240492800FEF7BFFB0123394A9178FE
:104A80000B43937029000622601C06F009FF0725DE
:104A900049E7012AA0D07078FFF772FE9AE7012853
:104AA00000D0E6E6931E344F132B04D87378002B06
:104AB00009D100F015F9314B39001D78601C6A1ED0
:104AC00006F0EEFE2FE7551E2A000199380006F089
:104AD000E7FE2B49AAB23800FEF78EFB00F038F94A
:104AE000E9E7DA281DD1042A00D875E7082A15D984
:104AF000B37972791B021343F27912041A43337AA1
:104B00001B0613433B603B680522310020000393E2
:104B100006F0C6FE0422601D03A950E7FE23637061
:104B2000F1E7DE2800D057E7511E012A01D1002508
:104B3000F9E6019800F0A0FFF9E7C0469C61FF1F6D
:104B400038BD0011D061FF1FFC0C00002CBD00110E
:104B5000F50C0000A861FF1F8861FF1F5043FF1F75
:104B60001042FF1FCC61FF1FAD42FF1FDC61FF1F22
:104B70006509FF1FADAC0000CD63FF1FCB63FF1FB6
:104B8000AEDE000070477047020010B5094B0A32D4
:104B9000094C92B2DA815A8298811882207802F008
:104BA0000DFB0422054B012120781A7007F000F854
:104BB00010BDC046DA42FF1F1664FF1F1564FF1FB9
:104BC000013870B5042809D806F0C2FE0309280888
:104BD0001200234B0221187806F0EAFF70BD204B2B
:104BE0000821187806F01CFE00221E4B1A72F5E709
:104BF000802200241B4B1A4D52001A8108211A688A
:104C00002878DC7206F01CFE2100287807F000F8F6
:104C1000012000F051FE00F049FFDFE7104B0821B2
:104C2000187806F0FDFD1048FFF764F80F4B104AA6
:104C30009B79002093800F4A13808022094B5200F9
:104C4000D8721A8100F038FE00F030FF0A4B9B78D2
:104C5000002BC3D0094A136006F072FEBEE7C046BF
:104C6000EC61FF1FC061FF1F1942FF1FD061FF1FD2
:104C7000DC43FF1F0A42FF1FCC61FF1F34F00040DE
:104C800010B501290BD1012809D1054B1B78002B48
:104C900005D02622034B04485A72FFF775FF10BD5A
:104CA000EE63FF1FC061FF1FC40900000300F0B5E1
:104CB0000A4D8E18B14202D152008018F0BD0C7816
:104CC0002F6824093C5D0F271C700C7801313C4093
:104CD0002F683C5D5C700233ECE7C0460442FF1F66
:104CE0000D22124B10B51A700C23114C1149237070
:104CF000093A033B1048637006F0D2FD2D230122D0
:104D00000E490F48A371FFF7D1FF01220D49FFF7AC
:104D1000CDFF01220C49FFF7C9FF030000200B491A
:104D200002001870FEF768FA10BDC046EA63FF1F64
:104D3000CB63FF1FEBBC0011CD63FF1F6709FF1F93
:104D4000D263FF1F6609FF1F6509FF1FAEDE00006B
:104D500070B5124C142220001149FEF713FB431EBC
:104D6000104D132B17D8AB78002B14D0431C2B708D
:104D700009236B7000230019037028782900013083
:104D8000C0B206F0ADFC297822000139C9B200207A
:104D900005F0B0FD70BDFFF7A3FFEEE7CD63FF1F89
:104DA000AEDE0000CB63FF1F10B5114B1A781870F0
:104DB000002A0ED000280BD10E4B1A78062A07D8ED
:104DC0005423D340DB0703D50B4B187802F0F6F9D8
:104DD00010BD0028FCD0074B1B78012B02D0033BF1
:104DE000022BF5D8044B0121187806F0E1FEEFE71D
:104DF000EE63FF1F1564FF1F1664FF1F70B54A4E58
:104E00004A4A4B493070012005F000FC00F0B2FE28
:104E1000FEF7F6F806F0B4FD032246494648FFF7D0
:104E200045FF2D24030004221C7044490130FFF784
:104E30003DFF30230470424D424C437083702E3B43
:104E4000062220004049EB87FEF79CFA062813D083
:104E5000200006F085FC022809D00321200006F07E
:104E600037FC8D23E3706E3B237119336371062287
:104E700020003549FEF7C0F9344B1B68FC335C64F5
:104E8000FFF766FF0020FFF78FFF314C314A012109
:104E9000314B1278207802F053F9304A304B1278B7
:104EA0000021207802F04CF901222E4B1A702E4B73
:104EB000DB78552B31D12D4B3B325A722C4B2D4A7E
:104EC000AB81EA812B826A822021307806F0D8FB00
:104ED0000120404205F05AFD0120404205F0F6FD58
:104EE000FFF71AF9FEF7CEFE00F0A4FC01204042C5
:104EF000FEF7A4FF012006F0BBFDF02001F0DCFA74
:104F00000121307806F054FE307802F0B3FA1A48E6
:104F100006F0A6FCFEF7CCFD70BD6422174B5B7952
:104F200053431A000A32CBE7EC61FF1F854B001197
:104F3000814C00115043FF1F8861FF1FA861FF1FB4
:104F4000DA42FF1F6509FF1FADAC00004064FF1F80
:104F50001664FF1F3842FF1F1942FF1FEA63FF1F3D
:104F6000CB63FF1FBC63FF1FCC61FF1FC061FF1F2E
:104F7000C4090000CE090000EE61FF1FD061FF1FD1
:104F8000F8B50A0020230D001A40194257D0574B9C
:104F90001B78002B50D0FFF7EBFA554B554C564E73
:104FA00099686268737A8A1ADB039A4202D3616055
:104FB000FEF77EFD327A217A531EDBB2994205D18B
:104FC000FFF762F9002000F0A7FD0FE09142F9D34E
:104FD00000232372FFF782F9012000F09DFD474F67
:104FE0003800FEF787FE390006F022FD637A002BB9
:104FF0001FD0013BDBB26372002B1AD1404BDB7830
:10500000552B01D106F09CFCE37A002B0CD0002339
:105010003C4A3A4FE3721388380001331380FEF79D
:1050200069FE390006F004FD642370795843FFF7E8
:10503000ABFD237A0133237220206840F8BD0BB208
:10504000002B0ADA304B187806F05AFB002801D002
:1050500006F096FD80200002EFE70224214206D0F0
:10506000244B01201A72FFF79FFE2000E5E70B0793
:105070001ED5FFF77DFA1E4B1E491F4C98684A68E3
:10508000637A821ADB039A4202D34860FEF710FD6E
:10509000FFF724F9FFF7F8F8012000F03DFD00F0DC
:1050A000E3FB2368DB0701D5FEF7C0FF0820C4E758
:1050B0001024214206D00D4B1B78002BD5D1FEF7D2
:1050C000F5FDD2E70124214207D0104800F06CF82A
:1050D00006F0DEFB00F006FDC7E7042408002040D0
:1050E0002142ABD0FEF7C6FEBFE7C046EE63FF1F0E
:1050F000DC61FF1FC061FF1FD061FF1F1942FF1F4E
:10510000CC61FF1FB461FF1FEC61FF1FFC41FF1F5B
:10511000F0B51B4B1B4F1B883A8804001A4E1B4DE1
:1051200085B09A420DD832889A420AD3184B1A8811
:105130002B889A4205D1174A174B12881B889A422E
:105140001BD0052001F00EFA3B8802AA1380338899
:10515000019053802B88114D93800F4B02A91B881F
:10516000D3800F4B2A78188802F02AFF0D4B0821B4
:105170002878019A1C7006F0D3FA05B0F0BDC0463D
:10518000BA63FF1F0E42FF1F0C42FF1F0A42FF1FA0
:10519000B863FF1FB663FF1F0842FF1F1664FF1F9F
:1051A0001042FF1FB463FF1F13B50C4B1C78002C7B
:1051B00011D1002801D00A4B18600A4A0A4B117815
:1051C0000A4A10780A4A01920A4A0092002205F01F
:1051D00089FA200016BD1124FBE7C0461564FF1FA5
:1051E000B063FF1F1464FF1F0464FF1F1664FF1FDA
:1051F000F063FF1FF463FF1F10B5064B12201B78EE
:10520000052B06D1044B13221988044B187801F0A2
:1052100085FB10BD1564FF1F1042FF1F1664FF1FA2
:1052200010B500240122114B52421870104B1C7013
:10523000104B1A8002F01EF904220F4B21001A7045
:105240000E480C3206F074FC102221000C4806F0C7
:105250006FFC07220B4B1C600B4B1C700B4B1C7024
:105260000B4B1A700B4B1C7010BDC0461664FF1F11
:105270001564FF1F1042FF1F1464FF1F0464FF1F0B
:10528000F463FF1FF063FF1FCA63FF1FC963FF1FA3
:105290001242FF1FC863FF1FF8B5174C06002578A0
:1052A00006A814240078052D23D1B41F134FA5B2EE
:1052B0001824BD421DD88D1FADB2BD4219D8FA25A4
:1052C0006D00AA4215D21D000D4F0A3DADB2BD4280
:1052D0000FD80C4C26800C4C21800C4900240A80ED
:1052E0000B4A1380FFF714FF0A4B0421187806F0CD
:1052F00097FA2000F8BDC0461564FF1F790C000026
:10530000750C00000E42FF1F0C42FF1F0A42FF1FD8
:105310000842FF1F1664FF1FF0B50BB20D0089B0E5
:10532000002B00DB70E1A44E307806F0E9F9041E92
:1053300050D00378A22B00D122E1D02B1AD0912B90
:1053400045D143780E2B42D19C4B82889A423ED164
:105350009B4A83681278052A39D1032018567F2882
:1053600035D0984B1B68002B31D05B68002B2ED0BA
:1053700098472CE08078072829D806F0E9FA042815
:10538000183F3F74A8D86378002B0CD101218C4BB7
:1053900019708D4B1A78002A5BD08C4B307801F055
:1053A000CFFE002855D00722854B1A7051E0617856
:1053B0000029F8D1E378002B11D0854A854B12786B
:1053C000307801F0BDFE60706378002BEBD12000D7
:1053D00006F0D6FB80200002684009B0F0BD784B93
:1053E0001B78022BF3D00121307806F059FB0028FE
:1053F000EAD10121307806F0DBFBE5E76378002B8A
:10540000D1D16F4F032807D13B78052B02D101334F
:105410003B701EE00223FBE76F4B1A886F4B029331
:10542000002A0BD01B78002B03D00121307806F026
:1054300077F93B78062B04D1013BE9E7029B1A7010
:10544000F7E7042B41D10121029B3078197006F057
:10545000AFFB5C4B1B68002BB9D01B68002BB6D090
:10546000574A107884E76378554F002B27D10622DE
:10547000211D5B4806F014FA62895A4B5A491A807A
:10548000A2895A4B1A80E3890B800521397058494B
:105490000A80584A1380228A574B1A80574B1B7830
:1054A000012B09D11F2001F05DF8FA22920042433E
:1054B0000421307806F034F90022484B75E7312B8F
:1054C00000D070E70022454B1A700323A0E70622A4
:1054D0000021434806F02CFB0023454A0421138099
:1054E000444A30781380444A138006F099F9082121
:1054F000307806F095F9A379083B5A425341304A77
:1055000003331370304B1B78002B06D0334B3078AD
:105510001A78002A06D001F051FE0122314B524286
:105520001A8096E70121197006F042FBF5E7082181
:10553000307806F075F96378002B00D047E72C4BE4
:105540002D4F0293E388029A04211380294B30786F
:1055500003932389039A138063893B8006F0A0FAA2
:10556000002800D033E7264B1B68002B00D12EE724
:10557000039902983A88098800881B68984726E7AB
:105580004379132B00D022E70389012B0AD11D4B4D
:105590001B78022B06D10821307806F041F9FFF77D
:1055A0002BFE14E7052000F0DDFF08210200307813
:1055B00006F0B6F80BE7C0461664FF1F051400009E
:1055C0001564FF1FB063FF1F3842FF1F1942FF1F02
:1055D000EA63FF1FCB63FF1FEC63FF1FEE63FF1F38
:1055E000BD63FF1F1042FF1FC463FF1FC663FF1F81
:1055F000BA63FF1FB863FF1FB663FF1FBC63FF1FC3
:10560000AC63FF1FB463FF1F8020C001014200D0C4
:10561000E2E6CB0731D5324B1B78002B1DD0314E43
:1056200005AC3378052B1AD1023B23702E4B210099
:105630001B7823722D4B1B7863722D4B187801F069
:1056400023FD002809D007202A4B30701B68002B4F
:1056500003D01B68002B00D098470120BCE60E2029
:10566000254B06221B7825492370254B1B78637038
:1056700002ABC01806F014F9D8E70223080018405E
:10568000194209D0174B1B78052B03D11D4B1888E5
:1056900006F0BEF902209FE60424214203D0FFF762
:1056A00037FD200098E6082308001840194200D171
:1056B00093E6154B1C78012C03D0022C0DD008204A
:1056C0008AE6124B124A134913481B88128809882C
:1056D00000880094FFF7E0FDF1E7FFF78DFDEEE7AE
:1056E000EE63FF1F1564FF1F1242FF1FC863FF1FF9
:1056F0001664FF1FB063FF1FCA63FF1F1342FF1F23
:10570000C963FF1F1042FF1FB463FF1F0842FF1F42
:105710000A42FF1F0C42FF1F0E42FF1F10B502A8D6
:1057200004880B20002C10D14968087849780902B8
:1057300001430C48814209D1022119800A4B598842
:105740001170DB7800205BB2537010BD074C0A204B
:10575000A142FAD102211980034B998811705B791B
:10576000F0E7C0466E2A0000B461FF1F6F2A0000F8
:10577000F7B5150008AA16884A680F4F14785278B2
:10578000120222430A24BA4214D10122DBB201924E
:1057900000962A0005F0ACFE041E0BD1074B1B68D7
:1057A000002B07D068782A7800021043424250410B
:1057B000013098472000FEBD022900002864FF1F29
:1057C00030B5012503790400BFB02B4225D0144920
:1057D000408805F0F9F928420CD0124B01A95B8DE5
:1057E00000220B8002234B800F4B5B888B806088EC
:1057F00002F0DCFA0D49608805F0E6F9C0070CD527
:105800000B4B01A91B8800220B8002234B80064B07
:105810009B888B80608802F0C9FA3FB030BDC046DB
:105820002064FF1F3C42FF1FB461FF1F1864FF1F6D
:105830009642FF1F10B5074C0749200005F07AF982
:105840002000064905F076F90721054A054805F0CC
:1058500033F910BDFFFF00002064FF1F1864FF1F15
:1058600058BD00113C42FF1F10B5024803F020F95B
:1058700010BDC046C15700110221430888400B40AB
:105880000A31084003430E20024AD17881430B437A
:10589000D3707047AD42FF1F064A1379410705D503
:1058A00080210B4380011371907170477F210B4061
:1058B000F8E7C046AD42FF1F054A5378002803D0E1
:1058C00080210B43537070477F210B40FAE7C0469D
:1058D000AD42FF1F0F21114BDA780A40DA705028D1
:1058E00010D901310A43DA702022D9780A43DA70DC
:1058F0004022D9780A43DA708022D97852420A438A
:10590000DA7005E03C28EFD82828F1D81428F3D81D
:105910000122D9780A43DA707047C046AD42FF1FB2
:10592000F8B57F23324D04006E789E43314B984288
:1059300005DD76232B70363B33436B70F8BD2E4B61
:10594000984203DA58232B701433F5E783B21A0018
:1059500000215F32294892B2294F297082422DD905
:10596000A9708C4203DA5B421CB220232B700534F1
:1059700020B20A2105F064FE04B2FA239B009C4287
:1059800033DB80232A785B4213432B706421200091
:1059900005F056FE0A2100B205F0E2FF09B22A78AE
:1059A0007B5C13432B700A21200005F049FE0A217D
:1059B00000B205F0D5FF09B27B5C0AE08022AA7034
:1059C000002CDADA5B421CB220232B705F23092CF7
:1059D000E9DC1E430A2120006E7005F0C1FF09B208
:1059E000AA787B5C1343AB70A8E7632CCEDCEDE7B1
:1059F000AD42FF1F1B4E00001DFCFFFF2A080000E8
:105A000082BD00117F23F7B5194FCD013E79040007
:105A10009E433E71EDB2632806DD093B33433B7183
:105A200040231D437D71F7BD0300093304DA582379
:105A300033433B716C23F4E70E4B019300280BDAE0
:105A40000423444224B23B710A21200005F088FF60
:105A5000019B09B25B5CE4E70928F5DD0A2105F04A
:105A6000EFFD019B00B21B5C1E433E71ECE7C0469C
:105A7000AD42FF1F82BD0011F8B50A4F05003B780B
:105A80000E00002B0CD0084C2000FEF73BFC33002E
:105A90002A0020003978FEF729FD2000FEF770FC6F
:105AA000F8BDC0463464FF1FB442FF1F70B50A4EF4
:105AB0000A4D07223100280005F0EAFF002809D02E
:105AC000074C31000722280005F0EAFE08212000DB
:105AD000FFF7D2FF70BDC046AD42FF1F2D64FF1F10
:105AE0002C64FF1F7F2210B50A4B59789143033A6B
:105AF0001A70103A0A435A7078220E219A70DA7896
:105B00008A43DA7006221A7137325A71FFF7CEFFD4
:105B100010BDC046AD42FF1F10B5002824D0134C65
:105B20000A210223E05E05F08BFD00B2FFF7F8FECC
:105B30000423E05E642105F083FD012100B2FFF73C
:105B400061FF207AFFF7C6FE0320FFF795FE0020D5
:105B5000FFF7A2FE064B1878053843425841C0B201
:105B6000FFF7AAFEFFF7A2FF10BDC046B461FF1FFA
:105B70001564FF1F70B50024094D2800AC71FEF7B5
:105B8000C1FB10233E212800064AFEF7AFFCA042CD
:105B900000D13E34044B28001C70FEF7F1FB70BDB1
:105BA000B442FF1F72BD00113464FF1F0200F0B544
:105BB00001270A480A4E51188B1A002B00DCF0BD51
:105BC000082415784308684038404000805B013C59
:105BD00058406D08002CF5D10132EDE7FFFF0000C1
:105BE00092BD0011F0B500250F269D4200DBF0BDEF
:105BF0004C5D070944403440A400A058013578406A
:105C0000F3E70000F0B589B06A460D000B000F27DE
:105C1000110010351C780133260024093E4016700F
:105C200054700232AB42F5D12023024AFFF7DAFF6B
:105C300009B0F0BD98BD0011F0B54E780B7889B071
:105C400036020C00170001901E43012A61D9954BC2
:105C50009E4200D877E001339E421CD1062A17D11C
:105C6000CA788B7812021A430B791B0413434A79C2
:105C700012061A438C4B5A6100221A705A808B4AC2
:105C80005A608B4A9A608B4ADA60002009B0F0BDF6
:105C900088225205EEE7884B9E423CD182498B78A0
:105CA000002B00D0F6E00C2A31D10F22A3789343C9
:105CB000E278120213432279120413436279120626
:105CC00013434B60E279A07912020243207A000468
:105CD0001043627A12060243CA60E27AA07A120284
:105CE000024376484A81834208D804236E4914222D
:105CF00001980B7005F0D4FD1420C7E71201D218EB
:105D000089235B059A42F0D801238B70BDE7022AF4
:105D1000FAD00523EAE76A4A01239642E6D1FFF763
:105D20006BFA052F0CD9E378A2781B021343227972
:105D300012041A4363791B061343624A03931360E8
:105D400005F0FEFDA1E7584D2B78002B9DD1AB78D7
:105D5000002B00D1A0E02B8901339BB20093B3420A
:105D600000D091E0132AD4D9CF7C8B7C3F02122142
:105D700020001F43FFF71AFF874200D08EE0002E5D
:105D80003DD1E378A2781B0213432279E96812041B
:105D90001A4363791B06134303930A228B4212D1E1
:105DA000FF23A370E370237163716B89002B09D10A
:105DB000E37B227C1B0212041343A27B13431B09C7
:105DC00001336B8100226B89002B8ED0002A67D1B2
:105DD000686837013818000B6B690003039098421C
:105DE00005D9686105F094FDEB780133EB706868C4
:105DF0001022A11C381805F0FBFC2E8145E76F89A5
:105E0000009A7B1E9BB293423AD1E278A3781202A9
:105E10001A43237905A81B04134362796C681206A0
:105E20001A43EB6800920392211D0C22049305F0A3
:105E300037FD0120260004A940421036FFF7E2FE9C
:105E4000013F012F17D1009A0B232861824200D015
:105E50004CE704221C49200005F0CAFC042203A9D7
:105E6000686805F0F5FCE968039AFF23914200D1C8
:105E70003CE7F73B3AE73100FFF7C4FE1036DFE7B7
:105E80000923B742A4D831E7009BB34200D9FCE60E
:105E900007232BE7022329E7032327E7062325E728
:105EA0000A2323E7FFFE0000BC42FF1F0000011190
:105EB000FFFF00005048593601FF0000FFFF0011AE
:105EC00002FF000034F00040C842FF1F10B5034C31
:105ED0000B000122210000F06BFA10BD8D60001153
:105EE0000B8870B506000D000224162B11D92B006B
:105EF0000322094900F05CFA041E0AD1074B2A88E4
:105F00001B88191C934200D9111C300089B200F083
:105F1000EFFA200070BDC046B96000115A64FF1F3F
:105F200010B54A780400013A0B000220012A07D874
:105F30000A78002A04D005222000024900F038FA2D
:105F400010BDC046E76000110A7810B50B000400D0
:105F50000220002A04D007222000024900F028FA7B
:105F600010BDC046936100110A7810B50B00040003
:105F70000220002A04D009222000024900F018FA69
:105F800010BDC046F961001110B5034C0B000B2287
:105F9000210000F00DFA10BD2962001110B5034C6C
:105FA0000B000D22210000F003FA10BD9B620011CE
:105FB00010B5034C0B000F22210000F0F9F910BDC1
:105FC000F56200110A7810B50B0004000220002AC7
:105FD00004D011222000024900F0EAF910BDC046A9
:105FE00005630011002310B51322190000F0E0F939
:105FF00010BD000010B5034C0B001722210000F06B
:10600000D7F910BD57630011002310B519221900EC
:1060100000F0CEF910BD000010B5034C0B001B22A0
:10602000210000F0C5F910BD91630011F7B5848916
:106030000D0006000121002C22D000238268D356D7
:106040001778002B1EDA0C2C1AD90C3CA4B21319A9
:1060500040880093230002F086FE431E98410130E1
:106060007B06DB0F6B703F23013C1F40A4B22870FE
:10607000AF70AC80002C07D0B3680133AB60002157
:106080000800FEBD0020EBE7AC60F8E70B7803707A
:106090004B8843704B881B0A83700B79C3700420B4
:1060A00070470420022B06D10020537811781B0280
:1060B000009A0B43138070470B8803700B881B0AF0
:1060C0004370022070470420009983420AD153781C
:1060D00010781B0203430B80D37890781B02034394
:1060E00000204B807047F8B50D004B78012400214B
:1060F000461C03702B788B4201D82000F8BD6B78CA
:10610000B01C4F1C012B10D1890069184B8802224A
:1061100033704B88B9001B0A7370691805F068FC6E
:1061200004360434A4B2F9B2E4E7122359436B18DD
:106130005A88043132705B8810221B0A7370691808
:1061400005F056FC12361234ECE770B5049D1400CD
:106150001E00052B01D8042070BD637812781B0245
:1061600013432B80E378A2781B02134302226B8037
:106170002A71211D681D063E05F03AFCB2B22A8143
:10618000E92AE8D82800A11D0A3005F031FC0020DA
:10619000E2E7002310B50A789A4201D8900010BDBA
:1061A0009A008A185488013304705488DBB2240A98
:1061B0004470948884709288120AC2700430EAE7AE
:1061C00010B51100029C062B04D004201022142BC1
:1061D00001D010BD022222714B7808781B020343C4
:1061E0002380CB7888781B02034363800431601DD1
:1061F00005F0FEFB0020ECE710B50C788B7804313D
:106200005C43E4B203702200013005F0F1FB601C36
:1062100010BD0420022B06D10020537811781B02F8
:10622000009A0B431380704710B50C000A880231A6
:1062300005F0DEFB208810BD70B504000D00049849
:106240001100012B01D8042070BD1678527812027B
:10625000324302800200F13255701470E125002CA7
:1062600000D10C35023B9AB24280AA42EBD80231EF
:10627000043005F0BDFB0020E6E7042000998342CE
:106280000AD1537810781B0203430B80D37890789F
:106290001B02034300204B80704710B50C000A8896
:1062A000023105F0A5FB208810BD000070B501216A
:1062B0001E000420049C0E400B4218D1CB40DDB2DE
:1062C0008D4214D90A49DBB2098899420FD32300C1
:1062D000EE331D703300580011184978165C09021E
:1062E000314301332152D9B28D42F4D8002070BD20
:1062F000D442FF1F10B50C000A88023105F078FB6C
:10630000208810BD10B50C788B7804315C43E4B262
:1063100003702200013005F06BFB601C10BD10B54E
:1063200011000298032B01D8042010BD1478527874
:10633000043B120222430280CA788C781202224364
:1063400042809AB28280EB2AEED80431063005F002
:106350004FFB0020E9E710B50C000B8803700B8899
:106360001B0A43704B8883704B881B0AC3708A8852
:106370000430063105F03CFBA088043080B210BD2B
:106380000420012B03D100201378009A137070476A
:1063900010B50C000B8803700B881B0A43704A88E9
:1063A0000230043105F024FB6088023080B210BD59
:1063B000F0B589B003931E4B029242000700D05AF9
:1063C000019102F020F81325061E2DD0029B012416
:1063D0000370019B002B04D0001903999847001902
:1063E00084B26B461B7A5BB2002B0FDA10213800A7
:1063F00002F01CFB1925002813D130003219E1B23C
:1064000002F066FC051E0CD10C34A4B2042304AACD
:10641000380005A993800696948101F0AFFD051E12
:1064200002D0300005F024FA280009B0F0BDC046C3
:106430005864FF1F70B505000C0000280CD0002028
:10644000814209D010222000044905F0D1FA012030
:106450002B7823736B78637370BDC046D8BD001171
:10646000F0B506000D0017001C0085B002291BD0F6
:106470000020102907D1022B07D0102B03D115E0E3
:106480000020102C08D005B0F0BD69463800FFF799
:10649000D1FF2A0069460BE069463000FFF7CAFFCA
:1064A00022006946380004E0022BE9D12A003900B5
:1064B000300005F05DFAE6E7031CF02800D9F02370
:1064C000032008499AB2013A0B80D31703400649CA
:1064D0009B189B100B80D30F04499B185B100B80FB
:1064E0007047C046D842FF1FD642FF1FD442FF1F4D
:1064F000034B1B888B4202D3024B4000C1527047B2
:10650000D842FF1F5864FF1F014B4000185A7047C4
:106510005864FF1F1722014B1A8070475864FF1FF1
:1065200070B505000E2005F0ABF9041E13D0D02382
:10653000037000230622837007494570033005F07D
:1065400057FA064B2100DA8A62811B7E2373044BC3
:10655000187805F055F870BD7464FF1F6464FF1F60
:106560002843FF1F262803D8024B4000C05A70471B
:106570000148FCE7DA42FF1FFFFF000070B506008C
:106580000C00094D1C220021280005F0D1FA074B10
:106590001E70074B1C7005F023FB0123002801D05F
:1065A000002312202B7070BD6464FF1F2843FF1F5F
:1065B0008564FF1F70B505000D4C0800E260A16006
:1065C00010220021656005F02BFA012803D110216B
:1065D000A06802F058FD10220021280005F020FAE2
:1065E000012803D11021606802F04DFD70BDC04646
:1065F0006464FF1F70B5041E05D1002903D0062274
:106600000D4805F0F5F90D4B1D78012D11D1002C29
:1066100005D102221A7005F04BF9280070BD002246
:106620001A70074B1B78FF2BF7D02000FFF778FF7D
:10663000F3E70025F1E7C0467464FF1F6464FF1FA1
:106640002843FF1F030010B5002801D1002010BD12
:1066500000780B4A002803D15988D1821B79137620
:106660001378022BF2D10023984200D10333137028
:10667000044B1B78FF2B01D0FFF752FF0120E6E708
:106680006464FF1F2843FF1F002911D000280CD08D
:106690004B79012803D140225242134303E03F22A9
:1066A0001340032802D001204B7170474022F4E7C9
:1066B0000800FAE770B5094D0100287800280BD0D2
:1066C000074C0622200005F093F921002878FFF7F7
:1066D000DBFF200005F0D4F970BDC0468464FF1FC5
:1066E0005E64FF1F00290AD0012808D13F224B79A0
:1066F0009343C02B03D0403B5A425341981C7047F0
:1067000070B5174D06002B78FF2B15D00A2005F029
:10671000B7F8041E10D0D0230370C83B8370114B10
:1067200011491B784670C3700622043005F060F9E9
:106730002100287804F064FF0C4B1B78012B0DD14D
:106740000B4B1B68002B03D09B68002B00D0984795
:10675000084B04211878084A05F072F870BDC0464D
:106760002843FF1F8464FF1F5E64FF1F8064FF1FB8
:10677000AC64FF1FB064FF1F60EA0000014B986823
:106780007047C0466464FF1F014BDB6818687047A0
:106790006464FF1F074B10B5DA6813680133136098
:1067A000054B1878FF2803D08021C90105F000FAB5
:1067B00010BDC0466464FF1F2843FF1FF7B50E00DD
:1067C00002F0C8F8051E1CD00E4B06621F78002F81
:1067D00000D10778AB791020019305F051F8041E21
:1067E0000FD0D0230380C73B8370019BE91DC3708A
:1067F0000622043005F0FCF821003800E66004F0C1
:10680000FFFEF7BD2643FF1F014B18787047C046B7
:106810008464FF1F054B002805D1054B1A78054BF2
:10682000002A00D1014B18007047C0467464FF1F56
:106830008464FF1F5E64FF1F014B58687047C046A9
:106840006464FF1F024B1868431E9841C0B2704732
:106850008864FF1F421E03000120152A03D9FF3B55
:106860005A425341D8B27047F0B51C0000230E00C5
:1068700085B0039002920B70029A934201D30020DC
:1068800019E0E55C5A1CD2B2002DF8D002985119DB
:106890008142F4DC0233DFB2A35C18000193FFF7FE
:1068A000D9FF002807D0013D019A0399EBB233705C
:1068B0008A4202D1E01905B0F0BDDB19DBB2DBE79B
:1068C00010B50C0002F09EF803001220002B03D03C
:1068D0002100588805F0BCF810BD000070B50E4DC1
:1068E00084006359002B15D0186A002801D004F0E9
:1068F000B7FE2B59586A002801D004F0B1FE2B597D
:10690000986A002801D004F0ABFE285904F0A8FED4
:1069100000232B5170BDC0469464FF1F1C4B70B503
:1069200004000E00150099420AD11A4B1B68002B77
:1069300001D1122070BD1B68002BFAD09847F9E7EF
:10694000154B994215D1134B1B68002B0AD01B68BD
:10695000002B07D09847002804D1104B1C70104B17
:106960001D70E7E729002000FFF7AAFF0028E1D10A
:10697000F3E7080001F0EEFF0028DAD003780320E7
:10698000A342D7D12900300005F062F8D2E7C04613
:10699000FEFF00009064FF1FFFFF00008D64FF1FDB
:1069A0008C64FF1FF7B50400808801F0D3FF002539
:1069B000A84203D00578A08802F008F81C4E33786E
:1069C000002B1FD0AB421DD11A4B28001978FFF7BE
:1069D00077FF002818D000233370A3790820A77808
:1069E000A688019304F04CFF011E0DD0D023037044
:1069F000CA3B8370019B477086808371280004F036
:106A0000FFFD01E0002DE8D1A0880B4B8200D35898
:106A1000002B01D0FFF762FF1721A088FFF768FD68
:106A2000A08801F027FDA08801F0FEFDF7BDC0465B
:106A30008D64FF1F8C64FF1F9464FF1FF0B587B047
:106A40001D000CAB1B88070001930DAB1B881420A5
:106A500002930EAB1B88160003930FAB1B880091AB
:106A6000049310AB1B88059304F00AFF041E1AD090
:106A7000D0230370CB3B47708370C6700622290079
:106A80000430002D11D004F0B3FF019B210063817D
:106A9000029B0098A381039BE381049B2382059BB7
:106AA000A37404F0ADFD07B0F0BD05F041F8ECE7CC
:106AB000F7B5009308AB1B8807000C200D001600EB
:106AC000019304F0DDFE041E13D0280001F042FF04
:106AD00000280FD00078D0232370C93BA370009BFF
:106AE00021002381019B6770A580E680638104F00B
:106AF00087FDF7BD014B1878EDE7C0462843FF1F1F
:106B000013B5040064890389C2888188C078009421
:106B1000FFF7CEFF13BD000010B5044C206800281D
:106B200003D004F09DFD0023236010BD9864FF1F77
:106B3000A122F0B5818892004A43384B384F1B6838
:106B400004009B189D2292009B18827989B01A60DC
:106B50003B68002B5FD01D78324B1B68002B04D0A4
:106B60005B68002B01D000209847260008363100D2
:106B7000E079FFF7B7FD237DE0710200E078049330
:106B8000638A29000393238A0293E3890193A388EC
:106B900000933300FFF752FFE378002B0BD1E2891B
:106BA000A379A18802920196E2792800009201223D
:106BB00001F0DAFEE0703B68002B20D0FFF7ACFF5D
:106BC000194D287800281AD0184B1978FFF778FE4D
:106BD000002814D02B78E67808200793A78804F0C3
:106BE0004FFE011E09D0D0230370CA3B467083704C
:106BF00087808671079804F003FD00232B7017210E
:106C0000A088FFF775FCA08801F034FCA08801F093
:106C10000BFD09B0F0BD064B9DE7C0463409FF1FD0
:106C20009864FF1FAC64FF1F8D64FF1F8C64FF1FFF
:106C30002843FF1FF8B5070008000E0001F08AFE88
:106C4000041E18D02620FFF78DFC051E00D12578E4
:106C5000062004F015FE041E0DD00021062204F0CB
:106C600067FFD0232370C23B21006770A370A6800A
:106C7000E8B204F0C5FCF8BDF0B585B001930AABED
:106C80001B78070002930BAB1B7808000D000092E5
:106C9000039301F05FFE061E22D0102004F0F0FDE9
:106CA000041E1DD01022002104F042FF2620FFF711
:106CB00059FC002800D13078D0232370C13BA37049
:106CC000009B21002372019B67706372029BA58069
:106CD000A372039BC0B2E3720C9BE36004F090FCD0
:106CE00005B0F0BDF7B50D00019001F033FE071EB1
:106CF00020D00E2004F0C4FD041E1BD02620FFF778
:106D000031FC061E00D13E78D0232380C53B0622ED
:106D1000A370F91DE01C04F06BFE019B2A00638147
:106D20000123DD401A401D40210022736573F0B23B
:106D300004F066FCF7BD0000F0B585B002901000CD
:106D40000D0017000A9E039301F004FE041E31D0CB
:106D5000029B002B2ED1039B02795B0724D51223C3
:106D600013430422002E08D10B99002905D10C9958
:106D7000002902D10D9900291AD01A430D9B2271C6
:106D8000002B00D0C9E0002E00D1CFE0002D00D0B4
:106D9000CCE0606A002801D004F062FC1C213000C5
:106DA00004F046FD606205E002239A430E33D7E704
:106DB00093432371654BBA00D458002C00D1AAE04C
:106DC000002E10D0236A002B03D11C2004F080FD7C
:106DD00020625E4BBA00D358186A002803D01C22E8
:106DE000310004F005FE0C9B002B12D0574CBB0069
:106DF0001D596B6A002B03D1162004F069FD6862EF
:106E0000BB00E358586A002803D016220C9904F0FE
:106E1000EFFD0D9B002B11D04C4DBC006659B36AA1
:106E2000002B03D1142004F053FDB0622B59986A53
:106E3000002803D014220D9904F0DAFD380001F087
:106E400089FD051E67D0414BBA00D358002B62D094
:106E50001A6A3420002A00D11C389A6A002A01D00C
:106E6000143080B20B9A002A01D01C3080B25B6AC9
:106E7000002B01D0163080B204F002FD041E4AD06F
:106E80001822002104F054FE2620FFF76BFB01902E
:106E9000002801D12B780193D0232370029B20007E
:106EA00063700A23294EA370039BBD00A371AB59E5
:106EB000A780196A1830002905D01C22A06004F0B0
:106EC00097FD200034307359996A002907D00300D8
:106ED00014221433E060029304F08AFD02980B9BA5
:106EE000002B08D003001C221C330B992061029355
:106EF00004F07EFD02987359596A002903D01622C6
:106F0000606104F075FD6B462100187904F078FB90
:106F10003800FFF7E3FC05B0F0BD10220D9B0D9982
:106F20001B69A018236204F063FD2CE70B9B002B68
:106F300000D13FE7012D00D03CE7606A002801D076
:106F400004F08EFB1C210B982AE7C0469464FF1FB7
:106F500010B5044C2068002803D004F081FB002306
:106F6000236010BD8864FF1F0B4B07B51A68002A09
:106F700001D100200EBD6946531C01201278073153
:106F8000FFF772FC0028F4D00278012310001840AB
:106F90001A42EED0EEE7C046A464FF1FF0B51F4FC3
:106FA00001203B6887B0002B25D09B78059300F02B
:106FB000B3FB002821D00A20FFF7D4FA04000B20ED
:106FC000FFF7D0FA164B05001E78731E9E413B68F2
:106FD000F6B2191DD878FFF757FB3B682900DA7A1B
:106FE000043303929A7901930292009033002000B7
:106FF000059A04F075FC07B0F0BDFFF7B5FF002857
:1070000005D00620FFF7AEFA04000720D8E70820D5
:10701000FFF7A8FA04000920D2E7C0468864FF1FE2
:107020008464FF1F70B50A4E040033780D00FF2BF7
:107030000DD0042004F024FC011E08D0D0230370DE
:10704000CE3B45708370C470307804F0D9FA70BDBF
:107050003843FF1F70B5040006200D0004F010FC3B
:10706000011E0AD0D0230370CD3B8370054B4470C2
:107070001B688580187804F0C3FA002C01D0FFF754
:1070800067FF70BD8864FF1FF8B5264F06003B6898
:107090000D001124002B05D10522234B1B78134230
:1070A00002D112242000F8BD204A10241268002AC0
:1070B000F8D01278002AF5D0DB0719D52B789A1E64
:1070C000012A1AD80C2004F003FC1324386000288D
:1070D000E8D000230A22437029000670023004F031
:1070E00087FCFFF75BFF041E0AD0FFF731FFD9E7EB
:1070F00000F012FB0028E1D1E4E7002BE2D0D0E75A
:107100000B4B1B78032BCDD11D20FFF72BFA094B1E
:1071100018800028C6D0084B04211878074A04F0CC
:107120008FFBBFE78864FF1F8564FF1FA464FF1FF8
:107130008464FF1F8264FF1FB064FF1F60EA0000C9
:10714000F7B50193194B14001A78052306000F00B8
:1071500012201A4221D0012920D1154B1D68002D83
:107160001BD002201F2C18D8002C02D0019B002B12
:1071700013D0104B1F221E706E1C0021300004F033
:10718000D7FC01992200300004F032FC31002000CD
:107190002C70002F06D004F0D3FAFEBD064B12204F
:1071A0001D68DCE704F09CFAF7E7C0468564FF1F22
:1071B000A464FF1F3843FF1FA064FF1FF8B50F4EE4
:1071C00012243368002B17D01B780F3C834213D155
:1071D00000250B4F0221387804F022FB094B0421D3
:1071E00038781D8004F01CFB074B28001D80336895
:1071F0005C7004F085FB04002000F8BD8864FF1F6C
:10720000B064FF1F9C64FF1F8264FF1F70B50128DC
:1072100023D11B4C2388002B03D01A4A1578002D4C
:1072200007D0194B1B68002B02D01878FFF7C6FF58
:1072300070BD3B2B02D93C3B2380F9E7134E022162
:10724000307804F0EDFAFA222388920002215A43A2
:10725000307804F065FA2580EAE70B4B1B68002BB9
:10726000E6D00B4B1B785B07E2D5084B0221187860
:1072700004F0D6FA0022024B1A80FFF769FED7E726
:107280009C64FF1F8064FF1F8864FF1FB064FF1FA2
:107290008564FF1FF8B51E4D2868002803D004F050
:1072A000DFF900232B601B4E3068002803D004F068
:1072B000D7F900233360184F05243B78180020408D
:1072C000234221D0154800F02BFA3B78234213D0FB
:1072D000202004F0FDFA2860002813D0202200218D
:1072E00004F026FC202004F0F3FA041E306005D0E0
:1072F0002022002104F01CFC002004E0286804F097
:10730000AFF92C601320F8BD00F00AFAF4E7C0468C
:10731000A464FF1FA064FF1F8564FF1F2C43FF1F91
:1073200010B50A4C23681A1E0ED0002808D101306F
:10733000587004F0E5FA002805D02368002B02D02D
:107340000021FFF787FE0122100010BD8864FF1F97
:10735000F7B5274E050033680191181E21D05C78DF
:10736000244F012C30D1FFF7FFFD002825D020004D
:10737000FFF7F8F80400412814D91F4B02211878B0
:107380001E4A04F05DFA1E4B3C3C1C80022233680E
:107390005A703B78002B14D128000199FFF75AFE50
:1073A0000120FEBDFA2292004243002AEED0124B89
:1073B0000221187804F0B4F9E8E7FFF7D3F80200E7
:1073C000F3E700233B70EBE73B78002BE8D1032089
:1073D00004F056FA011E08D0D0230370CC3B457050
:1073E00083703368187804F00BF9FFF7B1FDD7E725
:1073F0008864FF1F8064FF1FB064FF1F60EA000005
:107400009C64FF1F10B51749838802008B4220D06F
:1074100011D815498B4217D0144900205B1899B236
:10742000012907D8926811785A425341D8B2FFF720
:10743000F9FD012010BD0E4A00209B1807229BB2C7
:107440009A424041C0B2F5E783681878FFF768FFB9
:10745000F0E7836899785A78090218781143FFF7A2
:1074600077FFE7E70A20000006200000F8DFFFFFB3
:10747000AFDFFFFF014B18707047C0463943FF1F55
:1074800010B5064C207001F041FA207804F008F99C
:107490000521207800F062FD10BDC046B064FF1FDA
:1074A0000BB273B50D00002B00DBC4E0884B1878DD
:1074B00004F026F9041E0ED00378912B0FD0A22BD6
:1074C00000D1A1E0834B1878FF2852D0210004F0AE
:1074D00097F800284DD180200002684076BD43789F
:1074E0000F2B76D013D8052B70D00E2BEAD18088C5
:1074F000794B98422BD8794B98421BD8784B9842BD
:10750000E0D1A3681878591CFFF774F838E03E2BD7
:10751000D8D18378032B74D06CD8012B6ED0022B7A
:10752000D0D1704B1B68002B23D05B68002B20D080
:1075300098471EE06C4BC0180C28C3D804F048FBD9
:107540001DC2C2150BC20B0B0B3223C23C00674B92
:10755000C0180728B6D8664B1B68002B09D01B68DB
:10756000002B06D0200098470AE0A3681878FFF7A0
:10757000C7F8200004F004FBADE7A068FFF762F84D
:1075800000289FD0F5E7A3681B78002BF1D0554B5E
:107590001B68002BEDD01B68002BEAD0210055485A
:1075A0009847EDE74F4B1B68002BE2D01B68002B80
:1075B000DFD021005048F3E7504B1B68002BD8D098
:1075C0005B68002BD5D021004348E9E7FFF7EAF9D3
:1075D000CFE780884A4B984203D04A4B984200D06C
:1075E00070E7464B1B68002BC3D05B68002BC0D0F4
:1075F0002100D5E7153B012BBBD963E7FFF798FACC
:10760000B7E7FFF77DFAB4E73F4B1B78042B07D1B0
:1076100000236A4613800179408800F0C5FCA8E782
:10762000364B1B68002BA4D05B68002BA1D0010057
:10763000364898479DE7012421420AD0294B1B6810
:10764000002B04D05B68002B01D00020984701205C
:1076500043E78B070AD5264B1B68002B04D05B68D9
:10766000002B01D020009847022036E70421280093
:1076700008400D4200D131E7254E3388002B21D040
:10768000013B9BB23380002B1AD1FFF7DBF80028B7
:107690000AD0204B1C70164B1B68002B04D05B6873
:1076A000002B01D020009847FFF7C6F8694601F08B
:1076B00001FD6846FEF7FEFF1D20FEF753FF3080F8
:1076C00004200AE7024B187804F0AAF8F8E7C0464D
:1076D000B064FF1F3943FF1F0E200000012000008F
:1076E00009100000A864FF1FFEDFFFFFAFDFFFFFF0
:1076F000AC64FF1F0C2000000B2000009064FF1FF3
:107700000D200000132000008564FF1FFFFF000014
:107710008264FF1F8064FF1F10B501F09BF910BD4C
:10772000014B18607047C046AC64FF1F0B880020F7
:10773000162B01D817230420014A13807047C04636
:107740005A64FF1F00207047074A030011888142D6
:1077500007D091880020994202D101308000101892
:1077600070470020FAE7C046B864FF1FF0B58F7875
:1077700006000D00C5B01E2F15D1FFF7E5FF051E51
:1077800003D10024200045B0F0BD00223B003100B1
:10779000C078009200F0B2FB0400A81C00F0D2FBFD
:1077A000FF23EB70EEE7264B062403931B78FF2B99
:1077B000E8D0182FE6D87B08224A013BDB00029272
:1077C0009A589446002ADDD0029AD3185B68002BA1
:1077D000D8D00878002802D14B78012B02D106249A
:1077E000122FCFD107AFAB88697800976446AA689B
:1077F000A047041EC6D1AB78029A5B08013BDB00B0
:10780000D318390030005B689847041E0BD1AB7861
:10781000042BB6D0039A310010782200009700F0B4
:107820006DFB0400AEE76A78002AABD1AA7805A9FF
:107830003B88087130000A704B80FEF747FBA0E7D9
:107840003C43FF1FE8BD00111D4B37B505009842B2
:107850000BD000290AD1FFF777FF002805D119487E
:10786000FFF772FF002800D0058037BD01291AD12B
:10787000FFF76AFF041EF8D001235B420380A37860
:10788000FF2BF2D0FE2B07D00023E07814220093C8
:1078900029001E3300F032FBA01C00F053FB012333
:1078A0005B426380E1E70229DFD1013901F0BEF8D4
:1078B0000028DAD12800FFF747FF041EDFD1D4E704
:1078C000FEFF0000FFFF0000022210B5074B5242EE
:1078D0001A80074801325A809A80DA8000F07EFAD6
:1078E000044801F025F8002010BDC046B864FF1F11
:1078F0006D770011497800110388F7B50400002B5B
:1079000002D102252800FEBD4268022113782548D5
:107910005268FEF7A5FD00282ED0234F01253A8896
:10792000002AEFD0802321885B0201259B1A99420F
:10793000E8DC0C2003F0CCFF061E31D03B88228807
:107940009C4600231800019561469DB2491989B2F1
:10795000AA421BD8002801D062443A80002330009C
:10796000082208C0210004F043F8104A1368002BD5
:1079700013D100251660C5E76268022113780C4810
:107980005268FEF76DFD0028C7D1BAE760681D0197
:107990004019418101330198D6E71A001B68E6E7D8
:1079A0001325AFE756BE00113A43FF1FB464FF1F13
:1079B00054BE0011014B18707047C0463C43FF1F76
:1079C00014230A0010B51A40194204D001221021D4
:1079D00001F048F810BD4B06F9D40120884340005F
:1079E000F8E710B514008B0604D50122102101F030
:1079F00039F810BD08230A001A40194202D14BB2CF
:107A0000002B0FDA102101F02DF8002808D02300F8
:107A1000F2331B78002BECD0F1342378012BE8D122
:107A20000020E6E703208907FAD4E2E7F0B51F005B
:107A3000184B85B01C68019002910392002C27D14D
:107A4000200005B0F0BDA5683301ED186B89019ADF
:107A5000934211D3029A93420ED8002F04D10A9B6D
:107A6000002B10D12C00EBE73B002978039A6868C3
:107A7000FEF7F6FC0028F2D10136B6B2A388B34275
:107A8000E1D82468DAE7A3680A9A5B891380E9E7FA
:107A90000026F3E7B464FF1F37B50C000A88498855
:107AA0000123914217D3002A15D0651D23792A009E
:107AB00002210A48FEF7D4FC102300280BD02379BA
:107AC0006188208800242A000094FFF7AFFF0A2372
:107AD000A04200D0230018003EBDC04656BE001193
:107AE00013B50A0008884988012388420BD800286A
:107AF00009D00024137905320094FFF797FF0A2379
:107B0000A04200D02300180016BD13B50A00088853
:107B10004988012388420BD8002809D00024137912
:107B200005320094FFF782FF0A23A04200D0230011
:107B3000180016BDF0B58BB003904A8808880E0077
:107B40000123824255D3002853D00023012704ACDF
:107B500023700022718813000092FFF767FF051E53
:107B60003ED02078002835D12B78022B18D16770B1
:107B70006A8983000130E31880005A806968022214
:107B8000201803F035FF23780133DBB22370042B78
:107B900019D93B006889013080B2002BD9D01FE091
:107BA00002236370122358436A89231804305A80D1
:107BB00069681022201803F01BFF23780133DBB221
:107BC0002370002BE5D10C4A6B899B185A42534114
:107BD000DBB2DFE76378012BE4D12B78022BC7D02F
:107BE00022780A23002A04D021000398FEF798F98E
:107BF000002318000BB0F0BD0100FFFF0F4BF0B5E4
:107C000004001868002816D083685D89A54207D84B
:107C10008288AE18B44203DA12019A18934201D155
:107C20000068EFE71E005F891036A74204D10029E3
:107C300000D00D801800F0BD3300EFE7B464FF1FE3
:107C400070B505000C0008880021FFF7D7FF03007E
:107C50000120002B04D022002800197AFFF7C1FE72
:107C600070BDF7B50C00002501902300EE331B78A2
:107C7000AB4201D800200AE06B00E65A0021300038
:107C8000E718FFF7BBFF002802D126800130FEBDB8
:107C9000017A0198FFF794FE002802D03B882380E8
:107CA000F5E70135EDB2E0E710B5040008880021E2
:107CB000FFF7A4FF03000120002B03D02000197A56
:107CC000FFF77EFE10BD0000054B1B68002B01D1A5
:107CD000180004E09A6852898242F6D19888704769
:107CE000B464FF1FF0B50E27002687B0039302ABE4
:107CF000FF183E8005001F4B40891400984207D0B2
:107D00002B78013000976A6880B2FFF78FFE06007B
:107D100002212B7818486A68FEF7A2FB00280FD0D2
:107D20006C892000FFF7D0FF002802D0013C041925
:107D3000A4B2039B002B00D01C80300007B0F0BD24
:107D400002212B780D486A68FEF78AFB0028E7D1EC
:107D500002212B780A486A68FEF782FB002807D0C8
:107D6000002EDED03B88A342DBD17489013CDFE7E3
:107D70006C89DEE7FFFF000056BE001154BE001103
:107D800052BE001110B50C00FFF7DEFC030002200C
:107D9000002B0AD0002C00D023609B781720FE2BEC
:107DA00003D00138FF2B00D1002010BD73B50D00AA
:107DB00001A904001600FFF7E5FF172805D0002EE3
:107DC00004D129002000FEF727F976BD01221021F9
:107DD000200000F047FE0028F3D0F6E7014B1860C2
:107DE0007047C046C464FF1F37B56B469D1D010038
:107DF00004000222280003F053FD2B88B02B0ED183
:107E00002379122B09D12300FA331B78012B06D1D9
:107E10000121608800F0E0F801E01B2BF8D037BDAD
:107E200010B5054B0421187000F098F8FFF74CFDD1
:107E3000FEF770FB10BDC046C864FF1F0020F0B500
:107E40000BB20F0087B0834234DA274B187803F067
:107E500057FC051E2BD00378A02B25D103AE310093
:107E6000FEF7E4F8041E0BD1B378DB0724D51F4BD3
:107E700006341B68002B03D0310068889847040043
:107E8000A868002801D003F0F3FC002C08D1184AA0
:107E9000039B1340174A934206D0B3781B2B03D0A1
:107EA0000121688800F098F8280003F069FE80201E
:107EB0000002784007B0F0BD0F4B1B68002B10D0BC
:107EC000310068889847041EDAD07378002BD7D128
:107ED000B27801A90A704B800C716888FDF7F6FF33
:107EE000CEE70624F1E7C046C864FF1FC064FF1F49
:107EF00000FFFF0000011200C464FF1FF7B50190EE
:107F0000FC200D0017001E0003F0BAFC0400132033
:107F1000002C12D0B02320002370089BF42267703D
:107F2000658026710830002B08D0190003F060FD31
:107F30002100019803F064FB0020FEBD089903F0C6
:107F4000F7FDF5E710B5041E06D00078FD2803D82C
:107F500003F02EFCFF23237010BD00000A1F93B214
:107F600010B504000220032B05D882400020024BEC
:107F7000D1529B189C7010BDE864FF1F0B8870B530
:107F8000043B04000D000220032B0BD8012120002C
:107F900000F04CFD03001420002B03D0290020002A
:107FA00000F0DEFB70BD000007B51300034A00922D
:107FB0000A00012100F02CFC0EBDC046E581001135
:107FC00007B5019203220092024B0A00122100F031
:107FD00049FC0EBD6382001107B56B4601AA1180F2
:107FE0000449D88008780633012802D1190003F02B
:107FF000AFFB07BDC964FF1F0C4B10B51870002301
:10800000FF210B4A1380138193819380094A538087
:108010001370517293819372D174D3821375517717
:1080200003F026FB00F0FCF910BDC046F864FF1F0A
:10803000E864FF1FCA64FF1FF0B58DB06B460020D7
:1080400003910C229B5E834200DBB0E05D4B18780D
:1080500003F056FB051E00D1A4E00378902B00D05E
:108060009DE006AF01004688380000F013FA7968F9
:108070000400002900D19CE03B88052B6ED13B8990
:10808000032B1CD905AC200000F0A2F86288172A47
:1080900061D83989131D994231D179682378043127
:1080A0000291D90738D5607800F08EF9071E06D006
:1080B000002303712378012B08D0132B23D0A86849
:1080C000002800D178E003F0D3FB75E062880299C4
:1080D00009A800F0A6F80290380000F08BF909AA70
:1080E0002378387A0192002231000092029A00F03F
:1080F00012F9380000F064F9029B002BDFD0300049
:1081000000F080F9DBE70378032BD8D1628802996D
:1081100009A800F0D6F8DEE7122B13D1029909A8BE
:1081200000F0B5F8021EEAD127498B88002BC6D093
:10813000887909A92378019161780091310000F0D4
:10814000EAF8BCE7002302AA93833000617809AA09
:10815000FFF72AFFB3E71D4B0993F6E7042B02D084
:108160009A1F012AABD8184A043B9B00995A002950
:10817000A5D0D218907831003A0000F0AEF800286F
:108180009DD13B88042B03D001213000FFF724FF51
:10819000012C04D1A868002801D003F069FB280055
:1081A00003F0EEFC8020039B0002434018000DB05A
:1081B000F0BD012800D182E701213000FFF70CFF5C
:1081C000EDE7C046F864FF1FE864FF1F01001700D9
:1081D0000B7803704B784370CB788A781B0213437B
:1081E000438070470A88030002700A88120A4270AE
:1081F0000A88012A06D14A8882704A88120AC27007
:108200000420704702208242FBD14A8804309A70D1
:108210004A88120ADA708A881A718A88120A5A7190
:10822000EFE710B50400012082420CD94B780A78A0
:108230001B0213432380834206D1CB788A781B022A
:1082400013436380002010BD022BFBD1CB788A78CA
:108250001B02134363804B790A791B021343A380EB
:10826000F0E70B8803700B881B0A43704B88837000
:108270004B881B0AC3708B8803718B881B0A437160
:10828000CB888371CB881B0AC37108207047030019
:108290000120082A14D14A780878120202431A8071
:1082A000CA788878120202435A804A790879120201
:1082B00002439A80CA798879120202430020DA8048
:1082C000704710B504000120022A05D100204B7828
:1082D0000A781B021343238010BDF8B50600102056
:1082E0000F00150003F0CCFA04000120002C0ED082
:1082F000A0230C22290023806780201D002D07D099
:1083000003F076FB2100300003F07AF90020F8BD7D
:1083100003F00EFCF6E7F7B51E00009008AB142042
:1083200017001D78019103F0ABFA041E12D0A223AE
:108330000370019B47704380099B057146710C22B5
:108340000830002B07D0190003F052FB21000098E1
:1083500003F056F9F7BD099903F0EAFBF6E737B5E4
:10836000041E0FD04388002B0CD00025C188132396
:10837000007A172201950095FFF7CDFFFF23658056
:108380006372257037BD000010B50C4904004A889F
:10839000002A09D08B89002B05D00020CB8A02222D
:1083A000834201D010BD012213000A204343002064
:1083B0004032C854C81842800472F3E7CA64FF1FF1
:1083C0000023438003707047094B00211A0010B549
:1083D0005C88002C06D01C79844203D10A234B43CD
:1083E000D01810BD01310A330329F1D10020F8E77C
:1083F000CA64FF1F10B50400407A03F0D9F9FF23C7
:10840000637210BD7047043010B580B203F028FBD2
:10841000002803D00421494203F002FC10BD0000F3
:1084200070B50025104CA0682580A581A580A842C4
:1084300002D003F01DFAA56000250C4C0C4B606DBA
:108440001D80230058331D70A84202D003F010FA9B
:10845000656500256068002801D003F009FA013540
:1084600008340A2DF6D170BD9065FF1F3465FF1FDB
:108470008465FF1F70B5041E09D1054D2880A881B1
:10848000A880A868002802D003F0F2F9AC6070BDA3
:108490009065FF1FF0B54B8885B0019300234360C2
:1084A0000A7905000F00022A00D07BE0CA88032A5F
:1084B00017D98B685E7819783602DC78D8790E4344
:1084C00099781B7A24021B020C43034353495BBA7D
:1084D0000B80331D93421ED1042C04D0631F022B4A
:1084E0000ED9012015E0019A4D4B1201D35A002BF1
:1084F00006D00198FFF7BEFF4A4A136901331361A2
:108500000421B8682E812C80494203F089FB686001
:10851000002005B0F0BD434D042C06D0631F022B94
:108520000FD9EB680133EB60DBE7019A3C4B12019A
:10853000D35A002B05D00198FFF79CFF2B6901331C
:108540002B61374B30000293019B029A1B01019370
:10855000002301998C468B52130063449C80039343
:108560009E81FFF750FF039B041E986016D00421E4
:10857000B868494203F054FBFA880100043A20002D
:1085800003F036FA0199029AFB888A5A043B9B1839
:10859000029A8B522B6801332B60A2E7AB6901333F
:1085A000AB619EE71E4B0293019B1E01029BF35A97
:1085B000002B2DD002998C19A068002828D0012A00
:1085C00026D1FA889B189BB27352A189994217D37E
:1085D0009B1AC018B96803F00BFA029BA289F35AE0
:1085E000934200D07DE700222B81A3882B80A368D3
:1085F0006B60029BF2520B4A53680133536070E781
:10860000084A9368013393600198FFF733FF68E7E6
:10861000044A536901335361F6E7C046FA64FF1F09
:108620009065FF1F0065FF1F70B5051E15D10B4C2F
:108630000B4B1880230058331870606D002802D04F
:1086400003F016F96565250050356068002801D0F3
:1086500003F00EF90834AC42F7D170BD3465FF1F4A
:108660008465FF1FF0B51700A12285B09200019329
:108670004243394B06001B680C009B18D933FF336B
:108680001D78FDF741FF0430854204DD3000FDF721
:108690003BFF0430C5B2BD4207D33A000021300091
:1086A000019B03F04DFA05B0F0BD2900380002F03F
:1086B000BFFF2300C6B250331E700393019B2900F5
:1086C0006365380003F054FACBB20293002B02D05A
:1086D000039B01361E7000262300503303931B7842
:1086E000B34204D8606D002831D10020DBE7029A44
:1086F0002800002A04D0013B1000B34200D028001B
:10870000F700E719387003F023FA786000280ED0DC
:108710003A78019903F06CF9019A3B780136D31845
:108720000E4A0193D369F6B20133D361D4E7039BB8
:1087300018706065A74205D1084A1320D36A013337
:10874000D362B0E7606803F093F80834F2E703F00F
:108750008FF800236365C8E73409FF1F0065FF1F1A
:10876000F7B50D0007000421686803F059FA2B895A
:10877000040003702B891B0A43702B8883702B889D
:108780001B0AC3702E8902250436F6B2F42E15D8C2
:108790001B4B9F4214D10C2003F072F81135011EBF
:1087A0000CD0902303708E3B0371043B4380154B28
:1087B0008460C680187802F023FF00252800FEBDE3
:1087C0005C237B43104AD3180093583301931B78E2
:1087D000002B0FD10300320038000099FFF742FF51
:1087E000019B05001B78002BE8D13800009902F0AE
:1087F0004FFFE3E7054A0725536A01335362DDE77C
:10880000FEFF0000F864FF1F3465FF1F0065FF1FB7
:10881000F0B587B0009017200F0016000193FFF706
:10882000F2FD1325041E19D00C98031E02D00199E5
:10883000201D9847030AE370052302AAA0700430A4
:10884000908127700098667003A993800494FFF7C5
:1088500087FF051E02D0200003F00AF8280007B0A9
:10886000F0BD0000F0B587B01F000CAB1B78039182
:10887000059301210DAB06001C78049200F0D6F898
:108880001425002821D02000FFF77EFD0135041EAD
:108890001BD01149059B0A7803700132D2B2131E16
:1088A000C68001D101231A000B7022713000049B95
:1088B00003990097FFF7ACFF051E09D123002100A3
:1088C0000648074A093302F06BFF280007B0F0BDE5
:1088D000002363802370F8E7FC64FF1F5F830011AF
:1088E00030750000F8B505000E00064C064F2368F1
:1088F000002B02D03100280098470434BC42F6D146
:10890000F8BDC046A065FF1FB465FF1F0123064ADE
:108910005B425380002313715362044A1360536017
:108920009360D36013617047B465FF1FA065FF1F9C
:108930000200002310B506499C000859002801D107
:10894000625010BD0133052BF6D11320F9E7C04664
:10895000A065FF1F034A5388181A434258414042FA
:1089600010407047B465FF1FF0B585B002930AABA5
:108970001F780CAB1B88009008000E000192039337
:10898000FFF7E8FF05001120002D1BD10E48FFF76F
:10899000E1FF04001520002C14D006220B99A771CA
:1089A000E01D03F025F8019B30002371029B290094
:1089B0006371009B66802370039B6562E381FFF710
:1089C00091FF280005B0F0BDFFFF000010B5FFF7D4
:1089D000C1FF04000220002C12D060880121FFF7A3
:1089E00081FF606A002801D002F03AFE28220021AF
:1089F000200003F09DF8012300205B42638020717A
:108A000010BD000030B5074A074C558801001378A7
:108A10000020A54204D05B1A59424B4158421040F5
:108A200030BDC046B465FF1FFFFF0000084A10B507
:108A300001230C00904208D0FFF78CFF031E04D0E6
:108A4000037923405A1E9341DBB2180010BDC04683
:108A5000FEFF0000024B1879431E9841C0B27047D8
:108A6000B465FF1F70B504000D001600FFF772FF1C
:108A7000002804D10D4B9C4200D0143070BD416AD7
:108A800003790520002907D012221A40102A02D1AA
:108A90000520002EF2D10F20DB06EFD5897E0C20B9
:108AA000A9428941494249420840E7E7FEFF0000E8
:108AB000030010B5002800D110BD0348034A4188C7
:108AC0009142F9D09847F7E7B465FF1FFFFF000018
:108AD000002330B5C45CCD5C6C40D4540133102B02
