:020000041100E9
:103000007FB50023284C294D03932800217C284AB2
:1030100001F0D9FA002812D103232800217C03AA49
:1030200001F078FA00280AD1224B039A9A4206D17D
:10303000214B2248E360224B636104B070BD02263D
:10304000217CFE2228001F4B009601F035FA002853
:1030500001D00020F1E71C4BA2899A42F9D1217CD2
:10306000FF222800194B009601F026FA0028F0D123
:10307000E389174A934203D1164B17486361DCE793
:10308000164A9342E5D1164B164A1B68934206D95D
:10309000C02304222800217C9B0001F076FA124B09
:1030A00012486361C9E7C046F461FF1F3442FF1F45
:1030B00081370000595953005959832098BA00119B
:1030C000F94100110062FF1F595900000262FF1F01
:1030D00083050000AD41001178BA0011821500008F
:1030E0001862FF1F87130000B542001188BA001153
:1030F000002370B51A4E1B4C30006361637401F0FD
:1031000089F9402323744B2B0CD9CC233821AC22D2
:1031100030009B01217401F038FA00280AD0002504
:1031200025740CE0FFF76CFF051E08D1237C0433E7
:10313000DBB2E7E70C4B0D4D63610D4BE381236878
:10314000002B08D1002D06D00C222900200008F009
:10315000CFFA2B7B6374300001F09AF970BDC04642
:103160003442FF1FF461FF1F4D42001168BA001185
:10317000AAAAFFFFF7B5164B0192C318021D002043
:10318000009388235B05D3181B685C1C1AD09CB283
:10319000402C18D88D781E0CAC466746CD782D0291
:1031A0003D43AE4206D1019800280ED110000C70AC
:1031B000240A4C7003249BB20733A343D218009B0C
:1031C0009A42DED3FEBD4432F9E71000FAE7C0466A
:1031D000FC0F0000802213B503000324019189B283
:1031E000520107319B18A14304305A1A88235B050A
:1031F000C3181B68591C03D190429241104016BD60
:1032000099B2402907D80B000733A343C018904256
:10321000ECD30020F3E74430F9E7134B134A1B6863
:10322000126810B5FA24934201D81A00F824104B02
:10323000E4021B689A4210D813000E4A12689A42A0
:103240000ED3013307D1F823DB029C4203D10A4994
:10325000054808F0EDFA200010BDFC24E402ECE77C
:10326000FE24E402F7E7C04600C0071100D00711B2
:1032700000E0071100F00711FFFFFF7FF0B59BB0E2
:10328000150004900391402A00D9A0E006AB5980B4
:103290001A80FFF7C2FF0400042816D9002206A9ED
:1032A000FFF768FF052810D906AB1B88AB420CD18D
:1032B000002D07D0514B2A000499C01808F0E0F9FE
:1032C000002802D101201BB0F0BD06AB1D802000FC
:1032D0000699FFF77FFF041E7BD1069B0793FFF73C
:1032E0009CFF80235B01C618802307001B039E42BE
:1032F00001D3F826F60288235B05F31801931B68B7
:10330000013302D0019808F023F93D49019808F0F3
:103310008FFA3B1D0293331D05938822029B5205B1
:103320009B181B6808935A1C3CD044219AB2009108
:10333000402A04D80320D11D814389B2009103990A
:103340001B0C8B4224D0402A22D80122300008A92D
:10335000FFF710FF021E1BD1380008A9FFF70AFF74
:103360000400042831D9009A059B9B188022520141
:10337000B218934240D288235B05C118009A09A86D
:1033800008F0B6F91D4B009A09A9F01808F0B0FA38
:10339000009A029B9446634402931A4B029AFB18CC
:1033A0009A42BAD388235B05FC1821680198013939
:1033B00008F03EFA200008F0CBF8039A07AB5A80D9
:1033C00030000799FFF706FF0400002C03D100200E
:1033D00079E70428FBD988235B05E018069908F0F3
:1033E00027FA0323EA1C9A4300D16BE7034B0499A5
:1033F000E01808F07DFA65E70424ECE7040000110A
:10340000FFFFFF7FF80F0000F7B505001400402A0A
:1034100021D8002701AE71803780FFF7FEFE042817
:1034200016D93A003100FFF7A5FE042810D93688D6
:10343000BC420BD0BD4209D0221CB44200D9321C80
:10344000064B92B2C118280008F052F930B2FEBD06
:10345000C04300B2FBE703204042F8E7040000113C
:1034600037B5042204000D0001A81649FFF7CCFF70
:10347000020004280BD1019BA34208D3AB4204D025
:10348000104901A80195FFF7F9FE01203EBD0E4C41
:1034900023682000019308F05BF8019920000139AE
:1034A000019108F0C5F980235B01E418074B9C42A9
:1034B000EED10422034901A80195FFF7DFFE0020A9
:1034C000E4E7C0465555000000C007110000081190
:1034D00030B589B008F0B4F910226946254808F0E3
:1034E000D7F8254B009A9A420ED1019B029A0F2BD6
:1034F00033D8002101240698013B08D2002900D0CE
:103500000292029B013331D10023029325E0551C26
:10351000F2D102002100EFE710341022200004A9AC
:1035200008F0B6F8029B013301D1069B0293882371
:1035300004995B05C918059B06981A03120B0491A0
:103540000592814203D02B4201D108F0D1F8019BB2
:10355000013B0193019B002BDED1029B002B03D08A
:10356000049304984168084709B030BDE025014C38
:103570002D03EFE700000111504859368022F8B5BD
:10358000964C974BD200002120001C6008F038F8C0
:103590002300944A88331A60934B1A786A23002ACE
:1035A00000D01133E3620A232365904B37221B7846
:1035B0000820A3638E4B2118E361102323628D4BF7
:1035C0003B256361C823DB00A36123008C331A60B1
:1035D0002823013AE26320646364CA67043A211D28
:1035E000CA672100BC310D602100C0310860210094
:1035F000C4310B6021000635CC310D602100083D3F
:10360000C8310D602100D0310A602200D432106030
:103610002200D832136022000227E0322100176016
:103620004222DC310A6021001B3DE4310D602100A3
:10363000E83108602100EC310B6023000521F433F0
:1036400019602300F0331A602300183290331A6097
:1036500023009433186023001E3A98331A60AF2376
:10366000DB002360644BFA262363644B644DE36004
:10367000644BF031A3642300FF31FC33B600A1603A
:1036800021611E60A5627325E5656D3D6565A565D3
:1036900096255D4AAD00E264666258606766A5667D
:1036A00000270925A767E566584F594D6067200038
:1036B0002567E2673A6015279C30676007001A208B
:1036C00038602000A0300700212038602000A8309A
:1036D00007004C4838602000F83006602600642758
:1036E000A436376026005F3FAC3637602600033FC4
:1036F000B03637602600C637B4363760260000275C
:10370000B836376038269E60424E96205E64424E40
:103710005A66DE61414E9A645E62F53EFF3E9E62ED
:103720001E269A67354A8000DE661F675F67DD6583
:103730001D661862DA67BE23394A5B00E250394BD6
:10374000D838235004302250C4225200A350C6233C
:10375000E4205B00E1500433334AE1503349344BF9
:10376000D1603449800019503349E938FF38195085
:1037700032490430195032493248D161324911631B
:10378000324951631900F4310860CE2030494000BD
:1037900011603049195019002F48F83108602F493D
:1037A000D16582212E4A89005A501A002D490832CB
:1037B000D1671A002C49B432116088212B4A890044
:1037C0005A501A002A49883211602A4ADA6408F0ED
:1037D0005FF8012007F02CFFF8BDC0460004FF1F72
:1037E0009064FF1F606FFF1F6444FF1F4A0AFF1FA2
:1037F0003A07000080C3C9019A020000DC050000FE
:103800006A18000050C3000088130000F009FF1F71
:10381000204E00006509FF1F68100000C409000069
:1038200040420F0010270000FC00FF1FB11CFF1FCB
:103830000000FF1F052DFF1F8D30FF1F252FFF1FCD
:103840007120FF1F6127FF1F8D20FF1F3922FF1FDF
:10385000FD1FFF1F8529FF1F6D2AFF1F8D19FF1FE9
:103860009128FF1FB525FF1FC125FF1FFD1EFF1F4C
:10387000B51FFF1F751EFF1F0223F0B50124624D07
:10388000624E2B70624B91B01C70624F0393336891
:1038900000210420BB7006F04FFC042006F046FB1C
:1038A0000023984205D0BA78552A02D0332A00D096
:1038B0009DE03360042006F0B9FD07F061FEFFF7DC
:1038C0005DFE07F005FF1F2201240021524B10AEC0
:1038D0001A70524B1C70524B1970524B196891431D
:1038E000163A0A431A60602219689143403A0A4323
:1038F0001A6007F04DFE07F093FD4B4B9847C1202F
:10390000FF214A4B80001A588A431A50C522920060
:1039100098588843BF390143995098584449084002
:103920008021C9010143802099509958C00509029E
:10393000090A0143995080213E48490107F0D0FE11
:10394000032322003C49019400933C4807F028FEE1
:103950002C223B4905A807F0CBFE05AC6178207806
:10396000023406F003FBA642F8D1364C11200021A8
:1039700006F010FC2268344B03201A40A023DB021F
:1039800013432360802322689B041343236022682F
:103990002E4B1A4080239B03134323602C4A2D4B4C
:1039A000934200D8012007F04BFD07F0B1FF8023C0
:1039B0002268DB0413432360287807F051FE039B41
:1039C0001878C0B207F0A4FE07F01AFD22490420BF
:1039D00007F0B6FF06F0F6FC00F040F800F00CFE31
:1039E00000F0B4FE00F010FA002011B0F0BD00931A
:1039F0002100194A042007F0E3FD8023DB059C62C7
:103A0000FFF766FD56E7C0464A0AFF1F34F0004044
:103A10006444FF1F2462FF1F480AFF1F490AFF1F5B
:103A2000680AFF1FBCF00040E1A2000000E100E0D6
:103A3000FF00FFFF6844FF1FEC56FF1F6854FF1F85
:103A400090B9001114F00040FF7FF8FFFFFF9FFFC7
:103A50000080FF1F606FFF1F3B000108002210B5B0
:103A60001100112007F0F4FE10BD0000002370B516
:103A70000925334E334C3362E3681120AB43E360D6
:103A800007F016FE112007F073FD112007F0D0FC9F
:103A90004023226811201343236080236268DB02E5
:103AA000134363608023A2681343A360A368264A7C
:103AB0001340A3608023A2689B0113431022A360DC
:103AC000236C934323640123226C1A4322648022D3
:103AD00052003262216B1D4A11402163616B11401B
:103AE0006163A16B1140A163E16B0A40E263E2688C
:103AF00017490A40E260174A11680B43136007F048
:103B000017FCFD21144B154A89005A508023C72009
:103B1000626B5B0313436363E36880001D43104BD8
:103B2000E56019580F4A1140802212020A431A50C8
:103B3000802292051A6008220B4B5A6370BDC04662
:103B400000F000403CF00040FFFFDFFFEFFFEFFF21
:103B5000FFFF7FFF003800400000FF1F5118FF1FCC
:103B600000E100E0FF00FFFF00000540E12010B58C
:103B7000C00407F07DFE10BD70B52B4C238C002BCC
:103B80002AD0FA22D200934201D2FFF7EFFF228A15
:103B9000238C002A21D1DA0023826382A382E3826C
:103BA00023836383A383E38322606260A260E26075
:103BB0001E4D1F4A6420EB8093420AD8FA2200204F
:103BC000D200934205D91B4A0A21981807F0E0FD5C
:103BD000C0B200232872238470BD0720E11CCA7F75
:103BE00001320240CA7705D10325201DC17F013172
:103BF0002940C17708325200A352002321001A0045
:103C0000088A01321B180231082AF9D1221DD27FFD
:103C10009200A350626823689B18A2689B18E26810
:103C20009B185B099BB2C3E76461FF1F0C62FF1F17
:103C3000B70B000030F8FFFF30B503A804880B2055
:103C4000002C0ED14968074D0878497809020143D4
:103C50000A20A94205D1012120001980024B1B7ABC
:103C6000137030BD192A00000C62FF1FF7B5150054
:103C700008AA16884A680F4F147852781202224315
:103C80000A24BA4214D10122DBB2019200962A0022
:103C900007F0E8FA041E0BD1074B1B68002B07D076
:103CA00068782A7800021043424250410130984718
:103CB0002000FEBD022900009061FF1F30B50125E4
:103CC00003790400BFB02B4211D00A49408806F0A6
:103CD00035FE28420BD0084B01A95B8D4D800B802F
:103CE000064B00221B7A60880B7103F007FF3FB080
:103CF00030BDC0468861FF1FA840FF1F0C62FF1F38
:103D000010B50549054806F0CFFD0421044A0548D1
:103D100006F08CFD10BDC0468861FF1FFFFF00004C
:103D2000BCB90011A840FF1F10B5024804F068FD9F
:103D300010BDC046BD3C0011012303700B4B1A7A25
:103D40004270022282709A78C270DA78027103227D
:103D500042711A7982715A79C2710C2202729A796F
:103D60004272DB7983720B207047C0460C62FF1FE2
:103D7000022310B50370013B437005338370103389
:103D80000371443B43712A3383714433C37100236D
:103D90000372064B04001B8843720A30FFF7CCFF06
:103DA000831D0A30C0B2E37010BDC0460C62FF1F15
:103DB00010B5142007F02CFB124B142200211860C0
:103DC00007F01EFC002007F053FB012007F0F0FC79
:103DD000022007F0EDFB032003F0B6FF042005F0FE
:103DE000CBFF052003F0F4F9062003F0C1FE072005
:103DF00001F058FA082006F0F9FC092001F034F827
:103E000010BDC0469461FF1F07F0BAFC012007F007
:103E1000DFFB07F075FC0000094B10B50400984269
:103E200005D0012904D12000064906F03DFD10BD52
:103E30000229FCD1013904F0A1FC0028F3D0F6E7F7
:103E4000FEFF0000BA61FF1F70B50D7A100004AAD2
:103E50002C00168810221440154220D1002E20D1AB
:103E60000A78022A18D14A68517815780E4A090250
:103E70002943914205D00D4A914209D01C800A2461
:103E800004E014220A491A8007F032FC200070BDB9
:103E90000C2208491A80F7E71C800124F6E7082461
:103EA000F4E70B24F2E7C046F3FF0000F4FF000044
:103EB000F042FF1FB4BA001110B5040007490848CA
:103EC00006F0F2FC074804F0DBFB0020E40704D511
:103ED0000721054A054806F0A9FC10BDBA61FF1F7D
:103EE000FFFF0000193E001100BA0011EC40FF1F57
:103EF00000B50C4BBFB01A780B4902A800F0E0FCEB
:103F00006B4680B2D880002809D06A46074B01A9C9
:103F10001B889380064B0022188803F0EFFD3FB00A
:103F200000BDC0469861FF1F9961FF1F4641FF1FFA
:103F30005042FF1F00B50C4BBFB01A780B4902A8C6
:103F400001F022FD6B4680B2D880002809D06A4675
:103F5000074B01A95B8D9380064B0022188803F064
:103F6000CDFD3FB000BDC046C261FF1FC361FF1F52
:103F7000EC40FF1F5042FF1FF7B50E00377A1C00C0
:103F800008AB11003D001A8820231D401F423CD180
:103F90003378022B3BD173681F785B781B023B435D
:103FA0001E4FBB4208D01E4FBB4214D01D4DAB422A
:103FB00021D00A252800FEBD002A2AD1142C2AD897
:103FC0002200F06807F094FB174B1C70012CF1D90C
:103FD000FFF7B0FFEEE7002A1BD1202C1BD82200F0
:103FE000F06807F085FB114B04211C70104B18780A
:103FF00007F076FADEE7E3B20124009201940A00AA
:10400000310007F02FF90500D4E70825D2E7012594
:10401000D0E70B25CEE70D25CCE7C046F3FF000027
:10402000F4FF000002290000C261FF1F9861FF1F1A
:104030004462FF1F332310B5040003700A220749AE
:10404000013007F055FB064B0F201B681A0AE3727C
:1040500022731A0C1B0E6273A37310BD0C62FF1F38
:104060003462FF1F30B5012503790400BFB02B4235
:1040700013D00B49408806F061FC28420DD06A46F7
:10408000084B02A81B889380FFF7D4FF6B46D880AB
:104090000022608801A903F031FD3FB030BDC04669
:1040A000BA61FF1F4641FF1F10B5024804F0A8FB8C
:1040B00010BDC0466540001170B5160004AA1488F2
:1040C00005AA15784A685078117800022A4A0843F0
:1040D000801805284BD807F09BFB03131E29343F9B
:1040E0000720032C0BD80422121BAA4200D92A0055
:1040F00022491A803000091907F0FAFA002070BD31
:104100000720112CFBD81222121BAA4200D92A0028
:104110001B491A80EEE707200E2CF0D80F22121B45
:10412000AA4200D92A0017491A80E3E70720032C86
:10413000E5D80422121BAA4200D92A0012491A808B
:10414000D8E70720032CDAD80422121BAA4200D990
:104150002A000E491A80CDE70720032CCFD804226D
:10416000121BAA4200D92A0009491A80C2E700227C
:104170000A201A80C3E7C046DCD5FFFF4BBA001106
:10418000E061FF1F3BBA001136BA001131BA0011CD
:104190002CBA001110B50D21024A034806F046FB67
:1041A00010BDC04620BA00115C41FF1F13B5104C72
:1041B0000423217C01AA00F0ADF9002815D16B463B
:1041C0009A88236852BA92B25343228909491B0C38
:1041D0009B184B806B46DA88636852BA92B253439D
:1041E00062891B0C9B188B8016BD0120FCE7C04622
:1041F000F461FF1F0C62FF1F13B5124C06236A46C1
:10420000217C00F087F9002819D16B4619882368B2
:1042100049BA89B24B4321890B4A1B0C5B18538066
:104220006B46D97803335B781B020B435BBA61683A
:104230009BB24B4361891B0C5B18938016BD012018
:10424000FCE7C046F461FF1F0C62FF1F37B5174C37
:1042500007236A46217C00F05DF9002824D16B46D3
:104260001B787F2B20D86B46DD78F0232A041B03B4
:104270001A406B469B880E495BBA9BB21A4323686F
:104280002D09534322891B0C9B184B806B465A788F
:104290009B7812031B011A4363682A4353436289C4
:1042A0001B0C9B188B803EBD0120FCE7F461FF1FB7
:1042B0000C62FF1F7FB50226154C0022217C03AB48
:1042C0000096050000F0F8F8002802D0012004B0A4
:1042D00070BD0E23217C0122280000966B4400F063
:1042E000EBF80028F2D16B469A892368D2BA53437F
:1042F000228908491B149B184B806B46DA89636836
:1043000052BA92B2534362891B0C9B188B80DEE732
:10431000F461FF1F0C62FF1F70B5184C237C002B4B
:104320000FD0382B0ED1164D280000F073F8CC2397
:10433000AC222800217C9B0100F027F9280000F026
:10434000A7F870BDE3890F4A934209D10C4D2800AC
:1043500000F060F800222800217C00F005F9EDE76C
:10436000094A9342EDD1064D280000F053F89022FF
:104370002800217C920100F026F9DFE7F461FF1F9D
:104380003442FF1F830500008320000070B5144CE9
:10439000237C002B1FD06369002B1CD0114D2800FB
:1043A00000F038F86369280098470400280000F0FE
:1043B0006FF8002C10D10C4B0422995E002905DA0D
:1043C0009C801A8801321A80200070BD074A9142F1
:1043D000F7DD9A80F5E70124FEF78AFEF4E7C04690
:1043E000F461FF1F3442FF1F0C62FF1F0F27000004
:1043F00010B58024064AA4001168436B234205D1FE
:1044000013685B1A032BF8D9012010BD0020FCE7CC
:104410006008FF1F70B5C17905000C00631E9C4148
:104420001A4BE402E41849000460C9B2007905F0AF
:10443000E7FEE979687949000131C9B205F0E0FE8B
:10444000E8790930C0B206F0F3FF0023E366613378
:104450002360AA795B3B002A0ED022689A43023B74
:10446000134323600A23E36107332362002323639A
:10447000A3630133E36370BD22689A4302231343AD
:104480002360462363610633A361EFE700500040D9
:1044900070B5002504000368DD66C0790930C0B23C
:1044A00007F006F92900207905F046FE2900607919
:1044B00005F042FE70BD0000F8B51E0006AB1D7889
:1044C000002304681700E366616007F0B9F901236F
:1044D0008022E3662B0027615200013B08D207F0DF
:1044E0009FF808200A4A1168002D03D12800F8BD62
:1044F0002261F2E7236F034203D02369013D337049
:10450000013613685B1A032BEED90125EEE7C0468E
:104510006008FF1F70B51C00002305681600EB66DD
:10452000696007F08DF901238022EB6623005200B9
:10453000013B08D207F074F808200A4A1168002CE1
:1045400003D1200070BD2A61F2E72B6F034203D034
:104550002B69013C3370013613685B1A032BEED9CB
:104560000124EEE76008FF1F002370B50468150002
:10457000E366616007F064F90123E366256107F0F3
:104580004FF82000FFF734FF70BD70B51D00002309
:1045900004681600E366616007F052F90123E366E0
:1045A00026610F33626B1A42FCD02B0A2361102361
:1045B000626B1A42FCD0EDB2256107F031F82000A1
:1045C000FFF716FF70BD002370B504681500E366A1
:1045D000616007F035F90123E3662B0A236110239C
:1045E000626B1A42FCD0EDB2256107F019F8200089
:1045F000FFF7FEFE70BD000010B5084CE368002B0D
:1046000008D18022064B52021B689B186360054B41
:104610001B68236007F0DCF8A06010BD3462FF1F48
:10462000C8F00040CCF0004070B5184A936A916A17
:104630009942FBD116498A689A421FD39A1A8B6015
:10464000144B0126186893B2D202D20E4343424360
:1046500000204C681B0A1B1912029B180E4C0A689A
:104660004B60551CA3420CD8002801D04B600A6057
:104670000A4A136008680A4B186070BD581E821AF7
:10468000DDE7084A30009B182A00EAE700F0004006
:104690003462FF1F140AFF1F40420F00C8F00040A1
:1046A000CCF00040C0BDF0FF70B51F4C23793F2B0C
:1046B00001D93F2323711D4B22791A701878C0B29B
:1046C00006F07EFE18231A491A4A0B801A491380F5
:1046D0000B805380A379194980200B800C21938093
:1046E00001334B43164D191C0001834200D9011CB4
:1046F0002980D1806379002B11D101336371237A32
:10470000012B01D8022323726279237A0D48534387
:104710000A21584307F03CF80B4D286070BDA02BD0
:10472000EDD9A023EAE7C0462862FF1F480AFF1F11
:104730004E42FF1F1044FF1F4C42FF1F4A42FF1F03
:104740004842FF1F710200001862FF1FF8B52021C8
:104750000020FEF785FE114C011E114D09D10C22DF
:10476000104BC1CBC1C4280006F04AFFFFF79CFFE5
:10477000F8BD0C2220000C49FEF746FE0C2802D0A2
:10478000084B43CB43C40C2228000849FEF73CFEEB
:104790000C28EBD00C220021E5E7C0462862FF1F61
:1047A000F461FF1FA8BA0011FC0C0000F50C00001A
:1047B000F0B51D4C8022A5440400882069465201B2
:1047C000400506F0CDFD902212016A44130020003E
:1047D00032C832C316C816C38023144C144FA668BF
:1047E0009B033343A3603B6006F0C2FF8823A068AD
:1047F0005B05C01806F0ACFE002588232900802246
:10480000A0685B05C01840196944520007F070F8B1
:1048100080230135FF355B019D42EED1A6603E60ED
:10482000044B9D44F0BDC046FCEFFFFF8043FF1FDB
:104830009808FF1F04100000F0B5040087B000289E
:1048400025D0684606F044FE1B4C022806D10622FD
:104850006946200006F014FF002816D069460023A0
:1048600001250F262F00E25C01331009103087402C
:1048700038002F00324097403A0002434A61043921
:10488000062BEFD16846FFF793FF07B0F0BD182263
:1048900069460A4806F064FD6A46A300D35801330E
:1048A00005D01822FF21684606F0AAFEEAE7013487
:1048B000062CF1D1E9E7C0466509FF1F0009001188
:1048C000F0B5002504000E0085B0AA4200D183E0B7
:1048D0004B1C087801934B78897837790902194382
:1048E000F3783F061B040B431F430397207065704A
:1048F000252800D193E033D8112813D806F020FFE3
:1049000066000D010D010D010D01A700B500AE00FF
:104910000D010D010D010D010D010D010D010D0127
:10492000E7000701232800D1C0E0DB2800D016E112
:10493000042A00D8A9E01025052A05D0551F2A0011
:104940003800711D06F0D4FE05223100200006F06B
:10495000CFFE2A003900601D06F0CAFE05353BE097
:10496000562856D010D8332800D19AE0552836D092
:104970002628DAD1894B2900132218001D0006F0E1
:104980003FFEFEF7B5FB59E0712800D174E07228B4
:1049900000D17DE0DC28C8D1022A00D875E0737808
:1049A000BFB26370B378A370032A05D0033A39000D
:1049B00092B2F01CFEF762FC10223900E01CFEF7F8
:1049C00023FDC51C002807DA60705CE00C22200083
:1049D000734906F08DFE0C25280005B0F0BD013AA4
:1049E000704D0C2A13D8002A0AD02800019906F02D
:1049F0007FFEFFF759FE0C2228006B49FEF73EFCB4
:104A000029000C22601C06F073FE0D25E4E70C2241
:104A1000EBE7644D654B2A0043CB43C2E9E7013A1B
:104A20005E4D0C2A11D8002A08D00199280006F002
:104A30005FFE0C2228005E49FEF720FC29001322AD
:104A4000601C06F055FE1425C6E70C22EDE7062291
:104A50005849601C06F04CFE0625BDE71222564957
:104A6000601C06F045FE1325B6E708225349601C7A
:104A700006F03EFE0925AFE77178F02905D8504BC6
:104A8000188801F0DDFB0225A6E7FF236370FAE733
:104A90004C4B012A03D072785A706270F3E75B784E
:104AA000F4E72000FFF7C6FA050095E7042A04D9C9
:104AB000454D2F6006F08CFEA860FFF7B5FD04227F
:104AC000039003A9601C06F013FE052584E73F4D03
:104AD000062A15D906222800019906F0D1FD0028E2
:104AE0000ED006220199280006F002FE062238495F
:104AF0002800FEF7C3FB0123324A51780B43537061
:104B000029000622601C06F0F3FD072564E7012A50
:104B1000BBD07078FFF790FEB5E7012800D004E71E
:104B2000931E2C4F132B06D87378002B0BD100F05B
:104B300009F900F03FF9284B39001D78601C6A1E06
:104B400006F0D6FD48E7551E2A000199380006F008
:104B5000CFFD38002149AAB2FEF790FBE9E7DA2839
:104B600093D1042A91D9082A15D9B37972791B02F5
:104B70001343F27912041A43337A1B0613433B6042
:104B80003B68052231002000039306F0B1FD0422AA
:104B9000601D03A96CE7FE236370F1E7F461FF1F5A
:104BA000B4BA00112862FF1FFC0C0000A8BA001163
:104BB000F50C00000062FF1FE061FF1F8443FF1F30
:104BC0005042FF1F2462FF1F3462FF1F6509FF1F51
:104BD000ADAC00002564FF1F2364FF1FAEDE0000A4
:104BE00070470000020010B5094B0A32094C92B21E
:104BF000DA815A8298811882207802F087F904229B
:104C0000054B012120781A7006F06AFC10BDC046E1
:104C10000E43FF1F6E64FF1F6D64FF1F013870B5E8
:104C2000042809D806F0F4FD0309230812001E4BDE
:104C30000221187806F054FC70BD1B4B082118782F
:104C400006F0C6FB0022194B1A72F5E780220024F9
:104C5000164B154D52001A81082128781A68DC720B
:104C600006F01EFD2100287806F0F2FCE4E70E4B6A
:104C70000821187806F0ACFB0D48FFF779F80D4BCA
:104C80000D4A9B7993800D4A13800022074BDA72FC
:104C90000132FF321A810A4B5B78002BCCD0094AD3
:104CA000136006F05DFCC7E74462FF1F1862FF1F38
:104CB0005942FF1F2862FF1F1044FF1F4A42FF1F77
:104CC0002462FF1F34F0004010B500290ED10428E3
:104CD0000CD10D3005F05EFA054B1B78002B05D08A
:104CE0002622044B04485A72FFF77CFF10BDC046D1
:104CF0004664FF1F1862FF1FC409000010B5012998
:104D000004D1042802D10D3005F044FA10BD000092
:104D10000300F0B50A4D8E18B14202D1520080183E
:104D2000F0BD0C782F6824093C5D0F271C700C78AF
:104D300001313C402F683C5D5C700233ECE7C046BB
:104D40004442FF1F0D22124B10B51A700C23114C58
:104D500011492370093A033B1048637006F0C8FC00
:104D60002D2301220E490F48A371FFF7D1FF012225
:104D70000D49FFF7CDFF01220C49FFF7C9FF0300E2
:104D800000200B4902001870FEF778FA10BDC046EB
:104D90004264FF1F2364FF1F4BBA00112564FF1FED
:104DA0006709FF1F2A64FF1F6609FF1F6509FF1FB0
:104DB000AEDE000070B5134C142220001249FEF73D
:104DC00023FB431E114D132B19D8AB78002B16D0A3
:104DD000431C2B7009236B70002300190370287883
:104DE0000B4B01302900C0B2187006F0D1FA2978B7
:104DF00022000139C9B2002005F036FC70BDFFF772
:104E0000A1FFECE72564FF1FAEDE00002364FF1F57
:104E10004264FF1F10B5114B1A781870002A0ED08B
:104E200000280BD10E4B1A78062A07D85423D340FA
:104E3000DB0703D50B4B187802F068F810BD00288B
:104E4000FCD0074B1B78012B02D0033B022BF5D87B
:104E5000044B0121187806F043FBEFE74664FF1F7F
:104E60006D64FF1F6E64FF1F70B54D4E4D4A4E4975
:104E70003070042005F084FA0021112005F08AF931
:104E8000112005F06BFAFEF733F906F011FB03224F
:104E900046494748FFF73CFF2D24030004221C70BD
:104EA00044490130FFF734FF30230470424D434C36
:104EB000437083702E3B062220004149EB87FEF7AA
:104EC000A3FA062813D0200006F002FB022809D01E
:104ED0000321200006F0FCFC8D23E3706E3B237160
:104EE00019336371062220003549FEF7C7F9354BA7
:104EF0001B68FC335C64FFF75DFF0020FFF78AFF4F
:104F0000314C324A0121324B1278207801F0C0FF37
:104F1000304A314B12780021207801F0B9FF01228C
:104F20002E4B1A702E4B9B78552B31D12D4B3B328B
:104F30005A722D4B2D4AAB81EA812B826A82202145
:104F4000307806F04DFC0120404205F0D9FB0120ED
:104F5000404205F075FCFFF71DF9FEF7D1FE00F0A9
:104F6000ABFC01204042FEF7A7FF012006F018FA33
:104F7000F02001F049F90121307806F0B1FA3078DB
:104F800002F020F91A4806F0D3FAFEF76FFD70BD63
:104F90006422184B5B7953431A000A32CBE7C046B0
:104FA0004462FF1FC94C0011FD4C00118443FF1FD8
:104FB000E061FF1F0062FF1F0E43FF1F6509FF1F17
:104FC000ADAC00009064FF1F6E64FF1F7842FF1FAE
:104FD0005942FF1F4264FF1F2364FF1F1464FF1F19
:104FE0002462FF1F1862FF1FC4090000CE090000E1
:104FF0004662FF1F2862FF1FF8B50A0020230D003C
:105000001A4019425DD05A4B1B78002B42D0FFF753
:105010000BFB584B584C594E99686268737A8A1A40
:10502000DB039A4202D36160FEF720FD327A217AD7
:10503000531EDBB2994230D1FFF76EF9637A002B31
:1050400025D0013BDBB26372002B20D14C4B9B7807
:10505000552B01D106F084FAE37A002B12D00023FD
:10506000A27AE3729A4202D0A372FEF785FD454A06
:10507000454F1388380001331380FEF779FE39005D
:1050800006F0C6FA642370795843FFF7ABFD237A24
:105090000133237220206840F8BD9142CED300270F
:1050A0002772FFF773F9A37ABB4202D0A772FEF70B
:1050B00063FD354F3800FEF75BFE390006F0A8FAB5
:1050C000BCE70BB2002B0ADA304B187806F0B8FABE
:1050D000002801D006F02CFC80200002DBE702242F
:1050E000214206D0244B01201A72FFF793FE2000C4
:1050F000D1E70B071BD5FFF797FA1E4B1E491F4C34
:1051000098684A68637A821ADB039A4202D348603D
:10511000FEF7ACFCFFF73AF9FFF7FEF800F0E6FB0C
:105120002368DB0701D5FEF7BFFF0820B3E7CB06F6
:1051300009D5FEF721FD0E4B1B78002B01D1FEF7A0
:10514000F3FD1020A7E70124214209D0104800F008
:105150006DF806F085FB2100112005F01BF8C6E76D
:10516000042408002040214296D0FEF7C1FEBEE78D
:105170004664FF1F3462FF1F1862FF1F2862FF1F73
:105180002462FF1F0C62FF1F5942FF1F4462FF1F72
:105190003C42FF1FF0B51B4B1B4F1B883A88040095
:1051A0001A4E1B4D85B09A420DD832889A420AD3C6
:1051B000184B1A882B889A4205D1174A174B128828
:1051C0001B889A421BD0052001F074F83B8802AA84
:1051D00013803388019053802B88114D93800F4B9F
:1051E00002A91B88D3800F4B2A78188802F090FD03
:1051F0000D4B08212878019A1C7006F041F905B082
:10520000F0BDC0461264FF1F4E42FF1F4C42FF1FFD
:105210004A42FF1F1064FF1F0E64FF1F4842FF1F1A
:105220006E64FF1F5042FF1F0C64FF1F13B50C4B31
:105230001C78002C11D1002801D00A4B18600A4AB2
:105240000A4B11780A4A10780A4A01920A4A0092D7
:10525000002205F001F9200016BD1124FBE7C0462D
:105260006D64FF1F0864FF1F6C64FF1F5C64FF1FF9
:105270006E64FF1F4864FF1F4C64FF1F10B5064B90
:1052800012201B78052B06D1044B13221988044BDE
:10529000187801F0EBF910BD6D64FF1F5042FF1F3D
:1052A0006E64FF1F10B500240122114B524218708A
:1052B000104B1C70104B1A8001F084FF04220F4B1E
:1052C00021001A700E480C3206F0E2F8102221007C
:1052D0000C4806F0DDF807220B4B1C600B4B1C70D2
:1052E0000B4B1C700B4B1A700B4B1C7010BDC04647
:1052F0006E64FF1F6D64FF1F5042FF1F6C64FF1F31
:105300005C64FF1F4C64FF1F4864FF1F2264FF1F83
:105310002164FF1F5242FF1F2064FF1FF8B5174C86
:105320000600257806A814240078052D23D1B41F83
:10533000134FA5B21824BD421DD88D1FADB2BD427A
:1053400019D8FA256D00AA4215D21D000D4F0A3D4D
:10535000ADB2BD420FD80C4C26800C4C21800C49BC
:1053600000240A800B4A1380FFF714FF0A4B042124
:10537000187806F02DF82000F8BDC0466D64FF1FB8
:10538000790C0000750C00004E42FF1F4C42FF1FBD
:105390004A42FF1F4842FF1F6E64FF1FF0B50BB269
:1053A0000D0089B0002B00DB70E1A44E307806F0D0
:1053B00047F9041E50D00378A22B00D122E1D02B54
:1053C0001AD0912B45D143780E2B42D19C4B828829
:1053D0009A423ED19B4A83681278052A39D103202C
:1053E00018567F2835D0984B1B68002B31D05B684E
:1053F000002B2ED098472CE08078072829D806F07B
:1054000007FA0428183F3F74A8D86378002B0CD102
:1054100001218C4B19708D4B1A78002A5BD08C4B74
:10542000307801F035FD002855D00722854B1A70E1
:1054300051E061780029F8D1E378002B11D0854A3A
:10544000854B1278307801F023FD60706378002B73
:10545000EBD1200006F06CFA80200002684009B011
:10546000F0BD784B1B78022BF3D00121307806F089
:10547000BFF80028EAD10121307806F031F8E5E7DD
:105480006378002BD1D16F4F032807D13B78052BD0
:1054900002D101333B701EE00223FBE76F4B1A88F9
:1054A0006F4B0293002A0BD01B78002B03D00121F5
:1054B000307805F0E5FF3B78062B04D1013BE9E7A6
:1054C000029B1A70F7E7042B41D10121029B30782F
:1054D000197006F005F85C4B1B68002BB9D01B68EF
:1054E000002BB6D0574A107884E76378554F002BCD
:1054F00027D10622211D5B4806F0FAF862895A4B33
:105500005A491A80A2895A4B1A80E3890B800521D7
:10551000397058490A80584A1380228A574B1A809A
:10552000574B1B78012B09D11F2000F0C3FEFA2234
:10553000920042430421307805F0A2FF0022484B3C
:1055400075E7312B00D070E70022454B1A7003231A
:10555000A0E706220021434805F09AFF0023454AB0
:1055600004211380444A30781380444A138005F0A4
:105570002FFF0821307805F02BFFA379083B5A4212
:105580005341304A03331370304B1B78002B06D045
:10559000334B30781A78002A06D001F0B7FC01228C
:1055A000314B52421A8096E70121197005F098FF9D
:1055B000F5E70821307805F00BFF6378002B00D069
:1055C00047E72C4B2D4F0293E388029A0421138066
:1055D000294B307803932389039A138063893B8096
:1055E00006F006F8002800D033E7264B1B68002B96
:1055F00000D12EE7039902983A88098800881B6831
:10560000984726E74379132B00D022E70389012B23
:105610000AD11D4B1B78022B06D10821307805F0EA
:10562000D7FEFFF72BFE14E7052000F043FE08210C
:105630000200307805F024FF0BE7C0466E64FF1FC0
:10564000051400006D64FF1F0864FF1F7842FF1FF0
:105650005942FF1F4264FF1F2364FF1F4464FF1F62
:105660004664FF1F1564FF1F5042FF1F1C64FF1F8D
:105670001E64FF1F1264FF1F1064FF1F0E64FF1FD4
:105680001464FF1F0464FF1F0C64FF1F8020C0010F
:10569000014200D0E2E6CB0731D5324B1B78002B1C
:1056A0001DD0314E05AC3378052B1AD1023B237047
:1056B0002E4B21001B7823722D4B1B7863722D4BD0
:1056C000187801F089FB002809D007202A4B307098
:1056D0001B68002B03D01B68002B00D098470120CB
:1056E000BCE60E20254B06221B7825492370254B4E
:1056F0001B78637002ABC01805F0FAFFD8E70223ED
:1057000008001840194209D0174B1B78052B03D10C
:105710001D4B188806F044F802209FE6042421421D
:1057200003D0FFF737FD200098E608230800184053
:10573000194200D193E6154B1C78012C03D0022CA2
:105740000DD008208AE6124B124A134913481B88D1
:105750001288098800880094FFF7E0FDF1E7FFF761
:105760008DFDEEE74664FF1F6D64FF1F5242FF1F71
:105770002064FF1F6E64FF1F0864FF1F2264FF1F69
:105780005342FF1F2164FF1F5042FF1F0C64FF1F85
:105790004842FF1F4A42FF1F4C42FF1F4E42FF1F5D
:1057A00010B502A804880B20002C10D14968087895
:1057B0004978090201430C48814209D1022119802C
:1057C0000A4B59881170DB7800205BB2537010BD12
:1057D000074C0A20A142FAD102211980034B998873
:1057E00011705B79F0E7C0466E2A00000C62FF1F63
:1057F0006F2A0000F7B5150008AA16884A680F4FEF
:1058000014785278120222430A24BA4214D1012297
:10581000DBB2019200962A0005F024FD041E0BD194
:10582000074B1B68002B07D068782A7800021043CA
:1058300042425041013098472000FEBD022900003D
:105840008064FF1F30B5012503790400BFB02B42EF
:1058500025D01449408805F071F828420CD0124B2D
:1058600001A95B8D00220B8002234B800F4B5B88CC
:105870008B80608802F042F90D49608805F05EF87F
:10588000C0070CD50B4B01A91B8800220B800223FB
:105890004B80064B9B888B80608802F02FF93FB0CD
:1058A00030BDC0467864FF1F7C42FF1F0C62FF1FA3
:1058B0007064FF1FD642FF1F10B5074C0749200038
:1058C00004F0F2FF2000064904F0EEFF0721054A2C
:1058D000054804F0ABFF10BDFFFF00007864FF1F18
:1058E0007064FF1FD4BA00117C42FF1F10B502483C
:1058F00002F086FF10BDC046455800110200F0B509
:1059000001270A480A4E51188B1A002B00DCF0BD03
:10591000082415784308684038404000805B013C0B
:1059200058406D08002CF5D10132EDE7FFFF000073
:10593000EEBA0011F0B500250F269D4200DBF0BD48
:105940004C5D070944403440A400A058013578401C
:10595000F3E70000F0B589B06A460D000B000F2791
:10596000110010351C780133260024093E401670C2
:1059700054700232AB42F5D12023024AFFF7DAFF1E
:1059800009B0F0BDF4BA0011F0B54E780B7889B0CB
:1059900036020C00170001901E43012A61D9954B75
:1059A0009E4200D877E001339E421CD1062A17D1CF
:1059B000CA788B7812021A430B791B0413434A7975
:1059C00012061A438C4B5A6100221A705A808B4A75
:1059D0005A608B4A9A608B4ADA60002009B0F0BDA9
:1059E00088225205EEE7884B9E423CD182498B7853
:1059F000002B00D0F6E00C2A31D10F22A37893437C
:105A0000E2781202134322791204134362791206D8
:105A100013434B60E279A07912020243207A00041A
:105A20001043627A12060243CA60E27AA07A120236
:105A3000024376484A81834208D804236E491422DF
:105A400001980B7005F054FE1420C7E71201D2181C
:105A500089235B059A42F0D801238B70BDE7022AA7
:105A6000FAD00523EAE76A4A01239642E6D1FFF716
:105A700005FC052F0CD9E378A2781B021343227989
:105A800012041A4363791B061343624A039313609B
:105A900005F066FDA1E7584D2B78002B9DD1AB7822
:105AA000002B00D1A0E02B8901339BB20093B342BD
:105AB00000D091E0132AD4D9CF7C8B7C3F021221F5
:105AC00020001F43FFF71AFF874200D08EE0002E10
:105AD0003DD1E378A2781B0213432279E9681204CE
:105AE0001A4363791B06134303930A228B4212D194
:105AF000FF23A370E370237163716B89002B09D1BD
:105B0000E37B227C1B0212041343A27B13431B0979
:105B100001336B8100226B89002B8ED0002A67D164
:105B2000686837013818000B6B69000303909842CE
:105B300005D9686105F00CFDEB780133EB706868FE
:105B40001022A11C381805F0D3FE2E8145E76F897D
:105B5000009A7B1E9BB293423AD1E278A37812025C
:105B60001A43237905A81B04134362796C68120653
:105B70001A43EB6800920392211D0C22049305F056
:105B8000B7FD0120260004A940421036FFF7E2FECF
:105B9000013F012F17D1009A0B232861824200D0C8
:105BA0004CE704221C49200005F0A2FE042203A9B0
:105BB000686805F0D5FBE968039AFF23914200D19C
:105BC0003CE7F73B3AE73100FFF7C4FE1036DFE76A
:105BD0000923B742A4D831E7009BB34200D9FCE6C1
:105BE00007232BE7022329E7032327E7062325E7DB
:105BF0000A2323E7FFFE0000F042FF1F000001110F
:105C0000FFFF00005048593601FF0000FFFF001160
:105C100002FF000034F00040FC42FF1F10B5034CAF
:105C20000B000122210000F06BFA10BDDD5D0011B8
:105C30000B8870B506000D000224162B11D92B001D
:105C40000322094900F05CFA041E0AD1074B2A8896
:105C50001B88191C934200D9111C300089B200F036
:105C6000EFFA200070BDC046095E00119664FF1F68
:105C700010B54A780400013A0B000220012A07D827
:105C80000A78002A04D005222000024900F038FAE0
:105C900010BDC046375E00110A7810B50B00040035
:105CA0000220002A04D007222000024900F028FA2E
:105CB00010BDC046E35E00110A7810B50B00040069
:105CC0000220002A04D009222000024900F018FA1C
:105CD00010BDC046495F001110B5034C0B000B22EC
:105CE000210000F00DFA10BD795F001110B5034CD2
:105CF0000B000D22210000F003FA10BDEB5F001134
:105D000010B5034C0B000F22210000F0F9F910BD73
:105D1000456000110A7810B50B0004000220002A2B
:105D200004D011222000024900F0EAF910BDC0465B
:105D300055600011002310B51322190000F0E0F99E
:105D400010BD000010B5034C0B001722210000F01D
:105D5000D7F910BDA7600011002310B51922190052
:105D600000F0CEF910BD000010B5034C0B001B2253
:105D7000210000F0C5F910BDE1600011F7B584897C
:105D80000D0006000121002C22D000238268D3568A
:105D90001778002B1EDA0C2C1AD90C3CA4B213195C
:105DA00040880093230002F086FE431E9841013094
:105DB0007B06DB0F6B703F23013C1F40A4B22870B1
:105DC000AF70AC80002C07D0B3680133AB6000210A
:105DD0000800FEBD0020EBE7AC60F8E70B7803702D
:105DE0004B8843704B881B0A83700B79C370042067
:105DF00070470420022B06D10020537811781B0233
:105E0000009A0B43138070470B8803700B881B0AA2
:105E10004370022070470420009983420AD15378CE
:105E200010781B0203430B80D37890781B02034346
:105E300000204B807047F8B50D004B7801240021FD
:105E4000461C03702B788B4201D82000F8BD6B787C
:105E5000B01C4F1C012B10D1890069184B880222FD
:105E600033704B88B9001B0A7370691805F058FB32
:105E700004360434A4B2F9B2E4E7122359436B1890
:105E80005A88043132705B8810221B0A73706918BB
:105E900005F046FB12361234ECE770B5049D140091
:105EA0001E00052B01D8042070BD637812781B02F8
:105EB00013432B80E378A2781B02134302226B80EA
:105EC0002A71211D681D063E05F02AFBB2B22A8107
:105ED000E92AE8D82800A11D0A3005F021FB00209E
:105EE000E2E7002310B50A789A4201D8900010BD6D
:105EF0009A008A185488013304705488DBB2240A4B
:105F00004470948884709288120AC2700430EAE760
:105F100010B51100029C062B04D004201022142B73
:105F200001D010BD022222714B7808781B02034376
:105F30002380CB7888781B02034363800431601D83
:105F400005F0EEFA0020ECE710B50C788B78043100
:105F50005C43E4B203702200013005F0E1FA601CFA
:105F600010BD0420022B06D10020537811781B02AB
:105F7000009A0B431380704710B50C000A88023159
:105F800005F0CEFA208810BD70B504000D0004980D
:105F90001100012B01D8042070BD1678527812022E
:105FA000324302800200F13255701470E125002C5A
:105FB00000D10C35023B9AB24280AA42EBD80231A2
:105FC000043005F0ADFA0020E6E704200099834292
:105FD0000AD1537810781B0203430B80D378907852
:105FE0001B02034300204B80704710B50C000A8849
:105FF000023105F095FA208810BD000070B501212E
:106000001E000420049C0E400B4218D1CB40DDB290
:106010008D4214D90A49DBB2098899420FD3230073
:10602000EE331D703300580011184978165C0902D0
:10603000314301332152D9B28D42F4D8002070BDD2
:106040000843FF1F10B50C000A88023105F068FAFA
:10605000208810BD10B50C788B7804315C43E4B215
:1060600003702200013005F05BFA601C10BD10B512
:1060700011000298032B01D8042010BD1478527827
:10608000043B120222430280CA788C781202224317
:1060900042809AB28280EB2AEED80431063005F0B5
:1060A0003FFA0020E9E710B50C000B8803700B885D
:1060B0001B0A43704B8883704B881B0AC3708A8805
:1060C0000430063105F02CFAA088043080B210BDEF
:1060D0000420012B03D100201378009A137070471D
:1060E00010B50C000B8803700B881B0A43704A889C
:1060F0000230043105F014FA6088023080B210BD1D
:10610000F0B589B003931E4B029242000700D05AAB
:10611000019102F020F81325061E2DD0029B0124C8
:106120000370019B002B04D00019039998470019B4
:1061300084B26B461B7A5BB2002B0FDA1021380059
:1061400002F01CFB1925002813D130003219E1B2EE
:1061500002F066FC051E0CD10C34A4B2042304AA80
:10616000380005A993800696948101F0AFFD051EC5
:1061700002D0300005F03CF9280009B0F0BDC0465F
:106180009464FF1F70B505000C0000280CD000209F
:10619000814209D010222000044905F0C1F90120F4
:1061A0002B7823736B78637370BDC04634BB0011CA
:1061B000F0B506000D0017001C0085B002291BD0A9
:1061C0000020102907D1022B07D0102B03D115E096
:1061D0000020102C08D005B0F0BD69463800FFF74C
:1061E000D1FF2A0069460BE069463000FFF7CAFF7D
:1061F00022006946380004E0022BE9D12A00390068
:10620000300005F09DF8E6E7031CF02800D9F023E4
:10621000032008499AB2013A0B80D317034006497C
:106220009B189B100B80D30F04499B185B100B80AD
:106230007047C0460C43FF1F0A43FF1F0843FF1F60
:10624000034B1B888B4202D3024B4000C152704764
:106250000C43FF1F9464FF1F014B4000185A704706
:106260009464FF1F1722014B1A8070479464FF1F2C
:1062700070B505000E2005F06BFB041E13D0D02373
:10628000037000230622837007494570033005F030
:1062900047F9064B2100DA8A62811B7E2373044B87
:1062A000187805F0E5F970BDB064FF1FA064FF1F0A
:1062B0005C43FF1F262803D8024B4000C05A70479A
:1062C0000148FCE70E43FF1FFFFF000070B506000A
:1062D0000C00094D1C220021280005F0D9F8074BBD
:1062E0001E70074B1C7005F0FBFA0123002801D03B
:1062F000002312202B7070BDA064FF1F5C43FF1FA2
:10630000C164FF1F70B505000D4C0800E260A1607C
:1063100010220021656005F063F8012803D11021E7
:10632000A06802F058FD10220021280005F058F85E
:10633000012803D11021606802F04DFD70BDC046F8
:10634000A064FF1F70B5041E05D1002903D00622EA
:106350000D4805F0E5F80D4B1D78012D11D1002CED
:1063600005D102221A7005F0EBF8280070BD00225A
:106370001A70074B1B78FF2BF7D02000FFF778FF30
:10638000F3E70025F1E7C046B064FF1FA064FF1FDC
:106390005C43FF1F030010B5002801D1002010BD91
:1063A00000780B4A002803D15988D1821B791376D3
:1063B0001378022BF2D10023984200D103331370DB
:1063C000044B1B78FF2B01D0FFF752FF0120E6E7BB
:1063D000A064FF1F5C43FF1F002911D000280CD0D0
:1063E0004B79012803D140225242134303E03F225C
:1063F0001340032802D001204B7170474022F4E77C
:106400000800FAE770B5094D0100287800280BD084
:10641000074C0622200005F083F821002878FFF7BA
:10642000DBFF200005F04CFA70BDC046C064FF1FC2
:106430009A64FF1F00290AD0012808D13F224B7916
:106440009343C02B03D0403B5A425341981C7047A2
:1064500070B5174D06002B78FF2B15D00A2005F0DC
:1064600077FA041E10D0D0230370C83B8370114B01
:1064700011491B784670C3700622043005F050F8AD
:106480002100287805F0F4F80C4B1B78012B0DD176
:106490000B4B1B68002B03D09B68002B00D0984748
:1064A000084B04211878084A05F0FAF870BDC04678
:1064B0005C43FF1FC064FF1F9A64FF1FBC64FF1F83
:1064C000E864FF1FEC64FF1F60EA0000014B98685E
:1064D0007047C046A064FF1F014BDB681868704717
:1064E000A064FF1F074B10B5DA681368013313600F
:1064F000054B1878FF2803D08021C90104F0F0FF74
:1065000010BDC046A064FF1F5C43FF1FF7B50E001F
:1065100002F0C8F8051E1CD00E4B06621F78002F33
:1065200000D10778AB791020019305F011FA041E11
:106530000FD0D0230380C73B8370019BE91DC3703C
:106540000622043004F0ECFF21003800E66005F07C
:106550008FF8F7BD5A43FF1F014B18787047C046AC
:10656000C064FF1F054B002805D1054B1A78054B69
:10657000002A00D1014B18007047C046B064FF1FCD
:10658000C064FF1F9A64FF1F014B58687047C046E4
:10659000A064FF1F024B1868431E9841C0B27047A9
:1065A000C464FF1F421E03000120152A03D9FF3BCC
:1065B0005A425341D8B27047F0B51C0000230E0078
:1065C00085B0039002920B70029A934201D300208F
:1065D00019E0E55C5A1CD2B2002DF8D0029851198E
:1065E0008142F4DC0233DFB2A35C18000193FFF7B1
:1065F000D9FF002807D0013D019A0399EBB233700F
:106600008A4202D1E01905B0F0BDDB19DBB2DBE74D
:1066100010B50C0002F09EF803001220002B03D0EE
:106620002100588805F0FCF810BD000070B50E4D33
:1066300084006359002B15D0186A002801D004F09B
:106640003FFF2B59586A002801D004F039FF2B591D
:10665000986A002801D004F033FF285904F030FF75
:1066600000232B5170BDC046D064FF1F1C4B70B57A
:1066700004000E00150099420AD11A4B1B68002B2A
:1066800001D1122070BD1B68002BFAD09847F9E7A2
:10669000154B994215D1134B1B68002B0AD01B6870
:1066A000002B07D09847002804D1104B1C70104BCA
:1066B0001D70E7E729002000FFF7AAFF0028E1D1BD
:1066C000F3E7080001F0EEFF0028DAD0037803209A
:1066D000A342D7D12900300005F0A2F8D2E7C04686
:1066E000FEFF0000CC64FF1FFFFF0000C964FF1F16
:1066F000C864FF1FF7B50400808801F0D3FF0025B0
:10670000A84203D00578A08802F008F81C4E337820
:10671000002B1FD0AB421DD11A4B28001978FFF770
:1067200077FF002818D000233370A3790820A778BA
:10673000A688019305F00CF9011E0DD0D02303703B
:10674000CA3B8370019B477086808371280004F0E8
:106750008FFF01E0002DE8D1A0880B4B8200D358B9
:10676000002B01D0FFF762FF1721A088FFF768FD1B
:10677000A08801F027FDA08801F0FEFDF7BDC0460E
:10678000C964FF1FC864FF1FD064FF1FF0B587B046
:106790001D000CAB1B88070001930DAB1B88142058
:1067A00002930EAB1B88160003930FAB1B8800915E
:1067B000049310AB1B88059305F0CAF8041E1AD089
:1067C000D0230370CB3B47708370C670062229002C
:1067D0000430002D11D004F0A3FE019B2100638141
:1067E000029B0098A381039BE381049B2382059B6A
:1067F000A37404F03DFF07B0F0BD04F049FEECE7E0
:10680000F7B5009308AB1B8807000C200D0016009D
:10681000019305F09DF8041E13D0280001F042FFFB
:1068200000280FD00078D0232370C93BA370009BB1
:1068300021002381019B6770A580E680638104F0BD
:1068400017FFF7BD014B1878EDE7C0465C43FF1F0B
:1068500013B5040064890389C2888188C0780094D4
:10686000FFF7CEFF13BD000010B5044C20680028D0
:1068700003D004F025FE0023236010BDD464FF1F65
:10688000A122F0B5818892004A43384B384F1B68EB
:1068900004009B189D2292009B18827989B01A608F
:1068A0003B68002B5FD01D78324B1B68002B04D057
:1068B0005B68002B01D00020984726000836310085
:1068C000E079FFF7B7FD237DE0710200E0780493E3
:1068D000638A29000393238A0293E3890193A3889F
:1068E00000933300FFF752FFE378002B0BD1E289CE
:1068F000A379A18802920196E279280000920122F0
:1069000001F0DAFEE0703B68002B20D0FFF7ACFF0F
:10691000194D287800281AD0184B1978FFF778FEFF
:10692000002814D02B78E67808200793A78805F074
:106930000FF8011E09D0D0230370CA3B4670837044
:1069400087808671079804F093FE00232B7017212F
:10695000A088FFF775FCA08801F034FCA08801F046
:106960000BFD09B0F0BD064B9DE7C0463409FF1F83
:10697000D464FF1FE864FF1FC964FF1FC864FF1FC2
:106980005C43FF1FF8B5070008000E0001F08AFE07
:10699000041E18D02620FFF78DFC051E00D1257897
:1069A000062004F0D5FF041E0DD00021062204F0BD
:1069B0006FFDD0232370C23B21006770A370A680B7
:1069C000E8B204F055FEF8BDF0B585B001930AAB0E
:1069D0001B78070002930BAB1B7808000D00009298
:1069E000039301F05FFE061E22D0102004F0B0FFDA
:1069F000041E1DD01022002104F04AFD2620FFF7BE
:106A000059FC002800D13078D0232370C13BA370FB
:106A1000009B21002372019B67706372029BA5801B
:106A2000A372039BC0B2E3720C9BE36004F020FEF0
:106A300005B0F0BDF7B50D00019001F033FE071E63
:106A400020D00E2004F084FF041E1BD02620FFF768
:106A500031FC061E00D13E78D0232380C53B0622A0
:106A6000A370F91DE01C04F05BFD019B2A0063810B
:106A70000123DD401A401D40210022736573F0B2EE
:106A800004F0F6FDF7BD0000F0B585B002901000EF
:106A90000D0017000A9E039301F004FE041E31D07E
:106AA000029B002B2ED1039B02795B0724D5122376
:106AB00013430422002E08D10B99002905D10C990B
:106AC000002902D10D9900291AD01A430D9B227179
:106AD000002B00D0C9E0002E00D1CFE0002D00D067
:106AE000CCE0606A002801D004F0EAFC1C213000F0
:106AF00004F036FF606205E002239A430E33D7E7C5
:106B000093432371654BBA00D458002C00D1AAE0FE
:106B1000002E10D0236A002B03D11C2004F078FC37
:106B200020625E4BBA00D358186A002803D01C229A
:106B3000310004F0F5FC0C9B002B12D0574CBB002D
:106B40001D596B6A002B03D1162004F061FC6862AA
:106B5000BB00E358586A002803D016220C9904F0B1
:106B6000DFFC0D9B002B11D04C4DBC006659B36A65
:106B7000002B03D1142004F04BFCB0622B59986A0F
:106B8000002803D014220D9904F0CAFC380001F04B
:106B900089FD051E67D0414BBA00D358002B62D047
:106BA0001A6A3420002A00D11C389A6A002A01D0BF
:106BB000143080B20B9A002A01D01C3080B25B6A7C
:106BC000002B01D0163080B204F0C2FE041E4AD061
:106BD0001822002104F05CFC2620FFF76BFB0190DB
:106BE000002801D12B780193D0232370029B200031
:106BF00063700A23294EA370039BBD00A371AB5998
:106C0000A780196A1830002905D01C22A06004F062
:106C100087FC200034307359996A002907D003009B
:106C200014221433E060029304F07AFC02980B9B68
:106C3000002B08D003001C221C330B992061029307
:106C400004F06EFC02987359596A002903D0162289
:106C5000606104F065FC6B462100187904F008FDC2
:106C60003800FFF7E3FC05B0F0BD10220D9B0D9935
:106C70001B69A018236204F053FC2CE70B9B002B2C
:106C800000D13FE7012D00D03CE7606A002801D029
:106C900004F016FC1C210B982AE7C046D064FF1FA5
:106CA00010B5044C2068002803D004F009FC002330
:106CB000236010BDC464FF1F0B4B07B51A68002A80
:106CC00001D100200EBD6946531C01201278073106
:106CD000FFF772FC0028F4D002780123100018405E
:106CE0001A42EED0EEE7C046E064FF1FF0B51F4F3A
:106CF00001203B6887B0002B25D09B78059300F0DE
:106D0000B3FB002821D00A20FFF7D4FA04000B209F
:106D1000FFF7D0FA164B05001E78731E9E413B68A4
:106D2000F6B2191DD878FFF757FB3B682900DA7ACD
:106D3000043303929A790193029200903300200069
:106D4000059A04F0E5FB07B0F0BDFFF7B5FF00289A
:106D500005D00620FFF7AEFA04000720D8E7082088
:106D6000FFF7A8FA04000920D2E7C046C464FF1F59
:106D7000C064FF1F70B50A4E040033780D00FF2B6E
:106D80000DD0042004F0E4FD011E08D0D0230370D0
:106D9000CE3B45708370C470307804F069FC70BDE0
:106DA0006C43FF1F70B5040006200D0004F0D0FDF9
:106DB000011E0AD0D0230370CD3B8370054B447075
:106DC0001B688580187804F053FC002C01D0FFF775
:106DD00067FF70BDC464FF1FF8B5264F06003B680F
:106DE0000D001124002B05D10522234B1B781342E3
:106DF00002D112242000F8BD204A10241268002A73
:106E0000F8D01278002AF5D0DB0719D52B789A1E16
:106E1000012A1AD80C2004F0FBFA13243860002849
:106E2000E8D000230A22437029000670023004F0E3
:106E300077FBFFF75BFF041E0AD0FFF731FFD9E7AE
:106E400000F012FB0028E1D1E4E7002BE2D0D0E70C
:106E50000B4B1B78032BCDD11D20FFF72BFA094BD1
:106E600018800028C6D0084B04211878074A04F07F
:106E700017FCBFE7C464FF1FC164FF1FE064FF1F6E
:106E8000C064FF1FBE64FF1FEC64FF1F60EA0000C8
:106E9000F7B50193194B14001A78052306000F006B
:106EA00012201A4221D0012920D1154B1D68002D36
:106EB0001BD002201F2C18D8002C02D0019B002BC5
:106EC00013D0104B1F221E706E1C0021300004F0E6
:106ED000DFFA01992200300004F022FB310020008B
:106EE0002C70002F06D004F08BFCFEBD064B122048
:106EF0001D68DCE704F04CFAF7E7C046C164FF1FE9
:106F0000E064FF1F6C43FF1FDC64FF1FF8B50F4EEA
:106F100012243368002B17D01B780F3C834213D107
:106F200000250B4F0221387804F052FA094B042156
:106F300038781D8004F04CFA074B28001D80336818
:106F40005C7004F005FA04002000F8BDC464FF1F63
:106F5000EC64FF1FD864FF1FBE64FF1F70B50128DB
:106F600023D11B4C2388002B03D01A4A1578002DFF
:106F700007D0194B1B68002B02D01878FFF7C6FF0B
:106F800070BD3B2B02D93C3B2380F9E7134E022115
:106F9000307804F01DFAFA222388920002215A4325
:106FA000307804F06DFA2580EAE70B4B1B68002B64
:106FB000E6D00B4B1B785B07E2D5084B0221187813
:106FC00004F006FA0022024B1A80FFF769FED7E7A9
:106FD000D864FF1FBC64FF1FC464FF1FEC64FF1F65
:106FE000C164FF1FF8B51E4D2868002803D004F0C7
:106FF00067FA00232B601B4E3068002803D004F092
:107000005FFA00233360184F05243B7818002040B6
:10701000234221D0154800F02BFA3B78234213D0AD
:10702000202004F0F5F92860002813D02022002148
:1070300004F02EFA202004F0EBF9041E306005D095
:107040002022002104F024FA002004E0286804F043
:1070500037FA2C601320F8BD00F00AFAF4E7C046B6
:10706000E064FF1FDC64FF1FC164FF1F6043FF1F5C
:1070700010B50A4C23681A1E0ED0002808D1013022
:10708000587004F065F9002805D02368002B02D061
:107090000021FFF787FE0122100010BDC464FF1F0E
:1070A000F7B5274E050033680191181E21D05C7892
:1070B000244F012C30D1FFF7FFFD002825D0200000
:1070C000FFF7F8F80400412814D91F4B0221187863
:1070D0001E4A04F0E5FA1E4B3C3C1C800222336839
:1070E0005A703B78002B14D128000199FFF75AFE03
:1070F0000120FEBDFA2292004243002AEED0124B3C
:107100000221187804F0BCF9E8E7FFF7D3F8020091
:10711000F3E700233B70EBE73B78002BE8D103203B
:1071200004F016FC011E08D0D0230370CC3B457040
:1071300083703368187804F09BFAFFF7B1FDD7E746
:10714000C464FF1FBC64FF1FEC64FF1F60EA000003
:10715000D864FF1F10B51749838802008B4220D0E6
:1071600011D815498B4217D0144900205B1899B2E9
:10717000012907D8926811785A425341D8B2FFF7D3
:10718000F9FD012010BD0E4A00209B1807229BB27A
:107190009A424041C0B2F5E783681878FFF768FF6C
:1071A000F0E7836899785A78090218781143FFF755
:1071B00077FFE7E70A20000006200000F8DFFFFF66
:1071C000AFDFFFFF014B18707047C0466D43FF1FD4
:1071D00010B5064C207001F041FA207804F008FB4D
:1071E0000521207800F062FD10BDC046EC64FF1F51
:1071F0000BB273B50D00002B00DBC4E0884B187890
:1072000004F01EFA041E0ED00378912B0FD0A22B8F
:1072100000D1A1E0834B1878FF2852D0210004F060
:1072200027FA00284DD180200002684076BD4378BF
:107230000F2B76D013D8052B70D00E2BEAD1808877
:10724000794B98422BD8794B98421BD8784B98426F
:10725000E0D1A3681878591CFFF774F838E03E2B8A
:10726000D8D18378032B74D06CD8012B6ED0022B2D
:10727000D0D1704B1B68002B23D05B68002B20D033
:1072800098471EE06C4BC0180C28C3D804F0A8F92E
:107290001DC2C2150BC20B0B0B3223C23C00674B45
:1072A000C0180728B6D8664B1B68002B09D01B688E
:1072B000002B06D0200098470AE0A3681878FFF753
:1072C000C7F8200004F034FBADE7A068FFF762F8D0
:1072D00000289FD0F5E7A3681B78002BF1D0554B11
:1072E0001B68002BEDD01B68002BEAD0210055480D
:1072F0009847EDE74F4B1B68002BE2D01B68002B33
:10730000DFD021005048F3E7504B1B68002BD8D04A
:107310005B68002BD5D021004348E9E7FFF7EAF985
:10732000CFE780884A4B984203D04A4B984200D01E
:1073300070E7464B1B68002BC3D05B68002BC0D0A6
:107340002100D5E7153B012BBBD963E7FFF798FA7E
:10735000B7E7FFF77DFAB4E73F4B1B78042B07D163
:1073600000236A4613800179408800F0C5FCA8E735
:10737000364B1B68002BA4D05B68002BA1D001000A
:10738000364898479DE7012421420AD0294B1B68C3
:10739000002B04D05B68002B01D00020984701200F
:1073A00043E78B070AD5264B1B68002B04D05B688C
:1073B000002B01D020009847022036E70421280046
:1073C00008400D4200D131E7254E3388002B21D0F3
:1073D000013B9BB23380002B1AD1FFF7DBF800286A
:1073E0000AD0204B1C70164B1B68002B04D05B6826
:1073F000002B01D020009847FFF7C6F8694601F03E
:1074000001FD6846FEF7FEFF1D20FEF753FF3080AA
:1074100004200AE7024B187803F0DAFFF8E7C046C9
:10742000EC64FF1F6D43FF1F0E20000001200000D1
:1074300009100000E464FF1FFEDFFFFFAFDFFFFF66
:10744000E864FF1F0C2000000B200000CC64FF1F2D
:107450000D20000013200000C164FF1FFFFF00008B
:10746000BE64FF1FBC64FF1F10B501F09BF910BD87
:10747000014B18607047C046E864FF1F0B8800206E
:10748000162B01D817230420014A13807047C046E9
:107490009664FF1F00207047074A0300118881424D
:1074A00007D091880020994202D101308000101845
:1074B00070470020FAE7C046F464FF1FF0B58F78EC
:1074C00006000D00C5B01E2F15D1FFF7E5FF051E04
:1074D00003D10024200045B0F0BD00223B00310064
:1074E000C078009200F0B2FB0400A81C00F0D2FBB0
:1074F000FF23EB70EEE7264B062403931B78FF2B4C
:10750000E8D0182FE6D87B08224A013BDB00029224
:107510009A589446002ADDD0029AD3185B68002B53
:10752000D8D00878002802D14B78012B02D106244C
:10753000122FCFD107AFAB88697800976446AA684D
:10754000A047041EC6D1AB78029A5B08013BDB0062
:10755000D318390030005B689847041E0BD1AB7814
:10756000042BB6D0039A310010782200009700F067
:107570006DFB0400AEE76A78002AABD1AA7805A9B2
:107580003B88087130000A704B80FEF747FBA0E78C
:107590007043FF1F44BB00111D4B37B505009842D7
:1075A0000BD000290AD1FFF777FF002805D1194831
:1075B000FFF772FF002800D0058037BD01291AD1DE
:1075C000FFF76AFF041EF8D001235B420380A37813
:1075D000FF2BF2D0FE2B07D00023E078142200937B
:1075E00029001E3300F032FBA01C00F053FB0123E6
:1075F0005B426380E1E70229DFD1013901F0BEF887
:107600000028DAD12800FFF747FF041EDFD1D4E7B6
:10761000FEFF0000FFFF0000022210B5074B5242A0
:107620001A80074801325A809A80DA8000F07EFA88
:10763000044801F025F8002010BDC046F464FF1F87
:10764000BD740011997500110388F7B50400002B73
:1076500002D102252800FEBD426802211378254888
:107660005268FEF7A5FD00282ED0234F01253A8849
:10767000002AEFD0802321885B0201259B1A9942C2
:10768000E8DC0C2003F0C4FE061E31D03B882288C3
:107690009C4600231800019561469DB2491989B2A4
:1076A000AA421BD8002801D062443A80002330004F
:1076B000082208C0210003F033FF104A1368002B92
:1076C00013D100251660C5E76268022113780C48C3
:1076D0005268FEF76DFD0028C7D1BAE760681D014A
:1076E0004019418101330198D6E71A001B68E6E78B
:1076F0001325AFE7B2BB00116E43FF1FF064FF1FFD
:10770000B0BB0011014B18707047C0467043FF1F9B
:1077100014230A0010B51A40194204D00122102186
:1077200001F048F810BD4B06F9D401208843400011
:10773000F8E710B514008B0604D50122102101F0E2
:1077400039F810BD08230A001A40194202D14BB281
:10775000002B0FDA102101F02DF8002808D02300AB
:10776000F2331B78002BECD0F1342378012BE8D1D5
:107770000020E6E703208907FAD4E2E7F0B51F000E
:10778000184B85B01C68019002910392002C27D100
:10779000200005B0F0BDA5683301ED186B89019A92
:1077A000934211D3029A93420ED8002F04D10A9B20
:1077B000002B10D12C00EBE73B002978039A686876
:1077C000FEF7F6FC0028F2D10136B6B2A388B34228
:1077D000E1D82468DAE7A3680A9A5B891380E9E7AD
:1077E0000026F3E7F064FF1F37B50C000A884988CC
:1077F0000123914217D3002A15D0651D23792A0051
:1078000002210A48FEF7D4FC102300280BD023796C
:107810006188208800242A000094FFF7AFFF0A2324
:10782000A04200D0230018003EBDC046B2BB0011EC
:1078300013B50A0008884988012388420BD800281C
:1078400009D00024137905320094FFF797FF0A232B
:10785000A04200D02300180016BD13B50A00088806
:107860004988012388420BD8002809D000241379C5
:1078700005320094FFF782FF0A23A04200D02300C4
:10788000180016BDF0B58BB003904A8808880E002A
:107890000123824255D3002853D00023012704AC92
:1078A00023700022718813000092FFF767FF051E06
:1078B0003ED02078002835D12B78022B18D1677064
:1078C0006A8983000130E31880005A8069680222C7
:1078D000201803F025FE23780133DBB22370042B3C
:1078E00019D93B006889013080B2002BD9D01FE044
:1078F00002236370122358436A89231804305A8084
:1079000069681022201803F00BFE23780133DBB2E4
:107910002370002BE5D10C4A6B899B185A425341C6
:10792000DBB2DFE76378012BE4D12B78022BC7D0E1
:1079300022780A23002A04D021000398FEF798F940
:10794000002318000BB0F0BD0100FFFF0F4BF0B596
:1079500004001868002816D083685D89A54207D8FE
:107960008288AE18B44203DA12019A18934201D108
:107970000068EFE71E005F891036A74204D1002996
:1079800000D00D801800F0BD3300EFE7F064FF1F5A
:1079900070B505000C0008880021FFF7D7FF030031
:1079A0000120002B04D022002800197AFFF7C1FE25
:1079B00070BDF7B50C00002501902300EE331B7855
:1079C000AB4201D800200AE06B00E65A00213000EB
:1079D000E718FFF7BBFF002802D126800130FEBD6B
:1079E000017A0198FFF794FE002802D03B8823809B
:1079F000F5E70135EDB2E0E710B504000888002195
:107A0000FFF7A4FF03000120002B03D02000197A08
:107A1000FFF77EFE10BD0000054B1B68002B01D157
:107A2000180004E09A6852898242F6D1988870471B
:107A3000F064FF1FF0B50E27002687B0039302AB5A
:107A4000FF183E8005001F4B40891400984207D064
:107A50002B78013000976A6880B2FFF78FFE06002E
:107A600002212B7818486A68FEF7A2FB00280FD085
:107A70006C892000FFF7D0FF002802D0013C0419D8
:107A8000A4B2039B002B00D01C80300007B0F0BDD7
:107A900002212B780D486A68FEF78AFB0028E7D19F
:107AA00002212B780A486A68FEF782FB002807D07B
:107AB000002EDED03B88A342DBD17489013CDFE796
:107AC0006C89DEE7FFFF0000B2BB0011B0BB001104
:107AD000AEBB001110B50C00FFF7DEFC0300022066
:107AE000002B0AD0002C00D023609B781720FE2B9F
:107AF00003D00138FF2B00D1002010BD73B50D005D
:107B000001A904001600FFF7E5FF172805D0002E95
:107B100004D129002000FEF727F976BD01221021AB
:107B2000200000F047FE0028F3D0F6E7014B186074
:107B30007047C0460065FF1F37B56B469D1D0100AD
:107B400004000222280003F0D3FD2B88B02B0ED1B5
:107B50002379122B09D12300FA331B78012B06D18C
:107B60000121608800F0E0F801E01B2BF8D037BD60
:107B700010B5054B0421187000F098F8FFF74CFD84
:107B8000FEF770FB10BDC0460465FF1F0020F0B576
:107B90000BB20F0087B0834234DA274B187803F01A
:107BA0004FFD051E2BD00378A02B25D103AE31004D
:107BB000FEF7E4F8041E0BD1B378DB0724D51F4B86
:107BC00006341B68002B03D03100688898470400F6
:107BD000A868002801D003F00BFC002C08D1184A3B
:107BE000039B1340174A934206D0B3781B2B03D054
:107BF0000121688800F098F8280003F099FE8020A1
:107C00000002784007B0F0BD0F4B1B68002B10D06E
:107C1000310068889847041EDAD07378002BD7D1DA
:107C2000B27801A90A704B800C716888FDF7F6FFE5
:107C3000CEE70624F1E7C0460465FF1FFC64FF1F82
:107C400000FFFF00000112000065FF1FF7B5019063
:107C5000FC200D0017001E0003F07AFE0400132024
:107C6000002C12D0B02320002370089BF4226770F0
:107C7000658026710830002B08D0190003F050FCF5
:107C80002100019803F0F4FC0020FEBD089903F0E8
:107C9000FFFBF5E710B5041E06D00078FD2803D8D9
:107CA00003F05EFDFF23237010BD00000A1F93B296
:107CB00010B504000220032B05D882400020024B9F
:107CC000D1529B189C7010BD2465FF1F0B8870B5A6
:107CD000043B04000D000220032B0BD801212000DF
:107CE00000F04CFD03001420002B03D029002000DD
:107CF00000F0DEFB70BD000007B51300034A0092E0
:107D00000A00012100F02CFC0EBDC046357F001199
:107D100007B5019203220092024B0A00122100F0E3
:107D200049FC0EBDB37F001107B56B4601AA118057
:107D30000449D88008780633012802D1190003F0DD
:107D4000F7FC07BD0565FF1F0C4B10B5187000232D
:107D5000FF210B4A1380138193819380094A53803A
:107D60001370517293819372D174D38213755177CA
:107D700003F01EFB00F0FCF910BDC0463465FF1F88
:107D80002465FF1F0665FF1FF0B58DB06B46002010
:107D900003910C229B5E834200DBB0E05D4B1878C0
:107DA00003F04EFC051E00D1A4E00378902B00D018
:107DB0009DE006AF01004688380000F013FA7968AC
:107DC0000400002900D19CE03B88052B6ED13B8943
:107DD000032B1CD905AC200000F0A2F86288172AFA
:107DE00061D83989131D994231D1796823780431DA
:107DF0000291D90738D5607800F08EF9071E06D0B9
:107E0000002303712378012B08D0132B23D0A868FB
:107E1000002800D178E003F0EBFA75E0628802995F
:107E200009A800F0A6F80290380000F08BF909AA22
:107E30002378387A0192002231000092029A00F0F1
:107E400012F9380000F064F9029B002BDFD03000FB
:107E500000F080F9DBE70378032BD8D16288029920
:107E600009A800F0D6F8DEE7122B13D1029909A871
:107E700000F0B5F8021EEAD127498B88002BC6D046
:107E8000887909A92378019161780091310000F087
:107E9000EAF8BCE7002302AA93833000617809AABC
:107EA000FFF72AFFB3E71D4B0993F6E7042B02D037
:107EB0009A1F012AABD8184A043B9B00995A002903
:107EC000A5D0D218907831003A0000F0AEF8002822
:107ED0009DD13B88042B03D001213000FFF724FF04
:107EE000012C04D1A868002801D003F081FA2800F1
:107EF00003F01EFD8020039B0002434018000DB0DC
:107F0000F0BD012800D182E701213000FFF70CFF0E
:107F1000EDE7C0463465FF1F2465FF1F0100170011
:107F20000B7803704B784370CB788A781B0213432D
:107F3000438070470A88030002700A88120A427060
:107F40000A88012A06D14A8882704A88120AC270B9
:107F50000420704702208242FBD14A8804309A7084
:107F60004A88120ADA708A881A718A88120A5A7143
:107F7000EFE710B50400012082420CD94B780A7853
:107F80001B0213432380834206D1CB788A781B02DD
:107F900013436380002010BD022BFBD1CB788A787D
:107FA0001B02134363804B790A791B021343A3809E
:107FB000F0E70B8803700B881B0A43704B888370B3
:107FC0004B881B0AC3708B8803718B881B0A437113
:107FD000CB888371CB881B0AC371082070470300CC
:107FE0000120082A14D14A780878120202431A8024
:107FF000CA788878120202435A804A7908791202B4
:1080000002439A80CA798879120202430020DA80FA
:10801000704710B504000120022A05D100204B78DA
:108020000A781B021343238010BDF8B50600102008
:108030000F00150003F08CFC04000120002C0ED072
:10804000A0230C22290023806780201D002D07D04B
:1080500003F066FA2100300003F00AFB0020F8BDAF
:1080600003F016FAF6E7F7B51E00009008AB1420EF
:1080700017001D78019103F06BFC041E12D0A2239F
:108080000370019B47704380099B057146710C2268
:108090000830002B07D0190003F042FA21000098A5
:1080A00003F0E6FAF7BD099903F0F2F9F6E737B500
:1080B000041E0FD04388002B0CD00025C188132349
:1080C000007A172201950095FFF7CDFFFF23658009
:1080D0006372257037BD000010B50C4904004A8852
:1080E000002A09D08B89002B05D00020CB8A0222E0
:1080F000834201D010BD012213000A204343002017
:108100004032C854C81842800472F3E70665FF1F66
:108110000023438003707047094B00211A0010B5FB
:108120005C88002C06D01C79844203D10A234B437F
:10813000D01810BD01310A330329F1D10020F8E72E
:108140000665FF1F10B50400407A03F009FBFF230A
:10815000637210BD7047043010B580B203F0D0F9DF
:10816000002803D00421494203F08AFB10BD00001F
:1081700070B50025104CA0682580A581A580A84277
:1081800002D003F035F9A56000250C4C0C4B606D56
:108190001D80230058331D70A84202D003F028F937
:1081A000656500256068002801D003F021F90135DC
:1081B00008340A2DF6D170BDCC65FF1F7065FF1F16
:1081C000C065FF1F70B5041E09D1054D2880A88128
:1081D000A880A868002802D003F00AF9AC6070BD3E
:1081E000CC65FF1FF0B54B8885B001930023436039
:1081F0000A7905000F00022A00D07BE0CA88032A12
:1082000017D98B685E7819783602DC78D8790E43F6
:1082100099781B7A24021B020C43034353495BBA2F
:108220000B80331D93421ED1042C04D0631F022BFC
:108230000ED9012015E0019A4D4B1201D35A002BA3
:1082400006D00198FFF7BEFF4A4A13690133136154
:108250000421B8682E812C80494203F011FB68602C
:10826000002005B0F0BD434D042C06D0631F022B47
:108270000FD9EB680133EB60DBE7019A3C4B12014D
:10828000D35A002B05D00198FFF79CFF2B690133CF
:108290002B61374B30000293019B029A1B01019323
:1082A000002301998C468B52130063449C800393F6
:1082B0009E81FFF750FF039B041E986016D0042197
:1082C000B868494203F0DCFAFA880100043A200059
:1082D00003F026F90199029AFB888A5A043B9B18FD
:1082E000029A8B522B6801332B60A2E7AB690133F2
:1082F000AB619EE71E4B0293019B1E01029BF35A4A
:10830000002B2DD002998C19A068002828D0012AB2
:1083100026D1FA889B189BB27352A189994217D330
:108320009B1AC018B96803F0FBF8029BA289F35AA4
:10833000934200D07DE700222B81A3882B80A36885
:108340006B60029BF2520B4A53680133536070E733
:10835000084A9368013393600198FFF733FF68E799
:10836000044A536901335361F6E7C0463665FF1F7F
:10837000CC65FF1F3C65FF1F70B5051E15D10B4C6A
:108380000B4B1880230058331870606D002802D002
:1083900003F02EF86565250050356068002801D08F
:1083A00003F026F80834AC42F7D170BD7065FF1FAA
:1083B000C065FF1FF0B51700A12285B092000193A0
:1083C0004243394B06001B680C009B18D933FF331E
:1083D0001D78FDF741FF0430854204DD3000FDF7D4
:1083E0003BFF0430C5B2BD4207D33A000021300044
:1083F000019B03F095FA05B0F0BD2900380003F0A9
:108400004FF82300C6B250331E700393019B29001E
:108410006365380003F06CF8CBB20293002B02D0F6
:10842000039B01361E7000262300503303931B78F4
:10843000B34204D8606D002831D10020DBE7029AF6
:108440002800002A04D0013B1000B34200D02800CD
:10845000F700E719387003F07BF9786000280ED038
:108460003A78019903F05CF8019A3B780136D31809
:108470000E4A0193D369F6B20133D361D4E7039B6B
:1084800018706065A74205D1084A1320D36A0133EA
:10849000D362B0E7606802F0ABFF0834F2E702F0A5
:1084A000A7FF00236365C8E73409FF1F3C65FF1F72
:1084B000F7B50D0007000421686803F0E1F92B8986
:1084C000040003702B891B0A43702B8883702B8850
:1084D0001B0AC3702E8902250436F6B2F42E15D875
:1084E0001B4B9F4214D10C2003F032FA1135011EB0
:1084F0000CD0902303708E3B0371043B4380154BDB
:108500008460C680187803F0B3F800252800FEBD0B
:108510005C237B43104AD3180093583301931B7894
:10852000002B0FD10300320038000099FFF742FF03
:10853000019B05001B78002BE8D13800009902F060
:108540001FFFE3E7054A0725536A01335362DDE75E
:10855000FEFF00003465FF1F7065FF1F3C65FF1FB5
:10856000F0B587B0009017200F0016000193FFF7B9
:10857000F2FD1325041E19D00C98031E02D0019998
:10858000201D9847030AE370052302AAA070043057
:10859000908127700098667003A993800494FFF778
:1085A00087FF051E02D0200002F022FF280007B03E
:1085B000F0BD0000F0B587B01F000CAB1B78039135
:1085C000059301210DAB06001C78049200F0D6F84B
:1085D0001425002821D02000FFF77EFD0135041E60
:1085E0001BD01149059B0A7803700132D2B2131EC9
:1085F000C68001D101231A000B7022713000049B48
:1086000003990097FFF7ACFF051E09D12300210055
:108610000648074A093302F023FF280007B0F0BDDF
:10862000002363802370F8E73865FF1FAF800011D7
:1086300030750000F8B505000E00064C064F2368A3
:10864000002B02D03100280098470434BC42F6D1F8
:10865000F8BDC046DC65FF1FF065FF1F0123064A19
:108660005B425380002313715362044A13605360CA
:108670009360D36013617047F065FF1FDC65FF1FD7
:108680000200002310B506499C000859002801D1BA
:10869000625010BD0133052BF6D11320F9E7C04617
:1086A000DC65FF1F034A5388181A43425841404271
:1086B00010407047F065FF1FF0B585B002930AAB1C
:1086C0001F780CAB1B88009008000E0001920393EA
:1086D000FFF7E8FF05001120002D1BD10E48FFF722
:1086E000E1FF04001520002C14D006220B99A7717D
:1086F000E01D02F015FF019B30002371029B290051
:108700006371009B66802370039B6562E381FFF7C2
:1087100091FF280005B0F0BDFFFF000010B5FFF786
:10872000C1FF04000220002C12D060880121FFF755
:1087300081FF606A002801D002F0C2FE28220021D9
:10874000200002F0A5FE012300205B42638020711F
:1087500010BD000030B5074A074C5588010013785A
:108760000020A54204D05B1A59424B4158421040A8
:1087700030BDC046F065FF1FFFFF0000084A10B57E
:1087800001230C00904208D0FFF78CFF031E04D099
:10879000037923405A1E9341DBB2180010BDC04636
:1087A000FEFF0000024B1879431E9841C0B270478B
:1087B000F065FF1F70B504000D001600FFF772FF93
:1087C000002804D10D4B9C4200D0143070BD416A8A
:1087D00003790520002907D012221A40102A02D15D
:1087E0000520002EF2D10F20DB06EFD5897E0C206C
:1087F000A9428941494249420840E7E7FEFF00009B
:10880000030010B5002800D110BD0348034A418879
:108810009142F9D09847F7E7F065FF1FFFFF00008E
:10882000002330B5C45CCD5C6C40D4540133102BB4
:10883000F8D130BD0F23002210B5C45C6400224380
:10884000CA54C25CD209013BF7D210BD020001003C
:1088500010B52032103103F02BF810BDF0B58BB0FD
:108860000390102005931700049102F0D1FD0090B1
:10887000102002F0CDFD009B13240190002B05D0A9
:1088800000280CD11324009802F01AFE019B002B43
:1088900002D0180002F014FE20000BB0F0BD102032
:1088A00002F0B6FD0600102002F0B2FD1324050010
:1088B000002E00D1AEE0002819D01022002102F0D5
:1088C000E7FD32002900039802F0F2FF041E0ED1EA
:1088D00033787F2B51D830000099FFF7ABFF009B16
:1088E0001B787F2B53D801990098FFF7A3FF300026
:1088F00002F0E6FD002D02D0280002F0E1FD002C80
:10890000C1D1102002F084FD0600102002F080FD8D
:108910000290002E7CD0002878D03A000F3223003D
:108920000125121105D00F333B4015B25A42534175
:108930001BB26A1E1201002B33D0049BD2B29818CE
:108940000099029AFFF76CFF013D102200213000D0
:1089500002F09EFDADB2049F2D017D19AF4242D0C1
:10896000002C33D0300002F0ABFD029B002B00D175
:1089700089E7180002F0A4FD85E729003000FFF721
:1089800059FF28002549009AFFF74AFFA7E7290069
:108990000098FFF74FFF28002049019AFFF740FF9A
:1089A000A5E70F210F4004998A18D9B28F4208D940
:1089B000D15C06A819540133102BF6D1029A019903
:1089C000C0E7791A48424141C901F2E73900300055
:1089D00006AAFFF725FF3200039806A902F068FFF8
:1089E00010370400BAE7002CBCD13000029906AA67
:1089F000FFF716FF320006A9039802F059FF08227C
:108A000004003100059802F08BFDABE71324A9E7C1
:108A10001324AAE7002800D06EE733E7B8BB0011A3
:108A2000F0B58BB00F0016000225009000283FD053
:108A3000002A3DD00B1DDBB21800029302F0E8FCC7
:108A40001135041E34D0FDF747FD05003A000099AA
:108A5000201D02F08DFFEBB20393E3702B0CDBB211
:108A60002F0A00936370FFB22B0E2370A77001933F
:108A7000FDF72CFD1022010006A802F079FF21006D
:108A8000029A04AB06A8FFF7E9FE051E0DD1039B71
:108A900008223370009B04A9B370019B7770F370B8
:108AA000301D02F065FFFDF71DFD200002F008FDFE
:108AB00028000BB0F0BDF0B58FB00D00149E0390F0
:108AC00004920593002A03D1022420000FB0F0BDC8
:108AD000002EF9D00398FFF7E5FD1424071EF4D00B
