:020000041100E9
:10300000002370B5284C0120636101F039FA40209B
:103010000223FE21254A207401F0B8FA002833D19A
:103020000223FF21224A207C01F0B0FA00282BD194
:10303000204BA2899A4224D1E3891F4A93420CD1A2
:103040001E4B63611E4B2268002A03D1002B01D066
:1030500023CB23C401F088FA70BD1A4A934201D0F1
:103060000023F0E7184B194A1B68934205D9C02288
:103070000421207C920001F003FB104B6361144B90
:10308000E1E700232374EBE7CC223820AC21920146
:10309000207401F0F5FA0028F3D10E4B63610E4B5A
:1030A000E3810E4BCFE7C0468463FF1F9063FF1F91
:1030B0009263FF1F5959000083050000E14200118F
:1030C00070BA001182150000A863FF1F871300006B
:1030D0007CBA00117D430011AAAAFFFF64BA001157
:1030E000F7B5164B0192C318021D002000938823E8
:1030F0005B05D3181B685C1C1AD09CB2402C18D8F6
:103100008D781E0CAC466746CD782D023D43AE420D
:1031100006D1019800280ED110000C70240A4C70C2
:1031200003249BB20733A343D218009B9A42DED3F9
:10313000FEBD4432F9E71000FAE7C046FC0F00007C
:10314000802213B503000324019189B25201073193
:103150009B18A14304305A1A88235B05C3181B68C7
:10316000591C03D190429241104016BD99B240299A
:1031700007D80B000733A343C0189042ECD30020BC
:10318000F3E74430F9E7134B134A1B68126810B594
:10319000FA24934201D81A00F824104BE4021B6869
:1031A0009A4210D813000E4A12689A420ED3013385
:1031B00007D1F823DB029C4203D10A49054808F0F5
:1031C000ABF8200010BDFC24E402ECE7FE24E4028E
:1031D000F7E7C04600C0071100D0071100E0071153
:1031E00000F00711FFFFFF7FF0B59BB015000490C2
:1031F0000391402A00D9A0E006AB59801A80FFF75E
:10320000C2FF0400042816D9002206A9FFF768FFB0
:10321000052810D906AB1B88AB420CD1002D07D076
:10322000514B2A000499C01808F0BEF9002802D1B9
:1032300001201BB0F0BD06AB1D8020000699FFF7F2
:103240007FFF041E7BD1069B0793FFF79CFF802323
:103250005B01C618802307001B039E4201D3F8269A
:10326000F60288235B05F31801931B68013302D033
:10327000019808F0C9F83D49019808F04DF83B1D48
:103280000293331D05938822029B52059B181B68ED
:1032900008935A1C3CD044219AB20091402A04D889
:1032A0000320D11D814389B2009103991B0C8B42ED
:1032B00024D0402A22D80122300008A9FFF710FFAD
:1032C000021E1BD1380008A9FFF70AFF04000428DA
:1032D00031D9009A059B9B1880225201B218934263
:1032E00040D288235B05C118009A09A808F05CF851
:1032F0001D4B009A09A9F01808F076F8009A029B75
:103300009446634402931A4B029AFB189A42BAD32A
:1033100088235B05FC1821680198013907F0FCFF40
:10332000200008F071F8039A07AB5A803000079923
:10333000FFF706FF0400002C03D1002079E70428E2
:10334000FBD988235B05E018069907F0E5FF032306
:10335000EA1C9A4300D16BE7034B0499E01808F08C
:1033600043F865E70424ECE704000011FFFFFF7F4A
:10337000F80F0000F7B505001400402A21D80027F7
:1033800001AE71803780FFF7FEFE042816D93A009F
:103390003100FFF7A5FE042810D93688BC420BD0B7
:1033A000BD4209D0221CB44200D9321C064B92B255
:1033B000C118280007F0F8FF30B2FEBDC04300B2CC
:1033C000FBE703204042F8E70400001137B5042270
:1033D00004000D0001A81649FFF7CCFF02000428E5
:1033E0000BD1019BA34208D3AB4204D0104901A8E2
:1033F0000195FFF7F9FE01203EBD0E4C2368200029
:10340000019308F001F8019920000139019107F0BA
:1034100083FF80235B01E418074B9C42EED104221A
:10342000034901A80195FFF7DFFE0020E4E7C0464D
:103430005555000000C007110000081130B589B0D3
:1034400008F0BAF910226946254808F0DDF8254B46
:10345000009A9A420ED1019B029A0F2B33D8002179
:1034600001240698013B08D2002900D00292029B59
:10347000013331D10023029325E0551CF2D1020023
:103480002100EFE710341022200004A908F0BCF856
:10349000029B013301D1069B0293882304995B05AB
:1034A000C918059B06981A03120B049105928142D4
:1034B00003D02B4201D107F077FF019B013B019321
:1034C000019B002BDED1029B002B03D004930498B8
:1034D0004168084709B030BDE025014C2D03EFE7F6
:1034E0000000011150485936F7B50F490F4B0A68D3
:1034F00004001A4084235B0013430B60030003277E
:103500001033019300252E00112007F0EDFF084B2A
:103510001B683B40AB4002351E43202DF4D1019B7C
:1035200040C4A342EED1F7BD5CF0004000FEFEFFB8
:1035300064F00040802270B5AD4CAE4BD20000214B
:1035400020001C6008F060F92300AB4A88331A6041
:10355000AA4B1A786E23002A00D01133E3620A23A3
:103560002365A74B1878A74BA0630138E361C3B26A
:10357000032B01D810232362A34B37226361C82396
:10358000DB00A36123008C331A60082336210F3A35
:10359000E518E16323646264E9670439251DE9677E
:1035A00025003B26BC352E602500C0352B6025004C
:1035B000C4352A6025000636CC352E602500083E2D
:1035C000C8352E602500D03529602100D4310B602C
:1035D0002100D8310A6021000225E0310D6025006C
:1035E0004221DC35296025001B3EE4352E60250094
:1035F000E8352B602500EC352A6022000525F432E1
:1036000015602200F03211602200183190321160F2
:1036100022009432136023003C2298331A60AF23B7
:10362000DB002360794B2363032805D808F024F9D5
:10363000330235371523636096232100FA225B009D
:10364000A360E360C8332361714BFC319200A36433
:103650000A6062626F4A704DA2627322E2656D3A3F
:103660006265A2650232E5644A60022161669621C4
:103670008900A166626709210022E166A2676749A5
:10368000674A684E2167E2673560032811D808F061
:10369000F3F896089EA61023CDE70E23CBE70C2364
:1036A000C9E720001A259C30056020000735A030AE
:1036B00005602000A83003602300FA20F833800062
:1036C000186023006420A433186023005F38AC33F3
:1036D000186023000338B03318602300C630B433B9
:1036E000186023000020B833186023003825FC330D
:1036F0009D604D4D5A665D644C4D9A64DD61962522
:10370000AD001D624A4D9A675D62F53DFF3D9D62C9
:103710001E25484ADD6618675867D9651966DA6755
:10372000BE23C021444A5B00E250444B4900635031
:1037300004316250C4225200A350FA23E4205B00FB
:103740000432A3500432A3503D493E4A3E4BD1605F
:103750003E49800019503E49E938FF3819503D492B
:10376000043019503C491038D1613C4911633C493F
:1037700051633C4911603C49195019003B48F831EC
:1037800008603B49D16582213A4A89005A501A00A3
:1037900039490832D1671A003849B432116088219A
:1037A000374A89005A501A00364988321160364A21
:1037B000DA6407F0F1FD012007F006FE70BD20007D
:1037C00014259C30056020000435A03070E72000EF
:1037D00010259C30056020000335A03068E72000EC
:1037E0000E259C30056020000235A03060E7C04601
:1037F0000004FF1F5866FF1FB06EFF1F1846FF1F13
:103800004A0AFF1F3A07000080C3C9019A0200005C
:1038100050C300006A180000280A0000204E000073
:1038200088130000F009FF1F00400011681000001D
:10383000C4090000DC05000040420F001027000012
:10384000FD1BFF1FFC00FF1F0000FF1F252FFF1F98
:103850004D32FF1FE530FF1FD91FFF1FF51FFF1F50
:10386000A121FF1F491FFF1FC528FF1F8D2CFF1F10
:10387000D918FF1FD127FF1F3925FF1F4525FF1F1F
:10388000491EFF1F011FFF1FC11DFF1FF7B50B0CB6
:10389000FF270122009300233C001E001D009446D8
:1038A000019089B262469A401000084018413618CB
:1038B000B6B2FF2F02D1012E00D19FB20098024074
:1038C0001A41AD18ADB2FF2C02D1012D00D19CB22E
:1038D0000133102BE6D10320012E07D1012D04D195
:1038E000019B2401E4191C700138FEBD102EFCD18F
:1038F0000238102DF9D00230F7E710B5064C2378C6
:10390000002B07D10548FFF7EFFD0548FFF7ECFD59
:103910000123237010BDC0461866FF1F2C66FF1FD1
:103920001C66FF1FF0B58BB00D000123019010291C
:1039300036D8FFF7E2FF00231A001B48C15C0133B1
:103940005218102BFAD1023B002A29D0174B184CE1
:103950001F68002306A9E25C1600FA5C56405E541C
:103960000133102BF7D102AA07F09EFF2A0002A90B
:10397000019807F0A9FD07F0D7FE23681B18236004
:1039800007F0D2FE63681B18636007F0CDFEA368E2
:103990001B18A36007F0C8FEE3681B18E360002350
:1039A00018000BB0F0BDC0462C66FF1FB844FF1FC7
:1039B0001C66FF1F0223F0B501245F4D5F4E2B7084
:1039C0005F4B91B01C705F4F0393336808207B708E
:1039D00006F062FA0023984205D07A78552A02D080
:1039E000332A00D09CE03360002006F0D5FC07F0BD
:1039F000B3FCFFF79FFD07F0E7FE1F220124002123
:103A0000514B10AE1A70514B1C70514B1970514BE9
:103A100019689143163A0A431A6060221968914363
:103A2000403A0A431A6007F007FF07F00DFEC12075
:103A3000FF21494B80001A588A431A50C522920030
:103A400098588843BF3901439950985843490840D2
:103A50008021C9010143802099509958C00509026D
:103A6000090A0143995080213D48490107F0A4FD0E
:103A7000032322003B49019400933B4807F044FD97
:103A80002C223A4905A807F08FFC05AC6178207814
:103A9000023406F021FAA642F8D10121002006F0F6
:103AA0002FFB0121092006F02BFB314B314A19680D
:103AB00003201140A022D2020A431A608022196812
:103AC00092040A431A6019682B4A1140802292031B
:103AD0000A431A60294B2A4A934200D8012007F072
:103AE00053FC07F049FE07F0BFFC287807F00CFEF6
:103AF000039B1878C0B207F037FD07F0A5FE2149F7
:103B0000042007F099FD06F013FC00F0AFF800F078
:103B1000E5FD00F077FE00F019FA002011B0F0BDCD
:103B200000932100174A042007F07EFC8023DB0568
:103B30009C62FFF783FC57E74A0AFF1F34F00040FE
:103B40001846FF1FB463FF1F480AFF1F490AFF1FE3
:103B5000680AFF1FBCF0004000E100E0FF00FFFF2B
:103B60001C46FF1FA058FF1F1C56FF1F88B90011DD
:103B700014F00040FF7FF8FFFFFF9FFFB06EFF1FB4
:103B80000080FF1F3B00010870B500252849294A25
:103B900029484D6308CA1B051B0DED188242F9D157
:103BA0000022264B8B63264B08211A628022254B6C
:103BB0009205DA67244BDA688A43DA60234A12787E
:103BC000012A03D09A6822490A409A600121EE2412
:103BD0002048E40002686C438A430260DA681120DE
:103BE0008A43DA6007F0D0FC112007F055FC112061
:103BF00007F092FE184A200C0400642390420AD871
:103C0000FA220023D200904205D9144B0A21C01891
:103C100007F062FCC3B2124A1372124BD4801B78B5
:103C2000002B04D1104B1021187807F035FE70BD21
:103C3000000005408805054000060540FF01000022
:103C400000F0004004E100E03CF000404A0AFF1FA1
:103C5000FFDFFFFF00380040B70B000030F8FFFF28
:103C60009C63FF1FD865FF1FD463FF1F002210B5A0
:103C70001100112007F020FE10BD0000F8B5002350
:103C800001250826394F3A4C3B62E3681120AB43CB
:103C9000E360E368B343E36007F0FEFB112007F045
:103CA00073FC112007F098FD40232268290013437C
:103CB000236080236268DB02134380226360A36871
:103CC00007201343A360A3682A4A1340A3608023FC
:103CD000A2689B0113431022A360236C93432364C7
:103CE000236C2B43236480235B003B62226B224BBB
:103CF0001A402263626B1A406263A26B1A40A2638D
:103D0000E26B1340E3631D4AE3681340E36006F08F
:103D1000C9F92900072006F0F3F98021184A11207B
:103D2000536C0B43536407F0AFFCFD21154B164A4F
:103D300089005A508023C720626B5B03134363637F
:103D4000E36880003343E360E368104A1D43104B8F
:103D5000E56019581140802212020A431A5080224D
:103D600092051A600B4B5E63F8BDC04600F0004040
:103D70003CF00040FFFFDFFFEFFFEFFFFFFF7FFFA3
:103D8000003800400000FF1F893B0011FF00FFFFCB
:103D900000E100E00000054030B503A804880B20D6
:103DA000002C0ED14968074D087849780902014373
:103DB0000A20A94205D1012120001980024B1B7A5B
:103DC000137030BD192A00009C63FF1FF7B5150062
:103DD00008AA16884A680F4F1478527812022243B4
:103DE0000A24BA4214D10122DBB2019200962A00C1
:103DF00007F0EAF9041E0BD1074B1B68002B07D014
:103E000068782A78000210434242504101309847B6
:103E10002000FEBD022900002063FF1F30B50125F0
:103E20000379040087B02B4212D00A49408806F07B
:103E30003BFD28420CD06A46074B69465B8D558096
:103E40001380064B60881B7A1371002203F00CFE6E
:103E500007B030BD1863FF1F6042FF1F9C63FF1F48
:103E600010B50549054806F0D5FC0421044A05486B
:103E700006F092FC10BDC0461863FF1FFFFF000054
:103E8000B4B900116042FF1F10B5024804F06EFC87
:103E900010BDC0461D3E0011062310B583701033BF
:103EA0000371443B43712A3383714433C37100234C
:103EB0000222012103720E4B027041701C88817234
:103EC0004472197A0273C1729A784273DA788273F3
:103ED0000322C2731A7902745A7942740C228274D2
:103EE0009A79C274DB7903751123C370152010BD54
:103EF0009C63FF1F10B5142007F01EFB124B142209
:103F00000021186007F080FC002007F01DFA012056
:103F100007F09AFA022007F0C7FB032003F0CAFE5D
:103F2000042005F0DFFE052003F00CF9062003F065
:103F3000D5FD072001F072F9082006F00DFC0920DC
:103F400000F054FF10BDC0462463FF1F10B507F0FA
:103F5000DBFC012007F088FB07F05EFA002010BDB3
:103F6000094B10B50400984205D0012904D1200066
:103F7000064906F04FFC10BD0229FCD1013904F0BE
:103F8000B3FB0028F3D0F6E7FEFF00004A63FF1FF3
:103F900030B501250379040087B02B4222D01249A5
:103FA000408806F081FC28421CD06A460F4B10491D
:103FB0001B8813800F235380243313716B460A220E
:103FC000581D07F0F1F96A4669460A4B1B68D3731E
:103FD0001A0A0A741A0C1B0E4A748B740022608829
:103FE00003F042FD07B030BD4A63FF1FFE42FF1FD2
:103FF0009C63FF1FC463FF1F70B50D7A100004AAF5
:104000002C00168810221440154220D1002E20D1F9
:104010000A78022A18D14A68517815780E4A09029E
:104020002943914205D00D4A914209D01C800A24AF
:1040300004E014220A491A8007F0B6F9200070BD86
:104040000C2208491A80F7E71C800124F6E70824AF
:10405000F4E70B24F2E7C046F3FF0000F4FF000092
:104060009C44FF1F94BA001110B50400074908488A
:1040700006F0D0FB074804F0B9FA0020E40704D5A5
:104080000721054A054806F087FB10BD4A63FF1F5C
:10409000FFFF0000613F0011F8B90011A442FF1FAB
:1040A0007FB50B4B0B491A7801A800F0DDFB6B467E
:1040B00080B25880002809D06A46074B69461B88A1
:1040C0001380064B0022188803F0CEFC07B000BD19
:1040D0002863FF1F2963FF1FFE42FF1FFE43FF1FD0
:1040E0007FB50B4B0B491A7801A801F00BFC6B460E
:1040F00080B25880002809D06A46074B69465B8D1C
:104100001380064B0022188803F0AEFC07B000BDF8
:104110005263FF1F5363FF1FA442FF1FFE43FF1F95
:10412000F7B50E00377A1C0008AB11003D001A8865
:1041300020231D401F423CD13378022B3BD17368B2
:104140001F785B781B023B431E4FBB4208D01E4FBB
:10415000BB4214D01D4DAB4221D00A252800FEBD24
:10416000002A2AD1142C2AD82200F06807F01CF962
:10417000174B1C70012CF1D9FFF7B2FFEEE7002AB4
:104180001BD1202C1BD82200F06807F00DF9114B31
:1041900004211C70104B187807F07EFBDEE7E3B2B9
:1041A0000124009201940A00310007F00DF8050087
:1041B000D4E70825D2E70125D0E70B25CEE70D256A
:1041C000CCE7C046F3FF0000F4FF00000229000026
:1041D0005263FF1F2863FF1FD463FF1F10B50248FF
:1041E00004F0C4FA10BDC046913F001170B516002E
:1041F00004AA148805AA15784A6850781178000234
:104200002A4A0843801805284BD807F035FB0313CA
:104210001E29343F0720042C0BD80522121BAA426A
:1042200000D92A0022491A803000091907F0BCF889
:10423000002070BD0720112CFBD81222121BAA42AD
:1042400000D92A001B491A80EEE707200E2CF0D86F
:104250000F22121BAA4200D92A0017491A80E3E74D
:104260000720032CE5D80422121BAA4200D92A00F9
:1042700012491A80D8E70720032CDAD80422121B2F
:10428000AA4200D92A000E491A80CDE70720032C44
:10429000CFD80422121BAA4200D92A0009491A8049
:1042A000C2E700220A201A80C3E7C046DCD5FFFF20
:1042B00043BA00117063FF1F33BA00112EBA001108
:1042C00029BA001124BA001110B50D21024A034881
:1042D00006F062FA10BDC04618BA00111443FF1F61
:1042E00037B5002000F0CCF8204D214BEA89287C1E
:1042F0009A422AD1042201A900F076F9040000F0C4
:1043000033F9002C30D16B4699882B68C9BA4B43DE
:104310002989184A1B145B1853806B46D9886B682F
:1043200049BA89B24B4369891B0C5B181248191CA6
:104330001BB2834200DD011C0B0400D50021138851
:1043400091800133138020003EBD0223002101AA89
:1043500000F01CF96A46040002230121287C063281
:1043600000F014F90443CAE70124ECE78463FF1F5B
:10437000830500009C63FF1F0F27000037B5012055
:1043800000F07EF81F4D07226946287C00F02CF9CA
:10439000041E33D16B461B787F2B2FD800F0E4F836
:1043A0006B46D878F02302041B031A406B469B88A7
:1043B00015495BBA9BB21A432B68000953432A89FB
:1043C0001B0C9B184B806B465A789B7812031B0181
:1043D0001A436B68024353436A891B0C9B180B48B2
:1043E0001A1C1BB2834200DD021C130400D50022FC
:1043F0000B888A8001330B8020003EBD00F0B4F8AA
:104400000124F9E78463FF1F9C63FF1F0F2700004F
:1044100010B50F4C237C002B0CD0382B0BD1012076
:1044200000F02EF8CC22AC21207C920100F028F97B
:1044300000F09AF810BD074BE2899A42FAD10120A8
:1044400000F01EF80021207C00F0FAF8F0E7C046EA
:104450008463FF1F8305000010B5084B1A7C002AF7
:1044600009D05B69002B06D09847041E01D0FEF7E7
:10447000C7FD200010BD0124F9E7C0468463FF1F7B
:1044800070B500210600162005F070FE01211520F0
:1044900005F06CFE07F0A0F80400092007F09CF975
:1044A00000222B4B2B4DDA6661321A6019685B3A99
:1044B0009143002E28D0023A0A431A60AC4209D137
:1044C0000A22DA6107321A6200221A639A63013201
:1044D000DA6370BD204A944203D11E22DA610532AC
:1044E000F1E71E4A944203D13022DA610632EAE74C
:1044F0001B4A944203D14322DA610832E3E7194AA6
:104500009442E1D16922F7E702220A431A60462267
:10451000AC4203D0104A944204D194225A6106322C
:104520009A61D1E70D4A944201D1E622F6E70C4A9E
:10453000944204D13422FF325A610D32F0E7094A25
:104540009442C1D1E62252005A610A32E8E7C046DD
:10455000005000400024F4000048E801006CDC0238
:104560000090D00300D8B80510B50024064B0920F0
:10457000DC6606F091FF2100162005F093FD210076
:10458000152005F08FFD10BD00500040F8B51C004F
:104590000023134D0F00EB666860160007F00CF95E
:1045A00001238022EB6623002F615200013B08D2D9
:1045B00006F09AFE08200B4A1168002C03D1200057
:1045C000F8BD2A61F2E72B6F034203D02B69013C4F
:1045D0003370013613685B1A032BEED90124EEE722
:1045E000005000406008FF1F002370B5124D1400FA
:1045F000EB6668600E0007F0DFF801238022EB66AF
:1046000023005200013B08D206F06EFE08200B4A40
:104610001168002C03D1200070BD2A61F2E72B6FD6
:10462000034203D02B69013C3370013613685B1AD7
:10463000032BEED90124EEE7005000406008FF1F75
:10464000002370B50C4C0D00E366606007F0B4F811
:104650000123E366256106F047FE8020074A8000BB
:104660001168636B034205D113685B1A032BF8D9F9
:10467000012070BD0020FCE7005000406008FF1FD3
:10468000002370B5134C0E00E3666060150007F060
:1046900093F80123E36626610F33626B1A42FCD064
:1046A0002B0A23611023626B1A42FCD0EDB2256104
:1046B00006F01AFE8020084A80001168636B0342EE
:1046C00005D113685B1A032BF8D9012070BD0020B7
:1046D000FCE7C046005000406008FF1F10B5084CC2
:1046E000E368002B08D1074B1B685B045B0C0A33A3
:1046F0006360054B1B68236006F0FEFEA06010BDE2
:10470000C463FF1FC8F00040CCF0004010B507F0B4
:1047100053F80F4B996A9A6A8A42FBD10D4C626832
:10472000A0688A18121A531E884200D31300A16091
:104730002168DA0B52185B0407495B0C6360226046
:104740000B60064B1A6006F0CFFD206810BDC04616
:1047500000F00040C463FF1FC8F00040CCF00040F0
:1047600070B51F4C23793F2B01D93F2323711D4B7B
:1047700022791A701878C0B206F06EFF18231A4911
:104780001A4A0B801A4913800B805380A379194968
:1047900080200B800C21938001334B430001191CB6
:1047A000834200D9011C144BD18019806379002BFE
:1047B00011D101336371237A012B01D802232372B3
:1047C0006279237A0D4853430A21584306F084FE48
:1047D0000B4D286070BDA02BEDD9A023EAE7C046A1
:1047E000B863FF1F480AFF1FFC43FF1FC445FF1F9C
:1047F000FA43FF1FA465FF1FF843FF1F710200006B
:10480000A863FF1FF8B512210020FEF7DFFD114C51
:10481000011E114D09D10C22104BC1CBC1C428007F
:1048200006F0F2FFFFF79CFFF8BD0C2220000C49B8
:10483000FEF7A0FD0C2802D0084B43CB43C40C224A
:1048400028000849FEF796FD0C28EBD00C22002129
:10485000E5E7C046B863FF1F8463FF1F88BA0011F5
:10486000FC0C0000F50C0000F0B5002604000D0063
:1048700085B0B24262D04B1C087801934B7889789E
:104880002F7909021943EB783F061B040B431F43A2
:10489000039720706670252800D172E012D8102886
:1048A0000AD806F0E9FF45E62B2B2B86948D2B2B9F
:1048B0002B2B2B2B2B2BC600232800D1A8E0FF236A
:1048C000637093E0562856D00FD8332800D198E073
:1048D000552836D02628F2D1934D132231002800D6
:1048E00006F092FFFEF78CFB5AE0722800D17FE0C1
:1048F000DC2800D1DCE0712800D16FE0DB2800D09B
:10490000F1E0042ADBD91026052A05D0561F320013
:104910003800691D06F048FD05222900200006F038
:1049200043FD32003900601D06F03EFD053605E00E
:104930000C2220007D4906F037FD0C26300005B022
:10494000F0BD013A7A4D0C2A13D8002A0AD028006B
:10495000019906F029FDFFF703FF0C222800754995
:10496000FEF742FC0C222900601C06F01DFD0D26FE
:10497000E4E70C22EBE76E4D6F4B2A0043CB43C2BA
:10498000E9E7013A684D0C2A11D8002A08D00199AC
:10499000280006F009FD0C2228006849FEF724FCD7
:1049A00013222900601C06F0FFFC1426C6E70C2227
:1049B000EDE705226249601C06F0F6FC0626BDE71D
:1049C00012226049601C06F0EFFC1326B6E70822AD
:1049D0005D49601C06F0E8FC0926AFE769781729F5
:1049E00000D96CE7594B188801F0E4FB0226A5E7D3
:1049F000574B012A03D06A781A706270F6E71B7869
:104A00005EE70A225349601C06F0CEFC0B2695E7B0
:104A1000042A04D9504D2F6006F06EFDA860FFF700
:104A200075FE0422039003A9601C06F0BDFC052658
:104A300084E74A4D062A15D906222800019906F076
:104A4000B3FD00280ED006220199280006F0ACFC28
:104A5000062243492800FEF7C7FB01233C4A117890
:104A60000B43137006222900601C06F09DFC0726EC
:104A700064E7931E3B4F1A2B04D86B78002B09D1A7
:104A800000F028F9384B39001E78601C721E06F0C1
:104A90008BFC53E7551E2A000199380006F084FC70
:104AA0003249AAB23800FEF79FFB00F049F9E9E766
:104AB000022A00D803E76B78BFB26370AB78A370AB
:104AC000032A05D0033A390092B2E81CFEF78CFBAA
:104AD00010223900E01CFEF74DFCC61C002800DB4C
:104AE0002CE7607082E7DA2800D0E8E6042A00D8D4
:104AF000E5E6082A15D9AB796A791B021343EA79EE
:104B000012041A432B7A1B0613433B603B680522B1
:104B100029002000039306F047FC0422601D03A92E
:104B200058E7FE236370F1E78463FF1F94BA001116
:104B3000B863FF1FFC0C000088BA0011F50C0000E0
:104B40009063FF1F7063FF1F3845FF1FFE43FF1F69
:104B5000B463FF1F9C63FF1FC463FF1F6509FF1F32
:104B6000ADAC0000B765FF1FB565FF1FAEDE0000EE
:104B700070470000020010B5094B0A32094C92B28E
:104B8000DA815A8298811882207802F079F9042219
:104B9000054B012120781A7006F07EFE10BDC0463C
:104BA000C244FF1F0266FF1F0166FF1F013870B578
:104BB000042809D806F060FE0309230812001E4BE2
:104BC0000221187806F068FE70BD1B4B082118788A
:104BD00006F092FB0022194B1A72F5E7802200249E
:104BE000164B154D52001A81082128781A68DC727C
:104BF00006F0F2FB2100287806F06EFDE4E70E4B8C
:104C00000821187806F078FB0D48FFF745F90D4BA1
:104C10000D4A9B7993800D4A13800022074BDA726C
:104C20000132FF321A810A4B1B78002BCCD0094A83
:104C3000136006F0F1FCC7E7D463FF1FA863FF1FF2
:104C40000744FF1FB863FF1FC445FF1FA465FF1F74
:104C5000B463FF1F34F0004010B5002905D10828C7
:104C600003D10131013005F04BFA10BD10B5012917
:104C70000FD108280DD10021013005F041FA054B74
:104C80001B78002B05D02622034B04485A72FFF7ED
:104C900071FF10BDD865FF1FA863FF1FC409000086
:104CA0000300F0B50A4D8E18B14202D152008018AF
:104CB000F0BD0C782F6824093C5D0F271C700C7820
:104CC00001313C402F683C5D5C700233ECE7C0462C
:104CD000F443FF1F0E22114B10B51A700D23104C18
:104CE00010492370093A043B0F48637006F05CFBDF
:104CF0002D2301220D490E48E371FFF7D1FF012258
:104D00000C49FFF7CDFF01220B49FFF7C9FF002235
:104D10000A491000FEF768FA10BDC046D465FF1FAF
:104D2000B565FF1F43BA0011B765FF1F6709FF1F75
:104D3000BD65FF1F6609FF1F6509FF1FAEDE00008E
:104D400070B5124C132220001149FEF713FB114DD0
:104D5000002817DDAB78002B14D0431C2B700923DF
:104D60006B70002300190370287829000130C0B24D
:104D700006F042FC297822000139C9B2002005F072
:104D800029FC70BDFFF7A6FFEEE7C046B765FF1F21
:104D9000AEDE0000B565FF1F10B5114B1A78187014
:104DA000002A0ED000280BD10E4B1A78062A07D8FD
:104DB0005423D340DB0703D50B4B187802F060F87F
:104DC00010BD0028FCD0074B1B78012B02D0033B01
:104DD000022BF5D8044B0121187806F05DFDEFE7B2
:104DE000D865FF1F0166FF1F0266FF1F70B5504E9A
:104DF000504A51493070082005F078FA0121092005
:104E000005F07EF9092005F05FFA0121002005F088
:104E100077F9002005F058FAFEF7F2F806F0ACFB3F
:104E2000032246494648FFF73BFF2D240300042296
:104E30001C7044490130FFF733FF30230470424DAA
:104E4000424C437083702E3B062220004049EB8782
:104E5000FEF790FA062813D0200006F03DFD022848
:104E600009D00321200006F0BFFB8D23E3706E3BC9
:104E7000237119336371062220003549FEF7B4F916
:104E8000344B1B68FC335C64FFF75AFF0020FFF7CC
:104E900083FF314C314A0121314B1278207801F0E7
:104EA000B1FF304A304B12780021207801F0AAFF80
:104EB00001222E4B1A702E4B5B78552B31D12D4B86
:104EC0003B325A722C4B2D4AAB81EA812B826A828B
:104ED0002021307806F0D8FC0120404205F0C6FBC6
:104EE0000120404205F062FCFFF7EEF9FEF7B8FF43
:104EF00000F0A0FC01204042FFF7B6F8012006F0C8
:104F0000F3FB172001F03AF90121307806F0C4FCD8
:104F1000307802F011F91A4806F04EFAFEF7AEFEAC
:104F200070BD6422174B5B7953431A000A32CBE7FA
:104F3000D463FF1F594C00116D4C00113845FF1F01
:104F40007063FF1F9063FF1FC244FF1F6509FF1FAF
:104F5000ADAC00005866FF1F0266FF1F2644FF1F0E
:104F60000744FF1FD465FF1FB565FF1FA665FF1F20
:104F7000B463FF1FA863FF1FC4090000CE0900002F
:104F8000D663FF1FB863FF1FF8B50A0020230D008A
:104F90001A40194251D0544B1B78002B3CD0FFF7DC
:104FA000B5FB524B524C534E99686268737A8A1A19
:104FB000DB039A4202D36160FEF760FE327A217A07
:104FC000531EDBB299422AD1FFF722FA637A002BF3
:104FD0001FD0013BDBB26372002B1AD1464B5B78CA
:104FE000552B01D106F018FBE37A002B0CD00023DF
:104FF000424A434FE3721388380001331380FEF7AF
:105000004BFF390006F040FA642370795843FFF7EC
:10501000B1FD237A0133237220206840F8BD91420C
:10502000D4D300232372FFF717FA354F3800FEF769
:1050300033FF390006F028FAC8E70BB2002B0ADA72
:10504000304B187806F070FC002801D006F074FB95
:1050500080200002E1E70224214206D0244B0120F7
:105060001A72FFF799FE2000D7E70B071BD5FFF751
:105070004DFB1E4B1E491F4C98684A68637A821A82
:10508000DB039A4202D34860FEF7F8FDFFF7E4F92C
:10509000FFF7BEF900F0E8FB2368DB0701D5FFF757
:1050A0009DF80820B9E710240E002640214206D0C2
:1050B0000D4B1B78002BD6D1FEF7E6FED3E701247B
:1050C000214209D0104800F06DF806F0A5FB310030
:1050D000092005F015F8C6E7042408002040214205
:1050E0009CD0FEF7DDFFBEE7D865FF1FC463FF1F3E
:1050F000A863FF1FB863FF1FB463FF1F9C63FF1FFC
:105100000744FF1FD463FF1FEC43FF1FF0B51B4B89
:105110001B4F1B883A8804001A4E1B4D85B09A42DB
:105120000DD832889A420AD3184B1A882B889A4293
:1051300005D1174A174B12881B889A421BD00520AD
:1051400001F072F83B8802AA1380338801905380E3
:105150002B88114D93800F4B02A91B88D3800F4BD6
:105160002A78188802F08AFD0D4B08212878019AC8
:105170001C7006F0F9FB05B0F0BDC046A265FF1F2C
:10518000FC43FF1FFA43FF1FA465FF1FA065FF1F1D
:105190009E65FF1FF843FF1F0266FF1FFE43FF1FB0
:1051A0009C65FF1F13B50C4B1C78002C11D10028F7
:1051B00001D00A4B18600A4A0A4B11780A4A107843
:1051C0000A4A01920A4A0092002205F0FBF82000E8
:1051D00016BD1124FBE7C0460166FF1F9865FF1F3F
:1051E0000066FF1FF065FF1F0266FF1FDC65FF1FE3
:1051F000E065FF1F10B5064B12201B78052B06D16A
:10520000044B13221988044B187801F0E9F910BDFA
:105210000166FF1FFE43FF1F0266FF1F10B500243B
:105220000122114B52421870104B1C70104B1A8007
:1052300001F082FF04220F4B21001A700E480C323D
:1052400006F01AF9102221000C4806F015F9072281
:105250000B4B1C600B4B1C700B4B1C700B4B1A70D8
:105260000B4B1C7010BDC0460266FF1F0166FF1F7E
:10527000FE43FF1F0066FF1FF065FF1FE065FF1F75
:10528000DC65FF1FB465FF1FB365FF1F0044FF1FF0
:10529000B265FF1FF8B5174C0600257806A8142440
:1052A0000078052D23D1B41F134FA5B21824BD4299
:1052B0001DD88D1FADB2BD4219D8FA256D00AA4286
:1052C00015D21D000D4F0A3DADB2BD420FD80C4C9A
:1052D00026800C4C21800C4900240A800B4A138044
:1052E000FFF714FF0A4B0421187806F005F8200098
:1052F000F8BDC0460166FF1F790C0000750C000068
:10530000FC43FF1FFA43FF1FA465FF1FF843FF1F65
:105310000266FF1FF0B50BB20D0089B0002B00DB59
:1053200070E1A44E307806F0FFFA041E50D00378E6
:10533000A22B00D122E1D02B1AD0912B45D143785A
:105340000E2B42D19C4B82889A423ED19B4A836865
:105350001278052A39D1032018567F2835D0984B6A
:105360001B68002B31D05B68002B2ED098472CE0B7
:105370008078072829D806F07FFA0428183F3F7460
:10538000A8D86378002B0CD101218C4B19708D4B60
:105390001A78002A5BD08C4B307801F033FD00285E
:1053A00055D00722854B1A7051E061780029F8D159
:1053B000E378002B11D0854A854B1278307801F0C4
:1053C00021FD60706378002BEBD1200006F0B4F96A
:1053D00080200002684009B0F0BD784B1B78022B9A
:1053E000F3D00121307806F067F80028EAD10121D6
:1053F000307806F051FAE5E76378002BD1D16F4F92
:10540000032807D13B78052B02D101333B701EE006
:105410000223FBE76F4B1A886F4B0293002A0BD0D5
:105420001B78002B03D00121307806F09DFA3B78E1
:10543000062B04D1013BE9E7029B1A70F7E7042B26
:1054400041D10121029B3078197006F025FA5C4B9E
:105450001B68002BB9D01B68002BB6D0574A1078B8
:1054600084E76378554F002B27D10622211D5B4826
:1054700005F09AFF62895A4B5A491A80A2895A4B01
:105480001A80E3890B800521397058490A80584AEF
:105490001380228A574B1A80574B1B78012B09D156
:1054A0001F2000F0C1FEFA2292004243042130780E
:1054B00006F05AFA0022484B75E7312B00D070E70E
:1054C0000022454B1A700323A0E70622002143481F
:1054D00005F0D2FF0023454A04211380444A307866
:1054E0001380444A138005F007FF0821307805F047
:1054F00003FFA379083B5A425341304A03331370E8
:10550000304B1B78002B06D0334B30781A78002AAA
:1055100006D001F0B5FC0122314B52421A8096E7C9
:105520000121197006F0B8F9F5E70821307805F087
:10553000E3FE6378002B00D047E72C4B2D4F0293FE
:10554000E388029A04211380294B3078039323893E
:10555000039A138063893B8005F0AEFF002800D0DA
:1055600033E7264B1B68002B00D12EE703990298E6
:105570003A88098800881B68984726E74379132BE7
:1055800000D022E70389012B0AD11D4B1B78022B87
:1055900006D10821307805F0AFFEFFF72BFE14E7A7
:1055A000052000F041FE08210200307806F0DCF909
:1055B0000BE7C0460266FF1F051400000166FF1FCF
:1055C0009865FF1F2644FF1F0744FF1FD465FF1F78
:1055D000B565FF1FD665FF1FD865FF1FA765FF1FB5
:1055E000FE43FF1FAE65FF1FB065FF1FA265FF1FD3
:1055F000A065FF1F9E65FF1FA665FF1F9465FF1F27
:105600009C65FF1F8020C001014200D0E2E6CB076D
:1056100031D5324B1B78002B1DD0314E05AC337881
:10562000052B1AD1023B23702E4B21001B782372CD
:105630002D4B1B7863722D4B187801F087FB0028E7
:1056400009D007202A4B30701B68002B03D01B6841
:10565000002B00D098470120BCE60E20254B0622E7
:105660001B7825492370254B1B78637002ABC0184B
:1056700005F09AFED8E7022308001840194209D025
:10568000174B1B78052B03D11D4B188806F01CF80F
:1056900002209FE60424214203D0FFF737FD2000BB
:1056A00098E6082308001840194200D193E6154BEC
:1056B0001C78012C03D0022C0DD008208AE6124B56
:1056C000124A134913481B881288098800880094DD
:1056D000FFF7E0FDF1E7FFF78DFDEEE7D865FF1F6F
:1056E0000166FF1F0044FF1FB265FF1F0266FF1F18
:1056F0009865FF1FB465FF1F0144FF1FB365FF1FBF
:10570000FE43FF1F9C65FF1FF843FF1FA465FF1F9B
:10571000FA43FF1FFC43FF1F10B502A804880B20AB
:10572000002C10D1496808784978090201430C48D7
:10573000814209D1022119800A4B59881170DB7806
:1057400000205BB2537010BD074C0A20A142FAD171
:1057500002211980034B998811705B79F0E7C046EC
:105760006E2A00009C63FF1F6F2A0000F7B515002A
:1057700008AA16884A680F4F1478527812022243FA
:105780000A24BA4214D10122DBB2019200962A0007
:1057900005F01AFD041E0BD1074B1B68002B07D028
:1057A00068782A78000210434242504101309847FD
:1057B0002000FEBD022900001466FF1F30B5012540
:1057C0000379040087B02B4227D01549408805F0A3
:1057D0006BF828420DD06A46124B69465B8D1380E8
:1057E00002235380104B5B8893806088002202F074
:1057F0003BF90E49608805F057F8C0070DD56A4699
:105800000B4B69461B88138002235380064B9B88F1
:1058100093806088002202F027F907B030BDC046AF
:105820000C66FF1F2844FF1F9C63FF1F0466FF1FB9
:105830008244FF1F10B5074C0749200004F0EAFF1F
:105840002000064904F0E6FF0721054A054804F058
:10585000A3FF10BDFFFF00000C66FF1F0466FF1FC3
:1058600014BB00112844FF1F10B5024802F07EFF50
:1058700010BDC046BD5700110200F0B501270A480F
:105880000A4E51188B1A002B00DCF0BD0824157845
:105890004308684038404000805B013C58406D0838
:1058A000002CF5D10132EDE7FFFF00002EBB001107
:1058B000F0B500250F269D4200DBF0BD4C5D0709C9
:1058C00044403440A400A05801357840F3E700007C
:1058D000F0B589B06A460D000B000F271100103596
:1058E0001C780133260024093E40167054700232A1
:1058F000AB42F5D12023024AFFF7DAFF09B0F0BD31
:1059000034BB0011F0B54E780B7889B036020C002C
:10591000170001901E43012A61D9954B9E4200D881
:1059200077E001339E421CD1062A17D1CA788B78C2
:1059300012021A430B791B0413434A7912061A43C5
:105940008C4B5A6100221A705A808B4A5A608B4ADB
:105950009A608B4ADA60002009B0F0BD88225205B7
:10596000EEE7884B9E423CD182498B78002B00D0D9
:10597000F6E00C2A31D10F22A3789343E278120289
:1059800013432279120413436279120613434B60C6
:10599000E279A07912020243207A00041043627A6D
:1059A00012060243CA60E27AA07A120202437648E3
:1059B0004A81834208D804236E49142201980B704F
:1059C00005F0F2FC1420C7E71201D21889235B0509
:1059D0009A42F0D801238B70BDE7022AFAD0052342
:1059E000EAE76A4A01239642E6D1FFF703FC052F56
:1059F0000CD9E378A2781B021343227912041A43CC
:105A000063791B061343624A0393136005F004FE97
:105A1000A1E7584D2B78002B9DD1AB78002B00D1FE
:105A2000A0E02B8901339BB20093B34200D091E0F8
:105A3000132AD4D9CF7C8B7C3F02122120001F4334
:105A4000FFF71AFF874200D08EE0002E3DD1E378A9
:105A5000A2781B0213432279E96812041A4363797E
:105A60001B06134303930A228B4212D1FF23A37018
:105A7000E370237163716B89002B09D1E37B227C76
:105A80001B0212041343A27B13431B0901336B81D6
:105A900000226B89002B8ED0002A67D168683701FD
:105AA0003818000B6B6900030390984205D96861B0
:105AB00005F0AAFCEB780133EB7068681022A11C9A
:105AC000381805F091FC2E8145E76F89009A7B1EFE
:105AD0009BB293423AD1E278A37812021A43237917
:105AE00005A81B04134362796C6812061A43EB681D
:105AF00000920392211D0C22049305F055FC012015
:105B0000260004A940421036FFF7E2FE013F012FB4
:105B100017D1009A0B232861824200D04CE704225F
:105B20001C49200005F060FC042203A9686805F008
:105B3000F3FCE968039AFF23914200D13CE7F73B6D
:105B40003AE73100FFF7C4FE1036DFE70923B7421A
:105B5000A4D831E7009BB34200D9FCE607232BE72A
:105B6000022329E7032327E7062325E70A2323E760
:105B7000FFFE00009C44FF1F00000111FFFF00001A
:105B80005048593601FF0000FFFF001102FF0000DE
:105B900034F00040A844FF1F10B5034C0B00012255
:105BA000210000F067FA10BD595D00110B8870B537
:105BB00006000D000224162B11D92B0003220949DF
:105BC00000F058FA041E0AD1074B2A881B88191CBA
:105BD000934200D9111C300089B200F0EBFA20008A
:105BE00070BDC046855D00117266FF1F10B54A7812
:105BF0000400013A0B000220012A07D80A78002A83
:105C000004D005222000024900F034FA10BDC0463D
:105C1000B35D00110A7810B50B0004000220002AC1
:105C200004D007222000024900F024FA10BDC0462B
:105C30005F5E00110A7810B50B0004000220002AF4
:105C400004D009222000024900F014FA10BDC04619
:105C5000C55E001110B5034C0B000B22210000F0B3
:105C600009FA10BDF55E001110B5034C0B000D22B2
:105C7000210000F0FFF910BD635F001110B5034C67
:105C80000B000F22210000F0F5F910BDB95F0011E3
:105C90000A7810B50B0004000220002A04D011225B
:105CA0002000024900F0E6F910BDC046C95F0011AE
:105CB000002310B51322190000F0DCF910BD00001C
:105CC00010B5034C0B001722210000F0D3F910BDD2
:105CD0001B600011002310B51922190000F0CAF949
:105CE00010BD000010B5034C0B001B22210000F07A
:105CF000C1F910BD55600011F7B584890D0006008B
:105D00000121002C22D000238268D3561778002B63
:105D10001EDA0C2C1AD90C3CA4B21319408800933B
:105D2000230002F07EFE431E984101307B06DB0F0C
:105D30006B703F23013C1F40A4B22870AF70AC8051
:105D4000002C07D0B3680133AB6000210800FEBD12
:105D50000020EBE7AC60F8E70B7803704B884370EA
:105D60004B881B0A83700B79C37004207047042092
:105D7000022B06D10020537811781B02009A0B43A6
:105D8000138070470B8803700B881B0A4370022036
:105D900070470420009983420AD1537810781B027F
:105DA00003430B80D37890781B02034300204B8081
:105DB0007047F8B50D004B7801240021461C037094
:105DC0002B788B4201D82000F8BD6B78B01C4F1C9B
:105DD000012B10D1890069184B88022233704B883F
:105DE000B9001B0A7370691805F06EFB04360434A1
:105DF000A4B2F9B2E4E7122359436B185A8804316C
:105E000032705B8810221B0A7370691805F05CFB06
:105E100012361234ECE770B5049D14001E00052BF9
:105E200001D8042070BD637812781B0213432B80C5
:105E3000E378A2781B02134302226B802A71211D92
:105E4000681D063E05F040FBB2B22A81102AE8D850
:105E50002800A11D0A3005F037FB0020E2E70023EF
:105E600010B50A789A4201D8900010BD9A008A189D
:105E70005488013304705488DBB2240A4470948837
:105E800084709288120AC2700430EAE710B51100DB
:105E9000029C062B04D004201022142B01D010BD2C
:105EA000022222714B7808781B0203432380CB78AF
:105EB00088781B02034363800431601D05F004FBF6
:105EC0000020ECE710B50C788B7804315C43E4B229
:105ED00003702200013005F0F7FA601C10BD0420A9
:105EE000022B06D10020537811781B02009A0B4335
:105EF0001380704710B50C000A88023105F0E4FAEF
:105F0000208810BD70B504000D0004981100012B0D
:105F100001D8042070BD16785278457612023243BB
:105F2000082502800476002C00D10C35023B9AB281
:105F30004280AA42EDD80231043005F0C5FA0020B3
:105F4000E8E70420009983420AD1537810781B02B5
:105F500003430B80D37890781B02034300204B80CF
:105F6000704710B50C000A88023105F0ADFA2088A0
:105F700010BD000070B501211E000420049C0E40DD
:105F80000B4216D1CB40DDB28D4212D90949DBB2AA
:105F9000098899420DD33300A57558001118497826
:105FA000165C0902314301332152D9B28D42F4D833
:105FB000002070BDBC44FF1F10B50C000A880231E0
:105FC00005F082FA208810BD10B50C788B7804316A
:105FD0005C43E4B203702200013005F075FA601CE6
:105FE00010BD10B511000298032B01D8042010BD7C
:105FF00014785278043B120222430280CA788C78CB
:106000001202224342809AB28280122AEED80431D0
:10601000063005F059FA0020E9E710B50C000B88AE
:1060200003700B881B0A43704B8883704B881B0AD4
:10603000C3708A880430063105F046FAA08804301F
:1060400080B210BD0420012B03D100201378009AE8
:106050001370704710B50C000B8803700B881B0A77
:1060600043704A880230043105F02EFA608802300D
:1060700080B210BDF0B589B003931E4B029242006E
:106080000700D05A019102F01CF81325061E2DD0EE
:10609000029B01240370019B002B04D0001903997B
:1060A0009847001984B26B461B7A5BB2002B0FDA5B
:1060B0001021380002F018FB1925002813D13000F8
:1060C0003219E1B202F062FC051E0CD10C34A4B20C
:1060D000042304AA380005A993800696948101F050
:1060E000ABFD051E02D0300005F03EF9280009B0D6
:1060F000F0BDC0467066FF1F70B505000C0000289B
:106100000CD00020814209D010222000044905F063
:10611000DBF901202B7823736B78637370BDC04665
:1061200074BB0011F0B506000D0017001C0085B00F
:1061300002291BD00020102907D1022B07D0102BD9
:1061400003D115E00020102C08D005B0F0BD694641
:106150003800FFF7D1FF2A0069460BE0694630009E
:10616000FFF7CAFF22006946380004E0022BE9D19C
:106170002A003900300005F0D7F9E6E7031C17289C
:1061800000D91723032008499AB2013A0B80D3178C
:10619000034006499B189B100B80D30F04499B18A2
:1061A0005B100B807047C046C044FF1FBE44FF1FFA
:1061B000BC44FF1F034B1B888B4202D3024B4000A1
:1061C000C1527047C044FF1F7066FF1F014B400063
:1061D000185A70477066FF1F1722014B1A807047CC
:1061E0007066FF1F70B505000E2005F025F9041E2E
:1061F00013D0D02303700023062283700749457013
:10620000033005F061F9064B2100DA8A62811B7EBA
:106210002373044B187805F0BFF970BD8C66FF1F1F
:106220007C66FF1F1045FF1F262803D8024B400045
:10623000C05A70470148FCE7C244FF1FFFFF00003F
:1062400070B506000C00094D1C220021280005F045
:1062500013F9074B1E70074B1C7005F065F80123FE
:10626000002801D0002312202B7070BD7C66FF1F18
:106270001045FF1F9D66FF1F70B505000D4C0800FF
:10628000E260A16010220021656005F0F5F90128A7
:1062900003D11021A06802F054FD10220021280033
:1062A00005F0EAF9012803D11021606802F049FDE8
:1062B00070BDC0467C66FF1F70B5041E05D1002965
:1062C00003D006220D4805F0FFF80D4B1D78012D77
:1062D00011D1002C05D102221A7005F08DFA280088
:1062E00070BD00221A70074B1B78FF2BF7D02000DF
:1062F000FFF778FFF3E70025F1E7C0468C66FF1F44
:106300007C66FF1F1045FF1F030010B5002801D158
:10631000002010BD00780B4A002803D15988D18293
:106320001B7913761378022BF2D10023984200D107
:1063300003331370044B1B78FF2B01D0FFF752FF80
:106340000120E6E77C66FF1F1045FF1F002911D0E2
:1063500000280CD04B79012803D14022524213432C
:1063600003E03F221340032802D001204B71704705
:106370004022F4E70800FAE770B5094D01002878DB
:1063800000280BD0074C0622200005F09DF82100C4
:106390002878FFF7DBFF200005F05EFA70BDC046ED
:1063A0009C66FF1F7666FF1F00290AD0012808D1CE
:1063B0003F224B799343C02B03D0403B5A42534179
:1063C000981C704770B5174D06002B78FF2B15D021
:1063D0000A2005F031F8041E10D0D0230370C83B0A
:1063E0008370114B11491B784670C370062204302C
:1063F00005F06AF82100287805F0CEF80C4B1B78E0
:10640000012B0DD10B4B1B68002B03D09B68002B7D
:1064100000D09847084B04211878084A04F0DCFFA4
:1064200070BDC0461045FF1F9C66FF1F7666FF1FAC
:106430009866FF1FC466FF1FC866FF1F60EA000062
:10644000014B98687047C0467C66FF1F014BDB68B4
:10645000186870477C66FF1F074B10B5DA68136831
:1064600001331360054B1878FF2803D08021C90140
:1064700005F012FA10BDC0467C66FF1F1045FF1FD5
:10648000F7B50E0002F0C4F8051E1CD00E4B0662D4
:106490001F78002F00D10778AB791020019304F00A
:1064A000CBFF041E0FD0D0230380C73B8370019B1A
:1064B000E91DC3700622043005F006F821003800FB
:1064C000E66005F069F8F7BD0E45FF1F014B18782F
:1064D0007047C0469C66FF1F054B002805D1054B41
:1064E0001A78054B002A00D1014B18007047C046AE
:1064F0008C66FF1F9C66FF1F7666FF1F014B586866
:106500007047C0467C66FF1F024B1868431E9841C7
:10651000C0B27047A066FF1F421E03000120152A6B
:1065200003D9FF3B5A425341D8B27047F0B51C0023
:1065300000230E0085B0039002920B70029A9342E2
:1065400001D3002019E0E55C5A1CD2B2002DF8D02E
:10655000029851198142F4DC0233DFB2A35C1800C7
:106560000193FFF7D9FF002807D0013D019A039955
:10657000EBB233708A4202D1E01905B0F0BDDB19ED
:10658000DBB2DBE710B50C0002F09AF80300122032
:10659000002B03D02100588805F0BEF810BD000084
:1065A00070B50E4D84006359002B15D0186A002871
:1065B00001D005F0F9F82B59586A002801D005F0F0
:1065C000F3F82B59986A002801D005F0EDF8285906
:1065D00005F0EAF800232B5170BDC046AC66FF1FE2
:1065E0001C4B70B504000E00150099420AD11A4BDD
:1065F0001B68002B01D1122070BD1B68002BFAD044
:106600009847F9E7154B994215D1134B1B68002B9E
:106610000AD01B68002B07D09847002804D1104BE4
:106620001C70104B1D70E7E729002000FFF7AAFF40
:106630000028E1D1F3E7080001F0EAFF0028DAD0F2
:1066400003780320A342D7D12900300005F064F875
:10665000D2E7C046FEFF0000A866FF1FFFFF000054
:10666000A566FF1FA466FF1FF7B50400808801F030
:10667000CFFF0025A84203D00578A08802F004F8D7
:106680001C4E3378002B1FD0AB421DD11A4B280073
:106690001978FFF777FF002818D000233370A3790B
:1066A0000820A778A688019304F0C6FE011E0DD02D
:1066B000D0230370CA3B8370019B4770868083712F
:1066C000280004F069FF01E0002DE8D1A0880B4B01
:1066D0008200D358002B01D0FFF762FF1721A0885A
:1066E000FFF768FDA08801F023FDA08801F0FAFD06
:1066F000F7BDC046A566FF1FA466FF1FAC66FF1F5F
:10670000F0B587B01D000CAB1B88070001930DABE3
:106710001B88142002930EAB1B88160003930FAB4B
:106720001B880091049310AB1B88059304F084FE32
:10673000041E1AD0D0230370CB3B47708370C67001
:10674000062229000430002D11D004F0BDFE019B6B
:1067500021006381029B0098A381039BE381049B3A
:106760002382059BA37404F017FF07B0F0BD04F06B
:1067700083FEECE7F7B5009308AB1B8807000C20FD
:106780000D001600019304F057FE041E13D02800DC
:1067900001F03EFF00280FD00078D0232370C93BC2
:1067A000A370009B21002381019B6770A580E68078
:1067B000638104F0F1FEF7BD014B1878EDE7C046A8
:1067C0001045FF1F13B5040064890389C2888188BE
:1067D000C0780094FFF7CEFF13BD000010B5044C45
:1067E0002068002803D004F0DFFF0023236010BDE1
:1067F000B066FF1FA122F0B5818892004A43384B52
:10680000384F1B6804009B189D2292009B188279C8
:1068100089B01A603B68002B5FD01D78324B1B6833
:10682000002B04D05B68002B01D000209847260085
:1068300008363100E079FFF7B7FD237DE0710200F3
:10684000E0780493638A29000393238A0293E389FF
:106850000193A38800933300FFF752FFE378002BE6
:106860000BD1E289A379A18802920196E2792800EE
:106870000092012201F0D6FEE0703B68002B20D090
:10688000FFF7ACFF194D287800281AD0184B19785B
:10689000FFF778FE002814D02B78E67808200793BD
:1068A000A78804F0C9FD011E09D0D0230370CA3B9C
:1068B0004670837087808671079804F06DFE002310
:1068C0002B701721A088FFF775FCA08801F030FC21
:1068D000A08801F007FD09B0F0BD064B9DE7C0465A
:1068E0003409FF1FB066FF1FC466FF1FA566FF1FA8
:1068F000A466FF1F1045FF1FF8B5070008000E0033
:1069000001F086FE041E18D02620FFF78DFC051E20
:1069100000D12578062004F08FFD041E0DD0002143
:10692000062204F0A9FDD0232370C23B210067702A
:10693000A370A680E8B204F02FFEF8BDF0B585B0D4
:1069400001930AAB1B78070002930BAB1B7808007E
:106950000D000092039301F05BFE061E22D0102072
:1069600004F06AFD041E1DD01022002104F084FDF5
:106970002620FFF759FC002800D13078D02323705F
:10698000C13BA370009B21002372019B677063725F
:10699000029BA580A372039BC0B2E3720C9BE360D1
:1069A00004F0FAFD05B0F0BDF7B50D00019001F05F
:1069B0002FFE071E20D00E2004F03EFD041E1BD02B
:1069C0002620FFF731FC061E00D13E78D02323801D
:1069D000C53B0622A370F91DE01C04F075FD019B68
:1069E0002A0063810123DD401A401D4021002273EB
:1069F0006573F0B204F0D0FDF7BD0000F0B585B0CE
:106A0000029010000D0017000A9E039301F000FE93
:106A1000041E31D0029B002B2ED1039B02795B0711
:106A200024D5122313430422002E08D10B990029E8
:106A300005D10C99002902D10D9900291AD01A43C9
:106A40000D9B2271002B00D0C9E0002E00D1CFE0B9
:106A5000002D00D0CCE0606A002801D004F0A4FE34
:106A60001C21300004F070FD606205E002239A43AF
:106A70000E33D7E793432371654BBA00D458002CEB
:106A800000D1AAE0002E10D0236A002B03D11C20D5
:106A900004F052FD20625E4BBA00D358186A0028F9
:106AA00003D01C22310004F00FFD0C9B002B12D0F0
:106AB000574CBB001D596B6A002B03D1162004F004
:106AC0003BFD6862BB00E358586A002803D01622D9
:106AD0000C9904F0F9FC0D9B002B11D04C4DBC001F
:106AE0006659B36A002B03D1142004F025FDB0626F
:106AF0002B59986A002803D014220D9904F0E4FC65
:106B0000380001F085FD051E67D0414BBA00D3580F
:106B1000002B62D01A6A3420002A00D11C389A6AED
:106B2000002A01D0143080B20B9A002A01D01C3008
:106B300080B25B6A002B01D0163080B204F07CFC7E
:106B4000041E4AD01822002104F096FC2620FFF7EC
:106B50006BFB0190002801D12B780193D023237087
:106B6000029B200063700A23294EA370039BBD0083
:106B7000A371AB59A780196A1830002905D01C22CF
:106B8000A06004F0A1FC200034307359996A0029F8
:106B900007D0030014221433E060029304F094FC45
:106BA00002980B9B002B08D003001C221C330B996E
:106BB0002061029304F088FC02987359596A0029F5
:106BC00003D01622606104F07FFC6B462100187927
:106BD00004F0E2FC3800FFF7E3FC05B0F0BD102242
:106BE0000D9B0D991B69A018236204F06DFC2CE726
:106BF0000B9B002B00D13FE7012D00D03CE7606AE2
:106C0000002801D004F0D0FD1C210B982AE7C046D3
:106C1000AC66FF1F10B5044C2068002803D004F0B8
:106C2000C3FD0023236010BDA066FF1F0B4B07B5FB
:106C30001A68002A01D100200EBD6946531C0120AC
:106C400012780731FFF772FC0028F4D00278012394
:106C5000100018401A42EED0EEE7C046BC66FF1F97
:106C6000F0B51F4F01203B6887B0002B25D09B78E3
:106C7000059300F0B3FB002821D00A20FFF7D4FAD7
:106C800004000B20FFF7D0FA164B05001E78731E88
:106C90009E413B68F6B2191DD878FFF757FB3B6859
:106CA0002900DA7A043303929A79019302920090D0
:106CB00033002000059A04F03FFE07B0F0BDFFF757
:106CC000B5FF002805D00620FFF7AEFA0400072024
:106CD000D8E70820FFF7A8FA04000920D2E7C04649
:106CE000A066FF1F9C66FF1F70B50A4E0400337834
:106CF0000D00FF2B0DD0042004F09EFB011E08D0D8
:106D0000D0230370CE3B45708370C470307804F09C
:106D100043FC70BD2045FF1F70B5040006200D0028
:106D200004F08AFB011E0AD0D0230370CD3B837090
:106D3000054B44701B688580187804F02DFC002CEE
:106D400001D0FFF767FF70BDA066FF1FF8B5264FA3
:106D500006003B680D001124002B05D10522234BB2
:106D60001B78134202D112242000F8BD204A1024BF
:106D70001268002AF8D01278002AF5D0DB0719D55E
:106D80002B789A1E012A1AD80C2004F0D5FB132464
:106D900038600028E8D000230A22437029000670DA
:106DA000023004F091FBFFF75BFF041E0AD0FFF7EF
:106DB00031FFD9E700F012FB0028E1D1E4E7002B16
:106DC000E2D0D0E70B4B1B78032BCDD11D20FFF772
:106DD0002BFA094B18800028C6D0084B04211878DC
:106DE000074A04F0F9FABFE7A066FF1F9D66FF1F80
:106DF000BC66FF1F9C66FF1F9A66FF1FC866FF1FC9
:106E000060EA0000F7B50193194B14001A780523C6
:106E100006000F0012201A4221D0012920D1154B63
:106E20001D68002D1BD002201F2C18D8002C02D06A
:106E3000019B002B13D0104B1F221E706E1C0021D3
:106E4000300004F019FB01992200300004F03CFBF3
:106E5000310020002C70002F06D004F06DFAFEBD2A
:106E6000064B12201D68DCE704F0C6FBF7E7C046BE
:106E70009D66FF1FBC66FF1F2045FF1FB866FF1FF2
:106E8000F8B50F4E12243368002B17D01B780F3C37
:106E9000834213D100250B4F0221387804F02CFADD
:106EA000094B042138781D8004F026FA074B28008E
:106EB0001D8033685C7004F0F7FA04002000F8BD10
:106EC000A066FF1FC866FF1FB466FF1F9A66FF1FFC
:106ED00070B5012823D11B4C2388002B03D01A4AFC
:106EE0001578002D07D0194B1B68002B02D018789D
:106EF000FFF7C6FF70BD3B2B02D93C3B2380F9E76F
:106F0000134E0221307804F0F7F9FA222388920018
:106F100002215A43307804F027FD2580EAE70B4B25
:106F20001B68002BE6D00B4B1B785B07E2D5084BA8
:106F30000221187804F0E0F90022024B1A80FFF7D2
:106F400069FED7E7B466FF1F9866FF1FA066FF1FA4
:106F5000C866FF1F9D66FF1FF8B51E4D28680028F4
:106F600003D004F021FC00232B601B4E3068002866
:106F700003D004F019FC00233360184F05243B783C
:106F800018002040234221D0154800F02BFA3B780E
:106F9000234213D0202004F0CFFA2860002813D019
:106FA0002022002104F068FA202004F0C5FA041E13
:106FB000306005D02022002104F05EFA002004E0B9
:106FC000286804F0F1FB2C601320F8BD00F00AFAE9
:106FD000F4E7C046BC66FF1FB866FF1F9D66FF1F33
:106FE0001445FF1F10B50A4C23681A1E0ED0002846
:106FF00008D10130587004F057FA002805D02368F2
:10700000002B02D00021FFF787FE0122100010BDE7
:10701000A066FF1FF7B5274E050033680191181EC3
:1070200021D05C78244F012C30D1FFF7FFFD0028E0
:1070300025D02000FFF7F8F80400412814D91F4B91
:10704000022118781E4A04F0C7F91E4B3C3C1C80F4
:10705000022233685A703B78002B14D12800019922
:10706000FFF75AFE0120FEBDFA2292004243002A99
:10707000EED0124B0221187804F076FCE8E7FFF717
:10708000D3F80200F3E700233B70EBE73B78002BDB
:10709000E8D1032004F0D0F9011E08D0D0230370FA
:1070A000CC3B457083703368187804F075FAFFF7AD
:1070B000B1FDD7E7A066FF1F9866FF1FC866FF1FD8
:1070C00060EA0000B466FF1F10B51749838802000C
:1070D0008B4220D011D815498B4217D0144900207B
:1070E0005B1899B2012907D8926811785A42534126
:1070F000D8B2FFF7F9FD012010BD0E4A00209B1801
:1071000007229BB29A424041C0B2F5E783681878E3
:10711000FFF768FFF0E7836899785A7809021878D2
:107120001143FFF777FFE7E70A2000000620000081
:10713000F8DFFFFFAFDFFFFF014B18707047C0465D
:107140002145FF1F10B5064C207001F03DFA207854
:1071500004F0C2F80521207800F05EFD10BDC046A5
:10716000C866FF1F0BB273B50D00002B00DBC4E037
:10717000884B187804F0D8FB041E0ED00378912BAE
:107180000FD0A22B00D1A1E0834B1878FF2852D05A
:10719000210004F001FA00284DD18020000268404F
:1071A00076BD43780F2B76D013D8052B70D00E2BDD
:1071B000EAD18088794B98422BD8794B98421BD8DA
:1071C000784B9842E0D1A3681878591CFFF774F8FF
:1071D00038E03E2BD8D18378032B74D06CD8012BA8
:1071E0006ED0022BD0D1704B1B68002B23D05B6874
:1071F000002B20D098471EE06C4BC0180C28C3D839
:1072000004F0CAFA1DC2C2150BC20B0B0B3223C20B
:107210003C00674BC0180728B6D8664B1B68002B8C
:1072200009D01B68002B06D0200098470AE0A3680D
:107230001878FFF7C7F8200004F07EFAADE7A068E1
:10724000FFF762F800289FD0F5E7A3681B78002BB2
:10725000F1D0554B1B68002BEDD01B68002BEAD0FA
:10726000210055489847EDE74F4B1B68002BE2D0B3
:107270001B68002BDFD021005048F3E7504B1B6800
:10728000002BD8D05B68002BD5D021004348E9E71C
:10729000FFF7EAF9CFE780884A4B984203D04A4B80
:1072A000984200D070E7464B1B68002BC3D05B6848
:1072B000002BC0D02100D5E7153B012BBBD963E7DC
:1072C000FFF798FAB7E7FFF77DFAB4E73F4B1B7873
:1072D000042B07D100236A4613800179408800F00F
:1072E000C1FCA8E7364B1B68002BA4D05B68002BC1
:1072F000A1D00100364898479DE7012421420AD0D9
:10730000294B1B68002B04D05B68002B01D00020A8
:107310009847012043E78B070AD5264B1B68002BB3
:1073200004D05B68002B01D020009847022036E78C
:107330000421280008400D4200D131E7254E338852
:10734000002B21D0013B9BB23380002B1AD1FFF7D9
:10735000DBF800280AD0204B1C70164B1B68002B52
:1073600004D05B68002B01D020009847FFF7C6F8D7
:10737000694601F0FDFC6846FEF7FEFF1D20FEF7A2
:1073800053FF308004200AE7024B187803F0B4FF63
:10739000F8E7C046C866FF1F2145FF1F0E2000000A
:1073A0000120000009100000C066FF1FFEDFFFFF84
:1073B000AFDFFFFFC466FF1F0C2000000B200000A2
:1073C000A866FF1F0D200000132000009D66FF1F10
:1073D000FFFF00009A66FF1F9866FF1F10B501F0BF
:1073E00097F910BD014B18607047C046C466FF1F77
:1073F0000B880020162B01D817230420014A138084
:107400007047C0467266FF1F00207047074A03009E
:107410001188814207D091880020994202D1013021
:107420008000101870470020FAE7C046D066FF1FA2
:10743000F0B58F7806000D008FB01E2F15D1FFF725
:10744000E5FF051E03D1002420000FB0F0BD00228F
:107450003B003100C078009200F0AEFB0400A81C95
:1074600000F0CEFBFF23EB70EEE7264B06240393E0
:107470001B78FF2BE8D0182FE6D87B08224A013B67
:10748000DB0002929A589446002ADDD0029AD31863
:107490005B68002BD8D00878002802D14B78012BEC
:1074A00002D10624122FCFD107AFAB88697800979D
:1074B0006446AA68A047041EC6D1AB78029A5B084E
:1074C000013BDB00D318390030005B689847041E8D
:1074D0000BD1AB78042BB6D0039A31001078220080
:1074E000009700F069FB0400AEE76A78002AABD190
:1074F000AA7805A93B88087130000A704B80FEF716
:107500004BFBA0E72445FF1F84BB00111D4B37B583
:10751000050098420BD000290AD1FFF777FF002819
:1075200005D11948FFF772FF002800D0058037BD4C
:1075300001291AD1FFF76AFF041EF8D001235B422C
:107540000380A378FF2BF2D0FE2B07D00023E07836
:107550001422009329001E3300F02EFBA01C00F023
:107560004FFB01235B426380E1E70229DFD1013950
:1075700001F0BAF80028DAD12800FFF747FF041E0F
:10758000DFD1D4E7FEFF0000FFFF0000022210B5AC
:10759000074B52421A80074801325A809A80DA809B
:1075A00000F07AFA044801F021F8002010BDC0462E
:1075B000D066FF1F317400110D7500110388F7B5F7
:1075C0000400002B02D102252800FEBD42680221E2
:1075D000137825485268FEF7A5FD00282ED0234FCA
:1075E00001253A88002AEFD0802321885B020125FB
:1075F0009B1A9942E8DC0C2003F09EFF061E31D056
:107600003B8822889C4600231800019561469DB264
:10761000491989B2AA421BD8002801D062443A8095
:1076200000233000082208C0210003F04DFF104A5B
:107630001368002B13D100251660C5E7626802218C
:1076400013780C485268FEF76DFD0028C7D1BAE7E1
:1076500060681D014019418101330198D6E71A0085
:107660001B68E6E71325AFE7F2BB00112245FF1FB9
:10767000CC66FF1FF0BB0011014B18707047C0466D
:107680002445FF1F14230A0010B51A40194204D0E4
:107690000122102101F044F810BD4B06F9D401205D
:1076A00088434000F8E710B514008B0604D501228A
:1076B000102101F035F810BD08230A001A401942C4
:1076C00002D14BB2002B0CDA102101F029F800286E
:1076D00005D0637E002BEED0237E012BEBD1002062
:1076E000E9E703208907FAD4E5E70000F0B51F00B9
:1076F000184B85B01C68019002910392002C27D191
:10770000200005B0F0BDA5683301ED186B89019A22
:10771000934211D3029A93420ED8002F04D10A9BB0
:10772000002B10D12C00EBE73B002978039A686806
:10773000FEF7F8FC0028F2D10136B6B2A388B342B6
:10774000E1D82468DAE7A3680A9A5B891380E9E73D
:107750000026F3E7CC66FF1F37B50C000A8849887E
:107760000123914217D3002A15D0651D23792A00E1
:1077700002210A48FEF7D6FC102300280BD02379FB
:107780006188208800242A000094FFF7AFFF0A23B5
:10779000A04200D0230018003EBDC046F2BB00113D
:1077A00013B50A0008884988012388420BD80028AD
:1077B00009D00024137905320094FFF797FF0A23BC
:1077C000A04200D02300180016BD13B50A00088897
:1077D0004988012388420BD8002809D00024137956
:1077E00005320094FFF782FF0A23A04200D0230055
:1077F000180016BDF0B58BB003904A8808880E00BB
:107800000123824255D3002853D00023012704AC22
:1078100023700022718813000092FFF767FF051E96
:107820003ED02078002835D12B78022B18D16770F4
:107830006A8983000130E31880005A806968022257
:10784000201803F041FE23780133DBB22370042BB0
:1078500019D93B006889013080B2002BD9D01FE0D4
:1078600002236370122358436A89231804305A8014
:1078700069681022201803F027FE23780133DBB259
:107880002370002BE5D10C4A6B899B185A42534157
:10789000DBB2DFE76378012BE4D12B78022BC7D072
:1078A00022780A23002A04D021000398FEF79EF9CB
:1078B000002318000BB0F0BD0100FFFF0F4BF0B527
:1078C00004001868002816D083685D89A54207D88F
:1078D0008288AE18B44203DA12019A18934201D199
:1078E0000068EFE71E005F891036A74204D1002927
:1078F00000D00D801800F0BD3300EFE7CC66FF1F0D
:1079000070B505000C0008880021FFF7D7FF0300C1
:107910000120002B04D022002800197AFFF7C3FEB3
:1079200070BDF7B50C0000250190A37DAB4201D8D6
:1079300000200AE06B00E65A00213000E718FFF74C
:10794000BDFF002802D126800130FEBD017A0198DA
:10795000FFF798FE002802D03B882380F5E7013529
:10796000EDB2E2E710B5040008880021FFF7A6FF9A
:1079700003000120002B03D02000197AFFF782FEBC
:1079800010BD0000054B1B68002B01D1180004E05E
:107990009A6852898242F6D198887047CC66FF1F58
:1079A000F0B50E27002687B0039302ABFF183E8088
:1079B00005001F4B40891400984207D02B780130F6
:1079C00000976A6880B2FFF791FE060002212B78CB
:1079D00018486A68FEF7A6FB00280FD06C892000C3
:1079E000FFF7D0FF002802D0013C0419A4B2039B8A
:1079F000002B00D01C80300007B0F0BD02212B7896
:107A00000D486A68FEF78EFB0028E7D102212B782B
:107A10000A486A68FEF786FB002807D0002EDED0F1
:107A20003B88A342DBD17489013CDFE76C89DEE748
:107A3000FFFF0000F2BB0011F0BB0011EEBB001114
:107A400010B50C00FFF7E2FC03000220002B0AD067
:107A5000002C00D023609B781720FE2B03D0013828
:107A6000FF2B00D1002010BD73B50D0001A904004B
:107A70001600FFF7E5FF172805D0002E04D12900D6
:107A80002000FEF72FF976BD01221021200000F022
:107A900047FE0028F3D0F6E7014B18607047C04658
:107AA000DC66FF1F37B56B469D1D010004000222F6
:107AB000280003F079FC2B88B02B0DD12379122BF1
:107AC00008D1A31CDB7F012B06D10121608800F0C7
:107AD000E1F801E01B2BF8D037BD000010B5054BD5
:107AE0000421187000F098F8FFF750FDFEF774FBC2
:107AF00010BDC046E066FF1F0020F0B50BB20F00BE
:107B000087B0834234DA274B187803F00DFF051E47
:107B10002BD00378A02B25D103AE3100FEF7ECF873
:107B2000041E0BD1B378DB0724D51F4B06341B682A
:107B3000002B03D03100688898470400A86800280B
:107B400001D003F011FC002C08D1184A039B13400C
:107B5000174A934206D0B3781B2B03D001216888C3
:107B600000F098F8280003F0E7FD8020000278403C
:107B700007B0F0BD0F4B1B68002B10D03100688898
:107B80009847041EDAD07378002BD7D1B27801A9B8
:107B90000A704B800C716888FDF7FEFFCEE7062463
:107BA000F1E7C046E066FF1FD866FF1F00FFFF0039
:107BB00000011200DC66FF1FF7B5019024200D00C4
:107BC00017001E0003F038FC04001320002C12D014
:107BD000B02320002370089B1C22677065802671EB
:107BE0000830002B08D0190003F06EFC210001982A
:107BF00003F0D2FC0020FEBD089903F03DFCF5E740
:107C000010B5041E06D00078FD2803D803F0A4FCAC
:107C1000FF23237010BD00000A1F93B210B50400AB
:107C20000220032B05D882400020024BD1529B1822
:107C30009C7010BD0067FF1F0B8870B5043B0400EB
:107C40000D000220032B0BD80121200000F04CFD79
:107C500003001420002B03D02900200000F0DEFBDD
:107C600070BD000007B51300034A00920A0001210D
:107C700000F02CFC0EBDC046A17E001107B501929C
:107C800003220092024B0A00122100F049FC0EBDB3
:107C90001F7F001107B56B4601AA11800449D880E7
:107CA00008780633012802D1190003F055FE07BDFC
:107CB000E166FF1F0C4B10B518700023FF210B4A23
:107CC0001380138193819380094A538013705172FA
:107CD00093819372D174D3821375517703F04CFE64
:107CE00000F0FCF910BDC0461067FF1F0067FF1FC2
:107CF000E266FF1FF0B58DB06B46002003910C22A9
:107D00009B5E834200DBB0E05D4B187803F00CFE15
:107D1000051E00D1A4E00378902B00D09DE006AFB3
:107D200001004688380000F013FA79680400002941
:107D300000D19CE03B88052B6ED13B89032B1CD9DD
:107D400005AC200000F0A2F86288172A61D83989B2
:107D5000131D994231D17968237804310291D907F2
:107D600038D5607800F08EF9071E06D00023037125
:107D70002378012B08D0132B23D0A868002800D12A
:107D800078E003F0F1FA75E06288029909A800F042
:107D9000A6F80290380000F08BF909AA2378387A07
:107DA0000192002231000092029A00F012F938008C
:107DB00000F064F9029B002BDFD0300000F080F966
:107DC000DBE70378032BD8D16288029909A800F079
:107DD000D6F8DEE7122B13D1029909A800F0B5F806
:107DE000021EEAD127498B88002BC6D0887909A9C1
:107DF0002378019161780091310000F0EAF8BCE746
:107E0000002302AA93833000617809AAFFF72AFFB2
:107E1000B3E71D4B0993F6E7042B02D09A1F012A02
:107E2000ABD8184A043B9B00995A0029A5D0D21818
:107E3000907831003A0000F0AEF800289DD13B88E0
:107E4000042B03D001213000FFF724FF012C04D1C3
:107E5000A868002801D003F087FA280003F06CFC22
:107E60008020039B0002434018000DB0F0BD0128A4
:107E700000D182E701213000FFF70CFFEDE7C0469B
:107E80001067FF1F0067FF1F010017000B780370CA
:107E90004B784370CB788A781B021343438070473A
:107EA0000A88030002700A88120A42700A88012AAE
:107EB00006D14A8882704A88120AC270042070472C
:107EC00002208242FBD14A8804309A704A88120A02
:107ED000DA708A881A718A88120A5A71EFE710B527
:107EE0000400012082420CD94B780A781B0213430C
:107EF0002380834206D1CB788A781B0213436380A8
:107F0000002010BD022BFBD1CB788A781B021343D3
:107F100063804B790A791B021343A380F0E70B8837
:107F200003700B881B0A43704B8883704B881B0AB5
:107F3000C3708B8803718B881B0A4371CB88837154
:107F4000CB881B0AC3710820704703000120082A50
:107F500014D14A780878120202431A80CA788878C5
:107F6000120202435A804A790879120202439A8027
:107F7000CA798879120202430020DA80704710B56E
:107F800004000120022A05D100204B780A781B0248
:107F90001343238010BDF8B5060010200F00150014
:107FA00003F04AFA04000120002C0ED0A0230C227A
:107FB000290023806780201D002D07D003F084FA5C
:107FC0002100300003F0E8FA0020F8BD03F054FA75
:107FD000F6E7F7B51E00009008AB142017001D78D7
:107FE000019103F029FA041E12D0A2230370019B11
:107FF00047704380099B057146710C220830002BA5
:1080000007D0190003F060FA2100009803F0C4FAC9
:10801000F7BD099903F030FAF6E737B5041E0FD023
:108020004388002B0CD00025C1881323007A172227
:1080300001950095FFF7CDFFFF23658063722570E2
:1080400037BD000010B50C4904004A88002A09D049
:108050008B89002B05D00020CB8A0222834201D0DD
:1080600010BD012213000A20434300204032C854AF
:10807000C81842800472F3E7E266FF1F00234380C2
:1080800003707047094B00211A0010B55C88002C62
:1080900006D01C79844203D10A234B43D01810BD6B
:1080A00001310A330329F1D10020F8E7E266FF1F0E
:1080B00010B50400407A03F04FFAFF23637210BD3D
:1080C0007047043010B580B203F0F6FA002803D0F0
:1080D0000421494203F058FB10BD000070B5002593
:1080E000104CA0682580A581A580A84202D003F08D
:1080F0003BF9A56000250C4C0C4B606D1D802300E6
:1081000058331D70A84202D003F02EF96565002592
:108110006068002801D003F027F9013508340A2DE2
:10812000F6D170BDA867FF1F4C67FF1F9C67FF1F3C
:1081300070B5041E09D1054D2880A881A880A868C3
:10814000002802D003F010F9AC6070BDA867FF1FD3
:10815000F0B54B8885B00193002343600A79050090
:108160000F00022A00D07BE0CA88032A17D98B6847
:108170005E7819783602DC78D8790E4399781B7AC4
:1081800024021B020C43034353495BBA0B80331D8B
:1081900093421ED1042C04D0631F022B0ED9012060
:1081A00015E0019A4D4B1201D35A002B06D00198CD
:1081B000FFF7BEFF4A4A1369013313610421B8680F
:1081C0002E812C80494203F0DFFA6860002005B060
:1081D000F0BD434D042C06D0631F022B0FD9EB6872
:1081E0000133EB60DBE7019A3C4B1201D35A002BC1
:1081F00005D00198FFF79CFF2B6901332B61374BAA
:1082000030000293019B029A1B0101930023019904
:108210008C468B52130063449C8003939E81FFF72E
:1082200050FF039B041E986016D00421B868494291
:1082300003F0AAFAFA880100043A200003F044F996
:108240000199029AFB888A5A043B9B18029A8B5226
:108250002B6801332B60A2E7AB690133AB619EE76A
:108260001E4B0293019B1E01029BF35A002B2DD043
:1082700002998C19A068002828D0012A26D1FA88F2
:108280009B189BB27352A189994217D39B1AC018AD
:10829000B96803F019F9029BA289F35A934200D0FE
:1082A0007DE700222B81A3882B80A3686B60029B53
:1082B000F2520B4A53680133536070E7084A9368DF
:1082C000013393600198FFF733FF68E7044A53696D
:1082D00001335361F6E7C0461267FF1FA867FF1F0F
:1082E0001867FF1F70B5051E15D10B4C0B4B18807E
:1082F000230058331870606D002802D003F034F862
:108300006565250050356068002801D003F02CF821
:108310000834AC42F7D170BD4C67FF1F9C67FF1F4C
:10832000F0B51700A12285B0920001934243394B6A
:1083300006001B680C009B18D933FF331D78FDF72E
:1083400045FF0430854204DD3000FDF73FFF043077
:10835000C5B2BD4207D33A0000213000019B03F0B3
:1083600063FA05B0F0BD2900380003F075F823006A
:10837000C6B250331E700393019B29006365380019
:1083800003F0A2FACBB20293002B02D0039B01367A
:108390001E7000262300503303931B78B34204D889
:1083A000606D002831D10020DBE7029A2800002A06
:1083B00004D0013B1000B34200D02800F700E719B9
:1083C000387003F031F9786000280ED03A780199BE
:1083D00003F07AF8019A3B780136D3180E4A0193DC
:1083E000D369F6B20133D361D4E7039B187060659B
:1083F000A74205D1084A1320D36A0133D362B0E7FC
:10840000606802F0B1FF0834F2E702F0ADFF00232C
:108410006365C8E73409FF1F1867FF1FF7B50D0034
:1084200007000421686803F0AFF92B89040003708A
:108430002B891B0A43702B8883702B881B0AC370FF
:108440002E8902250436F6B21B2E15D81B4B9F42EF
:1084500014D10C2002F0F0FF1135011E0CD0902336
:1084600003708E3B0371043B4380154B8460C680D0
:10847000187803F091F800252800FEBD5C237B43AB
:10848000104AD3180093583301931B78002B0FD157
:108490000300320038000099FFF742FF019B0500FE
:1084A0001B78002BE8D13800009903F0F5F8E3E7DA
:1084B000054A0725536A01335362DDE7FEFF0000DA
:1084C0001067FF1F4C67FF1F1867FF1FF0B587B0CD
:1084D000009017200F0016000193FFF7F2FD1325FF
:1084E000041E19D00C98031E02D00199201D984734
:1084F000030AE370052302AAA0700430908127705C
:108500000098667003A993800494FFF787FF051E07
:1085100002D0200002F028FF280007B0F0BD0000C4
:10852000F0B587B01F000CAB1B78039105930121B8
:108530000DAB06001C78049200F0D6F81425002834
:1085400021D02000FFF77EFD0135041E1BD011490C
:10855000059B0A7803700132D2B2131EC68001D186
:1085600001231A000B7022713000049B03990097BD
:10857000FFF7ACFF051E09D1230021000648074A7A
:10858000093303F0E9F8280007B0F0BD0023638049
:108590002370F8E71467FF1F1B800011307500007F
:1085A000F8B505000E00064C064F2368002B02D0DC
:1085B0003100280098470434BC42F6D1F8BDC046CB
:1085C000B867FF1FCC67FF1F0123064A5B42538039
:1085D000002313715362044A136053609360D360A5
:1085E00013617047CC67FF1FB867FF1F02000023AD
:1085F00010B506499C000859002801D1625010BDF1
:108600000133052BF6D11320F9E7C046B867FF1FE9
:10861000034A5388181A4342584140421040704759
:10862000CC67FF1FF0B585B002930AAB1F780CAB87
:108630001B88009008000E0001920393FFF7E8FFEB
:1086400005001120002D1BD10E48FFF7E1FF0400AB
:108650001520002C14D006220B99A771E01D02F002
:1086600033FF019B30002371029B29006371009B43
:1086700066802370039B6562E381FFF791FF28000A
:1086800005B0F0BDFFFF000010B5FFF7C1FF04000B
:108690000220002C12D060880121FFF781FF606A60
:1086A000002801D003F080F828220021200002F0E9
:1086B000E3FE012300205B426380207110BD0000B7
:1086C00030B5074A074C5588010013780020A542B1
:1086D00004D05B1A59424B415842104030BDC0464D
:1086E000CC67FF1FFFFF0000084A10B501230C00F4
:1086F000904208D0FFF78CFF031E04D0037923407B
:108700005A1E9341DBB2180010BDC046FEFF0000A8
:10871000024B1879431E9841C0B27047CC67FF1FC7
:1087200070B504000D001600FFF772FF002804D199
:108730000D4B9C4200D0143070BD416A0379052076
:10874000002907D012221A40102A02D10520002E3B
:10875000F2D10F20DB06EFD5897E0C20A94289419A
:10876000494249420840E7E7FEFF0000030010B518
:10877000002800D110BD0348034A41889142F9D036
:108780009847F7E7CC67FF1FFFFF0000002330B5D5
:10879000C45CCD5C6C40D4540133102BF8D130BD97
:1087A0000F23002210B5C45C64002243CA54C25C8B
:1087B000D209013BF7D210BD0200010010B52032F2
:1087C000103102F099FF10BDF0B58BB0039010206E
:1087D00005931700049102F0AFFE0090102002F004
:1087E000ABFE009B13240190002B05D000280CD178
:1087F0001324009802F0D8FF019B002B02D0180030
:1088000002F0D2FF20000BB0F0BD102002F094FE69
:108810000600102002F090FE13240500002E00D167
:10882000AEE0002819D01022002102F025FE32000F
:108830002900039802F060FF041E0ED133787F2BCD
:1088400051D830000099FFF7ABFF009B1B787F2BBE
:1088500053D801990098FFF7A3FF300002F0A4FF5E
:10886000002D02D0280002F09FFF002CC1D1102063
:1088700002F062FE0600102002F05EFE0290002E62
:108880007CD0002878D03A000F3223000125121145
:1088900005D00F333B4015B25A4253411BB26A1EFA
:1088A0001201002B33D0049BD2B298180099029A7F
:1088B000FFF76CFF013D10220021300002F0DCFDCB
:1088C000ADB2049F2D017D19AF4242D0002C33D0B0
:1088D000300002F069FF029B002B00D189E71800ED
:1088E00002F062FF85E729003000FFF759FF2800FA
:1088F0002549009AFFF74AFFA7E729000098FFF7EC
:108900004FFF28002049019AFFF740FFA5E70F21FC
:108910000F4004998A18D9B28F4208D9D15C06A8B1
:1089200019540133102BF6D1029A0199C0E7791A34
:1089300048424141C901F2E73900300006AAFFF779
:1089400025FF3200039806A902F0D6FE1037040076
:10895000BAE7002CBCD13000029906AAFFF716FF37
:10896000320006A9039802F0C7FE08220400310075
:10897000059802F0A9FDABE71324A9E71324AAE7A1
:10898000002800D06EE733E7F8BB0011F0B58BB0DC
:108990000F0016000225009000283FD0002A3DD08D
:1089A0000B1DDBB21800029302F0C6FD1135041E48
:1089B00034D0FDF74BFD05003A000099201D02F070
:1089C00093FFEBB20393E3702B0CDBB22F0A0093FF
:1089D0006370FFB22B0E2370A7700193FDF730FD7B
:1089E0001022010006A802F07FFF2100029A04ABCA
:1089F00006A8FFF7E9FE051E0DD1039B0822337080
:108A0000009B04A9B370019B7770F370301D02F0D6
:108A10006BFFFDF721FD200002F0C6FE28000BB021
:108A2000F0BDF0B58FB00D00149E03900492059335
:108A3000002A03D1022420000FB0F0BD002EF9D08F
:108A40000398FFF7E5FD1424071EF4D072783378FD
:108A500012021A43B3781B041343F27812061A4326
:108A6000036A0192934201D30133E3D1002D03D075
:108A70003B7901249B07DED50822002106A802F0DD
:108A8000FBFC059B13240433DBB21800029302F0B5
:108A900053FD051ECFD0059A0499043002F024FF3F
:108AA00004223100280002F01FFF3900102210318B
:108AB0000AA802F019FF2900029A06AB0AA8FFF7DC
:108AC00083FE041E0FD1082206A908A802F00CFF9D
:108AD0000822311D08A802F027FD012807D10199BD
