:020000041100E9
:103000007FB50023284C294D03932800217C284AB2
:1030100001F0DBFA002812D103232800217C03AA47
:1030200001F07AFA00280AD1224B039A9A4206D17B
:10303000214B2248E360224B636104B070BD02263D
:10304000217CFE2228001F4B009601F037FA002851
:1030500001D00020F1E71C4BA2899A42F9D1217CD2
:10306000FF222800194B009601F028FA0028F0D121
:10307000E389174A934203D1164B17486361DCE793
:10308000164A9342E5D1164B164A1B68934206D95D
:10309000C02304222800217C9B0001F078FA124B07
:1030A00012486361C9E7C0460462FF1F3C42FF1F2C
:1030B000813700005959530059598320C0BE00116F
:1030C000FD4100111062FF1F595900001262FF1FDD
:1030D00083050000B1410011A0BE0011821500005F
:1030E0002862FF1F87130000B9420011B0BE001113
:1030F000002370B51A4E1B4C30006361637401F0FD
:103100008BF9402323744B2B0CD9CC233821AC22D0
:1031100030009B01217401F03AFA00280AD0002502
:1031200025740CE0FFF76CFF051E08D1237C0433E7
:10313000DBB2E7E70C4B0D4D63610D4BE381236878
:10314000002B08D1002D06D00C222900200008F009
:1031500093FC2B7B6374300001F09CF970BDC0467A
:103160003C42FF1F0462FF1F5142001190BE00113C
:10317000AAAAFFFFF7B5164B0192C318021D002043
:10318000009388235B05D3181B685C1C1AD09CB283
:10319000402C18D88D781E0CAC466746CD782D0291
:1031A0003D43AE4206D1019800280ED110000C70AC
:1031B000240A4C7003249BB20733A343D218009B0C
:1031C0009A42DED3FEBD4432F9E71000FAE7C0466A
:1031D000FC0F0000802213B503000324019189B283
:1031E000520107319B18A14304305A1A88235B050A
:1031F000C3181B68591C03D190429241104016BD60
:1032000099B2402907D80B000733A343C018904256
:10321000ECD30020F3E74430F9E7134B134A1B6863
:10322000126810B5FA24934201D81A00F824104B02
:10323000E4021B689A4210D813000E4A12689A42A0
:103240000ED3013307D1F823DB029C4203D10A4994
:10325000054808F071FC200010BDFC24E402ECE7F6
:10326000FE24E402F7E7C04600C0071100D00711B2
:1032700000E0071100F00711FFFFFF7FF0B59BB0E2
:10328000150004900391402A00D9A0E006AB5980B4
:103290001A80FFF7C2FF0400042816D9002206A9ED
:1032A000FFF768FF052810D906AB1B88AB420CD18D
:1032B000002D07D0514B2A000499C01808F05CFA81
:1032C000002802D101201BB0F0BD06AB1D802000FC
:1032D0000699FFF77FFF041E7BD1069B0793FFF73C
:1032E0009CFF80235B01C618802307001B039E42BE
:1032F00001D3F826F60288235B05F31801931B68B7
:10330000013302D0019808F04FFC3D49019808F0C4
:1033100013FC3B1D0293331D05938822029B52052B
:103320009B181B6808935A1C3CD044219AB2009108
:10333000402A04D80320D11D814389B2009103990A
:103340001B0C8B4224D0402A22D80122300008A92D
:10335000FFF710FF021E1BD1380008A9FFF70AFF74
:103360000400042831D9009A059B9B188022520141
:10337000B218934240D288235B05C118009A09A86D
:1033800008F07AFB1D4B009A09A9F01808F0A4FA7E
:10339000009A029B9446634402931A4B029AFB18CC
:1033A0009A42BAD388235B05FC1821680198013939
:1033B00008F0C2FB200008F0F7FB039A07AB5A8025
:1033C00030000799FFF706FF0400002C03D100200E
:1033D00079E70428FBD988235B05E018069908F0F3
:1033E000ABFB0323EA1C9A4300D16BE7034B049920
:1033F000E01808F071FA65E70424ECE70400001116
:10340000FFFFFF7FF80F0000F7B505001400402A0A
:1034100021D8002701AE71803780FFF7FEFE042817
:1034200016D93A003100FFF7A5FE042810D93688D6
:10343000BC420BD0BD4209D0221CB44200D9321C80
:10344000064B92B2C118280008F016FB30B2FEBD40
:10345000C04300B2FBE703204042F8E7040000113C
:1034600037B5042204000D0001A81649FFF7CCFF70
:10347000020004280BD1019BA34208D3AB4204D025
:10348000104901A80195FFF7F9FE01203EBD0E4C41
:1034900023682000019308F087FB0199200001397F
:1034A000019108F049FB80235B01E418074B9C4223
:1034B000EED10422034901A80195FFF7DFFE0020A9
:1034C000E4E7C0465555000000C007110000081190
:1034D00030B589B008F0E0FB10226946254808F0B5
:1034E0000BFC254B009A9A420ED1019B029A0F2B9E
:1034F00033D8002101240698013B08D2002900D0CE
:103500000292029B013331D10023029325E0551C26
:10351000F2D102002100EFE710341022200004A9AC
:1035200008F0EAFB029B013301D1069B029388233A
:1035300004995B05C918059B06981A03120B0491A0
:103540000592814203D02B4201D108F095FA019BEC
:10355000013B0193019B002BDED1029B002B03D08A
:10356000049304984168084709B030BDE025014C38
:103570002D03EFE700000111504859368022F8B5BD
:10358000964C974BD200002120001C6008F034FBC1
:103590002300944A88331A60934B1A786A23002ACE
:1035A00000D01133E3620A232365904B37221B7846
:1035B0000820A3638E4B2118E361102323628D4BF7
:1035C0003B256361C823DB00A36123008C331A60B1
:1035D0002823013AE26320646364CA67043A211D28
:1035E000CA672100BC310D602100C0310860210094
:1035F000C4310B6021000635CC310D602100083D3F
:10360000C8310D602100D0310A602200D432106030
:103610002200D832136022000227E0322100176016
:103620004222DC310A6021001B3DE4310D602100A3
:10363000E83108602100EC310B6023000521F433F0
:1036400019602300F0331A602300183290331A6097
:1036500023009433186023001E3A98331A60AF2376
:10366000DB002360644BFA262363644B644DE36004
:10367000644BF031A3642300FF31FC33B600A1603A
:1036800021611E60A5627325E5656D3D6565A565D3
:1036900096255D4AAD00E264666258606766A5667D
:1036A00000270925A767E566584F594D6067200038
:1036B0002567E2673A6015279C30676007001A208B
:1036C00038602000A0300700212038602000A8309A
:1036D00007004C4838602000F83006602600642758
:1036E000A436376026005F3FAC3637602600033FC4
:1036F000B03637602600C637B4363760260000275C
:10370000B836376038269E60424E96205E64424E40
:103710005A66DE61414E9A645E62F53EFF3E9E62ED
:103720001E269A67354A8000DE661F675F67DD6583
:103730001D661862DA67BE23394A5B00E250394BD6
:10374000D838235004302250C4225200A350C6233C
:10375000E4205B00E1500433334AE1503349344BF9
:10376000D1603449800019503349E938FF38195085
:1037700032490430195032493248D161324911631B
:10378000324951631900F4310860CE2030494000BD
:1037900011603049195019002F48F83108602F493D
:1037A000D16582212E4A89005A501A002D490832CB
:1037B000D1671A002C49B432116088212B4A890044
:1037C0005A501A002A49883211602A4ADA6408F0ED
:1037D000C3F8012008F0A0F9F8BDC0460004FF1F9F
:1037E000B464FF1F806FFF1F7444FF1F4A0AFF1F4E
:1037F0003A07000080C3C9019A020000DC050000FE
:103800006A18000050C3000088130000F009FF1F71
:10381000204E00006509FF1F68100000C409000069
:1038200040420F0010270000FC00FF1FB51CFF1FC7
:103830000000FF1F092DFF1F9130FF1F292FFF1FC1
:103840007520FF1F6527FF1F9120FF1F3D22FF1FCF
:103850000120FF1F8929FF1F712AFF1F9119FF1FD8
:103860009528FF1FB925FF1FC525FF1F011FFF1F3B
:10387000B91FFF1F791EFF1F0223F0B50124604D01
:10388000604E2B70604B91B01C70604F0393336897
:1038900000212000BB7006F06DFE200006F064FDE4
:1038A0000023984205D0BA78552A02D0332A00D096
:1038B00099E03360042006F0C5FF08F07DF9FFF7BA
:1038C0005DFE08F069FA1F2201240021504B10AE62
:1038D0001A70504B1C70504B1970504B1968914323
:1038E000163A0A431A60602219689143403A0A4323
:1038F0001A6008F0D9F807F047FF494B9847C120F4
:10390000FF21484B80001A588A431A50C522920062
:1039100098588843BF390143995098584249084004
:103920008021C9010143802099509958C00509029E
:10393000090A0143995080213C48490107F07CFF66
:10394000032322003A49019400933A4808F03CF8D6
:103950002C22394905A808F08FF805AC6178207849
:10396000023406F021FDA642F8D1344C344B2268D3
:1039700003201A40A023DB02134323608023226824
:103980009B041343236022682E4B1A4080239B0321
:10399000134323602C4A2D4B934200D8012008F09A
:1039A0000BF808F039F980232268DB041343236005
:1039B000287807F0A1FF039B1878C0B208F02CF814
:1039C00007F0E2FF2249042007F046FF06F006FF59
:1039D00000F040F800F02EFE00F0D6FE00F016FADF
:1039E000002011B0F0BD00932100194A042007F017
:1039F0008BFF8023DB059C62FFF76AFD5AE7C04618
:103A00004A0AFF1F34F000407444FF1F3462FF1F56
:103A1000480AFF1F490AFF1F680AFF1FBCF0004049
:103A2000E1A2000000E100E0FF00FFFF7844FF1F7B
:103A3000FC56FF1F7854FF1FB8BD001114F0004062
:103A4000FF7FF8FFFFFF9FFF0080FF1F806FFF1FBA
:103A50003B000108002210B51100112008F03CF9CC
:103A600010BD0000F8B500230926364F364C3B62E6
:103A7000E3681120B343E36007F0BEFF112008F0B4
:103A8000B3F8112008F000F84023226810251343F2
:103A9000236080236268DB02134363608023A26893
:103AA00002211343A360A368284A08201340A3609F
:103AB0008023A2689B0113430122A360236CAB43C4
:103AC0002364236C1343236480231B013B62226B1A
:103AD0001F4B1A402263626B1A406263A26B1A404A
:103AE000A263E26B1340E363E3681A4A1340E360A6
:103AF00006F05AFC0121082006F06AFD8023164AD0
:103B00005B00516C11200B43536407F07DFEFD21D7
:103B1000C720124B124A89005A50A36B80002B43D6
:103B2000A363E3680F4A3343E3600F4B1958114016
:103B3000802212020A431A50802292051A600B4B0F
:103B40005D63F8BD00F000403CF00040FFFFDFFF88
:103B5000EFFFEFFFFFFF7FFF003800400000FF1F77
:103B60005118FF1FFF00FFFF00E100E000000540CB
:103B7000E12010B5C00407F0B7FE10BD70B52B4CA6
:103B8000238C002B2AD0FA22D200934201D2FFF7D5
:103B9000EFFF228A238C002A21D1DA00238263825C
:103BA000A382E38223836383A383E383226062602F
:103BB000A260E2601E4D1F4A6420EB8093420AD847
:103BC000FA220020D200934205D91B4A0A219818F4
:103BD00007F072FFC0B200232872238470BD072053
:103BE000E11CCA7F01320240CA7705D10325201D9E
:103BF000C17F01312940C17708325200A35200230E
:103C000021001A00088A01321B180231082AF9D152
:103C1000221DD27F9200A350626823689B18A2687D
:103C20009B18E2689B185B099BB2C3E77461FF1F96
:103C30001C62FF1FB70B000030F8FFFF30B503A870
:103C400004880B20002C0ED14968074D087849786C
:103C5000090201430A20A94205D10121200019804F
:103C6000024B1B7A137030BD192A00001C62FF1F23
:103C7000F7B5150008AA16884A680F4F14785278CD
:103C8000120222430A24BA4214D10122DBB2019269
:103C900000962A0007F0F2FC041E0BD1074B1B68AC
:103CA000002B07D068782A78000210434242504126
:103CB000013098472000FEBD02290000A061FF1FCF
:103CC00030B5012503790400BFB02B4211D00A4959
:103CD000408807F03FF828420BD0084B01A95B8DC4
:103CE0004D800B80064B00221B7A60880B7104F01C
:103CF00023F93FB030BDC0469861FF1FB040FF1FA1
:103D00001C62FF1F10B50549054806F0D9FF0421C4
:103D1000044A054806F096FF10BDC0469861FF1F93
:103D2000FFFF0000E4BD0011B040FF1F10B50248C6
:103D300004F084FF10BDC046C13C00110123037094
:103D40000B4B1A7A4270022282709A78C270DA782B
:103D50000271032242711A7982715A79C2710C225E
:103D600002729A794272DB7983720B207047C046E7
:103D70001C62FF1F022310B50370013B4370053323
:103D8000837010330371443B43712A33837144338E
:103D9000C37100230372064B04001B8843720A3070
:103DA000FFF7CCFF831D0A30C0B2E37010BDC046E0
:103DB0001C62FF1F10B5142007F0CEFE124B142218
:103DC0000021186007F018FF002007F095FE012081
:103DD00007F08AFE022007F057FD032004F0D2F915
:103DE000042006F0E7F9052003F010FC062004F09B
:103DF000DDF8072001F0B2FA082006F003FF0920E1
:103E000001F08CF810BDC046A461FF1F07F02CFE26
:103E1000012007F081FF07F0C7FF0000094B10B534
:103E20000400984205D0012904D12000064906F07B
:103E300047FF10BD0229FCD1013904F0BDFE002866
:103E4000F3D0F6E7FEFF0000CA61FF1F70B50D7AE0
:103E5000100004AA2C00168810221440154220D10C
:103E6000002E20D10A78022A18D14A685178157894
:103E70000E4A09022943914205D00D4A914209D0C8
:103E80001C800A2404E014220A491A8007F0F4FD79
:103E9000200070BD0C2208491A80F7E71C8001241D
:103EA000F6E70824F4E70B24F2E7C046F3FF00002E
:103EB000F4FF00000043FF1FDCBE001110B504003A
:103EC0000749084806F0FCFE074804F0F7FD00200B
:103ED000E40704D50721054A054806F0B3FE10BDE6
:103EE000CA61FF1FFFFF00001D3E001128BE001128
:103EF000F440FF1F00B50C4BBFB01A780B4902A865
:103F000000F0FCFC6B4680B2D880002809D06A46DD
:103F1000074B01A91B889380064B0022188804F0E8
:103F20000BF83FB000BDC046A861FF1FA961FF1F8D
:103F30004E41FF1F5842FF1F00B50C4BBFB01A780F
:103F40000B4902A801F03EFF6B4680B2D8800028E2
:103F500009D06A46074B01A95B8D9380064B00226E
:103F6000188803F0E9FF3FB000BDC046D261FF1FD3
:103F7000D361FF1FF440FF1F5842FF1FF7B50E002B
:103F8000377A1C0008AB11003D001A8820231D4021
:103F90001F423CD13378022B3BD173681F785B788A
:103FA0001B023B431E4FBB4208D01E4FBB4214D0E6
:103FB0001D4DAB4221D00A252800FEBD002A2AD182
:103FC000142C2AD82200F06807F056FD174B1C70FD
:103FD000012CF1D9FFF7B0FFEEE7002A1BD1202C0E
:103FE0001BD82200F06807F047FD114B04211C701C
:103FF000104B187807F0A0FEDEE7E3B20124009230
:1040000001940A00310007F039FB0500D4E70825C8
:10401000D2E70125D0E70B25CEE70D25CCE7C0463A
:10402000F3FF0000F4FF000002290000D261FF1F2F
:10403000A861FF1F5462FF1F332310B504000370F3
:104040000A220749013007F017FD064B0F201B68B5
:104050001A0AE37222731A0C1B0E6273A37310BD4B
:104060001C62FF1F4462FF1F30B501250379040065
:10407000BFB02B4213D00B49408806F06BFE28429C
:104080000DD06A46084B02A81B889380FFF7D4FF27
:104090006B46D8800022608801A903F04DFF3FB035
:1040A00030BDC046CA61FF1F4E41FF1F10B5024818
:1040B00004F0C4FD10BDC0466940001170B5160083
:1040C00004AA148805AA15784A6850781178000265
:1040D0002A4A0843801805284BD807F04DFC0313E3
:1040E0001E29343F0720032C0BD80422121BAA429E
:1040F00000D92A0022491A803000091907F0BCFCB7
:10410000002070BD0720112CFBD81222121BAA42DE
:1041100000D92A001B491A80EEE707200E2CF0D8A0
:104120000F22121BAA4200D92A0017491A80E3E77E
:104130000720032CE5D80422121BAA4200D92A002A
:1041400012491A80D8E70720032CDAD80422121B60
:10415000AA4200D92A000E491A80CDE70720032C75
:10416000CFD80422121BAA4200D92A0009491A807A
:10417000C2E700220A201A80C3E7C046DCD5FFFF51
:1041800073BE0011F061FF1F63BE00115EBE00111F
:1041900059BE001154BE001110B50D21024A03484A
:1041A00006F050FD10BDC04648BE00116441FF1F1F
:1041B00013B5104C0423217C01AA00F0ADF90028AE
:1041C00015D16B469A88236852BA92B2534322891A
:1041D00009491B0C9B184B806B46DA88636852BAFE
:1041E00092B2534362891B0C9B188B8016BD012031
:1041F000FCE7C0460462FF1F1C62FF1F13B5124C90
:1042000006236A46217C00F087F9002819D16B4605
:104210001988236849BA89B24B4321890B4A1B0C80
:104220005B1853806B46D97803335B781B020B43D2
:104230005BBA61689BB24B4361891B0C5B1893802E
:1042400016BD0120FCE7C0460462FF1F1C62FF1F71
:1042500037B5174C07236A46217C00F05DF900282A
:1042600024D16B461B787F2B20D86B46DD78F0235A
:104270002A041B031A406B469B880E495BBA9BB20B
:104280001A4323682D09534322891B0C9B184B802A
:104290006B465A789B7812031B011A4363682A43C2
:1042A000534362891B0C9B188B803EBD0120FCE7A9
:1042B0000462FF1F1C62FF1F7FB50226154C0022FF
:1042C000217C03AB0096050000F0F8F8002802D02E
:1042D000012004B070BD0E23217C0122280000962D
:1042E0006B4400F0EBF80028F2D16B469A89236802
:1042F000D2BA5343228908491B149B184B806B4642
:10430000DA89636852BA92B2534362891B0C9B18D4
:104310008B80DEE70462FF1F1C62FF1F70B5184C24
:10432000237C002B0FD0382B0ED1164D280000F027
:1043300073F8CC23AC222800217C9B0100F027F9E4
:10434000280000F0A7F870BDE3890F4A934209D115
:104350000C4D280000F060F800222800217C00F0BD
:1043600005F9EDE7094A9342EDD1064D280000F02A
:1043700053F890222800217C920100F026F9DFE713
:104380000462FF1F3C42FF1F8305000083200000E2
:1043900070B5144C237C002B1FD06369002B1CD0FC
:1043A000114D280000F038F8636928009847040090
:1043B000280000F06FF8002C10D10C4B0422995EFD
:1043C000002905DA9C801A8801321A80200070BD0D
:1043D000074A9142F7DD9A80F5E70124FEF788FE4F
:1043E000F4E7C0460462FF1F3C42FF1F1C62FF1F30
:1043F0000F27000010B58024064AA4001168436B03
:10440000234205D113685B1A032BF8D9012010BD94
:104410000020FCE76008FF1F70B5C17905000C00A3
:10442000631E9C411A4BE402E41849000460C9B2BF
:10443000007906F003F9E979687949000131C9B2D8
:1044400006F0FCF8E8790930C0B207F01DFB002344
:10445000E36661332360AA795B3B002A0ED02268B1
:104460009A43023B134323600A23E3610733236229
:1044700000232363A3630133E36370BD22689A437F
:10448000022313432360462363610633A361EFE7EE
:104490000050004070B5002504000368DD66C07957
:1044A0000930C0B207F0A8FA2900207906F062F8B6
:1044B0002900607906F05EF870BD0000F8B51E00B6
:1044C00006AB1D78002304681700E366616007F0FF
:1044D000E3FB01238022E3662B0027615200013BAE
:1044E00008D207F011FC08200A4A1168002D03D1F8
:1044F0002800F8BD2261F2E7236F034203D023694D
:10450000013D3370013613685B1A032BEED9012588
:10451000EEE7C0466008FF1F70B51C000023056869
:104520001600EB66696007F0B7FB01238022EB669B
:1045300023005200013B08D207F0E6FB08200A4A9C
:104540001168002C03D1200070BD2A61F2E72B6FA7
:10455000034203D02B69013C3370013613685B1AA8
:10456000032BEED90124EEE76008FF1F002370B58E
:1045700004681500E366616007F08EFB0123E366C3
:10458000256107F0C1FB2000FFF734FF70BD70B557
:104590001D00002304681600E366616007F07CFBE1
:1045A0000123E36626610F33626B1A42FCD02B0AAB
:1045B00023611023626B1A42FCD0EDB2256107F033
:1045C000A3FB2000FFF716FF70BD002370B5046841
:1045D0001500E366616007F05FFB0123E3662B0AC9
:1045E00023611023626B1A42FCD0EDB2256107F003
:1045F0008BFB2000FFF7FEFE70BD70B51E00002390
:1046000005681400EB66696007F046FB0123A619F4
:10461000EB660F33B44205D107F076FB2800FFF7B5
:10462000E9FE70BD21782961696B1942FCD0013423
:10463000F0E7000010B5084CE368002B08D1802299
:10464000064B52021B689B186360054B1B68236076
:1046500007F08AFBA06010BD4462FF1FC8F0004055
:10466000CCF0004070B5184A936A916A9942FBD128
:1046700016498A689A421FD39A1A8B60144B0126F6
:10468000186893B2D202D20E4343424300204C68D2
:104690001B0A1B1912029B180E4C0A684B60551C12
:1046A000A3420CD8002801D04B600A600A4A13606C
:1046B00008680A4B186070BD581E821ADDE7084A68
:1046C00030009B182A00EAE700F000404462FF1F18
:1046D000140AFF1F40420F00C8F00040CCF0004019
:1046E000C0BDF0FF70B51F4C23793F2B01D93F238C
:1046F00023711D4B22791A701878C0B207F044FA62
:1047000018231A491A4A0B801A4913800B805380C8
:10471000A379194980200B800C21938001334B43EE
:10472000164D191C0001834200D9011C2980D1803B
:104730006379002B01D101336371237A012B01D8F6
:10474000022323726279237A0D4853430A21584386
:1047500007F0B2F90B4D2860E379052B01D810233F
:10476000E37170BD3862FF1F480AFF1F5642FF1FEA
:104770002044FF1F5442FF1F5242FF1F5042FF1FA1
:10478000710200002862FF1FF8B520210020FEF70B
:1047900067FE114C011E114D09D10C22104BC1CBEB
:1047A000C1C4280007F028FAFFF79CFFF8BD0C22CF
:1047B00020000C49FEF728FE0C2802D0084B43CB02
:1047C00043C40C2228000849FEF71EFE0C28EBD03B
:1047D0000C220021E5E7C0463862FF1F0462FF1F7C
:1047E000D0BE0011FC0C0000F50C0000F0B51D4C13
:1047F0008022A5440400882069465201400507F044
:10480000E3F9902212016A441300200032C832C337
:1048100016C816C38023144C144FA6689B03334359
:10482000A3603B6007F0E0F88823A0685B05C01830
:1048300007F0BAF90025882329008022A0685B05CB
:10484000C01840196944520007F046F8802301352A
:10485000FF355B019D42EED1A6603E60044B9D4456
:10486000F0BDC046FCEFFFFF9043FF1F9808FF1FFD
:1048700004100000F0B5040087B0002825D0684679
:1048800007F0DAF81B4C022806D106226946200000
:1048900006F072FF002816D06946002301250F2676
:1048A0002F00E25C013310091030874038002F00E0
:1048B000324097403A0002434A610439062BEFD157
:1048C0006846FFF793FF07B0F0BD182269460A4813
:1048D00007F07AF96A46A300D358013305D01822AD
:1048E000FF21684607F088F9EAE70134062CF1D188
:1048F000E9E7C0466509FF1F00090011F0B5002572
:1049000004000E0085B0AA4200D186E04B1C087856
:1049100001934B788978377909021943F3783F0678
:104920001B040B431F43039720706570252800D19B
:1049300096E033D8112813D806F006FF69003A0133
:104940003A013A013A01AA00B800B1003A013A012D
:104950003A013A013A013A013A013A0114013401AB
:10496000232800D1EDE0DB2800D043E1042A00D861
:10497000B1E01025052A05D0551F2A003800711D09
:1049800007F07AF805223100200007F075F82A00B8
:104990003900601D07F070F805353EE0562859D003
:1049A00010D8332800D1A7E0552839D02628DAD1ED
:1049B000A64B2900132218001D0007F01DF9FEF771
:1049C00097FB5CE0712800D177E0722800D189E084
:1049D000602800D195E0DC28C5D1022A00D87AE011
:1049E0007378BFB26370B378A370032A05D0033A1B
:1049F000390092B2F01CFEF741FC10223900E01C95
:104A0000FEF702FDC51C002807DA607070E00C227A
:104A100020008F4907F030F80C25280005B0F0BDC4
:104A2000013A8C4D0C2A13D8002A0AD0280001998B
:104A300007F022F8FFF756FE0C2228008649FEF701
:104A40001DFC29000C22601C07F016F80D25E4E778
:104A50000C22EBE77F4D814B2A0043CB43C2E9E7B1
:104A6000013A7A4D0C2A11D8002A08D00199280061
:104A700007F002F80C2228007949FEF7FFFB290015
:104A80001322601C06F0F8FF1425C6E70C22EDE7A0
:104A900006227449601C06F0EFFF0625BDE71222CE
:104AA0007149601C06F0E8FF1325B6E708226F493C
:104AB000601C06F0E1FF0925AFE7012A0ED07178EE
:104AC000F02908D86A4D288801F0D8FD694B2A885A
:104AD0005200D35A00E0FF23637009E0644A654B3B
:104AE0001288F5E7644B012A04D072785A7062701C
:104AF000022592E75B78EFE72000FFF79DFA0500BB
:104B00008BE7013A5D4D072A07D8002A06D100231A
:104B100001202B6001F0A2F80CE007229621584BEF
:104B200089001B6857485B1801992B6006F0A4FFA9
:104B300001F060F8691D0722601C06F09DFF082542
:104B40006BE7042A04D94E4D2F6007F00DF9A860D9
:104B5000FFF788FD0422039003A9601C06F08CFF78
:104B600005255AE7484D062A15D90622280001993D
:104B700006F002FE00280ED006220199280006F059
:104B80007BFF062241492800FEF778FB01233A4AC1
:104B900051780B43537029000622601C06F06CFF0D
:104BA00007253AE7012A96D07078FFF763FE9FE762
:104BB000012800D0D7E6931E354F132B06D8737803
:104BC000002B0BD100F018F900F04EF9314B3900F1
:104BD0001D78601C6A1E06F04FFF1EE7551E2A0056
:104BE0000199380006F048FF38002B49AAB2FEF7B9
:104BF00045FBE9E7DA281DD1042A00D86BE7082A2B
:104C000015D9B37972791B021343F27912041A434E
:104C1000337A1B0613433B603B68052231002000BA
:104C2000039306F029FF0422601D03A941E7FE2338
:104C30006370F1E7DE2800D04DE7511E012A01D153
:104C40000025EAE6019800F0BBFFF9E70462FF1FC8
:104C5000DCBE00113862FF1FFC0C0000D0BE00114A
:104C6000F50C00001062FF1FF061FF1F9443FF1F4F
:104C70005842FF1FB864FF1F3462FF1F9464FF1F78
:104C80004462FF1F9964FF1F6509FF1FADAC000060
:104C90003564FF1F3364FF1FAEDE000070477047AE
:104CA000020010B5094B0A32094C92B2DA815A82DD
:104CB00098811882207802F047FB0422054B0121DD
:104CC00020781A7007F038F810BDC0461E43FF1F49
:104CD0007E64FF1F7D64FF1F013870B5042809D86A
:104CE00006F04AFE030928081200234B0221187817
:104CF00007F022F870BD204B0821187806F0E4FE7A
:104D000000221E4B1A72F5E7802200241B4B1A4D1D
:104D100052001A8108211A682878DC7206F02CFFEC
:104D20002100287806F000FF012000F063FE00F06B
:104D300061FFDFE7104B0821187806F0C5FE104828
:104D4000FFF718F80F4B104A9B79002093800F4A09
:104D500013808022094B5200D8721A8100F04AFE5B
:104D600000F048FF0A4B5B78002BC3D0094A136060
:104D700006F03AFDBEE7C0465462FF1F2862FF1FDF
:104D80006142FF1F3862FF1F2044FF1F5242FF1F76
:104D90003462FF1F34F0004010B500290BD1012808
:104DA00009D1054B1B78002B05D02622034B044864
:104DB0005A72FFF775FF10BD5664FF1F2862FF1F70
:104DC000C40900000300F0B50A4D8E18B14202D1AB
:104DD00052008018F0BD0C782F6824093C5D0F2725
:104DE0001C700C7801313C402F683C5D5C700233D4
:104DF000ECE7C0464C42FF1F0D22124B10B51A7053
:104E00000C23114C11492370093A033B104863707D
:104E100006F032FE2D2301220E490F48A371FFF741
:104E2000D1FF01220D49FFF7CDFF01220C49FFF709
:104E3000C9FF030000200B4902001870FEF71EFA9C
:104E400010BDC0465264FF1F3364FF1F73BE0011C4
:104E50003564FF1F6709FF1F3A64FF1F6609FF1FC4
:104E60006509FF1FAEDE000070B5134C1422200050
:104E70001249FEF7C9FA431E114D132B19D8AB780E
:104E8000002B16D0431C2B7009236B7000230019D4
:104E9000037028780B4B01302900C0B2187006F05F
:104EA00043FD297822000139C9B2002005F0E8FD50
:104EB00070BDFFF7A1FFECE73564FF1FAEDE000019
:104EC0003364FF1F5264FF1F10B5114B1A7818701E
:104ED000002A0ED000280BD10E4B1A78062A07D8CC
:104EE0005423D340DB0703D50B4B187802F02CFA80
:104EF00010BD0028FCD0074B1B78012B02D0033BD0
:104F0000022BF5D8044B0121187806F015FFEFE7C6
:104F10005664FF1F7D64FF1F7E64FF1F70B54A4EFD
:104F20004A4A4B493070012005F036FC00F0E8FE9B
:104F3000FEF7DEF806F018FD032246494648FFF763
:104F400041FF2D24030004221C7044490130FFF767
:104F500039FF30230470424D424C437083702E3B26
:104F6000062220004049EB87FEF74EFA062813D0B0
:104F7000200006F061FD022809D00321200006F080
:104F800063FC8D23E3706E3B23711933637106223A
:104F900020003549FEF772F9344B1B68FC335C6422
:104FA000FFF762FF0020FFF78FFF314C314A0121EC
:104FB000314B1278207802F089F9304A304B127860
:104FC0000021207802F082F901222E4B1A702E4B1C
:104FD0009B78552B31D12D4B3B325A722C4B2D4A9D
:104FE000AB81EA812B826A822021307806F05CFE58
:104FF0000120404205F090FD0120404205F02CFECA
:10500000FFF7CAF8FEF77EFE00F0B2FC0120404236
:10501000FEF754FF012006F00FFEF02001F012FB16
:105020000121307806F088FE307802F0E9FA1A485B
:1050300006F092FBFEF716FD70BD6422174B5B79FC
:1050400053431A000A32CBE75462FF1F994D0011F7
:105050009D4C00119443FF1FF061FF1F1062FF1F62
:105060001E43FF1F6509FF1FADAC0000B464FF1FA6
:105070007E64FF1F8042FF1F6142FF1F5264FF1FBB
:105080003364FF1F2464FF1F3462FF1F2862FF1F69
:10509000C4090000CE0900005662FF1F3862FF1FDE
:1050A000F8B50A0020230D001A40194263D05E4B68
:1050B0001B78002B5CD0FFF7D5FA5C4B5C4C5D4E47
:1050C00099686268737A8A1ADB039A4202D3616034
:1050D000FEF7C8FC327A217A531EDBB2994205D121
:1050E000FFF71CF9002000F0B9FD15E09142F9D35B
:1050F00000272772FFF74CF9A37ABB4202D0A772B0
:10510000FEF73CFD012000F0A9FD4B4F3800FEF7F3
:1051100031FE390006F0D8FB637A002B25D0013B25
:10512000DBB26372002B20D1444B9B78552B01D10D
:1051300006F05AFBE37A002B12D00023A27AE37226
:105140009A4202D0A372FEF719FD3D4A3A4F1388E6
:10515000380001331380FEF70DFE390006F0B4FB72
:10516000642370795843FFF79BFD237A0133237240
:1051700020206840F8BD0BB2002B0ADA314B1878BA
:1051800006F02AFD002801D006F0DEFC8020000297
:10519000EFE70224214206D0254B01201A72FFF7C7
:1051A00093FE2000E5E70B071ED5FFF75BFA1F4BC8
:1051B0001F49204C98684A68637A821ADB039A4236
:1051C00002D34860FEF74EFCFFF7E2F8FFF7A6F8BF
:1051D000012000F043FD00F0E5FB2368DB0701D56B
:1051E000FEF764FF0820C4E7CB0609D5FEF7C6FC2E
:1051F0000D4B1B78002B01D1FEF798FD1020B8E76E
:105200000124214207D0104800F06CF806F094FB0E
:1052100000F00AFDC5E70424080020402142A9D07F
:10522000FEF768FEBDE7C0465664FF1F4462FF1FDD
:105230002862FF1F3862FF1F6142FF1F3462FF1F99
:105240001C62FF1F5462FF1F4442FF1FF0B51B4B3F
:105250001B4F1B883A8804001A4E1B4D85B09A429A
:105260000DD832889A420AD3184B1A882B889A4252
:1052700005D1174A174B12881B889A421BD005206C
:1052800001F036FA3B8802AA1380338801905380DC
:105290002B88114D93800F4B02A91B88D3800F4B95
:1052A0002A78188802F052FF0D4B08212878019ABD
:1052B0001C7006F031FB05B0F0BDC0462264FF1F34
:1052C0005642FF1F5442FF1F5242FF1F2064FF1F20
:1052D0001E64FF1F5042FF1F7E64FF1F5842FF1FC6
:1052E0001C64FF1F13B50C4B1C78002C11D1002837
:1052F00001D00A4B18600A4A0A4B11780A4A107802
:105300000A4A01920A4A0092002205F0B1FA2000EE
:1053100016BD1124FBE7C0467D64FF1F1864FF1F04
:105320007C64FF1F6C64FF1F7E64FF1F5864FF1FB7
:105330005C64FF1F10B5064B12201B78052B06D1AD
:10534000044B13221988044B187801F0ADFB10BDF3
:105350007D64FF1F5842FF1F7E64FF1F10B50024AD
:105360000122114B52421870104B1C70104B1A80C6
:1053700002F046F904220F4B21001A700E480C323D
:1053800006F0B2FC102221000C4806F0ADFC07220A
:105390000B4B1C600B4B1C700B4B1C700B4B1A7097
:1053A0000B4B1C7010BDC0467E64FF1F7D64FF1F49
:1053B0005842FF1F7C64FF1F6C64FF1F5C64FF1F6B
:1053C0005864FF1F3264FF1F3164FF1F5A42FF1FE2
:1053D0003064FF1FF8B5174C0600257806A8142482
:1053E0000078052D23D1B41F134FA5B21824BD4258
:1053F0001DD88D1FADB2BD4219D8FA256D00AA4245
:1054000015D21D000D4F0A3DADB2BD420FD80C4C58
:1054100026800C4C21800C4900240A800B4A138002
:10542000FFF714FF0A4B0421187806F04DFB20000B
:10543000F8BDC0467D64FF1F790C0000750C0000AC
:105440005642FF1F5442FF1F5242FF1F5042FF1F90
:105450007E64FF1FF0B50BB20D0089B0002B00DB9E
:1054600070E1A44E307806F0B7FB041E50D00378EC
:10547000A22B00D122E1D02B1AD0912B45D1437819
:105480000E2B42D19C4B82889A423ED19B4A836824
:105490001278052A39D1032018567F2835D0984B29
:1054A0001B68002B31D05B68002B2ED098472CE076
:1054B0008078072829D806F05FFA0428183F3F743F
:1054C000A8D86378002B0CD101218C4B19708D4B1F
:1054D0001A78002A5BD08C4B307801F0F7FE002858
:1054E00055D00722854B1A7051E061780029F8D118
:1054F000E378002B11D0854A854B1278307801F083
:10550000E5FE60706378002BEBD1200006F01CFBF9
:1055100080200002684009B0F0BD784B1B78022B58
:10552000F3D00121307806F08FFA0028EAD101216A
:10553000307806F001FCE5E76378002BD1D16F4F9E
:10554000032807D13B78052B02D101333B701EE0C5
:105550000223FBE76F4B1A886F4B0293002A0BD094
:105560001B78002B03D00121307806F0D5F93B7869
:10557000062B04D1013BE9E7029B1A70F7E7042BE5
:1055800041D10121029B3078197006F0D5FB5C4BAC
:105590001B68002BB9D01B68002BB6D0574A107877
:1055A00084E76378554F002B27D10622211D5B48E5
:1055B00006F062FA62895A4B5A491A80A2895A4BFC
:1055C0001A80E3890B800521397058490A80584AAE
:1055D0001380228A574B1A80574B1B78012B09D115
:1055E0001F2001F085F8FA2292004243042130780E
:1055F00006F092F90022484B75E7312B00D070E796
:105600000022454B1A700323A0E7062200214348DD
:1056100006F06AFB0023454A04211380444A30788F
:105620001380444A138006F04FFA0821307806F0C0
:105630004BFAA379083B5A425341304A0333137063
:10564000304B1B78002B06D0334B30781A78002A69
:1056500006D001F079FE0122314B52421A8096E7C2
:105660000121197006F068FBF5E70821307806F093
:105670002BFA6378002B00D047E72C4B2D4F029379
:10568000E388029A04211380294B307803932389FD
:10569000039A138063893B8006F0D6F9002800D076
:1056A00033E7264B1B68002B00D12EE703990298A5
:1056B0003A88098800881B68984726E74379132BA6
:1056C00000D022E70389012B0AD11D4B1B78022B46
:1056D00006D10821307806F0F7F9FFF72BFE14E722
:1056E000052001F005F808210200307806F014F9D1
:1056F0000BE7C0467E64FF1F051400007D64FF1F9A
:105700001864FF1F8042FF1F6142FF1F5264FF1F8A
:105710003364FF1F5464FF1F5664FF1F2564FF1F7F
:105720005842FF1F2C64FF1F2E64FF1F2264FF1FBF
:105730002064FF1F1E64FF1F2464FF1F1464FF1FEB
:105740001C64FF1F8020C001014200D0E2E6CB07AD
:1057500031D5324B1B78002B1DD0314E05AC337840
:10576000052B1AD1023B23702E4B21001B7823728C
:105770002D4B1B7863722D4B187801F04BFD0028E0
:1057800009D007202A4B30701B68002B03D01B6800
:10579000002B00D098470120BCE60E20254B0622A6
:1057A0001B7825492370254B1B78637002ABC0180A
:1057B00006F062F9D8E7022308001840194209D020
:1057C000174B1B78052B03D11D4B188806F06CF87E
:1057D00002209FE60424214203D0FFF737FD20007A
:1057E00098E6082308001840194200D193E6154BAB
:1057F0001C78012C03D0022C0DD008208AE6124B15
:10580000124A134913481B8812880988008800949B
:10581000FFF7E0FDF1E7FFF78DFDEEE75664FF1FB0
:105820007D64FF1F5A42FF1F3064FF1F7E64FF1F0D
:105830001864FF1F3264FF1F5B42FF1F3164FF1FAC
:105840005842FF1F1C64FF1F5042FF1F5242FF1FA0
:105850005442FF1F5642FF1F10B502A804880B20B8
:10586000002C10D1496808784978090201430C4896
:10587000814209D1022119800A4B59881170DB78C5
:1058800000205BB2537010BD074C0A20A142FAD130
:1058900002211980034B998811705B79F0E7C046AB
:1058A0006E2A00001C62FF1F6F2A0000F7B515006A
:1058B00008AA16884A680F4F1478527812022243B9
:1058C0000A24BA4214D10122DBB2019200962A00C6
:1058D00005F0D4FE041E0BD1074B1B68002B07D02C
:1058E00068782A78000210434242504101309847BC
:1058F0002000FEBD022900009064FF1F30B5012585
:1059000003790400BFB02B4225D01449408805F02C
:1059100021FA28420CD0124B01A95B8D00220B808A
:1059200002234B800F4B5B888B80608802F004FB66
:105930000D49608805F00EFAC0070CD50B4B01A984
:105940001B8800220B8002234B80064B9B888B8098
:10595000608802F0F1FA3FB030BDC0468864FF1F96
:105960008442FF1F1C62FF1F8064FF1FDE42FF1F77
:1059700010B5074C0749200005F0A2F920000649A0
:1059800005F09EF90721054A054805F05BF910BDB1
:10599000FFFF00008864FF1F8064FF1FFCBE001132
:1059A0008442FF1F10B5024803F048F910BDC046FD
:1059B000FD5800110221430888400B400A3108407D
:1059C00003430E20024A117A81430B43137270473E
:1059D0009464FF1F064A537A410705D580210B4383
:1059E00080015372D07270477F210B40F8E7C046A8
:1059F0009464FF1F054A9379002803D080210B434C
:105A0000937170477F210B40FAE7C0469464FF1FF3
:105A10000E22134B197A1140197200281ED0114A18
:105A2000127A502A10D910220A431A722022197AA7
:105A30000A431A724022197A0A431A728022197A8A
:105A400052420A431A7205E03C2AEFD8282AF1D8BC
:105A5000142AF3D80122197A0A431A727047C046F1
:105A60009464FF1F1C62FF1FF8B57F23324D0400B2
:105A7000AE799E43314B984205DD76236B71363B00
:105A80003343AB71F8BD2E4B984203DA58236B7148
:105A90001433F5E783B21A0000215F32294892B22D
:105AA000294F697182422DD9E9718C4203DA5B4238
:105AB0001CB220236B71053420B20A2105F0FCFFD3
:105AC00004B2FA239B009C4233DB80236A795B4259
:105AD00013436B716421200005F0EEFF0A2100B230
:105AE00005F0A2FF09B26A797B5C13436B710A214E
:105AF000200005F0E1FF0A2100B205F095FF09B290
:105B00007B5C0AE08022EA71002CDADA5B421CB28C
:105B100020236B715F23092CE9DC1E430A2120003E
:105B2000AE7105F081FF09B2EA797B5C1343EB713A
:105B3000A8E7632CCEDCEDE79464FF1F1B4E00004A
:105B40001DFCFFFF2A08000026BF00117F23F7B5C8
:105B5000194FCD017E7A04009E437E72EDB2632818
:105B600006DD093B33437B7240231D43BD72F7BD05
:105B70000300093304DA582333437B726C23F4E7C0
:105B80000E4B019300280BDA0423444224B27B72AB
:105B90000A21200005F048FF019B09B25B5CE4E7A5
:105BA0000928F5DD0A2105F087FF019B00B21B5C87
:105BB0001E437E72ECE7C0469464FF1F26BF0011AF
:105BC000F8B50A4F05003B790E00002B0CD0084CAD
:105BD0002000FEF721FC33002A0020003979FEF76F
:105BE0000CFD2000FEF756FCF8BDC0469464FF1F74
:105BF000F842FF1F70B5094D094C0722290020000B
:105C000005F0BAFD002808D029000722200005F081
:105C100033FF08210348FFF7D3FF70BD9964FF1FCE
:105C2000A164FF1FA064FF1F7F2210B50A4B997962
:105C30009143033A5A71103A0A439A7178220E211D
:105C4000DA711A7A8A431A726B225A720C3A9A7271
:105C5000FFF7D0FF10BDC0469464FF1F224A234BBC
:105C600012681B6810B59A4234D3002832D0204CF9
:105C70000223E05E1F4B1B685B062CD509233221F3
:105C8000584305F019FF4130FF3000B2FFF7ECFE3A
:105C90000520FFF78FFE0422A35E174A632093427C
:105CA00005DC32331800642105F006FF00B2012143
:105CB000FFF74CFF0120FFF7ABFE0020FFF78AFE45
:105CC0000E4B1878053843425841C0B2FFF792FE98
:105CD000FFF790FF10BD0A21053005F0EDFE00B280
:105CE000FFF7C2FE0320D4E74462FF1F9464FF1F46
:105CF0001C62FF1F3862FF1FDD2600007D64FF1F4E
:105D000070B50024094D2800AC71FEF785FB102307
:105D10003E212800064AFEF770FCA04200D13E3426
:105D2000044B28001C71FEF7B5FB70BDF842FF1F45
:105D300016BF00119464FF1F0200F0B501270A4846
:105D40000A4E51188B1A002B00DCF0BD0824157880
:105D50004308684038404000805B013C58406D0873
:105D6000002CF5D10132EDE7FFFF000036BF001136
:105D7000F0B500250F269D4200DBF0BD4C5D070904
:105D800044403440A400A05801357840F3E70000B7
:105D9000F0B589B06A460D000B000F2711001035D1
:105DA0001C780133260024093E40167054700232DC
:105DB000AB42F5D12023024AFFF7DAFF09B0F0BD6C
:105DC0003CBF0011F0B54E780B7889B036020C005C
:105DD000170001901E43012A61D9954B9E4200D8BD
:105DE00077E001339E421CD1062A17D1CA788B78FE
:105DF00012021A430B791B0413434A7912061A4301
:105E00008C4B5A6100221A705A808B4A5A608B4A16
:105E10009A608B4ADA60002009B0F0BD88225205F2
:105E2000EEE7884B9E423CD182498B78002B00D014
:105E3000F6E00C2A31D10F22A3789343E2781202C4
:105E400013432279120413436279120613434B6001
:105E5000E279A07912020243207A00041043627AA8
:105E600012060243CA60E27AA07A1202024376481E
:105E70004A81834208D804236E49142201980B708A
:105E800005F0FAFD1420C7E71201D21889235B053B
:105E90009A42F0D801238B70BDE7022AFAD005237D
:105EA000EAE76A4A01239642E6D1FFF743FA052F53
:105EB0000CD9E378A2781B021343227912041A4307
:105EC00063791B061343624A0393136005F08CFC4D
:105ED000A1E7584D2B78002B9DD1AB78002B00D13A
:105EE000A0E02B8901339BB20093B34200D091E034
:105EF000132AD4D9CF7C8B7C3F02122120001F4370
:105F0000FFF71AFF874200D08EE0002E3DD1E378E4
:105F1000A2781B0213432279E96812041A436379B9
:105F20001B06134303930A228B4212D1FF23A37053
:105F3000E370237163716B89002B09D1E37B227CB1
:105F40001B0212041343A27B13431B0901336B8111
:105F500000226B89002B8ED0002A67D16868370138
:105F60003818000B6B6900030390984205D96861EB
:105F700005F01AFEEB780133EB7068681022A11C63
:105F8000381805F0A9FC2E8145E76F89009A7B1E21
:105F90009BB293423AD1E278A37812021A43237952
:105FA00005A81B04134362796C6812061A43EB6858
:105FB00000920392211D0C22049305F05DFD012047
:105FC000260004A940421036FFF7E2FE013F012FF0
:105FD00017D1009A0B232861824200D04CE704229B
:105FE0001C49200005F078FC042203A9686805F02C
:105FF000EBFDE968039AFF23914200D13CE7F73BB0
:106000003AE73100FFF7C4FE1036DFE70923B74255
:10601000A4D831E7009BB34200D9FCE607232BE765
:10602000022329E7032327E7062325E70A2323E79B
:10603000FFFE00000043FF1F00000111FFFF0000F2
:106040005048593601FF0000FFFF001102FF000019
:1060500034F000400C43FF1F10B5034C0B0001222D
:10606000210000F06BFA10BD196200110B8870B5A9
:1060700006000D000224162B11D92B00032209491A
:1060800000F05CFA041E0AD1074B2A881B88191CF1
:10609000934200D9111C300089B200F0EFFA2000C1
:1060A00070BDC04645620011BA64FF1F10B54A7842
:1060B0000400013A0B000220012A07D80A78002ABE
:1060C00004D005222000024900F038FA10BDC04675
:1060D000736200110A7810B50B0004000220002A38
:1060E00004D007222000024900F028FA10BDC04663
:1060F0001F6300110A7810B50B0004000220002A6B
:1061000004D009222000024900F018FA10BDC04650
:106110008563001110B5034C0B000B22210000F029
:106120000DFA10BDB563001110B5034C0B000D2224
:10613000210000F003FA10BD2764001110B5034CD4
:106140000B000F22210000F0F9F910BD816400114D
:106150000A7810B50B0004000220002A04D0112296
:106160002000024900F0EAF910BDC0469164001118
:10617000002310B51322190000F0E0F910BD000053
:1061800010B5034C0B001722210000F0D7F910BD09
:10619000E3640011002310B51922190000F0CEF9B4
:1061A00010BD000010B5034C0B001B22210000F0B5
:1061B000C5F910BD1D650011F7B584890D000600F5
:1061C0000121002C22D000238268D3561778002B9F
:1061D0001EDA0C2C1AD90C3CA4B213194088009377
:1061E000230002F086FE431E984101307B06DB0F40
:1061F0006B703F23013C1F40A4B22870AF70AC808D
:10620000002C07D0B3680133AB6000210800FEBD4D
:106210000020EBE7AC60F8E70B7803704B88437025
:106220004B881B0A83700B79C370042070470420CD
:10623000022B06D10020537811781B02009A0B43E1
:10624000138070470B8803700B881B0A4370022071
:1062500070470420009983420AD1537810781B02BA
:1062600003430B80D37890781B02034300204B80BC
:106270007047F8B50D004B7801240021461C0370CF
:106280002B788B4201D82000F8BD6B78B01C4F1CD6
:10629000012B10D1890069184B88022233704B887A
:1062A000B9001B0A7370691805F0B6FA0436043495
:1062B000A4B2F9B2E4E7122359436B185A880431A7
:1062C00032705B8810221B0A7370691805F0A4FAFB
:1062D00012361234ECE770B5049D14001E00052B35
:1062E00001D8042070BD637812781B0213432B8001
:1062F000E378A2781B02134302226B802A71211DCE
:10630000681D063E05F088FAB2B22A81E92AE8D86B
:106310002800A11D0A3005F07FFA0020E2E70023E3
:1063200010B50A789A4201D8900010BD9A008A18D8
:106330005488013304705488DBB2240A4470948872
:1063400084709288120AC2700430EAE710B5110016
:10635000029C062B04D004201022142B01D010BD67
:10636000022222714B7808781B0203432380CB78EA
:1063700088781B02034363800431601D05F04CFAEA
:106380000020ECE710B50C788B7804315C43E4B264
:1063900003702200013005F03FFA601C10BD04209C
:1063A000022B06D10020537811781B02009A0B4370
:1063B0001380704710B50C000A88023105F02CFAE2
:1063C000208810BD70B504000D0004981100012B49
:1063D00001D8042070BD1678527812023243028030
:1063E0000200F13255701470E125002C00D10C35FB
:1063F000023B9AB24280AA42EBD80231043005F047
:106400000BFA0020E6E70420009983420AD1537872
:1064100010781B0203430B80D37890781B02034350
:1064200000204B80704710B50C000A88023105F03F
:10643000F3F9208810BD000070B501211E00042072
:10644000049C0E400B4218D1CB40DDB28D4214D9D2
:106450000A49DBB2098899420FD32300EE331D703D
:106460003300580011184978165C09023143013392
:106470002152D9B28D42F4D8002070BD1843FF1FBD
:1064800010B50C000A88023105F0C6F9208810BD4D
:1064900010B50C788B7804315C43E4B203702200B1
:1064A000013005F0B9F9601C10BD10B5110002985B
:1064B000032B01D8042010BD14785278043B12023B
:1064C00022430280CA788C781202224342809AB218
:1064D0008280EB2AEED80431063005F09DF90020C9
:1064E000E9E710B50C000B8803700B881B0A43709A
:1064F0004B8883704B881B0AC3708A88043006312E
:1065000005F08AF9A088043080B210BD0420012B68
:1065100003D100201378009A1370704710B50C0057
:106520000B8803700B881B0A43704A8802300431C1
:1065300005F072F96088023080B210BDF0B589B004
:1065400003931E4B029242000700D05A019102F0C1
:1065500020F81325061E2DD0029B01240370019BF9
:10656000002B04D0001903999847001984B26B4698
:106570001B7A5BB2002B0FDA1021380002F01CFBF3
:106580001925002813D130003219E1B202F066FC5F
:10659000051E0CD10C34A4B2042304AA380005A9AA
:1065A00093800696948101F0AFFD051E02D0300065
:1065B00005F012FA280009B0F0BDC046B864FF1F0C
:1065C00070B505000C0000280CD00020814209D0D5
:1065D00010222000044905F01FF901202B782373B5
:1065E0006B78637370BDC0467CBF0011F0B50600C8
:1065F0000D0017001C0085B002291BD000201029B7
:1066000007D1022B07D0102B03D115E00020102C4E
:1066100008D005B0F0BD69463800FFF7D1FF2A0069
:1066200069460BE069463000FFF7CAFF2200694661
:10663000380004E0022BE9D12A003900300005F0CF
:1066400013F9E6E7031CF02800D9F02303200849DA
:106650009AB2013A0B80D317034006499B189B104E
:106660000B80D30F04499B185B100B807047C0460A
:106670001C43FF1F1A43FF1F1843FF1F034B1B88B8
:106680008B4202D3024B4000C15270471C43FF1F94
:10669000B864FF1F014B4000185A7047B864FF1FD1
:1066A0001722014B1A807047B864FF1F70B50500B0
:1066B0000E2005F0D1F9041E13D0D023037000235F
:1066C0000622837007494570033005F0A5F8064B94
:1066D0002100DA8A62811B7E2373044B187805F04F
:1066E00073F870BDD464FF1FC464FF1F6C43FF1FA9
:1066F000262803D8024B4000C05A70470148FCE7E7
:106700001E43FF1FFFFF000070B506000C00094D7F
:106710001C220021280005F0E7FA074B1E70074BEA
:106720001C7005F0B1FA0123002801D000231220CB
:106730002B7070BDC464FF1F6C43FF1FE564FF1F17
:1067400070B505000D4C0800E260A1601022002128
:10675000656005F0B1F8012803D11021A06802F0AE
:1067600058FD10220021280005F0A6F8012803D1C9
:106770001021606802F04DFD70BDC046C464FF1F6B
:1067800070B5041E05D1002903D006220D4805F07E
:1067900043F80D4B1D78012D11D1002C05D102229B
:1067A0001A7005F089FA280070BD00221A70074B94
:1067B0001B78FF2BF7D02000FFF778FFF3E70025C9
:1067C000F1E7C046D464FF1FC464FF1F6C43FF1F82
:1067D000030010B5002801D1002010BD00780B4A3D
:1067E000002803D15988D1821B7913761378022BA4
:1067F000F2D10023984200D103331370044B1B786D
:10680000FF2B01D0FFF752FF0120E6E7C464FF1F12
:106810006C43FF1F002911D000280CD04B790128B0
:1068200003D140225242134303E03F221340032886
:1068300002D001204B7170474022F4E70800FAE7CC
:1068400070B5094D0100287800280BD0074C0622AE
:10685000200004F0E1FF21002878FFF7DBFF200093
:1068600005F01AF870BDC046E464FF1FBE64FF1F48
:1068700000290AD0012808D13F224B799343C02B2D
:1068800003D0403B5A425341981C704770B5174D96
:1068900006002B78FF2B15D00A2005F0DDF8041E2A
:1068A00010D0D0230370C83B8370114B11491B7863
:1068B0004670C3700622043004F0AEFF2100287831
:1068C00004F082FF0C4B1B78012B0DD10B4B1B6886
:1068D000002B03D09B68002B00D09847084B042165
:1068E0001878084A05F048F970BDC0466C43FF1F90
:1068F000E464FF1FBE64FF1FE064FF1F0C65FF1F01
:106900001065FF1F60EA0000014B98687047C046A1
:10691000C464FF1F014BDB6818687047C464FF1F25
:10692000074B10B5DA68136801331360054B18780C
:10693000FF2803D08021C90105F0FEF910BDC04633
:10694000C464FF1F6C43FF1FF7B50E0002F0C8F8C8
:10695000051E1CD00E4B06621F78002F00D1077851
:10696000AB791020019305F077F8041E0FD0D023E7
:106970000380C73B8370019BE91DC370062204306E
:1069800004F04AFF21003800E66004F01DFFF7BD67
:106990006A43FF1F014B18787047C046E464FF1F2D
:1069A000054B002805D1054B1A78054B002A00D16C
:1069B000014B18007047C046D464FF1FE464FF1FFA
:1069C000BE64FF1F014B58687047C046C464FF1F78
:1069D000024B1868431E9841C0B27047E864FF1F1D
:1069E000421E03000120152A03D9FF3B5A4253419E
:1069F000D8B27047F0B51C0000230E0085B003909C
:106A000002920B70029A934201D3002019E0E55CD8
:106A10005A1CD2B2002DF8D0029851198142F4DCF0
:106A20000233DFB2A35C18000193FFF7D9FF0028FF
:106A300007D0013D019A0399EBB233708A4202D12B
:106A4000E01905B0F0BDDB19DBB2DBE710B50C00D7
:106A500002F09EF803001220002B03D0210058887A
:106A600004F0AAFE10BD000070B50E4D84006359FD
:106A7000002B15D0186A002801D005F0FDF82B591D
:106A8000586A002801D005F0F7F82B59986A0028B9
:106A900001D005F0F1F8285905F0EEF800232B514C
:106AA00070BDC046F464FF1F1C4B70B504000E009F
:106AB000150099420AD11A4B1B68002B01D11220F4
:106AC00070BD1B68002BFAD09847F9E7154B994227
:106AD00015D1134B1B68002B0AD01B68002B07D065
:106AE0009847002804D1104B1C70104B1D70E7E72D
:106AF00029002000FFF7AAFF0028E1D1F3E70800F2
:106B000001F0EEFF0028DAD003780320A342D7D1AA
:106B10002900300004F050FED2E7C046FEFF00001E
:106B2000F064FF1FFFFF0000ED64FF1FEC64FF1F18
:106B3000F7B50400808801F0D3FF0025A84203D0F8
:106B40000578A08802F008F81C4E3378002B1FD07F
:106B5000AB421DD11A4B28001978FFF777FF0028A8
:106B600018D000233370A3790820A778A688019352
:106B700004F072FF011E0DD0D0230370CA3B837056
:106B8000019B477086808371280004F01DFE01E0A0
:106B9000002DE8D1A0880B4B8200D358002B01D0E8
:106BA000FFF762FF1721A088FFF768FDA08801F0BA
:106BB00027FDA08801F0FEFDF7BDC046ED64FF1F74
:106BC000EC64FF1FF464FF1FF0B587B01D000CAB31
:106BD0001B88070001930DAB1B88142002930EAB9A
:106BE0001B88160003930FAB1B880091049310AB16
:106BF0001B88059304F030FF041E1AD0D0230370C5
:106C0000CB3B47708370C670062229000430002DEC
:106C100011D004F001FE019B21006381029B0098CA
:106C2000A381039BE381049B2382059BA37404F04F
:106C3000CBFD07B0F0BD05F057F8ECE7F7B50093D2
:106C400008AB1B8807000C200D001600019304F010
:106C500003FF041E13D0280001F042FF00280FD0CC
:106C60000078D0232370C93BA370009B21002381AF
:106C7000019B6770A580E680638104F0A5FDF7BDE8
:106C8000014B1878EDE7C0466C43FF1F13B50400B5
:106C900064890389C2888188C0780094FFF7CEFF99
:106CA00013BD000010B5044C2068002803D004F088
:106CB000E3FF0023236010BDF864FF1FA122F0B59D
:106CC000818892004A43384B384F1B6804009B1858
:106CD0009D2292009B18827989B01A603B68002B34
:106CE0005FD01D78324B1B68002B04D05B68002BF3
:106CF00001D000209847260008363100E079FFF7E0
:106D0000B7FD237DE0710200E0780493638A2900D7
:106D10000393238A0293E3890193A38800933300AA
:106D2000FFF752FFE378002B0BD1E289A379A1880A
:106D300002920196E27928000092012201F0DAFE27
:106D4000E0703B68002B20D0FFF7ACFF194D28788E
:106D500000281AD0184B1978FFF778FE002814D0B5
:106D60002B78E67808200793A78804F075FE011EAB
:106D700009D0D0230370CA3B467083708780867128
:106D8000079804F021FD00232B701721A088FFF73E
:106D900075FCA08801F034FCA08801F00BFD09B05F
:106DA000F0BD064B9DE7C0463409FF1FF864FF1F86
:106DB0000C65FF1FED64FF1FEC64FF1F6C43FF1F9A
:106DC000F8B5070008000E0001F08AFE041E18D076
:106DD0002620FFF78DFC051E00D12578062004F043
:106DE0003BFE041E0DD00021062204F07DFFD023BF
:106DF0002370C23B21006770A370A680E8B204F044
:106E0000E3FCF8BDF0B585B001930AAB1B78070031
:106E100002930BAB1B7808000D000092039301F066
:106E20005FFE061E22D0102004F016FE041E1DD0A8
:106E30001022002104F058FF2620FFF759FC0028FB
:106E400000D13078D0232370C13BA370009B210078
:106E50002372019B67706372029BA580A372039BE0
:106E6000C0B2E3720C9BE36004F0AEFC05B0F0BD71
:106E7000F7B50D00019001F033FE071E20D00E2063
:106E800004F0EAFD041E1BD02620FFF731FC061E8D
:106E900000D13E78D0232380C53B0622A370F91D84
:106EA000E01C04F0B9FC019B2A0063810123DD4052
:106EB0001A401D40210022736573F0B204F084FC77
:106EC000F7BD0000F0B585B0029010000D0017006E
:106ED0000A9E039301F004FE041E31D0029B002B96
:106EE0002ED1039B02795B0724D51223134304227E
:106EF000002E08D10B99002905D10C99002902D147
:106F00000D9900291AD01A430D9B2271002B00D035
:106F1000C9E0002E00D1CFE0002D00D0CCE0606AA7
:106F2000002801D004F0A8FE1C21300004F06CFE03
:106F3000606205E002239A430E33D7E7934323713F
:106F4000654BBA00D458002C00D1AAE0002E10D016
:106F5000236A002B03D11C2004F0FEFD20625E4B4F
:106F6000BA00D358186A002803D01C22310004F05C
:106F700053FC0C9B002B12D0574CBB001D596B6A65
:106F8000002B03D1162004F0E7FD6862BB00E35834
:106F9000586A002803D016220C9904F03DFC0D9B82
:106FA000002B11D04C4DBC006659B36A002B03D1A5
:106FB000142004F0D1FDB0622B59986A002803D048
:106FC00014220D9904F028FC380001F089FD051EFB
:106FD00067D0414BBA00D358002B62D01A6A3420D4
:106FE000002A00D11C389A6A002A01D0143080B2DD
:106FF0000B9A002A01D01C3080B25B6A002B01D0B2
:10700000163080B204F028FD041E4AD01822002158
:1070100004F06AFE2620FFF76BFB0190002801D1E7
:107020002B780193D0232370029B200063700A23E6
:10703000294EA370039BBD00A371AB59A780196AA9
:107040001830002905D01C22A06004F0E5FB2000C8
:1070500034307359996A002907D00300142214337D
:10706000E060029304F0D8FB02980B9B002B08D041
:1070700003001C221C330B992061029304F0CCFB0B
:1070800002987359596A002903D01622606104F0EE
:10709000C3FB6B462100187904F096FB3800FFF71C
:1070A000E3FC05B0F0BD10220D9B0D991B69A018E3
:1070B000236204F0B1FB2CE70B9B002B00D13FE7D0
:1070C000012D00D03CE7606A002801D004F0D4FD17
:1070D0001C210B982AE7C046F464FF1F10B5044C2E
:1070E0002068002803D004F0C7FD0023236010BDF2
:1070F000E864FF1F0B4B07B51A68002A01D1002076
:107100000EBD6946531C012012780731FFF772FC4F
:107110000028F4D002780123100018401A42EED063
:10712000EEE7C0460465FF1FF0B51F4F01203B6826
:1071300087B0002B25D09B78059300F0B3FB002887
:1071400021D00A20FFF7D4FA04000B20FFF7D0FA71
:10715000164B05001E78731E9E413B68F6B2191D42
:10716000D878FFF757FB3B682900DA7A043303929B
:107170009A7901930292009033002000059A04F05E
:10718000E3FD07B0F0BDFFF7B5FF002805D00620EE
:10719000FFF7AEFA04000720D8E70820FFF7A8FAA7
:1071A00004000920D2E7C046E864FF1FE464FF1F23
:1071B00070B50A4E040033780D00FF2B0DD004206B
:1071C00004F04AFC011E08D0D0230370CE3B45706A
:1071D0008370C470307804F0F7FA70BD7C43FF1FF1
:1071E00070B5040006200D0004F036FC011E0AD024
:1071F000D0230370CD3B8370054B44701B688580A2
:10720000187804F0E1FA002C01D0FFF767FF70BD99
:10721000E864FF1FF8B5264F06003B680D001124F7
:10722000002B05D10522234B1B78134202D11224D7
:107230002000F8BD204A10241268002AF8D01278E5
:10724000002AF5D0DB0719D52B789A1E012A1AD807
:107250000C2004F081FC132438600028E8D00023BF
:107260000A22437029000670023004F0D5FAFFF7B5
:107270005BFF041E0AD0FFF731FFD9E700F012FBD5
:107280000028E1D1E4E7002BE2D0D0E70B4B1B78DC
:10729000032BCDD11D20FFF72BFA094B18800028B6
:1072A000C6D0084B04211878074A04F065FCBFE7F4
:1072B000E864FF1FE564FF1F0465FF1FE464FF1F10
:1072C000E264FF1F1065FF1F60EA0000F7B501933D
:1072D000194B14001A78052306000F0012201A42D9
:1072E00021D0012920D1154B1D68002D1BD0022073
:1072F0001F2C18D8002C02D0019B002B13D0104B50
:107300001F221E706E1C0021300004F0EDFC01995C
:107310002200300004F080FA310020002C70002F91
:1073200006D004F001FDFEBD064B12201D68DCE70F
:1073300004F0FAFAF7E7C046E564FF1F0465FF1F93
:107340007C43FF1F0065FF1FF8B50F4E1224336802
:10735000002B17D01B780F3C834213D100250B4F15
:107360000221387804F0B0FB094B042138781D80E5
:1073700004F0AAFB074B28001D8033685C7004F002
:107380002BFA04002000F8BDE864FF1F1065FF1F02
:10739000FC64FF1FE264FF1F70B5012823D11B4C62
:1073A0002388002B03D01A4A1578002D07D0194BDB
:1073B0001B68002B02D01878FFF7C6FF70BD3B2B6F
:1073C00002D93C3B2380F9E7134E0221307804F0C8
:1073D0007BFBFA222388920002215A43307804F082
:1073E0009BFA2580EAE70B4B1B68002BE6D00B4B82
:1073F0001B785B07E2D5084B0221187804F064FB88
:107400000022024B1A80FFF769FED7E7FC64FF1FDA
:10741000E064FF1FE864FF1F1065FF1FE564FF1FA6
:10742000F8B51E4D2868002803D004F025FC002381
:107430002B601B4E3068002803D004F01DFC002395
:107440003360184F05243B7818002040234221D098
:10745000154800F02BFA3B78234213D0202004F08B
:107460007BFB2860002813D02022002104F03CFC84
:10747000202004F071FB041E306005D02022002182
:1074800004F032FC002004E0286804F0F5FB2C60D6
:107490001320F8BD00F00AFAF4E7C0460465FF1FA8
:1074A0000065FF1FE564FF1F7043FF1F10B50A4C06
:1074B00023681A1E0ED0002808D10130587004F03D
:1074C0008BF9002805D02368002B02D00021FFF79C
:1074D00087FE0122100010BDE864FF1FF7B5274E9C
:1074E000050033680191181E21D05C78244F012CCF
:1074F00030D1FFF7FFFD002825D02000FFF7F8F876
:107500000400412814D91F4B022118781E4A04F0A8
:1075100033FB1E4B3C3C1C80022233685A703B7884
:10752000002B14D128000199FFF75AFE0120FEBD5F
:10753000FA2292004243002AEED0124B0221187820
:1075400004F0EAF9E8E7FFF7D3F80200F3E70023D5
:107550003B70EBE73B78002BE8D1032004F07CFA8A
:10756000011E08D0D0230370CC3B45708370336874
:10757000187804F029F9FFF7B1FDD7E7E864FF1F99
:10758000E064FF1F1065FF1F60EA0000FC64FF1F3E
:1075900010B51749838802008B4220D011D81549B5
:1075A0008B4217D0144900205B1899B2012907D8E3
:1075B000926811785A425341D8B2FFF7F9FD012081
:1075C00010BD0E4A00209B1807229BB29A424041F0
:1075D000C0B2F5E783681878FFF768FFF0E78368C3
:1075E00099785A78090218781143FFF777FFE7E78F
:1075F0000A20000006200000F8DFFFFFAFDFFFFFDA
:10760000014B18707047C0467D43FF1F10B5064CF4
:10761000207001F041FA207804F026FB0521207843
:1076200000F062FD10BDC0461065FF1F0BB273B5C0
:107630000D00002B00DBC4E0884B187804F0CCFA76
:10764000041E0ED00378912B0FD0A22B00D1A1E005
:10765000834B1878FF2852D0210004F0B5F8002899
:107660004DD180200002684076BD43780F2B76D044
:1076700013D8052B70D00E2BEAD18088794B984215
:107680002BD8794B98421BD8784B9842E0D1A3680D
:107690001878591CFFF774F838E03E2BD8D183785E
:1076A000032B74D06CD8012B6ED0022BD0D1704B31
:1076B0001B68002B23D05B68002B20D098471EE06E
:1076C0006C4BC0180C28C3D804F056FB1DC2C21561
:1076D0000BC20B0B0B3223C23C00674BC0180728B0
:1076E000B6D8664B1B68002B09D01B68002B06D050
:1076F000200098470AE0A3681878FFF7C7F8200031
:1077000004F022FAADE7A068FFF762F800289FD0E6
:10771000F5E7A3681B78002BF1D0554B1B68002BB5
:10772000EDD01B68002BEAD0210055489847EDE7C3
:107730004F4B1B68002BE2D01B68002BDFD02100D1
:107740005048F3E7504B1B68002BD8D05B68002BE8
:10775000D5D021004348E9E7FFF7EAF9CFE7808871
:107760004A4B984203D04A4B984200D070E7464BB0
:107770001B68002BC3D05B68002BC0D02100D5E76D
:10778000153B012BBBD963E7FFF798FAB7E7FFF783
:107790007DFAB4E73F4B1B78042B07D100236A46E0
:1077A00013800179408800F0C5FCA8E7364B1B68C0
:1077B000002BA4D05B68002BA1D00100364898476D
:1077C0009DE7012421420AD0294B1B68002B04D0DD
:1077D0005B68002B01D000209847012043E78B070E
:1077E0000AD5264B1B68002B04D05B68002B01D008
:1077F00020009847022036E70421280008400D4267
:1078000000D131E7254E3388002B21D0013B9BB2BC
:107810003380002B1AD1FFF7DBF800280AD0204B69
:107820001C70164B1B68002B04D05B68002B01D02A
:1078300020009847FFF7C6F8694601F001FD684649
:10784000FEF7FEFF1D20FEF753FF308004200AE7FD
:10785000024B187804F038F9F8E7C0461065FF1FAE
:107860007D43FF1F0E2000000120000009100000D2
:107870000865FF1FFEDFFFFFAFDFFFFF0C65FF1F87
:107880000C2000000B200000F064FF1F0D20000002
:1078900013200000E564FF1FFFFF0000E264FF1FEC
:1078A000E064FF1F10B501F09BF910BD014B18609B
:1078B0007047C0460C65FF1F0B880020162B01D8AF
:1078C00017230420014A13807047C046BA64FF1F83
:1078D00000207047074A03001188814207D0918831
:1078E0000020994202D1013080001018704700201A
:1078F000FAE7C0461865FF1FF0B58F7806000D0047
:10790000C5B01E2F15D1FFF7E5FF051E03D10024DA
:10791000200045B0F0BD00223B003100C07800924D
:1079200000F0B2FB0400A81C00F0D2FBFF23EB70B8
:10793000EEE7264B062403931B78FF2BE8D0182F85
:10794000E6D87B08224A013BDB0002929A58944613
:10795000002ADDD0029AD3185B68002BD8D00878B3
:10796000002802D14B78012B02D10624122FCFD14F
:1079700007AFAB88697800976446AA68A047041EE1
:10798000C6D1AB78029A5B08013BDB00D318390003
:1079900030005B689847041E0BD1AB78042BB6D03F
:1079A000039A310010782200009700F06DFB04006C
:1079B000AEE76A78002AABD1AA7805A93B8808719E
:1079C00030000A704B80FEF747FBA0E78043FF1FA3
:1079D0008CBF00111D4B37B5050098420BD0002914
:1079E0000AD1FFF777FF002805D11948FFF772FF8A
:1079F000002800D0058037BD01291AD1FFF76AFFA2
:107A0000041EF8D001235B420380A378FF2BF2D041
:107A1000FE2B07D00023E0781422009329001E33A8
:107A200000F032FBA01C00F053FB01235B4263809B
:107A3000E1E70229DFD1013901F0BEF80028DAD1EF
:107A40002800FFF747FF041EDFD1D4E7FEFF000048
:107A5000FFFF0000022210B5074B52421A80074870
:107A600001325A809A80DA8000F07EFA044801F0F0
:107A700025F8002010BDC0461865FF1FF9780011D9
:107A8000D57900110388F7B50400002B02D1022537
:107A90002800FEBD42680221137825485268FEF78F
:107AA000A5FD00282ED0234F01253A88002AEFD0CB
:107AB000802321885B0201259B1A9942E8DC0C2077
:107AC00004F04AF8061E31D03B8822889C460023E9
:107AD0001800019561469DB2491989B2AA421BD886
:107AE000002801D062443A8000233000082208C0F8
:107AF000210003F091FE104A1368002B13D10025DA
:107B00001660C5E76268022113780C485268FEF7D8
:107B10006DFD0028C7D1BAE760681D014019418199
:107B200001330198D6E71A001B68E6E71325AFE793
:107B3000FABF00117E43FF1F1465FF1FF8BF00113D
:107B4000014B18707047C0468043FF1F14230A0082
:107B500010B51A40194204D00122102101F048F852
:107B600010BD4B06F9D4012088434000F8E710B55A
:107B700014008B0604D50122102101F039F810BD44
:107B800008230A001A40194202D14BB2002B0FDA27
:107B9000102101F02DF8002808D02300F2331B78C3
:107BA000002BECD0F1342378012BE8D10020E6E75C
:107BB00003208907FAD4E2E7F0B51F00184B85B01F
:107BC0001C68019002910392002C27D1200005B07F
:107BD000F0BDA5683301ED186B89019A934211D36A
:107BE000029A93420ED8002F04D10A9B002B10D189
:107BF0002C00EBE73B002978039A6868FEF7F6FC57
:107C00000028F2D10136B6B2A388B342E1D8246885
:107C1000DAE7A3680A9A5B891380E9E70026F3E7AD
:107C20001465FF1F37B50C000A884988012391426B
:107C300017D3002A15D0651D23792A0002210A488E
:107C4000FEF7D4FC102300280BD02379618820880C
:107C500000242A000094FFF7AFFF0A23A04200D0BF
:107C6000230018003EBDC046FABF001113B50A003C
:107C700008884988012388420BD8002809D00024AD
:107C8000137905320094FFF797FF0A23A04200D032
:107C90002300180016BD13B50A000888498801237F
:107CA00088420BD8002809D00024137905320094AB
:107CB000FFF782FF0A23A04200D02300180016BD60
:107CC000F0B58BB003904A8808880E0001238242E9
:107CD00055D3002853D00023012704AC2370002281
:107CE000718813000092FFF767FF051E3ED02078D1
:107CF000002835D12B78022B18D167706A89830050
:107D00000130E31880005A8069680222201803F0CD
:107D100083FD23780133DBB22370042B19D93B0098
:107D20006889013080B2002BD9D01FE00223637034
:107D3000122358436A89231804305A806968102234
:107D4000201803F069FD23780133DBB22370002B88
:107D5000E5D10C4A6B899B185A425341DBB2DFE7ED
:107D60006378012BE4D12B78022BC7D022780A2329
:107D7000002A04D021000398FEF798F90023180088
:107D80000BB0F0BD0100FFFF0F4BF0B50400186809
:107D9000002816D083685D89A54207D88288AE186E
:107DA000B44203DA12019A18934201D10068EFE756
:107DB0001E005F891036A74204D1002900D00D8033
:107DC0001800F0BD3300EFE71465FF1F70B5050024
:107DD0000C0008880021FFF7D7FF03000120002BCB
:107DE00004D022002800197AFFF7C1FE70BDF7B554
:107DF0000C00002501902300EE331B78AB4201D824
:107E000000200AE06B00E65A00213000E718FFF777
:107E1000BBFF002802D126800130FEBD017A019807
:107E2000FFF794FE002802D03B882380F5E7013558
:107E3000EDB2E0E710B5040008880021FFF7A4FFC9
:107E400003000120002B03D02000197AFFF77EFEEB
:107E500010BD0000054B1B68002B01D1180004E089
:107E60009A6852898242F6D1988870471465FF1F3C
:107E7000F0B50E27002687B0039302ABFF183E80B3
:107E800005001F4B40891400984207D02B78013021
:107E900000976A6880B2FFF78FFE060002212B78F8
:107EA00018486A68FEF7A2FB00280FD06C892000F2
:107EB000FFF7D0FF002802D0013C0419A4B2039BB5
:107EC000002B00D01C80300007B0F0BD02212B78C1
:107ED0000D486A68FEF78AFB0028E7D102212B785B
:107EE0000A486A68FEF782FB002807D0002EDED021
:107EF0003B88A342DBD17489013CDFE76C89DEE774
:107F0000FFFF0000FABF0011F8BF0011F6BF00111B
:107F100010B50C00FFF7DEFC03000220002B0AD096
:107F2000002C00D023609B781720FE2B03D0013853
:107F3000FF2B00D1002010BD73B50D0001A9040076
:107F40001600FFF7E5FF172805D0002E04D1290001
:107F50002000FEF727F976BD01221021200000F055
:107F600047FE0028F3D0F6E7014B18607047C04683
:107F70002465FF1F37B56B469D1D010004000222DA
:107F8000280003F079FD2B88B02B0ED12379122B1A
:107F900009D12300FA331B78012B06D10121608817
:107FA00000F0E0F801E01B2BF8D037BD10B5054B11
:107FB0000421187000F098F8FFF74CFDFEF770FBF5
:107FC00010BDC0462865FF1F0020F0B50BB20F00A2
:107FD00087B0834234DA274B187803F0FDFD051E85
:107FE0002BD00378A02B25D103AE3100FEF7E4F8A7
:107FF000041E0BD1B378DB0724D51F4B06341B6856
:10800000002B03D03100688898470400A868002836
:1080100001D003F0E1FC002C08D1184A039B134067
:10802000174A934206D0B3781B2B03D001216888EE
:1080300000F098F8280003F087FD802000027840C7
:1080400007B0F0BD0F4B1B68002B10D031006888C3
:108050009847041EDAD07378002BD7D1B27801A9E3
:108060000A704B800C716888FDF7F6FFCEE7062496
:10807000F1E7C0462865FF1F2065FF1F00FFFF00D6
:10808000000112002465FF1FF7B50190FC200D00D0
:1080900017001E0003F0E0FC04001320002C12D097
:1080A000B02320002370089BF4226770658026713E
:1080B0000830002B08D0190003F0AEFB2100019816
:1080C00003F082FB0020FEBD089903F00DFEF5E7EA
:1080D00010B5041E06D00078FD2803D803F094FCE8
:1080E000FF23237010BD00000A1F93B210B50400D7
:1080F0000220032B05D882400020024BD1529B184E
:108100009C7010BD4865FF1F0B8870B5043B0400D0
:108110000D000220032B0BD80121200000F04CFDA4
:1081200003001420002B03D02900200000F0DEFB08
:1081300070BD000007B51300034A00920A00012138
:1081400000F02CFC0EBDC0467183001107B50192F2
:1081500003220092024B0A00122100F049FC0EBDDE
:10816000EF83001107B56B4601AA11800449D8803E
:1081700008780633012802D1190003F00DFB07BD72
:108180002965FF1F0C4B10B518700023FF210B4A07
:108190001380138193819380094A53801370517225
:1081A00093819372D174D3821375517703F03CFBA2
:1081B00000F0FCF910BDC0465865FF1F4865FF1F61
:1081C0002A65FF1FF0B58DB06B46002003910C228D
:1081D0009B5E834200DBB0E05D4B187803F0FCFC53
:1081E000051E00D1A4E00378902B00D09DE006AFDF
:1081F00001004688380000F013FA7968040000296D
:1082000000D19CE03B88052B6ED13B89032B1CD908
:1082100005AC200000F0A2F86288172A61D83989DD
:10822000131D994231D17968237804310291D9071D
:1082300038D5607800F08EF9071E06D00023037150
:108240002378012B08D0132B23D0A868002800D155
:1082500078E003F0C1FB75E06288029909A800F09C
:10826000A6F80290380000F08BF909AA2378387A32
:108270000192002231000092029A00F012F93800B7
:1082800000F064F9029B002BDFD0300000F080F991
:10829000DBE70378032BD8D16288029909A800F0A4
:1082A000D6F8DEE7122B13D1029909A800F0B5F831
:1082B000021EEAD127498B88002BC6D0887909A9EC
:1082C0002378019161780091310000F0EAF8BCE771
:1082D000002302AA93833000617809AAFFF72AFFDE
:1082E000B3E71D4B0993F6E7042B02D09A1F012A2E
:1082F000ABD8184A043B9B00995A0029A5D0D21844
:10830000907831003A0000F0AEF800289DD13B880B
:10831000042B03D001213000FFF724FF012C04D1EE
:10832000A868002801D003F057FB280003F00CFCDC
:108330008020039B0002434018000DB0F0BD0128CF
:1083400000D182E701213000FFF70CFFEDE7C046C6
:108350005865FF1F4865FF1F010017000B78037069
:108360004B784370CB788A781B0213434380704765
:108370000A88030002700A88120A42700A88012AD9
:1083800006D14A8882704A88120AC2700420704757
:1083900002208242FBD14A8804309A704A88120A2D
:1083A000DA708A881A718A88120A5A71EFE710B552
:1083B0000400012082420CD94B780A781B02134337
:1083C0002380834206D1CB788A781B0213436380D3
:1083D000002010BD022BFBD1CB788A781B021343FF
:1083E00063804B790A791B021343A380F0E70B8863
:1083F00003700B881B0A43704B8883704B881B0AE1
:10840000C3708B8803718B881B0A4371CB8883717F
:10841000CB881B0AC3710820704703000120082A7B
:1084200014D14A780878120202431A80CA788878F0
:10843000120202435A804A790879120202439A8052
:10844000CA798879120202430020DA80704710B599
:1084500004000120022A05D100204B780A781B0273
:108460001343238010BDF8B5060010200F0015003F
:1084700003F0F2FA04000120002C0ED0A0230C22FD
:10848000290023806780201D002D07D003F0C4F948
:108490002100300003F098F90020F8BD03F024FC1F
:1084A000F6E7F7B51E00009008AB142017001D7802
:1084B000019103F0D1FA041E12D0A2230370019B94
:1084C00047704380099B057146710C220830002BD0
:1084D00007D0190003F0A0F92100009803F074F907
:1084E000F7BD099903F000FCF6E737B5041E0FD07D
:1084F0004388002B0CD00025C1881323007A172253
:1085000001950095FFF7CDFFFF236580637225700D
:1085100037BD000010B50C4904004A88002A09D074
:108520008B89002B05D00020CB8A0222834201D008
:1085300010BD012213000A20434300204032C854DA
:10854000C81842800472F3E72A65FF1F00234380A6
:1085500003707047094B00211A0010B55C88002C8D
:1085600006D01C79844203D10A234B43D01810BD96
:1085700001310A330329F1D10020F8E72A65FF1FF2
:1085800010B50400407A03F03FFAFF23637210BD78
:108590007047043010B580B203F046FB002803D0CA
:1085A0000421494203F078FA10BD000070B500259F
:1085B000104CA0682580A581A580A84202D003F0B8
:1085C0000BFAA56000250C4C0C4B606D1D80230040
:1085D00058331D70A84202D003F0FEF965650025EE
:1085E0006068002801D003F0F7F9013508340A2D3E
:1085F000F6D170BDF065FF1F9465FF1FE465FF1F96
:1086000070B5041E09D1054D2880A881A880A868EE
:10861000002802D003F0E0F9AC6070BDF065FF1FE8
:10862000F0B54B8885B00193002343600A790500BB
:108630000F00022A00D07BE0CA88032A17D98B6872
:108640005E7819783602DC78D8790E4399781B7AEF
:1086500024021B020C43034353495BBA0B80331DB6
:1086600093421ED1042C04D0631F022B0ED901208B
:1086700015E0019A4D4B1201D35A002B06D00198F8
:10868000FFF7BEFF4A4A1369013313610421B8683A
:108690002E812C80494203F0FFF96860002005B06C
:1086A000F0BD434D042C06D0631F022B0FD9EB689D
:1086B0000133EB60DBE7019A3C4B1201D35A002BEC
:1086C00005D00198FFF79CFF2B6901332B61374BD5
:1086D00030000293019B029A1B0101930023019930
:1086E0008C468B52130063449C8003939E81FFF75A
:1086F00050FF039B041E986016D00421B8684942BD
:1087000003F0CAF9FA880100043A200003F084F863
:108710000199029AFB888A5A043B9B18029A8B5251
:108720002B6801332B60A2E7AB690133AB619EE795
:108730001E4B0293019B1E01029BF35A002B2DD06E
:1087400002998C19A068002828D0012A26D1FA881D
:108750009B189BB27352A189994217D39B1AC018D8
:10876000B96803F059F8029BA289F35A934200D0EA
:108770007DE700222B81A3882B80A3686B60029B7E
:10878000F2520B4A53680133536070E7084A93680A
:10879000013393600198FFF733FF68E7044A536998
:1087A00001335361F6E7C0465A65FF1FF065FF1FAE
:1087B0006065FF1F70B5051E15D10B4C0B4B188063
:1087C000230058331870606D002802D003F004F9BC
:1087D0006565250050356068002801D003F0FCF87D
:1087E0000834AC42F7D170BD9465FF1FE465FF1FEC
:1087F000F0B51700A12285B0920001934243394B96
:1088000006001B680C009B18D933FF331D78FDF759
:1088100041FF0430854204DD3000FDF73BFF0430AA
:10882000C5B2BD4207D33A0000213000019B03F0DE
:108830008BF805B0F0BD2900380003F08DFA230055
:10884000C6B250331E700393019B29006365380044
:1088500003F05AF9CBB20293002B02D0039B0136EE
:108860001E7000262300503303931B78B34204D8B4
:10887000606D002831D10020DBE7029A2800002A31
:1088800004D0013B1000B34200D02800F700E719E4
:10889000387003F019FA786000280ED03A78019900
:1088A00002F0BAFF019A3B780136D3180E4A0193C1
:1088B000D369F6B20133D361D4E7039B18706065C6
:1088C000A74205D1084A1320D36A0133D362B0E727
:1088D000606803F081F80834F2E703F07DF80023C4
:1088E0006365C8E73409FF1F6065FF1FF7B50D001A
:1088F00007000421686803F0CFF82B890400037097
:108900002B891B0A43702B8883702B881B0AC3702A
:108910002E8902250436F6B2F42E15D81B4B9F4241
:1089200014D10C2003F098F81135011E0CD09023BF
:1089300003708E3B0371043B4380154B8460C680FB
:10894000187802F041FF00252800FEBD5C237B4320
:10895000104AD3180093583301931B78002B0FD182
:108960000300320038000099FFF742FF019B050029
:108970001B78002BE8D13800009902F015FFE3E7DF
:10898000054A0725536A01335362DDE7FEFF000005
:108990005865FF1F9465FF1F6065FF1FF0B587B026
:1089A000009017200F0016000193FFF7F2FD13252A
:1089B000041E19D00C98031E02D00199201D98475F
:1089C000030AE370052302AAA07004309081277087
:1089D0000098667003A993800494FFF787FF051E33
:1089E00002D0200002F0F8FF280007B0F0BD000020
:1089F000F0B587B01F000CAB1B78039105930121E4
:108A00000DAB06001C78049200F0D6F8142500285F
:108A100021D02000FFF77EFD0135041E1BD0114937
:108A2000059B0A7803700132D2B2131EC68001D1B1
:108A300001231A000B7022713000049B03990097E8
:108A4000FFF7ACFF051E09D1230021000648074AA5
:108A5000093303F099F9280007B0F0BD00236380C3
:108A60002370F8E75C65FF1FEB8400113075000090
:108A7000F8B505000E00064C064F2368002B02D007
:108A80003100280098470434BC42F6D1F8BDC046F6
:108A90000066FF1F1466FF1F0123064A5B425380D6
:108AA000002313715362044A136053609360D360D0
:108AB000136170471466FF1F0066FF1F020000234A
:108AC00010B506499C000859002801D1625010BD1C
:108AD0000133052BF6D11320F9E7C0460066FF1FCE
