:020000041100E9
:10300000002373B52B4D2C4C28006361022601F080
:103010006DF94021FE2221742800284B009601F012
:10302000B7F9002836D1217CFF222800244B0096D6
:1030300001F0AEF900282DD1224BA2899A4226D167
:10304000E389214A93420DD1204B6361204B2268D2
:10305000002A03D1002B01D043CB43C4280001F048
:1030600083F973BD1B4A934201D00023EFE71A4B4B
:103070001A4A1B68934206D9C02304222800217CE7
:103080009B0001F0FBF9114B6361154BDFE7002357
:103090002374EAE7CC233821AC2228009B01217459
:1030A00001F0ECF90028F2D10E4B63610E4BE38185
:1030B0000E4BCCE7A442FF1F7862FF1F8462FF1F04
:1030C0008662FF1F59590000830500001941001155
:1030D00050BD0011821500009C62FF1F8713000085
:1030E0005CBD0011D1410011AAAAFFFF44BD00112F
:1030F000F7B5164B0192C318021D002000938823D8
:103100005B05D3181B685C1C1AD09CB2402C18D8E5
:103110008D781E0CAC466746CD782D023D43AE42FD
:1031200006D1019800280ED110000C70240A4C70B2
:1031300003249BB20733A343D218009B9A42DED3E9
:10314000FEBD4432F9E71000FAE7C046FC0F00006C
:10315000802213B503000324019189B25201073183
:103160009B18A14304305A1A88235B05C3181B68B7
:10317000591C03D190429241104016BD99B240298A
:1031800007D80B000733A343C0189042ECD30020AC
:10319000F3E74430F9E7134B134A1B68126810B584
:1031A000FA24934201D81A00F824104BE4021B6859
:1031B0009A4210D813000E4A12689A420ED3013375
:1031C00007D1F823DB029C4203D10A49054808F0E5
:1031D00053FB200010BDFC24E402ECE7FE24E402D3
:1031E000F7E7C04600C0071100D0071100E0071143
:1031F00000F00711FFFFFF7FF0B59BB015000490B2
:103200000391402A00D9A0E006AB59801A80FFF74D
:10321000C2FF0400042816D9002206A9FFF768FFA0
:10322000052810D906AB1B88AB420CD1002D07D066
:10323000514B2A000499C01808F0EEFA002802D178
:1032400001201BB0F0BD06AB1D8020000699FFF7E2
:103250007FFF041E7BD1069B0793FFF79CFF802313
:103260005B01C618802307001B039E4201D3F8268A
:10327000F60288235B05F31801931B68013302D023
:10328000019808F039FB3D49019808F0F5FA3B1D1B
:103290000293331D05938822029B52059B181B68DD
:1032A00008935A1C3CD044219AB20091402A04D879
:1032B0000320D11D814389B2009103991B0C8B42DD
:1032C00024D0402A22D80122300008A9FFF710FF9D
:1032D000021E1BD1380008A9FFF70AFF04000428CA
:1032E00031D9009A059B9B1880225201B218934253
:1032F00040D288235B05C118009A09A808F064FA37
:103300001D4B009A09A9F01808F0E6FA009A029BF2
:103310009446634402931A4B029AFB189A42BAD31A
:1033200088235B05FC1821680198013908F0A4FA8C
:10333000200008F0E1FA039A07AB5A8030000799A1
:10334000FFF706FF0400002C03D1002079E70428D2
:10335000FBD988235B05E018069908F08DFA032352
:10336000EA1C9A4300D16BE7034B0499E01808F07C
:10337000B3FA65E70424ECE704000011FFFFFF7FC8
:10338000F80F0000F7B505001400402A21D80027E7
:1033900001AE71803780FFF7FEFE042816D93A008F
:1033A0003100FFF7A5FE042810D93688BC420BD0A7
:1033B000BD4209D0221CB44200D9321C064B92B245
:1033C000C118280008F000FA30B2FEBDC04300B2B8
:1033D000FBE703204042F8E70400001137B5042260
:1033E00004000D0001A81649FFF7CCFF02000428D5
:1033F0000BD1019BA34208D3AB4204D0104901A8D2
:103400000195FFF7F9FE01203EBD0E4C2368200018
:10341000019308F071FA019920000139019108F037
:103420002BFA80235B01E418074B9C42EED1042267
:10343000034901A80195FFF7DFFE0020E4E7C0463D
:103440005555000000C007110000081130B589B0C3
:1034500008F002FA10226946254808F01DFB254BAA
:10346000009A9A420ED1019B029A0F2B33D8002169
:1034700001240698013B08D2002900D00292029B49
:10348000013331D10023029325E0551CF2D1020013
:103490002100EFE710341022200004A908F0FCFA04
:1034A000029B013301D1069B0293882304995B059B
:1034B000C918059B06981A03120B049105928142C4
:1034C00003D02B4201D108F07FF9019B013B01930E
:1034D000019B002BDED1029B002B03D004930498A8
:1034E0004168084709B030BDE025014C2D03EFE7E6
:1034F00000000111504859368022F8B5964C974B80
:10350000D200002120001C6008F06EFB2300944ACA
:1035100088331A60934B1A786A23002A00D011333B
:10352000E3620A232365904B37221B780820A363AC
:103530008E4B2118E361102323628D4B3B25636181
:10354000C823DB00A36123008C331A602823013ACF
:10355000E26320646364CA67043A211DCA672100DC
:10356000BC310D602100C03108602100C4310B6006
:1035700021000635CC310D602100083DC8310D60B9
:103580002100D0310A602200D43210602200D832EB
:10359000136022000227E032210017604222DC3152
:1035A0000A6021001B3DE4310D602100E831086014
:1035B0002100EC310B6023000521F4331960230056
:1035C000F0331A602300183290331A6023009433CA
:1035D000186023001E3A98331A60AF23DB00236083
:1035E000644BFA262363644B644DE360644BF03113
:1035F000A3642300FF31FC33B600A16021611E608B
:10360000A5627325E5656D3D6565A56596255D4AF1
:10361000AD00E264666258606766A566002709250A
:10362000A767E566584F594D606720002567E26738
:103630003A6015279C30676007001A203860200028
:10364000A0300700212038602000A83007004C4837
:1036500038602000F830066026006427A436376002
:1036600026005F3FAC3637602600033FB036376038
:103670002600C637B436376026000027B8363760D4
:1036800038269E60424E96205E64424E5A66DE6147
:10369000414E9A645E62F53EFF3E9E621E269A6728
:1036A000354A8000DE661F675F67DD651D6618624C
:1036B000DA67BE23394A5B00E250394BD8382350D1
:1036C00004302250C4225200A350C623E4205B00E1
:1036D000E1500433334AE1503349344BD16034492B
:1036E000800019503349E938FF3819503249043005
:1036F000195032493248D16132491163324951631C
:103700001900F4310860CE20304940001160304982
:10371000195019002F48F83108602F49D1658221CE
:103720002E4A89005A501A002D490832D1671A00D2
:103730002C49B432116088212B4A89005A501A0052
:103740002A49883211602A4ADA6408F0CDF801204B
:1037500007F0FAFFF8BDC0460004FF1F1465FF1F05
:10376000F06FFF1FE844FF1F4A0AFF1F3A070000DF
:1037700080C3C9019A020000DC0500006A1800003D
:1037800050C3000088130000F009FF1F204E000006
:103790006509FF1F68100000C409000040420F00C7
:1037A00010270000FC00FF1F751CFF1F0000FF1FFB
:1037B000C92CFF1F5930FF1FF12EFF1F3520FF1F9F
:1037C0002527FF1F5120FF1FFD21FF1FC11FFF1FC6
:1037D0004929FF1F312AFF1F8D19FF1F5528FF1F81
:1037E0007925FF1F8525FF1FC11EFF1F791FFF1FA2
:1037F000391EFF1F0223F0B50124614D614E2B706D
:10380000614B91B01C70614F039333680021082015
:10381000FB7006F0FDFD082006F0F4FC0023984242
:1038200005D0FA78552A02D0332A00D09BE03360C5
:10383000042006F067FF07F0E7FEFFF75DFE08F0E3
:10384000FBF81F2201240021514B10AE1A70514B7E
:103850001C70514B1970514B19689143163A0A4329
:103860001A60602219689143403A0A431A6008F0CE
:10387000DBF908F0A9F9C120FF21494B80001A5853
:103880008A431A50C522920098588843BF39014391
:1038900099509858434908408021C901014380202C
:1038A00099509958C0050902090A0143995080218D
:1038B0003D48490108F070F8032322003B49019478
:1038C00000933B4807F0F8FF2C223A4905A807F07F
:1038D0007BFF05AC61782078023406F0B3FCA64289
:1038E000F8D1354C0020012106F0C0FD2268334B91
:1038F00003201A40A023DB021343236080232268A5
:103900009B041343236022682D4B1A4080239B03A2
:10391000134323602B4A2C4B934200D8012008F01C
:10392000CBF808F069F980232268DB041343236095
:10393000287808F001F9039B1878C0B208F054F811
:1039400008F062F82149042008F0D6F806F0A6FE37
:1039500000F03EF800F0E8FD00F090FE00F00AFAFA
:10396000002011B0F0BD00932100184A042008F097
:10397000D3F88023DB059C62FFF768FD58E7C0465B
:103980004A0AFF1F34F00040E844FF1FA862FF1FEF
:10399000480AFF1F490AFF1F680AFF1FBCF00040CA
:1039A00000E100E0FF00FFFFEC44FF1F7057FF1F26
:1039B000EC54FF1F68BC001114F00040FF7FF8FFBB
:1039C000FFFF9FFF0080FF1FF06FFF1F3B000108FC
:1039D000002210B51100112007F026FE10BD0000D6
:1039E000F8B500230926374F374C3B62E3681120B6
:1039F000B343E36007F0F8FE112008F0A5F81120AA
:103A000007F0B2FE40232268802513432360802301
:103A10006268DB0213436360A3682C4A2B43A360F4
:103A2000A36802211340A3608023A2689B01134373
:103A30001022A360236C072093432364236C0F3A66
:103A40001343236480235B003B62226B204B1A40AC
:103A50002263626B1A406263A26B1A40A263E26B3C
:103A60001340E363E3681B4A1340E36006F0EAFB9C
:103A70000121072006F0FAFC174B11205A6C154360
:103A80005D6407F059FFFD21144B154A89005A5017
:103A90008023C720626B5B0313436363E36880008A
:103AA0003343E3600F4B104A195811408022120231
:103AB0000A431A50802292051A6008220B4B5A635F
:103AC000F8BDC04600F000403CF00040FFFFDFFFC3
:103AD000EFFFEFFFFFFF7FFF003800400000FF1FF8
:103AE0005118FF1F00E100E0FF00FFFF000005404C
:103AF00070B5284C238C002B23D0228A002A21D198
:103B0000DA0023826382A382E38223836383A38315
:103B1000E38322606260A260E2601F4D1F4A64205E
:103B2000EB8093420AD8FA220020D200934205D9B2
:103B30001B4A0A21981807F01FFFC0B20023287201
:103B4000238470BD0720E11CCA7F01320240CA777E
:103B500005D10325201DC17F01312940C1770832DD
:103B60005200A352002321001A00088A01321B18B8
:103B70000231082AF9D1221DD27F9200A350626837
:103B800023689B18A2689B18E2689B185B099BB28C
:103B9000C3E7C046E861FF1F9062FF1FB70B00003C
:103BA00030F8FFFF30B503A804880B20002C0ED19D
:103BB0004968074D08784978090201430A20A9425B
:103BC00005D1012120001980024B1B7A137030BDF2
:103BD000192A00009062FF1FF7B5150008AA168881
:103BE0004A680F4F14785278120222430A24BA42CC
:103BF00014D10122DBB2019200962A0007F09EFC4C
:103C0000041E0BD1074B1B68002B07D068782A785D
:103C10000002104342425041013098472000FEBD4F
:103C2000022900001462FF1F30B50125037904004A
:103C3000BFB02B4211D00A49408806F0EBFF284262
:103C40000BD0084B01A95B8D4D800B80064B0022E9
:103C50001B7A60880B7104F0BDF83FB030BDC046E0
:103C60000C62FF1F1841FF1F9062FF1F10B505492E
:103C7000054806F085FF0421044A054806F042FF86
:103C800010BDC0460C62FF1FFFFF000094BC001176
:103C90001841FF1F10B5024804F01EFF10BDC046BA
:103CA000293C0011012303700B4B1A7A4270022247
:103CB00082709A78C270DA780271032242711A799E
:103CC00082715A79C2710C2202729A794272DB793E
:103CD00083720B207047C0469062FF1F022310B50D
:103CE0000370013B43700533837010330371443B11
:103CF00043712A3383714433C37100230372064B2B
:103D000004001B8843720A30FFF7CCFF831D0A3082
:103D1000C0B2E37010BDC0469062FF1F10B5142002
:103D200007F0D2FC124B14220021186007F05CFF50
:103D3000002007F029FF012007F0C6FD022007F050
:103D400043FE032004F06CF9042006F081F90520FD
:103D500003F0AAFB062004F077F8072001F06AFAC6
:103D6000082006F0AFFE092001F036F810BDC0466D
:103D70001862FF1F07F0B8FC012007F06DFC07F088
:103D8000BBFC0000094B10B50400984205D0012986
:103D900004D12000064906F0F3FE10BD0229FCD133
:103DA000013904F057FE0028F3D0F6E7FEFF0000CB
:103DB0003E62FF1F70B50D7A100004AA2C00168811
:103DC00010221440154220D1002E20D10A78022A58
:103DD00018D14A68517815780E4A09022943914250
:103DE00005D00D4A914209D01C800A2404E0142217
:103DF0000A491A8007F0E8FC200070BD0C2208492F
:103E00001A80F7E71C800124F6E70824F4E70B2466
:103E1000F2E7C046F3FF0000F4FF00007443FF1F09
:103E200074BD001110B504000749084806F0A8FE4B
:103E3000074804F091FD0020E40704D50721054A56
:103E4000054806F05FFE10BD3E62FF1FFFFF000049
:103E5000853D0011D8BC00115C41FF1F00B50C4B23
:103E6000BFB01A780B4902A800F0C2FC6B4680B2C2
:103E7000D880002809D06A46074B01A91B88938087
:103E8000064B0022188803F0A5FF3FB000BDC046D6
:103E90001C62FF1F1D62FF1FB641FF1FC042FF1FB4
:103EA00000B50C4BBFB01A780B4902A801F0D8FE40
:103EB0006B4680B2D880002809D06A46074B01A91A
:103EC0005B8D9380064B0022188803F083FF3FB080
:103ED00000BDC0464662FF1F4762FF1F5C41FF1FD7
:103EE000C042FF1FF7B50E00377A1C0008AB110067
:103EF0003D001A8820231D401F423CD13378022BFD
:103F00003BD173681F785B781B023B431E4FBB425B
:103F100008D01E4FBB4214D01D4DAB4221D00A2504
:103F20002800FEBD002A2AD1142C2AD82200F068CD
:103F300007F04AFC174B1C70012CF1D9FFF7B0FFBA
:103F4000EEE7002A1BD1202C1BD82200F06807F0D6
:103F50003BFC114B04211C70104B187807F08CFDB2
:103F6000DEE7E3B20124009201940A00310007F079
:103F7000E5FA0500D4E70825D2E70125D0E70B25AF
:103F8000CEE70D25CCE7C046F3FF0000F4FF0000AC
:103F9000022900004662FF1F1C62FF1FC862FF1F4C
:103FA000332310B5040003700A220749013007F0DB
:103FB0000BFC064B0F201B681A0AE37222731A0CC3
:103FC0001B0E6273A37310BD9062FF1FB862FF1FC8
:103FD00030B5012503790400BFB02B4213D00B4943
:103FE000408806F017FE28420DD06A46084B02A80A
:103FF0001B889380FFF7D4FF6B46D880002260882F
:1040000001A903F0E7FE3FB030BDC0463E62FF1F8E
:10401000B641FF1F10B5024804F05EFD10BDC0465A
:10402000D13F001170B5160004AA148805AA1578AE
:104030004A685078117800022A4A084380180528F7
:104040004BD807F0A9FD03131E29343F0720042C89
:104050000BD80522121BAA4200D92A0022491A8035
:104060003000091907F0B0FB002070BD0720112CAB
:10407000FBD81222121BAA4200D92A001B491A801F
:10408000EEE707200E2CF0D80F22121BAA4200D90F
:104090002A0017491A80E3E70720032CE5D80422F9
:1040A000121BAA4200D92A0012491A80D8E7072019
:1040B000032CDAD80422121BAA4200D92A000E4986
:1040C0001A80CDE70720032CCFD80422121BAA4266
:1040D00000D92A0009491A80C2E700220A201A8062
:1040E000C3E7C046DCD5FFFF23BD00116462FF1F9C
:1040F00013BD00110EBD001109BD001104BD00115A
:1041000010B50D21024A034806F0FCFC10BDC04664
:10411000F8BC0011CC41FF1FF0B50024274E85B03C
:104120003000B47100F0E2F8254D264BEA89297C75
:104130009A422FD10423300003AA00F057F904005B
:10414000300000F011F90123B371002C34D16B461B
:1041500099892B68C9BA4B4329891B4A1B145B18E0
:1041600053806B46D9896B6849BA89B24B436989D8
:104170001B0C5B181548191C1BB2834200DD011C87
:104180000B0400D500211388918001331380200097
:1041900005B0F0BD0227220003AB3000009700F00D
:1041A000F7F80E230400297C0122300000976B44AD
:1041B00000F0EEF80443C3E71C00E8E7A442FF1F49
:1041C0007862FF1F830500009062FF1F0F27000029
:1041D00073B5234E300000F089F8224D07236A465C
:1041E0003000297C00F002F904003000002C33D1AB
:1041F0006B461B787F2B2FD800F0B6F86B46D8782B
:10420000F02302041B031A406B469B8816495BBAD5
:104210009BB21A432B68000953432A891B0C9B1835
:104220004B806B465A789B7812031B011A436B68CC
:10423000024353436A891B0C9B180C481A1C1BB27F
:10424000834200DD021C130400D500220B888A8003
:1042500001330B80200076BD00F086F80124F9E7D9
:10426000A442FF1F7862FF1F9062FF1F0F2700000C
:1042700070B5114C237C002B0FD0382B0ED10F4D75
:10428000280000F033F8CC23AC222800217C9B01CD
:1042900000F0F4F8280000F067F870BD084BE289E0
:1042A0009A42FAD1054D280000F020F8002228009B
:1042B000217C00F0C5F8EDE77862FF1FA442FF1FE4
:1042C0008305000010B5084B1A7C002A09D05B69F1
:1042D000002B06D09847041E01D0FEF791FE200067
:1042E00010BD0124F9E7C0467862FF1F70B5C1799F
:1042F00005000C00631E9C411A4BE402E4184900BF
:104300000460C9B2007906F0E7F8E97968794900F4
:104310000131C9B206F0E0F8E8790930C0B207F01F
:1043200023FA0023E36661332360AA795B3B002A0A
:104330000ED022689A43023B134323600A23E361B1
:104340000733236200232363A3630133E36370BD58
:1043500022689A4302231343236046236361063392
:10436000A361EFE70050004070B50025040003682A
:10437000DD66C0790930C0B207F036FA290020792D
:1043800006F046F82900607906F042F870BD00009A
:10439000F8B51E0006AB1D78002304681700E3661D
:1043A000616007F059FA01238022E3662B00276140
:1043B0005200013B08D207F0CFFA08200A4A1168E0
:1043C000002D03D12800F8BD2261F2E7236F0342DC
:1043D00003D02369013D3370013613685B1A032B48
:1043E000EED90125EEE7C0466008FF1F70B51C003E
:1043F000002305681600EB66696007F02DFA0123BB
:104400008022EB6623005200013B08D207F0A4FA99
:1044100008200A4A1168002C03D1200070BD2A61CF
:10442000F2E72B6F034203D02B69013C3370013656
:1044300013685B1A032BEED90124EEE76008FF1F17
:10444000002370B504681500E366616007F004FAA4
:104450000123E366256107F07FFA8020064A800089
:104460001168636B034205D113685B1A032BF8D9FB
:10447000012070BD0020FCE76008FF1F70B51D0023
:10448000002304681600E366616007F0E5F9012384
:10449000E36626610F33626B1A42FCD02B0A23615C
:1044A0001023626B1A42FCD0EDB2256107F054FA7A
:1044B0008020074A80001168636B034205D11368AE
:1044C0005B1A032BF8D9012070BD0020FCE7C04621
:1044D0006008FF1F70B51E00002305681400EB661E
:1044E000696007F0B9F90123A619EB660F33B442EE
:1044F0000ED107F031FA80200A4A800011686B6BF8
:1045000003420CD113685B1A032BF8D9012070BD4C
:1045100021782961696B1942FCD00134E7E700205A
:10452000F5E7C0466008FF1F10B5084CE368002B94
:1045300008D18022064B52021B689B186360054B12
:104540001B68236007F078F8A06010BDB862FF1FF9
:10455000C8F00040CCF0004070B5184A936A916AE8
:104560009942FBD116498A689A421FD39A1A8B60E6
:10457000144B0126186893B2D202D20E4343424331
:1045800000204C681B0A1B1912029B180E4C0A686B
:104590004B60551CA3420CD8002801D04B600A6028
:1045A0000A4A136008680A4B186070BD581E821AC8
:1045B000DDE7084A30009B182A00EAE700F00040D7
:1045C000B862FF1F140AFF1F40420F00C8F00040EE
:1045D000CCF00040C0BDF0FF70B51F4C23793F2BDD
:1045E00001D93F2323711D4B22791A701878C0B26C
:1045F00007F022FB18231A491A4A0B801A49138024
:104600000B805380A379194980200B800C21938063
:1046100001334B43164D191C0001834200D9011C84
:104620002980D1806379002B11D101336371237A02
:10463000012B01D8022323726279237A0D48534358
:104640000A21584307F098F90B4D286070BDA02B44
:10465000EDD9A023EAE7C046AC62FF1F480AFF1F5E
:10466000BE42FF1F9444FF1FBC42FF1FBA42FF1F00
:10467000B842FF1F710200009C62FF1FF8B51421B1
:104680000020FEF7ABFE114C011E114D09D10C228A
:10469000104BC1CBC1C4280007F0A6FAFFF79CFF5E
:1046A000F8BD0C2220000C49FEF76CFE0C2802D04D
:1046B000084B43CB43C40C2228000849FEF762FE96
:1046C0000C28EBD00C220021E5E7C046AC62FF1FAE
:1046D0007862FF1F68BD0011FC0C0000F50C0000A3
:1046E000F0B51D4C8022A544040088206946520183
:1046F000400507F029F9902212016A4413002000B6
:1047000032C832C316C816C38023144C144FA6688F
:104710009B033343A3603B6007F0B6F98823A0688E
:104720005B05C01807F0E8F80025882329008022DF
:10473000A0685B05C01840196944520007F0CCF826
:1047400080230135FF355B019D42EED1A6603E60BE
:10475000044B9D44F0BDC046FCEFFFFF0444FF1F27
:104760009808FF1F04100000F0B5040087B000286F
:1047700025D0684606F068FF1B4C022806D10622A9
:104780006946200007F048F8002816D06946002343
:1047900001250F262F00E25C0133100910308740FD
:1047A00038002F00324097403A0002434A610439F2
:1047B000062BEFD16846FFF793FF07B0F0BD182234
:1047C00069460A4807F0C0F86A46A300D358013387
:1047D00005D01822FF21684607F006FAEAE70134FF
:1047E000062CF1D1E9E7C0466509FF1F0009001159
:1047F000F0B5002504000E0085B0AA4200D186E085
:104800004B1C087801934B78897837790902194352
:10481000F3783F061B040B431F430397207065701A
:10482000252800D196E033D8112813D807F014F9C1
:1048300069002501250125012501AA00B800B10064
:104840002501250125012501250125012501250138
:1048500005011F01232800D1DEE0DB2800D02EE176
:10486000042A00D8ACE01025052A05D0551F2A00DF
:104870003800711D06F0A8FF05223100200006F067
:10488000A3FF2A003900601D06F09EFF05353EE0BB
:10489000562859D010D8332800D19DE0552839D05A
:1048A0002628DAD19C4B2900132218001D0007F09E
:1048B0009BF9FEF7A5FB5CE0712800D177E0722838
:1048C00000D180E0602800D18BE0DC28C5D1022A2D
:1048D00000D875E07378BFB26370B378A370032A11
:1048E00005D0033A390092B2F01CFEF785FC102285
:1048F0003900E01CFEF746FDC51C002807DA607091
:104900005CE00C222000854906F05EFF0C252800A3
:1049100005B0F0BD013A824D0C2A13D8002A0AD006
:104920002800019906F050FFFFF756FE0C222800E0
:104930007C49FEF761FC29000C22601C06F044FF54
:104940000D25E4E70C22EBE7754D774B2A0043CBAE
:1049500043C2E9E7013A704D0C2A11D8002A08D069
:104960000199280006F030FF0C2228006F49FEF75D
:1049700043FC29001322601C06F026FF1425C6E71D
:104980000C22EDE705226A49601C06F01DFF062592
:10499000BDE712226749601C06F016FF1325B6E733
:1049A00008226549601C06F00FFF0925AFE7717802
:1049B000F02905D8614B188801F0AEFD0225A6E765
:1049C000FF236370FAE75E4B012A03D072789A7076
:1049D0006270F3E79B78F4E72000FFF7E1FA050047
:1049E00095E7013A564B574D062A10D8002A10D0A9
:1049F000012128005970019906F0E6FE01F05EF8E9
:104A000029000622601C06F0DFFE07257FE706224C
:104A1000EEE700225A70F3E7042A04D94A4D2F60CA
:104A200006F00AFEA860FFF797FD0422039003A991
:104A3000601C06F0C9FE052569E7444D062ADFD94A
:104A400006222800019906F0E7FE0028D8D00622A9
:104A50000199280006F0B8FE06223D492800FEF71D
:104A6000CBFB0123364A91780B439370C8E7012AA8
:104A7000A6D07078FFF778FEA0E7012800D0ECE61A
:104A8000931E344F132B04D87378002B09D100F0F8
:104A900015F9314B39001D78601C6A1E06F094FE32
:104AA00035E7551E2A000199380006F08DFE2B4986
:104AB000AAB23800FEF7A0FB00F038F9E9E7DA28DF
:104AC0001DD1042A00D87BE7082A15D9B379727959
:104AD0001B021343F27912041A43337A1B06134361
:104AE0003B603B68052231002000039306F06CFE1A
:104AF0000422601D03A956E7FE236370F1E7DE2858
:104B000000D05DE7511E012A01D10025FFE6019882
:104B100000F0BAFFF9E7C0467862FF1F74BD0011CC
:104B2000AC62FF1FFC0C000068BD0011F50C00001A
:104B30008462FF1F6462FF1F0844FF1FC042FF1F03
:104B4000A862FF1F6443FF1FB862FF1F6509FF1FB4
:104B5000ADAC0000A964FF1FA764FF1FAEDE00001C
:104B600070477047020010B5094B0A32094C92B2E7
:104B7000DA815A8298811882207802F033FB04226D
:104B8000054B012120781A7006F076FF10BDC04653
:104B90009243FF1FF264FF1FF164FF1F013870B5DD
:104BA000042809D806F0F8FF030928081200234B4F
:104BB0000221187806F060FF70BD204B082118789C
:104BC00006F052FE00221E4B1A72F5E780220024E6
:104BD0001B4B1A4D52001A8108211A682878DC7282
:104BE00006F092FF2100287806F076FD012000F003
:104BF00083FE00F063FFDFE7104B0821187806F012
:104C000033FE1048FFF76AF80F4B104A9B790020DB
:104C100093800F4A13808022094B5200D8721A8168
:104C200000F06AFE00F04AFF0A4B9B78002BC3D0CD
:104C3000094A136006F068FDBEE7C046C862FF1F60
:104C40009C62FF1FC942FF1FAC62FF1F9444FF1FFD
:104C5000BA42FF1FA862FF1F34F0004010B50129BF
:104C60000BD1082809D1054B1B78002B05D0262233
:104C7000034B04485A72FFF775FF10BDCA64FF1F4B
:104C80009C62FF1FC40900000300F0B50A4D8E1896
:104C9000B14202D152008018F0BD0C782F6824096F
:104CA0003C5D0F271C700C7801313C402F683C5D47
:104CB0005C700233ECE7C046B442FF1F0E22124B79
:104CC00010B51A700D23114C11492370093A043B99
:104CD0001048637006F078FD2D2301220E490F481D
:104CE000E371FFF7D1FF01220D49FFF7CDFF01224C
:104CF0000C49FFF7C9FF030000200B4902001870A0
:104D0000FEF77AFA10BDC046C664FF1FA764FF1FF6
:104D100023BD0011A964FF1F6709FF1FAF64FF1FB8
:104D20006609FF1F6509FF1FAEDE000070B5124C5B
:104D3000142220001149FEF725FB431E104D132BB2
:104D400017D8AB78002B14D0431C2B7009236B7041
:104D5000002300190370287829000130C0B206F042
:104D60005BFC297822000139C9B2002005F0E8FD7A
:104D700070BDFFF7A3FFEEE7A964FF1FAEDE0000E2
:104D8000A764FF1F10B5114B1A781870002A0ED0B7
:104D900000280BD10E4B1A78062A07D85423D3408B
:104DA000DB0703D50B4B187802F01CFA10BD002866
:104DB000FCD0074B1B78012B02D0033B022BF5D80C
:104DC000044B0121187806F057FEEFE7CA64FF1F75
:104DD000F164FF1FF264FF1F70B5514E514A5249F2
:104DE0003070082005F038FC0121022005F03EFB60
:104DF000022005F01FFC0121002005F037FB0020F8
:104E000005F018FC00F0C8FEFEF7FAF806F00CFDFD
:104E1000032246494648FFF737FF2D2403000422AA
:104E20001C7044490130FFF72FFF30230470424DBE
:104E3000424C437083702E3B062220004049EB8792
:104E4000FEF7A0FA062813D0200006F0FDFB02288A
:104E500009D00321200006F0AFFC8D23E3706E3BE8
:104E6000237119336371062220003549FEF7C4F916
:104E7000344B1B68FC335C64FFF758FF0020FFF7DE
:104E800081FF314C314A0121314B1278207802F0F8
:104E90006BF9304A304B12780021207802F064F927
:104EA00001222E4B1A702E4BDB78552B31D12D4B16
:104EB0003B325A722C4B2D4AAB81EA812B826A829B
:104EC0002021307806F088FE0120404205F084FD64
:104ED0000120404205F020FEFFF712F9FEF7C6FE62
:104EE00000F0B2FC01204042FEF79CFF012006F0DA
:104EF000DBFCF02001F0F4FA0121307806F0BCFD73
:104F0000307802F0CBFA1A4806F09EFEFEF768FDF4
:104F100070BD6422174B5B7953431A000A32CBE70A
:104F2000C862FF1F614B00115D4C00110844FF1F58
:104F30006462FF1F8462FF1F9243FF1F6509FF1F0A
:104F4000ADAC00001465FF1FF264FF1FE842FF1FB5
:104F5000C942FF1FC664FF1FA764FF1F9864FF1F9D
:104F6000A862FF1F9C62FF1FC4090000CE09000059
:104F7000CA62FF1FAC62FF1FF8B50A0020230D00B4
:104F80001A40194263D05E4B1B78002B5CD0FFF7B0
:104F9000E3FA5C4B5C4C5D4E99686268737A8A1ADE
:104FA000DB039A4202D36160FEF71AFD327A217A5E
:104FB000531EDBB2994205D1FFF75AF9002000F0E9
:104FC000B3FD15E09142F9D300272772FFF77AF974
:104FD000A37ABB4202D0A772FEF78AFD012000F03F
:104FE000A3FD4B4F3800FEF779FE390006F0B4FB05
:104FF000637A002B25D0013BDBB26372002B20D1FA
:10500000444BDB78552B01D106F07EFBE37A002B75
:1050100012D00023A27AE3729A4202D0A372FEF762
:1050200067FD3D4A3A4F1388380001331380FEF77D
:1050300055FE390006F090FB642370795843FFF762
:1050400091FD237A0133237220206840F8BD0BB212
:10505000002B0ADA314B187806F0D6FB002801D075
:1050600006F012FB80200002EFE70224214206D066
:10507000254B01201A72FFF785FE2000E5E70B079C
:105080001ED5FFF769FA1F4B1F49204C98684A68E4
:10509000637A821ADB039A4202D34860FEF7A0FCCF
:1050A000FFF710F9FFF7E4F8012000F03DFD00F0F4
:1050B000E5FB2368DB0701D5FEF7ACFF0820C4E75A
:1050C000CB0609D5FEF714FD0D4B1B78002B01D143
:1050D000FEF7E0FD1020B8E70124214207D0104878
:1050E00000F06CF806F0B0FC00F004FDC5E7042405
:1050F000080020402142A9D0FEF7B0FEBDE7C0461F
:10510000CA64FF1FB862FF1F9C62FF1FAC62FF1FD3
:10511000C942FF1FA862FF1F9062FF1FC862FF1FE6
:10512000AC42FF1FF0B51B4B1B4F1B883A88040095
:105130001A4E1B4D85B09A420DD832889A420AD336
:10514000184B1A882B889A4205D1174A174B128898
:105150001B889A421BD0052001F018FA3B8802AA4E
:1051600013803388019053802B88114D93800F4B0F
:1051700002A91B88D3800F4B2A78188802F034FFCD
:105180000D4B08212878019A1C7006F0C5FA05B06D
:10519000F0BDC0469664FF1FBE42FF1FBC42FF1F0A
:1051A000BA42FF1F9464FF1F9264FF1FB842FF1FA3
:1051B000F264FF1FC042FF1F9064FF1F13B50C4B2A
:1051C0001C78002C11D1002801D00A4B18600A4A23
:1051D0000A4B11780A4A10780A4A01920A4A009248
:1051E000002205F0A5FA200016BD1124FBE7C046F9
:1051F000F164FF1F8C64FF1FF064FF1FE064FF1F5A
:10520000F264FF1FCC64FF1FD064FF1F10B5064B74
:1052100012201B78052B06D1044B13221988044B4E
:10522000187801F08FFB10BDF164FF1FC042FF1F13
:10523000F264FF1F10B500240122114B5242187076
:10524000104B1C70104B1A8002F028F904220F4BEF
:1052500021001A700E480C3206F0BEFB102221000D
:105260000C4806F0B9FB07220B4B1C600B4B1C7063
:105270000B4B1C700B4B1A700B4B1C7010BDC046B7
:10528000F264FF1FF164FF1FC042FF1FF064FF1FA5
:10529000E064FF1FD064FF1FCC64FF1FA664FF1FE4
:1052A000A564FF1FC242FF1FA464FF1FF8B5174C7F
:1052B0000600257806A814240078052D23D1B41FF4
:1052C000134FA5B21824BD421DD88D1FADB2BD42EB
:1052D00019D8FA256D00AA4215D21D000D4F0A3DBE
:1052E000ADB2BD420FD80C4C26800C4C21800C492D
:1052F00000240A800B4A1380FFF714FF0A4B042195
:10530000187806F0B1FA2000F8BDC046F164FF1F1E
:10531000790C0000750C0000BE42FF1FBC42FF1F4D
:10532000BA42FF1FB842FF1FF264FF1FF0B50BB275
:105330000D0089B0002B00DB70E1A44E307806F040
:1053400063FA041E50D00378A22B00D122E1D02BA7
:105350001AD0912B45D143780E2B42D19C4B828899
:105360009A423ED19B4A83681278052A39D103209C
:1053700018567F2835D0984B1B68002B31D05B68BE
:10538000002B2ED098472CE08078072829D806F0EB
:1053900003FC0428183F3F74A8D86378002B0CD175
:1053A00001218C4B19708D4B1A78002A5BD08C4BE5
:1053B000307801F0D9FE002855D00722854B1A70AD
:1053C00051E061780029F8D1E378002B11D0854AAB
:1053D000854B1278307801F0C7FE60706378002B3F
:1053E000EBD1200006F050F980200002684009B09F
:1053F000F0BD784B1B78022BF3D00121307806F0FA
:10540000D3F90028EAD10121307806F035FBE5E731
:105410006378002BD1D16F4F032807D13B78052B40
:1054200002D101333B701EE00223FBE76F4B1A8869
:105430006F4B0293002A0BD01B78002B03D0012165
:10544000307806F069F93B78062B04D1013BE9E797
:10545000029B1A70F7E7042B41D10121029B30789F
:10546000197006F009FB5C4B1B68002BB9D01B6858
:10547000002BB6D0574A107884E76378554F002B3D
:1054800027D10622211D5B4806F09EF962895A4BFE
:105490005A491A80A2895A4B1A80E3890B80052148
:1054A000397058490A80584A1380228A574B1A800B
:1054B000574B1B78012B09D11F2001F067F8FA2206
:1054C000920042430421307806F026F90022484B2E
:1054D00075E7312B00D070E70022454B1A7003238B
:1054E000A0E706220021434806F076FA0023454A49
:1054F00004211380444A30781380444A138006F014
:10550000B3F90821307806F0AFF9A379083B5A4285
:105510005341304A03331370304B1B78002B06D0B5
:10552000334B30781A78002A06D001F05BFE012256
:10553000314B52421A8096E70121197006F09CFA0D
:10554000F5E70821307806F08FF96378002B00D05A
:1055500047E72C4B2D4F0293E388029A04211380D6
:10556000294B307803932389039A138063893B8006
:1055700006F01AF9002800D033E7264B1B68002BF1
:1055800000D12EE7039902983A88098800881B68A1
:10559000984726E74379132B00D022E70389012B94
:1055A0000AD11D4B1B78022B06D10821307806F05A
:1055B0005BF9FFF72BFE14E7052000F0E7FF082159
:1055C0000200307806F0A8F80BE7C046F264FF1F2F
:1055D00005140000F164FF1F8C64FF1FE842FF1FE9
:1055E000C942FF1FC664FF1FA764FF1FC864FF1FD7
:1055F000CA64FF1F9964FF1FC042FF1FA064FF1F02
:10560000A264FF1F9664FF1F9464FF1F9264FF1F34
:105610009864FF1F8864FF1F9064FF1F8020C001F3
:10562000014200D0E2E6CB0731D5324B1B78002B8C
:105630001DD0314E05AC3378052B1AD1023B2370B7
:105640002E4B21001B7823722D4B1B7863722D4B40
:10565000187801F02DFD002809D007202A4B307062
:105660001B68002B03D01B68002B00D0984701203B
:10567000BCE60E20254B06221B7825492370254BBE
:105680001B78637002ABC01806F09EF8D8E70223BF
:1056900008001840194209D0174B1B78052B03D17D
:1056A0001D4B188806F020FA02209FE604242142B0
:1056B00003D0FFF737FD200098E6082308001840C4
:1056C000194200D193E6154B1C78012C03D0022C13
:1056D0000DD008208AE6124B124A134913481B8842
:1056E0001288098800880094FFF7E0FDF1E7FFF7D2
:1056F0008DFDEEE7CA64FF1FF164FF1FC242FF1F6A
:10570000A464FF1FF264FF1F8C64FF1FA664FF1FC9
:10571000C342FF1FA564FF1FC042FF1F9064FF1F0D
:10572000B842FF1FBA42FF1FBC42FF1FBE42FF1F0D
:1057300010B502A804880B20002C10D14968087805
:105740004978090201430C48814209D1022119809C
:105750000A4B59881170DB7800205BB2537010BD82
:10576000074C0A20A142FAD102211980034B9988E3
:1057700011705B79F0E7C0466E2A00009062FF1F4F
:105780006F2A0000F7B5150008AA16884A680F4F5F
:1057900014785278120222430A24BA4214D1012208
:1057A000DBB2019200962A0005F0C8FE041E0BD160
:1057B000074B1B68002B07D068782A78000210433B
:1057C00042425041013098472000FEBD02290000AE
:1057D0000465FF1F30B5012503790400BFB02B42DB
:1057E00025D01449408805F015FA28420CD0124BF8
:1057F00001A95B8D00220B8002234B800F4B5B883D
:105800008B80608802F0E6FA0D49608805F002FAA4
:10581000C0070CD50B4B01A91B8800220B8002236B
:105820004B80064B9B888B80608802F0D3FA3FB098
:1058300030BDC046FC64FF1FEC42FF1F9062FF1F9B
:10584000F464FF1F4643FF1F10B5074C07492000B3
:1058500005F096F92000064905F092F90721054A5E
:10586000054805F04FF910BDFFFF0000FC64FF1F65
:10587000F464FF1F94BD0011EC42FF1F10B50248F5
:1058800003F02AF910BDC046D557001170B5402568
:105890003F2608210B4BC207D2172A40DD789C789F
:1058A00035408C432A439C70DA70820701D521432E
:1058B0009970400704D58022D97852420A43DA70A1
:1058C00070BDC0466443FF1F13210A4BDA788A4338
:1058D000123901400A43DA700222104202D0D9780C
:1058E0000A43DA70400703D51022D9780A43DA70E8
:1058F0007047C0466443FF1F10B5054B0824197953
:105900000A00A243002801D022000A431A7110BDE8
:105910006443FF1F10B5054B2024D9780A00A24329
:10592000002801D022000A43DA7010BD6443FF1F33
:105930000821F8B5324D334BAE7804000E40AE70FE
:10594000984204DD67232B70273B6B70F8BD2E4B0C
:10595000984203DAE0232B701A3BF6E700232B7002
:105960006B7083B21A0029485F3292B2284F82428C
:105970002CD9002C03DA5B421CB204232B700534B3
:1059800020B20A2105F0F8FF04B2FA239B009C42E2
:1059900032DB08232A7813432B706421200005F0A2
:1059A000EBFF0A2100B205F0EFFF09B22A787B5C19
:1059B00013432B700A21200005F0DEFF0A2100B2FC
:1059C00005F0E2FF09B27B5C6A780AE06970002C9E
:1059D000DBDA5B421CB204232B70F5226B78092CB6
:1059E000E8DC13436B700A21200005F0CDFF09B2FB
:1059F0007B5C1E43AE70A9E7632CCEDCEDE7C046AE
:105A00006443FF1F1B4E00001DFCFFFF2A0800001F
:105A1000BFBD00110823F7B5194FCD003E79040032
:105A20001E403E71EDB2632806DD5F3333433B71A8
:105A300040231D437D71F7BD0300093305DA2023A0
:105A40005B4233433B71C623F3E70E4B01930028BF
:105A50000BDA0423444224B23B710A21200005F0F2
:105A600093FF019B09B25B5CE3E70928F5DD0A219E
:105A700005F082FF019B00B21B5C1E433E71ECE708
:105A80006443FF1FBFBD0011F8B50A4F05003B7806
:105A90000E00002B0CD0084C2000FEF727FC330032
:105AA0002A0020003978FEF715FD2000FEF75CFC87
:105AB000F8BDC0460865FF1F6C43FF1F70B50A4E56
:105AC0000A4D06223100280005F0A6FE002809D064
:105AD000074C31000622280005F076FE0721200041
:105AE000FFF7D2FF70BDC0466443FF1F5E43FF1F38
:105AF0005D43FF1FE622202110B50A4B1A70203AA1
:105B00005A701C329A70DA780A40DA7008221979D1
:105B10001140033A0A431A7127225A71FFF7CEFF48
:105B200010BDC0466443FF1F70B5184B5C78002C55
:105B30002BD1002829D0164D0A210223E85E05F05A
:105B40001BFF00B2FFF7F4FE0423E85E642105F0BA
:105B500013FF012100B2FFF75DFF132220002B7A13
:105B60009A426041C0B2FFF7D5FE0320FFF78EFED8
:105B70002000FFF7A9FE074B18780538434258412B
:105B8000C0B2FFF7B9FEFFF799FF70BDA862FF1F13
:105B90009062FF1FF164FF1F70B500250A4C2000C2
:105BA000A571FEF7A3FB11233E212000074AFEF753
:105BB00091FCA84200D13E35054B20001D70012309
:105BC000A371FEF7D1FB70BD6C43FF1FAEBD00118A
:105BD0000865FF1F0200F0B501270A480A4E511858
:105BE0008B1A002B00DCF0BD0824157843086840B0
:105BF00038404000805B013C58406D08002CF5D1D6
:105C00000132EDE7FFFF0000D0BD0011F0B5002527
:105C10000F269D4200DBF0BD4C5D07094440344037
:105C2000A400A05801357840F3E70000F0B589B032
:105C30006A460D000B000F27110010351C78013348
:105C4000260024093E40167054700232AB42F5D152
:105C50002023024AFFF7DAFF09B0F0BDD4BD0011DE
:105C6000F0B54E780B7889B036020C001700019021
:105C70001E43012A61D9954B9E4200D877E001333B
:105C80009E421CD1062A17D1CA788B7812021A4379
:105C90000B791B0413434A7912061A438C4B5A6141
:105CA00000221A705A808B4A5A608B4A9A608B4A3B
:105CB000DA60002009B0F0BD88225205EEE7884B7B
:105CC0009E423CD182498B78002B00D0F6E00C2A12
:105CD00031D10F22A3789343E27812021343227941
:105CE000120413436279120613434B60E279A079E0
:105CF00012020243207A00041043627A1206024321
:105D0000CA60E27AA07A1202024376484A8183424C
:105D100008D804236E49142201980B7005F054FD35
:105D20001420C7E71201D21889235B059A42F0D8E4
:105D300001238B70BDE7022AFAD00523EAE76A4AFD
:105D400001239642E6D1FFF761FA052F0CD9E378DB
:105D5000A2781B021343227912041A4363791B06AB
:105D60001343624A0393136005F0CEFCA1E7584D3C
:105D70002B78002B9DD1AB78002B00D1A0E02B8994
:105D800001339BB20093B34200D091E0132AD4D9DF
:105D9000CF7C8B7C3F02122120001F43FFF71AFFAC
:105DA000874200D08EE0002E3DD1E378A2781B021E
:105DB00013432279E96812041A4363791B061343DB
:105DC00003930A228B4212D1FF23A370E370237145
:105DD00063716B89002B09D1E37B227C1B021204C7
:105DE0001343A27B13431B0901336B8100226B8990
:105DF000002B8ED0002A67D1686837013818000B55
:105E00006B6900030390984205D9686105F074FD41
:105E1000EB780133EB7068681022A11C381805F08C
:105E20005BFD2E8145E76F89009A7B1E9BB29342F2
:105E30003AD1E278A37812021A43237905A81B0409
:105E4000134362796C6812061A43EB68009203925E
:105E5000211D0C22049305F0B7FC0120260004A9A3
:105E600040421036FFF7E2FE013F012F17D1009AA2
:105E70000B232861824200D04CE704221C492000F9
:105E800005F02AFD042203A9686805F05DFDE968B4
:105E9000039AFF23914200D13CE7F73B3AE73100F8
:105EA000FFF7C4FE1036DFE70923B742A4D831E775
:105EB000009BB34200D9FCE607232BE7022329E726
:105EC000032327E7062325E70A2323E7FFFE000035
:105ED0007443FF1F00000111FFFF000050485936B6
:105EE00001FF0000FFFF001102FF000034F000403E
:105EF0008043FF1F10B5034C0B000122210000F06E
:105F00006BFA10BDB56000110B8870B506000D006E
:105F10000224162B11D92B000322094900F05CFA48
:105F2000041E0AD1074B2A881B88191C934200D9EA
:105F3000111C300089B200F0EFFA200070BDC0469D
:105F4000E16000112E65FF1F10B54A780400013A88
:105F50000B000220012A07D80A78002A04D0052263
:105F60002000024900F038FA10BDC0460F61001150
:105F70000A7810B50B0004000220002A04D0072282
:105F80002000024900F028FA10BDC046BB61001194
:105F90000A7810B50B0004000220002A04D0092260
:105FA0002000024900F018FA10BDC046216200111D
:105FB00010B5034C0B000B22210000F00DFA10BDB0
:105FC0005162001110B5034C0B000D22210000F0AE
:105FD00003FA10BDC362001110B5034C0B000F2271
:105FE000210000F0F9F910BD1D6300110A7810B509
:105FF0000B0004000220002A04D0112220000249D4
:1060000000F0EAF910BDC0462D630011002310B561
:106010001322190000F0E0F910BD000010B5034C88
:106020000B001722210000F0D7F910BD7F6300118B
:10603000002310B51922190000F0CEF910BD0000A0
:1060400010B5034C0B001B22210000F0C5F910BD58
:10605000B9630011F7B584890D0006000121002CF9
:1060600022D000238268D3561778002B1EDA0C2C1E
:106070001AD90C3CA4B2131940880093230002F0F3
:1060800086FE431E984101307B06DB0F6B703F2379
:10609000013C1F40A4B22870AF70AC80002C07D028
:1060A000B3680133AB6000210800FEBD0020EBE7C0
:1060B000AC60F8E70B7803704B8843704B881B0A81
:1060C00083700B79C370042070470420022B06D123
:1060D0000020537811781B02009A0B4313807047FD
:1060E0000B8803700B881B0A437002207047042042
:1060F000009983420AD1537810781B0203430B8026
:10610000D37890781B02034300204B807047F8B58A
:106110000D004B7801240021461C03702B788B4224
:1061200001D82000F8BD6B78B01C4F1C012B10D19A
:10613000890069184B88022233704B88B9001B0A0A
:106140007370691805F058FC04360434A4B2F9B22F
:10615000E4E7122359436B185A88043132705B8884
:1061600010221B0A7370691805F046FC12361234AF
:10617000ECE770B5049D14001E00052B01D8042027
:1061800070BD637812781B0213432B80E378A278EA
:106190001B02134302226B802A71211D681D063EDB
:1061A00005F02AFCB2B22A81E92AE8D82800A11D0C
:1061B0000A3005F021FC0020E2E7002310B50A7840
:1061C0009A4201D8900010BD9A008A185488013371
:1061D00004705488DBB2240A4470948884709288D6
:1061E000120AC2700430EAE710B51100029C062BB7
:1061F00004D004201022142B01D010BD02222271E1
:106200004B7808781B0203432380CB7888781B02E5
:10621000034363800431601D05F0EEFB0020ECE7D2
:1062200010B50C788B7804315C43E4B20370220023
:10623000013005F0E1FB601C10BD0420022B06D1EB
:106240000020537811781B02009A0B43138070478B
:1062500010B50C000A88023105F0CEFB208810BD75
:1062600070B504000D0004981100012B01D8042022
:1062700070BD167852781202324302800200F13269
:1062800055701470E125002C00D10C35023B9AB2F8
:106290004280AA42EBD80231043005F0ADFB002069
:1062A000E6E70420009983420AD1537810781B0254
:1062B00003430B80D37890781B02034300204B806C
:1062C000704710B50C000A88023105F095FB208854
:1062D00010BD000070B501211E000420049C0E407A
:1062E0000B4218D1CB40DDB28D4214D90A49DBB242
:1062F000098899420FD32300EE331D7033005800F4
:1063000011184978165C0902314301332152D9B280
:106310008D42F4D8002070BD8C43FF1F10B50C00D7
:106320000A88023105F068FB208810BD10B50C7892
:106330008B7804315C43E4B203702200013005F035
:106340005BFB601C10BD10B511000298032B01D837
:10635000042010BD14785278043B120222430280BC
:10636000CA788C781202224342809AB28280EB2A49
:10637000EED80431063005F03FFB0020E9E710B508
:106380000C000B8803700B881B0A43704B888370CA
:106390004B881B0AC3708A880430063105F02CFB39
:1063A000A088043080B210BD0420012B03D100204E
:1063B0001378009A1370704710B50C000B880370A7
:1063C0000B881B0A43704A880230043105F014FB25
:1063D0006088023080B210BDF0B589B003931E4BC7
:1063E000029242000700D05A019102F020F81325D2
:1063F000061E2DD0029B01240370019B002B04D0AC
:10640000001903999847001984B26B461B7A5BB256
:10641000002B0FDA1021380002F01CFB1925002890
:1064200013D130003219E1B202F066FC051E0CD126
:106430000C34A4B2042304AA380005A9938006965C
:10644000948101F0AFFD051E02D0300005F074F913
:10645000280009B0F0BDC0462C65FF1F70B50500CF
:106460000C0000280CD00020814209D0102220000E
:10647000044905F0C1FA01202B7823736B7863730C
:1064800070BDC04614BE0011F0B506000D00170027
:106490001C0085B002291BD00020102907D1022B37
:1064A00007D0102B03D115E00020102C08D005B028
:1064B000F0BD69463800FFF7D1FF2A0069460BE0BE
:1064C00069463000FFF7CAFF22006946380004E041
:1064D000022BE9D12A003900300005F025FBE6E760
:1064E000031CF02800D9F023032008499AB2013A8E
:1064F0000B80D317034006499B189B100B80D30FCA
:1065000004499B185B100B807047C0469043FF1FE7
:106510008E43FF1F8C43FF1F034B1B888B4202D30C
:10652000024B4000C15270479043FF1F2C65FF1F74
:10653000014B4000185A70472C65FF1F1722014B72
:106540001A8070472C65FF1F70B505000E2005F0FE
:1065500013F9041E13D0D023037000230622837086
:1065600007494570033005F047FA064B2100DA8AE7
:1065700062811B7E2373044B187805F015FA70BDF9
:106580004865FF1F3865FF1FE043FF1F262803D81B
:10659000024B4000C05A70470148FCE79243FF1F7E
:1065A000FFFF000070B506000C00094D1C22002101
:1065B000280005F011FA074B1E70074B1C7005F000
:1065C0001BF90123002801D0002312202B7070BD7D
:1065D0003865FF1FE043FF1F5965FF1F70B50500B9
:1065E0000D4C0800E260A16010220021656005F0FA
:1065F00033FB012803D11021A06802F058FD1022BE
:106600000021280005F028FB012803D11021606833
:1066100002F04DFD70BDC0463865FF1F70B5041E09
:1066200005D1002903D006220D4805F0E5F90D4BF0
:106630001D78012D11D1002C05D102221A7005F010
:10664000FBF8280070BD00221A70074B1B78FF2B47
:10665000F7D02000FFF778FFF3E70025F1E7C04609
:106660004865FF1F3865FF1FE043FF1F030010B59B
:10667000002801D1002010BD00780B4A002803D16A
:106680005988D1821B7913761378022BF2D100231B
:10669000984200D103331370044B1B78FF2B01D0B9
:1066A000FFF752FF0120E6E73865FF1FE043FF1FB9
:1066B000002911D000280CD04B79012803D14022A9
:1066C0005242134303E03F221340032802D001202B
:1066D0004B7170474022F4E70800FAE770B5094DA6
:1066E0000100287800280BD0074C0622200005F076
:1066F00083F921002878FFF7DBFF200005F05CFA22
:1067000070BDC0465865FF1F3265FF1F00290AD0C3
:10671000012808D13F224B799343C02B03D0403B43
:106720005A425341981C704770B5174D06002B789C
:10673000FF2B15D00A2005F01FF8041E10D0D0231F
:106740000370C83B8370114B11491B784670C370AE
:106750000622043005F050F92100287805F024F9CC
:106760000C4B1B78012B0DD10B4B1B68002B03D05E
:106770009B68002B00D09847084B04211878084AE2
:1067800005F0C2F970BDC046E043FF1F5865FF1F0A
:106790003265FF1F5465FF1F8065FF1F8465FF1F63
:1067A00060EA0000014B98687047C0463865FF1FDB
:1067B000014BDB68186870473865FF1F074B10B541
:1067C000DA68136801331360054B1878FF2803D08B
:1067D0008021C90105F050F910BDC0463865FF1F82
:1067E000E043FF1FF7B50E0002F0C8F8051E1CD0ED
:1067F0000E4B06621F78002F00D10778AB7910206E
:10680000019304F0B9FF041E0FD0D0230380C73BCF
:106810008370019BE91DC3700622043005F0ECF87B
:1068200021003800E66005F0BFF8F7BDDE43FF1F2A
:10683000014B18787047C0465865FF1F054B00286C
:1068400005D1054B1A78054B002A00D1014B1800E1
:106850007047C0464865FF1F5865FF1F3265FF1F20
:10686000014B58687047C0463865FF1F024B1868D7
:10687000431E9841C0B270475C65FF1F421E030073
:106880000120152A03D9FF3B5A425341D8B2704721
:10689000F0B51C0000230E0085B0039002920B702F
:1068A000029A934201D3002019E0E55C5A1CD2B24F
:1068B000002DF8D0029851198142F4DC0233DFB286
:1068C000A35C18000193FFF7D9FF002807D0013D12
:1068D000019A0399EBB233708A4202D1E01905B0F4
:1068E000F0BDDB19DBB2DBE710B50C0002F09EF85F
:1068F00003001220002B03D02100588804F0B4FEBE
:1069000010BD000070B50E4D84006359002B15D0EA
:10691000186A002801D004F0CFFE2B59586A0028CD
:1069200001D004F0C9FE2B59986A002801D004F068
:10693000C3FE285904F0C0FE00232B5170BDC04691
:106940006865FF1F1C4B70B504000E0015009942CE
:106950000AD11A4B1B68002B01D1122070BD1B6895
:10696000002BFAD09847F9E7154B994215D1134BF4
:106970001B68002B0AD01B68002B07D09847002803
:1069800004D1104B1C70104B1D70E7E7290020004C
:10699000FFF7AAFF0028E1D1F3E7080001F0EEFFBE
:1069A0000028DAD003780320A342D7D12900300091
:1069B00004F05AFED2E7C046FEFF00006465FF1FE8
:1069C000FFFF00006165FF1F6065FF1FF7B5040052
:1069D000808801F0D3FF0025A84203D00578A08865
:1069E00002F008F81C4E3378002B1FD0AB421DD1AB
:1069F0001A4B28001978FFF777FF002818D00023DA
:106A00003370A3790820A778A688019304F0B4FE18
:106A1000011E0DD0D0230370CA3B8370019B4770C9
:106A200086808371280004F0BFFF01E0002DE8D1CB
:106A3000A0880B4B8200D358002B01D0FFF762FFD8
:106A40001721A088FFF768FDA08801F027FDA08826
:106A500001F0FEFDF7BDC0466165FF1F6065FF1FC9
:106A60006865FF1FF0B587B01D000CAB1B880700E1
:106A700001930DAB1B88142002930EAB1B881600EC
:106A800003930FAB1B880091049310AB1B880593F5
:106A900004F072FE041E1AD0D0230370CB3B477063
:106AA0008370C670062229000430002D11D004F036
:106AB000A3FF019B21006381029B0098A381039B9C
:106AC000E381049B2382059BA37404F06DFF07B050
:106AD000F0BD04F081FFECE7F7B5009308AB1B882D
:106AE00007000C200D001600019304F045FE041E63
:106AF00013D0280001F042FF00280FD00078D023E7
:106B00002370C93BA370009B21002381019B677008
:106B1000A580E680638104F047FFF7BD014B18783C
:106B2000EDE7C046E043FF1F13B504006489038905
:106B3000C2888188C0780094FFF7CEFF13BD0000A3
:106B400010B5044C2068002803D004F0B5FD0023E4
:106B5000236010BD6C65FF1FA122F0B581889200F3
:106B60004A43384B384F1B6804009B189D22920003
:106B70009B18827989B01A603B68002B5FD01D7822
:106B8000324B1B68002B04D05B68002B01D0002027
:106B90009847260008363100E079FFF7B7FD237DDE
:106BA000E0710200E0780493638A29000393238A4A
:106BB0000293E3890193A38800933300FFF752FF08
:106BC000E378002B0BD1E289A379A1880292019688
:106BD000E27928000092012201F0DAFEE0703B68C1
:106BE000002B20D0FFF7ACFF194D287800281AD0D1
:106BF000184B1978FFF778FE002814D02B78E67828
:106C000008200793A78804F0B7FD011E09D0D02300
:106C10000370CA3B4670837087808671079804F0C2
:106C2000C3FE00232B701721A088FFF775FCA088F6
:106C300001F034FCA08801F00BFD09B0F0BD064B5B
:106C40009DE7C0463409FF1F6C65FF1F8065FF1F6D
:106C50006165FF1F6065FF1FE043FF1FF8B5070078
:106C600008000E0001F08AFE041E18D02620FFF74F
:106C70008DFC051E00D12578062004F07DFD041E44
:106C80000DD00021062204F0A7FED0232370C23BC2
:106C900021006770A370A680E8B204F085FEF8BDFD
:106CA000F0B585B001930AAB1B78070002930BABDC
:106CB0001B7808000D000092039301F05FFE061E92
:106CC00022D0102004F058FD041E1DD010220021F7
:106CD00004F082FE2620FFF759FC002800D130780E
:106CE000D0232370C13BA370009B21002372019B22
:106CF00067706372029BA580A372039BC0B2E372AC
:106D00000C9BE36004F050FE05B0F0BDF7B50D003C
:106D1000019001F033FE071E20D00E2004F02CFD60
:106D2000041E1BD02620FFF731FC061E00D13E7842
:106D3000D0232380C53B0622A370F91DE01C04F07C
:106D40005BFE019B2A0063810123DD401A401D4048
:106D5000210022736573F0B204F026FEF7BD000037
:106D6000F0B585B0029010000D0017000A9E039345
:106D700001F004FE041E31D0029B002B2ED1039B98
:106D800002795B0724D5122313430422002E08D175
:106D90000B99002905D10C99002902D10D990029E0
:106DA0001AD01A430D9B2271002B00D0C9E0002E8F
:106DB00000D1CFE0002D00D0CCE0606A002801D0E7
:106DC00004F07AFC1C21300004F066FD606205E0EE
:106DD00002239A430E33D7E793432371654BBA00DE
:106DE000D458002C00D1AAE0002E10D0236A002B2A
:106DF00003D11C2004F068FC20625E4BBA00D3581B
:106E0000186A002803D01C22310004F0F5FD0C9B09
:106E1000002B12D0574CBB001D596B6A002B03D1BD
:106E2000162004F051FC6862BB00E358586A002841
:106E300003D016220C9904F0DFFD0D9B002B11D01E
:106E40004C4DBC006659B36A002B03D1142004F0EA
:106E50003BFCB0622B59986A002803D014220D998C
:106E600004F0CAFD380001F089FD051E67D0414BD2
:106E7000BA00D358002B62D01A6A3420002A00D1FD
:106E80001C389A6A002A01D0143080B20B9A002A6A
:106E900001D01C3080B25B6A002B01D0163080B26A
:106EA00004F06AFC041E4AD01822002104F094FD6C
:106EB0002620FFF76BFB0190002801D12B7801936E
:106EC000D0232370029B200063700A23294EA370F5
:106ED000039BBD00A371AB59A780196A1830002924
:106EE00005D01C22A06004F087FD200034307359C7
:106EF000996A002907D0030014221433E06002933A
:106F000004F07AFD02980B9B002B08D003001C2292
:106F10001C330B992061029304F06EFD02987359A3
:106F2000596A002903D01622606104F065FD6B46A2
:106F30002100187904F038FD3800FFF7E3FC05B0B4
:106F4000F0BD10220D9B0D991B69A018236204F05F
:106F500053FD2CE70B9B002B00D13FE7012D00D008
:106F60003CE7606A002801D004F0A6FB1C210B98C6
:106F70002AE7C0466865FF1F10B5044C206800284A
:106F800003D004F099FB0023236010BD5C65FF1F54
:106F90000B4B07B51A68002A01D100200EBD6946C7
:106FA000531C012012780731FFF772FC0028F4D03F
:106FB00002780123100018401A42EED0EEE7C046D6
:106FC0007865FF1FF0B51F4F01203B6887B0002B8D
:106FD00025D09B78059300F0B3FB002821D00A2030
:106FE000FFF7D4FA04000B20FFF7D0FA164B050088
:106FF0001E78731E9E413B68F6B2191DD878FFF7C4
:1070000057FB3B682900DA7A043303929A7901939B
:107010000292009033002000059A04F0C5FD07B0ED
:10702000F0BDFFF7B5FF002805D00620FFF7AEFA48
:1070300004000720D8E70820FFF7A8FA0400092079
:10704000D2E7C0465C65FF1F5865FF1F70B50A4E4A
:10705000040033780D00FF2B0DD0042004F08CFBCE
:10706000011E08D0D0230370CE3B45708370C470DE
:10707000307804F099FC70BDF043FF1F70B5040038
:1070800006200D0004F078FB011E0AD0D023037007
:10709000CD3B8370054B44701B688580187804F0E5
:1070A00083FC002C01D0FFF767FF70BD5C65FF1FFC
:1070B000F8B5264F06003B680D001124002B05D1C2
:1070C0000522234B1B78134202D112242000F8BD65
:1070D000204A10241268002AF8D01278002AF5D02D
:1070E000DB0719D52B789A1E012A1AD80C2004F038
:1070F000EBFA132438600028E8D000230A224370FA
:1071000029000670023004F077FCFFF75BFF041ED5
:107110000AD0FFF731FFD9E700F012FB0028E1D1D8
:10712000E4E7002BE2D0D0E70B4B1B78032BCDD14B
:107130001D20FFF72BFA094B18800028C6D0084BFA
:1071400004211878074A04F0DFFCBFE75C65FF1FE5
:107150005965FF1F7865FF1F5865FF1F5665FF1FA4
:107160008465FF1F60EA0000F7B50193194B140016
:107170001A78052306000F0012201A4221D0012997
:1071800020D1154B1D68002D1BD002201F2C18D8B4
:10719000002C02D0019B002B13D0104B1F221E701D
:1071A0006E1C0021300004F017FC01992200300011
:1071B00004F022FC310020002C70002F06D004F0D7
:1071C000ABFBFEBD064B12201D68DCE704F024FA81
:1071D000F7E7C0465965FF1F7865FF1FF043FF1FA3
:1071E0007465FF1FF8B50F4E12243368002B17D0BB
:1071F0001B780F3C834213D100250B4F02213878B6
:1072000004F032FB094B042138781D8004F02CFB7C
:10721000074B28001D8033685C7004F0FDFB040000
:107220002000F8BD5C65FF1F8465FF1F7065FF1FB0
:107230005665FF1F70B5012823D11B4C2388002BF6
:1072400003D01A4A1578002D07D0194B1B68002B64
:1072500002D01878FFF7C6FF70BD3B2B02D93C3B2C
:107260002380F9E7134E0221307804F0FDFAFA2268
:107270002388920002215A43307804F04DFA258089
:10728000EAE70B4B1B68002BE6D00B4B1B785B0728
:10729000E2D5084B0221187804F0E6FA0022024BEE
:1072A0001A80FFF769FED7E77065FF1F5465FF1F5F
:1072B0005C65FF1F8465FF1F5965FF1FF8B51E4DF4
:1072C0002868002803D004F0F7F900232B601B4E38
:1072D0003068002803D004F0EFF900233360184F22
:1072E00005243B7818002040234221D0154800F0A7
:1072F0002BFA3B78234213D0202004F0E5F92860D4
:10730000002813D02022002104F066FB202004F086
:10731000DBF9041E306005D02022002104F05CFB64
:10732000002004E0286804F0C7F92C601320F8BDA1
:1073300000F00AFAF4E7C0467865FF1F7465FF1F86
:107340005965FF1FE443FF1F10B50A4C23681A1E3E
:107350000ED0002808D10130587004F05DFB0028E1
:1073600005D02368002B02D00021FFF787FE012201
:10737000100010BD5C65FF1FF7B5274E0500336890
:107380000191181E21D05C78244F012C30D1FFF7D9
:10739000FFFD002825D02000FFF7F8F80400412861
:1073A00014D91F4B022118781E4A04F0ADFB1E4B66
:1073B0003C3C1C80022233685A703B78002B14D16D
:1073C00028000199FFF75AFE0120FEBDFA22920023
:1073D0004243002AEED0124B0221187804F09CF9A7
:1073E000E8E7FFF7D3F80200F3E700233B70EBE791
:1073F0003B78002BE8D1032004F0BEF9011E08D031
:10740000D0230370CC3B457083703368187804F048
:10741000CBFAFFF7B1FDD7E75C65FF1F5465FF1F8F
:107420008465FF1F60EA00007065FF1F10B51749F3
:10743000838802008B4220D011D815498B4217D087
:10744000144900205B1899B2012907D89268117875
:107450005A425341D8B2FFF7F9FD012010BD0E4A40
:1074600000209B1807229BB29A424041C0B2F5E728
:1074700083681878FFF768FFF0E7836899785A788F
:10748000090218781143FFF777FFE7E70A200000A9
:1074900006200000F8DFFFFFAFDFFFFF014B187091
:1074A0007047C046F143FF1F10B5064C207001F035
:1074B00041FA207804F080FA0521207800F062FD7E
:1074C00010BDC0468465FF1F0BB273B50D00002BC5
:1074D00000DBC4E0884B187804F096F9041E0ED047
:1074E0000378912B0FD0A22B00D1A1E0834B187809
:1074F000FF2852D0210004F057FA00284DD18020F7
:107500000002684076BD43780F2B76D013D8052B48
:1075100070D00E2BEAD18088794B98422BD8794BCA
:1075200098421BD8784B9842E0D1A3681878591C30
:10753000FFF774F838E03E2BD8D18378032B74D052
:107540006CD8012B6ED0022BD0D1704B1B68002B56
:1075500023D05B68002B20D098471EE06C4BC018EE
:107560000C28C3D804F0B0FA1DC2C2150BC20B0B15
:107570000B3223C23C00674BC0180728B6D8664BB5
:107580001B68002B09D01B68002B06D020009847F1
:107590000AE0A3681878FFF7C7F8200004F074F831
:1075A000ADE7A068FFF762F800289FD0F5E7A36871
:1075B0001B78002BF1D0554B1B68002BEDD01B68BE
:1075C000002BEAD0210055489847EDE74F4B1B6848
:1075D000002BE2D01B68002BDFD021005048F3E7DE
:1075E000504B1B68002BD8D05B68002BD5D02100F6
:1075F0004348E9E7FFF7EAF9CFE780884A4B98422A
:1076000003D04A4B984200D070E7464B1B68002BD2
:10761000C3D05B68002BC0D02100D5E7153B012B00
:10762000BBD963E7FFF798FAB7E7FFF77DFAB4E74E
:107630003F4B1B78042B07D100236A461380017946
:10764000408800F0C5FCA8E7364B1B68002BA4D08F
:107650005B68002BA1D00100364898479DE70124C4
:1076600021420AD0294B1B68002B04D05B68002BF9
:1076700001D000209847012043E78B070AD5264B0D
:107680001B68002B04D05B68002B01D020009847BA
:10769000022036E70421280008400D4200D131E7DE
:1076A000254E3388002B21D0013B9BB23380002B29
:1076B0001AD1FFF7DBF800280AD0204B1C70164BBC
:1076C0001B68002B04D05B68002B01D0200098477A
:1076D000FFF7C6F8694601F001FD6846FEF7FEFFB8
:1076E0001D20FEF753FF308004200AE7024B187874
:1076F00004F0BAF8F8E7C0468465FF1FF143FF1FA6
:107700000E20000001200000091000007C65FF1F12
:10771000FEDFFFFFAFDFFFFF8065FF1F0C200000D3
:107720000B2000006465FF1F0D20000013200000E7
:107730005965FF1FFFFF00005665FF1F5465FF1FBF
:1077400010B501F09BF910BD014B18607047C046A1
:107750008065FF1F0B880020162B01D817230420FB
:10776000014A13807047C0462E65FF1F00207047F6
:10777000074A03001188814207D09188002099426E
:1077800002D101308000101870470020FAE7C0468F
:107790008C65FF1FF0B58F7806000D00C5B01E2F59
:1077A00015D1FFF7E5FF051E03D10024200045B0E9
:1077B000F0BD00223B003100C078009200F0B2FB27
:1077C0000400A81C00F0D2FBFF23EB70EEE7264B71
:1077D000062403931B78FF2BE8D0182FE6D87B08EC
:1077E000224A013BDB0002929A589446002ADDD0DF
:1077F000029AD3185B68002BD8D00878002802D1F1
:107800004B78012B02D10624122FCFD107AFAB88C2
:10781000697800976446AA68A047041EC6D1AB7871
:10782000029A5B08013BDB00D318390030005B682B
:107830009847041E0BD1AB78042BB6D0039A3100C5
:1078400010782200009700F06DFB0400AEE76A7824
:10785000002AABD1AA7805A93B88087130000A70CC
:107860004B80FEF747FBA0E7F443FF1F24BE001147
:107870001D4B37B5050098420BD000290AD1FFF700
:1078800077FF002805D11948FFF772FF002800D0C4
:10789000058037BD01291AD1FFF76AFF041EF8D011
:1078A00001235B420380A378FF2BF2D0FE2B07D08D
:1078B0000023E0781422009329001E3300F032FBED
:1078C000A01C00F053FB01235B426380E1E7022927
:1078D000DFD1013901F0BEF80028DAD12800FFF726
:1078E00047FF041EDFD1D4E7FEFF0000FFFF0000CA
:1078F000022210B5074B52421A80074801325A80C3
:107900009A80DA8000F07EFA044801F025F8002021
:1079100010BDC0468C65FF1F95770011717800116E
:107920000388F7B50400002B02D102252800FEBD14
:1079300042680221137825485268FEF7A5FD002809
:107940002ED0234F01253A88002AEFD080232188AA
:107950005B0201259B1A9942E8DC0C2003F0B4FE7F
:10796000061E31D03B8822889C46002318000195D2
:1079700061469DB2491989B2AA421BD8002801D09C
:1079800062443A8000233000082208C0210004F03D
:1079900033F8104A1368002B13D100251660C5E791
:1079A0006268022113780C485268FEF76DFD0028CA
:1079B000C7D1BAE760681D014019418101330198C0
:1079C000D6E71A001B68E6E71325AFE792BE001161
:1079D000F243FF1F8865FF1F90BE0011014B187016
:1079E0007047C046F443FF1F14230A0010B51A4025
:1079F000194204D00122102101F048F810BD4B06B5
:107A0000F9D4012088434000F8E710B514008B0634
:107A100004D50122102101F039F810BD08230A0015
:107A20001A40194202D14BB2002B0FDA102101F09B
:107A30002DF8002808D02300F2331B78002BECD05F
:107A4000F1342378012BE8D10020E6E703208907F1
:107A5000FAD4E2E7F0B51F00184B85B01C6801901E
:107A600002910392002C27D1200005B0F0BDA5683B
:107A70003301ED186B89019A934211D3029A934214
:107A80000ED8002F04D10A9B002B10D12C00EBE75D
:107A90003B002978039A6868FEF7F6FC0028F2D1CB
:107AA0000136B6B2A388B342E1D82468DAE7A36806
:107AB0000A9A5B891380E9E70026F3E78865FF1FD0
:107AC00037B50C000A8849880123914217D3002A50
:107AD00015D0651D23792A0002210A48FEF7D4FC3F
:107AE000102300280BD023796188208800242A00E5
:107AF0000094FFF7AFFF0A23A04200D02300180034
:107B00003EBDC04692BE001113B50A0008884988E0
:107B1000012388420BD8002809D0002413790532AC
:107B20000094FFF797FF0A23A04200D0230018001B
:107B300016BD13B50A0008884988012388420BD86E
:107B4000002809D00024137905320094FFF782FF42
:107B50000A23A04200D02300180016BDF0B58BB058
:107B600003904A8808880E000123824255D30028DA
:107B700053D00023012704AC237000227188130026
:107B80000092FFF767FF051E3ED02078002835D110
:107B90002B78022B18D167706A8983000130E318B3
:107BA00080005A8069680222201803F025FF23789C
:107BB0000133DBB22370042B19D93B0068890130F3
:107BC00080B2002BD9D01FE00223637012235843E8
:107BD0006A89231804305A8069681022201803F03B
:107BE0000BFF23780133DBB22370002BE5D10C4A65
:107BF0006B899B185A425341DBB2DFE76378012B54
:107C0000E4D12B78022BC7D022780A23002A04D093
:107C100021000398FEF798F9002318000BB0F0BD7F
:107C20000100FFFF0F4BF0B504001868002816D0C4
:107C300083685D89A54207D88288AE18B44203DA0A
:107C400012019A18934201D10068EFE71E005F8984
:107C50001036A74204D1002900D00D801800F0BDD5
:107C60003300EFE78865FF1F70B505000C0008883A
:107C70000021FFF7D7FF03000120002B04D02200D2
:107C80002800197AFFF7C1FE70BDF7B50C0000257A
:107C900001902300EE331B78AB4201D800200AE0AC
:107CA0006B00E65A00213000E718FFF7BBFF002801
:107CB00002D126800130FEBD017A0198FFF794FEC3
:107CC000002802D03B882380F5E70135EDB2E0E7DC
:107CD00010B5040008880021FFF7A4FF030001206D
:107CE000002B03D02000197AFFF77EFE10BD0000A4
:107CF000054B1B68002B01D1180004E09A685289DB
:107D00008242F6D1988870478865FF1FF0B50E272C
:107D1000002687B0039302ABFF183E8005001F4B7F
:107D200040891400984207D02B78013000976A6888
:107D300080B2FFF78FFE060002212B7818486A6890
:107D4000FEF7A2FB00280FD06C892000FFF7D0FFC0
:107D5000002802D0013C0419A4B2039B002B00D0E0
:107D60001C80300007B0F0BD02212B780D486A68F6
:107D7000FEF78AFB0028E7D102212B780A486A68BF
:107D8000FEF782FB002807D0002EDED03B88A342FE
:107D9000DBD17489013CDFE76C89DEE7FFFF00007F
:107DA00092BE001190BE00118EBE001110B50C00E5
:107DB000FFF7DEFC03000220002B0AD0002C00D0CD
:107DC00023609B781720FE2B03D00138FF2B00D1B6
:107DD000002010BD73B50D0001A904001600FFF7C7
:107DE000E5FF172805D0002E04D129002000FEF75A
:107DF00027F976BD01221021200000F047FE00285F
:107E0000F3D0F6E7014B18607047C0469865FF1F36
:107E100037B56B469D1D010004000222280003F0C7
:107E2000D3FC2B88B02B0ED12379122B09D1230040
:107E3000FA331B78012B06D10121608800F0E0F8AD
:107E400001E01B2BF8D037BD10B5054B042118708D
:107E500000F098F8FFF74CFDFEF770FB10BDC04630
:107E60009C65FF1F0020F0B50BB20F0087B0834266
:107E700034DA274B187803F0C7FC051E2BD00378A3
:107E8000A02B25D103AE3100FEF7E4F8041E0BD180
:107E9000B378DB0724D51F4B06341B68002B03D0B7
:107EA0003100688898470400A868002801D003F0D2
:107EB00043FC002C08D1184A039B1340174A9342F5
:107EC00006D0B3781B2B03D00121688800F098F806
:107ED000280003F0D9FB80200002784007B0F0BDF5
:107EE0000F4B1B68002B10D0310068889847041E88
:107EF000DAD07378002BD7D1B27801A90A704B8001
:107F00000C716888FDF7F6FFCEE70624F1E7C0465E
:107F10009C65FF1F9465FF1F00FFFF00000112001A
:107F20009865FF1FF7B50190FC200D0017001E009B
:107F300003F022FC04001320002C12D0B0232000F8
:107F40002370089BF4226770658026710830002B2F
:107F500008D0190003F050FD2100019803F024FD22
:107F60000020FEBD089903F037FDF5E710B5041EAB
:107F700006D00078FD2803D803F086FCFF23237089
:107F800010BD00000A1F93B210B504000220032B9D
:107F900005D882400020024BD1529B189C7010BD26
:107FA000BC65FF1F0B8870B5043B04000D00022068
:107FB000032B0BD80121200000F04CFD03001420FE
:107FC000002B03D02900200000F0DEFB70BD000074
:107FD00007B51300034A00920A00012100F02CFCAF
:107FE0000EBDC0460D82001107B50192032200921A
:107FF000024B0A00122100F049FC0EBD8B820011D9
:1080000007B56B4601AA11800449D8800878063369
:10801000012802D1190003F087FC07BD9D65FF1FF1
:108020000C4B10B518700023FF210B4A13801381ED
:1080300093819380094A5380137051729381937294
:10804000D174D3821375517703F096FD00F0FCF9DB
:1080500010BDC046CC65FF1FBC65FF1F9E65FF1F9E
:10806000F0B58DB06B46002003910C229B5E8342DD
:1080700000DBB0E05D4B187803F0C6FB051E00D1B5
:10808000A4E00378902B00D09DE006AF0100468865
:10809000380000F013FA79680400002900D19CE050
:1080A0003B88052B6ED13B89032B1CD905AC2000E6
:1080B00000F0A2F86288172A61D83989131D994205
:1080C00031D17968237804310291D90738D56078A5
:1080D00000F08EF9071E06D0002303712378012BD0
:1080E00008D0132B23D0A868002800D178E003F033
:1080F00023FB75E06288029909A800F0A6F80290B7
:10810000380000F08BF909AA2378387A019200220E
:1081100031000092029A00F012F9380000F064F980
:10812000029B002BDFD0300000F080F9DBE7037802
:10813000032BD8D16288029909A800F0D6F8DEE7AF
:10814000122B13D1029909A800F0B5F8021EEAD14A
:1081500027498B88002BC6D0887909A923780191FB
:1081600061780091310000F0EAF8BCE7002302AA30
:1081700093833000617809AAFFF72AFFB3E71D4B0C
:108180000993F6E7042B02D09A1F012AABD8184AAC
:10819000043B9B00995A0029A5D0D2189078310051
:1081A0003A0000F0AEF800289DD13B88042B03D0A4
:1081B00001213000FFF724FF012C04D1A86800281A
:1081C00001D003F0B9FA280003F05EFA8020039B87
:1081D0000002434018000DB0F0BD012800D182E735
:1081E00001213000FFF70CFFEDE7C046CC65FF1F13
:1081F000BC65FF1F010017000B7803704B784370BC
:10820000CB788A781B021343438070470A880300A7
:1082100002700A88120A42700A88012A06D14A8826
:1082200082704A88120AC27004207047022082427B
:10823000FBD14A8804309A704A88120ADA708A8818
:108240001A718A88120A5A71EFE710B504000120EA
:1082500082420CD94B780A781B0213432380834255
:1082600006D1CB788A781B0213436380002010BDAF
:10827000022BFBD1CB788A781B02134363804B79A6
:108280000A791B021343A380F0E70B8803700B8865
:108290001B0A43704B8883704B881B0AC3708B8802
:1082A00003718B881B0A4371CB888371CB881B0AAF
:1082B000C3710820704703000120082A14D14A78AE
:1082C0000878120202431A80CA78887812020243A0
:1082D0005A804A790879120202439A80CA798879C9
:1082E000120202430020DA80704710B5040001201A
:1082F000022A05D100204B780A781B021343238001
:1083000010BDF8B5060010200F00150003F034FA78
:1083100004000120002C0ED0A0230C222900238071
:108320006780201D002D07D003F066FB2100300080
:1083300003F03AFB0020F8BD03F04EFBF6E7F7B57B
:108340001E00009008AB142017001D78019103F067
:1083500013FA041E12D0A2230370019B47704380BE
:10836000099B057146710C220830002B07D01900BB
:1083700003F042FB2100009803F016FBF7BD0999BA
:1083800003F02AFBF6E737B5041E0FD04388002B15
:108390000CD00025C1881323007A1722019500957F
:1083A000FFF7CDFFFF2365806372257037BD0000A6
:1083B00010B50C4904004A88002A09D08B89002B8B
:1083C00005D00020CB8A0222834201D010BD0122B9
:1083D00013000A20434300204032C854C81842808A
:1083E0000472F3E79E65FF1F00234380037070470C
:1083F000094B00211A0010B55C88002C06D01C79AE
:10840000844203D10A234B43D01810BD01310A33F3
:108410000329F1D10020F8E79E65FF1F10B5040085
:10842000407A03F031FAFF23637210BD70470430C5
:1084300010B580B203F050FB002803D0042149425C
:1084400003F0CAF910BD000070B50025104CA068FB
:108450002580A581A580A84202D003F06DF9A56012
:1084600000250C4C0C4B606D1D80230058331D7093
:10847000A84202D003F060F9656500256068002815
:1084800001D003F059F9013508340A2DF6D170BD39
:108490006466FF1F0866FF1F5866FF1F70B5041E45
:1084A00009D1054D2880A881A880A868002802D09D
:1084B00003F042F9AC6070BD6466FF1FF0B54B88F5
:1084C00085B00193002343600A7905000F00022A5A
:1084D00000D07BE0CA88032A17D98B685E781978A8
:1084E0003602DC78D8790E4399781B7A24021B0275
:1084F0000C43034353495BBA0B80331D93421ED197
:10850000042C04D0631F022B0ED9012015E0019A20
:108510004D4B1201D35A002B06D00198FFF7BEFF36
:108520004A4A1369013313610421B8682E812C80F3
:10853000494203F051F96860002005B0F0BD434D99
:10854000042C06D0631F022B0FD9EB680133EB60BC
:10855000DBE7019A3C4B1201D35A002B05D001985E
:10856000FFF79CFF2B6901332B61374B30000293DF
:10857000019B029A1B010193002301998C468B52A7
:10858000130063449C8003939E81FFF750FF039B7D
:10859000041E986016D00421B868494203F01CF903
:1085A000FA880100043A200003F026FA0199029AA1
:1085B000FB888A5A043B9B18029A8B522B68013322
:1085C0002B60A2E7AB690133AB619EE71E4B0293C0
:1085D000019B1E01029BF35A002B2DD002998C198E
:1085E000A068002828D0012A26D1FA889B189BB2BF
:1085F0007352A189994217D39B1AC018B96803F026
:10860000FBF9029BA289F35A934200D07DE7002236
:108610002B81A3882B80A3686B60029BF2520B4ACC
:1086200053680133536070E7084A936801339360DD
:108630000198FFF733FF68E7044A53690133536138
:10864000F6E7C046CE65FF1F6466FF1FD465FF1FB7
:1086500070B5051E15D10B4C0B4B188023005833F9
:108660001870606D002802D003F066F8656525007B
:1086700050356068002801D003F05EF80834AC4241
:10868000F7D170BD0866FF1F5866FF1FF0B51700D1
:10869000A12285B0920001934243394B06001B682A
:1086A0000C009B18D933FF331D78FDF741FF0430D0
:1086B000854204DD3000FDF73BFF0430C5B2BD420A
:1086C00007D33A0000213000019B03F04DF905B0BB
:1086D000F0BD2900380003F05FF82300C6B2503324
:1086E0001E700393019B29006365380003F0ACF80A
:1086F000CBB20293002B02D0039B01361E700026E2
:108700002300503303931B78B34204D8606D0028D4
:1087100031D10020DBE7029A2800002A04D0013B77
:108720001000B34200D02800F700E719387003F0BA
:1087300073FA786000280ED03A78019903F05CF95A
:10874000019A3B780136D3180E4A0193D369F6B2E9
:108750000133D361D4E7039B18706065A74205D14C
:10876000084A1320D36A0133D362B0E7606802F08D
:10877000E3FF0834F2E702F0DFFF00236365C8E798
:108780003409FF1FD465FF1FF7B50D000700042152
:10879000686803F021F82B89040003702B891B0AF9
:1087A00043702B8883702B881B0AC3702E89022587
:1087B0000436F6B2F42E15D81B4B9F4214D10C2070
:1087C00002F0DAFF1135011E0CD0902303708E3BAE
:1087D0000371043B4380154B8460C680187803F016
:1087E000E3F800252800FEBD5C237B43104AD31824
:1087F0000093583301931B78002B0FD103003200F4
:1088000038000099FFF742FF019B05001B78002B01
:10881000E8D13800009903F077F8E3E7054A072527
:10882000536A01335362DDE7FEFF0000CC65FF1F92
:108830000866FF1FD465FF1FF0B587B000901720B2
:108840000F0016000193FFF7F2FD1325041E19D047
:108850000C98031E02D00199201D9847030AE3706B
:10886000052302AAA07004309081277000986670DA
:1088700003A993800494FFF787FF051E02D0200010
:1088800002F05AFF280007B0F0BD0000F0B587B035
:108890001F000CAB1B780391059301210DAB060063
:1088A0001C78049200F0D6F81425002821D020006E
:1088B000FFF77EFD0135041E1BD01149059B0A7888
:1088C00003700132D2B2131EC68001D101231A00F7
:1088D0000B7022713000049B03990097FFF7ACFFE7
:1088E000051E09D1230021000648074A093303F079
:1088F0009BF8280007B0F0BD002363802370F8E7E1
:10890000D065FF1F8783001130750000F8B50500A2
:108910000E00064C064F2368002B02D031002800C1
:1089200098470434BC42F6D1F8BDC0467466FF1FB8
:108930008866FF1F0123064A5B42538000231371A0
:108940005362044A136053609360D36013617047AD
:108950008866FF1F7466FF1F0200002310B50649DA
:108960009C000859002801D1625010BD0133052B2D
:10897000F6D11320F9E7C0467466FF1F034A5388F7
:10898000181A434258414042104070478866FF1F02
:10899000F0B585B002930AAB1F780CAB1B88009032
:1089A00008000E0001920393FFF7E8FF0500112075
:1089B000002D1BD10E48FFF7E1FF04001520002C0D
:1089C00014D006220B99A771E01D03F015F8019B46
:1089D00030002371029B29006371009B6680237025
:1089E000039B6562E381FFF791FF280005B0F0BDAE
:1089F000FFFF000010B5FFF7C1FF04000220002CAC
:108A000012D060880121FFF781FF606A002801D041
:108A100002F052FE28220021200002F0DDFF012397
:108A200000205B426380207110BD000030B5074A12
:108A3000074C5588010013780020A54204D05B1A2A
:108A400059424B415842104030BDC0468866FF1F16
:108A5000FFFF0000084A10B501230C00904208D027
:108A6000FFF78CFF031E04D0037923405A1E934165
:108A7000DBB2180010BDC046FEFF0000024B1879A3
:108A8000431E9841C0B270478866FF1F70B504004E
:108A90000D001600FFF772FF002804D10D4B9C4219
:108AA00000D0143070BD416A03790520002907D039
:108AB00012221A40102A02D10520002EF2D10F20D6
:108AC000DB06EFD5897E0C20A94289414942494203
:108AD0000840E7E7FEFF0000030010B5002800D1C2
