:020000041100E9
:103000007FB50023284C294D03932800217C284AB2
:1030100001F0E5FA002812D103232800217C03AA3D
:1030200001F084FA00280AD1224B039A9A4206D171
:10303000214B2248E360224B636104B070BD02263D
:10304000217CFE2228001F4B009601F041FA002847
:1030500001D00020F1E71C4BA2899A42F9D1217CD2
:10306000FF222800194B009601F032FA0028F0D117
:10307000E389174A934203D1164B17486361DCE793
:10308000164A9342E5D1164B164A1B68934206D95D
:10309000C02304222800217C9B0001F082FA124BFD
:1030A00012486361C9E7C046F461FF1F3442FF1F45
:1030B000813700005959530059598320ECBA001147
:1030C000114200110062FF1F595900000262FF1FE8
:1030D00083050000C5410011CCBA00118215000023
:1030E0001862FF1F87130000CD420011DCBA0011E7
:1030F000002370B51A4E1B4C30006361637401F0FD
:1031000095F9402323744B2B0CD9CC233821AC22C6
:1031100030009B01217401F044FA00280AD00025F8
:1031200025740CE0FFF76CFF051E08D1237C0433E7
:10313000DBB2E7E70C4B0D4D63610D4BE381236878
:10314000002B08D1002D06D00C222900200008F009
:1031500037FC2B7B6374300001F0A6F970BDC046CC
:103160003442FF1FF461FF1F65420011BCBA001119
:10317000AAAAFFFFF7B5164B0192C318021D002043
:10318000009388235B05D3181B685C1C1AD09CB283
:10319000402C18D88D781E0CAC466746CD782D0291
:1031A0003D43AE4206D1019800280ED110000C70AC
:1031B000240A4C7003249BB20733A343D218009B0C
:1031C0009A42DED3FEBD4432F9E71000FAE7C0466A
:1031D000FC0F0000802213B503000324019189B283
:1031E000520107319B18A14304305A1A88235B050A
:1031F000C3181B68591C03D190429241104016BD60
:1032000099B2402907D80B000733A343C018904256
:10321000ECD30020F3E74430F9E7134B134A1B6863
:10322000126810B5FA24934201D81A00F824104B02
:10323000E4021B689A4210D813000E4A12689A42A0
:103240000ED3013307D1F823DB029C4203D10A4994
:10325000054808F035FB200010BDFC24E402ECE733
:10326000FE24E402F7E7C04600C0071100D00711B2
:1032700000E0071100F00711FFFFFF7FF0B59BB0E2
:10328000150004900391402A00D9A0E006AB5980B4
:103290001A80FFF7C2FF0400042816D9002206A9ED
:1032A000FFF768FF052810D906AB1B88AB420CD18D
:1032B000002D07D0514B2A000499C01808F018FBC4
:1032C000002802D101201BB0F0BD06AB1D802000FC
:1032D0000699FFF77FFF041E7BD1069B0793FFF73C
:1032E0009CFF80235B01C618802307001B039E42BE
:1032F00001D3F826F60288235B05F31801931B68B7
:10330000013302D0019808F0BBF83D49019808F05C
:10331000D7FA3B1D0293331D05938822029B520569
:103320009B181B6808935A1C3CD044219AB2009108
:10333000402A04D80320D11D814389B2009103990A
:103340001B0C8B4224D0402A22D80122300008A92D
:10335000FFF710FF021E1BD1380008A9FFF70AFF74
:103360000400042831D9009A059B9B188022520141
:10337000B218934240D288235B05C118009A09A86D
:1033800008F01EFB1D4B009A09A9F01808F030F94F
:10339000009A029B9446634402931A4B029AFB18CC
:1033A0009A42BAD388235B05FC1821680198013939
:1033B00008F086FA200008F063F8039A07AB5A80F9
:1033C00030000799FFF706FF0400002C03D100200E
:1033D00079E70428FBD988235B05E018069908F0F3
:1033E0006FFA0323EA1C9A4300D16BE7034B04995D
:1033F000E01808F0FDF865E70424ECE7040000118C
:10340000FFFFFF7FF80F0000F7B505001400402A0A
:1034100021D8002701AE71803780FFF7FEFE042817
:1034200016D93A003100FFF7A5FE042810D93688D6
:10343000BC420BD0BD4209D0221CB44200D9321C80
:10344000064B92B2C118280008F0BAFA30B2FEBD9D
:10345000C04300B2FBE703204042F8E7040000113C
:1034600037B5042204000D0001A81649FFF7CCFF70
:10347000020004280BD1019BA34208D3AB4204D025
:10348000104901A80195FFF7F9FE01203EBD0E4C41
:1034900023682000019307F0F3FF01992000013910
:1034A000019108F00DFA80235B01E418074B9C4260
:1034B000EED10422034901A80195FFF7DFFE0020A9
:1034C000E4E7C0465555000000C007110000081190
:1034D00030B589B008F024FA10226946254808F072
:1034E00047F8254B009A9A420ED1019B029A0F2B66
:1034F00033D8002101240698013B08D2002900D0CE
:103500000292029B013331D10023029325E0551C26
:10351000F2D102002100EFE710341022200004A9AC
:1035200008F026F8029B013301D1069B0293882301
:1035300004995B05C918059B06981A03120B0491A0
:103540000592814203D02B4201D108F039FA019B48
:10355000013B0193019B002BDED1029B002B03D08A
:10356000049304984168084709B030BDE025014C38
:103570002D03EFE700000111504859368022F8B5BD
:10358000964C974BD200002120001C6007F020FFD2
:103590002300944A88331A60934B1A786A23002ACE
:1035A00000D01133E3620A232365904B37221B7846
:1035B0000820A3638E4B2118E361102323628D4BF7
:1035C0003B256361C823DB00A36123008C331A60B1
:1035D0002823013AE26320646364CA67043A211D28
:1035E000CA672100BC310D602100C0310860210094
:1035F000C4310B6021000635CC310D602100083D3F
:10360000C8310D602100D0310A602200D432106030
:103610002200D832136022000227E0322100176016
:103620004222DC310A6021001B3DE4310D602100A3
:10363000E83108602100EC310B6023000521F433F0
:1036400019602300F0331A602300183290331A6097
:1036500023009433186023001E3A98331A60AF2376
:10366000DB002360644BFA262363644B644DE36004
:10367000644BF031A3642300FF31FC33B600A1603A
:1036800021611E60A5627325E5656D3D6565A565D3
:1036900096255D4AAD00E264666258606766A5667D
:1036A00000270925A767E566584F594D6067200038
:1036B0002567E2673A6015279C30676007001A208B
:1036C00038602000A0300700212038602000A8309A
:1036D00007004C4838602000F83006602600642758
:1036E000A436376026005F3FAC3637602600033FC4
:1036F000B03637602600C637B4363760260000275C
:10370000B836376038269E60424E96205E64424E40
:103710005A66DE61414E9A645E62F53EFF3E9E62ED
:103720001E269A67354A8000DE661F675F67DD6583
:103730001D661862DA67BE23394A5B00E250394BD6
:10374000D838235004302250C4225200A350C6233C
:10375000E4205B00E1500433334AE1503349344BF9
:10376000D1603449800019503349E938FF38195085
:1037700032490430195032493248D161324911631B
:10378000324951631900F4310860CE2030494000BD
:1037900011603049195019002F48F83108602F493D
:1037A000D16582212E4A89005A501A002D490832CB
:1037B000D1671A002C49B432116088212B4A890044
:1037C0005A501A002A49883211602A4ADA6408F0ED
:1037D000CFF8012007F02CFEF8BDC0460004FF1F03
:1037E0009064FF1F606FFF1F6444FF1F4A0AFF1FA2
:1037F0003A07000080C3C9019A020000DC050000FE
:103800006A18000050C3000088130000F009FF1F71
:10381000204E00006509FF1F68100000C409000069
:1038200040420F0010270000FC00FF1FB11CFF1FCB
:103830000000FF1F052DFF1F8D30FF1F252FFF1FCD
:103840007120FF1F6127FF1F8D20FF1F3922FF1FDF
:10385000FD1FFF1F8529FF1F6D2AFF1F8D19FF1FE9
:103860009128FF1FB525FF1FC125FF1FFD1EFF1F4C
:10387000B51FFF1F751EFF1F0223F0B50124644D05
:10388000644E2B70644B91B01C70644F039333688B
:1038900000210820BB7006F075FC082006F06CFBC8
:1038A0000023984205D0BA78552A02D0332A00D096
:1038B000A1E03360042006F0DFFD07F071FFFFF7A1
:1038C0005DFE07F0FDFE1F2201240021544B10AEC7
:1038D0001A70544B1C70544B1970544B1968914317
:1038E000163A0A431A60602219689143403A0A4323
:1038F0001A6007F0FDFD07F023FF4D4B9847C120EC
:10390000FF214C4B80001A588A431A50C52292005E
:1039100098588843BF390143995098584649084000
:103920008021C9010143802099509958C00509029E
:10393000090A0143995080214048490108F000F8E4
:10394000032322003E49019400933E4807F020FDE6
:103950002C223D4905A808F033F805AC61782078A1
:10396000023406F029FBA642F8D1384C0121002090
:1039700006F036FC0920012106F032FC2268344BA7
:1039800003201A40A023DB02134323608023226814
:103990009B041343236022682E4B1A4080239B0311
:1039A000134323602C4A2D4B934200D8012007F08B
:1039B000FFFD07F055FD80232268DB0413432360DD
:1039C000287807F055FE039B1878C0B207F020FF57
:1039D00007F0DEFD2249042007F0FAFE06F018FD8C
:1039E00000F040F800F014FE00F0C0FE00F018FAFD
:1039F000002011B0F0BD00932100194A042007F007
:103A000087FE8023DB059C62FFF762FD52E7C0461C
:103A10004A0AFF1F34F000406444FF1F2462FF1F66
:103A2000480AFF1F490AFF1F680AFF1FBCF0004039
:103A3000E1A2000000E100E0FF00FFFF6844FF1F7B
:103A4000EC56FF1F6854FF1FE0B9001114F000404E
:103A5000FF7FF8FFFFFF9FFF0080FF1F606FFF1FCA
:103A60003B000108002210B51100112007F000FDF5
:103A700010BD0000F8B500230926374F374C3B62D4
:103A8000E3681120B343E36007F052FE112007F012
:103A9000D7FC112007F01CFE402322688025134329
:103AA000236080236268DB0213436360A3682C4AAF
:103AB0002B43A360A36802211340A3608023A26864
:103AC0009B0113431022A360236C072093432364BC
:103AD000236C0F3A1343236480235B003B62226B09
:103AE000204B1A402263626B1A406263A26B1A4039
:103AF000A263E26B1340E363E3681B4A1340E36095
:103B000006F05AFA0121072006F06AFB174B112034
:103B10005A6C15435D6407F05BFFFD21144B154A99
:103B200089005A508023C720626B5B031343636391
:103B3000E36880003343E3600F4B104A195811408B
:103B4000802212020A431A50802292051A6008222B
:103B50000B4B5A63F8BDC04600F000403CF00040FB
:103B6000FFFFDFFFEFFFEFFFFFFF7FFF00380040A9
:103B70000000FF1F5118FF1F00E100E0FF00FFFFE2
:103B800000000540E12010B5C00407F091FC10BD15
:103B900070B52B4C238C002B2AD0FA22D2009342F2
:103BA00001D2FFF7EFFF228A238C002A21D1DA000D
:103BB00023826382A382E38223836383A383E383D9
:103BC00022606260A260E2601E4D1F4A6420EB80AA
:103BD00093420AD8FA220020D200934205D91B4A08
:103BE0000A21981807F094FCC0B20023287223849D
:103BF00070BD0720E11CCA7F01320240CA7705D19F
:103C00000325201DC17F01312940C17708325200B0
:103C1000A352002321001A00088A01321B18023126
:103C2000082AF9D1221DD27F9200A350626823682E
:103C30009B18A2689B18E2689B185B099BB2C3E7BC
:103C40006461FF1F0C62FF1FB70B000030F8FFFF1D
:103C500030B503A804880B20002C0ED14968074D0D
:103C600008784978090201430A20A94205D10121B7
:103C700020001980024B1B7A137030BD192A0000F6
:103C80000C62FF1FF7B5150008AA16884A680F4F87
:103C900014785278120222430A24BA4214D1012223
:103CA000DBB2019200962A0007F002FB041E0BD142
:103CB000074B1B68002B07D068782A780002104356
:103CC00042425041013098472000FEBD02290000C9
:103CD0009061FF1F30B5012503790400BFB02B426E
:103CE00011D00A49408806F04FFE28420BD0084BFD
:103CF00001A95B8D4D800B80064B00221B7A6088EA
:103D00000B7103F021FF3FB030BDC0468861FF1F3B
:103D1000A840FF1F0C62FF1F10B50549054806F0BB
:103D2000E9FD0421044A054806F0A6FD10BDC04681
:103D30008861FF1FFFFF00000CBA0011A840FF1FA1
:103D400010B5024804F082FD10BDC046D53C0011FC
:103D5000012303700B4B1A7A4270022282709A7808
:103D6000C270DA780271032242711A7982715A792B
:103D7000C2710C2202729A794272DB7983720B2033
:103D80007047C0460C62FF1F022310B50370013B51
:103D900043700533837010330371443B43712A33FE
:103DA00083714433C37100230372064B04001B88E4
:103DB00043720A30FFF7CCFF831D0A30C0B2E370B4
:103DC00010BDC0460C62FF1F10B5142007F0D8FCD0
:103DD000124B14220021186007F0FAFA002007F0B5
:103DE00057FB012007F0DCFA022007F0A1FB0320BB
:103DF00003F0D0FF042005F0E5FF052003F00EFAE4
:103E0000062003F0DBFE072001F072FA082006F01E
:103E100013FD092001F044F810BDC0469461FF1F56
:103E200007F04EFB012007F063FC07F059FD00008E
:103E3000094B10B50400984205D0012904D1200097
:103E4000064906F057FD10BD0229FCD1013904F0E6
:103E5000BBFC0028F3D0F6E7FEFF0000BA61FF1FAD
:103E600070B50D7A100004AA2C0016881022144098
:103E7000154220D1002E20D10A78022A18D14A6892
:103E8000517815780E4A09022943914205D00D4A0E
:103E9000914209D01C800A2404E014220A491A80A5
:103EA00007F08EFD200070BD0C2208491A80F7E74C
:103EB0001C800124F6E70824F4E70B24F2E7C0464F
:103EC000F3FF0000F4FF0000F042FF1F08BB0011E9
:103ED00010B504000749084806F00CFD074804F037
:103EE000F5FB0020E40704D50721054A054806F044
:103EF000C3FC10BDBA61FF1FFFFF0000313E00117F
:103F000050BA0011EC40FF1F00B50C4BBFB01A783F
:103F10000B4902A800F0E4FC6B4680B2D880002870
:103F200009D06A46074B01A91B889380064B0022E3
:103F3000188803F009FE3FB000BDC0469861FF1F1E
:103F40009961FF1F4641FF1F5042FF1F00B50C4BF8
:103F5000BFB01A780B4902A801F03CFD6B4680B255
:103F6000D880002809D06A46074B01A95B8D938051
:103F7000064B0022188803F0E7FD3FB000BDC046A5
:103F8000C261FF1FC361FF1FEC40FF1F5042FF1FB4
:103F9000F7B50E00377A1C0008AB11003D001A88F7
:103FA00020231D401F423CD13378022B3BD1736844
:103FB0001F785B781B023B431E4FBB4208D01E4F4D
:103FC000BB4214D01D4DAB4221D00A252800FEBDB6
:103FD000002A2AD1142C2AD82200F06807F0F0FC1D
:103FE000174B1C70012CF1D9FFF7B0FFEEE7002A48
:103FF0001BD1202C1BD82200F06807F0E1FC114BEC
:1040000004211C70104B187807F042FBDEE7E3B286
:104010000124009201940A00310007F049F90500DB
:10402000D4E70825D2E70125D0E70B25CEE70D25FB
:10403000CCE7C046F3FF0000F4FF000002290000B7
:10404000C261FF1F9861FF1F4462FF1F332310B539
:10405000040003700A220749013007F0B1FC064B47
:104060000F201B681A0AE37222731A0C1B0E62736C
:10407000A37310BD0C62FF1F3462FF1F30B5012512
:1040800003790400BFB02B4213D00B49408806F0DF
:104090007BFC28420DD06A46084B02A81B889380FF
:1040A000FFF7D4FF6B46D8800022608801A903F097
:1040B0004BFD3FB030BDC046BA61FF1F4641FF1FF8
:1040C00010B5024804F0C2FB10BDC0467D4000118F
:1040D00070B5160004AA148805AA15784A685078A5
:1040E000117800022A4A0843801805284BD807F0A7
:1040F0005FFC03131E29343F0720042C0BD8052234
:10410000121BAA4200D92A0022491A80300009193C
:1041100007F056FC002070BD0720112CFBD812229E
:10412000121BAA4200D92A001B491A80EEE7072079
:104130000E2CF0D80F22121BAA4200D92A001749D0
:104140001A80E3E70720032CE5D80422121BAA42B9
:1041500000D92A0012491A80D8E70720032CDAD8A0
:104160000422121BAA4200D92A000E491A80CDE768
:104170000720032CCFD80422121BAA4200D92A0000
:1041800009491A80C2E700220A201A80C3E7C04604
:10419000DCD5FFFF9BBA0011E061FF1F8BBA001155
:1041A00086BA001181BA00117CBA001110B50D2138
:1041B000024A034806F060FB10BDC04670BA001109
:1041C0005C41FF1F13B5104C0423217C01AA00F0B1
:1041D000ADF9002815D16B469A88236852BA92B27D
:1041E0005343228909491B0C9B184B806B46DA8884
:1041F000636852BA92B2534362891B0C9B188B803E
:1042000016BD0120FCE7C046F461FF1F0C62FF1FD2
:1042100013B5124C06236A46217C00F087F900286A
:1042200019D16B461988236849BA89B24B43218951
:104230000B4A1B0C5B1853806B46D97803335B78B1
:104240001B020B435BBA61689BB24B4361891B0C39
:104250005B18938016BD0120FCE7C046F461FF1F88
:104260000C62FF1F37B5174C07236A46217C00F00C
:104270005DF9002824D16B461B787F2B20D86B4634
:10428000DD78F0232A041B031A406B469B880E49F5
:104290005BBA9BB21A4323682D09534322891B0C36
:1042A0009B184B806B465A789B7812031B011A436C
:1042B00063682A43534362891B0C9B188B803EBD65
:1042C0000120FCE7F461FF1F0C62FF1F7FB502268F
:1042D000154C0022217C03AB0096050000F0F8F895
:1042E000002802D0012004B070BD0E23217C0122E1
:1042F000280000966B4400F0EBF80028F2D16B46E2
:104300009A892368D2BA5343228908491B149B18FF
:104310004B806B46DA89636852BA92B25343628922
:104320001B0C9B188B80DEE7F461FF1F0C62FF1FE4
:1043300070B5184C237C002B0FD0382B0ED1164DA6
:10434000280000F073F8CC23AC222800217C9B01CC
:1043500000F027F9280000F0A7F870BDE3890F4AA4
:10436000934209D10C4D280000F060F8002228008B
:10437000217C00F005F9EDE7094A9342EDD1064DA5
:10438000280000F053F890222800217C920100F0D0
:1043900026F9DFE7F461FF1F3442FF1F83050000A9
:1043A0008320000070B5144C237C002B1FD0636960
:1043B000002B1CD0114D280000F038F8636928004C
:1043C00098470400280000F06FF8002C10D10C4B27
:1043D0000422995E002905DA9C801A8801321A802D
:1043E000200070BD074A9142F7DD9A80F5E701246D
:1043F000FEF77EFEF4E7C046F461FF1F3442FF1F64
:104400000C62FF1F0F27000010B58024064AA4008D
:104410001168436B234205D113685B1A032BF8D94B
:10442000012010BD0020FCE76008FF1F70B5C179B6
:1044300005000C00631E9C411A4BE402E41849007D
:104440000460C9B2007905F001FFE9796879490093
:104450000131C9B205F0FAFEE8790930C0B207F0BF
:1044600037F90023E36661332360AA795B3B002AB6
:104470000ED022689A43023B134323600A23E36170
:104480000733236200232363A3630133E36370BD17
:1044900022689A4302231343236046236361063351
:1044A000A361EFE70050004070B5002504000368E9
:1044B000DD66C0790930C0B207F03AF929002079E9
:1044C00005F060FE2900607905F05CFE70BD00001B
:1044D000F8B51E0006AB1D78002304681700E366DC
:1044E000616007F01DFA01238022E3662B0027613B
:1044F0005200013B08D207F033F808200A4A11683D
:10450000002D03D12800F8BD2261F2E7236F03429A
:1045100003D02369013D3370013613685B1A032B06
:10452000EED90125EEE7C0466008FF1F70B51C00FC
:10453000002305681600EB66696007F0F1F90123B6
:104540008022EB6623005200013B08D207F008F8F6
:1045500008200A4A1168002C03D1200070BD2A618E
:10456000F2E72B6F034203D02B69013C3370013615
:1045700013685B1A032BEED90124EEE76008FF1FD6
:10458000002370B504681500E366616007F0C8F9A0
:104590000123E366256106F0E3FF2000FFF734FF07
:1045A00070BD70B51D00002304681600E3666160ED
:1045B00007F0B6F90123E36626610F33626B1A42F6
:1045C000FCD02B0A23611023626B1A42FCD0EDB29F
:1045D000256106F0C5FF2000FFF716FF70BD002320
:1045E00070B504681500E366616007F099F901236E
:1045F000E3662B0A23611023626B1A42FCD0EDB2F2
:10460000256106F0ADFF2000FFF7FEFE70BD000043
:1046100010B5084CE368002B08D18022064B5202EB
:104620001B689B186360054B1B68236007F0F8F854
:10463000A06010BD3462FF1FC8F00040CCF0004005
:1046400070B5184A936A916A9942FBD116498A68F3
:104650009A421FD39A1A8B60144B0126186893B2A2
:10466000D202D20E4343424300204C681B0A1B195E
:1046700012029B180E4C0A684B60551CA3420CD8C2
:10468000002801D04B600A600A4A136008680A4B90
:10469000186070BD581E821ADDE7084A30009B186A
:1046A0002A00EAE700F000403462FF1F140AFF1FEF
:1046B00040420F00C8F00040CCF00040C0BDF0FF09
:1046C00070B5214C23793F2B01D93F2323711F4B18
:1046D00022791A701878C0B207F062F918231C49C1
:1046E0001C4A0B801C4913800B805380A3791B4903
:1046F00080200B800C21938001334B43184D191CF3
:104700000001834200D9011C2980D1806379002BEC
:1047100016D101336371237A012B01D8022323724E
:104720006279237A0F4853430A21584306F0F0FE7A
:104730000D4D2860E379052B01D81023E37170BD7E
:10474000A02BE8D9A023E5E72862FF1F480AFF1F36
:104750004E42FF1F1044FF1F4C42FF1F4A42FF1FE3
:104760004842FF1F710200001862FF1FF8B52021A8
:104770000020FEF775FE114C011E114D09D10C22CF
:10478000104BC1CBC1C4280006F022FEFFF798FFF2
:10479000F8BD0C2220000C49FEF736FE0C2802D092
:1047A000084B43CB43C40C2228000849FEF72CFEDB
:1047B0000C28EBD00C220021E5E7C0462862FF1F41
:1047C000F461FF1FFCBA0011FC0C0000F50C0000A6
:1047D000F0B51D4C8022A544040088206946520192
:1047E000400506F025FF902212016A4413002000C4
:1047F00032C832C316C816C38023144C144FA6689F
:104800009B033343A3603B6006F0CAFE8823A06885
:104810005B05C01806F034FE00258823290080229D
:10482000A0685B05C01840196944520006F0E0FE1C
:1048300080230135FF355B019D42EED1A6603E60CD
:10484000044B9D44F0BDC046FCEFFFFF8043FF1FBB
:104850009808FF1F04100000F0B5040087B000287E
:1048600025D0684607F014F81B4C022806D1062212
:104870006946200007F03CF8002816D0694600235E
:1048800001250F262F00E25C01331009103087400C
:1048900038002F00324097403A0002434A61043901
:1048A000062BEFD16846FFF793FF07B0F0BD182243
:1048B00069460A4806F0BCFE6A46A300D358013395
:1048C00005D01822FF21684606F082FDEAE7013490
:1048D000062CF1D1E9E7C0466509FF1F0009001168
:1048E000F0B5002504000E0085B0AA4200D183E097
:1048F0004B1C087801934B78897837790902194362
:10490000F3783F061B040B431F4303972070657029
:10491000252800D193E033D8112813D806F0E0FE03
:1049200066001701170117011701A700B500AE00B7
:1049300017011701170117011701170117011701B7
:10494000F1001101232800D1CAE0DB2800D020E1CA
:10495000042A00D8AEE01025052A05D0551F2A00EC
:104960003800711D07F02CF805223100200007F0F7
:1049700027F82A003900601D07F022F805353BE0D2
:10498000562856D010D8332800D1A4E0552836D068
:104990002628DAD18E4B2900132218001D0006F0BC
:1049A00017FDFEF7A5FB59E0712800D174E07228CD
:1049B00000D186E0DC28C8D1022A00D87AE07378DA
:1049C000BFB26370B378A370032A05D0033A3900ED
:1049D00092B2F01CFEF752FC10223900E01CFEF7E8
:1049E00013FDC51C002807DA607070E00C2220005F
:1049F000784906F0E5FF0C25280005B0F0BD013A26
:104A0000754D0C2A13D8002A0AD02800019906F007
:104A1000D7FFFFF755FE0C2228007049FEF72EFC49
:104A200029000C22601C06F0CBFF0D25E4E70C22C8
:104A3000EBE7694D6A4B2A0043CB43C2E9E7013AF1
:104A4000634D0C2A11D8002A08D00199280006F0DD
:104A5000B7FF0C2228006349FEF710FC290013223F
:104A6000601C06F0ADFF1425C6E70C22EDE7062218
:104A70005D49601C06F0A4FF0625BDE712225B49D4
:104A8000601C06F09DFF1325B6E708225849601CFC
:104A900006F096FF0925AFE7012A0ED07178F029BC
:104AA00008D8544D288801F0F1FB534B2A88520056
:104AB000D35A00E0FF23637009E04E4A4E4B128840
:104AC000F5E74E4B012A04D072785A7062700225C5
:104AD00092E75B78EFE72000FFF7B8FA05008BE775
:104AE000042A04D9464D2F6006F09AFEA860FFF70D
:104AF000A7FD0422039003A9601C06F061FF0525B1
:104B00007AE7404D062A15D906222800019906F0B9
:104B1000EFFE00280ED006220199280006F050FF73
:104B2000062239492800FEF7A9FB0123334A5178B0
:104B30000B43537029000622601C06F041FF072535
:104B40005AE7012AB6D07078FFF786FEBFE7012842
:104B500000D0FAE6931E2D4F132B06D87378002B46
:104B60000BD100F00BF900F041F9294B39001D7809
:104B7000601C6A1E06F024FF3EE7551E2A000199BC
:104B8000380006F01DFF38002249AAB2FEF776FB76
:104B9000E9E7DA288ED1042A8CD9082A15D9B37905
:104BA00072791B021343F27912041A43337A1B06FB
:104BB00013433B603B68052231002000039306F05D
:104BC000FFFE0422601D03A962E7FE236370F1E784
:104BD000F461FF1F08BB00112862FF1FFC0C0000DE
:104BE000FCBA0011F50C00000062FF1FE061FF1F1E
:104BF0008443FF1F5042FF1F9464FF1F2462FF1F66
:104C00003462FF1F6509FF1FADAC00002564FF1F64
:104C10002364FF1FAEDE000070470000020010B5E5
:104C2000094B0A32094C92B2DA815A829881188271
:104C3000207802F091F90422054B012120781A70A6
:104C400006F026FD10BDC0460E43FF1F6E64FF1F19
:104C50006D64FF1F013870B5042809D806F0A8FE5E
:104C60000309230812001E4B0221187806F010FDDC
:104C700070BD1B4B0821187806F052FD0022194B1D
:104C80001A72F5E780220024164B154D52001A8146
:104C9000082128781A68DC7206F092FC2100287836
:104CA00006F0EEFCE4E70E4B0821187806F038FD1C
:104CB0000D48FFF769F80D4B0D4A9B7993800D4A1B
:104CC00013800022074BDA720132FF321A810A4B3D
:104CD0005B78002BCCD0094A136006F0C9FDC7E70A
:104CE0004462FF1F1862FF1F5942FF1F2862FF1F07
:104CF0001044FF1F4A42FF1F2462FF1F34F0004090
:104D000010B500290FD108280DD10131013005F06F
:104D100067FA054B1B78002B05D02622034B04486D
:104D20005A72FFF77BFF10BD4664FF1F1862FF1F1A
:104D3000C409000010B5012905D1082803D10021BC
:104D4000013005F04DFA10BD0300F0B50A4D8E1884
:104D5000B14202D152008018F0BD0C782F682409AE
:104D60003C5D0F271C700C7801313C402F683C5D86
:104D70005C700233ECE7C0464442FF1F0E22124B28
:104D800010B51A700D23114C11492370093A043BD8
:104D90001048637006F014FE2D2301220E490F48BF
:104DA000E371FFF7D1FF01220D49FFF7CDFF01228B
:104DB0000C49FFF7C9FF030000200B4902001870DF
:104DC000FEF75CFA10BDC0464264FF1F2364FF1F5C
:104DD0009BBA00112564FF1F6709FF1F2B64FF1F8B
:104DE0006609FF1F6509FF1FAEDE000070B5134C9A
:104DF000142220001249FEF707FB431E114D132B0E
:104E000019D8AB78002B16D0431C2B7009236B707C
:104E100000230019037028780B4B01302900C0B221
:104E2000187006F08DFB297822000139C9B20020E4
:104E300005F040FC70BDFFF7A1FFECE72564FF1F04
:104E4000AEDE00002364FF1F4264FF1F10B5114B4C
:104E50001A781870002A0ED000280BD10E4B1A7841
:104E6000062A07D85423D340DB0703D50B4B187809
:104E700002F072F810BD0028FCD0074B1B78012B04
:104E800002D0033B022BF5D8044B0121187806F021
:104E9000FFFBEFE74664FF1F6D64FF1F6E64FF1F9B
:104EA00070B5504E504A51493070082005F08EFAC6
:104EB0000121092005F094F9092005F075FA012176
:104EC000002005F08DF9002005F06EFAFEF710F9CC
:104ED00006F0C6FB032246494648FFF735FF2D245E
:104EE000030004221C7044490130FFF72DFF3023DA
:104EF0000470424D424C437083702E3B06222000CA
:104F00004049EB87FEF780FA062813D0200006F010
:104F1000BFFC022809D00321200006F001FB8D23ED
:104F2000E3706E3B2371193363710622200035490B
:104F3000FEF7A4F9344B1B68FC335C64FFF756FFA3
:104F40000020FFF783FF314C314A0121314B1278A9
:104F5000207801F0C3FF304A304B127800212078CE
:104F600001F0BCFF01222E4B1A702E4B9B78552B63
:104F700031D12D4B3B325A722C4B2D4AAB81EA81F9
:104F80002B826A822021307806F08AFA0120404282
:104F900005F0DCFB0120404205F078FCFFF706F944
:104FA000FEF7BAFE00F0AEFC01204042FEF790FF93
:104FB000012006F01DFCF02001F04CF901213078B1
:104FC00006F066FB307802F023F91A4806F018FA6A
:104FD000FEF750FD70BD6422174B5B7953431A00F6
:104FE0000A32CBE74462FF1F014D0011354D00111D
:104FF0008443FF1FE061FF1F0062FF1F0E43FF1F7E
:105000006509FF1FADAC00009064FF1F6E64FF1FB9
:105010007842FF1F5942FF1F4264FF1F2364FF1F96
:105020001464FF1F2462FF1F1862FF1FC4090000E1
:10503000CE0900004662FF1F2862FF1FF8B50A0074
:1050400020230D001A4019425DD05C4B1B78002BC9
:1050500042D0FFF7F5FA5A4B5A4C5B4E996862689A
:10506000737A8A1ADB039A4202D36160FEF702FD6B
:10507000327A217A531EDBB2994230D1FFF758F9C8
:10508000637A002B25D0013BDBB26372002B20D169
:105090004E4B9B78552B01D106F0EAFBE37A002BAF
:1050A00012D00023A27AE3729A4202D0A372FEF7D2
:1050B0006FFD474A474F1388380001331380FEF7CE
:1050C00063FE390006F0C4F9642370795843FFF792
:1050D000A5FD237A0133237220206840F8BD914258
:1050E000CED300272772FFF75DF9A37ABB4202D027
:1050F000A772FEF74DFD374F3800FEF745FE390029
:1051000006F0A6F9BCE70BB2002B0ADA324B18788E
:1051100006F076FB002801D006F01AFA8020000283
:10512000DBE70224214206D0264B01201A72FFF74A
:105130008DFE2000D1E70B071BD5FFF781FA204B2E
:105140002049214C98684A68637A821ADB039A42A4
:1051500002D34860FEF78EFCFFF724F9FFF7E8F86A
:1051600000F0EAFB2368DB0701D5FEF7A9FF082062
:10517000B3E710230E001E40194209D0FEF708FDC8
:105180000E4B1B78002B01D1FEF7DAFD1020A4E7AF
:105190000124214209D0114800F06EF806F058FAB7
:1051A0003100092005F01CF8C3E704240800204062
:1051B000214200D192E7FEF7A7FEBAE74664FF1F3F
:1051C0003462FF1F1862FF1F2862FF1F2462FF1F47
:1051D0000C62FF1F5942FF1F4462FF1F3C42FF1F2A
:1051E000F0B51B4B1B4F1B883A8804001A4E1B4D11
:1051F00085B09A420DD832889A420AD3184B1A8841
:105200002B889A4205D1174A174B12881B889A425D
:105210001BD0052001F074F83B8802AA1380338864
:10522000019053802B88114D93800F4B02A91B884E
:10523000D3800F4B2A78188802F090FD0D4B08217F
:105240002878019A1C7006F04BF905B0F0BDC046F5
:105250001264FF1F4E42FF1F4C42FF1F4A42FF1FB6
:105260001064FF1F0E64FF1F4842FF1F6E64FF1F84
:105270005042FF1F0C64FF1F13B50C4B1C78002C11
:1052800011D1002801D00A4B18600A4A0A4B117844
:105290000A4A10780A4A01920A4A0092002205F04E
:1052A00001F9200016BD1124FBE7C0466D64FF1F05
:1052B0000864FF1F6C64FF1F5C64FF1F6E64FF1FA8
:1052C0004864FF1F4C64FF1F10B5064B12201B786B
:1052D000052B06D1044B13221988044B187801F0D2
:1052E000EBF910BD6D64FF1F5042FF1F6E64FF1F7E
:1052F00010B500240122114B52421870104B1C7043
:10530000104B1A8001F084FF04220F4B21001A7009
:105310000E480C3206F0DCFA102221000C4806F090
:10532000D7FA07220B4B1C600B4B1C700B4B1C70ED
:105330000B4B1A700B4B1C7010BDC0466E64FF1FE8
:105340006D64FF1F5042FF1F6C64FF1F5C64FF1FF2
:105350004C64FF1F4864FF1F2264FF1F2164FF1F6E
:105360005242FF1F2064FF1FF8B5174C0600257836
:1053700006A814240078052D23D1B41F134FA5B21D
:105380001824BD421DD88D1FADB2BD4219D8FA25D3
:105390006D00AA4215D21D000D4F0A3DADB2BD42AF
:1053A0000FD80C4C26800C4C21800C4900240A801C
:1053B0000B4A1380FFF714FF0A4B0421187806F0FC
:1053C000AFF92000F8BDC0466D64FF1F790C0000E6
:1053D000750C00004E42FF1F4C42FF1F4A42FF1F48
:1053E0004842FF1F6E64FF1FF0B50BB20D0089B07D
:1053F000002B00DB70E1A44E307806F001FA041EA9
:1054000050D00378A22B00D122E1D02B1AD0912BBF
:1054100045D143780E2B42D19C4B82889A423ED193
:105420009B4A83681278052A39D1032018567F28B1
:1054300035D0984B1B68002B31D05B68002B2ED0E9
:1054400098472CE08078072829D806F0B1FA04287C
:10545000183F3F74A8D86378002B0CD101218C4BE6
:1054600019708D4B1A78002A5BD08C4B307801F084
:1054700035FD002855D00722854B1A7051E0617820
:105480000029F8D1E378002B11D0854A854B12789A
:10549000307801F023FD60706378002BEBD12000A1
:1054A00006F056F880200002684009B0F0BD784B45
:1054B0001B78022BF3D00121307805F0B1FF0028D2
:1054C000EAD10121307806F0E3F8E5E76378002BB4
:1054D000D1D16F4F032807D13B78052B02D101337F
:1054E0003B701EE00223FBE76F4B1A886F4B029361
:1054F000002A0BD01B78002B03D00121307805F057
:10550000EFFF3B78062B04D1013BE9E7029B1A70C1
:10551000F7E7042B41D10121029B3078197006F086
:10552000B7F85C4B1B68002BB9D01B68002BB6D0BA
:10553000574A107884E76378554F002B27D106220D
:10554000211D5B4806F03CFA62895A4B5A491A8081
:10555000A2895A4B1A80E3890B800521397058497A
:105560000A80584A1380228A574B1A80574B1B785F
:10557000012B09D11F2000F0C3FEFA229200424302
:105580000421307805F0ACFF0022484B75E7312B41
:1055900000D070E70022454B1A700323A0E70622D3
:1055A0000021434806F094F90023454A0421138062
:1055B000444A30781380444A138006F0B1F8082139
:1055C000307806F0ADF8A379083B5A425341304A8F
:1055D00003331370304B1B78002B06D0334B3078DD
:1055E0001A78002A06D001F0B7FC0122314B524252
:1055F0001A8096E70121197006F04AF8F5E70821AC
:10560000307806F08DF86378002B00D047E72C4BFC
:105610002D4F0293E388029A04211380294B30789E
:1056200003932389039A138063893B8005F0F8FE76
:10563000002800D033E7264B1B68002B00D12EE753
:10564000039902983A88098800881B68984726E7DA
:105650004379132B00D022E70389012B0AD11D4B7C
:105660001B78022B06D10821307806F059F8FFF795
:105670002BFE14E7052000F043FE082102003078DD
:1056800005F02EFF0BE7C0466E64FF1F05140000F7
:105690006D64FF1F0864FF1F7842FF1F5942FF1F00
:1056A0004264FF1F2364FF1F4464FF1F4664FF1F03
:1056B0001564FF1F5042FF1F1C64FF1F1E64FF1F65
:1056C0001264FF1F1064FF1F0E64FF1F1464FF1F8E
:1056D0000464FF1F0C64FF1F8020C001014200D042
:1056E000E2E6CB0731D5324B1B78002B1DD0314E73
:1056F00005AC3378052B1AD1023B23702E4B2100C9
:105700001B7823722D4B1B7863722D4B187801F098
:1057100089FB002809D007202A4B30701B68002B1A
:1057200003D01B68002B00D098470120BCE60E2058
:10573000254B06221B7825492370254B1B78637067
:1057400002ABC01806F03CF9D8E702230800184065
:10575000194209D0174B1B78052B03D11D4B188814
:1057600005F00EFE02209FE60424214203D0FFF73D
:1057700037FD200098E6082308001840194200D1A0
:1057800093E6154B1C78012C03D0022C0DD0082079
:105790008AE6124B124A134913481B88128809885B
:1057A00000880094FFF7E0FDF1E7FFF78DFDEEE7DD
:1057B0004664FF1F6D64FF1F5242FF1F2064FF1FDE
:1057C0006E64FF1F0864FF1F2264FF1F5342FF1F08
:1057D0002164FF1F5042FF1F0C64FF1F4842FF1F40
:1057E0004A42FF1F4C42FF1F4E42FF1F10B502A846
:1057F00004880B20002C10D14968087849780902E8
:1058000001430C48814209D1022119800A4B598871
:105810001170DB7800205BB2537010BD074C0A207A
:10582000A142FAD102211980034B998811705B794A
:10583000F0E7C0466E2A00000C62FF1F6F2A0000CE
:10584000F7B5150008AA16884A680F4F14785278E1
:10585000120222430A24BA4214D10122DBB201927D
:1058600000962A0005F024FD041E0BD1074B1B688F
:10587000002B07D068782A7800021043424250413A
:10588000013098472000FEBD022900008064FF1F00
:1058900030B5012503790400BFB02B4225D014494F
:1058A000408805F071F828420CD0124B01A95B8D9D
:1058B00000220B8002234B800F4B5B888B8060881B
:1058C00002F042F90D49608805F05EF8C0070CD57A
:1058D0000B4B01A91B8800220B8002234B80064B37
:1058E0009B888B80608802F02FF93FB030BDC046A6
:1058F0007864FF1F7C42FF1F0C62FF1F7064FF1F54
:10590000D642FF1F10B5074C0749200004F0F2FFF4
:105910002000064904F0EEFF0721054A054804F07F
:10592000ABFF10BDFFFF00007864FF1F7064FF1F16
:1059300028BB00117C42FF1F10B5024802F086FF11
:1059400010BDC046915800110200F0B501270A4869
:105950000A4E51188B1A002B00DCF0BD0824157874
:105960004308684038404000805B013C58406D0867
:10597000002CF5D10132EDE7FFFF000042BB001122
:10598000F0B500250F269D4200DBF0BD4C5D0709F8
:1059900044403440A400A05801357840F3E70000AB
:1059A000F0B589B06A460D000B000F2711001035C5
:1059B0001C780133260024093E40167054700232D0
:1059C000AB42F5D12023024AFFF7DAFF09B0F0BD60
:1059D00048BB0011F0B54E780B7889B036020C0048
:1059E000170001901E43012A61D9954B9E4200D8B1
:1059F00077E001339E421CD1062A17D1CA788B78F2
:105A000012021A430B791B0413434A7912061A43F4
:105A10008C4B5A6100221A705A808B4A5A608B4A0A
:105A20009A608B4ADA60002009B0F0BD88225205E6
:105A3000EEE7884B9E423CD182498B78002B00D008
:105A4000F6E00C2A31D10F22A3789343E2781202B8
:105A500013432279120413436279120613434B60F5
:105A6000E279A07912020243207A00041043627A9C
:105A700012060243CA60E27AA07A12020243764812
:105A80004A81834208D804236E49142201980B707E
:105A900005F096FF1420C7E71201D21889235B0591
:105AA0009A42F0D801238B70BDE7022AFAD0052371
:105AB000EAE76A4A01239642E6D1FFF705FC052F83
:105AC0000CD9E378A2781B021343227912041A43FB
:105AD00063791B061343624A0393136005F0C8FE03
:105AE000A1E7584D2B78002B9DD1AB78002B00D12E
:105AF000A0E02B8901339BB20093B34200D091E028
:105B0000132AD4D9CF7C8B7C3F02122120001F4363
:105B1000FFF71AFF874200D08EE0002E3DD1E378D8
:105B2000A2781B0213432279E96812041A436379AD
:105B30001B06134303930A228B4212D1FF23A37047
:105B4000E370237163716B89002B09D1E37B227CA5
:105B50001B0212041343A27B13431B0901336B8105
:105B600000226B89002B8ED0002A67D1686837012C
:105B70003818000B6B6900030390984205D96861DF
:105B800005F07EFCEB780133EB7068681022A11CF5
:105B9000381805F02DFD2E8145E76F89009A7B1E90
:105BA0009BB293423AD1E278A37812021A43237946
:105BB00005A81B04134362796C6812061A43EB684C
:105BC00000920392211D0C22049305F0F9FE01209E
:105BD000260004A940421036FFF7E2FE013F012FE4
:105BE00017D1009A0B232861824200D04CE704228F
:105BF0001C49200005F0FCFC042203A9686805F09C
:105C000017FDE968039AFF23914200D13CE7F73B77
:105C10003AE73100FFF7C4FE1036DFE70923B74249
:105C2000A4D831E7009BB34200D9FCE607232BE759
:105C3000022329E7032327E7062325E70A2323E78F
:105C4000FFFE0000F042FF1F00000111FFFF0000F7
:105C50005048593601FF0000FFFF001102FF00000D
:105C600034F00040FC42FF1F10B5034C0B00012232
:105C7000210000F06BFA10BD295E00110B8870B591
:105C800006000D000224162B11D92B00032209490E
:105C900000F05CFA041E0AD1074B2A881B88191CE5
:105CA000934200D9111C300089B200F0EFFA2000B5
:105CB00070BDC046555E00119664FF1F10B54A784E
:105CC0000400013A0B000220012A07D80A78002AB2
:105CD00004D005222000024900F038FA10BDC04669
:105CE000835E00110A7810B50B0004000220002A20
:105CF00004D007222000024900F028FA10BDC04657
:105D00002F5F00110A7810B50B0004000220002A52
:105D100004D009222000024900F018FA10BDC04644
:105D2000955F001110B5034C0B000B22210000F011
:105D30000DFA10BDC55F001110B5034C0B000D220C
:105D4000210000F003FA10BD3760001110B5034CBC
:105D50000B000F22210000F0F9F910BD9160001135
:105D60000A7810B50B0004000220002A04D011228A
:105D70002000024900F0EAF910BDC046A160001100
:105D8000002310B51322190000F0E0F910BD000047
:105D900010B5034C0B001722210000F0D7F910BDFD
:105DA000F3600011002310B51922190000F0CEF99C
:105DB00010BD000010B5034C0B001B22210000F0A9
:105DC000C5F910BD2D610011F7B584890D000600DD
:105DD0000121002C22D000238268D3561778002B93
:105DE0001EDA0C2C1AD90C3CA4B21319408800936B
:105DF000230002F086FE431E984101307B06DB0F34
:105E00006B703F23013C1F40A4B22870AF70AC8080
:105E1000002C07D0B3680133AB6000210800FEBD41
:105E20000020EBE7AC60F8E70B7803704B88437019
:105E30004B881B0A83700B79C370042070470420C1
:105E4000022B06D10020537811781B02009A0B43D5
:105E5000138070470B8803700B881B0A4370022065
:105E600070470420009983420AD1537810781B02AE
:105E700003430B80D37890781B02034300204B80B0
:105E80007047F8B50D004B7801240021461C0370C3
:105E90002B788B4201D82000F8BD6B78B01C4F1CCA
:105EA000012B10D1890069184B88022233704B886E
:105EB000B9001B0A7370691805F052FD04360434EA
:105EC000A4B2F9B2E4E7122359436B185A8804319B
:105ED00032705B8810221B0A7370691805F040FD50
:105EE00012361234ECE770B5049D14001E00052B29
:105EF00001D8042070BD637812781B0213432B80F5
:105F0000E378A2781B02134302226B802A71211DC1
:105F1000681D063E05F024FDB2B22A81E92AE8D8C0
:105F20002800A11D0A3005F01BFD0020E2E7002338
:105F300010B50A789A4201D8900010BD9A008A18CC
:105F40005488013304705488DBB2240A4470948866
:105F500084709288120AC2700430EAE710B511000A
:105F6000029C062B04D004201022142B01D010BD5B
:105F7000022222714B7808781B0203432380CB78DE
:105F800088781B02034363800431601D05F0E8FC40
:105F90000020ECE710B50C788B7804315C43E4B258
:105FA00003702200013005F0DBFC601C10BD0420F2
:105FB000022B06D10020537811781B02009A0B4364
:105FC0001380704710B50C000A88023105F0C8FC38
:105FD000208810BD70B504000D0004981100012B3D
:105FE00001D8042070BD1678527812023243028024
:105FF0000200F13255701470E125002C00D10C35EF
:10600000023B9AB24280AA42EBD80231043005F03A
:10601000A7FC0020E6E70420009983420AD15378C8
:1060200010781B0203430B80D37890781B02034344
:1060300000204B80704710B50C000A88023105F033
:106040008FFC208810BD000070B501211E000420C7
:10605000049C0E400B4218D1CB40DDB28D4214D9C6
:106060000A49DBB2098899420FD32300EE331D7031
:106070003300580011184978165C09023143013386
:106080002152D9B28D42F4D8002070BD0843FF1FC1
:1060900010B50C000A88023105F062FC208810BDA2
:1060A00010B50C788B7804315C43E4B203702200A5
:1060B000013005F055FC601C10BD10B511000298B0
:1060C000032B01D8042010BD14785278043B12022F
:1060D00022430280CA788C781202224342809AB20C
:1060E0008280EB2AEED80431063005F039FC00201E
:1060F000E9E710B50C000B8803700B881B0A43708E
:106100004B8883704B881B0AC3708A880430063121
:1061100005F026FCA088043080B210BD0420012BBD
:1061200003D100201378009A1370704710B50C004B
:106130000B8803700B881B0A43704A8802300431B5
:1061400005F00EFC6088023080B210BDF0B589B059
:1061500003931E4B029242000700D05A019102F0B5
:1061600020F81325061E2DD0029B01240370019BED
:10617000002B04D0001903999847001984B26B468C
:106180001B7A5BB2002B0FDA1021380002F01CFBE7
:106190001925002813D130003219E1B202F066FC53
:1061A000051E0CD10C34A4B2042304AA380005A99E
:1061B00093800696948101F0AFFD051E02D0300059
:1061C00005F086F9280009B0F0BDC0469464FF1FB1
:1061D00070B505000C0000280CD00020814209D0C9
:1061E00010222000044905F0BBFB01202B7823730B
:1061F0006B78637370BDC04688BB0011F0B50600B4
:106200000D0017001C0085B002291BD000201029AA
:1062100007D1022B07D0102B03D115E00020102C42
:1062200008D005B0F0BD69463800FFF7D1FF2A005D
:1062300069460BE069463000FFF7CAFF2200694655
:10624000380004E0022BE9D12A003900300005F0C3
:10625000B7F8E6E7031CF02800D9F023032008492B
:106260009AB2013A0B80D317034006499B189B1042
:106270000B80D30F04499B185B100B807047C046FE
:106280000C43FF1F0A43FF1F0843FF1F034B1B88DC
:106290008B4202D3024B4000C15270470C43FF1F98
:1062A0009464FF1F014B4000185A70479464FF1F0D
:1062B0001722014B1A8070479464FF1F70B50500C8
:1062C0000E2005F0EDF9041E13D0D0230370002337
:1062D0000622837007494570033005F041FB064BE9
:1062E0002100DA8A62811B7E2373044B187805F043
:1062F0001FFB70BDB064FF1FA064FF1F5C43FF1F46
:10630000262803D8024B4000C05A70470148FCE7DA
:106310000E43FF1FFFFF000070B506000C00094D83
:106320001C220021280005F0D3FA074B1E70074BF2
:106330001C7005F06DF90123002801D00023122004
:106340002B7070BDA064FF1F5C43FF1FC164FF1F63
:1063500070B505000D4C0800E260A160102200211C
:10636000656005F0A5F9012803D11021A06802F0AD
:1063700058FD10220021280005F09AF9012803D1C8
:106380001021606802F04DFD70BDC046A064FF1F83
:1063900070B5041E05D1002903D006220D4805F072
:1063A000DFFA0D4B1D78012D11D1002C05D10222F1
:1063B0001A7005F0ADFA280070BD00221A70074B64
:1063C0001B78FF2BF7D02000FFF778FFF3E70025BD
:1063D000F1E7C046B064FF1FA064FF1F5C43FF1FCE
:1063E000030010B5002801D1002010BD00780B4A31
:1063F000002803D15988D1821B7913761378022B98
:10640000F2D10023984200D103331370044B1B7860
:10641000FF2B01D0FFF752FF0120E6E7A064FF1F2A
:106420005C43FF1F002911D000280CD04B790128B4
:1064300003D140225242134303E03F22134003287A
:1064400002D001204B7170474022F4E70800FAE7C0
:1064500070B5094D0100287800280BD0074C0622A2
:10646000200005F07DFA21002878FFF7DBFF2000EF
:1064700005F0EEF970BDC046C064FF1F9A64FF1FAF
:1064800000290AD0012808D13F224B799343C02B21
:1064900003D0403B5A425341981C704770B5174D8A
:1064A00006002B78FF2B15D00A2005F0F9F8041E02
:1064B00010D0D0230370C83B8370114B11491B7857
:1064C0004670C3700622043005F04AFA210028788D
:1064D00005F02EFA0C4B1B78012B0DD10B4B1B68D2
:1064E000002B03D09B68002B00D09847084B042159
:1064F0001878084A05F064F870BDC0465C43FF1F79
:10650000C064FF1F9A64FF1FBC64FF1FE864FF1F85
:10651000EC64FF1F60EA0000014B98687047C046BA
:10652000A064FF1F014BDB6818687047A064FF1F61
:10653000074B10B5DA68136801331360054B187800
:10654000FF2803D08021C90105F0A2F810BDC04684
:10655000A064FF1F5C43FF1FF7B50E0002F0C8F8F0
:10656000051E1CD00E4B06621F78002F00D1077845
:10657000AB791020019305F093F8041E0FD0D023BF
:106580000380C73B8370019BE91DC3700622043062
:1065900005F0E6F921003800E66005F0C9F9F7BD1D
:1065A0005A43FF1F014B18787047C046C064FF1F55
:1065B000054B002805D1054B1A78054B002A00D160
:1065C000014B18007047C046B064FF1FC064FF1F36
:1065D0009A64FF1F014B58687047C046A064FF1FB4
:1065E000024B1868431E9841C0B27047C464FF1F35
:1065F000421E03000120152A03D9FF3B5A42534192
:10660000D8B27047F0B51C0000230E0085B003908F
:1066100002920B70029A934201D3002019E0E55CCC
:106620005A1CD2B2002DF8D0029851198142F4DCE4
:106630000233DFB2A35C18000193FFF7D9FF0028F3
:1066400007D0013D019A0399EBB233708A4202D11F
:10665000E01905B0F0BDDB19DBB2DBE710B50C00CB
:1066600002F09EF803001220002B03D0210058886E
:1066700005F0E6F810BD000070B50E4D84006359BA
:10668000002B15D0186A002801D005F081F82B598D
:10669000586A002801D005F07BF82B59986A002829
:1066A00001D005F075F8285905F072F800232B5138
:1066B00070BDC046D064FF1F1C4B70B504000E00B7
:1066C000150099420AD11A4B1B68002B01D11220E8
:1066D00070BD1B68002BFAD09847F9E7154B99421B
:1066E00015D1134B1B68002B0AD01B68002B07D059
:1066F0009847002804D1104B1C70104B1D70E7E721
:1067000029002000FFF7AAFF0028E1D1F3E70800E5
:1067100001F0EEFF0028DAD003780320A342D7D19E
:106720002900300005F08CF8D2E7C046FEFF0000DB
:10673000CC64FF1FFFFF0000C964FF1FC864FF1F78
:10674000F7B50400808801F0D3FF0025A84203D0EC
:106750000578A08802F008F81C4E3378002B1FD073
:10676000AB421DD11A4B28001978FFF777FF00289C
:1067700018D000233370A3790820A778A688019346
:1067800004F08EFF011E0DD0D0230370CA3B83702E
:10679000019B477086808371280005F0C9F801E0ED
:1067A000002DE8D1A0880B4B8200D358002B01D0DC
:1067B000FFF762FF1721A088FFF768FDA08801F0AE
:1067C00027FDA08801F0FEFDF7BDC046C964FF1F8C
:1067D000C864FF1FD064FF1FF0B587B01D000CAB6D
:1067E0001B88070001930DAB1B88142002930EAB8E
:1067F0001B88160003930FAB1B880091049310AB0A
:106800001B88059304F04CFF041E1AD0D02303709C
:10681000CB3B47708370C670062229000430002DE0
:1068200011D005F09DF8019B21006381029B009827
:10683000A381039BE381049B2382059BA37405F042
:1068400077F807B0F0BD05F043F8ECE7F7B5009333
:1068500008AB1B8807000C200D001600019304F004
:106860001FFF041E13D0280001F042FF00280FD0A4
:106870000078D0232370C93BA370009B21002381A3
:10688000019B6770A580E680638105F051F8F7BD34
:10689000014B1878EDE7C0465C43FF1F13B50400B9
:1068A00064890389C2888188C0780094FFF7CEFF8D
:1068B00013BD000010B5044C2068002803D004F07C
:1068C00067FF0023236010BDD464FF1FA122F0B531
:1068D000818892004A43384B384F1B6804009B184C
:1068E0009D2292009B18827989B01A603B68002B28
:1068F0005FD01D78324B1B68002B04D05B68002BE7
:1069000001D000209847260008363100E079FFF7D3
:10691000B7FD237DE0710200E0780493638A2900CB
:106920000393238A0293E3890193A388009333009E
:10693000FFF752FFE378002B0BD1E289A379A188FE
:1069400002920196E27928000092012201F0DAFE1B
:10695000E0703B68002B20D0FFF7ACFF194D287882
:1069600000281AD0184B1978FFF778FE002814D0A9
:106970002B78E67808200793A78804F091FE011E83
:1069800009D0D0230370CA3B46708370878086711C
:10699000079804F0CDFF00232B701721A088FFF784
:1069A00075FCA08801F034FCA08801F00BFD09B053
:1069B000F0BD064B9DE7C0463409FF1FD464FF1F9E
:1069C000E864FF1FC964FF1FC864FF1F5C43FF1F0B
:1069D000F8B5070008000E0001F08AFE041E18D06A
:1069E0002620FFF78DFC051E00D12578062004F037
:1069F00057FE041E0DD00021062204F069FFD023AB
:106A00002370C23B21006770A370A680E8B204F037
:106A10008FFFF8BDF0B585B001930AAB1B78070076
:106A200002930BAB1B7808000D000092039301F05A
:106A30005FFE061E22D0102004F032FE041E1DD080
:106A40001022002104F044FF2620FFF759FC002803
:106A500000D13078D0232370C13BA370009B21006C
:106A60002372019B67706372029BA580A372039BD4
:106A7000C0B2E3720C9BE36004F05AFF05B0F0BDB6
:106A8000F7B50D00019001F033FE071E20D00E2057
:106A900004F006FE041E1BD02620FFF731FC061E64
:106AA00000D13E78D0232380C53B0622A370F91D78
:106AB000E01C04F055FF019B2A0063810123DD40A7
:106AC0001A401D40210022736573F0B204F030FFBC
:106AD000F7BD0000F0B585B0029010000D00170062
:106AE0000A9E039301F004FE041E31D0029B002B8A
:106AF0002ED1039B02795B0724D512231343042272
:106B0000002E08D10B99002905D10C99002902D13A
:106B10000D9900291AD01A430D9B2271002B00D029
:106B2000C9E0002E00D1CFE0002D00D0CCE0606A9B
:106B3000002801D004F02CFE1C21300004F020FFBE
:106B4000606205E002239A430E33D7E79343237133
:106B5000654BBA00D458002C00D1AAE0002E10D00A
:106B6000236A002B03D11C2004F00AFE20625E4B36
:106B7000BA00D358186A002803D01C22310004F050
:106B8000EFFE0C9B002B12D0574CBB001D596B6ABB
:106B9000002B03D1162004F0F3FD6862BB00E3581C
:106BA000586A002803D016220C9904F0D9FE0D9BD8
:106BB000002B11D04C4DBC006659B36A002B03D199
:106BC000142004F0DDFDB0622B59986A002803D030
:106BD00014220D9904F0C4FE380001F089FD051E51
:106BE00067D0414BBA00D358002B62D01A6A3420C8
:106BF000002A00D11C389A6A002A01D0143080B2D1
:106C00000B9A002A01D01C3080B25B6A002B01D0A5
:106C1000163080B204F044FD041E4AD01822002130
:106C200004F056FE2620FFF76BFB0190002801D1EF
:106C30002B780193D0232370029B200063700A23DA
:106C4000294EA370039BBD00A371AB59A780196A9D
:106C50001830002905D01C22A06004F081FE20001D
:106C600034307359996A002907D003001422143371
:106C7000E060029304F074FE02980B9B002B08D096
:106C800003001C221C330B992061029304F068FE60
:106C900002987359596A002903D01622606104F0E2
:106CA0005FFE6B462100187904F042FE3800FFF7C2
:106CB000E3FC05B0F0BD10220D9B0D991B69A018D7
:106CC000236204F04DFE2CE70B9B002B00D13FE725
:106CD000012D00D03CE7606A002801D004F058FD87
:106CE0001C210B982AE7C046D064FF1F10B5044C46
:106CF0002068002803D004F04BFD0023236010BD62
:106D0000C464FF1F0B4B07B51A68002A01D100208D
:106D10000EBD6946531C012012780731FFF772FC43
:106D20000028F4D002780123100018401A42EED057
:106D3000EEE7C046E064FF1FF0B51F4F01203B683F
:106D400087B0002B25D09B78059300F0B3FB00287B
:106D500021D00A20FFF7D4FA04000B20FFF7D0FA65
:106D6000164B05001E78731E9E413B68F6B2191D36
:106D7000D878FFF757FB3B682900DA7A043303928F
:106D80009A7901930292009033002000059A04F052
:106D900077FD07B0F0BDFFF7B5FF002805D006204E
:106DA000FFF7AEFA04000720D8E70820FFF7A8FA9B
:106DB00004000920D2E7C046C464FF1FC064FF1F5F
:106DC00070B50A4E040033780D00FF2B0DD004205F
:106DD00004F066FC011E08D0D0230370CE3B457042
:106DE0008370C470307804F0A3FD70BD6C43FF1F46
:106DF00070B5040006200D0004F052FC011E0AD0FC
:106E0000D0230370CD3B8370054B44701B68858095
:106E1000187804F08DFD002C01D0FFF767FF70BDDE
:106E2000C464FF1FF8B5264F06003B680D0011240F
:106E3000002B05D10522234B1B78134202D11224CB
:106E40002000F8BD204A10241268002AF8D01278D9
:106E5000002AF5D0DB0719D52B789A1E012A1AD8FB
:106E60000C2004F08DFC132438600028E8D00023A7
:106E70000A22437029000670023004F071FDFFF70A
:106E80005BFF041E0AD0FFF731FFD9E700F012FBC9
:106E90000028E1D1E4E7002BE2D0D0E70B4B1B78D0
:106EA000032BCDD11D20FFF72BFA094B18800028AA
:106EB000C6D0084B04211878074A04F081FBBFE7CD
:106EC000C464FF1FC164FF1FE064FF1FC064FF1F95
:106ED000BE64FF1FEC64FF1F60EA0000F7B501937A
:106EE000194B14001A78052306000F0012201A42CD
:106EF00021D0012920D1154B1D68002D1BD0022067
:106F00001F2C18D8002C02D0019B002B13D0104B43
:106F10001F221E706E1C0021300004F0D9FC019964
:106F20002200300004F01CFD310020002C70002FE6
:106F300006D004F055FAFEBD064B12201D68DCE7B2
:106F400004F0FEFAF7E7C046C164FF1FE064FF1FCC
:106F50006C43FF1FDC64FF1FF8B50F4E122433682B
:106F6000002B17D01B780F3C834213D100250B4F09
:106F70000221387804F0D4FB094B042138781D80B5
:106F800004F0CEFB074B28001D8033685C7004F0D2
:106F90003FFA04002000F8BDC464FF1FEC64FF1F2B
:106FA000D864FF1FBE64FF1F70B5012823D11B4C9E
:106FB0002388002B03D01A4A1578002D07D0194BCF
:106FC0001B68002B02D01878FFF7C6FF70BD3B2B63
:106FD00002D93C3B2380F9E7134E0221307804F0BC
:106FE0009FFBFA222388920002215A43307804F052
:106FF00077FA2580EAE70B4B1B68002BE6D00B4B9A
:107000001B785B07E2D5084B0221187804F088FB57
:107010000022024B1A80FFF769FED7E7D864FF1FF2
:10702000BC64FF1FC464FF1FEC64FF1FC164FF1F2B
:10703000F8B51E4D2868002803D004F0A9FB0023F2
:107040002B601B4E3068002803D004F0A1FB002306
:107050003360184F05243B7818002040234221D08C
:10706000154800F02BFA3B78234213D0202004F07F
:1070700087FB2860002813D02022002104F028FC80
:10708000202004F07DFB041E306005D0202200216A
:1070900004F01EFC002004E0286804F079FB2C605A
:1070A0001320F8BD00F00AFAF4E7C046E064FF1FC1
:1070B000DC64FF1FC164FF1F6043FF1F10B50A4C53
:1070C00023681A1E0ED0002808D10130587004F031
:1070D0009FF9002805D02368002B02D00021FFF77C
:1070E00087FE0122100010BDC464FF1FF7B5274EB4
:1070F000050033680191181E21D05C78244F012CC3
:1071000030D1FFF7FFFD002825D02000FFF7F8F869
:107110000400412814D91F4B022118781E4A04F09C
:107120004FFA1E4B3C3C1C80022233685A703B785D
:10713000002B14D128000199FFF75AFE0120FEBD53
:10714000FA2292004243002AEED0124B0221187814
:1071500004F0C6F9E8E7FFF7D3F80200F3E70023ED
:107160003B70EBE73B78002BE8D1032004F098FA62
:10717000011E08D0D0230370CC3B45708370336868
:10718000187804F0D5FBFFF7B1FDD7E7C464FF1F03
:10719000BC64FF1FEC64FF1F60EA0000D864FF1F9F
:1071A00010B51749838802008B4220D011D81549A9
:1071B0008B4217D0144900205B1899B2012907D8D7
:1071C000926811785A425341D8B2FFF7F9FD012075
:1071D00010BD0E4A00209B1807229BB29A424041E4
:1071E000C0B2F5E783681878FFF768FFF0E78368B7
:1071F00099785A78090218781143FFF777FFE7E783
:107200000A20000006200000F8DFFFFFAFDFFFFFCD
:10721000014B18707047C0466D43FF1F10B5064CF8
:10722000207001F041FA207804F0C2FA052120789C
:1072300000F062FD10BDC046EC64FF1F0BB273B5D9
:107240000D00002B00DBC4E0884B187804F0D8FA5E
:10725000041E0ED00378912B0FD0A22B00D1A1E0F9
:10726000834B1878FF2852D0210004F061FB0028DE
:107270004DD180200002684076BD43780F2B76D038
:1072800013D8052B70D00E2BEAD18088794B984209
:107290002BD8794B98421BD8784B9842E0D1A36801
:1072A0001878591CFFF774F838E03E2BD8D1837852
:1072B000032B74D06CD8012B6ED0022BD0D1704B25
:1072C0001B68002B23D05B68002B20D098471EE062
:1072D0006C4BC0180C28C3D804F0A2F91DC2C2150B
:1072E0000BC20B0B0B3223C23C00674BC0180728A4
:1072F000B6D8664B1B68002B09D01B68002B06D044
:10730000200098470AE0A3681878FFF7C7F8200024
:1073100004F01EF9ADE7A068FFF762F800289FD0DF
:10732000F5E7A3681B78002BF1D0554B1B68002BA9
:10733000EDD01B68002BEAD0210055489847EDE7B7
:107340004F4B1B68002BE2D01B68002BDFD02100C5
:107350005048F3E7504B1B68002BD8D05B68002BDC
:10736000D5D021004348E9E7FFF7EAF9CFE7808865
:107370004A4B984203D04A4B984200D070E7464BA4
:107380001B68002BC3D05B68002BC0D02100D5E761
:10739000153B012BBBD963E7FFF798FAB7E7FFF777
:1073A0007DFAB4E73F4B1B78042B07D100236A46D4
:1073B00013800179408800F0C5FCA8E7364B1B68B4
:1073C000002BA4D05B68002BA1D001003648984761
:1073D0009DE7012421420AD0294B1B68002B04D0D1
:1073E0005B68002B01D000209847012043E78B0702
:1073F0000AD5264B1B68002B04D05B68002B01D0FC
:1074000020009847022036E70421280008400D425A
:1074100000D131E7254E3388002B21D0013B9BB2B0
:107420003380002B1AD1FFF7DBF800280AD0204B5D
:107430001C70164B1B68002B04D05B68002B01D01E
:1074400020009847FFF7C6F8694601F001FD68463D
:10745000FEF7FEFF1D20FEF753FF308004200AE7F1
:10746000024B187804F05CF9F8E7C046EC64FF1FA3
:107470006D43FF1F0E2000000120000009100000D6
:10748000E464FF1FFEDFFFFFAFDFFFFFE864FF1FC5
:107490000C2000000B200000CC64FF1F0D2000001A
:1074A00013200000C164FF1FFFFF0000BE64FF1F28
:1074B000BC64FF1F10B501F09BF910BD014B1860B3
:1074C0007047C046E864FF1F0B880020162B01D8C8
:1074D00017230420014A13807047C0469664FF1F9B
:1074E00000207047074A03001188814207D0918825
:1074F0000020994202D1013080001018704700200E
:10750000FAE7C046F464FF1FF0B58F7806000D005F
:10751000C5B01E2F15D1FFF7E5FF051E03D10024CE
:10752000200045B0F0BD00223B003100C078009241
:1075300000F0B2FB0400A81C00F0D2FBFF23EB70AC
:10754000EEE7264B062403931B78FF2BE8D0182F79
:10755000E6D87B08224A013BDB0002929A58944607
:10756000002ADDD0029AD3185B68002BD8D00878A7
:10757000002802D14B78012B02D10624122FCFD143
:1075800007AFAB88697800976446AA68A047041ED5
:10759000C6D1AB78029A5B08013BDB00D3183900F7
:1075A00030005B689847041E0BD1AB78042BB6D033
:1075B000039A310010782200009700F06DFB040060
:1075C000AEE76A78002AABD1AA7805A93B88087192
:1075D00030000A704B80FEF747FBA0E77043FF1FA7
:1075E00098BB00111D4B37B5050098420BD0002900
:1075F0000AD1FFF777FF002805D11948FFF772FF7E
:10760000002800D0058037BD01291AD1FFF76AFF95
:10761000041EF8D001235B420380A378FF2BF2D035
:10762000FE2B07D00023E0781422009329001E339C
:1076300000F032FBA01C00F053FB01235B4263808F
:10764000E1E70229DFD1013901F0BEF80028DAD1E3
:107650002800FFF747FF041EDFD1D4E7FEFF00003C
:10766000FFFF0000022210B5074B52421A80074864
:1076700001325A809A80DA8000F07EFA044801F0E4
:1076800025F8002010BDC046F464FF1F09750011E5
:10769000E57500110388F7B50400002B02D102251F
:1076A0002800FEBD42680221137825485268FEF783
:1076B000A5FD00282ED0234F01253A88002AEFD0BF
:1076C000802321885B0201259B1A9942E8DC0C206B
:1076D00004F056F8061E31D03B8822889C460023D1
:1076E0001800019561469DB2491989B2AA421BD87A
:1076F000002801D062443A8000233000082208C0EC
:10770000210004F02DF9104A1368002B13D1002535
:107710001660C5E76268022113780C485268FEF7CC
:107720006DFD0028C7D1BAE760681D01401941818D
:1077300001330198D6E71A001B68E6E71325AFE787
:1077400006BC00116E43FF1FF064FF1F04BC001154
:10775000014B18707047C0467043FF1F14230A0086
:1077600010B51A40194204D00122102101F048F846
:1077700010BD4B06F9D4012088434000F8E710B54E
:1077800014008B0604D50122102101F039F810BD38
:1077900008230A001A40194202D14BB2002B0FDA1B
:1077A000102101F02DF8002808D02300F2331B78B7
:1077B000002BECD0F1342378012BE8D10020E6E750
:1077C00003208907FAD4E2E7F0B51F00184B85B013
:1077D0001C68019002910392002C27D1200005B073
:1077E000F0BDA5683301ED186B89019A934211D35E
:1077F000029A93420ED8002F04D10A9B002B10D17D
:107800002C00EBE73B002978039A6868FEF7F6FC4A
:107810000028F2D10136B6B2A388B342E1D8246879
:10782000DAE7A3680A9A5B891380E9E70026F3E7A1
:10783000F064FF1F37B50C000A8849880123914284
:1078400017D3002A15D0651D23792A0002210A4882
:10785000FEF7D4FC102300280BD023796188208800
:1078600000242A000094FFF7AFFF0A23A04200D0B3
:10787000230018003EBDC04606BC001113B50A0027
:1078800008884988012388420BD8002809D00024A1
:10789000137905320094FFF797FF0A23A04200D026
:1078A0002300180016BD13B50A0008884988012373
:1078B00088420BD8002809D000241379053200949F
:1078C000FFF782FF0A23A04200D02300180016BD54
:1078D000F0B58BB003904A8808880E0001238242DD
:1078E00055D3002853D00023012704AC2370002275
:1078F000718813000092FFF767FF051E3ED02078C5
:10790000002835D12B78022B18D167706A89830043
:107910000130E31880005A8069680222201804F0C0
:107920001FF823780133DBB22370042B19D93B00F5
:107930006889013080B2002BD9D01FE00223637028
:10794000122358436A89231804305A806968102228
:10795000201804F005F823780133DBB22370002BE4
:10796000E5D10C4A6B899B185A425341DBB2DFE7E1
:107970006378012BE4D12B78022BC7D022780A231D
:10798000002A04D021000398FEF798F9002318007C
:107990000BB0F0BD0100FFFF0F4BF0B504001868FD
:1079A000002816D083685D89A54207D88288AE1862
:1079B000B44203DA12019A18934201D10068EFE74A
:1079C0001E005F891036A74204D1002900D00D8027
:1079D0001800F0BD3300EFE7F064FF1F70B505003D
:1079E0000C0008880021FFF7D7FF03000120002BBF
:1079F00004D022002800197AFFF7C1FE70BDF7B548
:107A00000C00002501902300EE331B78AB4201D817
:107A100000200AE06B00E65A00213000E718FFF76B
:107A2000BBFF002802D126800130FEBD017A0198FB
:107A3000FFF794FE002802D03B882380F5E701354C
:107A4000EDB2E0E710B5040008880021FFF7A4FFBD
:107A500003000120002B03D02000197AFFF77EFEDF
:107A600010BD0000054B1B68002B01D1180004E07D
:107A70009A6852898242F6D198887047F064FF1F55
:107A8000F0B50E27002687B0039302ABFF183E80A7
:107A900005001F4B40891400984207D02B78013015
:107AA00000976A6880B2FFF78FFE060002212B78EC
:107AB00018486A68FEF7A2FB00280FD06C892000E6
:107AC000FFF7D0FF002802D0013C0419A4B2039BA9
:107AD000002B00D01C80300007B0F0BD02212B78B5
:107AE0000D486A68FEF78AFB0028E7D102212B784F
:107AF0000A486A68FEF782FB002807D0002EDED015
:107B00003B88A342DBD17489013CDFE76C89DEE767
:107B1000FFFF000006BC001104BC001102BC0011F4
:107B200010B50C00FFF7DEFC03000220002B0AD08A
:107B3000002C00D023609B781720FE2B03D0013847
:107B4000FF2B00D1002010BD73B50D0001A904006A
:107B50001600FFF7E5FF172805D0002E04D12900F5
:107B60002000FEF727F976BD01221021200000F049
:107B700047FE0028F3D0F6E7014B18607047C04677
:107B80000065FF1F37B56B469D1D010004000222F2
:107B9000280003F015FF2B88B02B0ED12379122B70
:107BA00009D12300FA331B78012B06D1012160880B
:107BB00000F0E0F801E01B2BF8D037BD10B5054B05
:107BC0000421187000F098F8FFF74CFDFEF770FBE9
:107BD00010BDC0460465FF1F0020F0B50BB20F00BA
:107BE00087B0834234DA274B187803F009FE051E6C
:107BF0002BD00378A02B25D103AE3100FEF7E4F89B
:107C0000041E0BD1B378DB0724D51F4B06341B6849
:107C1000002B03D03100688898470400A86800282A
:107C200001D003F055FC002C08D1184A039B1340E7
:107C3000174A934206D0B3781B2B03D001216888E2
:107C400000F098F8280003F083FC802000027840C0
:107C500007B0F0BD0F4B1B68002B10D031006888B7
:107C60009847041EDAD07378002BD7D1B27801A9D7
:107C70000A704B800C716888FDF7F6FFCEE706248A
:107C8000F1E7C0460465FF1FFC64FF1F00FFFF0013
:107C9000000112000065FF1FF7B50190FC200D00E8
:107CA00017001E0003F0FCFC04001320002C12D06F
:107CB000B02320002370089BF42267706580267132
:107CC0000830002B08D0190003F04AFE210001986B
:107CD00003F02EFE0020FEBD089903F0F9FDF5E744
:107CE00010B5041E06D00078FD2803D803F0D8FD97
:107CF000FF23237010BD00000A1F93B210B50400CB
:107D00000220032B05D882400020024BD1529B1841
:107D10009C7010BD2465FF1F0B8870B5043B0400E8
:107D20000D000220032B0BD80121200000F04CFD98
:107D300003001420002B03D02900200000F0DEFBFC
:107D400070BD000007B51300034A00920A0001212C
:107D500000F02CFC0EBDC046817F001107B50192DA
:107D600003220092024B0A00122100F049FC0EBDD2
:107D7000FF7F001107B56B4601AA11800449D88026
:107D800008780633012802D1190003F0F9FB07BD7A
:107D90000565FF1F0C4B10B518700023FF210B4A1F
:107DA0001380138193819380094A53801370517219
:107DB00093819372D174D3821375517703F0C8FD08
:107DC00000F0FCF910BDC0463465FF1F2465FF1F9D
:107DD0000665FF1FF0B58DB06B46002003910C22A5
:107DE0009B5E834200DBB0E05D4B187803F008FD3A
:107DF000051E00D1A4E00378902B00D09DE006AFD3
:107E000001004688380000F013FA79680400002960
:107E100000D19CE03B88052B6ED13B89032B1CD9FC
:107E200005AC200000F0A2F86288172A61D83989D1
:107E3000131D994231D17968237804310291D90711
:107E400038D5607800F08EF9071E06D00023037144
:107E50002378012B08D0132B23D0A868002800D149
:107E600078E003F035FB75E06288029909A800F01C
:107E7000A6F80290380000F08BF909AA2378387A26
:107E80000192002231000092029A00F012F93800AB
:107E900000F064F9029B002BDFD0300000F080F985
:107EA000DBE70378032BD8D16288029909A800F098
:107EB000D6F8DEE7122B13D1029909A800F0B5F825
:107EC000021EEAD127498B88002BC6D0887909A9E0
:107ED0002378019161780091310000F0EAF8BCE765
:107EE000002302AA93833000617809AAFFF72AFFD2
:107EF000B3E71D4B0993F6E7042B02D09A1F012A22
:107F0000ABD8184A043B9B00995A0029A5D0D21837
:107F1000907831003A0000F0AEF800289DD13B88FF
:107F2000042B03D001213000FFF724FF012C04D1E2
:107F3000A868002801D003F0CBFA280003F008FB62
:107F40008020039B0002434018000DB0F0BD0128C3
:107F500000D182E701213000FFF70CFFEDE7C046BA
:107F60003465FF1F2465FF1F010017000B780370A5
:107F70004B784370CB788A781B0213434380704759
:107F80000A88030002700A88120A42700A88012ACD
:107F900006D14A8882704A88120AC270042070474B
:107FA00002208242FBD14A8804309A704A88120A21
:107FB000DA708A881A718A88120A5A71EFE710B546
:107FC0000400012082420CD94B780A781B0213432B
:107FD0002380834206D1CB788A781B0213436380C7
:107FE000002010BD022BFBD1CB788A781B021343F3
:107FF00063804B790A791B021343A380F0E70B8857
:1080000003700B881B0A43704B8883704B881B0AD4
:10801000C3708B8803718B881B0A4371CB88837173
:10802000CB881B0AC3710820704703000120082A6F
:1080300014D14A780878120202431A80CA788878E4
:10804000120202435A804A790879120202439A8046
:10805000CA798879120202430020DA80704710B58D
:1080600004000120022A05D100204B780A781B0267
:108070001343238010BDF8B5060010200F00150033
:1080800003F00EFB04000120002C0ED0A0230C22D4
:10809000290023806780201D002D07D003F060FC9D
:1080A0002100300003F044FC0020F8BD03F010FC78
:1080B000F6E7F7B51E00009008AB142017001D78F6
:1080C000019103F0EDFA041E12D0A2230370019B6C
:1080D00047704380099B057146710C220830002BC4
:1080E00007D0190003F03CFC2100009803F020FCAD
:1080F000F7BD099903F0ECFBF6E737B5041E0FD086
:108100004388002B0CD00025C1881323007A172246
:1081100001950095FFF7CDFFFF2365806372257001
:1081200037BD000010B50C4904004A88002A09D068
:108130008B89002B05D00020CB8A0222834201D0FC
:1081400010BD012213000A20434300204032C854CE
:10815000C81842800472F3E70665FF1F00234380BE
:1081600003707047094B00211A0010B55C88002C81
:1081700006D01C79844203D10A234B43D01810BD8A
:1081800001310A330329F1D10020F8E70665FF1F0A
:1081900010B50400407A03F083FBFF23637210BD27
:1081A0007047043010B580B203F01AFB002803D0EA
:1081B0000421494203F004FB10BD000070B5002506
:1081C000104CA0682580A581A580A84202D003F0AC
:1081D0007FF9A56000250C4C0C4B606D1D802300C1
:1081E00058331D70A84202D003F072F9656500256E
:1081F0006068002801D003F06BF9013508340A2DBE
:10820000F6D170BDCC65FF1F7065FF1FC065FF1FF5
:1082100070B5041E09D1054D2880A881A880A868E2
:10822000002802D003F054F9AC6070BDCC65FF1F8C
:10823000F0B54B8885B00193002343600A790500AF
:108240000F00022A00D07BE0CA88032A17D98B6866
:108250005E7819783602DC78D8790E4399781B7AE3
:1082600024021B020C43034353495BBA0B80331DAA
:1082700093421ED1042C04D0631F022B0ED901207F
:1082800015E0019A4D4B1201D35A002B06D00198EC
:10829000FFF7BEFF4A4A1369013313610421B8682E
:1082A0002E812C80494203F08BFA6860002005B0D3
:1082B000F0BD434D042C06D0631F022B0FD9EB6891
:1082C0000133EB60DBE7019A3C4B1201D35A002BE0
:1082D00005D00198FFF79CFF2B6901332B61374BC9
:1082E00030000293019B029A1B0101930023019924
:1082F0008C468B52130063449C8003939E81FFF74E
:1083000050FF039B041E986016D00421B8684942B0
:1083100003F056FAFA880100043A200003F020FB2B
:108320000199029AFB888A5A043B9B18029A8B5245
:108330002B6801332B60A2E7AB690133AB619EE789
:108340001E4B0293019B1E01029BF35A002B2DD062
:1083500002998C19A068002828D0012A26D1FA8811
:108360009B189BB27352A189994217D39B1AC018CC
:10837000B96803F0F5FA029BA289F35A934200D040
:108380007DE700222B81A3882B80A3686B60029B72
:10839000F2520B4A53680133536070E7084A9368FE
:1083A000013393600198FFF733FF68E7044A53698C
:1083B00001335361F6E7C0463665FF1FCC65FF1FEA
:1083C0003C65FF1F70B5051E15D10B4C0B4B18807B
:1083D000230058331870606D002802D003F078F83D
:1083E0006565250050356068002801D003F070F8FD
:1083F0000834AC42F7D170BD7065FF1FC065FF1F28
:10840000F0B51700A12285B0920001934243394B89
:1084100006001B680C009B18D933FF331D78FDF74D
:1084200041FF0430854204DD3000FDF73BFF04309E
:10843000C5B2BD4207D33A0000213000019B03F0D2
:10844000A7FA05B0F0BD2900380003F031FA230087
:10845000C6B250331E700393019B29006365380038
:1084600003F04EF9CBB20293002B02D0039B0136EE
:108470001E7000262300503303931B78B34204D8A8
:10848000606D002831D10020DBE7029A2800002A25
:1084900004D0013B1000B34200D02800F700E719D8
:1084A000387003F065F9786000280ED03A780199A9
:1084B00003F056FA019A3B780136D3180E4A01931D
:1084C000D369F6B20133D361D4E7039B18706065BA
:1084D000A74205D1084A1320D36A0133D362B0E71B
:1084E000606802F0F5FF0834F2E702F0F1FF0023C4
:1084F0006365C8E73409FF1F3C65FF1FF7B50D0032
:1085000007000421686803F05BF92B8904000370FD
:108510002B891B0A43702B8883702B881B0AC3701E
:108520002E8902250436F6B2F42E15D81B4B9F4235
:1085300014D10C2003F0B4F81135011E0CD0902397
:1085400003708E3B0371043B4380154B8460C680EF
:10855000187803F0EDF900252800FEBD5C237B436D
:10856000104AD3180093583301931B78002B0FD176
:108570000300320038000099FFF742FF019B05001D
:108580001B78002BE8D13800009903F059F8E3E795
:10859000054A0725536A01335362DDE7FEFF0000F9
:1085A0003465FF1F7065FF1F3C65FF1FF0B587B086
:1085B000009017200F0016000193FFF7F2FD13251E
:1085C000041E19D00C98031E02D00199201D984753
:1085D000030AE370052302AAA0700430908127707B
:1085E0000098667003A993800494FFF787FF051E27
:1085F00002D0200002F06CFF280007B0F0BD0000A0
:10860000F0B587B01F000CAB1B78039105930121D7
:108610000DAB06001C78049200F0D6F81425002853
:1086200021D02000FFF77EFD0135041E1BD011492B
:10863000059B0A7803700132D2B2131EC68001D1A5
:1086400001231A000B7022713000049B03990097DC
:10865000FFF7ACFF051E09D1230021000648074A99
:10866000093302F0BDFF280007B0F0BD002363808E
:108670002370F8E73865FF1FFB800011307500009C
:10868000F8B505000E00064C064F2368002B02D0FB
:108690003100280098470434BC42F6D1F8BDC046EA
:1086A000DC65FF1FF065FF1F0123064A5B42538014
:1086B000002313715362044A136053609360D360C4
:1086C00013617047F065FF1FDC65FF1F0200002388
:1086D00010B506499C000859002801D1625010BD10
:1086E0000133052BF6D11320F9E7C046DC65FF1FE7
:1086F000034A5388181A4342584140421040704779
:10870000F065FF1FF0B585B002930AAB1F780CAB84
:108710001B88009008000E0001920393FFF7E8FF0A
:1087200005001120002D1BD10E48FFF7E1FF0400CA
:108730001520002C14D006220B99A771E01D03F020
:108740000FF9019B30002371029B29006371009B8C
:1087500066802370039B6562E381FFF791FF280029
:1087600005B0F0BDFFFF000010B5FFF7C1FF04002A
:108770000220002C12D060880121FFF781FF606A7F
:10878000002801D003F004F828220021200003F083
:108790009FF8012300205B426380207110BD000020
:1087A00030B5074A074C5588010013780020A542D0
:1087B00004D05B1A59424B415842104030BDC0466C
:1087C000F065FF1FFFFF0000084A10B501230C00F1
:1087D000904208D0FFF78CFF031E04D0037923409A
:1087E0005A1E9341DBB2180010BDC046FEFF0000C8
:1087F000024B1879431E9841C0B27047F065FF1FC5
:1088000070B504000D001600FFF772FF002804D1B8
:108810000D4B9C4200D0143070BD416A0379052095
:10882000002907D012221A40102A02D10520002E5A
:10883000F2D10F20DB06EFD5897E0C20A9428941B9
:10884000494249420840E7E7FEFF0000030010B537
:10885000002800D110BD0348034A41889142F9D055
:108860009847F7E7F065FF1FFFFF0000002330B5D2
:10887000C45CCD5C6C40D4540133102BF8D130BDB6
:108880000F23002210B5C45C64002243CA54C25CAA
:10889000D209013BF7D210BD0200010010B5203211
:1088A000103102F02DFE10BDF0B58BB003901020FA
:1088B00005931700049102F063FF0090102002F06E
:1088C0005FFF009B13240190002B05D000280CD1E2
:1088D0001324009802F05CFF019B002B02D01800CB
:1088E00002F056FF20000BB0F0BD102002F048FF50
:1088F0000600102002F044FF13240500002E00D1D2
:10890000AEE0002819D01022002102F0E1FF320071
:108910002900039802F0F4FD041E0ED133787F2B5A
:1089200051D830000099FFF7ABFF009B1B787F2BDD
:1089300053D801990098FFF7A3FF300002F028FFF9
:10894000002D02D0280002F023FF002CC1D11020FE
:1089500002F016FF0600102002F012FF0290002E17
:108960007CD0002878D03A000F3223000125121164
:1089700005D00F333B4015B25A4253411BB26A1E19
:108980001201002B33D0049BD2B298180099029A9E
:10899000FFF76CFF013D10220021300002F098FF2C
:1089A000ADB2049F2D017D19AF4242D0002C33D0CF
:1089B000300002F0EDFE029B002B00D189E7180089
:1089C00002F0E6FE85E729003000FFF759FF280096
:1089D0002549009AFFF74AFFA7E729000098FFF70B
:1089E0004FFF28002049019AFFF740FFA5E70F211C
:1089F0000F4004998A18D9B28F4208D9D15C06A8D1
:108A000019540133102BF6D1029A0199C0E7791A53
:108A100048424141C901F2E73900300006AAFFF798
:108A200025FF3200039806A902F06AFD1037040002
:108A3000BAE7002CBCD13000029906AAFFF716FF56
:108A4000320006A9039802F05BFD08220400310001
:108A5000059802F085FFABE71324A9E71324AAE7E2
:108A6000002800D06EE733E70CBC0011F0B58BB0E6
:108A70000F0016000225009000283FD0002A3DD0AC
:108A80000B1DDBB21800029302F07AFE1135041EB2
:108A900034D0FDF747FD05003A000099201D02F093
:108AA0005FFEEBB20393E3702B0CDBB22F0A009353
:108AB0006370FFB22B0E2370A7700193FDF72CFD9E
:108AC0001022010006A802F04BFE2100029A04AB1E
:108AD00006A8FFF7E9FE051E0DD1039B082233709F
