:020000041100E9
:10300000002310B5294C0120636101F0F3F9402041
:103010000223FE21264A207401F072FA002835D1DD
:103020000223FF21234A207C01F06AFA00282DD1D7
:10303000214BA2899A4226D1E389204A93420ED19C
:103040001F4B204963612368002B05D1002903D061
:103050000C22200008F09CFD01F040FA10BD1A4A35
:10306000934201D00021EEE7184B194A1B689342A6
:1030700005D9C0220421207C920001F0BBFA104B3C
:1030800014496361DFE700232374EBE7CC22382087
:10309000AC219201207401F0ADFA0028F3D10E4B5F
:1030A0000E4963610E4BE381CDE7C0468863FF1F85
:1030B0009463FF1F9663FF1F5959000083050000AA
:1030C00059420011A4BC001182150000CC63FF1FFF
:1030D00087130000B0BC0011F542001198BC00112C
:1030E000AAAAFFFFF7B5164B0192C318021D0020D4
:1030F000009388235B05D3181B685C1C1AD09CB214
:10310000402C18D88D781E0CAC466746CD782D0221
:103110003D43AE4206D1019800280ED110000C703C
:10312000240A4C7003249BB20733A343D218009B9C
:103130009A42DED3FEBD4432F9E71000FAE7C046FA
:10314000FC0F0000802213B503000324019189B213
:10315000520107319B18A14304305A1A88235B059A
:10316000C3181B68591C03D190429241104016BDF0
:1031700099B2402907D80B000733A343C0189042E7
:10318000ECD30020F3E74430F9E7134B134A1B68F4
:10319000126810B5FA24934201D81A00F824104B93
:1031A000E4021B689A4210D813000E4A12689A4231
:1031B0000ED3013307D1F823DB029C4203D10A4925
:1031C000054808F06DFA200010BDFC24E402ECE78D
:1031D000FE24E402F7E7C04600C0071100D0071143
:1031E00000E0071100F00711FFFFFF7FF0B59BB073
:1031F000150004900391402A00D9A0E006AB598045
:103200001A80FFF7C2FF0400042816D9002206A97D
:10321000FFF768FF052810D906AB1B88AB420CD11D
:10322000002D07D0514B2A000499C01808F010FC5B
:10323000002802D101201BB0F0BD06AB1D8020008C
:103240000699FFF77FFF041E7BD1069B0793FFF7CC
:103250009CFF80235B01C618802307001B039E424E
:1032600001D3F826F60288235B05F31801931B6847
:10327000013302D0019808F07BFC3D49019808F029
:103280000FFA3B1D0293331D05938822029B5205C2
:103290009B181B6808935A1C3CD044219AB2009199
:1032A000402A04D80320D11D814389B2009103999B
:1032B0001B0C8B4224D0402A22D80122300008A9BE
:1032C000FFF710FF021E1BD1380008A9FFF70AFF05
:1032D0000400042831D9009A059B9B1880225201D2
:1032E000B218934240D288235B05C118009A09A8FE
:1032F00008F0D6FB1D4B009A09A9F01808F020FA37
:10330000009A029B9446634402931A4B029AFB185C
:103310009A42BAD388235B05FC18216801980139C9
:1033200008F0BEF9200008F023FC039A07AB5A808E
:1033300030000799FFF706FF0400002C03D100209E
:1033400079E70428FBD988235B05E018069908F083
:10335000A7F90323EA1C9A4300D16BE7034B0499B6
:10336000E01808F0EDF965E70424ECE7040000112B
:10337000FFFFFF7FF80F0000F7B505001400402A9B
:1033800021D8002701AE71803780FFF7FEFE0428A8
:1033900016D93A003100FFF7A5FE042810D9368867
:1033A000BC420BD0BD4209D0221CB44200D9321C11
:1033B000064B92B2C118280008F072FB30B2FEBD75
:1033C000C04300B2FBE703204042F8E704000011CD
:1033D00037B5042204000D0001A81649FFF7CCFF01
:1033E000020004280BD1019BA34208D3AB4204D0B6
:1033F000104901A80195FFF7F9FE01203EBD0E4CD2
:1034000023682000019308F0B3FB019920000139E3
:10341000019108F045F980235B01E418074B9C42B9
:10342000EED10422034901A80195FFF7DFFE002039
:10343000E4E7C0465555000000C007110000081120
:1034400030B589B008F014F910226946254808F013
:103450006FFA254B009A9A420ED1019B029A0F2BCC
:1034600033D8002101240698013B08D2002900D05E
:103470000292029B013331D10023029325E0551CB7
:10348000F2D102002100EFE710341022200004A93D
:1034900008F04EFA029B013301D1069B0293882368
:1034A00004995B05C918059B06981A03120B049131
:1034B0000592814203D02B4201D108F069FB019BA8
:1034C000013B0193019B002BDED1029B002B03D01B
:1034D000049304984168084709B030BDE025014CC9
:1034E0002D03EFE70000011150485936F7B50F4999
:1034F0000F4B0A6804001A4084235B0013430B60DF
:10350000030003271033019300252E00112008F03B
:10351000D7F9084B1B683B40AB4002351E43202DBA
:10352000F4D1019B40C4A342EED1F7BD5CF0004052
:1035300000FEFEFF64F00040802270B5AD4CAE4B43
:10354000D200002120001C6008F09AF82300AB4A4A
:1035500088331A60AA4B1A786E23002A00D01133E0
:10356000E3620A232365A74B1878A74BA0630138B1
:10357000E361C3B2032B01D810232362A34B37228C
:103580006361C823DB00A36123008C331A60082326
:1035900036210F3AE518E16323646264E967043970
:1035A000251DE96725003B26BC352E602500C0356A
:1035B0002B602500C4352A6025000636CC352E60E8
:1035C0002500083EC8352E602500D0352960210031
:1035D000D4310B602100D8310A6021000225E0318E
:1035E0000D6025004221DC35296025001B3EE435B5
:1035F0002E602500E8352B602500EC352A6022007E
:103600000525F43215602200F032116022001831D5
:103610009032116022009432136023003C229833D0
:103620001A60AF23DB002360794B2363032805D89E
:1036300008F0F6F93302353715236360962321002D
:10364000FA225B00A360E360C8332361714BFC3155
:103650009200A3640A6062626F4A704DA262732294
:10366000E2656D3A6265A2650232E5644A60022154
:10367000616696218900A166626709210022E166E0
:10368000A2676749674A684E2167E2673560032889
:1036900011D808F0C5F996089EA61023CDE70E2391
:1036A000CBE70C23C9E720001A259C3005602000D9
:1036B0000735A03005602000A83003602300FA2001
:1036C000F8338000186023006420A43318602300BE
:1036D0005F38AC33186023000338B0331860230020
:1036E000C630B433186023000020B83318602300BC
:1036F0003825FC339D604D4D5A665D644C4D9A648F
:10370000DD619625AD001D624A4D9A675D62F53D0B
:10371000FF3D9D621E25484ADD6618675867D965DA
:103720001966DA67BE23C021444A5B00E250444B6D
:103730004900635004316250C4225200A350FA235E
:10374000E4205B000432A3500432A3503D493E4ABA
:103750003E4BD1603E49800019503E49E938FF3860
:1037600019503D49043019503C491038D1613C4949
:1037700011633C4951633C4911603C49195019009F
:103780003B48F83108603B49D16582213A4A8900BB
:103790005A501A0039490832D1671A003849B432F0
:1037A00011608821374A89005A501A0036498832F8
:1037B0001160364ADA6408F01BF8012008F038F886
:1037C00070BD200014259C30056020000435A03019
:1037D00070E7200010259C30056020000335A030E4
:1037E00068E720000E259C30056020000235A030DF
:1037F00060E7C0460004FF1F6466FF1F5071FF1F93
:103800001C46FF1F4A0AFF1F3A07000080C3C90178
:103810009A02000050C300006A180000280A000045
:10382000204E000088130000F009FF1F0040001127
:1038300068100000C4090000DC05000040420F00D1
:1038400010270000FD1BFF1FFC00FF1F0000FF1FD3
:10385000252FFF1F4D32FF1FE530FF1FD91FFF1F10
:10386000F51FFF1FA121FF1F491FFF1FC528FF1FB5
:103870008D2CFF1FD918FF1FD127FF1F3925FF1FD0
:103880004525FF1F491EFF1F011FFF1FC11DFF1FF1
:10389000F7B50B0CFF270122009300233C001E000C
:1038A0001D009446019089B262469A40100008407B
:1038B00018413618B6B2FF2F02D1012E00D19FB2A7
:1038C000009802401A41AD18ADB2FF2C02D1012D73
:1038D00000D19CB20133102BE6D10320012E07D179
:1038E000012D04D1019B2401E4191C700138FEBD97
:1038F000102EFCD10238102DF9D00230F7E710B5A8
:10390000064C2378002B07D10548FFF7EFFD05484B
:10391000FFF7ECFD0123237010BDC0462566FF1F95
:103920003866FF1F2866FF1FF0B58BB00D0001231E
:103930000190102936D8FFF7E2FF00231A001B4838
:10394000C15C01335218102BFAD1023B002A29D056
:10395000174B184C1F68002306A9E25C1600FA5C9E
:1039600056405E540133102BF7D102AA07F010FE27
:103970002A0002A9019808F00BF907F041FE23681C
:103980001B18236007F03CFE63681B18636007F098
:1039900037FEA3681B18A36007F032FEE3681B180C
:1039A000E360002318000BB0F0BDC0463866FF1F6F
:1039B000BC44FF1F2866FF1F0223F0B50124594EA7
:1039C000594D3370594B2C705B6B8FB01B68552B66
:1039D00010D0082006F060FB00280BD00023210047
:1039E00000930420524A07F033FF8023DB059C62DA
:1039F000FFF726FD002006F0E7FD08F049F8FFF785
:103A00009BFD07F08DFE1F2201240021494B0EAFC4
:103A10001A70494B1C70494B1970494B19689143F6
:103A2000163A0A431A60602219689143403A0A43E1
:103A30001A6007F095FF07F0F3FEC120FF21414B0C
:103A400080001A588A431A50C52292009858884319
:103A5000BF390143995098583B4908408021C9011A
:103A60000143802099509958C0050902090A014371
:103A7000995080213548490107F05AFE032322005E
:103A8000334901940093334808F01AF82C22324944
:103A900003A808F005F803AC61782078023406F03A
:103AA00021FBBC42F8D10121002006F035FC2B4B54
:103AB0002B4A196803201140A022D2020A431A603F
:103AC0008022196892040A431A601968254A114035
:103AD000802292030A431A60234B244A934200D85F
:103AE000012008F015F807F0ABFD07F0E9FD30788C
:103AF00007F0F6FD2878C0B207F03AFD07F050FD58
:103B00000B49042007F03CFE06F02AFD00F0A2F865
:103B100000F0CAFD00F04EFE00F00CFA00200FB0DD
:103B2000F0BDC0464A0AFF1F1C46FF1F00F00040C0
:103B30003B000108480AFF1F490AFF1F680AFF1FD0
:103B4000BCF0004000E100E0FF00FFFF2046FF1F47
:103B5000A458FF1F2056FF1FC0BB001114F00040E7
:103B6000FF7FF8FFFFFF9FFF5071FF1F0080FF1FC7
:103B700070B500252849294A29484D6308CA1B0504
:103B80001B0DED188242F9D10022264B8B63264B88
:103B900008211A628022254B9205DA67244BDA68E5
:103BA0008A43DA60234A1278012A03D09A682249AC
:103BB0000A409A600121EE242048E40002686C4328
:103BC0008A430260DA6811208A43DA6007F0F0FF66
:103BD000112007F0DDFE112007F012FF184A200C1B
:103BE0000400642390420AD8FA220023D2009042B3
:103BF00005D9144B0A21C01807F0EAFEC3B2124AD5
:103C00001372124BD4801B78002B04D1104B10215F
:103C1000187807F06DFE70BD00000540880505406E
:103C200000060540FF01000000F0004004E100E054
:103C30003CF000404A0AFF1FFFDFFFFF0038004052
:103C4000B70B000030F8FFFFA063FF1FD865FF1F10
:103C5000C863FF1F002210B51100112007F060FF9C
:103C600010BD0000F8B5002301250826394F3A4C55
:103C70003B62E3681120AB43E360E368B343E36076
:103C800007F086FE112007F093FF112007F028FEB1
:103C90004023226829001343236080236268DB02EB
:103CA000134380226360A36807201343A360A368C3
:103CB0002A4A1340A3608023A2689B011343102269
:103CC000A360236C93432364236C2B4323648023DE
:103CD0005B003B62226B224B1A402263626B1A40EC
:103CE0006263A26B1A40A263E26B1340E3631D4A56
:103CF000E3681340E36006F0DFFA2900072006F0CE
:103D00000BFB8021184A1120536C0B43536407F0BE
:103D10004FFEFD21154B164A89005A508023C720BB
:103D2000626B5B0313436363E36880003343E360C8
:103D3000E368104A1D43104BE5601958114080227A
:103D400012020A431A50802292051A600B4B5E63DE
:103D5000F8BDC04600F000403CF00040FFFFDFFF30
:103D6000EFFFEFFFFFFF7FFF003800400000FF1F65
:103D7000713B0011FF00FFFF00E100E00000054083
:103D800030B503A804880B20002C0ED14968074DDC
:103D900008784978090201430A20A94205D1012186
:103DA00020001980024B1B7A137030BD192A0000C5
:103DB000A063FF1FF7B5150008AA16884A680F4FC1
:103DC00014785278120222430A24BA4214D10122F2
:103DD000DBB2019200962A0007F012FB041E0BD101
:103DE000074B1B68002B07D068782A780002104325
:103DF00042425041013098472000FEBD0229000098
:103E00002463FF1F30B5012503790400BFB02B42A6
:103E100012D00A49408806F05FFE28420CD06A465C
:103E2000074B69465B8D55801380064B60881B7A73
:103E30001371002203F016FF3FB030BD1C63FF1F5B
:103E40006042FF1FA063FF1F10B50549054806F03B
:103E5000F9FD0421044A054806F0B6FD10BDC04630
:103E60001C63FF1FFFFF0000ECBB00116042FF1F3F
:103E700010B5024804F078FD10BDC046053E0011A3
:103E8000062310B5837010330371443B43712A330A
:103E900083714433C37100230222012103720E4B4C
:103EA000027041701C8881724472197A0273C17267
:103EB0009A784273DA7882730322C2731A79027491
:103EC0005A7942740C2282749A79C274DB79037530
:103ED0001123C370152010BDA063FF1F10B514205F
:103EE00007F0F6FB124B14220021186007F080FD4A
:103EF000002007F0EDFC012007F022FD022007F072
:103F0000F7FB032003F0D4FF042005F0E9FF0520B0
:103F100003F012FA062003F0DFFE072001F0A4F8F8
:103F2000082006F031FD092000F07EFE10BDC046DD
:103F30002863FF1F10B507F0E3FD012007F050FCD8
:103F400007F006FD002010BD094B10B50400984293
:103F500005D0012904D12000064906F073FD10BDEB
:103F60000229FCD1013904F0BDFC0028F3D0F6E7AA
:103F7000FEFF00004E63FF1F70B50D7A100004AA0B
:103F80002C00168810221440154220D1002E20D17A
:103F90000A78022A18D14A68517815780E4A09021F
:103FA0002943914205D00D4A914209D01C800A2430
:103FB00004E014220A491A8007F0EAFD200070BDCF
:103FC0000C2208491A80F7E71C800124F6E7082430
:103FD000F4E70B24F2E7C046F3FF0000F4FF000013
:103FE000A044FF1FC8BC001110B5040007490848D1
:103FF00006F028FD074804F0F7FB0020E40704D58D
:104000000721054A054806F0DFFC10BD4E63FF1F7F
:10401000FFFF0000493F001130BC0011A442FF1F08
:1040200000B50C4BBFB01A780B4901A800F0F6FBA5
:104030006B4680B25880002809D06A46074B694613
:104040001B881380064B0022188803F00BFE3FB03C
:1040500000BDC0462C63FF1F2D63FF1FFE42FF1FE4
:10406000FE43FF1F00B50C4BBFB01A780B4901A8E7
:1040700001F03AFD6B4680B25880002809D06A46AC
:10408000074B69465B8D1380064B0022188803F0AE
:10409000E9FD3FB000BDC0465663FF1F5763FF1FD9
:1040A000A442FF1FFE43FF1FF7B50E00377A1C0026
:1040B00008AB11003D001A8820231D401F423CD14F
:1040C0003378022B3BD173681F785B781B023B432C
:1040D0001E4FBB4208D01E4FBB4214D01D4DAB42F9
:1040E00021D00A252800FEBD002A2AD1142C2AD866
:1040F0002200F06807F04CFD174B1C70012CF1D921
:10410000FFF7B0FFEEE7002A1BD1202C1BD82200BE
:10411000F06807F03DFD114B04211C70104B18781E
:1041200007F0E6FBDEE7E3B20124009201940A0007
:10413000310007F065F90500D4E70825D2E701252D
:10414000D0E70B25CEE70D25CCE7C046F3FF0000F6
:10415000F4FF0000022900005663FF1F2C63FF1FBD
:10416000C863FF1F70B5160004AA148805AA157845
:104170004A685078117800022A4A084380180528B6
:104180004BD807F04DFC03131E29343F0720032CA6
:104190000BD80422121BAA4200D92A0022491A80F5
:1041A0003000091907F0F4FC002070BD0720112C25
:1041B000FBD81222121BAA4200D92A001B491A80DE
:1041C000EEE707200E2CF0D80F22121BAA4200D9CE
:1041D0002A0017491A80E3E70720032CE5D80422B8
:1041E000121BAA4200D92A0012491A80D8E70720D8
:1041F000032CDAD80422121BAA4200D92A000E4945
:104200001A80CDE70720032CCFD80422121BAA4224
:1042100000D92A0009491A80C2E700220A201A8020
:10422000C3E7C046DCD5FFFF7BBC00117463FF1FF2
:104230006BBC001166BC001161BC00115CBC0011BC
:1042400010B50D21024A034806F0BEFB10BDC04662
:1042500050BC00111443FF1F37B5002000F0CAF80E
:10426000204D214BEA89287C9A422AD1042201A9B7
:1042700000F074F9040000F031F9002C30D16B46E5
:1042800099882B68C9BA4B432989184A1B145B18B3
:1042900053806B46D9886B6849BA89B24B436989A8
:1042A0001B0C5B181248191C1BB2834200DD011C59
:1042B0000B0400D500211388918001331380200066
:1042C0003EBD0223002101AA00F01AF96A4604004B
:1042D00002230121287C063200F012F90443CAE7C8
:1042E0000124ECE78863FF1F83050000A063FF1F24
:1042F0000F27000037B5012000F07CF81E4D072283
:104300006946287C00F02AF9041E31D16B461B78DF
:104310007F2B2DD800F0E2F86B46D878F02302040A
:104320001B031A406B469B8814495BBA9BB21A4325
:104330002B68000953432A891B0C9B184B806B4642
:104340005A789B7812031B011A436B68024353434C
:104350006A891B0C9B181AB21B0402D58C802000A2
:104360003EBD074B9A4201DC8A80F8E78B80F6E776
:1043700000F0B4F80124F2E78863FF1FA063FF1F79
:104380000F27000010B50F4C237C002B0CD0382BCE
:104390000BD1012000F02EF8CC22AC21207C920120
:1043A00000F028F900F09AF810BD074BE2899A4214
:1043B000FAD1012000F01EF80021207C00F0FAF86C
:1043C000F0E7C0468863FF1F8305000010B5084B67
:1043D0001A7C002A09D05B69002B06D09847041E7E
:1043E00001D0FEF70DFE200010BD0124F9E7C04604
:1043F0008863FF1F70B500210600162005F0C8FF76
:104400000121152005F0C4FF07F01AFA0400092065
:1044100007F066FA00222B4B2B4DDA6661321A60E8
:1044200019685B3A9143002E28D0023A0A431A6079
:10443000AC4209D10A22DA6107321A6200221A63F9
:104440009A630132DA6370BD204A944203D11E227E
:10445000DA610532F1E71E4A944203D13022DA6173
:104460000632EAE71B4A944203D14322DA6108325A
:10447000E3E7194A9442E1D16922F7E702220A43AD
:104480001A604622AC4203D0104A944204D19422CE
:104490005A6106329A61D1E70D4A944201D1E6226F
:1044A000F6E70C4A944204D13422FF325A610D32AD
:1044B000F0E7094A9442C1D1E62252005A610A3219
:1044C000E8E7C046005000400024F4000048E8013E
:1044D000006CDC020090D00300D8B80510B50024B1
:1044E000064B0920DC6607F053FA2100162005F080
:1044F000E3FE2100152005F0DFFE10BD0050004056
:10450000F8B51C000023134D0F00EB666860160021
:1045100007F0AEF801238022EB6623002F615200E2
:10452000013B08D207F05CF808200B4A1168002C08
:1045300003D12000F8BD2A61F2E72B6F034203D0BC
:104540002B69013C3370013613685B1A032BEED9DB
:104550000124EEE7005000406008FF1F002370B503
:10456000124D1400EB6668600E0007F081F801231D
:104570008022EB6623005200013B08D207F030F89E
:1045800008200B4A1168002C03D1200070BD2A615D
:10459000F2E72B6F034203D02B69013C33700136E5
:1045A00013685B1A032BEED90124EEE7005000409C
:1045B0006008FF1F002370B50C4C0D00E3666060BF
:1045C00007F056F80123E366256107F009F880201B
:1045D000074A80001168636B034205D113685B1AB8
:1045E000032BF8D9012070BD0020FCE700500040EB
:1045F0006008FF1F002370B5134C0E00E366606077
:10460000150007F035F80123E36626610F33626B6E
:104610001A42FCD02B0A23611023626B1A42FCD091
:10462000EDB2256106F0DCFF8020084A80001168A9
:10463000636B034205D113685B1A032BF8D9012081
:1046400070BD0020FCE7C046005000406008FF1F1E
:10465000002370B5124D0C00EB666860160007F081
:1046600007F80123A619EB660F33B4420ED106F00A
:10467000B7FF80200B4A800011686B6B03420CD19E
:1046800013685B1A032BF8D9012070BD22782A61C8
:104690006A6B1A42FCD00134E7E70020F5E7C04618
:1046A000005000406008FF1F10B5084CE368002B65
:1046B00006D1074B1B680A336360064B1B682360F7
:1046C00007F016FA0002000AA06010BDB863FF1FD1
:1046D000C8F00040CCF0004010B50D4B986A9A6AC3
:1046E0008242FBD10B4A516894684118091B4B1E4A
:1046F000844200D30B0011689060D80B5B04401813
:104700005B0C10605360044A1360044B186010BDCA
:1047100000F00040B863FF1FC8F00040CCF000403C
:1047200010B51B4B1A793F2A01D93F221A7119790A
:10473000184A1948117018221849028018480A802E
:1047400002804A809A791748802402800C208A804F
:10475000013242432401101CA24200D9201C124AFB
:10476000C88010805A79002A01D101325A711A7A10
:10477000012A01D802221A725A791B7A0B48534334
:104780000A21584307F024F9094C206010BDC046A7
:10479000AC63FF1F480AFF1FFC43FF1FC845FF1FF4
:1047A000FA43FF1FA465FF1FF843FF1F71020000BB
:1047B000CC63FF1F10B508210020FEF709FE124C44
:1047C000002807D10C222000104907F0E1F9FFF77B
:1047D000A7FF10BD0C2220000D49FEF7CDFD0C28CF
:1047E00004D00C222000094907F0D2F9094C0C2210
:1047F00020000949FEF7C0FD0C28E8D00C2200215A
:10480000200007F0F5F8E2E7AC63FF1FBCBC001125
:10481000FC0C00008863FF1FF50C0000F0B50400DD
:1048200000200E00150085B082426ED0B7787278F5
:104830003F021743F2780B7812043A43377901317B
:104840003F061743039723706070262B00D179E051
:1048500010D8072B06D8180007F0E2F8513434348A
:10486000347D8B84232B00D1B4E0252B53D0FF2340
:1048700063708DE0712B00D182E01DD8562B46D09D
:10488000602B00D192E0552BF1D16A1E784D0C2A95
:104890003FD8002A09D0280007F07AF9FFF740FF37
:1048A0000C2228007349FEF7A1FC0C222900601C91
:1048B00007F06EF90D2028E0722B00D16AE0DC2BA6
:1048C00000D198E0DB2B00D0B0E0042DCFD9CB3B5A
:1048D0000193052D06D06B1F1A003800711D01933E
:1048E00007F056F905223100200007F051F9390090
:1048F000019A601D07F04CF90198053005E00C2283
:1049000020005D4907F044F90C2005B0F0BD5B497B
:10491000574D0C22BFE76A1E594D0C2A10D8002AA9
:1049200007D0280007F034F90C2228005549FEF77B
:104930005DFC13222900601C07F02AF91420E4E72B
:104940000C22EEE74E4D01001322280007F050F82C
:10495000FEF756FBEDE705224B49601C07F018F9FE
:104960000620D2E712224949601C07F011F91320F2
:10497000CBE708224649601C07F00AF90920C4E782
:104980007178F72900D972E7424B188801F00CFDC5
:104990000220BAE700F054FB012D03D03E4B7278A1
:1049A0005B6B1A6006F0D4FD0020AEE76A1E3B4D3B
:1049B000062A0DD8002A04D0280007F0E9F800F0F4
:1049C00079FF06222900601C07F0E2F807209CE727
:1049D0000622F1E7042D04D9314D2F6007F088F845
:1049E000A860FFF779FE0422039003A9601C07F07A
:1049F000CFF8052089E7022D00D838E77378BFB2D9
:104A00006370B378A370032D05D0033D3900AAB2BB
:104A1000F01CFEF7EBFB10223900E01CFEF7ACFCAB
:104A200003000330002B00DB6FE721E7DA2B00D017
:104A30001DE7042D00D81AE7082D16D9B37972792D
:104A40001B021343F27912041A43337A1B061343F1
:104A500003933B603B68052231002000039307F07D
:104A600097F80422601D03A986E7FE236370F1E72F
:104A7000AC63FF1FFC0C0000C8BC0011BCBC0011E3
:104A80008863FF1FF50C00009463FF1F7463FF1F12
:104A90003C45FF1FFE43FF1F00F000409944FF1FED
:104AA000B863FF1F70477047013870B5042809D8F4
:104AB00006F0B6FF0309250812001B4B02211878E7
:104AC00006F016FF70BD184B0821187806F078FF25
:104AD0000022164B1A72F5E70024144B124D0821E0
:104AE0001A6828781C8106F063FE2100287807F0F8
:104AF00037F8012000F016FE00F0DCFEE2E70A4B7A
:104B00000821187806F05CFF0948FFF7B9F9094B4E
:104B1000094A9B7900209380084A13808022034B26
:104B200052001A81E6E7C046C863FF1FCC63FF1F2F
:104B30000744FF1FAC63FF1FC845FF1FA465FF1F8D
:104B4000020010B5094B0A32094C92B2DA815A823E
:104B500098811882207802F08DFA0422054B0121F9
:104B600020781A7006F0C4FE10BDC046C644FF1F70
:104B70000666FF1F0566FF1F10B5012909D1054B09
:104B80001B78002B05D02622034B04485A72FFF7EE
:104B9000D7FF10BDD865FF1FCC63FF1FC4090000FD
:104BA0000300F0B50A4D8E18B14202D152008018B0
:104BB000F0BD0C782F6824093C5D0F271C700C7821
:104BC00001313C402F683C5D5C700233ECE7C0462D
:104BD000F443FF1F10B5114B1A781870002A0ED03D
:104BE00000280BD10E4B1A78062A07D85423D3403D
:104BF000DB0703D50B4B187802F03CFA10BD0028F8
:104C0000FCD0074B1B78012B02D0033B022BF5D8BD
:104C1000044B0121187806F06BFEEFE7D865FF1F03
:104C20000566FF1F0666FF1FF7B5624D624A6349BE
:104C30002870082005F072FC0121022005F06CFBB1
:104C4000022005F055FC0121002005F065FB002045
:104C500005F04EFC00F0ECFEFEF7D2F906F068FC21
:104C6000032257495748FFF79BFF2D2403000422D6
:104C70001C7055490130FFF793FF30230222047066
:104C800043708370514C524B2000DA8706F058FC79
:104C9000022815D0062220004E49FEF76DFB06289B
:104CA0000ED00321200006F063FD8D23E3706E3BE0
:104CB000237106221933200046496371FEF796FAE4
:104CC0000D23454F454C464E3B70013B04223000BE
:104CD00044492370033B6370019606F059FF2D236E
:104CE000012241494148A371FFF75AFF012240497F
:104CF000FFF756FF01223549FFF752FF0020FFF76B
:104D000069FF3C4E3C4A01213C4B1278307802F05E
:104D100073F9230000213A78307802F06DF901220E
:104D20002178374B01391A700020019AC9B205F079
:104D300069FD344B5A6B1268552A31D100225B6BE6
:104D400031481A60314B3C325A72FFF7F9FE20218C
:104D5000287806F0EDFE0120404205F09FFD01207D
:104D6000404205F03BFEFFF76BFAFFF76DF800F0ED
:104D70008DFC01204042FFF737F9012006F0D0FBFF
:104D8000F72001F0F5FA0121287806F0B1FD287826
:104D900002F0CCFA1E4806F07BFDFEF763FFF7BD7C
:104DA000FA210B4B1B4A49019981DA8119825A82F7
:104DB000CDE7C046C863FF1FA54A0011794B00111B
:104DC0003C45FF1F7463FF1F9463FF1F6509FF1FAE
:104DD000C644FF1FADAC0000D465FF1FB565FF1FC3
:104DE000B765FF1F7BBC00116709FF1FBC65FF1F74
:104DF0006609FF1F0666FF1F2644FF1F0744FF1FAB
:104E0000A665FF1F00F00040C4090000CC63FF1F2F
:104E1000D863FF1F4A1F0000F8B50A0020230D00C9
:104E20001A4019423ED0464B1B78002B37D0FFF773
:104E300053FC444C444E6368727AC31A934202D3C3
:104E40006060FEF70FFF327A217A531EDBB299427F
:104E500005D1FFF797FA002000F0D2FD0FE0914254
:104E6000F9D300232372FFF7B1FA012000F0C8FD47
:104E7000364F3800FFF704F8390006F019FE637A60
:104E8000002B09D0013BDBB26372002B04D1707997
:104E900064335843FFF754FE237A013323722020F2
:104EA0006840F8BD0BB2002B0ADA294B187806F0DF
:104EB000CFFB002801D006F053FB80200002EFE773
:104EC0000224214206D01F4B01201A72FFF782FEF6
:104ED0002000E5E70B0716D5FFF7FEFB194A1A4934
:104EE0005368497AC31A8B4202D35060FEF7BAFE68
:104EF000FFF76CFAFFF746FA012000F081FD00F0A1
:104F0000DFFB0820CCE71024214206D00C4B1B7895
:104F1000002BDDD1FEF7ACFFDAE70124214207D0F8
:104F20000C4800F065F806F05BFD00F0EBFCCFE705
:104F30000424080020402142B3D0FFF771F8C7E7EE
:104F4000D865FF1FCC63FF1FAC63FF1F0744FF1F23
:104F5000C863FF1FEC43FF1FF0B51B4B1B4F1B88A3
:104F60003A8804001A4E1B4D85B09A420DD83288FB
:104F70009A420AD3184B1A882B889A4205D1174AAD
:104F8000174B12881B889A421BD0052001F046FA65
:104F90003B8802AA13803388019053802B88114DDF
:104FA00093800F4B02A91B88D3800F4B2A78188857
:104FB00002F062FF0D4B08212878019A1C7006F060
:104FC00007FB05B0F0BDC046A265FF1FFC43FF1FF5
:104FD000FA43FF1FA465FF1FA065FF1F9E65FF1F0B
:104FE000F843FF1F0666FF1FFE43FF1F9C65FF1F60
:104FF00013B50C4B1C78002C11D1002801D00A4BA2
:1050000018600A4A0A4B11780A4A10780A4A019233
:105010000A4A0092002205F0EDFA200016BD112484
:10502000FBE7C0460566FF1F9865FF1F0466FF1F6C
:10503000F465FF1F0666FF1FE065FF1FE465FF1FA5
:1050400010B5064B12201B78052B06D1044B1322FA
:105050001988044B187801F0BDFB10BD0566FF1FD1
:10506000FE43FF1F0666FF1F10B500240122114BEF
:1050700052421870104B1C70104B1A8002F056F9F7
:1050800004220F4B21001A700E480C3206F0B0FCBF
:10509000102221000C4806F0ABFC07220B4B1C60D1
:1050A0000B4B1C700B4B1C700B4B1A700B4B1C707A
:1050B00010BDC0460666FF1F0566FF1FFE43FF1FAB
:1050C0000466FF1FF465FF1FE465FF1FE065FF1F17
:1050D000B465FF1FB365FF1F0044FF1FB265FF1FCC
:1050E000F8B5174C0600257806A814240078052D7D
:1050F00023D1B41F134FA5B21824BD421DD88D1F54
:10510000ADB2BD4219D8FA256D00AA4215D21D00D4
:105110000D4F0A3DADB2BD420FD80C4C26800C4C51
:1051200021800C4900240A800B4A1380FFF714FFEA
:105130000A4B0421187806F043FC2000F8BDC04655
:105140000566FF1F790C0000750C0000FC43FF1F73
:10515000FA43FF1FA465FF1FF843FF1F0666FF1FEA
:10516000F0B50BB20D0089B0002B00DB76E1A64E46
:10517000307806F06DFA041E55D00378A22B00D1CA
:1051800027E1D02B1AD0912B4AD143780E2B47D14F
:105190009E4B82889A4243D19D4A83681278052AA1
:1051A0003ED1032018567F283AD09A4B1B68002B1B
:1051B00036D05B68002B33D0984731E080780728E1
:1051C0002ED806F02DFC042D1D444479ADDD637806
:1051D000002B11D10622E11C8F4806F0D9FC0121D9
:1051E0008B4B19708D4B1A78002A5BD08C4B307822
:1051F00001F002FF002855D00722854B1A7051E0BC
:1052000061780029F8D1E378002B11D0854A864BCC
:105210001278307801F0F0FE60706378002BEBD1EB
:10522000200006F09DF980200002684009B0F0BD22
:10523000774B1B78022BF3D00121307806F0C8FAA7
:105240000028EAD10121307806F052FBE5E76378C7
:10525000002BD1D16E4F032807D13B78052B02D10B
:1052600001333B701EE00223FBE7704B1A88704B42
:105270000293002A0BD01B78002B03D00121307839
:1052800006F0A6F93B78062B04D1013BE9E7029B27
:105290001A70F7E7042B41D10121029B3078197075
:1052A00006F026FB5B4B1B68002BB9D01B68002B5C
:1052B000B6D0574A10787FE76378554F002B27D137
:1052C0000622211D5B4806F063FC62895A4B5B494C
:1052D0001A80A2895A4B1A80E3890B800521397004
:1052E00058490A80584A1380228A584B1A80584BD2
:1052F0001B78012B09D11F2001F090F8FA229200AF
:1053000042430421307806F063F90022484B75E7E8
:10531000312B00D070E70022454B1A700323A0E721
:1053200006220021434806F063FB0023454A04217E
:105330001380454A30781380444A138006F040FBBE
:105340000821307806F03CFBA379083B5A425341D0
:105350002F4A03331370314B1B78002B06D0344B8C
:1053600030781A78002A06D001F084FE0122324BF0
:1053700052421A8096E70121197006F0B9FAF5E752
:105380000821307806F01CFB6378002B00D047E73B
:105390002C4B2E4F0293E388029A042113802A4B50
:1053A000307803932389039A138063893B8006F046
:1053B0000FFA002800D033E7264B1B68002B00D1E2
:1053C0002EE7039902983A88098800881B68984755
:1053D00026E74379132B00D022E70389012B0AD15A
:1053E0001D4B1B78022B06D10821307806F0E8FA15
:1053F000FFF726FE14E7052001F010F8082102004F
:10540000307806F0E5F80BE70666FF1F051400008C
:105410000566FF1F9865FF1FD965FF1F2644FF1F04
:105420000744FF1FD465FF1FB565FF1FD665FF1F2B
:10543000D865FF1FA765FF1FFE43FF1FAE65FF1F57
:10544000B065FF1FA265FF1FA065FF1F9E65FF1FC0
:10545000A665FF1F9465FF1F9C65FF1F8020C0018C
:10546000014200D0E1E6CB0731D5324B1B78002B4F
:105470001DD0314E05AC3378052B1AD1023B237079
:105480002E4B21001B7823722D4B1B7863722D4B02
:10549000187801F055FD002809D007202A4B3070FC
:1054A0001B68002B03D01B68002B00D098470120FD
:1054B000BBE60E20254B06221B7825492370254B81
:1054C0001B78637002ABC01806F062FBD8E70223BA
:1054D00008001840194209D0174B1B78052B03D13F
:1054E0001D4B188806F0A4F802209EE604242142F1
:1054F00003D0FFF731FD200097E60823080018408D
:10550000194200D192E6154B1C78012C03D0022CD5
:105510000DD0082089E6124B124A134913481B8804
:105520001288098800880094FFF7DAFDF1E7FFF799
:1055300087FDEEE7D865FF1F0566FF1F0044FF1FCC
:10554000B265FF1F0666FF1F9865FF1FB465FF1F4A
:105550000144FF1FB365FF1FFE43FF1F9C65FF1F34
:10556000F843FF1FA465FF1FFA43FF1FFC43FF1F03
:1055700010B502A804880B20002C10D149680878C7
:105580004978090201430C48814209D1022119805E
:105590000A4B59881170DB7800205BB2537010BD44
:1055A000074C0A20A142FAD102211980034B9988A5
:1055B00011705B79F0E7C0466E2A0000A063FF1F00
:1055C0006F2A0000F7B5150008AA16884A680F4F21
:1055D00014785278120222430A24BA4214D10122CA
:1055E000DBB2019200962A0005F00AFF041E0BD1DF
:1055F000074B1B68002B07D068782A7800021043FD
:1056000042425041013098472000FEBD022900006F
:105610001866FF1F30B5012503790400BFB02B4287
:1056200027D01549408805F057FA28420DD06A4620
:10563000124B69465B8D138002235380104B5B88AD
:1056400093806088002202F00DFB0E49608805F00F
:1056500043FAC0070DD56A460B4B69461B88138079
:1056600002235380064B9B8893806088002202F0BF
:10567000F9FA3FB030BDC0461066FF1F2844FF1F37
:10568000A063FF1F0866FF1F8244FF1F10B5074C71
:105690000749200005F0D6F92000064905F0D2F9A7
:1056A0000721054A054805F08FF910BDFFFF0000EE
:1056B0001066FF1F0866FF1F48BD00112844FF1F2A
:1056C00010B5024803F050F910BDC0461556001140
:1056D00070B55F25082607498400CA788B78400199
:1056E0002A40B3433440A843234302438B70CA701B
:1056F00070BDC0469944FF1F010043B204205A0008
:1057000002409B000C3003401A43152310B5044C93
:10571000E0789843143B0B4018430243E27010BDFD
:105720009944FF1F10B5054B082419790A00A243BC
:10573000002801D022000A431A7110BD9944FF1FAE
:1057400010B5054B4024D9780A00A243002801D0A7
:1057500022000A43DA7010BD9944FF1F0821F8B5F2
:10576000324D334BAE7804000E40AE70984204DDEB
:1057700067232B70473B6B70F8BD2E4B984203DAC2
:10578000E0232B703A3BF6E700232B706B7083B25B
:105790001A0029485F3292B2284F82422CD9002C3D
:1057A00003DA5B421CB204232B70053420B20A21B9
:1057B00006F00EF904B2FA239B009C4232DB082368
:1057C0002A7813432B706421200006F001F90A2186
:1057D00000B205F0DDFF09B22A787B5C13432B7021
:1057E0000A21200006F0F4F80A2100B205F0D0FFEB
:1057F00009B27B5C6A780AE06970002CDBDA5B42F4
:105800001CB204232B70F3226B78092CE8DC1343C1
:105810006B700A21200005F0BBFF09B27B5C1E43C0
:10582000AE70A9E7632CCEDCEDE7C0469944FF1FBC
:105830001B4E00001DFCFFFF2A0800006FBD001179
:105840000823F7B5194FCD003E7904001E403E7184
:10585000EDB2632806DD5F3333433B7120231D43E4
:105860007D71F7BD0300093305DA20235B42334322
:105870003B71A623F3E70E4B019300280BDA0423B8
:10588000444224B23B710A21200005F081FF019BB4
:1058900009B25B5CE3E70928F5DD0A2106F098F818
:1058A000019B00B21B5C1E433E71ECE79944FF1F55
:1058B0006FBD001170B50F4B1B78002B18D00E4E2A
:1058C0000E4D06223100280006F0C2F800280FD045
:1058D000062231000A4C280006F0E2F80120FEF70B
:1058E00089FD072221003E20FEF7B2FEFEF7F6FDFD
:1058F00070BDC0462466FF1F9944FF1F1E66FF1F30
:105900001D66FF1F10B50820FFF728FFA622024BD7
:105910001A70FFF7CFFF10BD9944FF1FF8B51C4B5D
:105920003C21186806F03CF83C21040006F080F8A1
:1059300020000F003C2106F033F8182106F078F81B
:1059400000230E00134C0A212370300006F028F8C3
:10595000114D0A212B5C3000637006F069F840227B
:105960006B5C2679A370E37838001340E37008235A
:105970000A211E4006F014F82B5C0A211E43380051
:10598000267106F055F86B5C6371FFF793FFF8BD65
:10599000B863FF1F9944FF1F6FBD001110B5164C6F
:1059A0000A210223E05E06F013F800B2FFF7D6FEEC
:1059B0000423E05E642106F00BF8012100B2FFF73A
:1059C0003FFF237A0024132220009A426041C0B294
:1059D000FFF7B6FE0320FFF77BFE2000FFF78CFEEB
:1059E000064B1878053843425841C0B2FFF79AFE7B
:1059F000FFF760FF10BDC046A063FF1F0566FF1FD5
:105A0000094B10B51A6801231A4208D007490A78D1
:105A1000D01808701A4204D0FFF780FF10BD00288C
:105A2000FCD0FFF7BBFFF9E7AC63FF1F1C66FF1F4D
:105A3000002010B5FEF7DEFC0D223E200549FEF7E2
:105A400007FE0023984200D13E33034A1370FEF74D
:105A500045FD10BD62BD00112466FF1F0200F0B5B8
:105A600001270A480A4E51188B1A002B00DCF0BDA2
:105A7000082415784308684038404000805B013CAA
:105A800058406D08002CF5D10132EDE7FFFF000012
:105A900080BD0011F0B500250F269D4200DBF0BD52
:105AA0004C5D070944403440A400A05801357840BB
:105AB000F3E70000F0B589B06A460D000B000F2730
:105AC000110010351C780133260024093E40167061
:105AD00054700232AB42F5D12023024AFFF7DAFFBD
:105AE00009B0F0BD84BD0011F0B54E780B7889B0D7
:105AF00036020C00170001901E43012A61D9974B12
:105B00009E4200D878E001339E421CD1062A17D16C
:105B1000CA788B7812021A430B791B0413434A7913
:105B200012061A438E4B5A6100221A705A808D4A0F
:105B30005A608D4A9A608D4ADA60002009B0F0BD43
:105B400088225205EEE78A4B9E423CD184498B78ED
:105B5000002B00D0FAE00C2A31D10F22A378934316
:105B6000E278120213432279120413436279120677
:105B700013434B60E279A07912020243207A0004B9
:105B80001043627A12060243CA60E27AA07A1202D5
:105B9000024378484A81834208D80423704914227A
:105BA00001980B7005F0F4FF1420C7E71201D2181A
:105BB00089235B059A42F0D801238B70BDE7022A46
:105BC000FAD00523EAE76C4A01239642E6D1FFF7B3
:105BD00037FA052F0DD9E378A2781B0213432279F7
:105BE00012041A4363791B061343644A0393526BEE
:105BF000136005F0ADFCA0E7594D2B78002B9CD12C
:105C0000AB78002B00D1A3E02B8901339BB200932A
:105C1000B34200D094E0132AD3D9CF7C8B7C3F02CF
:105C2000122120001F43FFF719FF874200D091E0A7
:105C3000002E3ED1E378A2781B0213432279E96853
:105C400012041A4363791B06134303930A228B42FF
:105C500013D1FF23A370E370237163716B89002B51
:105C60000AD1E37B227C1B0212041343A27B134361
:105C700003931B0901336B8100226B89002B8CD0AD
:105C8000002A69D1686837013818000B6B69000376
:105C90000390984205D9686105F06AFFEB780133FB
:105CA000EB7068681022A11C381805F049FD2E81A0
:105CB00043E76F89009A7B1E9BB293423CD1E37805
:105CC000A2781B02134322792D4E12041A436379E2
:105CD0006C681B0613433100042204A8039305F0EB
:105CE00057FF211D0C2205A805F052FF012004A931
:105CF00040421034FFF7DEFE013F012F17D1039A17
:105D00000B232861824200D048E7042231006868F2
:105D100005F016FD042203A9686805F029FEE9686C
:105D2000039AFF23914200D138E7F73B36E7210081
:105D3000FFF7C0FE1034DFE70923B742A2D82DE7F2
:105D4000009BB34200D9F8E6072327E7022325E7A3
:105D5000032323E7062321E70A231FE7FFFE0000B2
:105D6000A044FF1F00000111FFFF000050485936FA
:105D700001FF0000FFFF001102FF000000F00040E3
:105D8000AC44FF1F10B5034C0B000122210000F0B2
:105D90006BFA10BD455F00110B8870B506000D0051
:105DA0000224162B11D92B000322094900F05CFABA
:105DB000041E0AD1074B2A881B88191C934200D95C
:105DC000111C300089B200F0EFFA200070BDC0460F
:105DD000715F00117E66FF1F10B54A780400013A1A
:105DE0000B000220012A07D80A78002A04D00522D5
:105DF0002000024900F038FA10BDC0469F5F001134
:105E00000A7810B50B0004000220002A04D00722F3
:105E10002000024900F028FA10BDC0464B60001176
:105E20000A7810B50B0004000220002A04D00922D1
:105E30002000024900F018FA10BDC046B160001100
:105E400010B5034C0B000B22210000F00DFA10BD21
:105E5000E160001110B5034C0B000D22210000F091
:105E600003FA10BD5361001110B5034C0B000F2253
:105E7000210000F0F9F910BDAD6100110A7810B5EC
:105E80000B0004000220002A04D011222000024945
:105E900000F0EAF910BDC046BD610011002310B545
:105EA0001322190000F0E0F910BD000010B5034CFA
:105EB0000B001722210000F0D7F910BD0F6200116E
:105EC000002310B51922190000F0CEF910BD000012
:105ED00010B5034C0B001B22210000F0C5F910BDCA
:105EE00049620011F7B584890D0006000121002CDC
:105EF00022D000238268D3561778002B1EDA0C2C90
:105F00001AD90C3CA4B2131940880093230002F064
:105F100086FE431E984101307B06DB0F6B703F23EA
:105F2000013C1F40A4B22870AF70AC80002C07D099
:105F3000B3680133AB6000210800FEBD0020EBE731
:105F4000AC60F8E70B7803704B8843704B881B0AF2
:105F500083700B79C370042070470420022B06D194
:105F60000020537811781B02009A0B43138070476E
:105F70000B8803700B881B0A4370022070470420B3
:105F8000009983420AD1537810781B0203430B8097
:105F9000D37890781B02034300204B807047F8B5FC
:105FA0000D004B7801240021461C03702B788B4296
:105FB00001D82000F8BD6B78B01C4F1C012B10D10C
:105FC000890069184B88022233704B88B9001B0A7C
:105FD0007370691805F0DCFD04360434A4B2F9B21C
:105FE000E4E7122359436B185A88043132705B88F6
:105FF00010221B0A7370691805F0CAFD123612349C
:10600000ECE770B5049D14001E00052B01D8042098
:1060100070BD637812781B0213432B80E378A2785B
:106020001B02134302226B802A71211D681D063E4C
:1060300005F0AEFDB2B22A81F02AE8D82800A11DF1
:106040000A3005F0A5FD0020E2E7002310B50A782C
:106050009A4201D8900010BD9A008A1854880133E2
:1060600004705488DBB2240A447094888470928847
:10607000120AC2700430EAE710B51100029C062B28
:1060800004D004201022142B01D010BD0222227152
:106090004B7808781B0203432380CB7888781B0257
:1060A000034363800431601D05F072FD0020ECE7BE
:1060B00010B50C788B7804315C43E4B20370220095
:1060C000013005F065FD601C10BD0420022B06D1D7
:1060D0000020537811781B02009A0B4313807047FD
:1060E00010B50C000A88023105F052FD208810BD61
:1060F00070B504000D0004981100012B01D8042094
:1061000070BD167852781202324302800200F832D3
:1061100055701470E825002C00D10C35023B9AB262
:106120004280AA42EBD80231043005F031FD002054
:10613000E6E70420009983420AD1537810781B02C5
:1061400003430B80D37890781B02034300204B80DD
:10615000704710B50C000A88023105F019FD20883F
:1061600010BD000070B501211E000420049C0E40EB
:106170000B4218D1CB40DDB28D4214D90A49DBB2B3
:10618000098899420FD32300F6331D70330058005D
:1061900011184978165C0902314301332152D9B2F2
:1061A0008D42F4D8002070BDC044FF1F10B50C0014
:1061B0000A88023105F0ECFC208810BD10B50C787F
:1061C0008B7804315C43E4B203702200013005F0A7
:1061D000DFFC601C10BD10B511000298032B01D824
:1061E000042010BD14785278043B1202224302802E
:1061F000CA788C781202224342809AB28280F22AB4
:10620000EED80431063005F0C3FC0020E9E710B5F4
:106210000C000B8803700B881B0A43704B8883703B
:106220004B881B0AC3708A880430063105F0B0FC25
:10623000A088043080B210BD0420012B03D10020BF
:106240001378009A1370704710B50C000B88037018
:106250000B881B0A43704A880230043105F098FC11
:106260006088023080B210BDF0B589B003931E4B38
:10627000029242000700D05A019102F020F8132543
:10628000061E2DD0029B01240370019B002B04D01D
:10629000001903999847001984B26B461B7A5BB2C8
:1062A000002B0FDA1021380002F01CFB1925002802
:1062B00013D130003219E1B202F066FC051E0CD198
:1062C0000C34A4B2042304AA380005A993800696CE
:1062D000948101F0AFFD051E02D0300005F090FA68
:1062E000280009B0F0BDC0467C66FF1F70B50500F0
:1062F0000C0000280CD00020814209D01022200080
:10630000044905F045FC01202B7823736B786373F7
:1063100070BDC046C4BD0011F0B506000D001700E9
:106320001C0085B002291BD00020102907D1022BA8
:1063300007D0102B03D115E00020102C08D005B099
:10634000F0BD69463800FFF7D1FF2A0069460BE02F
:1063500069463000FFF7CAFF22006946380004E0B2
:10636000022BE9D12A003900300005F081FBE6E775
:10637000031CF72800D9F723032008499AB2013AF1
:106380000B80D317034006499B189B100B80D30F3B
:1063900004499B185B100B807047C046C444FF1F24
:1063A000C244FF1FC044FF1F034B1B888B4202D314
:1063B000024B4000C1527047C444FF1F7C66FF1F60
:1063C000014B4000185A70477C66FF1F1722014B93
:1063D0001A8070477C66FF1F70B505000E2005F01F
:1063E00097FA041E13D0D023037000230622837073
:1063F00007494570033005F0CBFB064B2100DA8AD4
:1064000062811B7E2373044B187805F069FB70BD15
:106410009866FF1F8866FF1F1445FF1F262803D8B4
:10642000024B4000C05A70470148FCE7C644FF1FBA
:10643000FFFF000070B506000C00094D1C22002172
:10644000280005F0D5FA074B1E70074B1C7005F0AD
:1064500097FB0123002801D0002312202B7070BD70
:106460008866FF1F1445FF1FA966FF1F70B5050052
:106470000D4C0800E260A16010220021656005F06B
:10648000FFF9012803D11021A06802F058FD102265
:106490000021280005F0F4F9012803D110216068DB
:1064A00002F04DFD70BDC0468866FF1F70B5041E2A
:1064B00005D1002903D006220D4805F069FB0D4BDC
:1064C0001D78012D11D1002C05D102221A7005F082
:1064D000FFFA280070BD00221A70074B1B78FF2BB3
:1064E000F7D02000FFF778FFF3E70025F1E7C0467B
:1064F0009866FF1F8866FF1F1445FF1F030010B535
:10650000002801D1002010BD00780B4A002803D1DB
:106510005988D1821B7913761378022BF2D100238C
:10652000984200D103331370044B1B78FF2B01D02A
:10653000FFF752FF0120E6E78866FF1F1445FF1FA3
:10654000002911D000280CD04B79012803D140221A
:106550005242134303E03F221340032802D001209C
:106560004B7170474022F4E70800FAE770B5094D17
:106570000100287800280BD0074C0622200005F0E7
:1065800007FB21002878FFF7DBFF200005F0F8F972
:1065900070BDC046A866FF1F8266FF1F00290AD093
:1065A000012808D13F224B799343C02B03D0403BB5
:1065B0005A425341981C704770B5174D06002B780E
:1065C000FF2B15D00A2005F0A3F9041E10D0D0230C
:1065D0000370C83B8370114B11491B784670C37020
:1065E0000622043005F0D4FA2100287805F078FA64
:1065F0000C4B1B78012B0DD10B4B1B68002B03D0D0
:106600009B68002B00D09847084B04211878084A53
:1066100005F0CEF870BDC0461445FF1FA866FF1FE9
:106620008266FF1FA466FF1FD066FF1FD466FF1F90
:1066300060EA0000014B98687047C0468866FF1FFB
:10664000014BDB68186870478866FF1F074B10B561
:10665000DA68136801331360054B1878FF2803D0FC
:106660008021C90105F044F910BDC0468866FF1FAE
:106670001445FF1FF7B50E0002F0C8F8051E1CD028
:106680000E4B06621F78002F00D10778AB791020DF
:10669000019305F03DF9041E0FD0D0230380C73BC2
:1066A0008370019BE91DC3700622043005F070FA67
:1066B00021003800E66005F013FAF7BD1245FF1F10
:1066C000014B18787047C046A866FF1F054B00288D
:1066D00005D1054B1A78054B002A00D1014B180053
:1066E0007047C0469866FF1FA866FF1F8266FF1F9F
:1066F000014B58687047C0468866FF1F024B1868F8
:10670000431E9841C0B27047AC66FF1F421E030093
:106710000120152A03D9FF3B5A425341D8B2704792
:10672000F0B51C0000230E0085B0039002920B70A0
:10673000029A934201D3002019E0E55C5A1CD2B2C0
:10674000002DF8D0029851198142F4DC0233DFB2F7
:10675000A35C18000193FFF7D9FF002807D0013D83
:10676000019A0399EBB233708A4202D1E01905B065
:10677000F0BDDB19DBB2DBE710B50C0002F09EF8D0
:1067800003001220002B03D02100588805F008FADE
:1067900010BD000070B50E4D84006359002B15D05C
:1067A000186A002801D005F05BF82B59586A0028B8
:1067B00001D005F055F82B59986A002801D005F052
:1067C0004FF8285905F04CF800232B5170BDC046F6
:1067D000B866FF1F1C4B70B504000E0015009942EF
:1067E0000AD11A4B1B68002B01D1122070BD1B6807
:1067F000002BFAD09847F9E7154B994215D1134B66
:106800001B68002B0AD01B68002B07D09847002874
:1068100004D1104B1C70104B1D70E7E729002000BD
:10682000FFF7AAFF0028E1D1F3E7080001F0EEFF2F
:106830000028DAD003780320A342D7D12900300002
:1068400005F0AEF9D2E7C046FEFF0000B466FF1FB8
:10685000FFFF0000B166FF1FB066FF1FF7B5040021
:10686000808801F0D3FF0025A84203D00578A088D6
:1068700002F008F81C4E3378002B1FD0AB421DD11C
:106880001A4B28001978FFF777FF002818D000234B
:106890003370A3790820A778A688019305F038F80B
:1068A000011E0DD0D0230370CA3B8370019B47703B
:1068B00086808371280005F013F901E0002DE8D1EE
:1068C000A0880B4B8200D358002B01D0FFF762FF4A
:1068D0001721A088FFF768FDA08801F027FDA08898
:1068E00001F0FEFDF7BDC046B166FF1FB066FF1F99
:1068F000B866FF1FF0B587B01D000CAB1B88070002
:1069000001930DAB1B88142002930EAB1B8816005D
:1069100003930FAB1B880091049310AB1B88059366
:1069200004F0F6FF041E1AD0D0230370CB3B47704F
:106930008370C670062229000430002D11D005F0A6
:1069400027F9019B21006381029B0098A381039B8F
:10695000E381049B2382059BA37405F0C1F807B073
:10696000F0BD05F045F8ECE7F7B5009308AB1B88E0
:1069700007000C200D001600019304F0C9FF041E4F
:1069800013D0280001F042FF00280FD00078D02358
:106990002370C93BA370009B21002381019B67707A
:1069A000A580E680638105F09BF8F7BD014B187860
:1069B000EDE7C0461445FF1F13B504006489038941
:1069C000C2888188C0780094FFF7CEFF13BD000015
:1069D00010B5044C2068002803D004F041FF0023C8
:1069E000236010BDBC66FF1FA122F0B58188920014
:1069F0004A43384B384F1B6804009B189D22920075
:106A00009B18827989B01A603B68002B5FD01D7893
:106A1000324B1B68002B04D05B68002B01D0002098
:106A20009847260008363100E079FFF7B7FD237D4F
:106A3000E0710200E0780493638A29000393238ABB
:106A40000293E3890193A38800933300FFF752FF79
:106A5000E378002B0BD1E289A379A18802920196F9
:106A6000E27928000092012201F0DAFEE0703B6832
:106A7000002B20D0FFF7ACFF194D287800281AD042
:106A8000184B1978FFF778FE002814D02B78E67899
:106A900008200793A78804F03BFF011E09D0D023EC
:106AA0000370CA3B4670837087808671079805F033
:106AB00017F800232B701721A088FFF775FCA0881A
:106AC00001F034FCA08801F00BFD09B0F0BD064BCD
:106AD0009DE7C0463409FF1FBC66FF1FD066FF1F3D
:106AE000B166FF1FB066FF1F1445FF1FF8B5070012
:106AF00008000E0001F08AFE041E18D02620FFF7C1
:106B00008DFC051E00D12578062004F001FF041E2F
:106B10000DD00021062204F06BFFD0232370C23B6E
:106B200021006770A370A680E8B204F0D9FFF8BD19
:106B3000F0B585B001930AAB1B78070002930BAB4D
:106B40001B7808000D000092039301F05FFE061E03
:106B500022D0102004F0DCFE041E1DD010220021E3
:106B600004F046FF2620FFF759FC002800D13078BA
:106B7000D0232370C13BA370009B21002372019B93
:106B800067706372029BA580A372039BC0B2E3721D
:106B90000C9BE36004F0A4FF05B0F0BDF7B50D0059
:106BA000019001F033FE071E20D00E2004F0B0FE4D
:106BB000041E1BD02620FFF731FC061E00D13E78B4
:106BC000D0232380C53B0622A370F91DE01C04F0EE
:106BD000DFFF019B2A0063810123DD401A401D4035
:106BE000210022736573F0B204F07AFFF7BD000054
:106BF000F0B585B0029010000D0017000A9E0393B7
:106C000001F004FE041E31D0029B002B2ED1039B09
:106C100002795B0724D5122313430422002E08D1E6
:106C20000B99002905D10C99002902D10D99002951
:106C30001AD01A430D9B2271002B00D0C9E0002E00
:106C400000D1CFE0002D00D0CCE0606A002801D058
:106C500004F006FE1C21300004F01AFD606205E01D
:106C600002239A430E33D7E793432371654BBA004F
:106C7000D458002C00D1AAE0002E10D0236A002B9B
:106C800003D11C2004F024FD20625E4BBA00D358CF
:106C9000186A002803D01C22310004F079FF0C9BF5
:106CA000002B12D0574CBB001D596B6A002B03D12F
:106CB000162004F00DFD6862BB00E358586A0028F6
:106CC00003D016220C9904F063FF0D9B002B11D00A
:106CD0004C4DBC006659B36A002B03D1142004F05C
:106CE000F7FCB0622B59986A002803D014220D9942
:106CF00004F04EFF380001F089FD051E67D0414BBE
:106D0000BA00D358002B62D01A6A3420002A00D16E
:106D10001C389A6A002A01D0143080B20B9A002ADB
:106D200001D01C3080B25B6A002B01D0163080B2DB
:106D300004F0EEFD041E4AD01822002104F058FE93
:106D40002620FFF76BFB0190002801D12B780193DF
:106D5000D0232370029B200063700A23294EA37066
:106D6000039BBD00A371AB59A780196A1830002995
:106D700005D01C22A06004F00BFF200034307359B2
:106D8000996A002907D0030014221433E0600293AB
:106D900004F0FEFE02980B9B002B08D003001C227F
:106DA0001C330B992061029304F0F2FE0298735990
:106DB000596A002903D01622606104F0E9FE6B468F
:106DC0002100187904F08CFE3800FFF7E3FC05B0D1
:106DD000F0BD10220D9B0D991B69A018236204F0D1
:106DE000D7FE2CE70B9B002B00D13FE7012D00D0F5
:106DF0003CE7606A002801D004F032FD1C210B98AA
:106E00002AE7C046B866FF1F10B5044C206800286A
:106E100003D004F025FD0023236010BDAC66FF1FE6
:106E20000B4B07B51A68002A01D100200EBD694638
:106E3000531C012012780731FFF772FC0028F4D0B0
:106E400002780123100018401A42EED0EEE7C04647
:106E5000C866FF1FF0B51F4F01203B6887B0002BAD
:106E600025D09B78059300F0B3FB002821D00A20A1
:106E7000FFF7D4FA04000B20FFF7D0FA164B0500F9
:106E80001E78731E9E413B68F6B2191DD878FFF735
:106E900057FB3B682900DA7A043303929A7901930D
:106EA0000292009033002000059A04F0F9FC07B02C
:106EB000F0BDFFF7B5FF002805D00620FFF7AEFABA
:106EC00004000720D8E70820FFF7A8FA04000920EB
:106ED000D2E7C046AC66FF1FA866FF1F70B50A4E1A
:106EE000040033780D00FF2B0DD0042004F010FDBA
:106EF000011E08D0D0230370CE3B45708370C47050
:106F0000307804F0EDFD70BD2445FF1F70B504001E
:106F100006200D0004F0FCFC011E0AD0D0230370F3
:106F2000CD3B8370054B44701B688580187804F056
:106F3000D7FD002C01D0FFF767FF70BDAC66FF1FC7
:106F4000F8B5264F06003B680D001124002B05D133
:106F50000522234B1B78134202D112242000F8BDD6
:106F6000204A10241268002AF8D01278002AF5D09E
:106F7000DB0719D52B789A1E012A1AD80C2004F0A9
:106F8000A7FB132438600028E8D000230A224370AE
:106F900029000670023004F0FBFDFFF75BFF041EC2
:106FA0000AD0FFF731FFD9E700F012FB0028E1D14A
:106FB000E4E7002BE2D0D0E70B4B1B78032BCDD1BD
:106FC0001D20FFF72BFA094B18800028C6D0084B6C
:106FD00004211878074A04F0EBFBBFE7AC66FF1FFB
:106FE000A966FF1FC866FF1FA866FF1FA666FF1FD2
:106FF000D466FF1F60EA0000F7B50193194B140037
:107000001A78052306000F0012201A4221D0012908
:1070100020D1154B1D68002D1BD002201F2C18D825
:10702000002C02D0019B002B13D0104B1F221E708E
:107030006E1C0021300004F0DBFC019922003000BE
:1070400004F0A6FD310020002C70002F06D004F0C3
:10705000DFFBFEBD064B12201D68DCE704F010FDCF
:10706000F7E7C046A966FF1FC866FF1F2445FF1F3C
:10707000C466FF1FF8B50F4E12243368002B17D0DB
:107080001B780F3C834213D100250B4F0221387827
:1070900004F096FC094B042138781D8004F090FC24
:1070A000074B28001D8033685C7004F001FC04006D
:1070B0002000F8BDAC66FF1FD466FF1FC066FF1F2F
:1070C000A666FF1F70B5012823D11B4C2388002B17
:1070D00003D01A4A1578002D07D0194B1B68002BD6
:1070E00002D01878FFF7C6FF70BD3B2B02D93C3B9E
:1070F0002380F9E7134E0221307804F061FCFA2274
:107100002388920002215A43307804F061FA2580E6
:10711000EAE70B4B1B68002BE6D00B4B1B785B0799
:10712000E2D5084B0221187804F04AFC0022024BF9
:107130001A80FFF769FED7E7C066FF1FA466FF1F2E
:10714000AC66FF1FD466FF1FA966FF1FF8B51E4D72
:107150002868002803D004F083FB00232B601B4E1B
:107160003068002803D004F07BFB00233360184F05
:1071700005243B7818002040234221D0154800F018
:107180002BFA3B78234213D0202004F0A1FA286088
:10719000002813D02022002104F02AFC202004F033
:1071A00097FA041E306005D02022002104F020FC54
:1071B000002004E0286804F053FB2C601320F8BD85
:1071C00000F00AFAF4E7C046C866FF1FC466FF1F56
:1071D000A966FF1F1845FF1F10B50A4C23681A1E29
:1071E0000ED0002808D10130587004F061FB00284F
:1071F00005D02368002B02D00021FFF787FE012273
:10720000100010BDAC66FF1FF7B5274E05003368B0
:107210000191181E21D05C78244F012C30D1FFF74A
:10722000FFFD002825D02000FFF7F8F804004128D2
:1072300014D91F4B022118781E4A04F0B9FA1E4BCC
:107240003C3C1C80022233685A703B78002B14D1DE
:1072500028000199FFF75AFE0120FEBDFA22920094
:107260004243002AEED0124B0221187804F0B0F904
:10727000E8E7FFF7D3F80200F3E700233B70EBE702
:107280003B78002BE8D1032004F042FB011E08D01C
:10729000D0230370CC3B457083703368187804F0BA
:1072A0001FFCFFF7B1FDD7E7AC66FF1FA466FF1F09
:1072B000D466FF1F60EA0000C066FF1F10B51749C3
:1072C000838802008B4220D011D815498B4217D0F9
:1072D000144900205B1899B2012907D892681178E7
:1072E0005A425341D8B2FFF7F9FD012010BD0E4AB2
:1072F00000209B1807229BB29A424041C0B2F5E79A
:1073000083681878FFF768FFF0E7836899785A7800
:10731000090218781143FFF777FFE7E70A2000001A
:1073200006200000F8DFFFFFAFDFFFFF014B187002
:107330007047C0462545FF1F10B5064C207001F070
:1073400041FA207804F02CFA0521207800F062FD43
:1073500010BDC046D466FF1F0BB273B50D00002BE5
:1073600000DBC4E0884B187804F072F9041E0ED0DC
:107370000378912B0FD0A22B00D1A1E0834B18787A
:10738000FF2852D0210004F0ABFB00284DD1802013
:107390000002684076BD43780F2B76D013D8052BBA
:1073A00070D00E2BEAD18088794B98422BD8794B3C
:1073B00098421BD8784B9842E0D1A3681878591CA2
:1073C000FFF774F838E03E2BD8D18378032B74D0C4
:1073D0006CD8012B6ED0022BD0D1704B1B68002BC8
:1073E00023D05B68002B20D098471EE06C4BC01860
:1073F0000C28C3D804F0E4F91DC2C2150BC20B0B54
:107400000B3223C23C00674BC0180728B6D8664B26
:107410001B68002B09D01B68002B06D02000984762
:107420000AE0A3681878FFF7C7F8200004F098F87E
:10743000ADE7A068FFF762F800289FD0F5E7A368E2
:107440001B78002BF1D0554B1B68002BEDD01B682F
:10745000002BEAD0210055489847EDE74F4B1B68B9
:10746000002BE2D01B68002BDFD021005048F3E74F
:10747000504B1B68002BD8D05B68002BD5D0210067
:107480004348E9E7FFF7EAF9CFE780884A4B98429B
:1074900003D04A4B984200D070E7464B1B68002B44
:1074A000C3D05B68002BC0D02100D5E7153B012B72
:1074B000BBD963E7FFF798FAB7E7FFF77DFAB4E7C0
:1074C0003F4B1B78042B07D100236A4613800179B8
:1074D000408800F0C5FCA8E7364B1B68002BA4D001
:1074E0005B68002BA1D00100364898479DE7012436
:1074F00021420AD0294B1B68002B04D05B68002B6B
:1075000001D000209847012043E78B070AD5264B7E
:107510001B68002B04D05B68002B01D0200098472B
:10752000022036E70421280008400D4200D131E74F
:10753000254E3388002B21D0013B9BB23380002B9A
:107540001AD1FFF7DBF800280AD0204B1C70164B2D
:107550001B68002B04D05B68002B01D020009847EB
:10756000FFF7C6F8694601F001FD6846FEF7FEFF29
:107570001D20FEF753FF308004200AE7024B1878E5
:1075800004F01EFAF8E7C046D466FF1F2545FF1F2A
:107590000E2000000120000009100000CC66FF1F33
:1075A000FEDFFFFFAFDFFFFFD066FF1F0C200000F4
:1075B0000B200000B466FF1F0D2000001320000008
:1075C000A966FF1FFFFF0000A666FF1FA466FF1F3E
:1075D00010B501F09BF910BD014B18607047C04613
:1075E000D066FF1F0B880020162B01D8172304201C
:1075F000014A13807047C0467E66FF1F0020704717
:10760000074A03001188814207D0918800209942DF
:1076100002D101308000101870470020FAE7C04600
:10762000DC66FF1FF0B58F7806000D00C7B01E2F77
:1076300015D1FFF7E5FF051E03D10024200047B058
:10764000F0BD00223B003100C078009200F0B2FB98
:107650000400A81C00F0D3FBFF23EB70EEE7264BE1
:10766000062403931B78FF2BE8D0182FE6D87B085D
:10767000224A013BDB0002929A589446002ADDD050
:10768000029AD3185B68002BD8D00878002802D162
:107690004B78012B02D10624122FCFD107AFAB8834
:1076A000697800976446AA68A047041EC6D1AB78E3
:1076B000029A5B08013BDB00D318390030005B689D
:1076C0009847041E0BD1AB78042BB6D0039A310037
:1076D00010782200009700F06DFB0400AEE76A7896
:1076E000002AABD1AA7805A93B88087130000A703E
:1076F0004B80FEF747FBA0E72845FF1FD4BD0011D4
:107700001D4B37B5050098420BD000290AD1FFF771
:1077100077FF002805D11948FFF772FF002800D035
:10772000058037BD01291AD1FFF76AFF041EF8D082
:1077300001235B420380A378FF2BF2D0FE2B07D0FE
:107740000023E0781422009329001E3300F032FB5E
:10775000A01C00F054FB01235B426380E1E7022997
:10776000DFD1013901F0BEF80028DAD12800FFF797
:1077700047FF041EDFD1D4E7FEFF0000FFFF00003B
:10778000022210B5074B52421A80074801325A8034
:107790009A80DA8000F07EFA044801F025F8002093
:1077A00010BDC046DC66FF1F257600110177001171
:1077B0000388F7B50400002B02D102252800FEBD86
:1077C00042680221137825485268FEF7A5FD00287B
:1077D0002ED0234F01253A88002AEFD0802321881C
:1077E0005B0201259B1A9942E8DC0C2003F070FF34
:1077F000061E31D03B8822889C4600231800019544
:1078000061469DB2491989B2AA421BD8002801D00D
:1078100062443A8000233000082208C0210004F0AE
:10782000B7F9104A1368002B13D100251660C5E77D
:107830006268022113780C485268FEF76DFD00283B
:10784000C7D1BAE760681D01401941810133019831
:10785000D6E71A001B68E6E71325AFE742BE001122
:107860002645FF1FD866FF1F40BE0011014B187050
:107870007047C0462845FF1F14230A0010B51A4060
:10788000194204D00122102101F048F810BD4B0626
:10789000F9D4012088434000F8E710B514008B06A6
:1078A00004D50122102101F039F810BD08230A0087
:1078B0001A40194202D14BB2002B0FDA102101F00D
:1078C0002DF8002808D02300F9331B78002BECD0CA
:1078D000F8342378012BE8D10020E6E7032089075C
:1078E000FAD4E2E7F0B51F00184B85B01C68019090
:1078F00002910392002C27D1200005B0F0BDA568AD
:107900003301ED186B89019A934211D3029A934285
:107910000ED8002F04D10A9B002B10D12C00EBE7CE
:107920003B002978039A6868FEF7F6FC0028F2D13C
:107930000136B6B2A388B342E1D82468DAE7A36877
:107940000A9A5B891380E9E70026F3E7D866FF1FF0
:1079500037B50C000A8849880123914217D3002AC1
:1079600015D0651D23792A0002210A48FEF7D4FCB0
:10797000102300280BD023796188208800242A0056
:107980000094FFF7AFFF0A23A04200D023001800A5
:107990003EBDC04642BE001113B50A0008884988A2
:1079A000012388420BD8002809D00024137905321E
:1079B0000094FFF797FF0A23A04200D0230018008D
:1079C00016BD13B50A0008884988012388420BD8E0
:1079D000002809D00024137905320094FFF782FFB4
:1079E0000A23A04200D02300180016BDF0B58BB0CA
:1079F00003904A8808880E000123824255D300284C
:107A000053D00023012704AC237000227188130097
:107A10000092FFF767FF051E3ED02078002835D181
:107A20002B78022B18D167706A8983000130E31824
:107A300080005A8069680222201804F0A9F823788F
:107A40000133DBB22370042B19D93B006889013064
:107A500080B2002BD9D01FE0022363701223584359
:107A60006A89231804305A8069681022201804F0AB
:107A70008FF823780133DBB22370002BE5D10C4A59
:107A80006B899B185A425341DBB2DFE76378012BC5
:107A9000E4D12B78022BC7D022780A23002A04D005
:107AA00021000398FEF798F9002318000BB0F0BDF1
:107AB0000100FFFF0F4BF0B504001868002816D036
:107AC00083685D89A54207D88288AE18B44203DA7C
:107AD00012019A18934201D10068EFE71E005F89F6
:107AE0001036A74204D1002900D00D801800F0BD47
:107AF0003300EFE7D866FF1F70B505000C0008885B
:107B00000021FFF7D7FF03000120002B04D0220043
:107B10002800197AFFF7C1FE70BDF7B50C000025EB
:107B200001902300F6331B78AB4201D800200AE015
:107B30006B00E65A00213000E718FFF7BBFF002872
:107B400002D126800130FEBD017A0198FFF794FE34
:107B5000002802D03B882380F5E70135EDB2E0E74D
:107B600010B5040008880021FFF7A4FF03000120DE
:107B7000002B03D02000197AFFF77EFE10BD000015
:107B8000054B1B68002B01D1180004E09A6852894C
:107B90008242F6D198887047D866FF1FF0B50E274D
:107BA000002687B0039302ABFF183E8005001F4BF1
:107BB00040891400984207D02B78013000976A68FA
:107BC00080B2FFF78FFE060002212B7818486A6802
:107BD000FEF7A2FB00280FD06C892000FFF7D0FF32
:107BE000002802D0013C0419A4B2039B002B00D052
:107BF0001C80300007B0F0BD02212B780D486A6868
:107C0000FEF78AFB0028E7D102212B780A486A6830
:107C1000FEF782FB002807D0002EDED03B88A3426F
:107C2000DBD17489013CDFE76C89DEE7FFFF0000F0
:107C300042BE001140BE00113EBE001110B50C0046
:107C4000FFF7DEFC03000220002B0AD0002C00D03E
:107C500023609B781720FE2B03D00138FF2B00D127
:107C6000002010BD73B50D0001A904001600FFF738
:107C7000E5FF172805D0002E04D129002000FEF7CB
:107C800027F976BD01221021200000F047FE0028D0
:107C9000F3D0F6E7014B18607047C046E866FF1F57
:107CA00037B56B469D1D010004000222280003F039
:107CB000F7FE2B88B02B0ED12379122B09D123008C
:107CC000FF339B78012B06D10121608800F0E0F89A
:107CD00001E01B2BF8D037BD10B5054B04211870FF
:107CE00000F098F8FFF74CFDFEF770FB10BDC046A2
:107CF000EC66FF1F0020F0B50BB20F0087B0834287
:107D000034DA274B187803F0A3FC051E2BD0037838
:107D1000A02B25D103AE3100FEF7E4F8041E0BD1F1
:107D2000B378DB0724D51F4B06341B68002B03D028
:107D30003100688898470400A868002801D003F043
:107D40005FFD002C08D1184A039B1340174A934249
:107D500006D0B3781B2B03D00121688800F098F877
:107D6000280003F0FDFB80200002784007B0F0BD42
:107D70000F4B1B68002B10D0310068889847041EF9
:107D8000DAD07378002BD7D1B27801A90A704B8072
:107D90000C716888FDF7F6FFCEE70624F1E7C046D0
:107DA000EC66FF1FE466FF1F00FFFF0000011200EA
:107DB000E866FF1FF7B50190822040000D00170014
:107DC0001E0003F0A5FD04001320002C12D0B023E8
:107DD00020002370089BFC226770658026710830A4
:107DE000002B08D0190003F0D3FE2100019803F006
:107DF00077FE0020FEBD089903F0FAFDF5E710B507
:107E0000041E06D00078FD2803D803F089FDFF2367
:107E1000237010BD0A1F93B210B504000220032B7B
:107E200005D882400020024BD1529B189C7010BD97
:107E30000C67FF1F0B8870B5043B04000D00022087
:107E4000032B0BD80121200000F04CFD030014206F
:107E5000002B03D02900200000F0DEFB70BD0000E5
:107E600007B51300034A00920A00012100F02CFC20
:107E70000EBDC0469D80001107B5019203220092FD
:107E8000024B0A00122100F049FC0EBD1B810011BB
:107E900007B56B4601AA11800449D88008780633DB
:107EA000012802D1190003F0B3FB07BDED66FF1FE7
:107EB0000C4B10B518700023FF210B4A138013815F
:107EC00093819380094A5380137051729381937206
:107ED000D174D3821375517703F072FB00F0FCF973
:107EE00010BDC0461C67FF1F0C67FF1FEE66FF1F1B
:107EF000F0B58DB06B46002003910C229B5E83424F
:107F000000DBB0E05D4B187803F0A2FB051E00D14A
:107F1000A4E00378902B00D09DE006AF01004688D6
:107F2000380000F013FA79680400002900D19CE0C1
:107F30003B88052B6ED13B89032B1CD905AC200057
:107F400000F0A2F86288172A61D83989131D994276
:107F500031D17968237804310291D90738D5607816
:107F600000F08EF9071E06D0002303712378012B41
:107F700008D0132B23D0A868002800D178E003F0A4
:107F80003FFC75E06288029909A800F0A6F802900B
:107F9000380000F08BF909AA2378387A0192002280
:107FA00031000092029A00F012F9380000F064F9F2
:107FB000029B002BDFD0300000F080F9DBE7037874
:107FC000032BD8D16288029909A800F0D6F8DEE721
:107FD000122B13D1029909A800F0B5F8021EEAD1BC
:107FE00027498B88002BC6D0887909A9237801916D
:107FF00061780091310000F0EAF8BCE7002302AAA2
:1080000093833000617809AAFFF72AFFB3E71D4B7D
:108010000993F6E7042B02D09A1F012AABD8184A1D
:10802000043B9B00995A0029A5D0D21890783100C2
:108030003A0000F0AEF800289DD13B88042B03D015
:1080400001213000FFF724FF012C04D1A86800288B
:1080500001D003F0D5FB280003F082FA8020039BB7
:108060000002434018000DB0F0BD012800D182E7A6
:1080700001213000FFF70CFFEDE7C0461C67FF1F32
:108080000C67FF1F010017000B7803704B784370DB
:10809000CB788A781B021343438070470A88030019
:1080A00002700A88120A42700A88012A06D14A8898
:1080B00082704A88120AC2700420704702208242ED
:1080C000FBD14A8804309A704A88120ADA708A888A
:1080D0001A718A88120A5A71EFE710B5040001205C
:1080E00082420CD94B780A781B02134323808342C7
:1080F00006D1CB788A781B0213436380002010BD21
:10810000022BFBD1CB788A781B02134363804B7917
:108110000A791B021343A380F0E70B8803700B88D6
:108120001B0A43704B8883704B881B0AC3708B8873
:1081300003718B881B0A4371CB888371CB881B0A20
:10814000C3710820704703000120082A14D14A781F
:108150000878120202431A80CA7888781202024311
:108160005A804A790879120202439A80CA7988793A
:10817000120202430020DA80704710B5040001208B
:10818000022A05D100204B780A781B021343238072
:1081900010BDF8B5060010200F00150003F0B8FB65
:1081A00004000120002C0ED0A0230C2229002380E3
:1081B0006780201D002D07D003F0EAFC210030006D
:1081C00003F08EFC0020F8BD03F012FCF6E7F7B5D3
:1081D0001E00009008AB142017001D78019103F0D9
:1081E00097FB041E12D0A2230370019B47704380AB
:1081F000099B057146710C220830002B07D019002D
:1082000003F0C6FC2100009803F06AFCF7BD099951
:1082100003F0EEFBF6E737B5041E0FD04388002BC2
:108220000CD00025C1881323007A172201950095F0
:10823000FFF7CDFFFF2365806372257037BD000017
:1082400010B50C4904004A88002A09D08B89002BFC
:1082500005D00020CB8A0222834201D010BD01222A
:1082600013000A20434300204032C854C8184280FB
:108270000472F3E7EE66FF1F00234380037070472C
:10828000094B00211A0010B55C88002C06D01C791F
:10829000844203D10A234B43D01810BD01310A3365
:1082A0000329F1D10020F8E7EE66FF1F10B50400A6
:1082B000407A03F035FBFF23637210BD7047043032
:1082C00010B580B203F024FA002803D004214942FB
:1082D00003F08EF910BD000070B50025104CA068A9
:1082E0002580A581A580A84202D003F089FAA56067
:1082F00000250C4C0C4B606D1D80230058331D7005
:10830000A84202D003F07CFA656500256068002869
:1083100001D003F075FA013508340A2DF6D170BD8D
:10832000B467FF1F5867FF1FA867FF1F70B5041EC3
:1083300009D1054D2880A881A880A868002802D00E
:1083400003F05EFAAC6070BDB467FF1FF0B54B88F8
:1083500085B00193002343600A7905000F00022ACB
:1083600000D07BE0CA88032A17D98B685E78197819
:108370003602DC78D8790E4399781B7A24021B02E6
:108380000C43034353495BBA0B80331D93421ED108
:10839000042C04D0631F022B0ED9012015E0019A92
:1083A0004D4B1201D35A002B06D00198FFF7BEFFA8
:1083B0004A4A1369013313610421B8682E812C8065
:1083C000494203F015F96860002005B0F0BD434D47
:1083D000042C06D0631F022B0FD9EB680133EB602E
:1083E000DBE7019A3C4B1201D35A002B05D00198D0
:1083F000FFF79CFF2B6901332B61374B3000029351
:10840000019B029A1B010193002301998C468B5218
:10841000130063449C8003939E81FFF750FF039BEE
:10842000041E986016D00421B868494203F0E0F8B1
:10843000FA880100043A200003F0AAFB0199029A8D
:10844000FB888A5A043B9B18029A8B522B68013393
:108450002B60A2E7AB690133AB619EE71E4B029331
:10846000019B1E01029BF35A002B2DD002998C19FF
:10847000A068002828D0012A26D1FA889B189BB230
:108480007352A189994217D39B1AC018B96803F097
:108490007FFB029BA289F35A934200D07DE7002222
:1084A0002B81A3882B80A3686B60029BF2520B4A3E
:1084B00053680133536070E7084A9368013393604F
:1084C0000198FFF733FF68E7044A536901335361AA
:1084D000F6E7C0461E67FF1FB467FF1F2467FF1F34
:1084E00070B5051E15D10B4C0B4B1880230058336B
:1084F0001870606D002802D003F082F965652500D0
:1085000050356068002801D003F07AF90834AC4295
:10851000F7D170BD5867FF1FA867FF1FF0B51700A0
:10852000A12285B0920001934243394B06001B689B
:108530000C009B18D933FF331D78FDF741FF043041
:10854000854204DD3000FDF73BFF0430C5B2BD427B
:1085500007D33A0000213000019B03F081F805B0F9
:10856000F0BD2900380003F01BFA2300C6B25033D7
:108570001E700393019B29006365380003F058FACD
:10858000CBB20293002B02D0039B01361E70002653
:108590002300503303931B78B34204D8606D002846
:1085A00031D10020DBE7029A2800002A04D0013BE9
:1085B0001000B34200D02800F700E719387003F02C
:1085C00027FA786000280ED03A78019903F0E0FA93
:1085D000019A3B780136D3180E4A0193D369F6B25B
:1085E0000133D361D4E7039B18706065A74205D1BE
:1085F000084A1320D36A0133D362B0E7606803F0FE
:10860000FFF80834F2E703F0FBF800236365C8E7DE
:108610003409FF1F2467FF1FF7B50D000700042171
:10862000686802F0E5FF2B89040003702B891B0AA0
:1086300043702B8883702B881B0AC3702E890225F8
:108640000436F6B2FB2E15D81B4B9F4214D10C20DA
:1086500003F05EF91135011E0CD0902303708E3BA0
:108660000371043B4380154B8460C680187803F087
:1086700037FA00252800FEBD5C237B43104AD3183F
:108680000093583301931B78002B0FD10300320065
:1086900038000099FFF742FF019B05001B78002B73
:1086A000E8D13800009903F0CBF9E3E7054A072544
:1086B000536A01335362DDE7FEFF00001C67FF1FB2
:1086C0005867FF1F2467FF1FF0B587B00090172081
:1086D0000F0016000193FFF7F2FD1325041E19D0B9
:1086E0000C98031E02D00199201D9847030AE370DD
:1086F000052302AAA070043090812770009866704C
:1087000003A993800494FFF787FF051E02D0200081
:1087100003F076F8280007B0F0BD0000F0B587B090
:108720001F000CAB1B780391059301210DAB0600D4
:108730001C78049200F0D6F81425002821D02000DF
:10874000FFF77EFD0135041E1BD01149059B0A78F9
:1087500003700132D2B2131EC68001D101231A0068
:108760000B7022713000049B03990097FFF7ACFF58
:10877000051E09D1230021000648074A093303F0EA
:10878000DFF9280007B0F0BD002363802370F8E70D
:108790002067FF1F1782001130750000F8B5050033
:1087A0000E00064C064F2368002B02D03100280033
:1087B00098470434BC42F6D1F8BDC046C467FF1FD9
:1087C000D867FF1F0123064A5B42538000231371C1
:1087D0005362044A136053609360D360136170471F
:1087E000D867FF1FC467FF1F0200002310B50649AA
:1087F0009C000859002801D1625010BD0133052B9F
:10880000F6D11320F9E7C046C467FF1F034A538817
:10881000181A43425841404210407047D867FF1F22
:10882000F0B585B002930AAB1F780CAB1B880090A3
:1088300008000E0001920393FFF7E8FF05001120E6
:10884000002D1BD10E48FFF7E1FF04001520002C7E
:1088500014D006220B99A771E01D03F099F9019B32
:1088600030002371029B29006371009B6680237096
:10887000039B6562E381FFF791FF280005B0F0BD1F
:10888000FFFF000010B5FFF7C1FF04000220002C1D
:1088900012D060880121FFF781FF606A002801D0B3
:1088A00002F0DEFF28220021200003F0A1F80123BE
:1088B00000205B426380207110BD000030B5074A84
:1088C000074C5588010013780020A54204D05B1A9C
:1088D00059424B415842104030BDC046D867FF1F37
:1088E000FFFF0000084A10B501230C00904208D099
:1088F000FFF78CFF031E04D0037923405A1E9341D7
:10890000DBB2180010BDC046FEFF0000024B187914
:10891000431E9841C0B27047D867FF1F70B504006E
:108920000D001600FFF772FF002804D10D4B9C428A
:1089300000D0143070BD416A03790520002907D0AA
:1089400012221A40102A02D10520002EF2D10F2047
:10895000DB06EFD5897E0C20A94289414942494274
:108960000840E7E7FEFF0000030010B5002800D133
:1089700010BD0348034A41889142F9D09847F7E770
:10898000D867FF1FFFFF0000002330B5C45CCD5C3B
:108990006C40D4540133102BF8D130BD0F2300228A
:1089A00010B5C45C64002243CA54C25CD209013BC6
:1089B000F7D210BD0200010010B52032103102F0D4
:1089C0002FFE10BDF0B58BB003901020059317005B
:1089D000049102F07DFE0090102002F079FE009BD1
:1089E00013240190002B05D000280CD113240098EB
:1089F00002F036FF019B002B02D0180002F030FF7E
:108A000020000BB0F0BD102002F062FE0600102026
:108A100002F05EFE13240500002E00D1AEE0002817
:108A200019D01022002102F0E3FF32002900039840
:108A300002F0F6FD041E0ED133787F2B51D83000A2
:108A40000099FFF7ABFF009B1B787F2B53D8019950
:108A50000098FFF7A3FF300002F002FF002D02D0C4
:108A6000280002F0FDFE002CC1D1102002F030FEE3
:108A70000600102002F02CFE0290002E7CD0002870
:108A800078D03A000F3223000125121105D00F33A0
:108A90003B4015B25A4253411BB26A1E1201002BD1
:108AA00033D0049BD2B298180099029AFFF76CFF5A
:108AB000013D10220021300002F09AFFADB2049F68
:108AC0002D017D19AF4242D0002C33D0300002F08E
:108AD000C7FE029B002B00D189E7180002F0C0FE00
