:020000041100E9
:1030000070B501F001F940201F4C0223FE211F4A38
:10301000207401F059F9002821D10223FF211C4A14
:10302000207C01F051F9051E19D1902202211202D3
:10303000207C01F0C3F9032007F0FAFF802202216F
:103040005201207C01F0BAF92900207C01F096F9A8
:1030500023681049002B12D001F024F970BDCC2256
:103060003820AC219201207401F0A8F9002802D088
:1030700000232374F0E72368002BEDD106490C22CE
:10308000200008F09DF9E7E7F462FF1F0063FF1FCF
:103090000263FF1F58B600114CB60011F7B5164B6E
:1030A0000192C318021D0020009388235B05D318EA
:1030B0001B685C1C1AD09CB2402C18D88D781E0C52
:1030C000AC466746CD782D023D43AE4206D101980D
:1030D00000280ED110000C70240A4C7003249BB2FF
:1030E0000733A343D218009B9A42DED3FEBD44327D
:1030F000F9E71000FAE7C046FC0F0000802213B584
:1031000003000324019189B2520107319B18A143A6
:1031100004305A1A88235B05C3181B68591C03D155
:1031200090429241104016BD99B2402907D80B0039
:103130000733A343C0189042ECD30020F3E7443098
:10314000F9E7134B134A1B68126810B5FA2493422F
:1031500001D81A00F824104BE4021B689A4210D8D8
:1031600013000E4A12689A420ED3013307D1F82396
:10317000DB029C4203D10A49054808F0C1F820004F
:1031800010BDFC24E402ECE7FE24E402F7E7C046AD
:1031900000C0071100D0071100E0071100F007116F
:1031A000FFFFFF7FF0B59BB0150004900391402A0C
:1031B00000D9A0E006AB59801A80FFF7C2FF0400D7
:1031C000042816D9002206A9FFF768FF052810D9A0
:1031D00006AB1B88AB420CD1002D07D0514B2A0007
:1031E0000499C01808F07CF9002802D101201BB016
:1031F000F0BD06AB1D8020000699FFF77FFF041E7F
:103200007BD1069B0793FFF79CFF80235B01C618C9
:10321000802307001B039E4201D3F826F602882371
:103220005B05F31801931B68013302D0019808F085
:1032300027F83D49019808F063F83B1D0293331DC0
:1032400005938822029B52059B181B6808935A1C01
:103250003CD044219AB20091402A04D80320D11DC9
:10326000814389B2009103991B0C8B4224D0402AE0
:1032700022D80122300008A9FFF710FF021E1BD13F
:10328000380008A9FFF70AFF0400042831D9009A82
:10329000059B9B1880225201B218934240D288238A
:1032A0005B05C118009A09A808F052F81D4B009A56
:1032B00009A9F01808F06CF8009A029B9446634440
:1032C00002931A4B029AFB189A42BAD388235B05E1
:1032D000FC1821680198013908F012F8200007F065
:1032E000CFFF039A07AB5A8030000799FFF706FF1C
:1032F0000400002C03D1002079E70428FBD988239F
:103300005B05E018069907F0FBFF0323EA1C9A43CC
:1033100000D16BE7034B0499E01808F039F865E732
:103320000424ECE704000011FFFFFF7FF80F00000A
:10333000F7B505001400402A21D8002701AE71809E
:103340003780FFF7FEFE042816D93A003100FFF758
:10335000A5FE042810D93688BC420BD0BD4209D046
:10336000221CB44200D9321C064B92B2C11828006C
:1033700007F0EEFF30B2FEBDC04300B2FBE7032012
:103380004042F8E70400001137B5042204000D00A4
:1033900001A81649FFF7CCFF020004280BD1019BBE
:1033A000A34208D3AB4204D0104901A80195FFF70E
:1033B000F9FE01203EBD0E4C23682000019307F06A
:1033C0005FFF019920000139019107F099FF8023E7
:1033D0005B01E418074B9C42EED10422034901A88B
:1033E0000195FFF7DFFE0020E4E7C04655550000D9
:1033F00000C007110000081130B589B007F070FD5A
:10340000102269461E4807F02BFF1E4B009A9A4275
:1034100005D1019B0F2B2FD9029B013301D1002332
:103420000293029B002B03D0049304984168084741
:1034300009B030BD10341022200004A907F010FF9D
:10344000029B013301D1069B0293882304995B05FB
:10345000C918059B06981A03120B04910592814224
:1034600003D02B4201D107F0ABFF019B013B01933D
:10347000019B002BDED1CFE7E025014C2D03F7E7C0
:103480000000011150485936F7B50F490F4B0A6833
:1034900004001A4084235B0013430B6003000327DE
:1034A0001033019300252E00112007F041FE084B38
:1034B0001B683B40AB4002351E43202DF4D1019BDD
:1034C00040C4A342EED1F7BD5CF0004000FEFEFF19
:1034D00064F00040802270B5AD4CAE4BD2000021AC
:1034E00020001C6007F0FCFE2300AB4A88331A6002
:1034F000AA4B1A786E23002A00D01133E3620A2304
:103500002365A74B1878A74BA0630138E361C3B2CA
:10351000032B01D810232362A34B37226361C823F6
:10352000DB00A36123008C331A60082336210F3A95
:10353000E518E16323646264E9670439251DE967DE
:1035400025003B26BC352E602500C0352B602500AC
:10355000C4352A6025000636CC352E602500083E8D
:10356000C8352E602500D03529602100D4310B608C
:103570002100D8310A6021000225E0310D602500CC
:103580004221DC35296025001B3EE4352E602500F4
:10359000E8352B602500EC352A6022000525F43241
:1035A00015602200F0321160220018319032116053
:1035B00022009432136023003C2298331A60AF2318
:1035C000DB002360794B2363032805D807F0A0FFB5
:1035D000330235371523636096232100FA225B00FE
:1035E000A360E360C8332361714BFC319200A36494
:1035F0000A6062626F4A704DA2627322E2656D3AA0
:103600006265A2650232E5644A6002216166962124
:103610008900A166626709210022E166A267674905
:10362000674A684E2167E2673560032811D807F0C2
:103630006FFF96089EA61023CDE70E23CBE70C2341
:10364000C9E720001A259C30056020000735A0300E
:1036500005602000A83003602300FA20F8338000C2
:10366000186023006420A433186023005F38AC3353
:10367000186023000338B03318602300C630B43319
:10368000186023000020B833186023003825FC336D
:103690009D604D4D5A665D644C4D9A64DD61962582
:1036A000AD001D624A4D9A675D62F53DFF3D9D622A
:1036B0001E25484ADD6618675867D9651966DA67B6
:1036C000BE23C021444A5B00E250444B4900635092
:1036D00004316250C4225200A350FA23E4205B005C
:1036E0000432A3500432A3503D493E4A3E4BD160C0
:1036F0003E49800019503E49E938FF3819503D498C
:10370000043019503C491038D1613C4911633C499F
:1037100051633C4911603C49195019003B48F8314C
:1037200008603B49D16582213A4A89005A501A0003
:1037300039490832D1671A003849B43211608821FA
:10374000374A89005A501A00364988321160364A81
:10375000DA6407F03DFD012007F06AFE70BD20002D
:1037600014259C30056020000435A03070E720004F
:1037700010259C30056020000335A03068E720004C
:103780000E259C30056020000235A03060E7C04661
:103790000004FF1FB065FF1FA070FF1F8845FF1FBB
:1037A0004A0AFF1F3A07000080C3C9019A020000BD
:1037B00050C300006A180000280A0000204E0000D4
:1037C00088130000F009FF1F00400011681000007E
:1037D000C4090000DC05000040420F001027000073
:1037E000FD1BFF1FFC00FF1F0000FF1F252FFF1FF9
:1037F0004D32FF1FE530FF1FD91FFF1FF51FFF1FB1
:10380000A121FF1F491FFF1FC528FF1F8D2CFF1F70
:10381000D918FF1FD127FF1F3925FF1F4525FF1F7F
:10382000491EFF1F011FFF1FC11DFF1FF7B50B0C16
:10383000FF270122009300233C001E001D00944638
:10384000019089B262469A4010000840184136182B
:10385000B6B2FF2F02D1012E00D19FB200980240D4
:103860001A41AD18ADB2FF2C02D1012D00D19CB28E
:103870000133102BE6D10320012E07D1012D04D1F5
:10388000019B2401E4191C700138FEBD102EFCD1EF
:103890000238102DF9D00230F7E710B5064C237826
:1038A000002B07D10548FFF7EFFD0548FFF7ECFDBA
:1038B0000123237010BDC0467065FF1F8465FF1F84
:1038C0007465FF1FF0B58BB00D0001230190102926
:1038D00036D8FFF7E2FF00231A001B48C15C013312
:1038E0005218102BFAD1023B002A29D0174B184C42
:1038F0001F68002306A9E25C1600FA5C56405E547D
:103900000133102BF7D102AA07F00AFC2A0002A902
:10391000019807F055FD07F053FC23681B1823603E
:1039200007F04EFC63681B18636007F049FCA3684E
:103930001B18A36007F044FCE3681B18E360002336
:1039400018000BB0F0BDC0468465FF1F2844FF1F60
:103950007465FF1FF0B5022301245E4E5E4D5F4F7C
:1039600033702C703B688FB0552B00D1AEE008202F
:1039700006F068F8002800D1A8E000232100009399
:103980000420574A07F0ECFB8023DB059C62FFF71D
:1039900033FD002006F0EEFA07F052FDFFF79AFD26
:1039A00007F0CEFD1F22012400214E4B0EAF1A70EE
:1039B0004D4B1C704D4B19704D4B19689143163A85
:1039C0000A431A60602219689143403A0A431A6018
:1039D00007F0A6FD07F094FBC120FF21454B8000B6
:1039E0001A588A431A50C522920098588843BF3902
:1039F000014399509858404908408021C90101432A
:103A0000802099509958C0050902090A014399502C
:103A100080213A48490107F0CBFA032322003849B4
:103A200001940093374807F083FA2C22364903A803
:103A300007F08EFC03AC61782078023406F028F899
:103A4000A742F8D10121002006F00CF90121002045
:103A500006F038F90121092006F034F92B4B2C4AE5
:103A6000196803201140A022D2020A431A60802262
:103A7000196892040A431A601968264A1140802284
:103A800092030A431A60244B244A934200D801202F
:103A900007F006FC07F004FD07F0C2FA307807F0E3
:103AA00097FA2878C0B207F053FB07F0D1FB0C4916
:103AB000042007F05DFC06F029FA00F0A3F800F0FE
:103AC00065FD00F00FFA00200FB0F0BD00233B6051
:103AD0005FE7C0464A0AFF1F8845FF1F34F00040D9
:103AE0003B000108480AFF1F490AFF1F680AFF1F21
:103AF000BCF0004000E100E0FF00FFFF8C45FF1F2D
:103B00001058FF1F8C55FF1F70B5001114F00040B6
:103B1000FF7FF8FFFFFF9FFFA070FF1F0080FF1FC8
:103B200070B500252849294A29484D6308CA1B0554
:103B30001B0DED188242F9D10022264B8B63264BD8
:103B400008211A628022254B9205DA67244BDA6835
:103B50008A43DA60234A1278012A03D09A682249FC
:103B60000A409A600121EE242048E40002686C4378
:103B70008A430260DA6811208A43DA6007F070FC39
:103B8000112007F0FDFB112007F0E2FC184A200C81
:103B90000400642390420AD8FA220023D200904203
:103BA00005D9144B0A21C01807F072FAC3B2124AA1
:103BB0001372124BD4801B78002B04D1104B1021B0
:103BC000187807F03DFB70BD0000054088050540F2
:103BD00000060540FF01000000F0004004E100E0A5
:103BE0003CF000404A0AFF1FFFDFFFFF00380040A3
:103BF000B70B000030F8FFFF0863FF1F2C65FF1FA5
:103C00002063FF1F002210B51100112007F0C8FA31
:103C100010BD0000F8B5002301250826394F3A4CA5
:103C20003B62E3681120AB43E360E368B343E360C6
:103C300007F0A6FB112007F013FC112007F0C0F9D4
:103C40004023226829001343236080236268DB023B
:103C5000134380226360A36807201343A360A36813
:103C60002A4A1340A3608023A2689B0113431022B9
:103C7000A360236C93432364236C2B43236480232E
:103C80005B003B62226B224B1A402263626B1A403C
:103C90006263A26B1A40A263E26B1340E3631D4AA6
:103CA000E3681340E36005F0DDFF2900072006F01C
:103CB00009F88021184A1120536C0B43536407F014
:103CC00027F9FD21154B164A89005A508023C72039
:103CD000626B5B0313436363E36880003343E36019
:103CE000E368104A1D43104BE560195811408022CB
:103CF00012020A431A50802292051A600B4B5E632F
:103D0000F8BDC04600F000403CF00040FFFFDFFF80
:103D1000EFFFEFFFFFFF7FFF003800400000FF1FB5
:103D2000213B0011FF00FFFF00E100E00000054023
:103D300030B503A804880B20002C0ED14968074D2C
:103D400008784978090201430A20A94205D10121D6
:103D500020001980024B1B7A137030BD192A000015
:103D60000863FF1FF7B5150008AA16884A680F4FA9
:103D700014785278120222430A24BA4214D1012242
:103D8000DBB2019200962A0007F010F8041E0BD156
:103D9000074B1B68002B07D068782A780002104375
:103DA00042425041013098472000FEBD02290000E8
:103DB0009062FF1F30B5012503790400BFB02B428C
:103DC00012D00A49408806F05DFB28420CD06A46B2
:103DD000074B69465B8D55801380064B60881B7AC4
:103DE0001371002203F010FC3FB030BD8862FF1F4A
:103DF000D041FF1F0863FF1F10B50549054806F0B5
:103E0000F7FA0421044A054806F0B4FA10BDC0468A
:103E10008862FF1FFFFF00009CB50011D041FF1F0B
:103E200010B5024804F076FA10BDC046B53D001149
:103E30000623837010330371443B43712A3383712B
:103E40004433C37100230222012110B503720E4BCB
:103E5000027041701C8881724472197A0273C172B7
:103E60009A784273DA7882730322C2731A790274E1
:103E70005A7942740C2282749A79C274DB79037580
:103E80001123C37010BDC0460863FF1F10B5142076
:103E900007F0B6F9124B14220021186007F078F9E8
:103EA000002007F05DFA012007F062F9022007F018
:103EB000EFF9032003F0D2FC042005F0E7FC052015
:103EC00002F020FF062003F0DDFB072000F080FF5A
:103ED000082006F02FFA092000F08AFD10BDC04628
:103EE0009462FF1F10B507F08BF8012007F020FA4D
:103EF00006F0EEFF002010BDF7B50E00377A1C006B
:103F000008AB11003D001A8820231D401F423DD1FF
:103F10003378022B3CD173681F785B781B023B43DC
:103F20001E4FBB4208D01E4FBB4217D01D4DAB42A7
:103F300022D00A252800FEBD002A2BD1142C2BD814
:103F40002200F06807F03CFA174B1C70012CF1D9E5
:103F50004021164B187807F073F9EBE7002A19D1C6
:103F6000202C19D82200F06807F02AFA104B0421FF
:103F70001C700E4B1878EEE7E3B201240092019416
:103F80000A00310006F012FF0500D3E70825D1E74B
:103F90000125CFE70B25CDE70D25CBE7F3FF00008B
:103FA000F4FF000002290000C262FF1F2063FF1F10
:103FB0009862FF1F094B10B50400984205D00129F3
:103FC00004D12000064906F013FA10BD0229FCD1E5
:103FD000013904F05DF90028F3D0F6E7FEFF000098
:103FE000BA62FF1F70B50D7A100004AA2C00168863
:103FF00010221440154220D1002E20D10A78022A26
:1040000018D14A68517815780E4A0902294391421D
:1040100005D00D4A914209D01C800A2404E01422E4
:104020000A491A8007F0CCF9200070BD0C2208491B
:104030001A80F7E71C800124F6E70824F4E70B2434
:10404000F2E7C046F3FF0000F4FF00000C44FF1F3E
:1040500070B6001110B504000749084806F0C8F909
:10406000074804F097F80020E40704D50721054A23
:10407000054806F07FF910BDBA62FF1FFFFF000080
:10408000B53F0011E0B500111442FF1F00B5BFB0ED
:104090006A460B4B0B491B8801A813800A4B1A7800
:1040A00000F0A8FA6B4680B25880002805D0074B74
:1040B00000226946188803F0A7FA3FB000BDC04649
:1040C0006E42FF1F9962FF1F9862FF1F6E43FF1F22
:1040D00000B5BFB06A460B4B0B495B8D01A813803E
:1040E0000A4B1A7801F0EEF96B4680B2588000282E
:1040F00005D0074B00226946188803F085FA3FB0C7
:1041000000BDC0461442FF1FC362FF1FC262FF1FF3
:104110006E43FF1F70B5160004AA148805AA15780F
:104120004A685078117800022A4A08438018052806
:104130004BD807F0EDF903131E29343F0720042C58
:104140000BD80522121BAA4200D92A0022491A8044
:104150003000091907F034F9002070BD0720112C38
:10416000FBD81222121BAA4200D92A001B491A802E
:10417000EEE707200E2CF0D80F22121BAA4200D91E
:104180002A0017491A80E3E70720032CE5D8042208
:10419000121BAA4200D92A0012491A80D8E7072028
:1041A000032CDAD80422121BAA4200D92A000E4995
:1041B0001A80CDE70720032CCFD80422121BAA4275
:1041C00000D92A0009491A80C2E700220A201A8071
:1041D000C3E7C046DCD5FFFF2BB60011E062FF1F2E
:1041E0001BB6001116B6001111B600110CB6001165
:1041F00010B50D21024A034806F0BCF810BDC046B8
:1042000000B600118442FF1F10B50021162005F0F2
:1042100095FD0121152005F091FD06F019FF040020
:10422000092006F0CDFE0022184BDA6661321A60D2
:1042300019685B3A9143023A0A431A60144A94425D
:1042400009D10A22DA6107321A6200221A639A63DC
:104250000132DA6310BD0F4A944203D11E22DA61A3
:104260000532F1E70C4A944203D13022DA6106327A
:10427000EAE70A4A944203D14322DA610832E3E7CB
:10428000074A9442E1D16922F7E7C0460050004056
:104290000024F4000048E801006CDC020090D00328
:1042A00000D8B80510B50024064B0920DC6607F0DD
:1042B00067F82100162005F0D5FC2100152005F037
:1042C000D1FC10BD00500040F8B51C000023134D78
:1042D0000F00EB666860160006F002FE01238022E4
:1042E000EB6623002F615200013B08D206F0F0FF7D
:1042F00008200B4A1168002C03D12000F8BD2A6168
:10430000F2E72B6F034203D02B69013C3370013677
:1043100013685B1A012BEED90124EEE70050004030
:104320006008FF1F002370B5124D1400EB66686033
:104330000E0006F0D5FD01238022EB66230052001B
:10434000013B08D206F0C4FF08200B4A1168002C7C
:1043500003D1200070BD2A61F2E72B6F034203D026
:104360002B69013C3370013613685B1A012BEED9BF
:104370000124EEE7005000406008FF1F002370B5E5
:104380000C4C0D00E366606006F0AAFD0123E366B5
:10439000256106F09DFF8020074A80001168636B4D
:1043A000034205D113685B1A012BF8D9012070BDB7
:1043B0000020FCE7005000406008FF1F002370B59C
:1043C000134C0E00E3666060150006F089FD0123C2
:1043D000E36626610F33626B1A42FCD02B0A23611D
:1043E0001023626B1A42FCD0EDB2256106F070FF1B
:1043F0008020084A80001168636B034205D113686E
:104400005B1A012BF8D9012070BD0020FCE7C046E3
:10441000005000406008FF1F13B5344C237C002B74
:104420005FD0FFF7F1FE207C38283FD10722694694
:10443000FFF778FF002854D16B461B787F2B50D8AC
:10444000CC22AC219201207CFFF7B8FFFFF72AFFB6
:104450006B46D878F02302041B031A406B469B88F6
:1044600023495BBA9BB21A4323680009534322894C
:104470001B0C9B184B806B465A789B7812031B01D0
:104480001A4302436368534362891B0C9B181BB297
:104490008B80002B04DA0022154B9A80002016BD79
:1044A000144A9342FADD124B124AF6E76946042297
:1044B000FFF738FF011E14D1207CFFF75FFFFFF7E5
:1044C000F1FE6B461A88236852BA92B2534322898E
:1044D00007491B0C9B184B806B465A8852BA92B204
:1044E000D0E7FEF78DFD0120D9E7C046F462FF1F3B
:1044F0000863FF1F0F27000010B51B4B1A793F2AD6
:1045000001D93F221A711979184A194811701822D5
:104510001849028018480A8002804A809A79174810
:10452000802402800C208A80013242432401101C26
:10453000A24200D9201C124AC88010805A79002A51
:1045400001D101325A711A7A002A01D101321A724C
:104550005A791B7A0B4853430A21584306F098FDB9
:10456000094C206010BDC0461463FF1F480AFF1F9E
:104570006C43FF1F3445FF1F6A43FF1FF864FF1F92
:104580006843FF1F710200002463FF1F10B506215E
:104590000020FEF7F9FE124C002807D10C22200063
:1045A000104906F00DFFFFF7A7FF10BD0C222000F9
:1045B0000D49FEF7BDFE0C2804D00C22200009494D
:1045C00006F0FEFE094C0C2220000949FEF7B0FE61
:1045D0000C28E8D00C220021200006F0D9FDE2E7EB
:1045E0001463FF1F64B60011FC0C0000F462FF1F8F
:1045F000F50C0000F0B504000D00160085B0002A8F
:1046000000D1C5E00878002120706170262800D113
:104610008BE00CD8072805D806F07AFF4D2828280B
:1046200028A09992252868D0FF236370A5E07128FF
:1046300000D19AE014D8552845D05628F4D17A4DA7
:104640000C227A49280006F0BBFEFFF755FF0C222A
:1046500077492800FEF7A6FD0C222900601C46E0E1
:10466000722800D18BE0DC2800D193E0DB2800D059
:10467000ADE0042ED8D9AA786B7812021A43EB78F1
:1046800010271B0413432A7912061A430192052EA0
:1046900005D0771F3A000198691D06F091FE0522AA
:1046A0002900200006F08CFE3A000199601D06F0FA
:1046B00087FE781D05E00C2220005E4906F080FE92
:1046C0000C2005B0F0BD013A574E0C2A13D8002A31
:1046D0000AD0691C300006F073FEFFF70DFF0C22B4
:1046E00030005349FEF75EFD0C223100601C06F0DD
:1046F00067FE0D20E5E70C22EBE7013A4E4E0C2A4F
:1047000011D8002A08D0691C300006F059FE0C228E
:1047100030004A49FEF746FD11223100601C06F0C8
:104720004FFE1220CDE70C22EDE7434D1122280069
:1047300006F02EFDFEF764FC11222900601CEEE756
:1047400012223F49601C06F03BFE1320B9E7082205
:104750003C49601C06F034FE0920B2E705223A49C4
:10476000601C06F02DFE0620ABE76978F72900D91A
:104770005AE7364B188801F0FDFA0220A1E700F055
:1047800013FB012E02D06A78314B1A6006F0B8FE96
:10479000002096E7022A00D846E76B786370AB7872
:1047A000A3706F781B021F43032A05D0033E390014
:1047B000B2B2E81CFEF7F6FC10223900E01CFEF74E
:1047C000B7FD03000330002B00DB7AE72DE7DA2882
:1047D00000D029E7042E00D826E7AB786A781B02C0
:1047E0001343EA7812041A432B791B061343082E4D
:1047F00016D9AA79697912020A43E97909041143A1
:104800002A7A12060A4303921A601B6805222900BD
:104810002000039306F0D4FD0422601D03A999E74C
:10482000FE226270F1E7C0461463FF1F64B60011F8
:10483000FC0C000070B60011F462FF1FF50C0000C4
:10484000E062FF1FA844FF1F0063FF1F6E43FF1FAE
:1048500034F0004070470000013870B5042809D8D2
:1048600006F056FE030921081200144B02211878A5
:1048700006F0E6FC70BD114B0821187806F098FC94
:1048800000220F4B1A71F5E700240D4B0B4D082148
:1048900028781A681C719C7106F0A2FD2100287806
:1048A00006F006FEE6E70123054C0821A371034B41
:1048B000187806F07DFC00232371DBE72063FF1FDF
:1048C0002463FF1F10B5002903D10920013105F031
:1048D000F9F910BD10B5084B084C9881D8811882A1
:1048E0005882207802F0ACF80422054B0121207890
:1048F0001A7006F0A5FC10BD3244FF1F5A65FF1F59
:104900005965FF1F10B501290DD11322064B002157
:1049100009209A7105F0D6F9044B1B78002B02D0C0
:104920000348FFF7D7FF10BD2463FF1F2C65FF1F4F
:10493000C40900000300F0B50A4D8E18B14202D13F
:1049400052008018F0BD0C782F6824093C5D0F27B9
:104950001C700C7801313C402F683C5D5C70023368
:10496000ECE7C0466443FF1F10B50A4A0A49082015
:1049700005F0AAFA092005F091FA0121092005F0B5
:10498000A1F9002005F08AFA0121002005F09AF92A
:1049900010BDC046C54800110549001110B5114BA6
:1049A0001A781870002A0ED000280BD10E4B1A78F6
:1049B000062A07D85423D340DB0703D50B4B1878BE
:1049C00002F03EF810BD0028FCD0074B1B78012BED
:1049D00002D0033B022BF5D8044B0121187806F0D6
:1049E0002FFCEFE72C65FF1F5965FF1F5A65FF1F5E
:1049F000F7B5524D2D242870FFF7B6FFFEF700FBE8
:104A000006F05EFD03224E494E48FFF793FF030078
:104A100004221C704C490130FFF78CFF3023022226
:104A2000047043708370494C494B2000DA8706F0CC
:104A30005FFA022815D0062220004649FEF778FCCE
:104A400006280ED00321200006F072FD8D23E370AE
:104A50006E3B23710622193320003E496371FEF735
:104A6000A1FB0E233C4F3D4C3D4E3B70013B237060
:104A70000522043B30003B496370019606F0A0FC20
:104A80002D23012238493948E371FFF753FF0122F2
:104A90003749FFF74FFF01222C49FFF74BFF00205A
:104AA000FFF77CFF334E344A30780121334B1278C4
:104AB00001F088FF3A78012723003078002101F0C7
:104AC00081FF21782E4B0139019AC9B200201F7055
:104AD00005F06EFBFA221E4B52019A81DA811A828E
:104AE0005A822021287806F003FD0120404205F07B
:104AF000ABFB0120404205F047FCFFF779FBFFF7D5
:104B00007BF900F077FC01204042FFF7A3FA380060
:104B100006F08EFB380006F003FAF72001F00EF9DC
:104B20003900287806F08CFB287802F0E5F8154863
:104B300006F0D6FAFFF76EF8F7BDC0462063FF1FF8
:104B4000A844FF1FE062FF1F0063FF1F6509FF1FEE
:104B50003244FF1FADAC00002865FF1F0965FF1F31
:104B60000B65FF1F2BB600116709FF1F1165FF1FA3
:104B70006609FF1F5A65FF1F9643FF1F7743FF1FFC
:104B8000FA64FF1F2C63FF1FF8B50A0020230D00F5
:104B90001A40194232D0444B1B78002B2BD0434C87
:104BA000434E23790133DBB22371327A9A4215D80E
:104BB00000272771FFF730FC63790133DBB26371A3
:104BC000727A9A4202D86771FFF724F8394F380099
:104BD000FFF72EF93900152006F012FCA379002BFF
:104BE00009D0013BDBB2A371002B04D1707964338F
:104BF0005843FFF76FFE20206840F8BD0BB2002B32
:104C00000ADA2D4B187806F033FA002801D006F0A6
:104C100047FA80200002EFE702240E0026402142DE
:104C200006D0224B01201A71FFF7B8FE2000E3E7FF
:104C30000B0711D5FFF7F0FB00F0F6FB1B4A1C49F0
:104C400053790133DBB25371497A994202D85671D4
:104C5000FEF7E0FF0820CFE710240E002640214297
:104C600006D0114B1B78002BE0D1FFF7D9F8DDE718
:104C70000124214209D0114800F06EF806F078F9BD
:104C80003100092005F01EF8D0E70424214202D0AB
:104C9000FFF7FCF9CAE74024080020402142ACD0CD
:104CA000FFF716FAC2E7C0462C65FF1F2463FF1FFB
:104CB0001463FF1F7743FF1F2063FF1F5C43FF1F29
:104CC000F0B51B4B1B4F1B883A8804001A4E1B4D36
:104CD00085B09A420DD832889A420AD3184B1A8866
:104CE0002B889A4205D1174A174B12881B889A4283
:104CF0001BD0052001F078F83B8802AA1380338886
:104D0000019053802B88114D93800F4B02A91B8873
:104D1000D3800F4B2A78188802F084FD0D4B0821B0
:104D20002878019A1C7006F013F905B0F0BDC04652
:104D3000F664FF1F6C43FF1F6A43FF1FF864FF1FE9
:104D4000F464FF1FF264FF1F6843FF1F5A65FF1FD3
:104D50006E43FF1FF064FF1F13B50C4B1C78002C33
:104D600011D1002801D00A4B18600A4A0A4B117869
:104D70000A4A10780A4A01920A4A0092002205F073
:104D80000FF9200016BD1124FBE7C0465965FF1F2F
:104D9000EC64FF1F5865FF1F4865FF1F5A65FF1F22
:104DA0003465FF1F3865FF1F10B5064B12201B78B6
:104DB000052B06D1044B13221988044B187801F0F7
:104DC000EFF910BD5965FF1F6E43FF1F5A65FF1FA6
:104DD00010B500240122114B52421870104B1C7068
:104DE000104B1A8001F088FF04220F4B21001A702B
:104DF0000E480C3206F0CCF9102221000C4806F0C7
:104E0000C7F907220B4B1C600B4B1C700B4B1C7023
:104E10000B4B1A700B4B1C7010BDC0465A65FF1F20
:104E20005965FF1F6E43FF1F5865FF1F4865FF1F31
:104E30003865FF1F3465FF1F0865FF1F0765FF1FEB
:104E40007043FF1F0665FF1FF8B5174C0600257855
:104E500006A814240078052D23D1B41F134FA5B242
:104E60001824BD421DD88D1FADB2BD4219D8FA25F8
:104E70006D00AA4215D21D000D4F0A3DADB2BD42D4
:104E80000FD80C4C26800C4C21800C4900240A8041
:104E90000B4A1380FFF714FF0A4B0421187806F021
:104EA00087F92000F8BDC0465965FF1F790C000046
:104EB000750C00006C43FF1F6A43FF1FF864FF1F5F
:104EC0006843FF1F5A65FF1FF0B50BB20D0089B094
:104ED000002B00DB76E1A64E307806F0C9F8041E00
:104EE00055D00378A22B00D127E1D02B1AD0912BDB
:104EF0004AD143780E2B47D19E4B82889A4243D1A8
:104F00009D4A83681278052A3ED1032018567F28CF
:104F10003AD09A4B1B68002B36D05B68002B33D0FD
:104F2000984731E0807807282ED806F0F1FA042D52
:104F30001D444479ADDD6378002B11D10622E11CBC
:104F40008F4806F03DFA01218B4B19708D4B1A7872
:104F5000002A5BD08C4B307801F034FD002855D00E
:104F60000722854B1A7051E061780029F8D1E37867
:104F7000002B11D0854A864B1278307801F022FD43
:104F800060706378002BEBD1200006F089F8802058
:104F90000002684009B0F0BD774B1B78022BF3D0BC
:104FA0000121307806F0CCF90028EAD101213078CF
:104FB00006F046F9E5E76378002BD1D16E4F032860
:104FC00007D13B78052B02D101333B701EE0022351
:104FD000FBE7704B1A88704B0293002A0BD01B78AA
:104FE000002B03D00121307805F0B2FF3B78062B6F
:104FF00004D1013BE9E7029B1A70F7E7042B41D18A
:105000000121029B3078197006F01AF95B4B1B687E
:10501000002BB9D01B68002BB6D0574A10787FE719
:105020006378554F002B27D10622211D5B4806F0DF
:10503000C7F962895A4B5B491A80A2895A4B1A8078
:10504000E3890B800521397058490A80584A13803A
:10505000228A584B1A80584B1B78012B09D11F20EC
:1050600000F0C2FEFA22920042430421307805F09B
:105070006FFF0022484B75E7312B00D070E700220C
:10508000454B1A700323A0E706220021434806F08F
:105090007FF80023454A04211380454A3078138065
:1050A000444A138006F084F80821307806F080F82E
:1050B000A379083B5A4253412F4A03331370314BB3
:1050C0001B78002B06D0344B30781A78002A06D093
:1050D00001F0B6FC0122324B52421A8096E70121C0
:1050E000197006F0ADF8F5E70821307806F060F8A1
:1050F0006378002B00D047E72C4B2E4F0293E388B8
:10510000029A042113802A4B307803932389039A4F
:10511000138063893B8006F013F9002800D033E741
:10512000264B1B68002B00D12EE7039902983A8882
:10513000098800881B68984726E74379132B00D01D
:1051400022E70389012B0AD11D4B1B78022B06D1C4
:105150000821307806F02CF8FFF726FE14E705202A
:1051600000F042FE08210200307805F0F1FE0BE766
:105170005A65FF1F051400005965FF1FEC64FF1FEF
:105180002D65FF1F9643FF1F7743FF1F2865FF1FF5
:105190000965FF1F2A65FF1F2C65FF1FFB64FF1FAA
:1051A0006E43FF1F0265FF1F0465FF1FF664FF1FAC
:1051B000F464FF1FF264FF1FFA64FF1FE864FF1F1F
:1051C000F064FF1F8020C001014200D0E1E6CB0760
:1051D00031D5324B1B78002B1DD0314E05AC3378C6
:1051E000052B1AD1023B23702E4B21001B78237212
:1051F0002D4B1B7863722D4B187801F087FB00282C
:1052000009D007202A4B30701B68002B03D01B6885
:10521000002B00D098470120BBE60E20254B06222C
:105220001B7825492370254B1B78637002ABC0188F
:1052300006F0C6F8D8E7022308001840194209D042
:10524000174B1B78052B03D11D4B188806F0E8F887
:1052500002209EE60424214203D0FFF731FD200006
:1052600097E6082308001840194200D192E6154B32
:105270001C78012C03D0022C0DD0082089E6124B9B
:10528000124A134913481B88128809880088009421
:10529000FFF7DAFDF1E7FFF787FDEEE72C65FF1F6B
:1052A0005965FF1F7043FF1F0665FF1F5A65FF1FEB
:1052B000EC64FF1F0865FF1F7143FF1F0765FF1F99
:1052C0006E43FF1FF064FF1F6843FF1FF864FF1F5A
:1052D0006A43FF1F6C43FF1F10B502A804880B2010
:1052E000002C10D1496808784978090201430C481C
:1052F000814209D1022119800A4B59881170DB784B
:1053000000205BB2537010BD074C0A20A142FAD1B5
:1053100002211980034B998811705B79F0E7C04630
:105320006E2A00000863FF1F6F2A0000F7B5150002
:1053300008AA16884A680F4F14785278120222433E
:105340000A24BA4214D10122DBB2019200962A004B
:1053500005F02CFD041E0BD1074B1B68002B07D05A
:1053600068782A7800021043424250410130984741
:105370002000FEBD022900006C65FF1F30B501252D
:1053800003790400BFB02B4227D01549408805F0AF
:1053900079F828420DD06A46124B69465B8D13801E
:1053A00002235380104B5B8893806088002202F0B8
:1053B0002BF90E49608805F065F8C0070DD56A46DF
:1053C0000B4B69461B88138002235380064B9B8836
:1053D00093806088002202F017F93FB030BDC046CC
:1053E0006465FF1F9843FF1F0863FF1F5C65FF1F75
:1053F000F243FF1F10B5074C0749200004F0F8FFE7
:105400002000064904F0F4FF0721054A054804F08E
:10541000B1FF10BDFFFF00006465FF1F5C65FF1F4B
:10542000F0B600119843FF1F10B5024802F072FF5A
:1054300010BDC0467D5300110200F0B501270A4897
:105440000A4E51188B1A002B00DCF0BD0824157889
:105450004308684038404000805B013C58406D087C
:10546000002CF5D10132EDE7FFFF00000AB7001173
:10547000F0B500250F269D4200DBF0BD4C5D07090D
:1054800044403440A400A05801357840F3E70000C0
:10549000F0B589B06A460D000B000F2711001035DA
:1054A0001C780133260024093E40167054700232E5
:1054B000AB42F5D12023024AFFF7DAFF09B0F0BD75
:1054C00010B70011F0B54E780B7889B036020D0098
:1054D000170001901E43012A5AD9934B9E4200D8CF
:1054E00071E001339E421CD1062A17D1CA788B780D
:1054F00012021A430B791B0413434A7912061A430A
:105500008A4B5A6100221A705A80894A5A60894A25
:105510009A60894ADA60002009B0F0BD88225205FD
:10552000EEE7864B9E4235D180498B78002B00D028
:10553000F0E00C2A2AD10F22AB789343EA781202CA
:1055400013432A79120413436A79120613434B60FA
:10555000EA79A87912020243287A000410436A7A91
:1055600012060243CA60EA7AA87A12020243744819
:105570004A81834200D8CFE01201D21889235B050B
:105580009A4200D9C8E001238B70C4E7022AFAD0FE
:105590000523ADE06B4A0123964200D0A8E0FFF757
:1055A00003FC052F0CD9EB78AA781B0213432A7948
:1055B00012041A436B791B061343634A0393136067
:1055C00005F09EFFA7E7594C2378002BA3D1A378C1
:1055D000002B00D1A2E02289531C9BB29E4200D036
:1055E00093E0132FD4D9CF7C8B7C3F02122128006B
:1055F0001F43FFF721FFB84200D091E0002E3DD1BC
:10560000EB78AA781B0213432A7912041A436B79A8
:105610001B061343E26803939A4200D082E0FF2303
:10562000AB70EB702B716B716389002B16D06068C7
:1056300037013818000B636900030390984205D9BD
:10564000606105F01DFEE3780133E37060681022AD
:10565000A91C381805F09CFE26815CE7EB7B2A7CB0
:105660001B0212041343AA7B134303931B09013348
:1056700063816389B342DAD8092339E067897B1EE5
:105680009BB29E42F5D1EB78AA781B0213432A798C
:105690002E4E12041A436B7965681B0613433100C2
:1056A000042204A8039305F08BFE291D0C2205A8F3
:1056B00005F086FE012004A940421035FFF7E8FE00
:1056C000013F012F1CD1039A0B23206182420FD18D
:1056D00004223100606805F05BFE042203A96068C3
:1056E00005F0EEFCE168039AFF23914200D0F73BFE
:1056F0000E49142201980B7005F062FE14200BE78E
:105700002900FFF7C5FE1035DAE70723964200D8D7
:1057100001E7EDE70223EBE70423E9E70323E7E7EB
:105720000623E5E70A23E3E7FFFE00000C44FF1F22
:1057300000000111FFFF00005048593601FF000032
:10574000FFFF001102FF000034F000401844FF1F6B
:1057500010B5034C0B000122210000F06BFA10BDC4
:10576000115900110B8870B506000D000224162B8C
:1057700011D92B000322094900F05CFA041E0AD15A
:10578000074B2A881B88191C934200D9111C300032
:1057900089B200F0EFFA200070BDC0463D590011FB
:1057A000CA65FF1F10B54A780400013A0B000220B9
:1057B000012A07D80A78002A04D0052220000249CD
:1057C00000F038FA10BDC0466B5900110A7810B5C8
:1057D0000B0004000220002A04D007222000024906
:1057E00000F028FA10BDC046175A00110A7810B50B
:1057F0000B0004000220002A04D0092220000249E4
:1058000000F018FA10BDC0467D5A001110B5034CC7
:105810000B000B22210000F00DFA10BDAD5A001153
:1058200010B5034C0B000D22210000F003FA10BD4F
:105830001F5B001110B5034C0B000F22210000F07C
:10584000F9F910BD795B00110A7810B50B0004005E
:105850000220002A04D011222000024900F0EAF9B7
:1058600010BDC046895B0011002310B5132219003A
:1058700000F0E0F910BD000010B5034C0B0017223A
:10588000210000F0D7F910BDDB5B0011002310B53B
:105890001922190000F0CEF910BD000010B5034C1C
:1058A0000B001B22210000F0C5F910BD155C001192
:1058B000F7B584890D0006000121002C22D00023B9
:1058C0008268D3561778002B1EDA0C2C1AD90C3CA0
:1058D000A4B2131940880093230002F076FE431E01
:1058E000984101307B06DB0F6B703F23013C1F406A
:1058F000A4B22870AF70AC80002C07D0B36801331D
:10590000AB6000210800FEBD0020EBE7AC60F8E7CB
:105910000B7803704B8843704B881B0A83700B799C
:10592000C370042070470420022B06D10020537856
:1059300011781B02009A0B43138070470B88037089
:105940000B881B0A43700220704704200099834291
:105950000AD1537810781B0203430B80D3789078D8
:105960001B02034300204B807047F8B50D004B78B5
:1059700001240021461C03702B788B4201D82000A3
:10598000F8BD6B78B01C4F1C012B10D18900691831
:105990004B88022233704B88B9001B0A7370691858
:1059A00005F00EFD04360434A4B2F9B2E4E7122384
:1059B00059436B185A88043132705B8810221B0AD5
:1059C0007370691805F0FCFC12361234ECE770B500
:1059D000049D14001E00052B01D8042070BD6378BF
:1059E00012781B0213432B80E378A2781B02134327
:1059F00002226B802A71211D681D063E05F0E0FC25
:105A0000B2B22A81F02AE8D82800A11D0A3005F098
:105A1000D7FC0020E2E7002310B50A789A4201D8AB
:105A2000900010BD9A008A1854880133047054887D
:105A3000DBB2240A4470948884709288120AC2707F
:105A40000430EAE710B51100029C062B04D00420B4
:105A50001022142B01D010BD022222714B7808783D
:105A60001B0203432380CB7888781B0203436380A7
:105A70000431601D05F0A4FC0020ECE710B50C78A3
:105A80008B7804315C43E4B203702200013005F0EE
:105A900097FC601C10BD0420022B06D10020537817
:105AA00011781B02009A0B431380704710B50C004D
:105AB0000A88023105F084FC208810BD70B504000E
:105AC0000D0004981100012B01D8042070BD167838
:105AD00052781202324302800200F832557014707C
:105AE000E825002C00D10C35023B9AB24280AA4234
:105AF000EBD80231043005F063FC0020E6E7042017
:105B0000009983420AD1537810781B0203430B801B
:105B1000D37890781B02034300204B80704710B568
:105B20000C000A88023105F04BFC208810BD0000F3
:105B300070B501211E000420049C0E400B4218D1B8
:105B4000CB40DDB28D4214D90A49DBB209889942B3
:105B50000FD32300F6331D70330058001118497815
:105B6000165C0902314301332152D9B28D42F4D877
:105B7000002070BD2C44FF1F10B50C000A880231B4
:105B800005F01EFC208810BD10B50C788B78043110
:105B90005C43E4B203702200013005F011FC601C8C
:105BA00010BD10B511000298032B01D8042010BDC0
:105BB00014785278043B120222430280CA788C780F
:105BC0001202224342809AB28280F22AEED8043135
:105BD000063005F0F5FB0020E9E710B50C000B8856
:105BE00003700B881B0A43704B8883704B881B0A19
:105BF000C3708A880430063105F0E2FBA0880430C7
:105C000080B210BD0420012B03D100201378009A2C
:105C10001370704710B50C000B8803700B881B0ABB
:105C200043704A880230043105F0CAFB60880230B4
:105C300080B210BDF0B589B003931E4B02924200B2
:105C40000700D05A019102F010F81325061E2DD03E
:105C5000029B01240370019B002B04D000190399BF
:105C60009847001984B26B461B7A5BB2002B0FDA9F
:105C70001021380002F00CFB1925002813D1300048
:105C80003219E1B202F056FC051E0CD10C34A4B25C
:105C9000042304AA380005A993800696948101F094
:105CA0009FFD051E02D0300005F082FB280009B0E0
:105CB000F0BDC046C865FF1F70B505000C00002888
:105CC0000CD00020814209D010222000044905F0A8
:105CD00077FB01202B7823736B78637370BDC0460C
:105CE00050B70011F0B506000D0017001C0085B07C
:105CF00002291BD00020102907D1022B07D0102B1E
:105D000003D115E00020102C08D005B0F0BD694685
:105D10003800FFF7D1FF2A0069460BE069463000E2
:105D2000FFF7CAFF22006946380004E0022BE9D1E0
:105D30002A003900300005F053F9E6E7031CF72884
:105D400000D9F723032008499AB2013A0B80D317F0
:105D5000034006499B189B100B80D30F04499B18E6
:105D60005B100B807047C0463044FF1F2E44FF1F5E
:105D70002C44FF1F034B1B888B4202D3024B400075
:105D8000C15270473044FF1FC865FF1F014B4000E0
:105D9000185A7047C865FF1F1722014B1A807047B9
:105DA000C865FF1F70B505000E2005F031FB041E0D
:105DB00013D0D02303700023062283700749457057
:105DC000033005F0FDFA064B2100DA8A62811B7E62
:105DD0002373044B187805F093F870BDE465FF1F3A
:105DE000D465FF1F8044FF1F262803D8024B4000C4
:105DF000C05A70470148FCE73244FF1FFFFF000014
:105E000070B506000C00094D1C220021280005F089
:105E1000BFF9074B1E70074B1C7005F0C1F801233A
:105E2000002801D0002312202B7070BDD465FF1F05
:105E30008044FF1FF565FF1F70B505000D4C08007D
:105E4000E260A16010220021656005F051FA01288E
:105E500003D11021A06802F048FD10220021280083
:105E600005F046FA012803D11021606802F03DFDDB
:105E700070BDC046D465FF1F70B5041E05D1002952
:105E800003D006220D4805F09BFA0D4B1D78012D1D
:105E900011D1002C05D102221A7005F0F1F828006A
:105EA00070BD00221A70074B1B78FF2BF7D0200023
:105EB000FFF778FFF3E70025F1E7C046E465FF1F31
:105EC000D465FF1F8044FF1F030010B5002801D1D7
:105ED000002010BD00780B4A002803D15988D182D8
:105EE0001B7913761378022BF2D10023984200D14C
:105EF00003331370044B1B78FF2B01D0FFF752FFC5
:105F00000120E6E7D465FF1F8044FF1F002911D060
:105F100000280CD04B79012803D140225242134370
:105F200003E03F221340032802D001204B71704749
:105F30004022F4E70800FAE770B5094D010028781F
:105F400000280BD0074C0622200005F039FA21006A
:105F50002878FFF7DBFF200005F03AFA70BDC04655
:105F6000F465FF1FCE65FF1F00290AD0012808D164
:105F70003F224B799343C02B03D0403B5A425341BD
:105F8000981C704770B5174D06002B78FF2B15D065
:105F90000A2005F03DFA041E10D0D0230370C83B40
:105FA0008370114B11491B784670C3700622043070
:105FB00005F006FA2100287804F0A2FF0C4B1B78AC
:105FC000012B0DD10B4B1B68002B03D09B68002BC2
:105FD00000D09847084B04211878084A05F000FAC9
:105FE00070BDC0468044FF1FF465FF1FCE65FF1FD4
:105FF000F065FF1F1C66FF1F2066FF1F60EA0000A0
:10600000014B98687047C046D465FF1F014BDB68A1
:1060100018687047D465FF1F074B10B5DA6813681E
:1060200001331360054B1878FF2803D08021C90184
:1060300005F006F910BDC046D465FF1F8044FF1F60
:10604000F7B50E0002F0B8F8051E1CD00E4B066224
:106050001F78002F00D10778AB791020019305F04D
:10606000D7F9041E0FD0D0230380C73B8370019B58
:10607000E91DC3700622043005F0A2F921003800A2
:10608000E66004F03DFFF7BD7E44FF1F014B18782A
:106090007047C046F465FF1F054B002805D1054B2E
:1060A0001A78054B002A00D1014B18007047C046F2
:1060B000E465FF1FF465FF1FCE65FF1F014B5868A5
:1060C0007047C046D465FF1F024B1868431E9841B5
:1060D000C0B27047F865FF1F421E03000120152A59
:1060E00003D9FF3B5A425341D8B27047F0B51C0068
:1060F00000230E0085B0039002920B70029A934227
:1061000001D3002019E0E55C5A1CD2B2002DF8D072
:10611000029851198142F4DC0233DFB2A35C18000B
:106120000193FFF7D9FF002807D0013D019A039999
:10613000EBB233708A4202D1E01905B0F0BDDB1931
:10614000DBB2DBE710B50C0002F08EF80300122082
:10615000002B03D02100588805F022F910BD000063
:1061600070B50E4D84006359002B15D0186A0028B5
:1061700001D004F09DFF2B59586A002801D004F08B
:1061800097FF2B59986A002801D004F091FF2859F5
:1061900004F08EFF00232B5170BDC0460466FF1F24
:1061A0001C4B70B504000E00150099420AD11A4B21
:1061B0001B68002B01D1122070BD1B68002BFAD088
:1061C0009847F9E7154B994215D1134B1B68002BE3
:1061D0000AD01B68002B07D09847002804D1104B29
:1061E0001C70104B1D70E7E729002000FFF7AAFF85
:1061F0000028E1D1F3E7080001F0DEFF0028DAD043
:1062000003780320A342D7D12900300005F0C8F855
:10621000D2E7C046FEFF00000066FF1FFFFF000040
:10622000FD65FF1FFC65FF1FF7B50400808801F0C6
:10623000C3FF0025A84203D00578A08801F0F8FF2D
:106240001C4E3378002B1FD0AB421DD11A4B2800B7
:106250001978FFF777FF002818D000233370A3794F
:106260000820A778A688019305F0D2F8011E0DD06A
:10627000D0230370CA3B8370019B47708680837173
:10628000280004F03DFE01E0002DE8D1A0880B4B72
:106290008200D358002B01D0FFF762FF1721A0889E
:1062A000FFF768FDA08801F017FDA08801F0EEFD62
:1062B000F7BDC046FD65FF1FFC65FF1F0466FF1F9D
:1062C000F0B587B01D000CAB1B88070001930DAB28
:1062D0001B88142002930EAB1B88160003930FAB90
:1062E0001B880091049310AB1B88059305F090F870
:1062F000041E1AD0D0230370CB3B47708370C67046
:10630000062229000430002D11D005F059F8019B18
:1063100021006381029B0098A381039BE381049B7E
:106320002382059BA37404F0EBFD07B0F0BD04F0DD
:106330002FFFECE7F7B5009308AB1B8807000C2094
:106340000D001600019305F063F8041E13D0280019
:1063500001F032FF00280FD00078D0232370C93B12
:10636000A370009B21002381019B6770A580E680BC
:10637000638104F0C5FDF7BD014B1878EDE7C04619
:106380008044FF1F13B5040064890389C288818893
:10639000C0780094FFF7CEFF13BD000010B5044C89
:1063A0002068002803D004F083FE0023236010BD82
:1063B0000866FF1FA122F0B5818892004A43384B3E
:1063C000384F1B6804009B189D2292009B1882790D
:1063D00089B01A603B68002B5FD01D78324B1B6878
:1063E000002B04D05B68002B01D0002098472600CA
:1063F00008363100E079FFF7B7FD237DE071020038
:10640000E0780493638A29000393238A0293E38943
:106410000193A38800933300FFF752FFE378002B2A
:106420000BD1E289A379A18802920196E279280032
:106430000092012201F0CAFEE0703B68002B20D0E0
:10644000FFF7ACFF194D287800281AD0184B19789F
:10645000FFF778FE002814D02B78E6780820079301
:10646000A78804F0D5FF011E09D0D0230370CA3BD2
:106470004670837087808671079804F041FD002381
:106480002B701721A088FFF775FCA08801F024FC71
:10649000A08801F0FBFC09B0F0BD064B9DE7C046AB
:1064A0003409FF1F0866FF1F1C66FF1FFD65FF1FE5
:1064B000FC65FF1F8044FF1FF8B5070008000E00B1
:1064C00001F07AFE041E18D02620FFF78DFC051E71
:1064D00000D12578062004F09BFF041E0DD000217A
:1064E000062204F055FED0232370C23B21006770C2
:1064F000A370A680E8B204F003FDF8BDF0B585B046
:1065000001930AAB1B78070002930BAB1B780800C2
:106510000D000092039301F04FFE061E22D01020C2
:1065200004F076FF041E1DD01022002104F030FE7E
:106530002620FFF759FC002800D13078D0232370A3
:10654000C13BA370009B21002372019B67706372A3
:10655000029BA580A372039BC0B2E3720C9BE36015
:1065600004F0CEFC05B0F0BDF7B50D00019001F0D0
:1065700023FE071E20D00E2004F04AFF041E1BD06D
:106580002620FFF731FC061E00D13E78D023238061
:10659000C53B0622A370F91DE01C04F011FF019B0E
:1065A0002A0063810123DD401A401D40210022732F
:1065B0006573F0B204F0A4FCF7BD0000F0B585B03F
:1065C000029010000D0017000A9E039301F0F4FDE5
:1065D000041E31D0029B002B2ED1039B02795B0756
:1065E00024D5122313430422002E08D10B9900292D
:1065F00005D10C99002902D10D9900291AD01A430E
:106600000D9B2271002B00D0C9E0002E00D1CFE0FD
:10661000002D00D0CCE0606A002801D004F048FDD5
:106620001C21300004F00CFD606205E002239A4357
:106630000E33D7E793432371654BBA00D458002C2F
:1066400000D1AAE0002E10D0236A002B03D11C2019
:1066500004F0D6FD20625E4BBA00D358186A0028B9
:1066600003D01C22310004F0ABFE0C9B002B12D097
:10667000574CBB001D596B6A002B03D1162004F048
:10668000BFFD6862BB00E358586A002803D0162299
:106690000C9904F095FE0D9B002B11D04C4DBC00C5
:1066A0006659B36A002B03D1142004F0A9FDB0622F
:1066B0002B59986A002803D014220D9904F080FE0B
:1066C000380001F079FD051E67D0414BBA00D35860
:1066D000002B62D01A6A3420002A00D11C389A6A32
:1066E000002A01D0143080B20B9A002A01D01C304D
:1066F00080B25B6A002B01D0163080B204F088FEB5
:10670000041E4AD01822002104F042FD2620FFF783
:106710006BFB0190002801D12B780193D0232370CB
:10672000029B200063700A23294EA370039BBD00C7
:10673000A371AB59A780196A1830002905D01C2213
:10674000A06004F03DFE200034307359996A00299E
:1067500007D0030014221433E060029304F030FEEB
:1067600002980B9B002B08D003001C221C330B99B2
:106770002061029304F024FE02987359596A00299B
:1067800003D01622606104F01BFE6B4621001879CD
:1067900004F0B6FB3800FFF7E3FC05B0F0BD1022B3
:1067A0000D9B0D991B69A018236204F009FE2CE7CC
:1067B0000B9B002B00D13FE7012D00D03CE7606A26
:1067C000002801D004F074FC1C210B982AE7C04675
:1067D0000466FF1F10B5044C2068002803D004F0A5
:1067E00067FC0023236010BDF865FF1F0B4B07B546
:1067F0001A68002A01D100200EBD6946531C0120F1
:1068000012780731FFF772FC0028F4D002780123D8
:10681000100018401A42EED0EEE7C0461466FF1F83
:10682000F0B51F4F01203B6887B0002B25D09B7827
:10683000059300F0B3FB002821D00A20FFF7D4FA1B
:1068400004000B20FFF7D0FA164B05001E78731ECC
:106850009E413B68F6B2191DD878FFF757FB3B689D
:106860002900DA7A043303929A7901930292009014
:1068700033002000059A04F063FC07B0F0BDFFF779
:10688000B5FF002805D00620FFF7AEFA0400072068
:10689000D8E70820FFF7A8FA04000920D2E7C0468D
:1068A000F865FF1FF465FF1F70B50A4E04003378CA
:1068B0000D00FF2B0DD0042004F0AAFD011E08D00E
:1068C000D0230370CE3B45708370C470307804F0E1
:1068D00017FB70BD9044FF1F70B5040006200D002B
:1068E00004F096FD011E0AD0D0230370CD3B8370C7
:1068F000054B44701B688580187804F001FB002C60
:1069000001D0FFF767FF70BDF865FF1FF8B5264F90
:1069100006003B680D001124002B05D10522234BF6
:106920001B78134202D112242000F8BD204A102403
:106930001268002AF8D01278002AF5D0DB0719D5A2
:106940002B789A1E012A1AD80C2004F059FC132423
:1069500038600028E8D000230A224370290006701E
:10696000023004F02DFDFFF75BFF041E0AD0FFF795
:1069700031FFD9E700F012FB0028E1D1E4E7002B5A
:10698000E2D0D0E70B4B1B78032BCDD11D20FFF7B6
:106990002BFA094B18800028C6D0084B0421187820
:1069A000074A04F01DFDBFE7F865FF1FF565FF1FEF
:1069B0001466FF1FF465FF1FF265FF1F2066FF1FAF
:1069C00060EA0000F7B50193194B14001A7805230B
:1069D00006000F0012201A4221D0012920D1154BA8
:1069E0001D68002D1BD002201F2C18D8002C02D0AF
:1069F000019B002B13D0104B1F221E706E1C002118
:106A0000300004F0C5FB01992200300004F0D8FCEE
:106A1000310020002C70002F06D004F059FDFEBD7F
:106A2000064B12201D68DCE704F04AFAF7E7C0467F
:106A3000F565FF1F1466FF1F9044FF1F1066FF1FC0
:106A4000F8B50F4E12243368002B17D01B780F3C7B
:106A5000834213D100250B4F0221387804F0A8FBA4
:106A6000094B042138781D8004F0A2FB074B280055
:106A70001D8033685C7004F0BBFB04002000F8BD8F
:106A8000F865FF1F2066FF1F0C66FF1FF265FF1FE2
:106A900070B5012823D11B4C2388002B03D01A4A40
:106AA0001578002D07D0194B1B68002B02D01878E1
:106AB000FFF7C6FF70BD3B2B02D93C3B2380F9E7B3
:106AC000134E0221307804F073FBFA2223889200DF
:106AD00002215A43307804F03BFA2580EAE70B4B59
:106AE0001B68002BE6D00B4B1B785B07E2D5084BED
:106AF0000221187804F05CFB0022024B1A80FFF799
:106B000069FED7E70C66FF1FF065FF1FF865FF1FE2
:106B10002066FF1FF565FF1FF8B51E4D2868002889
:106B200003D004F0C5FA00232B601B4E3068002808
:106B300003D004F0BDFA00233360184F05243B78DE
:106B400018002040234221D0154800F02BFA3B7852
:106B5000234213D0202004F053FB2860002813D0D8
:106B60002022002104F014FB202004F049FB041E25
:106B7000306005D02022002104F00AFB002004E050
:106B8000286804F095FA2C601320F8BD00F00AFA8A
:106B9000F4E7C0461466FF1F1066FF1FF565FF1F70
:106BA0008444FF1F10B50A4C23681A1E0ED000281B
:106BB00008D10130587004F01BFB002805D0236871
:106BC000002B02D00021FFF787FE0122100010BD2C
:106BD000F865FF1FF7B5274E050033680191181EB1
:106BE00021D05C78244F012C30D1FFF7FFFD002825
:106BF00025D02000FFF7F8F80400412814D91F4BD6
:106C0000022118781E4A04F0EBFB1E4B3C3C1C8012
:106C1000022233685A703B78002B14D12800019966
:106C2000FFF75AFE0120FEBDFA2292004243002ADD
:106C3000EED0124B0221187804F08AF9E8E7FFF74A
:106C4000D3F80200F3E700233B70EBE73B78002B1F
:106C5000E8D1032004F0DCFB011E08D0D023037030
:106C6000CC3B457083703368187804F049F9FFF71E
:106C7000B1FDD7E7F865FF1FF065FF1F2066FF1F16
:106C800060EA00000C66FF1F10B5174983880200F8
:106C90008B4220D011D815498B4217D014490020BF
:106CA0005B1899B2012907D8926811785A4253416A
:106CB000D8B2FFF7F9FD012010BD0E4A00209B1845
:106CC00007229BB29A424041C0B2F5E78368187828
:106CD000FFF768FFF0E7836899785A780902187817
:106CE0001143FFF777FFE7E70A20000006200000C6
:106CF000F8DFFFFFAFDFFFFF014B18707047C046A2
:106D00009144FF1F10B5064C207001F031FA207835
:106D100004F026F90521207800F052FD10BDC04690
:106D20002066FF1F0BB273B50D00002B00DBC4E023
:106D3000884B187804F09CF9041E0ED00378912B30
:106D40000FD0A22B00D1A1E0834B1878FF2852D09E
:106D5000210004F0D5F800284DD1802000026840C1
:106D600076BD43780F2B76D013D8052B70D00E2B21
:106D7000EAD18088794B98422BD8794B98421BD81E
:106D8000784B9842E0D1A3681878591CFFF774F843
:106D900038E03E2BD8D18378032B74D06CD8012BEC
:106DA0006ED0022BD0D1704B1B68002B23D05B68B8
:106DB000002B20D098471EE06C4BC0180C28C3D87D
:106DC00004F04EF91DC2C2150BC20B0B0B3223C2CD
:106DD0003C00674BC0180728B6D8664B1B68002BD1
:106DE00009D01B68002B06D0200098470AE0A36852
:106DF0001878FFF7C7F8200004F052F9ADE7A06853
:106E0000FFF762F800289FD0F5E7A3681B78002BF6
:106E1000F1D0554B1B68002BEDD01B68002BEAD03E
:106E2000210055489847EDE74F4B1B68002BE2D0F7
:106E30001B68002BDFD021005048F3E7504B1B6844
:106E4000002BD8D05B68002BD5D021004348E9E760
:106E5000FFF7EAF9CFE780884A4B984203D04A4BC4
:106E6000984200D070E7464B1B68002BC3D05B688C
:106E7000002BC0D02100D5E7153B012BBBD963E720
:106E8000FFF798FAB7E7FFF77DFAB4E73F4B1B78B7
:106E9000042B07D100236A4613800179408800F053
:106EA000B5FCA8E7364B1B68002BA4D05B68002B11
:106EB000A1D00100364898479DE7012421420AD01D
:106EC000294B1B68002B04D05B68002B01D00020ED
:106ED0009847012043E78B070AD5264B1B68002BF8
:106EE00004D05B68002B01D020009847022036E7D1
:106EF0000421280008400D4200D131E7254E338897
:106F0000002B21D0013B9BB23380002B1AD1FFF71D
:106F1000DBF800280AD0204B1C70164B1B68002B96
:106F200004D05B68002B01D020009847FFF7C6F81B
:106F3000694601F0F1FC6846FEF7FEFF1D20FEF7F2
:106F400053FF308004200AE7024B187804F030F930
:106F5000F8E7C0462066FF1F9144FF1F0E20000087
:106F600001200000091000001866FF1FFEDFFFFF70
:106F7000AFDFFFFF1C66FF1F0C2000000B2000008E
:106F80000066FF1F0D20000013200000F565FF1FA5
:106F9000FFFF0000F265FF1FF065FF1F10B501F055
:106FA0008BF910BD014B18607047C0461C66FF1F6F
:106FB0000B880020162B01D817230420014A1380C8
:106FC0007047C046CA65FF1F00207047074A03008C
:106FD0001188814207D091880020994202D1013066
:106FE0008000101870470020FAE7C0462866FF1F8F
:106FF000F0B58F7806000D00C7B01E2F15D1FFF732
:10700000E5FF051E03D10024200047B0F0BD00229B
:107010003B003100C078009200F0A2FB0400A81CE5
:1070200000F0C3FBFF23EB70EEE7264B062403932F
:107030001B78FF2BE8D0182FE6D87B08224A013BAB
:10704000DB0002929A589446002ADDD0029AD318A7
:107050005B68002BD8D00878002802D14B78012B30
:1070600002D10624122FCFD107AFAB8869780097E1
:107070006446AA68A047041EC6D1AB78029A5B0892
:10708000013BDB00D318390030005B689847041ED1
:107090000BD1AB78042BB6D0039A310010782200C4
:1070A000009700F05DFB0400AEE76A78002AABD1E0
:1070B000AA7805A93B88087130000A704B80FEF75A
:1070C00047FBA0E79444FF1F60B700111D4B37B585
:1070D000050098420BD000290AD1FFF777FF00285E
:1070E00005D11948FFF772FF002800D0058037BD91
:1070F00001291AD1FFF76AFF041EF8D001235B4271
:107100000380A378FF2BF2D0FE2B07D00023E0787A
:107110001422009329001E3300F022FBA01C00F073
:1071200044FB01235B426380E1E70229DFD101399F
:1071300001F0AEF80028DAD12800FFF747FF041E5F
:10714000DFD1D4E7FEFF0000FFFF0000022210B5F0
:10715000074B52421A80074801325A809A80DA80DF
:1071600000F06EFA044801F015F8002010BDC0468A
:107170002866FF1FF16F0011CD7000110388F7B56D
:107180000400002B02D102252800FEBD4268022126
:10719000137825485268FEF7A5FD00282ED0234F0E
:1071A00001253A88002AEFD0802321885B0201253F
:1071B0009B1A9942E8DC0C2004F022F8061E31D01C
:1071C0003B8822889C4600231800019561469DB2A9
:1071D000491989B2AA421BD8002801D062443A80DA
:1071E00000233000082208C0210004F0E9F8104A0A
:1071F0001368002B13D100251660C5E762680221D1
:1072000013780C485268FEF76DFD0028C7D1BAE725
:1072100060681D014019418101330198D6E71A00C9
:107220001B68E6E71325AFE7CEB700119244FF1FB6
:107230002466FF1FCCB70011014B18707047C04681
:107240009444FF1F14230A0010B51A40194204D0B9
:107250000122102101F038F810BD4B06F9D40120AD
:1072600088434000F8E710B514008B0604D50122CE
:10727000102101F029F810BD08230A001A40194214
:1072800002D14BB2002B0FDA102101F01DF80028BB
:1072900008D02300F9331B78002BECD0F834237886
:1072A000012BE8D10020E6E703208907FAD4E2E7C2
:1072B000F0B51F00184B85B01C6801900291039235
:1072C000002C27D1200005B0F0BDA5683301ED18D2
:1072D0006B89019A934211D3029A93420ED8002FE0
:1072E00004D10A9B002B10D12C00EBE73B0029783E
:1072F000039A6868FEF7F6FC0028F2D10136B6B2B0
:10730000A388B342E1D82468DAE7A3680A9A5B89C4
:107310001380E9E70026F3E72466FF1F37B50C006A
:107320000A8849880123914217D3002A15D0651D88
:1073300023792A0002210A48FEF7D4FC10230028F2
:107340000BD023796188208800242A000094FFF75D
:10735000AFFF0A23A04200D0230018003EBDC04664
:10736000CEB7001113B50A00088849880123884266
:107370000BD8002809D00024137905320094FFF7B8
:1073800097FF0A23A04200D02300180016BD13B5B2
:107390000A0008884988012388420BD8002809D0B0
:1073A0000024137905320094FFF782FF0A23A042DC
:1073B00000D02300180016BDF0B58BB003904A88AA
:1073C00008880E000123824255D3002853D00023A1
:1073D000012704AC23700022718813000092FFF78C
:1073E00067FF051E3ED02078002835D12B78022B70
:1073F00018D167706A8983000130E31880005A80D1
:1074000069680222201803F0DBFF23780133DBB226
:107410002370042B19D93B006889013080B2002BFE
:10742000D9D01FE002236370122358436A892318BE
:1074300004305A8069681022201803F0C1FF2378B5
:107440000133DBB22370002BE5D10C4A6B899B180A
:107450005A425341DBB2DFE76378012BE4D12B784A
:10746000022BC7D022780A23002A04D021000398D7
:10747000FEF798F9002318000BB0F0BD0100FFFFE4
:107480000F4BF0B504001868002816D083685D899A
:10749000A54207D88288AE18B44203DA12019A18BE
:1074A000934201D10068EFE71E005F891036A742C2
:1074B00004D1002900D00D801800F0BD3300EFE7A3
:1074C0002466FF1F70B505000C0008880021FFF737
:1074D000D7FF03000120002B04D022002800197AD6
:1074E000FFF7C1FE70BDF7B50C0000250190230029
:1074F000F6331B78AB4201D800200AE06B00E65A55
:1075000000213000E718FFF7BBFF002802D12680DA
:107510000130FEBD017A0198FFF794FE002802D0E9
:107520003B882380F5E70135EDB2E0E710B50400B4
:1075300008880021FFF7A4FF03000120002B03D0DF
:107540002000197AFFF77EFE10BD0000054B1B6876
:10755000002B01D1180004E09A6852898242F6D1CA
:10756000988870472466FF1FF0B50E27002687B065
:10757000039302ABFF183E8005001F4B40891400A7
:10758000984207D02B78013000976A6880B2FFF7E5
:107590008FFE060002212B7818486A68FEF7A2FBCE
:1075A00000280FD06C892000FFF7D0FF002802D000
:1075B000013C0419A4B2039B002B00D01C803000B6
:1075C00007B0F0BD02212B780D486A68FEF78AFBF0
:1075D0000028E7D102212B780A486A68FEF782FB6F
:1075E000002807D0002EDED03B88A342DBD174896F
:1075F000013CDFE76C89DEE7FFFF0000CEB700113A
:10760000CCB70011CAB7001170B504000D00160008
:10761000FFF7DCFC002803D083781720FE2B05D071
:10762000002E04D129002000FEF738F970BD012298
:107630001021200000F048FE0028F3D0F6E70000FB
:10764000014B18607047C0463466FF1F37B56B4664
:107650009D1D010004000222280003F079FE2B8802
:10766000B02B0ED12379122B09D12300FF339B7845
:10767000012B06D10121608800F0E0F801E01B2B0E
:10768000F8D037BD10B5054B0421187000F098F8FC
:10769000FFF75CFDFEF780FB10BDC0463866FF1F9C
:1076A0000020F0B50BB20F0087B0834234DA274BCD
:1076B000187803F0DDFC051E2BD00378A02B25D114
:1076C00003AE3100FEF7F4F8041E0BD1B378DB07EC
:1076D00024D51F4B06341B68002B03D0310068886B
:1076E00098470400A868002801D003F061FE002C30
:1076F00008D1184A039B1340174A934206D0B37827
:107700001B2B03D00121688800F098F8280003F0B3
:10771000C7FC80200002784007B0F0BD0F4B1B680B
:10772000002B10D0310068889847041EDAD0737897
:10773000002BD7D1B27801A90A704B800C716888F0
:10774000FEF706F8CEE70624F1E7C0463866FF1FCD
:107750003066FF1F00FFFF00000112003466FF1FAC
:10776000F7B50190822040000D0017001E0003F0C5
:107770004FFE04001320002C12D0B02320002370F1
:10778000089BFC226770658026710830002B08D0AA
:10779000190003F015FE2100019803F0B1FB002051
:1077A000FEBD089903F0F4FCF5E710B5041E06D001
:1077B0000078FD2803D803F0E3FCFF23237010BDFD
:1077C0000A1F93B210B504000220032B05D8824093
:1077D0000020024BD1529B189C7010BD5866FF1FB1
:1077E0000B8870B5043B04000D000220032B0BD85E
:1077F0000121200000F04CFD03001420002B03D0D9
:107800002900200000F0DEFB70BD000007B513006A
:10781000034A00920A00012100F02CFC0EBDC04674
:10782000497A001107B5019203220092024B0A0027
:10783000122100F049FC0EBDC77A001107B56B4656
:1078400001AA11800449D88008780633012802D1A2
:10785000190003F0CDFB07BD3966FF1F0C4B10B5B7
:1078600018700023FF210B4A1380138193819380AA
:10787000094A53801370517293819372D174D382E9
:107880001375517703F04CFD00F0FCF910BDC046B4
:107890006866FF1F5866FF1F3A66FF1FF0B58DB080
:1078A0006B46002003910C229B5E834200DBB0E01C
:1078B0005D4B187803F0DCFB051E00D1A4E00378D3
:1078C000902B00D09DE006AF01004688380000F004
:1078D00013FA79680400002900D19CE03B88052B4D
:1078E0006ED13B89032B1CD905AC200000F0A2F817
:1078F0006288172A61D83989131D994231D1796874
:10790000237804310291D90738D5607800F08EF9D8
:10791000071E06D0002303712378012B08D0132BF8
:1079200023D0A868002800D178E003F041FD75E07D
:107930006288029909A800F0A6F80290380000F0C9
:107940008BF909AA2378387A01920022310000923B
:10795000029A00F012F9380000F064F9029B002B43
:10796000DFD0300000F080F9DBE70378032BD8D1BB
:107970006288029909A800F0D6F8DEE7122B13D12D
:10798000029909A800F0B5F8021EEAD127498B88B0
:10799000002BC6D0887909A92378019161780091DC
:1079A000310000F0EAF8BCE7002302AA938330001C
:1079B000617809AAFFF72AFFB3E71D4B0993F6E7A1
:1079C000042B02D09A1F012AABD8184A043B9B0013
:1079D000995A0029A5D0D218907831003A0000F0C9
:1079E000AEF800289DD13B88042B03D00121300044
:1079F000FFF724FF012C04D1A868002801D003F070
:107A0000D7FC280003F04CFB8020039B000243407E
:107A100018000DB0F0BD012800D182E7012130002F
:107A2000FFF70CFFEDE7C0466866FF1F5866FF1FB3
:107A3000010017000B7803704B784370CB788A787D
:107A40001B021343438070470A88030002700A88B0
:107A5000120A42700A88012A06D14A8882704A882E
:107A6000120AC2700420704702208242FBD14A8869
:107A700004309A704A88120ADA708A881A718A88E1
:107A8000120A5A71EFE710B50400012082420CD9A6
:107A90004B780A781B0213432380834206D1CB78AC
:107AA0008A781B0213436380002010BD022BFBD198
:107AB000CB788A781B02134363804B790A791B02C7
:107AC0001343A380F0E70B8803700B881B0A4370F5
:107AD0004B8883704B881B0AC3708B8803718B881B
:107AE0001B0A4371CB888371CB881B0AC3710820A2
:107AF000704703000120082A14D14A78087812023E
:107B000002431A80CA788878120202435A804A795E
:107B10000879120202439A80CA79887912020243D4
:107B20000020DA80704710B504000120022A05D138
:107B300000204B780A781B021343238010BDF8B550
:107B4000060010200F00150003F062FC0400012065
:107B5000002C0ED0A0230C22290023806780201D3A
:107B6000002D07D003F02CFC2100300003F0C8F9F1
:107B70000020F8BD03F00CFBF6E7F7B51E000090FF
:107B800008AB142017001D78019103F041FC041E7E
:107B900012D0A2230370019B47704380099B05719B
:107BA00046710C220830002B07D0190003F008FCA6
:107BB0002100009803F0A4F9F7BD099903F0E8FA51
:107BC000F6E737B5041E0FD04388002B0CD00025F4
:107BD000C1881323007A172201950095FFF7CDFF86
:107BE000FF2365806372257037BD000010B50C4916
:107BF00004004A88002A09D08B89002B05D0002078
:107C0000CB8A0222834201D010BD012213000A2038
:107C1000434300204032C854C81842800472F3E73E
:107C20003A66FF1F0023438003707047094B002111
:107C30001A0010B55C88002C06D01C79844203D150
:107C40000A234B43D01810BD01310A330329F1D167
:107C50000020F8E73A66FF1F10B50400407A03F0F1
:107C60008FFAFF23637210BD7047043010B580B2E5
:107C700003F0BEFB002803D00421494203F0C8F9F9
:107C800010BD000070B50025104CA0682580A581AE
:107C9000A580A84202D003F08BFBA56000250C4C08
:107CA0000C4B606D1D80230058331D70A84202D01C
:107CB00003F07EFB656500256068002801D003F0B5
:107CC00077FB013508340A2DF6D170BD0067FF1F20
:107CD000A466FF1FF466FF1F70B5041E09D1054D91
:107CE0002880A881A880A868002802D003F060FB43
:107CF000AC6070BD0067FF1FF0B54B8885B0019385
:107D0000002343600A7905000F00022A00D07BE0BF
:107D1000CA88032A17D98B685E7819783602DC780E
:107D2000D8790E4399781B7A24021B020C43034333
:107D300053495BBA0B80331D93421ED1042C04D0EF
:107D4000631F022B0ED9012015E0019A4D4B120141
:107D5000D35A002B06D00198FFF7BEFF4A4A136999
:107D6000013313610421B8682E812C80494203F04D
:107D70004FF96860002005B0F0BD434D042C06D0DB
:107D8000631F022B0FD9EB680133EB60DBE7019A2D
:107D90003C4B1201D35A002B05D00198FFF79CFFF2
:107DA0002B6901332B61374B30000293019B029A00
:107DB0001B010193002301998C468B5213006344ED
:107DC0009C8003939E81FFF750FF039B041E9860E5
:107DD00016D00421B868494203F01AF9FA88010064
:107DE000043A200003F0ECFA0199029AFB888A5ABF
:107DF000043B9B18029A8B522B6801332B60A2E73D
:107E0000AB690133AB619EE71E4B0293019B1E01E0
:107E1000029BF35A002B2DD002998C19A0680028E0
:107E200028D0012A26D1FA889B189BB27352A189C7
:107E3000994217D39B1AC018B96803F0C1FA029B84
:107E4000A289F35A934200D07DE700222B81A388B8
:107E50002B80A3686B60029BF2520B4A536801337C
:107E6000536070E7084A9368013393600198FFF705
:107E700033FF68E7044A536901335361F6E7C046AC
:107E80006A66FF1F0067FF1F7066FF1F70B5051E43
:107E900015D10B4C0B4B1880230058331870606DB4
:107EA000002802D003F084FA65652500503560682B
:107EB000002801D003F07CFA0834AC42F7D170BD41
:107EC000A466FF1FF466FF1FF0B51700A12285B05E
:107ED000920001934243394B06001B680C009B182B
:107EE000D933FF331D78FDF751FF0430854204DD9F
:107EF0003000FDF74BFF0430C5B2BD4207D33A0056
:107F000000213000019B03F0E3F805B0F0BD29002B
:107F1000380003F0FDF82300C6B250331E700393FF
:107F2000019B29006365380003F0AAFACBB20293E3
:107F3000002B02D0039B01361E7000262300503315
:107F400003931B78B34204D8606D002831D1002020
:107F5000DBE7029A2800002A04D0013B1000B3425C
:107F600000D02800F700E719387003F0C1F87860F6
:107F700000280ED03A78019903F022FA019A3B7852
:107F80000136D3180E4A0193D369F6B20133D36197
:107F9000D4E7039B18706065A74205D1084A1320F7
:107FA000D36A0133D362B0E7606803F001FA0834A2
:107FB000F2E703F0FDF900236365C8E73409FF1F0A
:107FC0007066FF1FF7B50D0007000421686803F015
:107FD0001FF82B89040003702B891B0A43702B8820
:107FE00083702B881B0AC3702E8902250436F6B2D3
:107FF000FB2E15D81B4B9F4214D10C2003F008FA1E
:108000001135011E0CD0902303708E3B0371043B8D
:108010004380154B8460C680187802F071FF0025FC
:108020002800FEBD5C237B43104AD31800935833CD
:1080300001931B78002B0FD1030032003800009908
:10804000FFF742FF019B05001B78002BE8D13800A9
:10805000009903F02DF9E3E7054A0725536A013338
:108060005362DDE7FEFF00006866FF1FA466FF1F86
:108070007066FF1FF0B587B0009017200F00160044
:108080000193FFF7F2FD1325041E19D00C98031E6F
:1080900002D00199201D9847030AE370052302AA24
:1080A000A0700430908127700098667003A99380B7
:1080B0000494FFF787FF051E02D0200003F078F933
:1080C000280007B0F0BD0000F0B587B01F000CAB72
:1080D0001B780391059301210DAB06001C780492D7
:1080E00000F0D6F81425002821D02000FFF77EFDEF
:1080F0000135041E1BD01149059B0A78037001321B
:10810000D2B2131EC68001D101231A000B70227156
:108110003000049B03990097FFF7ACFF051E09D1BF
:10812000230021000648074A093303F079F82800A4
:1081300007B0F0BD002363802370F8E76C66FF1F73
:10814000C37B001130750000F8B505000E00064C29
:10815000064F2368002B02D03100280098470434D2
:10816000BC42F6D1F8BDC0461067FF1F2467FF1F51
:108170000123064A5B425380002313715362044A71
:10818000136053609360D360136170472467FF1FCF
:108190001067FF1F0200002310B506499C00085914
:1081A000002801D1625010BD0133052BF6D11320F8
:1081B000F9E7C0461067FF1F034A5388181A434265
:1081C00058414042104070472467FF1FF0B585B00A
:1081D00002930AAB1F780CAB1B88009008000E00BE
:1081E00001920393FFF7E8FF05001120002D1BD13A
:1081F0000E48FFF7E1FF04001520002C14D00622E2
:108200000B99A771E01D03F0DBF8019B300023718F
:10821000029B29006371009B66802370039B65624B
:10822000E381FFF791FF280005B0F0BDFFFF0000DC
:1082300010B5FFF7C1FF04000220002C12D06088A7
:108240000121FFF781FF606A002801D002F030FFB2
:1082500028220021200002F09BFF012300205B4226
:108260006380207110BD000030B5074A074C558867
:10827000010013780020A54204D05B1A59424B41FB
:108280005842104030BDC0462467FF1FFFFF00006A
:10829000084A10B501230C00904208D0FFF78CFF6C
:1082A000031E04D0037923405A1E9341DBB2180009
:1082B00010BDC046FEFF0000024B1879431E9841D6
:1082C000C0B270472467FF1F70B504000D00160090
:1082D000FFF772FF002804D10D4B9C4200D01430F0
:1082E00070BD416A03790520002907D012221A4087
:1082F000102A02D10520002EF2D10F20DB06EFD587
:10830000897E0C20A9428941494249420840E7E759
:10831000FEFF0000030010B5002800D110BD034887
:10832000034A41889142F9D09847F7E72467FF1F35
:10833000FFFF0000002330B5C45CCD5C6C40D4541A
:108340000133102BF8D130BD0F23002210B5C45CCF
:1083500064002243CA54C25CD209013BF7D210BD6B
:108360000200010010B52032103102F051FF10BDA3
:10837000F0B58BB00390102005931700049102F024
:108380003FFF0090102002F03BFF009B1324019060
:10839000002B05D000280CD11324009802F088FE91
:1083A000019B002B02D0180002F082FE20000BB0CF
:1083B000F0BD102002F024FF0600102002F020FF84
:1083C00013240500002E00D1AEE0002819D01022A1
:1083D000002102F0DDFE32002900039802F018FFB0
:1083E000041E0ED133787F2B51D830000099FFF74F
:1083F000ABFF009B1B787F2B53D801990098FFF7A8
:10840000A3FF300002F054FE002D02D0280002F03D
:108410004FFE002CC1D1102002F0F2FE0600102009
:1084200002F0EEFE0290002E7CD0002878D03A00B8
:108430000F3223000125121105D00F333B4015B236
:108440005A4253411BB26A1E1201002B33D0049BC7
:10845000D2B298180099029AFFF76CFF013D1022E2
:108460000021300002F094FEADB2049F2D017D1971
:10847000AF4242D0002C33D0300002F019FE029BF4
:10848000002B00D189E7180002F012FE85E72900D1
:108490003000FFF759FF28002549009AFFF74AFFEF
:1084A000A7E729000098FFF74FFF28002049019A0D
:1084B000FFF740FFA5E70F210F4004998A18D9B2B2
:1084C0008F4208D9D15C06A819540133102BF6D17C
:1084D000029A0199C0E7791A48424141C901F2E77D
:1084E0003900300006AAFFF725FF3200039806A9DD
:1084F00002F08EFE10370400BAE7002CBCD1300029
:10850000029906AAFFF716FF320006A9039802F0A7
:108510007FFE082204003100059802F051FFABE70E
:108520001324A9E71324AAE7002800D06EE733E755
:10853000D4B70011F0B58BB00F00160002250090E3
:1085400000283FD0002A3DD00B1DDBB2180002935B
:1085500002F056FE1135041E34D0FDF757FD05001C
:108560003A000099201D02F073FFEBB20393E37011
:108570002B0CDBB22F0A00936370FFB22B0E23701B
:10858000A7700193FDF73CFD1022010006A802F040
:108590005FFF2100029A04AB06A8FFF7E9FE051E63
:1085A0000DD1039B08223370009B04A9B370019B7B
:1085B0007770F370301D02F04BFFFDF72DFD2000AA
:1085C00002F076FD28000BB0F0BDF0B58FB00D00C5
:1085D000149E039004920593002A03D102242000E4
:1085E0000FB0F0BD002EF9D00398FFF7E5FD14247D
:1085F000071EF4D07278337812021A43B3781B0442
:108600001343F27812061A43036A0192934201D38C
:108610000133E3D1002D03D03B7901249B07DED544
:108620000822002106A802F0B3FD059B13240433A1
:10863000DBB21800029302F0E3FD051ECFD0059ACD
:108640000499043002F004FF04223100280002F0F3
:10865000FFFE3900102210310AA802F0F9FE2900AD
:10866000029A06AB0AA8FFF783FE041E0FD1082268
:1086700006A908A802F0ECFE0822311D08A802F0A5
:10868000AFFC012807D101990398FDF7D9FC280018
:1086900002F00EFDA3E70124F9E7000070B51C4CC1
:1086A00005002368181E10D0002D14D11A78002A56
:1086B0000CD1981C083202F083FE02F001FE013555
:1086C000002808D123681D70012070BD0A331800EE
:1086D000082202F075FE2368002BF5D0122002F06C
:1086E00097FE061E0DD0C12321680370457002312C
:1086F0001022023002F064FE23683100587802F044
:10870000FFFB206802F0D4FC00232360DCE7C046B6
:108710004C67FF1FF8B504002020FDF765FB0D4EE8
:10872000A700BB590500002B0DD000280BD0D8782E
:10873000FF2809D108492A000C55F359074803338B
:10874000611802F06DFDF8BD290002F0F9FB002868
:10875000F0D1F8E76867FF1F5067FF1F6D990011A0
:1087600070B5064D84006359002B05D0D87802F00F
:1087700007FDFF226359DA7070BDC0466867FF1FAE
:1087800070B506008CB00C00150000213022684640
:1087900002F0FEFC31001022684602F059FE1D2056
:1087A00021000322684402F053FE6846FFF7D8FD1B
:1087B0002D21040003222800694402F049FE200014
:1087C0000CB070BDF0B50700160097B001931CAB5C
:1087D0001D7830221EAB00910AA800211C7802F0FF
:1087E000D7FC102239000AA802F032FE1022002124
:1087F00002A802F0CDFC0722310002A802F028FEF8
:10880000072202AB9818631E9C41019902F020FEDA
:1088100002AB9C732B005A1E934102AAD373002112
:10882000102206A802F0B4FC06221D9907A802F047
:108830000FFE1A2002ABC01806221F9902F008FE94
:10884000102200990EA802F003FE102202AB0EA91E
:1088500008781C78013A6040D2B2087001330131C7
:10886000002AF5D10AA8FFF77BFD102212A9040007
:108870000EA802F0A5FD102206AB0EA908781D78FF
:10888000013A6840D2B2087001330131002AF5D1B3
:108890000AA8FFF765FD044310222098E4B212A94C
:1088A00002F0D6FD200017B0F0BD70B50E00140028
:1088B0008CB00100102268461D0002F0C9FD310095
:1088C000082204A802F0C4FD2100082206A802F034
:1088D000BFFD6846FFF744FD04001022280008A9E8
:1088E00002F0B6FD20000CB070BDF8B506000D001A
:1088F00000243719AC4200D3F8BD02F009FD030A89
:108900003B70631CDBB201379D4203D90234F05443
:10891000E4B2EEE71C00EDE773B506000C0002259B
:10892000002819D0002917D0032101A8FFF7DDFF87
:108930006B469A793F231A40013313436A4630004D
:10894000937101A92200FFF71BFF051E04D103222A
:10895000E01C01A902F034FD280076BD0378580719
:10896000DA08C00FD20080009B0710439B0F18430A
:10897000C0B2704707230B40C908C9000B430370FE
:108980007047000070B50400FFF7EAFE134DA40025
:108990006359002B21D0186A002801D002F088FB0F
:1089A0002B59986E002801D002F082FB2B59D86E0B
:1089B000002801D002F07CFB2B59186F002801D051
:1089C00002F076FB2B59586F002801D002F070FBA3
:1089D000285902F06DFB00232B5170BD6867FF1F03
:1089E0000E4B8000C35870B50C00002B0FD09D6853
:1089F000002D0CD02B78201D0B706B784B70A97C50
:108A0000FFF7B8FF2B7E23726B69E36070BD102205
:108A10000021200002F0BCFBF8E7C0466867FF1F9A
:108A2000014B18607047C0466467FF1F074A030088
:108A30008000825810B5002A06D0D088984203D111
:108A4000012901D1FFF79EFF10BDC0466867FF1FD7
:108A5000F0B5264E95B087000B93BB5905000991E0
:108A600012200A92002B31D0D888FFF7A5FB040012
:108A70001420002C2AD0280010A9FFF7B1FFBB5901
:108A80001E781D6A002E23D00895FDF7FFFA070017
:108A90000020FDF701FB0790A379E61D069310ADBA
:108AA0000CA9089800F0E2FA0EA9280000F0D7FA05
:108AB0000B9B0A990493069B09980293079B0396C4
:108AC000019300970EAB0CAAFFF77CFE15B0F0BD2A
:108AD000FDF7DCFA06903000FDF7DEFAE31DA7791A
