:020000041102E7
:10000000F0B500208FB005F0DBFA80220223012436
:100010004B4E4C4F4C49D2004C4833703C7007F06B
:10002000E3FD07F011FD07F0B1FF07F0E5FD1F222A
:100030000021474B03AD1A70464B1C70464B19709C
:10004000464B19689143163A0A431A6060221968B0
:100050009143403A0A431A6007F04EFC07F01CFD3A
:10006000C120FF213E4B80001A588A431A50C522F6
:10007000920098588843BF3901439950985839499C
:1000800008408021C9010143802099509958C0053A
:100090000902090A0143995080213348490107F0B8
:1000A000E3FC03232200314901940093304807F018
:1000B00073FB2C2228002F4907F0A6FA2C00617848
:1000C000207805F00DF802340EABA342F7D12A4B8D
:1000D0002A4A196800241140A022D2020A431A6059
:1000E0008022196892040A431A601968244A012080
:1000F0001140802292030A431A6007F085FB07F043
:10010000E3FC07F0E9FC3078C0B207F06DFB38780B
:10011000C0B207F041FC07F0E7FC1A492C70696097
:10012000039807F049FC05F017FA0221164807F07A
:10013000EDF900F0A3F800F017FA20000FB0F0BDC1
:100140004A0AFF1F0444FF1F0000FF1F0000FF1F9B
:10015000480AFF1F490AFF1F680AFF1FBCF0004042
:1001600000E100E0FF00FFFF0844FF1F8C56FF1F67
:100170000854FF1F587C021114F00040FF7FF8FF65
:10018000FFFF9FFF3B00010800C0031170B5002571
:100190002C492D4A2D484D6308CA1B051B0DED182F
:1001A0008242F9D100222A4B2A4C8B632A4B1A62D5
:1001B00080222A4B9205DA670822E3689343E360C2
:1001C000274B1B78012B03D0A368264A1340A3605A
:1001D0000021072004F0AEFF0021072005F06AF897
:1001E0000021072004F07CFF0122E36811209343E3
:1001F000E360EE24E4006C4307F006FC112007F0F6
:10020000FBFA112007F0A8FA174A200C0400642317
:1002100090420AD8FA220023D200904205D9134B0B
:100220000A21C01807F050FAC3B2114A1372114BD9
:10023000D4801B78002B04D10F4B1021187807F0C5
:10024000B3FC70BD00000540880505400006054070
:10025000FF0100003CF0004000F0004004E100E03D
:100260004A0AFF1FFFDFFFFFB70B000030F8FFFF58
:100270001461FF1F5267FF1F3761FF1F002210B577
:100280001100112007F070FA10BD0000F8B500232E
:10029000012508263D4F3E4C3B62E3681120AB43ED
:1002A000E360E368B343E36007F0A6FA112007F0C8
:1002B000ABFB112007F0D8FA402322680720134334
:1002C000236080236268DB02134363608023A2689B
:1002D0001343A360A3682F4A1340A3608023A2683E
:1002E0009B011343A3601023226C9A432264226C67
:1002F0002A432264802252003A62216B264A11402E
:100300002163216B99432163616B11406163616BD0
:1003100099436163A16B1140A163A16B9943A163F0
:10032000E16B0A40E263E26B00219A43E263E36817
:100330001A4A1340E36004F0D3FE2900072004F0BA
:10034000BDFE2900072004F0F5FE112007F034FC63
:10035000134B144AC72013608023626B5B03134363
:100360006363E36880003343E360E3680E4A1D4340
:100370000E4BE56019581140802212020A431A50B0
:10038000802292051A600A4B5E63F8BD00F00040BF
:100390003CF00040FFFFDFFFFFFFEFFFFFFF7FFFAD
:1003A0008D010211F403FF1FFF00FFFF00E100E0D9
:1003B0000000054030B503A804880B20002C0ED1A6
:1003C0004968074D08784978090201430A20A94283
:1003D00005D1012120001980024B1B7A137030BD1A
:1003E000192A00001461FF1FF7B5150008AA168826
:1003F0004A680F4F14785278120222430A24BA42F4
:1004000014D10122DBB2019200962A0006F080FC92
:10041000041E0BD1074B1B68002B07D068782A7885
:100420000002104342425041013098472000FEBD77
:10043000022900000C61FF1F30B50125037904007B
:10044000BFB02B4212D00A49408805F0CDFF2842A8
:100450000CD06A46074B69465B8D55801380064B6E
:1004600060881B7A1371002202F0E4FB3FB030BDBC
:100470000461FF1FD040FF1F1461FF1F10B5054925
:10048000054805F067FF0421044A054805F024FFEC
:1004900010BDC0460461FF1FFFFF0000847C0211F5
:1004A000D040FF1F10B5024803F04AFA10BDC04605
:1004B000390402110623837010330371443B4371E6
:1004C0002A3383714433C37100230222012110B502
:1004D00003720E4B027041701C8881724472197A4B
:1004E0000273C1729A784273DA7882730322C273FC
:1004F0001A7902745A7942740C2282749A79C274FD
:10050000DB7903751123C37010BDC0461461FF1F52
:1005100010B5142007F080F9124B14220021186046
:1005200007F03AFB002007F0AFFA012007F0FCFAD1
:10053000022007F061FA032002F0A6FC042004F078
:10054000BBFC052001F004FF062002F0B1FB0720F0
:1005500005F042FA082005F09FFE092000F0B8F9E6
:1005600010BDC0461061FF1F10B507F0E5F801206F
:1005700007F022F907F0D0FA002010BD10B50021D5
:100580000D2004F003FF01210C2004F0FFFE07F012
:100590001BFB0400092007F067F90022194BDA66FB
:1005A00061321A6019685B3A9143023A0A431A6051
:1005B000154A94420CD10A22DA6107321A621022DB
:1005C0005A6000221A639A630132DA63DA6610BD58
:1005D0000E4A944203D11E22DA610532EEE70C4A3C
:1005E000944203D13022DA610632E7E7094A9442A5
:1005F00003D14322DA610832E0E7074A9442DED1B0
:100600006922F7E7005000400024F4000048E801A8
:10061000006CDC020090D00300D8B80510B50024AF
:10062000064B0920DC6607F0E7F821000D2004F0F6
:1006300041FE21000C2004F03DFE10BD00500040A2
:10064000F8B51C000023134D0F00EB666860160020
:1006500007F062F901238022EB6623002F6152002C
:10066000013B08D207F080FA08200B4A1168002CE1
:1006700003D12000F8BD2A61F2E72B6F034203D0BB
:100680002B69013C3370013613685B1A0A2BEED9D3
:100690000124EEE7005000406008FF1F002370B502
:1006A0000C4C0D00E366606007F036F90123E36649
:1006B000256107F059FA8020074A80001168636BB2
:1006C000034205D113685B1A0A2BF8D9012070BDCB
:1006D0000020FCE7005000406008FF1F002370B5B9
:1006E000134C0E00E3666060150007F015F9012356
:1006F000E36626610F33626B1A42FCD02B0A23613A
:100700001023626B1A42FCD0EDB2256107F02CFA7F
:100710008020084A80001168636B034205D113688A
:100720005B1A0A2BF8D9012070BD0020FCE7C046F7
:10073000005000406008FF1F13B5FFF71FFF0223A2
:10074000002101AA4020FFF77BFF6A460400022334
:10075000012140200632FFF773FF0443FFF75EFFDD
:10076000002C15D16B4699880B4BC9BA4B430B4AE9
:100770001B1453806B46DB8809495BBA5B045B0C36
:100780004B431B0C9380138801331380200016BD4C
:1007900007F0C2FB0124F9E7066400001461FF1FA3
:1007A000204E00007047000010B504000100062034
:1007B00000F030FE2100072000F02CFE2100082070
:1007C00000F028FE2100092000F024FE054C2078CE
:1007D00001F05CFC0422044B012120781A7007F020
:1007E000E3F910BD8267FF1F8167FF1F013870B5F5
:1007F000042809D806F0F4FE030920081200134B60
:100800000221187807F0D0F970BD104B0821187834
:1008100007F00AF800220E4B1A70F5E700240B4D82
:100820000C4B082128780C4A1C7007F0D5F92100E0
:10083000287807F0A1F9E7E70122064B08211A7092
:10084000024B187806F0F0FFDEE7C0463761FF1F65
:100850001F61FF1F1E61FF1F1027000010B5002938
:1008600002D1112004F056FD10BD000010B5012981
:100870000CD11322064B11201A7004F04BFD054BCE
:100880001B78002B02D00448FFF78EFF10BDC04636
:100890001E61FF1F5267FF1FC40900000300F0B56F
:1008A0000A4D8E18B14202D152008018F0BD0C786A
:1008B0002F6824093C5D0F271C700C7801313C40E7
:1008C0002F683C5D5C700233ECE7C0461C41FF1FA3
:1008D000F0B5704D87B0704A70492870042004F05C
:1008E0001BFE112004F002FE0121112004F012FD74
:1008F00007F012FB02211F2000F08CFD002302AA4A
:100900005370012202A98A700722CA7003AA1380B9
:10091000CF1C0622624904A806F076FE614C02ABA9
:10092000062221006048063306F09AFC00280ED00B
:100930000321200006F028FF8D23E3706E3B237116
:100940000622193321005848637106F03DFD01224B
:1009500056495748FFF7A2FF01225649FFF79EFF6D
:1009600001225049FFF79AFF0D230026524C0C221A
:100970002370043B6370514B51481900019307F0F9
:1009800033F902AB9A1D167001214E4804F078FE2F
:1009900004AA06214C4804F073FEC3203A0001214A
:1009A000800004F06DFE02AB5A1C0121474804F0A0
:1009B00067FE03AA0221464804F062FE0321454A6D
:1009C000454804F05DFEC220217822000131C9B201
:1009D000800004F055FEC42002AB9A1C0121800067
:1009E00004F04EFE02213D4A3D4804F049FE02213A
:1009F0003C4A3D4804F044FE02213C4A3C4804F095
:100A00003FFEC52002213B4A800004F039FE019AD6
:100A10000C21300005F064FBFA210620490100F0AA
:100A2000F9FCFA210720490100F0F4FCFA21082022
:100A3000490100F0EFFCFA210920490100F0EAFC2D
:100A40002021287807F030F80120404205F094FB7F
:100A50000120404205F04AFC06F012FAFFF70EFDB5
:100A600000F06AF9012006F087FF012007F044F842
:100A7000F72000F079FC0121287807F095F8287814
:100A800001F060FC1C4807F017F8FFF7FFFB07B008
:100A9000F0BDC0463761FF1F5D0802116D080211ED
:100AA000C87C02116509FF1FADAC00006709FF1F7C
:100AB0002541FF1F6609FF1F2061FF1F2041FF1F07
:100AC0002261FF1F090300000B0300000503000063
:100AD00006030000437D021107030000D842FF1FF8
:100AE00011030000DA42FF1F12030000DC42FF1F67
:100AF00013030000DE42FF1F3861FF1F20230A009E
:100B000073B51A400D0019422DD03D4B1B78002BB8
:100B100020D03C4A012113780133DBB21800137056
:100B200008400B4219D0FFF707FE374C2000FFF7B3
:100B3000C1FC2100152006F087FE344A1378002BF3
:100B400008D0013BDBB21370002B03D1FA20400127
:100B5000FFF72AFE2020684076BD232BFAD91070BB
:100B6000FFF794FBF6E70BB2002B0ADA284B187854
:100B700006F0C2FD002801D006F0DEFE8020000253
:100B8000E9E702240E00264021420AD01D4B012134
:100B90001A706B461F48DA1D117004F071FD2000B9
:100BA000D9E70B0710D5FFF7C7FD00F0DFF8154AAE
:100BB00013780133DBB2052B02D813700820CAE783
:100BC0001670FFF763FBF9E71024214206D00C4BA7
:100BD0001B78002BE3D1FFF765FCE0E701242142FD
:100BE00005D00D4804F0BCFE06F026FFD7E704232D
:100BF000080018401942AFD04B401800ACE7C0467F
:100C00005267FF1F1F61FF1F4642FF1F1E61FF1F2C
:100C10003761FF1F050300001441FF1F10B502A834
:100C200004880B20002C10D1496808784978090203
:100C300001430C48814209D1022119800A4B59888D
:100C40001170DB7800205BB2537010BD074C0A2096
:100C5000A142FAD102211980034B998811705B7966
:100C6000F0E7C0466E2A00001461FF1F6F2A0000E3
:100C7000F7B5150008AA16884A680F4F14785278FD
:100C8000120222430A24BA4214D10122DBB2019299
:100C900000962A0006F03CF8041E0BD1074B1B6897
:100CA000002B07D068782A78000210434242504156
:100CB000013098472000FEBD022900000463FF1F99
:100CC00030B5012503790400BFB02B4227D0154968
:100CD000408805F089FB28420DD06A46124B6946D0
:100CE0005B8D138002235380104B5B889380608858
:100CF000002201F09FFF0E49608805F075FBC007D8
:100D00000DD56A460B4B69461B881380022353801E
:100D1000064B9B8893806088002201F08BFF3FB0D8
:100D200030BDC046FC62FF1F2C41FF1F1461FF1F36
:100D3000F462FF1F8641FF1F10B5074C07492000D2
:100D400005F008FB2000064905F004FB0721054AD1
:100D5000054805F0C1FA10BDFFFF0000FC62FF1F4F
:100D6000F462FF1F487D02112C41FF1F10B502489D
:100D700002F0E6FD10BDC046C10C021110B5034CD7
:100D80000B000122210000F06BFA10BD3D0F021193
:100D90000B8870B506000D000224162B11D92B000C
:100DA0000322094900F05CFA041E0AD1074B2A8885
:100DB0001B88191C934200D9111C300089B200F025
:100DC000EFFA200070BDC046690F02116263FF1F79
:100DD00010B54A780400013A0B000220012A07D816
:100DE0000A78002A04D005222000024900F038FACF
:100DF00010BDC046970F02110A7810B50B00040011
:100E00000220002A04D007222000024900F028FA1C
:100E100010BDC046431002110A7810B50B00040043
:100E20000220002A04D009222000024900F018FA0A
:100E300010BDC046A910021110B5034C0B000B22C7
:100E4000210000F00DFA10BDD910021110B5034CAD
:100E50000B000D22210000F003FA10BD4B1102110E
:100E600010B5034C0B000F22210000F0F9F910BD62
:100E7000A51102110A7810B50B0004000220002A07
:100E800004D011222000024900F0EAF910BDC0464A
:100E9000B5110211002310B51322190000F0E0F97A
:100EA00010BD000010B5034C0B001722210000F00C
:100EB000D7F910BD07120211002310B5192219002D
:100EC00000F0CEF910BD000010B5034C0B001B2242
:100ED000210000F0C5F910BD41120211F7B5848957
:100EE0000D0006000121002C22D000238268D35679
:100EF0001778002B1EDA0C2C1AD90C3CA4B213194B
:100F000040880093230002F076FE431E9841013092
:100F10007B06DB0F6B703F23013C1F40A4B228709F
:100F2000AF70AC80002C07D0B3680133AB600021F8
:100F30000800FEBD0020EBE7AC60F8E70B7803701B
:100F40004B8843704B881B0A83700B79C370042055
:100F500070470420022B06D10020537811781B0221
:100F6000009A0B43138070470B8803700B881B0A91
:100F70004370022070470420009983420AD15378BD
:100F800010781B0203430B80D37890781B02034335
:100F900000204B807047F8B50D004B7801240021EC
:100FA000461C03702B788B4201D82000F8BD6B786B
:100FB000B01C4F1C012B10D1890069184B880222EC
:100FC00033704B88B9001B0A7370691806F00CFE69
:100FD00004360434A4B2F9B2E4E7122359436B187F
:100FE0005A88043132705B8810221B0A73706918AA
:100FF00006F0FAFD12361234ECE770B5049D1400C9
:101000001E00052B01D8042070BD637812781B02E6
:1010100013432B80E378A2781B02134302226B80D8
:101020002A71211D681D063E06F0DEFDB2B22A813E
:10103000F02AE8D82800A11D0A3006F0D5FD0020CE
:10104000E2E7002310B50A789A4201D8900010BD5B
:101050009A008A185488013304705488DBB2240A39
:101060004470948884709288120AC2700430EAE74F
:1010700010B51100029C062B04D004201022142B62
:1010800001D010BD022222714B7808781B02034365
:101090002380CB7888781B02034363800431601D72
:1010A00006F0A2FD0020ECE710B50C788B78043137
:1010B0005C43E4B203702200013006F095FD601C31
:1010C00010BD0420022B06D10020537811781B029A
:1010D000009A0B431380704710B50C000A88023148
:1010E00006F082FD208810BD70B504000D00049844
:1010F0001100012B01D8042070BD1678527812021D
:10110000324302800200F83255701470E825002C3A
:1011100000D10C35023B9AB24280AA42EBD8023190
:10112000043006F061FD0020E6E7042000998342C8
:101130000AD1537810781B0203430B80D378907840
:101140001B02034300204B80704710B50C000A8837
:10115000023106F049FD208810BD000070B5012164
:101160001E000420049C0E400B4218D1CB40DDB27F
:101170008D4214D90A49DBB2098899420FD3230062
:10118000F6331D703300580011184978165C0902B7
:10119000314301332152D9B28D42F4D8002070BDC1
:1011A000A841FF1F10B50C000A88023106F01CFD93
:1011B000208810BD10B50C788B7804315C43E4B204
:1011C00003702200013006F00FFD601C10BD10B549
:1011D00011000298032B01D8042010BD1478527816
:1011E000043B120222430280CA788C781202224306
:1011F00042809AB28280F22AEED80431063006F09C
:10120000F3FC0020E9E710B50C000B8803700B8895
:101210001B0A43704B8883704B881B0AC3708A88F3
:101220000430063106F0E0FCA088043080B210BD26
:101230000420012B03D100201378009A137070470B
:1012400010B50C000B8803700B881B0A43704A888A
:101250000230043106F0C8FC6088023080B210BD54
:10126000F0B589B003931E4B029242000700D05A9A
:10127000019102F010F81325061E2DD0029B0124C7
:101280000370019B002B04D00019039998470019A3
:1012900084B26B461B7A5BB2002B0FDA1021380048
:1012A00002F00CFB1925002813D130003219E1B2ED
:1012B00002F056FC051E0CD10C34A4B2042304AA7F
:1012C000380005A993800696948101F09FFD051EC4
:1012D00002D0300006F028FB280009B0F0BDC0465F
:1012E0006063FF1F70B505000C0000280CD00020C3
:1012F000814209D010222000044906F075FC01202B
:101300002B7823736B78637370BDC046627D0211C6
:10131000F0B506000D0017001C0085B002291BD097
:101320000020102907D1022B07D0102B03D115E084
:101330000020102C08D005B0F0BD69463800FFF73A
:10134000D1FF2A0069460BE069463000FFF7CAFF6B
:1013500022006946380004E0022BE9D12A00390056
:10136000300006F021FBE6E7031CF72800D9F7233D
:10137000032008499AB2013A0B80D317034006496B
:101380009B189B100B80D30F04499B185B100B809C
:101390007047C046AC41FF1FAA41FF1FA841FF1F75
:1013A000034B1B888B4202D3024B4000C152704753
:1013B000AC41FF1F6063FF1F014B4000185A70478C
:1013C0006063FF1F1722014B1A8070476063FF1F85
:1013D00070B505000E2006F09FF9041E13D0D0232F
:1013E000037000230622837007494570033006F01E
:1013F000FBFB064B2100DA8A62811B7E2373044BC0
:10140000187806F029FA70BD7C63FF1F6C63FF1F1C
:10141000FC41FF1F03000220262B06D8034A9142FD
:1014200003D00020024A5B0099527047FFFF000082
:10143000AE41FF1F262803D8024B4000C05A704718
:101440000148FCE7AE41FF1FFFFF000070B506003A
:101450000C00094D1C220021280006F09DFB074BC3
:101460001E70074B1C7006F08FFA0123002801D074
:10147000002312202B7070BD6C63FF1FFC41FF1F07
:101480008D63FF1F70B505000D4C0800E260A16080
:1014900010220021656006F0C7FB012803D110214E
:1014A000A06802F038FD10220021280006F0BCFBE5
:1014B000012803D11021606802F02DFD70BDC046E7
:1014C0006C63FF1F70B5041E05D1002903D00622EE
:1014D0000D4806F089FB0D4B1D78012D11D1002C14
:1014E00005D102221A7006F0E7F9280070BD00222B
:1014F0001A70074B1B78FF2BF7D02000FFF768FF0F
:10150000F3E70025F1E7C0467C63FF1F6C63FF1F14
:10151000FC41FF1F030010B5002801D1002010BDC1
:1015200000780B4A002803D15988D1821B791376A1
:101530001378022BF2D10023984200D103331370A9
:10154000044B1B78FF2B01D0FFF742FF0120E6E799
:101550006C63FF1FFC41FF1F002911D000280CD035
:101560004B79012803D140225242134303E03F222A
:101570001340032802D001204B7170474022F4E74A
:101580000800FAE770B5094D0100287800280BD053
:10159000074C0622200006F027FB21002878FFF7E1
:1015A000DBFF200006F048F970BDC0468C63FF1FCA
:1015B0006663FF1F00290AD0012808D13F224B791A
:1015C0009343C02B03D0403B5A425341981C704771
:1015D00070B5174D06002B78FF2B15D00A2006F0AA
:1015E0009BF8041E10D0D0230370C83B8370114BAE
:1015F00011491B784670C3700622043006F0F4FAD5
:101600002100287806F028F90C4B1B78012B0DD10E
:101610000B4B1B68002B03D09B68002B00D0984716
:10162000084B04211878084A06F0D6FA70BDC04667
:10163000FC41FF1F8C63FF1F6663FF1F8863FF1F52
:10164000B463FF1FB863FF1F60EA0000014B986896
:101650007047C0466C63FF1F014BDB68186870471A
:101660006C63FF1F074B10B5DA6813680133136012
:10167000054B1878FF2803D08021C90106F094FAA1
:1016800010BDC0466C63FF1FFC41FF1FF7B50E0085
:1016900002F0A8F8051E1CD00E4B06621F78002F22
:1016A00000D10778AB791020019306F035F8041EBD
:1016B0000FD0D0230380C73B8370019BE91DC3700B
:1016C0000622043006F090FA21003800E66006F0A9
:1016D000C3F8F7BDFA41FF1F014B18787047C046A9
:1016E0008C63FF1F054B002805D1054B1A78054B6D
:1016F000002A00D1014B18007047C0467C63FF1FD1
:101700008C63FF1F6663FF1F014B58687047C0461C
:101710006C63FF1F024B1868431E9841C0B27047AC
:101720009063FF1F421E03000120152A03D9FF3BCF
:101730005A425341D8B27047F0B51C0000230E0046
:1017400085B0039002920B70029A934201D300205D
:1017500019E0E55C5A1CD2B2002DF8D0029851195C
:101760008142F4DC0233DFB2A35C18000193FFF77F
:10177000D9FF002807D0013D019A0399EBB23370DD
:101780008A4202D1E01905B0F0BDDB19DBB2DBE71C
:1017900010B50C0002F07EF803001220002B03D0DD
:1017A0002100588806F040F910BD000070B50E4DBC
:1017B00084006359002B15D0186A002801D006F068
:1017C000D3F82B59586A002801D006F0CDF82B59D0
:1017D000986A002801D006F0C7F8285906F0C4F826
:1017E00000232B5170BDC0469C63FF1F1C4B70B57E
:1017F00004000E00150099420AD11A4B1B68002BF9
:1018000001D1122070BD1B68002BFAD09847F9E770
:10181000154B994215D1134B1B68002B0AD01B683E
:10182000002B07D09847002804D1104B1C70104B98
:101830001D70E7E729002000FFF7AAFF0028E1D18B
:10184000F3E7080001F0CEFF0028DAD00378032088
:10185000A342D7D12900300006F0E6F8D2E7C0460F
:10186000FEFF00009863FF1FFFFF00009563FF1F4E
:101870009463FF1FF7B50400808801F0B3FF0025D3
:10188000A84203D00578A08801F0E8FF1C4E337809
:10189000002B1FD0AB421DD11A4B28001978FFF73F
:1018A00077FF002818D000233370A3790820A77889
:1018B000A688019305F030FF011E0DD0D0230370E0
:1018C000CA3B8370019B477086808371280005F0B6
:1018D000C3FF01E0002DE8D1A0880B4B8200D35854
:1018E000002B01D0FFF762FF1721A088FFF758FDFA
:1018F000A08801F007FDA08801F0DEFDF7BDC0461D
:101900009563FF1F9463FF1F9C63FF1FF0B587B0B3
:101910001D000CAB1B88070001930DAB1B88142026
:1019200002930EAB1B88160003930FAB1B8800912C
:10193000049310AB1B88059305F0EEFE041E1AD02D
:10194000D0230370CB3B47708370C67006222900FA
:101950000430002D11D006F047F9019B210063816E
:10196000029B0098A381039BE381049B2382059B38
:10197000A37405F071FF07B0F0BD06F00DF9ECE7B8
:10198000F7B5009308AB1B8807000C200D0016006C
:10199000019305F0C1FE041E13D0280001F022FFC0
:1019A00000280FD00078D0232370C93BA370009B80
:1019B00021002381019B6770A580E680638105F08B
:1019C0004BFFF7BD014B1878EDE7C046FC41FF1F08
:1019D00013B5040064890389C2888188C0780094A3
:1019E000FFF7CEFF13BD000010B5044C206800289F
:1019F00003D005F0B9FF0023236010BDA063FF1FD3
:101A0000A122F0B5818892004A43384B384F1B68B9
:101A100004009B189D2292009B18827989B01A605D
:101A20003B68002B5FD01D78324B1B68002B04D025
:101A30005B68002B01D00020984726000836310053
:101A4000E079FFF7B7FD237DE0710200E0780493B1
:101A5000638A29000393238A0293E3890193A3886D
:101A600000933300FFF752FFE378002B0BD1E2899C
:101A7000A379A18802920196E279280000920122BE
:101A800001F0BAFEE0703B68002B20D0FFF7ACFFFE
:101A9000194D287800281AD0184B1978FFF778FECE
:101AA000002814D02B78E67808200793A78805F043
:101AB00033FE011E09D0D0230370CA3B46708370E9
:101AC00087808671079805F0C7FE00232B701721C9
:101AD000A088FFF765FCA08801F014FCA08801F045
:101AE000EBFC09B0F0BD064B9DE7C0463409FF1F73
:101AF000A063FF1FB463FF1F9563FF1F9463FF1F65
:101B0000FC41FF1FF8B5070008000E0001F06AFE57
:101B1000041E18D02620FFF78DFC051E00D1257865
:101B2000062005F0F9FD041E0DD00021062206F066
:101B300033F8D0232370C23B21006770A370A680C6
:101B4000E8B205F089FEF8BDF0B585B001930AABA7
:101B50001B78070002930BAB1B7808000D00009266
:101B6000039301F03FFE061E22D0102005F0D4FDA5
:101B7000041E1DD01022002106F00EF82620FFF7CB
:101B800059FC002800D13078D0232370C13BA370CA
:101B9000009B21002372019B67706372029BA580EA
:101BA000A372039BC0B2E3720C9BE36005F054FE8A
:101BB00005B0F0BDF7B50D00019001F013FE071E52
:101BC00020D00E2005F0A8FD041E1BD02620FFF714
:101BD00031FC061E00D13E78D0232380C53B06226F
:101BE000A370F91DE01C05F0FFFF019B2A00638133
:101BF0000123DD401A401D40210022736573F0B2BD
:101C000005F02AFEF7BD0000F0B585B00290100087
:101C10000D0017000A9E039301F0E4FD041E31D06D
:101C2000029B002B2ED1039B02795B0724D5122344
:101C300013430422002E08D10B99002905D10C99D9
:101C4000002902D10D9900291AD01A430D9B227147
:101C5000002B00D0C9E0002E00D1CFE0002D00D035
:101C6000CCE0606A002801D005F07EFE1C21300027
:101C700005F04AFE606205E002239A430E33D7E77F
:101C800093432371654BBA00D458002C00D1AAE0CD
:101C9000002E10D0236A002B03D11C2005F0BCFDC0
:101CA00020625E4BBA00D358186A002803D01C2269
:101CB000310005F099FF0C9B002B12D0574CBB0054
:101CC0001D596B6A002B03D1162005F0A5FD686233
:101CD000BB00E358586A002803D016220C9905F07F
:101CE00083FF0D9B002B11D04C4DBC006659B36A8D
:101CF000002B03D1142005F08FFDB0622B59986A98
:101D0000002803D014220D9905F06EFF380001F071
:101D100069FD051E67D0414BBA00D358002B62D035
:101D20001A6A3420002A00D11C389A6A002A01D08D
:101D3000143080B20B9A002A01D01C3080B25B6A4A
:101D4000002B01D0163080B205F0E6FC041E4AD00C
:101D50001822002105F020FF2620FFF76BFB0190E1
:101D6000002801D12B780193D0232370029B2000FF
:101D700063700A23294EA370039BBD00A371AB5966
:101D8000A780196A1830002905D01C22A06005F030
:101D90002BFF200034307359996A002907D00300C3
:101DA00014221433E060029305F01EFF02980B9B8F
:101DB000002B08D003001C221C330B9920610293D6
:101DC00005F012FF02987359596A002903D01622B0
:101DD000606105F009FF6B462100187905F03CFDB4
:101DE0003800FFF7E3FC05B0F0BD10220D9B0D9904
:101DF0001B69A018236205F0F7FE2CE70B9B002B54
:101E000000D13FE7012D00D03CE7606A002801D0F7
:101E100005F0AAFD1C210B982AE7C0469C63FF1F12
:101E200010B5044C2068002803D005F09DFD002368
:101E3000236010BD9063FF1F0B4B07B51A68002A83
:101E400001D100200EBD6946531C012012780731D4
:101E5000FFF772FC0028F4D002780123100018402C
:101E60001A42EED0EEE7C046AC63FF1FF0B51F4F3D
:101E700001203B6887B0002B25D09B78059300F0AC
:101E8000A5FB002821D00A20FFF7D4FA04000B207C
:101E9000FFF7D0FA164B05001E78731E9E413B6873
:101EA000F6B2191DD878FFF757FB3B682900DA7A9C
:101EB000043303929A790193029200903300200038
:101EC000059A05F049FE07B0F0BDFFF7B5FF002801
:101ED00005D00620FFF7AEFA04000720D8E7082057
:101EE000FFF7A8FA04000920D2E7C0469063FF1F5D
:101EF0008C63FF1F70B50A4E040033780D00FF2B72
:101F00000DD0042005F008FC011E08D0D02303707A
:101F1000CE3B45708370C470307805F09DFC70BD79
:101F20000C42FF1F70B5040006200D0005F0F4FB05
:101F3000011E0AD0D0230370CD3B8370054B447043
:101F40001B688580187805F087FC002C01D0FFF70E
:101F500067FF70BD9063FF1FF8B5264F06003B6812
:101F60000D001124002B05D10522234B1B781342B1
:101F700002D112242000F8BD204A10241268002A41
:101F8000F8D01278002AF5D0DB0719D52B789A1EE5
:101F9000012A1AD80C2005F03FFC132438600028D1
:101FA000E8D000230A22437029000670023005F0B1
:101FB0001BFEFFF75BFF041E0AD0FFF731FFD9E7D6
:101FC00000F004FB0028E1D1E4E7002BE2D0D0E7E9
:101FD0000B4B1B78032BCDD11D20FFF72BFA094BA0
:101FE00018800028C6D0084B04211878074A05F04D
:101FF000F3FDBFE79063FF1F8D63FF1FAC63FF1FFF
:102000008C63FF1F8A63FF1FB863FF1F60EA000035
:10201000F7B50193194B14001A78052306000F0039
:1020200012201A4221D0012920D1154B1D68002D04
:102030001BD002201F2C18D8002C02D0019B002B93
:1020400013D0104B1F221E706E1C0021300005F0B3
:10205000A3FD01992200300005F0C6FD31002000EB
:102060002C70002F06D005F0D7FCFEBD064B1220C9
:102070001D68DCE705F080FBF7E7C0468D63FF1FB6
:10208000AC63FF1F0C42FF1FA863FF1FF8B50F4E84
:1020900012243368002B17D01B780F3C834213D1D6
:1020A00000250B4F0221387805F0BEFB094B0421B7
:1020B00038781D8005F0B8FB074B28001D80336879
:1020C0005C7005F041FD04002000F8BD9063FF1F27
:1020D000B863FF1FA463FF1F8A63FF1F70B5012849
:1020E00023D11B4C2388002B03D01A4A1578002DCE
:1020F00007D0194B1B68002B02D01878FFF7C6FFDA
:1021000070BD3B2B02D93C3B2380F9E7134E0221E3
:10211000307805F089FBFA222388920002215A4385
:10212000307805F099FC2580EAE70B4B1B68002B03
:10213000E6D00B4B1B785B07E2D5084B02211878E1
:1021400005F072FB0022024B1A80FFF769FED7E709
:10215000A463FF1F8863FF1F9063FF1FB863FF1F07
:102160008D63FF1FF8B51E4D2868002803D005F0C9
:10217000FBFB00232B601B4E3068002803D005F0CA
:10218000F3FB00233360184F05243B7818002040F0
:10219000234221D0154800F01DFA3B78234213D08A
:1021A000202005F039FB2860002813D020220021D0
:1021B00005F0F2FC202005F02FFB041E306005D056
:1021C0002022002105F0E8FC002004E0286805F04A
:1021D000CBFB2C601320F8BD00F0FCF9F4E7C046FF
:1021E000AC63FF1FA863FF1F8D63FF1F0042FF1F2B
:1021F00010B50A4C23681A1E0ED0002808D10130F1
:10220000587005F0A1FC002805D02368002B02D0EF
:102210000021FFF787FE0122100010BD9063FF1F11
:10222000F7B5274E050033680191181E21D05C7860
:10223000244F012C30D1FFF7FFFD002825D02000CE
:10224000FFF7F8F80400412814D91F4B0221187831
:102250001E4A05F0C1FC1E4B3C3C1C800222336828
:102260005A703B78002B14D128000199FFF75AFED1
:102270000120FEBDFA2292004243002AEED0124B0A
:102280000221187805F0E8FBE8E7FFF7D3F8020031
:10229000F3E700233B70EBE73B78002BE8D103200A
:1022A00005F03AFA011E08D0D0230370CC3B4570EC
:1022B00083703368187805F0CFFAFFF7B1FDD7E7E0
:1022C0009063FF1F8863FF1FB863FF1F60EA000071
:1022D000A463FF1F10B51749838802008B4220D0EA
:1022E00011D815498B4217D0144900205B1899B2B8
:1022F000012907D8926811785A425341D8B2FFF7A2
:10230000F9FD012010BD0E4A00209B1807229BB248
:102310009A424041C0B2F5E783681878FFF768FF3A
:10232000F0E7836899785A78090218781143FFF723
:1023300077FFE7E70A20000006200000F8DFFFFF34
:10234000AFDFFFFF014B18707047C0460D42FF1F03
:1023500010B5064C207001F021FA207805F0ECFB56
:102360000521207800F042FD10BDC046B863FF1F74
:102370000BB273B50D00002B00DBBBE0834B18786C
:1023800005F0BAF9041E0ED00378912B0FD0A22BC2
:1023900000D198E07E4B1878FF2852D0210005F03C
:1023A0005BFA00284DD180200002684076BD43785A
:1023B0000F2B6DD013D8052B67D00E2BEAD1838855
:1023C000744A93422BD8744A93421BD8734A93425F
:1023D000E0D183681878591CFFF774F838E03E2B79
:1023E000D8D18378032B6BD063D8012B65D0022B17
:1023F000D0D16B4B1B68002B23D05B68002B20D007
:1024000098471EE0674A98180C28C3D805F0DEF8F4
:102410001DC2C2150BC20B0B0B2723C23200624A2E
:102420009B18072BB6D8614B1B68002B09D01B6883
:10243000002B06D0200098470AE0A3681878FFF721
:10244000C7F8200005F078FAADE7A068FFF762F85A
:1024500000289FD0F5E7A2681278002AF1D0504AF0
:102460001268002AEDD01268002AEAD02100180074
:102470009047EDE74E4B1B68002BE2D05B68002BCA
:10248000DFD0210043489847E2E7FFF7F3F9D8E7A8
:102490008088484B984203D0474B984200D079E758
:1024A000434B1B68002BCCD05B68002BC9D02100AC
:1024B000E9E7153B012BC4D96CE7FFF7A1FAC0E7A8
:1024C000FFF786FABDE73D4B1B78042B07D10023AD
:1024D0006A4613800179408800F0AEFCB1E7344BC6
:1024E0001B68002BADD05B68002BAAD001003448DC
:1024F0009847A6E7012421420AD0294B1B68002BEC
:1025000004D05B68002B01D00020984701204CE7E5
:102510008B070AD5254B1B68002B04D05B68002B6A
:1025200001D02000984702203FE7042128000840FE
:102530000D4200D13AE7234E3388002B21D0013BD6
:102540009BB23380002B1AD1FFF7E4F800280AD0A1
:102550001D4B1C70154B1B68002B04D05B68002BB7
:1025600001D020009847FFF7CFF8694601F0EAFC58
:102570006846FFF707F81D20FEF75CFF3080042057
:1025800013E7024B187805F04FF9F8E7B863FF1F1F
:102590000D42FF1F0E200000012000000910000066
:1025A000B063FF1FFEDFFFFFAFDFFFFFB463FF1F5E
:1025B0009863FF1F0D200000132000008D63FF1F94
:1025C000FFFF00008A63FF1F8863FF1F10B501F043
:1025D00089F910BD014B18607047C046B463FF1FF6
:1025E0000B880020162B01D817230420014A1380E2
:1025F0007047C0466263FF1F00207047074A030010
:102600001188814207D091880020994202D101307F
:102610008000101870470020FAE7C046C063FF1F13
:10262000F0B58F7806000D00C7B01E2F13D1FFF74D
:10263000E5FF051E0CD000223B003100C07800925F
:1026400000F0A4FB0400A81C00F0C5FBFF23EB7006
:10265000200047B0F0BD264B062403931B78FF2BC8
:10266000F6D0182FF4D87B08224A013BDB000292F7
:102670009A589446002AEBD0029AD3185B68002B34
:10268000E6D00878002802D14B78012B02D106242D
:10269000122FDDD107AFAB88697800976446AA682E
:1026A000A047041ED4D1AB78029A5B08013BDB0043
:1026B000D318390030005B68984700280BD1AB78FD
:1026C000042BC5D0039A310010782200009700F047
:1026D0005DFB0400BCE76B78002BFAD1AB7805A951
:1026E0000B703B88087130004B80FEF747FBAFE76B
:1026F0001042FF1F747D02111D4B37B50500984233
:102700000BD000290AD1FFF779FF002805D119481D
:10271000FFF774FF002800D0058037BD01291AD1CA
:10272000FFF76CFF041EF8D001235B420380A378FF
:10273000FF2BF2D0FE2B07D00023E0781422009369
:1027400029001E3300F022FBA01C00F044FB0123F3
:102750005B426380E1E70229DFD1013901F0AEF885
:102760000028DAD12800FFF749FF041EDFD1D4E7A3
:10277000FEFF0000FFFF0000022210B5074B52428F
:102780001A80074801325A809A80DA8000F06EFA87
:10279000044801F015F8002010BDC046C063FF1FBB
:1027A00021260211F92602110388F7B50400002B37
:1027B00002D102252800FEBD426802211378254877
:1027C0005268FEF7A5FD00282ED0234F01253A8838
:1027D000002AEFD0802321885B0201259B1A9942B1
:1027E000E8DC0C2005F018F8061E31D03B88228862
:1027F0009C4600231800019561469DB2491989B293
:10280000AA421BD8002801D062443A80002330003D
:10281000082208C0210005F0E7F9104A1368002BD0
:1028200013D100251660C5E76268022113780C48B1
:102830005268FEF76DFD0028C7D1BAE760681D0138
:102840004019418101330198D6E71A001B68E6E779
:102850001325AFE7E27D02110E42FF1FBC63FF1F8D
:10286000E07D0211014B18707047C0461042FF1FF7
:1028700014230A0010B51A40194204D00122102175
:1028800001F038F810BD4B06F9D401208843400010
:10289000F8E710B514008B0604D50122102101F0D1
:1028A00029F810BD08230A001A40194202D14BB280
:1028B000002B0FDA102101F01DF8002808D02300AA
:1028C000F9331B78002BECD0F8342378012BE8D1B6
:1028D0000020E6E703208907FAD4E2E7F0B51F00FD
:1028E000184B85B01C68019002910392002C27D1EF
:1028F000200005B0F0BDA5683301ED186B89019A81
:10290000934211D3029A93420ED8002F04D10A9B0E
:10291000002B10D12C00EBE73B002978039A686864
:10292000FEF7F6FC0028F2D10136B6B2A388B34216
:10293000E1D82468DAE7A3680A9A5B891380E9E79B
:102940000026F3E7BC63FF1F37B50C000A884988EF
:102950000123914217D3002A15D0651D23792A003F
:1029600002210A48FEF7D4FC102300280BD023795B
:102970006188208800242A000094FFF7AFFF0A2313
:10298000A04200D0230018003EBDC046E27D0211E7
:1029900013B50A0008884988012388420BD800280B
:1029A00009D00024137905320094FFF797FF0A231A
:1029B000A04200D02300180016BD13B50A000888F5
:1029C0004988012388420BD8002809D000241379B4
:1029D00005320094FFF782FF0A23A04200D02300B3
:1029E000180016BDF0B58BB003904A8808880E0019
:1029F0000123824255D3002853D00023012704AC81
:102A000023700022718813000092FFF767FF051EF4
:102A10003ED02078002835D12B78022B18D1677052
:102A20006A8983000130E31880005A8069680222B5
:102A3000201805F0D9F823780133DBB22370042B7A
:102A400019D93B006889013080B2002BD9D01FE032
:102A500002236370122358436A89231804305A8072
:102A600069681022201805F0BFF823780133DBB223
:102A70002370002BE5D10C4A6B899B185A425341B5
:102A8000DBB2DFE76378012BE4D12B78022BC7D0D0
:102A900022780A23002A04D021000398FEF798F92F
:102AA000002318000BB0F0BD0100FFFF0F4BF0B585
:102AB00004001868002816D083685D89A54207D8ED
:102AC0008288AE18B44203DA12019A18934201D1F7
:102AD0000068EFE71E005F891036A74204D1002985
:102AE00000D00D801800F0BD3300EFE7BC63FF1F7E
:102AF00070B505000C0008880021FFF7D7FF030020
:102B00000120002B04D022002800197AFFF7C1FE13
:102B100070BDF7B50C00002501902300F6331B783B
:102B2000AB4201D800200AE06B00E65A00213000D9
:102B3000E718FFF7BBFF002802D126800130FEBD59
:102B4000017A0198FFF794FE002802D03B88238089
:102B5000F5E70135EDB2E0E710B504000888002183
:102B6000FFF7A4FF03000120002B03D02000197AF7
:102B7000FFF77EFE10BD0000054B1B68002B01D146
:102B8000180004E09A6852898242F6D1988870470A
:102B9000BC63FF1FF0B50E27002687B0039302AB7E
:102BA000FF183E8005001F4B40891400984207D053
:102BB0002B78013000976A6880B2FFF78FFE06001D
:102BC00002212B7818486A68FEF7A2FB00280FD074
:102BD0006C892000FFF7D0FF002802D0013C0419C7
:102BE000A4B2039B002B00D01C80300007B0F0BDC6
:102BF00002212B780D486A68FEF78AFB0028E7D18E
:102C000002212B780A486A68FEF782FB002807D069
:102C1000002EDED03B88A342DBD17489013CDFE784
:102C20006C89DEE7FFFF0000E27D0211E07D02110A
:102C3000DE7D021170B504000D001600FFF7DEFC0A
:102C4000002803D083781720FE2B05D0002E04D156
:102C500029002000FEF738F970BD01221021200064
:102C600000F048FE0028F3D0F6E70000014B1860A2
:102C70007047C046CC63FF1F37B56B469D1D0100F2
:102C800004000222280004F0BFFC2B88B02B0ED1D8
:102C90002379122B09D12300FF339B78012B06D116
:102CA0000121608800F0E0F801E01B2BF8D037BD6F
:102CB00010B5054B0421187000F098F8FFF75CFD83
:102CC000FEF780FB10BDC046D063FF1F0020F0B5AB
:102CD0000BB20F0087B0834234DA274B187804F028
:102CE0000BFD051E2BD00378A02B25D103AE3100A0
:102CF000FEF7F4F8041E0BD1B378DB0724D51F4B85
:102D000006341B68002B03D0310068889847040004
:102D1000A868002801D004F007FE002C08D1184A4A
:102D2000039B1340174A934206D0B3781B2B03D062
:102D30000121688800F098F8280004F0FDFD80204B
:102D40000002784007B0F0BD0F4B1B68002B10D07D
:102D5000310068889847041EDAD07378002BD7D1E9
:102D6000B27801A90A704B800C716888FEF706F8EA
:102D7000CEE70624F1E7C046D063FF1FC863FF1FFC
:102D800000FFFF0000011200CC63FF1FF7B50190A8
:102D9000822040000D0017001E0004F0BDFC04005E
:102DA0001320002C12D0B02320002370089BFC229B
:102DB0006770658026710830002B08D0190004F078
:102DC00013FF2100019804F047FD0020FEBD089983
:102DD00004F0E2FEF5E710B5041E06D00078FD28E9
:102DE00003D804F061FDFF23237010BD0A1F93B2C6
:102DF00010B504000220032B05D882400020024BAE
:102E0000D1529B189C7010BDF063FF1F0B8870B5EA
:102E1000043B04000D000220032B0BD801212000ED
:102E200000F04CFD03001420002B03D029002000EB
:102E300000F0DEFB70BD000007B51300034A0092EE
:102E40000A00012100F02CFC0EBDC04675300211B5
:102E500007B5019203220092024B0A00122100F0F2
:102E600049FC0EBDF330021107B56B4601AA118073
:102E70000449D88008780633012802D1190004F0EB
:102E800013FC07BDD163FF1F0C4B10B51870002356
:102E9000FF210B4A1380138193819380094A538049
:102EA0001370517293819372D174D38213755177D9
:102EB00004F01AFC00F0FCF910BDC0460064FF1FCE
:102EC000F063FF1FD263FF1FF0B58DB06B4600208B
:102ED00003910C229B5E834200DBB0E05D4B1878CF
:102EE00004F00AFC051E00D1A4E00378902B00D06A
:102EF0009DE006AF01004688380000F013FA7968BB
:102F00000400002900D19CE03B88052B6ED13B8951
:102F1000032B1CD905AC200000F0A2F86288172A08
:102F200061D83989131D994231D1796823780431E8
:102F30000291D90738D5607800F08EF9071E06D0C7
:102F4000002303712378012B08D0132B23D0A8680A
:102F5000002800D178E004F0E7FC75E0628802996F
:102F600009A800F0A6F80290380000F08BF909AA31
:102F70002378387A0192002231000092029A00F000
:102F800012F9380000F064F9029B002BDFD030000A
:102F900000F080F9DBE70378032BD8D1628802992F
:102FA00009A800F0D6F8DEE7122B13D1029909A880
:102FB00000F0B5F8021EEAD127498B88002BC6D055
:102FC000887909A92378019161780091310000F096
:102FD000EAF8BCE7002302AA93833000617809AACB
:102FE000FFF72AFFB3E71D4B0993F6E7042B02D046
:102FF0009A1F012AABD8184A043B9B00995A002912
:10300000A5D0D218907831003A0000F0AEF8002830
:103010009DD13B88042B03D001213000FFF724FF12
:10302000012C04D1A868002801D004F07DFC280000
:1030300004F082FC8020039B0002434018000DB086
:10304000F0BD012800D182E701213000FFF70CFF1D
:10305000EDE7C0460064FF1FF063FF1F010017008B
:103060000B7803704B784370CB788A781B0213433C
:10307000438070470A88030002700A88120A42706F
:103080000A88012A06D14A8882704A88120AC270C8
:103090000420704702208242FBD14A8804309A7093
:1030A0004A88120ADA708A881A718A88120A5A7152
:1030B000EFE710B50400012082420CD94B780A7862
:1030C0001B0213432380834206D1CB788A781B02EC
:1030D00013436380002010BD022BFBD1CB788A788C
:1030E0001B02134363804B790A791B021343A380AD
:1030F000F0E70B8803700B881B0A43704B888370C2
:103100004B881B0AC3708B8803718B881B0A437121
:10311000CB888371CB881B0AC371082070470300DA
:103120000120082A14D14A780878120202431A8032
:10313000CA788878120202435A804A7908791202C2
:1031400002439A80CA798879120202430020DA8009
:10315000704710B504000120022A05D100204B78E9
:103160000A781B021343238010BDF8B50600102017
:103170000F00150004F0D0FA04000120002C0ED03E
:10318000A0230C22290023806780201D002D07D05A
:1031900004F02AFD2100300004F05EFB0020F8BDA1
:1031A00004F0FAFCF6E7F7B51E00009008AB142017
:1031B00017001D78019104F0AFFA041E12D0A2236B
:1031C0000370019B47704380099B057146710C2277
:1031D0000830002B07D0190004F006FD21000098EC
:1031E00004F03AFBF7BD099904F0D6FCF6E737B5D1
:1031F000041E0FD04388002B0CD00025C188132358
:10320000007A172201950095FFF7CDFFFF23658017
:103210006372257037BD000010B50C4904004A8860
:10322000002A09D08B89002B05D00020CB8A0222EE
:10323000834201D010BD012213000A204343002025
:103240004032C854C81842800472F3E7D263FF1FAB
:103250000023438003707047094B00211A0010B50A
:103260005C88002C06D01C79844203D10A234B438E
:10327000D01810BD01310A330329F1D10020F8E73D
:10328000D263FF1F10B50400407A04F00DFBFF234A
:10329000637210BD7047043010B580B204F0A4FB17
:1032A000002803D00421494204F006FA10BD0000B2
:1032B00070B50025104CA0682580A581A580A84286
:1032C00002D004F031FBA56000250C4C0C4B606D66
:1032D0001D80230058331D70A84202D004F024FB47
:1032E000656500256068002801D004F01DFB0135EC
:1032F00008340A2DF6D170BD9864FF1F3C64FF1F8F
:103300008C64FF1F70B5041E09D1054D2880A8816B
:10331000A880A868002802D004F006FBAC6070BD4D
:103320009864FF1FF0B54B8885B00193002343607C
:103330000A7905000F00022A00D07BE0CA88032A20
:1033400017D98B685E7819783602DC78D8790E4305
:1033500099781B7A24021B020C43034353495BBA3E
:103360000B80331D93421ED1042C04D0631F022B0B
:103370000ED9012015E0019A4D4B1201D35A002BB2
:1033800006D00198FFF7BEFF4A4A13690133136163
:103390000421B8682E812C80494204F08DF96860C0
:1033A000002005B0F0BD434D042C06D0631F022B56
:1033B0000FD9EB680133EB60DBE7019A3C4B12015C
:1033C000D35A002B05D00198FFF79CFF2B690133DE
:1033D0002B61374B30000293019B029A1B01019332
:1033E000002301998C468B52130063449C80039305
:1033F0009E81FFF750FF039B041E986016D00421A6
:10340000B868494204F058F9FA880100043A2000EB
:1034100004F0EAFB0199029AFB888A5A043B9B1844
:10342000029A8B522B6801332B60A2E7AB69013300
:10343000AB619EE71E4B0293019B1E01029BF35A58
:10344000002B2DD002998C19A068002828D0012AC1
:1034500026D1FA889B189BB27352A189994217D33F
:103460009B1AC018B96804F0BFFB029BA289F35AEB
:10347000934200D07DE700222B81A3882B80A36894
:103480006B60029BF2520B4A53680133536070E742
:10349000084A9368013393600198FFF733FF68E7A8
:1034A000044A536901335361F6E7C0460264FF1FC3
:1034B0009864FF1F0864FF1F70B5051E15D10B4CE3
:1034C0000B4B1880230058331870606D002802D011
:1034D00004F02AFA6565250050356068002801D09F
:1034E00004F022FA0834AC42F7D170BD3C64FF1FEF
:1034F0008C64FF1FF0B51700A12285B092000193E4
:103500004243394B06001B680C009B18D933FF332C
:103510001D78FDF751FF0430854204DD3000FDF7D2
:103520004BFF0430C5B2BD4207D33A000021300042
:10353000019B04F0F9F805B0F0BD2900380004F053
:10354000ABF82300C6B250331E700393019B2900D1
:103550006365380004F0A0F9CBB20293002B02D0CF
:10356000039B01361E7000262300503303931B7803
:10357000B34204D8606D002831D10020DBE7029A05
:103580002800002A04D0013B1000B34200D02800DC
:10359000F700E719387004F01FF9786000280ED0A2
:1035A0003A78019904F020FB019A3B780136D31850
:1035B0000E4A0193D369F6B20133D361D4E7039B7A
:1035C00018706065A74205D1084A1320D36A0133F9
:1035D000D362B0E7606804F0A7F90834F2E704F0BA
:1035E000A3F900236365C8E73409FF1F0864FF1FC0
:1035F000F7B50D0007000421686804F05DF82B8919
:10360000040003702B891B0A43702B8883702B885E
:103610001B0AC3702E8902250436F6B2FB2E15D87C
:103620001B4B9F4214D10C2004F076F81135011E7B
:103630000CD0902303708E3B0371043B4380154BE9
:103640008460C680187804F007F900252800FEBDC4
:103650005C237B43104AD3180093583301931B78A3
:10366000002B0FD10300320038000099FFF742FF12
:10367000019B05001B78002BE8D13800009904F06D
:1036800083FAE3E7054A0725536A01335362DDE70E
:10369000FEFF00000064FF1F3C64FF1F0864FF1F63
:1036A000F0B587B0009017200F0016000193FFF7C8
:1036B000F2FD1325041E19D00C98031E02D00199A7
:1036C000201D9847030AE370052302AAA070043066
:1036D000908127700098667003A993800494FFF787
:1036E00087FF051E02D0200004F01EF9280007B055
:1036F000F0BD0000F0B587B01F000CAB1B78039144
:10370000059301210DAB06001C78049200F0D6F859
:103710001425002821D02000FFF77EFD0135041E6E
:103720001BD01149059B0A7803700132D2B2131ED7
:10373000C68001D101231A000B7022713000049B56
:1037400003990097FFF7ACFF051E09D12300210064
:103750000648074A093304F077FA280007B0F0BD9D
:10376000002363802370F8E70464FF1FEF31021128
:1037700030750000F8B505000E00064C064F2368B2
:10378000002B02D03100280098470434BC42F6D107
:10379000F8BDC046A864FF1FBC64FF1F0123064A92
:1037A0005B425380002313715362044A13605360D9
:1037B0009360D36013617047BC64FF1FA864FF1F50
:1037C0000200002310B506499C000859002801D1C9
:1037D000625010BD0133052BF6D11320F9E7C04626
:1037E000A864FF1F034A5388181A434258414042B5
:1037F00010407047BC64FF1FF0B585B002930AAB60
:103800001F780CAB1B88009008000E0001920393F8
:10381000FFF7E8FF05001120002D1BD10E48FFF730
:10382000E1FF04001520002C14D006220B99A7718B
:10383000E01D04F0D9F9019B30002371029B29009F
:103840006371009B66802370039B6562E381FFF7D1
:1038500091FF280005B0F0BDFFFF000010B5FFF795
:10386000C1FF04000220002C12D060880121FFF764
:1038700081FF606A002801D004F076F82822002138
:10388000200004F089F9012300205B42638020714D
:1038900010BD000030B5074A074C55880100137869
:1038A0000020A54204D05B1A59424B4158421040B7
:1038B00030BDC046BC64FF1FFFFF0000084A10B5C2
:1038C00001230C00904208D0FFF78CFF031E04D0A8
:1038D000037923405A1E9341DBB2180010BDC04645
:1038E000FEFF0000024B1879431E9841C0B270479A
:1038F000BC64FF1F70B504000D001600FFF772FFD7
:10390000002804D10D4B9C4200D0143070BD416A98
:1039100003790520002907D012221A40102A02D16B
:103920000520002EF2D10F20DB06EFD5897E0C207A
:10393000A9428941494249420840E7E7FEFF0000A9
:10394000030010B5002800D110BD0348034A418888
:103950009142F9D09847F7E7BC64FF1FFFFF0000D2
:10396000002330B5C45CCD5C6C40D4540133102BC3
:10397000F8D130BD0F23002210B5C45C640022438F
:10398000CA54C25CD209013BF7D210BD020001004B
:1039900010B52032103104F017F810BDF0B58BB01F
:1039A0000390102005931700049103F035FF009059
:1039B000102003F031FF009B13240190002B05D051
:1039C00000280CD11324009803F0CEFF019B002B9C
:1039D00002D0180003F0C8FF20000BB0F0BD10208B
:1039E00003F01AFF0600102003F016FF1324050051
:1039F000002E00D1AEE0002819D01022002104F0E2
:103A0000CBF832002900039803F0DEFF041E0ED12C
:103A100033787F2B51D830000099FFF7ABFF009B24
:103A20001B787F2B53D801990098FFF7A3FF300034
:103A300003F09AFF002D02D0280003F095FF002C20
:103A4000C1D1102003F0E8FE0600102003F0E4FED0
:103A50000290002E7CD0002878D03A000F3223004C
:103A60000125121105D00F333B4015B25A42534184
:103A70001BB26A1E1201002B33D0049BD2B29818DD
:103A80000099029AFFF76CFF013D102200213000DF
:103A900004F082F8ADB2049F2D017D19AF4242D0EF
:103AA000002C33D0300003F05FFF029B002B00D1CD
:103AB00089E7180003F058FF85E729003000FFF779
:103AC00059FF28002549009AFFF74AFFA7E7290078
:103AD0000098FFF74FFF28002049019AFFF740FFA9
:103AE000A5E70F210F4004998A18D9B28F4208D94F
:103AF000D15C06A819540133102BF6D1029A019912
:103B0000C0E7791A48424141C901F2E73900300063
:103B100006AAFFF725FF3200039806A903F054FF19
:103B200010370400BAE7002CBCD13000029906AA75
:103B3000FFF716FF320006A9039803F045FF08229D
:103B400004003100059804F04FF8ABE71324A9E70F
:103B50001324AAE7002800D06EE733E7E87D0211BE
:103B6000F0B58BB00F0016000225009000283FD062
:103B7000002A3DD00B1DDBB21800029303F04CFE6F
:103B80001135041E34D0FDF767FD05003A00009999
:103B9000201D03F0B9FFEBB20393E3702B0CDBB2F3
:103BA0002F0A00936370FFB22B0E2370A77001934E
:103BB000FDF74CFD1022010006A803F0A5FF21002F
:103BC000029A04AB06A8FFF7E9FE051E0DD1039B80
:103BD00008223370009B04A9B370019B7770F370C7
:103BE000301D03F091FFFDF73DFD200003F0BCFE0A
:103BF00028000BB0F0BDF0B58FB00D00149E0390FF
:103C000004920593002A03D1022420000FB0F0BDD6
:103C1000002EF9D00398FFF7E5FD1424071EF4D019
:103C20007278337812021A43B3781B041343F27884
:103C300012061A43036A0192934201D30133E3D17E
:103C4000002D03D03B7901249B07DED508220021FB
:103C500006A803F0A1FF059B13240433DBB2180070
:103C6000029303F0D9FD051ECFD0059A04990430C4
:103C700003F04AFF04223100280003F045FF390019
:103C8000102210310AA803F03FFF2900029A06AB68
:103C90000AA8FFF783FE041E0FD1082206A908A870
:103CA00003F032FF0822311D08A803F07DFE012831
:103CB00007D101990398FDF7E9FC280003F054FEB1
:103CC000A3E70124F9E7000070B51C4C0500236848
:103CD000181E10D0002D14D11A78002A0CD1981C6F
:103CE000083203F081FF03F077FE0135002808D188
:103CF00023681D70012070BD0A331800082203F0EC
:103D000073FF2368002BF5D0122003F005FD061E7B
:103D10000DD0C1232168037045700231102202309A
:103D200003F062FF23683100587803F095FD2068A6
:103D300003F01AFE00232360DCE7C046E464FF1FA3
:103D4000F8B504002020FDF775FB0D4EA700BB5908
:103D50000500002B0DD000280BD0D878FF2809D102
:103D600008492A000C55F35907480333611803F03A
:103D70006BFFF8BD290003F027FD0028F0D1F8E71C
:103D80000065FF1FE864FF1F994F021170B5064DD3
:103D900084006359002B05D0D87803F085FDFF22FD
:103DA0006359DA7070BDC0460065FF1F70B506002C
:103DB0008CB00C00150000213022684603F0ECFEA8
:103DC00031001022684603F09FFE1D2021000322CF
:103DD000684403F099FE6846FFF7D8FD2D210400E2
:103DE00003222800694403F08FFE20000CB070BD50
:103DF000F0B50700160097B001931CAB1D78302278
:103E00001EAB00910AA800211C7803F0C5FE102209
:103E100039000AA803F078FE1022002102A803F05E
:103E2000BBFE0722310002A803F06EFE072202ABA0
:103E30009818631E9C41019903F066FE02AB9C73C7
:103E40002B005A1E934102AAD3730021102206A808
:103E500003F0A2FE06221D9907A803F055FE1A20C2
:103E600002ABC01806221F9903F04EFE10220099E3
:103E70000EA803F049FE102202AB0EA908781C78A8
:103E8000013A6040D2B2087001330131002AF5D105
:103E90000AA8FFF77BFD102212A904000EA803F068
:103EA000A3FE102206AB0EA908781D78013A6840DF
:103EB000D2B2087001330131002AF5D10AA8FFF708
:103EC00065FD044310222098E4B212A903F01CFE01
:103ED000200017B0F0BD70B50E0014008CB00100CA
:103EE000102268461D0003F00FFE3100082204A8CE
:103EF00003F00AFE2100082206A803F005FE68462A
:103F0000FFF744FD04001022280008A903F0FCFD7F
:103F100020000CB070BDF8B506000D000024371964
:103F2000AC4200D3F8BD03F0D7FB030A3B70631C1F
:103F3000DBB201379D4203D90234F054E4B2EEE71C
:103F40001C00EDE773B506000C000225002819D00F
:103F5000002917D0032101A8FFF7DDFF6B469A79EE
:103F60003F231A40013313436A463000937101A97D
:103F70002200FFF71BFF051E04D10322E01C01A94C
:103F800003F032FE280076BD03785807DA08C00F28
:103F9000D20080009B0710439B0F1843C0B27047AC
:103FA00007230B40C908C9000B430370704700008A
:103FB00070B50400FFF7EAFE134DA4006359002B0F
:103FC00021D0186A002801D003F0CEFC2B59986E3E
:103FD000002801D003F0C8FC2B59D86E002801D06E
:103FE00003F0C2FC2B59186F002801D003F0BCFC71
:103FF0002B59586F002801D003F0B6FC285903F064
:10400000B3FC00232B5170BD0065FF1F0E4B8000D9
:10401000C35870B50C00002B0FD09D68002D0CD03C
:104020002B78201D0B706B784B70A97CFFF7B8FFC5
:104030002B7E23726B69E36070BD1022002120008B
:1040400003F0AAFDF8E7C0460065FF1F014B1860AA
:104050007047C046FC64FF1F074A03008000825877
:1040600010B5002A06D0D088984203D1012901D189
:10407000FFF79EFF10BDC0460065FF1FF0B5264E3E
:1040800095B087000B93BB590500099112200A9245
:10409000002B31D0D888FFF7A5FB04001420002C9A
:1040A0002AD0280010A9FFF7B1FFBB591E781D6A5E
:1040B000002E23D00895FDF70FFB07000020FDF729
:1040C00011FB0790A379E61D069310AD0CA9089883
:1040D00000F0E2FA0EA9280000F0D7FA0B9B0A992B
:1040E0000493069B09980293079B039601930097FC
:1040F0000EAB0CAAFFF77CFE15B0F0BDFDF7ECFA95
:1041000006903000FDF7EEFAE31DA779079310AB98
:1041100006000893DAE7C0460065FF1F30B50C4C77
:1041200085002A59030085B00120002A0ED018000E
:104130006946FFF76BFF2B591A78D888054B002A80
:1041400000D1054B6A46072100F0D9FB05B030BD10
:104150000065FF1F8B4602119946021130B5094CCC
:104160008500295985B010226846253103F03CFDB1
:104170002A591121044BD0886A4600F0C0FB05B0D3
:1041800030BDC0460065FF1F3547021130B5094CF0
:104190008500295985B010226846353103F024FD89
:1041A0002A591121044BD0886A4600F0A8FB05B0BB
:1041B00030BDC0460065FF1F73470211F7B54D4F74
:1041C00086001020F4590D0003F026FBF3592062FD
:1041D000186A132200286CD0033A29009C6803F067
:1041E00003FDF3591A780192002A58D11E6A227DE4
:1041F000317B944651400122019F114201D1674613
:104200001740217D914339432175377B4F40BC4690
:1042100060460027800701D44F0817400121022083
:104220008F40227D82433A432275377B5740BC46FC
:1042300060460027400701D497080F400420227DE4
:10424000BF0082433A432275627D00279446604650
:10425000727B42400A4201D167460F400121627DD4
:104260008A433A436275777B5740BC4660460027D5
:10427000800701D457080F400220627D7F008243EF
:1042800017436775767B00227E40760701D4BA0813
:104290000A400426617D9200B1430A4362756A7840
:1042A000002A08D06278002A05D005220533DA7783
:1042B00000221000FEBD04222979114205D1A17C03
:1042C000114202D10533033AF1E7019A21782C78A3
:1042D000002A02D10A002100140018220429E8D87B
:1042E000042CE6D805206043034A05331218525CBB
:1042F000DDE7C0460065FF1FF87D021110B50A001A
:104300001121024B00F0FBFA10BDC046CF4702114D
:104310000B0030B587B001AD2B806B460400110057
:10432000981D082203F060FC2A000B212000024B9C
:1043300000F0E5FA07B030BDF747021110B50A00EA
:104340001121024B00F0DBFA10BDC0464B480211B0
:1043500013B50B0011006A4613706B460400062269
:10436000581C03F041FC6A4608212000014B00F074
:10437000C6FA13BD6B48021110B50A001121024B99
:1043800000F0BDFA10BDC046BB4802117FB5050064
:104390000B4BAA00D4580800002C0FD0666F237F67
:1043A000E28821780396266F0296E66E0196A46E47
:1043B0000094FDF729FC2800FFF7FAFD7FBDC046F9
:1043C0000065FF1F10B51721FFF7E0FF10BD0000CB
:1043D00070B50A000D00064B0221040000F08FFAB0
:1043E000060029782000FFF7D1FF300070BDC046DD
:1043F0009B47021170B586B000236A46137083682C
:1044000004001D78681E0A2859D801A903F0E8F8AD
:10441000060633373B3F43474B4F5300180000F02D
:1044200042F9062312284BD000281BD16088FFF7E1
:10443000D9F90823002813D04279002A47D1264B06
:104440001A78072312070BD5244B1A680723002A72
:1044500006D01668002E03D0290001AAB047030039
:104460006A4613706B461B786088002B2AD1FFF7D1
:1044700067FC06B070BD180000F06CF9D4E71800B6
:1044800000F087F9D0E7180000F093F9CCE71800A6
:1044900000F0ADF9C8E7180000F0C3F9C4E7180050
:1044A00000F0F6F9C0E7180000F0F6F9BCE71800D4
:1044B00000F013FAB8E7180000F013FAB4E7072386
:1044C0006A46137069466088FFF782FFD1E70523CB
:1044D000012AC5D1024BB8E78D63FF1FF864FF1FA7
:1044E000FC64FF1FF8B52C4F8600F35904000D0043
:1044F000002B40D0DA8882423DD15A78062A33D147
:104500001A78002A2ED0012099681A6A097D014282
:1045100006D0157B054203D007225A700120F8BD52
:104520000220014204D0157B054201D00922F4E7A4
:104530000420014204D0127B024201D00B22ECE79E
:10454000164B1B68002BE9D05B68002BE6D02000DF
:104550009847BB5900215B78122BDFD12000FFF771
:1045600015FFDBE70E4BECE7112A04D1002900D040
:1045700032252900F2E7002D08D12000FFF732F99B
:10458000002803D01023027913430371210028006F
:10459000FDF7B8FAC2E7C0460065FF1FF864FF1FC9
:1045A000FC64FF1F70B50E4E8500AB590400002B54
:1045B00013D01B78002B11D10A4B1B68002B04D0A1
:1045C0005B68002B01D02000984773595B78122B51
:1045D00003D100212000FFF7D9FE70BD024BECE7AC
:1045E0000065FF1FFC64FF1FF864FF1F094B80007C
:1045F000C3581020002B0CD01A6A002A09D09B68DF
:10460000002B06D0127A1B7E101C9A4200D9181C6F
:10461000C0B270470065FF1F70B503000D001400A5
:104620000220002A30D000292ED013700B78081DEC
:1046300053704B789370FFF7A7FCE07001200221C4
:104640002B7A23716B7B034063716A7B0A401343AF
:10465000042263716E7B1640334363716E7BF608F0
:10466000F600334363712B7B0340A371287B014029
:1046700000200B43A371297B0A401343A3712A7BBB
:10468000D208D2001343A37170BD10B50A00010017
:104690000120FFF7C1FF10BD10B50A000100022084
:1046A000FFF7BAFF10BD70B506000C000220002E07
:1046B00030D000292ED07378201D0B70B3784B704A
:1046C000F178FFF76DFC01223579257271794B1075
:1046D00008001340934010400343881010408000AE
:1046E000C9080343C9000B436373B1794B10080039
:1046F0001340934010400343881002409200C908C1
:104700001343C9000B4321202373FCF793FE85421A
:1047100001D2122070BD2220257AFCF78BFE854243
:10472000F7D823781820042BF4D86378012BF1D81C
:104730000020EFE7030010B50220002909D0002B6C
:1047400007D00322481C0A7019000D3203F04CFAFE
:10475000002010BD03000222080010B5002B06D077
:10476000002904D00E32591C03F03EFA002210003A
:1047700010BD030010B50220002909D0002B07D07E
:104780000422481C0A7019000C3203F02DFA002094
:1047900010BD10B5FFF7DEFF10BD03000220002999
:1047A00006D0002B04D0052200200A701B784B7025
:1047B000704703000220002B08D0002906D05B7848
:1047C00000200B70013B082B00D918307047030004
:1047D00010B50220002909D0002B07D00622481C62
:1047E0000A7019000A3203F0FFF9002010BD10B55D
:1047F000FFF7B0FF10BD02000B00022010B500292A
:104800000ED0002A0CD00721197011885970118818
:10481000090A997011180822D81C03F0E5F9002044
:1048200010BD03000A00022010B5002B0CD0002997
:104830000AD099785878090201431180901CD91C3C
:10484000082203F0D1F9002010BD030010B50220AA
:10485000002909D0002B07D00822481C0A70190033
:10486000921803F0C1F9002010BD02000B000220D5
:1048700010B500290BD0002A09D009211970117830
:1048800018185970511C062203F0AEF9002010BD13
:1048900010B5FFF75FFF10BD02000B00022010B53E
:1048A000002A09D0002907D0517819701118062262
:1048B000581C03F099F9002010BD030010B5022028
:1048C000002909D0002B07D00A22481C0A701900C1
:1048D000063203F089F9002010BD10B5FFF73AFF4A
:1048E00010BD02000B00022010B5002A06D00029DE
:1048F00004D018005178FFF753FB002010BDF0B52D
:1049000085B017001E006A46062305000800918145
:104910009380FEF7C0FC1324011E02900CD03800D7
:10492000B047041E05D1280001A9FEF76FFA041E46
:1049300002D0029802F0F8FF2800FFF701FA2000E9
:1049400005B0F0BDF0B504008BB001911500002159
:10495000102202A803F020F9334EA700B85900280E
:104960003CD0C388A34239D10378002B36D142789A
:10497000062A18D102000100553235310C3006AB41
:10498000FFF7A9FA002829D12000FFF72FFE020027
:1049900006A902A803F028F9200002A902F094FF5A
:1049A00001200BB0F0BD816E002917D00B8A112AAF
:1049B00028D19D420ED101981231093A02F0F4FF3C
:1049C000012807D1BB5920009D6EFFF70FFE29007B
:1049D0000200DEE732212000FFF7D8FC2000FEF7BE
:1049E00001FF061E1BD0416A002918D00B8AAB427A
:1049F00015D108220198123102F0D6FF01280ED1FC
:104A0000716A0AE09D42E9D108220198123102F050
:104A1000CBFF0128E2D1BB59996E8A7EB9E720000D
:104A200003F0F2F8BCE7C0460065FF1FF0B56B4D20
:104A300087007E5985B0337802900393002B00D015
:104A400087E0B368346A01937078062817D1012291
:104A50001B7D134202D0217B114218D10222134246
:104A600002D0217B114251D10422134203D0237B77
:104A7000134200D08BE0019B5A7DEB5991E007383F
:104A80000428F8D802F0ACFD032E42678300B36E11
:104A9000002B03D11C2002F0BFFEB066EB599C6EC8
:104AA000002C1CD010220021200003F075F8029881
:104AB000FFF79CFD01002000FFF72DFA02F00CFE2D
:104AC0002082200008211230FFF725FA0298FFF714
:104AD0008DFDA076EB592100D888FFF70FFC082246
:104AE000EB591CE0B36E002B05D01A00198AF08830
:104AF0001232FFF70DFC0222019B197DEB59114286
:104B00003DD0207B10423AD0073208E0F488FCF711
:104B1000FBFD01002000FFF711FC0A22EB595A703F
:104B2000029B9C002A595378073B042B11D8D0884C
:104B3000FEF758FE00284ED0C3895A08D2182849DB
:104B4000029B0298CB542B5941180433254803F09B
:104B50007BF805B0F0BDFCF7BFFD030001208342E8
:104B600001D100200393EB59DE88FCF7BBFD0399CC
:104B700002003000FFF7ECFB019AEB59117D042293
:104B800011420CD0217B114209D00B22C7E7F688D5
:104B9000FCF75CFD01003000FFF7EEFB6BE7019ACC
:104BA000527D01210A4204D0607B084201D00C22D0
:104BB000B5E702210A4204D0607B084201D00E22F0
:104BC000ADE704210A4204D0627B0A4201D01022E0
:104BD000A5E71222A3E7FA225200B0E70065FF1F03
:104BE0000465FF1FA34F021110B5064B1A7804236A
:104BF000100018401A4200D00348FFF727FA00209F
:104C000010BDC0468D63FF1F1442FF1F70B5040026
:104C1000FFF7D4FA051E43D12000FFF77FFA234E99
:104C2000A400A0598268937CDB0708D50321036A9E
:104C30001B790B40012B02D1017F0B430377431DEE
:104C4000D97F8B1E022B0DD8022900D00121C088EC
:104C5000FCF7B0FF042133591A7F59700A431A77C1
:104C6000280070BD01290CD10223102243700021BD
:104C70000C3002F091FF305910213530FFF74BF91D
:104C8000EEE70529ECD10223D118437010220C3035
:104C900002F0AAFF04233259117F0B431377EAE78E
:104CA00008251828DCD1053DDAE7C0460065FF1F5E
:104CB000F0B58BB0059143887E4F9E00F4591500E6
:104CC0000493002C15D1012902D000200BB0F0BDB7
:104CD000101D57781678FFF757F9EB6832000293EA
:104CE0002B7A0499019300903B002000FCF72CFFE5
:104CF000EBE7E388049A934201D00820E6E72378A3
:104D0000012B00D1D4E0059B581E092800D9CFE023
:104D100002F066FC05CE0A29CC506C859AB22900B7
:104D20000498FFF773FFD1E72000290010224530D7
:104D300002F05AFFB9594B78042B02D1013B4B705A
:104D4000C3E70B000A00253335320C310498FFF716
:104D500095F90498FFF702FA0522431E9841BB59C2
:104D6000C0005A70B2E7200029001022553002F02E
:104D70003BFF049B4F4C9D00295904980A0006AB49
:104D800055320C31FFF77AF929591022453106A81E
:104D900002F00AFE012808D10498FFF7F7F9059000
:104DA000002804D106222B595A7005988EE7082353
:104DB0000593FAE763780C2B7AD1E36E002B03D1CD
:104DC0001C2002F029FDE066BB59D86E00286FD088
:104DD0001022290002F008FFBB590498DC6EFFF78F
:104DE00005FC0D22A076BB595A706EE7E06E0028D4
:104DF0005ED063780D2B5BD12B8808220382A91C1F
:104E0000123002F0F1FEBB599A68517D0222114224
:104E100026D0186A407B104222D00C32E4E7637837
:104E20000E2B45D1236F002B03D1162002F0F4FC8A
:104E30002067BB59186F002803D01022290002F008
:104E4000D3FE0F22BB59CFE763780F2B30D1206FF1
:104E50000622691C103002F0C7FEBB599A68517DCA
:104E60000422114203D0196A497B1142D5D1002195
:104E70000498FFF78BFA28E7636F002B0DD0BB591E
:104E8000586F0028F3D01022290002F0ADFE012255
:104E9000BB5952425B6F1A61E9E7142002F0BCFC77
:104EA000BB5960675B6F002BE9D126E72978DFE704
:104EB00007200BE70065FF1F10B5064C207002F0BD
:104EC0000BFD06212078FDF791FF0348FEF778FCE3
:104ED00010BDC0461365FF1F5940021100200BB2E0
:104EE00070B50D00834216DA264B187802F004FCE8
:104EF000041E0DD00378922B0ED0A02B37D0224B5E
:104F00001878FF283AD0210002F0A6FC002835D1FD
:104F100080200002684070BD43780E2B0BD03E2BE2
:104F2000EDD18378052B12D0082BE8D181798088C8
:104F3000FFF7D8FA08E0154B82889A42DFD18368E0
:104F40001878591CFEF7C0FE002817D1D7E7104B80
:104F50001B785B0712D50F4B1B68002B0ED09B688C
:104F6000002B0BD0C289811D80889847ECE7FFF7A2
:104F700041FAA068002801D002F0D6FC200002F01F
:104F8000DBFCC5E71365FF1F0D42FF1F1820000063
:104F90008D63FF1FFC64FF1F10B50078FFF712FA46
:104FA00010BD10B50078FFF7FDFA10BD0C23434388
:104FB000084A10B59B185A68002A03D0012901D16C
:104FC000904710BD9B68002BFBD00029F9D1984772
:104FD000F7E7C0463065FF1F10B5162813D8012328
:104FE0008340094A946B1C439463506B984350630D
:104FF000D46B20009843012901D120001843D063CD
:10500000116B0B43136310BD00800040F0B500240A
:105010000127154B85B0DA6B144E03921A6C01927E
:10502000DA64019BE3403B4217D0039DE5403D40DD
:105030000295E5B202992800FFF7B8FF316A736A5A
:10504000002908D03900002B01D0029979402800AE
:10505000FFF7C2FF01E0002BF9D101340C36172C09
:10506000DFD105B0F0BDC046008000401465FF1FD1
:1050700010B5012402002000162A08D8054B5968F3
:10508000D140214204D01868D0400123184010BDFF
:10509000186DF9E700800040162807D80122064B5A
:1050A0008240002903D0D9680A43DA607047D96882
:1050B0009143D960FAE7C04600380040162807D867
:1050C0000122064B8240002903D0596C0A435A64DE
:1050D0007047596C91435964FAE7C0460038004064
:1050E00030B5162818D8032444430F4BE25C1B1933
:1050F0009C785D7801232D1B0135AB40013BA3401B
:10510000A140DB430C00122807D80849920052182E
:10511000116819402143116030BD054A11680B40E8
:1051200023431360F8E7C0463F7E021108F00040B9
:1051300014F00040C21F70B5D4B20623092C0BD85E
:105140000125084C9540002908D00021FFF7C8FF31
:1051500023682B4323600023180070BD2368AB43F2
:10516000F8E7C04600380040F0B5162826D8214B95
:105170001B185B78022B21D1032444431E4A1F4E87
:10518000A35C12199478012215008540B76B013C8D
:10519000E4B23D43A240B563194C122815D89B00D8
:1051A00000290CD117495B1899680A439A600123BA
:1051B000205C154A834011680B431360F0BD114910
:1051C0005B18996891439960F1E70E4B00290DD166
:1051D00059690A435A61225C1328E8D00123203A16
:1051E00093400A49086803430B60E7E75969914314
:1051F0005961F0E71465FF1F3F7E021100800040F7
:10520000847E021100F00040A0F00040A4F00040B5
:10521000F8B500241B4E1C4D1C4B1B5D012B1FD1F0
:10522000184A9269E2401A420BD00122AA569340D2
:105230002200143AD2B2022A09D815494A69134306
:105240004B6101340C360235172CE5D1F8BD002234
:10525000AA560F499200521891680B439360F0E7E9
:10526000022BEED1E7B23800FFF702FF01235840CE
:10527000C1B23800FFF778FF3800FFF7F9FE70770A
:10528000DFE7C0461465FF1F117E02111565FF1F81
:1052900000F00040012202388240054B002903D073
:1052A00059690A435A617047596991435961FAE74C
:1052B0000038004070B504000D000520162C1AD8E7
:1052C00000212000FFF7E8FEA31E012B03D80121D7
:1052D0002000FFF7DFFF00212000FFF72BFF012256
:1052E0000A49A2400A4B4868012D05D102431B1907
:1052F0004A605D70002070BD9043486002211C1917
:105300006170996991439961F4E7C046008000405B
:105310001465FF1F10B516280AD80122074B8240DA
:10532000002906D019680A431A600121FFF7C2FF5D
:1053300010BD196891431960F7E7C046008000402E
:1053400070B505000520162D17D80C2300246B43DB
:105350000A4A21009B181C70094B28005B195C70DD
:10536000FFF7A8FF0123AB40200006490A681A4353
:105370000A6005490A689A430A6070BD3065FF1FDC
:105380001465FF1F348000403080004070B5040079
:105390000E00FF2813D003250540FFF7D1FF084A70
:1053A000A3089B009B183F22ED00AA40AE4019685D
:1053B00020009143314319600121FFF76DFE70BD5C
:1053C00018380040F8B505000520162D25D80C2406
:1053D0006C43124BE4186368002B03D1A3680D30B3
:1053E000002B1AD0022201270D4B00215B195A70A5
:1053F00028002770FFF75EFF63681E1E08D0A368B1
:105400003E00002B04D02800FFF732FE4640F6B2E3
:1054100028003100FFF7E0FD0020F8BD3065FF1FD8
:105420001465FF1FF7B5C420FF222B4B80001958CD
:10543000002491437F3A0A431A508022274F520298
:10544000274E1A60274B1D5D002D21D0A31E012B76
:1054500003D80121E0B2FFF71DFF012D18D11F4B2A
:105460009B69E3402B4213D0E3B218000193FFF78E
:10547000FFFD01000198FFF74DFFE3B2143B022B43
:105480001DD801217156184A8D405369AB435361B1
:105490003B7F002B0DD0E5B22800FFF793FF2800DB
:1054A000FFF7E6FD7B7F0100834202D02800FFF773
:1054B0007DFD01340C370236172CC3D1F7BD012115
:1054C00000237156F3568D40074A9B009B189A683B
:1054D000AA439A60DCE7C04600E100E01465FF1FC4
:1054E000117E02111565FF1F00F0004010B5040089
:1054F0000520162C0CD801212000FFF7DBFE01232C
:10550000044A002011194B70A34091690B43936129
:1055100010BDC0461465FF1F70B5150004000E00D5
:10552000FFF70EFF0C236343084A20009B189D6081
:105530005E60FFF747FF064B064A051E136002D068
:105540002000FFF7FDFE280070BDC0463065FF1F3C
:105550000D500211C003FF1F70B5134D07202C78AA
:10556000002C1FD1982221005200280002F054FB89
:105570000123C420FF222B700C4B80001C635C6352
:105580000B4B1C605C600B4B195891437F3A0A43EC
:105590001A50802252021A600D20074A074902F071
:1055A000E3F8200070BDC0461465FF1F0080004076
:1055B000A0F0004000E100E0255402111152021158
:1055C000030010B50620072B07D8044A137002F019
:1055D0009BF80020024B034A136010BD3C42FF1FA2
:1055E000291BFF1F5C03FF1FF0B51B4B1B4F1B88C4
:1055F0003A8804001A4E1B4D85B09A420DD8328865
:105600009A420AD3184B1A882B889A4205D1174A16
:10561000174B12881B889A421BD00520FBF70AFF04
:105620003B8802AA13803388019053802B88114D48
:1056300093800F4B02A91B88D3800F4B2A781888C0
:10564000FDF706FC0D4B08212878019A1C7002F02A
:1056500003FA05B0F0BDC0461667FF1F4242FF1FA8
:105660004042FF1F1867FF1F1467FF1F1267FF1FCD
:105670003E42FF1F8267FF1F4442FF1F1067FF1F4C
:105680009E4B70B50600C0180C001500182800D9F4
:1056900028E101F0AFFF19001F00290027013000A9
:1056A00057005E0077008D009800A200A800B200AD
:1056B0002701BC00D000DA00E800F5000101270155
:1056C0002701270127010F0118238D48102905D034
:1056D000180070BD18231029FAD18A482200290029
:1056E00002F082FA0023F3E718230429F0D11268AC
:1056F000854B1A60F6E718230129E9D1834A2B78F4
:105700001178137000290ED0002BEBD1804B1A7842
:10571000062AE7D85423D3402342E3D07D4B1878A0
:10572000FCF7B4FCDEE7002BDCD0794B1B78012BB7
:1057300002D0033B022BD5D8764B0121187802F01A
:1057400033FACFE718230229C2D1734B12881A808B
:10575000C8E718231F29BBD8704E1F220021300034
:1057600002F01AFA22002900300002F03DFA6C4BD8
:1057700022001C70674B012118783300FCF748FCAD
:105780000300A5E718231F29A2D8664E1F22002177
:10579000300002F001FA22002900300002F024FA61
:1057A000614B22001C705B4B002118783300E5E749
:1057B0001823012900D08BE71278042A00D987E743
:1057C0005A4B1A708EE71823012900D080E712780F
:1057D000032A00D97CE7564BF3E7182355480629DE
:1057E00000D075E77AE71823012900D070E7127816
:1057F000072A00D96CE7504BE3E71823012900D0B2
:1058000066E71278032A00D962E74C4BD9E71823E0
:10581000022900D05CE71288494B1A80002A00D187
:1058200060E73B4B1B78052B00D05BE7394B1878C2
:1058300002F012F956E71823012900D048E7127840
:10584000012A00D944E73F4BBBE71823022900D0C7
:105850003EE711883C488A1F92B2824200D937E75E
:105860003A4B19803EE71823022900D030E711880F
:1058700035488A1F92B2824200D929E7344BF0E7BB
:105880001823022900D023E7FA21128849008A420E
:1058900000D31DE72F4B5AE71823022900D017E742
:1058A00011882D480A000A3A92B2824200D90FE7C5
:1058B0002A4BD6E71823012900D009E71278012ADC
:1058C00000D005E7134C0821207802F0B5F9162323
:1058D000002800D0FCE6FFF787FE0421207801F0C5
:1058E000A3FFFFE60223262E00D9F1E69C4200D05A
:1058F000EEE630002988FBF78DFD41E7FFFCFFFF56
:105900007067FF1F6067FF1F5C67FF1F5267FF1F05
:105910008167FF1F8267FF1F6642FF1F4642FF1F0E
:105920006542FF1F3267FF1F5167FF1F3167FF1F6F
:105930003067FF1F2A67FF1F2967FF1F2867FF1FA8
:105940002267FF1F1A67FF1F7A0C00004242FF1FE9
:105950004042FF1F1867FF1F760C00003E42FF1FEA
:1059600013B50C4B1C78002C11D1002801D00A4B28
:1059700018600A4A0A4B11780A4A10780A4A0192BA
:105980000A4A0092002200F007FC200016BD1124F4
:10599000FBE7C0468167FF1F0C67FF1F8067FF1F83
:1059A0007067FF1F8267FF1F5C67FF1F6067FF1F35
:1059B00010B5064B12201B78052B06D1044B132281
:1059C0001988044B1878FBF711FF10BD8167FF1F82
:1059D0004442FF1F8267FF1F10B500240122114BB4
:1059E00052421870104B1C70104B1A80FCF7AAFC26
:1059F00004220F4B21001A700E480C3202F0CCF832
:105A0000102221000C4802F0C7F807220B4B1C6043
:105A10000B4B1C700B4B1C700B4B1A700B4B1C7000
:105A200010BDC0468267FF1F8167FF1F4442FF1FF2
:105A30008067FF1F7067FF1F6067FF1F5C67FF1FA6
:105A40003167FF1F3067FF1F2967FF1F2867FF1F90
:105A5000F8B5174C0600257806A814240078052D03
:105A600023D1B41F134FA5B21824BD421DD88D1FDA
:105A7000ADB2BD4219D8FA256D00AA4215D21D005B
:105A80000D4F0A3DADB2BD420FD80C4C26800C4CD8
:105A900021800C4900240A800B4A1380FFF7A4FDE3
:105AA0000A4B0421187801F0BFFE2000F8BDC04663
:105AB0008167FF1F790C0000750C00004242FF1F38
:105AC0004042FF1F1867FF1F3E42FF1F8267FF1FF4
:105AD000F0B50BB20D0089B0002B00DB7CE1A84EC5
