:020000041102E7
:10000000F0B5022301244E4E4E4F8FB000203370C6
:100010003C7005F0F7FF07F027FD07F0C7FF07F07A
:10002000FBFD1F220021484B03AD1A70474B1C708B
:10003000474B1970474B19689143163A0A431A60A7
:10004000602219689143403A0A431A6007F064FC41
:1000500007F032FDC120FF213F4B80001A588A4330
:100060001A50C522920098588843BF3901439950CD
:1000700098583A4908408021C9010143802099508D
:100080009958C0050902090A014399508021344852
:10009000490107F0F9FC032322003249019400933F
:1000A000314807F089FB2C222800304907F0BEFABE
:1000B0002C006178207805F035FD02340EABA342A8
:1000C000F7D12B4B2B4A196803201140A022D202F2
:1000D0000A431A608022196892040A431A60196858
:1000E000254A1140802292030A431A60234B244A76
:1000F000934200D8012007F097FB07F0F5FC07F0CA
:10010000FBFC3078C0B207F07FFB3878C0B207F054
:1001100053FC07F0F9FC04231A492B70696003981B
:1001200007F05AFC05F03AFF0221174807F008FAD9
:1001300000F0A4F800F018FA00200FB0F0BDC0469F
:100140004A0AFF1F5844FF1F480AFF1F490AFF1FA2
:10015000680AFF1FBCF0004000E100E0FF00FFFF65
:100160005C44FF1FE056FF1F5C54FF1F787C0211A8
:1001700014F00040FF7FF8FFFFFF9FFF206BFF1F81
:10018000FF7FFF1F3B00010800C0031170B5002571
:100190002C492D4A2D484D6308CA1B051B0DED182F
:1001A0008242F9D100222A4B2A4C8B632A4B1A62D5
:1001B00080222A4B9205DA670822E3689343E360C2
:1001C000274B1B78012B03D0A368264A1340A3605A
:1001D0000021072005F0D0FC0021072005F08CFD50
:1001E0000021072005F09EFC0122E36811209343C3
:1001F000E360EE24E4006C4307F016FC112007F0E6
:100200000BFB112007F0B8FA174A200C04006423F6
:1002100090420AD8FA220023D200904205D9134B0B
:100220000A21C01807F060FAC3B2114A1372114BC9
:10023000D4801B78002B04D10F4B1021187807F0C5
:10024000C3FC70BD00000540880505400006054060
:10025000FF0100003CF0004000F0004004E100E03D
:100260004A0AFF1FFFDFFFFFB70B000030F8FFFF58
:100270006861FF1F9263FF1F8B61FF1F002210B593
:100280001100112007F080FA10BD0000F8B500231E
:10029000012508263D4F3E4C3B62E3681120AB43ED
:1002A000E360E368B343E36007F0B6FA112007F0B8
:1002B000BBFB112007F0E8FA402322680720134314
:1002C000236080236268DB02134363608023A2689B
:1002D0001343A360A3682F4A1340A3608023A2683E
:1002E0009B011343A3601023226C9A432264226C67
:1002F0002A432264802252003A62216B264A11402E
:100300002163216B99432163616B11406163616BD0
:1003100099436163A16B1140A163A16B9943A163F0
:10032000E16B0A40E263E26B00219A43E263E36817
:100330001A4A1340E36005F0F5FB2900072005F099
:10034000DFFB2900072005F017FC112007F044FC13
:10035000134B144AC72013608023626B5B03134363
:100360006363E36880003343E360E3680E4A1D4340
:100370000E4BE56019581140802212020A431A50B0
:10038000802292051A600A4B5E63F8BD00F00040BF
:100390003CF00040FFFFDFFFFFFFEFFFFFFF7FFFAD
:1003A0008D010211F403FF1FFF00FFFF00E100E0D9
:1003B0000000054030B503A804880B20002C0ED1A6
:1003C0004968074D08784978090201430A20A94283
:1003D00005D1012120001980024B1B7A137030BD1A
:1003E000192A00006861FF1FF7B5150008AA1688D2
:1003F0004A680F4F14785278120222430A24BA42F4
:1004000014D10122DBB2019200962A0006F014FDFD
:10041000041E0BD1074B1B68002B07D068782A7885
:100420000002104342425041013098472000FEBD77
:10043000022900006061FF1F30B501250379040027
:10044000BFB02B4212D00A49408806F061F828421A
:100450000CD06A46074B69465B8D55801380064B6E
:1004600060881B7A1371002203F006F93FB030BD9B
:100470005861FF1F2041FF1F6861FF1F10B505492C
:10048000054805F0FBFF0421044A054805F0B8FFC4
:1004900010BDC0465861FF1FFFFF0000A47C021181
:1004A0002041FF1F10B5024803F06CFF10BDC0468D
:1004B000390402110623837010330371443B4371E6
:1004C0002A3383714433C37100230222012110B502
:1004D00003720E4B027041701C8881724472197A4B
:1004E0000273C1729A784273DA7882730322C273FC
:1004F0001A7902745A7942740C2282749A79C274FD
:10050000DB7903751123C37010BDC0466861FF1FFE
:1005100010B5142007F090F9124B14220021186036
:1005200007F04AFB002007F0BFFA012007F00CFBA0
:10053000022007F071FA032003F0C8F9042005F047
:10054000DDF9052002F016FC062003F0D3F80720A1
:1005500000F0D6FD082005F033FF092000F032FA44
:1005600010BDC0466461FF1F10B507F0F5F801200B
:1005700007F032F907F0E0FA002010BD70B5160060
:1005800004AA148805AA15784A68507811780002E0
:100590002A4A0843801805284BD807F033F803137C
:1005A0001E29343F0720032C0BD80422121BAA4219
:1005B00000D92A0022491A803000091907F024FBCB
:1005C000002070BD0720032CFBD80422121BAA4276
:1005D00000D92A001B491A80EEE707200E2CF0D81C
:1005E0000F22121BAA4200D92A0017491A80E3E7FA
:1005F0000720022CE5D80322121BAA4200D92A00A8
:1006000012491A80D8E70720032CDAD80422121BDB
:10061000AA4200D92A000E491A80CDE70720032CF0
:10062000CFD80422121BAA4200D92A0009491A80F5
:10063000C2E700220A201A80C3E7C046DCD5FFFFCC
:10064000177D0211127D0211027D0211FE7C021142
:10065000F97C0211F47C021110B50D21024A034805
:1006600005F0CEFE10BDC046E87C02116441FF1FBC
:1006700010B500210D2005F0ABFB01210C2005F089
:10068000A7FB07F0B1FA0400092007F0FDF80022EB
:10069000194BDA6661321A6019685B3A9143023A83
:1006A0000A431A60154A94420CD10A22DA610732D1
:1006B0001A6210225A6000221A639A630132DA63C6
:1006C000DA6610BD0E4A944203D11E22DA61053269
:1006D000EEE70C4A944203D13022DA610632E7E7B2
:1006E000094A944203D14322DA610832E0E7074A1B
:1006F0009442DED16922F7E7005000400024F40064
:100700000048E801006CDC020090D00300D8B80576
:1007100010B50024064B0920DC6607F07DF82100A7
:100720000D2005F0E9FA21000C2005F0E5FA10BDD6
:1007300000500040F8B51C000023134D0F00EB667D
:100740006860160007F0F8F801238022EB662300AA
:100750002F615200013B08D207F016FA08200B4A1D
:100760001168002C03D12000F8BD2A61F2E72B6F3D
:10077000034203D02B69013C3370013613685B1AC6
:100780000A2BEED90124EEE7005000406008FF1F5D
:10079000002370B50C4C0D00E366606007F0CCF8E8
:1007A0000123E366256107F0EFF98020074A800006
:1007B0001168636B034205D113685B1A0A2BF8D9E1
:1007C000012070BD0020FCE7005000406008FF1FC2
:1007D000002370B5134C0E00E3666060150007F04F
:1007E000ABF80123E36626610F33626B1A42FCD03B
:1007F0002B0A23611023626B1A42FCD0EDB22561F3
:1008000007F0C2F98020084A80001168636B034238
:1008100005D113685B1A0A2BF8D9012070BD00209E
:10082000FCE7C046005000406008FF1F13B5FFF70B
:100830001FFF0223002101AA4020FFF77BFF6A4629
:1008400004000223012140200632FFF773FF044316
:10085000FFF75EFF002C15D16B4699880B4BC9BA88
:100860004B430B4A1B1453806B46DB8809495BBA28
:100870005B045B0C4B431B0C938013880133138088
:10088000200016BD07F058FB0124F9E706640000BC
:100890006861FF1F204E00007047000010B5040083
:1008A0000100062001F0C8FA2100072001F0C4FA77
:1008B0002100082001F0C0FA2100092001F0BCFA53
:1008C000054C207802F0F4F80422044B0121207832
:1008D0001A7007F079F910BDC263FF1FC163FF1FD3
:1008E000013870B5042809D806F08CFE03092008E9
:1008F0001200134B0221187807F066F970BD104BF7
:100900000821187806F0A0FF00220E4B1A70F5E7B8
:1009100000240B4D0C4B082128780C4A1C7007F062
:100920006BF92100287807F037F9E7E70122064B39
:1009300008211A70024B187806F086FFDEE7C046E1
:100940008B61FF1F7361FF1F7261FF1F1027000083
:1009500010B5002902D1112005F0FEF910BD0000EC
:1009600010B501290CD11322064B11201A7005F085
:10097000F3F9054B1B78002B02D00448FFF78EFFDC
:1009800010BDC0467261FF1F9263FF1FC4090000C3
:100990000300F0B50A4D8E18B14202D15200801802
:1009A000F0BD0C782F6824093C5D0F271C700C7873
:1009B00001313C402F683C5D5C700233ECE7C0467F
:1009C0004442FF1FF0B5704D87B0704A70492870DF
:1009D000042005F0C3FA112005F0AAFA0121112024
:1009E00005F0BAF907F0A8FA02211F2001F024FA55
:1009F000002302AA5370012202A98A700722CA703A
:100A000003AA1380CF1C0622624904A806F00EFE3A
:100A1000614C02AB062221006048063306F03AFC26
:100A200000280ED00321200006F0BEFE8D23E370C7
:100A30006E3B23710622193321005848637106F07A
:100A4000DDFC012256495748FFF7A2FF0122564913
:100A5000FFF79EFF01225049FFF79AFF0D23002662
:100A6000524C0C222370043B6370514B51481900C7
:100A7000019307F0C9F802AB9A1D167001214E4888
:100A800000F092F904AA06214C4800F08DF9C32029
:100A90003A000121800000F087F902AB5A1C0121C5
:100AA000474800F081F903AA0221464800F07CF98A
:100AB0000321454A454800F077F9C22021782200F9
:100AC0000131C9B2800000F06FF9C42002AB9A1C5A
:100AD0000121800000F068F902213D4A3D4800F004
:100AE00063F902213C4A3D4800F05EF902213C4A8C
:100AF0003C4800F059F9C52002213B4A800000F033
:100B000053F9019A0C21300005F07EFBFA210620F2
:100B1000490101F091F9FA210720490101F08CF90E
:100B2000FA210820490101F087F9FA210920490139
:100B300001F082F92021287806F0C6FF012040420A
:100B400005F0AEFB0120404205F064FCFFF784FD98
:100B5000FFF794FC00F002FE012006F01DFF0120CB
:100B600006F0DAFFF72001F011F90121287807F0EB
:100B70002BF8287802F0F8F81C4806F0ADFFFFF7D4
:100B800085FB07B0F0BDC0468B61FF1F5109021104
:100B900061090211327D02116509FF1FADAC000031
:100BA0006709FF1F4D42FF1F6609FF1F7461FF1F8A
:100BB0004842FF1F7661FF1F090300000B0300007E
:100BC0000503000006030000AD7D021107030000CD
:100BD0000444FF1F110300000644FF1F120300001E
:100BE0000844FF1F130300000A44FF1F8C61FF1F0E
:100BF00020230A0073B51A400D0019422DD03D4B39
:100C00001B78002B20D03C4A012113780133DBB242
:100C10001800137008400B4219D0FFF707FE374C3D
:100C20002000FFF747FC2100152006F01DFE344A86
:100C30001378002B08D0013BDBB21370002B03D1DB
:100C4000FA204001FFF72AFE2020684076BD232BC2
:100C5000FAD91070FFF71AFBF6E70BB2002B0ADA8D
:100C6000284B187806F058FD002801D006F074FED5
:100C700080200002E9E702240E00264021420AD02B
:100C80001D4B01211A706B461F48DA1D117000F0D0
:100C90008BF82000D9E70B0710D5FFF7C7FD00F050
:100CA00077FD154A13780133DBB2052B02D8137098
:100CB0000820CAE71670FFF7E9FAF9E71024214285
:100CC00006D00C4B1B78002BE3D1FFF7EBFBE0E7E2
:100CD0000124214205D00D4800F0D6F906F0BCFEF3
:100CE000D7E70423080018401942AFD04B40180042
:100CF000ACE7C0469263FF1F7361FF1F5C42FF1F9A
:100D00007261FF1F8B61FF1F050300003C42FF1F44
:100D1000F0B51B4B1B4F1B883A8804001A4E1B4D25
:100D200085B09A420DD832889A420AD3184B1A8855
:100D30002B889A4205D1174A174B12881B889A4272
:100D40001BD0052001F088F83B8802AA1380338865
:100D5000019053802B88114D93800F4B02A91B8863
:100D6000D3800F4B2A78188802F094FD0D4B082190
:100D70002878019A1C7006F07FFE05B0F0BDC046D1
:100D80005663FF1F5842FF1F5642FF1F5863FF1F45
:100D90005463FF1F5263FF1F5442FF1FC263FF1FB4
:100DA0005A42FF1F5063FF1F9E4B70B50600C018CC
:100DB0000C001500182800D928E106F02DFC1900B8
:100DC0001F0029002701300057005E0077008D00CA
:100DD0009800A200A800B2002701BC00D000DA00F1
:100DE000E800F500010127012701270127010F0174
:100DF00018238D48102905D0180070BD182310291C
:100E0000FAD18A482200290006F0FEFE0023F3E70B
:100E100018230429F0D11268854B1A60F6E71823CD
:100E20000129E9D1834A2B781178137000290ED05B
:100E3000002BEBD1804B1A78062AE7D85423D340F5
:100E40002342E3D07D4B187801F032FEDEE7002B21
:100E5000DCD0794B1B78012B02D0033B022BD5D879
:100E6000764B0121187806F0AFFECFE71823022950
:100E7000C2D1734B12881A80C8E718231F29BBD828
:100E8000704E1F220021300006F096FE220029003D
:100E9000300006F0B9FE6C4B22001C70674B01213C
:100EA0001878330001F0C6FD0300A5E718231F29B9
:100EB000A2D8664E1F220021300006F07DFE2200DF
:100EC0002900300006F0A0FE614B22001C705B4B35
:100ED000002118783300E5E71823012900D08BE7BB
:100EE0001278042A00D987E75A4B1A708EE7182324
:100EF000012900D080E71278032A00D97CE7564BFD
:100F0000F3E718235548062900D075E77AE7182338
:100F1000012900D070E71278072A00D96CE7504BFE
:100F2000E3E71823012900D066E71278032A00D9E5
:100F300062E74C4BD9E71823022900D05CE71288FE
:100F4000494B1A80002A00D160E73B4B1B78052BE8
:100F500000D05BE7394B187806F08EFD56E7182372
:100F6000012900D048E71278012A00D944E73F4B15
:100F7000BBE71823022900D03EE711883C488A1FAE
:100F800092B2824200D937E73A4B19803EE71823E4
:100F9000022900D030E7118835488A1F92B2824278
:100FA00000D929E7344BF0E71823022900D023E7C2
:100FB000FA21128849008A4200D31DE72F4B5AE7D5
:100FC0001823022900D017E711882D480A000A3A91
:100FD00092B2824200D90FE72A4BD6E718230129A3
:100FE00000D009E71278012A00D005E7134C082148
:100FF000207806F031FE1623002800D0FCE6FFF72B
:1010000087FE0421207806F01FFCFFE60223262E2F
:1010100000D9F1E69C4200D0EEE63000298800F0CD
:101020000BFF41E7FFFCFFFFB063FF1FA063FF1F43
:101030009C63FF1F9263FF1FC163FF1FC263FF1FFB
:101040007C42FF1F5C42FF1F7B42FF1F7263FF1F3A
:101050009163FF1F7163FF1F7063FF1F6A63FF1FB0
:101060006963FF1F6863FF1F6263FF1F5A63FF1FEF
:101070007A0C00005842FF1F5642FF1F5863FF1FA3
:10108000760C00005442FF1F13B50C4B1C78002C4B
:1010900011D1002801D00A4B18600A4A0A4B117876
:1010A0000A4A10780A4A01920A4A0092002205F080
:1010B00007F9200016BD1124FBE7C046C163FF1FDE
:1010C0004C63FF1FC063FF1FB063FF1FC263FF1F9E
:1010D0009C63FF1FA063FF1F10B5064B12201B78F7
:1010E000052B06D1044B13221988044B187801F004
:1010F0008FF810BDC163FF1F5A42FF1FC263FF1F5D
:1011000010B500240122114B52421870104B1C7074
:10111000104B1A8001F028FE04220F4B21001A7098
:101120000E480C3206F048FD102221000C4806F053
:1011300043FD07220B4B1C600B4B1C700B4B1C70B0
:101140000B4B1A700B4B1C7010BDC046C263FF1FC7
:10115000C163FF1F5A42FF1FC063FF1FB063FF1F21
:10116000A063FF1F9C63FF1F7163FF1F7063FF1F5E
:101170006963FF1F6863FF1FF8B5174C06002578E9
:1011800006A814240078052D23D1B41F134FA5B24F
:101190001824BD421DD88D1FADB2BD4219D8FA2505
:1011A0006D00AA4215D21D000D4F0A3DADB2BD42E1
:1011B0000FD80C4C26800C4C21800C4900240A804E
:1011C0000B4A1380FFF7A4FD0A4B0421187806F0A0
:1011D0003BFB2000F8BDC046C163FF1F790C000037
:1011E000750C00005842FF1F5642FF1F5863FF1F37
:1011F0005442FF1FC263FF1FF0B50BB20D0089B050
:10120000002B00DB86E1AD4E307806F085FA041E37
:1012100059D00378A22B00D135E1D02B1AD0912BD5
:101220004ED143780E2B4BD1A54B82889A4247D1A1
:10123000A44A83681278052A42D1032018567F28D1
:101240003ED0A14B1B68002B3AD05B68002B37D0F7
:10125000984735E08078072832D806F0DDF9080095
:1012600031002100480048007D00BB00EB0063789E
:10127000002B11D10622E11C944806F0C5FC012187
:10128000904B1970924B1A78002A5BD0914B3078B2
:1012900001F0D0FB002855D007228A4B1A7051E08C
:1012A00061780029F8D1E378002B11D08A4A8B4B62
:1012B0001278307801F0BEFB60706378002BEBD1C0
:1012C000200006F049FB80200002684009B0F0BD14
:1012D0007C4B1B78022BF3D00121307806F0BCFC4C
:1012E0000028EAD10121307806F06EFCE5E763784A
:1012F000002BD1D1734F032807D13B78052B02D1A6
:1013000001333B701EE00223FBE7754B1A88754BD7
:101310000293002A0BD01B78002B03D001213078D8
:1013200006F0AAFB3B78062B04D1013BE9E7029BC0
:101330001A70F7E7042B4BD10121029B307819700A
:1013400006F042FC604B1B68002BB9D01B68002BD9
:10135000B6D05C4A10787BE763785A4F002B31D1C6
:1013600006226148211D06F04FFC62895F4B1A80FE
:10137000A2895F4B1A80E2895E4B1A8005233B707D
:101380005D4B1A88002A03D00221307806F074FBE6
:10139000A2895A4B1A80E289594B1A80228A594BEA
:1013A0001A80594B1B78012B09D11F2000F054FDE6
:1013B000FA22920042430421307806F05DFB0022BD
:1013C000484B6BE7312B00D066E70022454B1A7083
:1013D000032396E706220021434806F0EDFB002395
:1013E000464A04211380464A30781380454A1380C8
:1013F00006F02AFA0821307806F026FAA379083B8D
:101400005A4253412F4A03331370314B1B78002B40
:1014100006D0344B30781A78002A06D001F048FB09
:101420000122324B52421A808CE70121197006F0DA
:10143000CBFBF5E70821307806F006FA6378002B3D
:1014400000D03DE72D4B2F4F0293E388029A0421F1
:1014500013802B4B307803932389039A138063897D
:101460003B8006F0F9FB002800D029E7274B1B68DA
:10147000002B00D124E7039902983A880988008854
:101480001B6898471CE74379132B00D018E70389A2
:10149000012B0AD11E4B1B78022B06D10821307874
:1014A00006F0D2F9FFF718FE0AE7052000F0D4FC99
:1014B00008210200307806F0DFFA01E7C263FF1F5F
:1014C00005140000C163FF1F4C63FF1F9363FF1FE0
:1014D0007B42FF1F5C42FF1F9163FF1F7263FF1F70
:1014E0007C42FF1F9263FF1F5B63FF1F5A42FF1F77
:1014F0006663FF1F6463FF1F6263FF1F5663FF1F66
:101500005463FF1F5263FF1F5A63FF1F4863FF1F8F
:101510005063FF1F8020C001014200D0D5E6CB07F9
:1015200031D5374B1B78002B1DD0364E05AC3378A8
:10153000052B1AD1023B2370334B21001B782372F9
:10154000324B1B786372324B187801F017FA00287F
:1015500009D007202F4B30701B68002B03D01B686D
:10156000002B00D098470120AFE60E202A4B062220
:101570001B782A4923702A4B1B78637002ABC01872
:1015800006F042FBD8E7022408002040214212D096
:101590001C4B1B78052B0CD1224B188806F014F934
:1015A000214B1A88002A04D0194B2100187806F024
:1015B00063FA022089E60424214203D0FFF7A8FB46
:1015C000200082E6082308001840194200D17DE679
:1015D000164B1C78012C03D0022C0DD0082074E689
:1015E000134B144A144915481B881288098800882F
:1015F0000094FFF7C1FDF1E7FFF76EFDEEE7C0468F
:101600009263FF1FC163FF1F6963FF1F6863FF1FB2
:10161000C263FF1F4C63FF1F7163FF1F6A63FF1FDD
:101620007063FF1F5A42FF1F6263FF1F5063FF1F5B
:101630005442FF1F5863FF1F5642FF1F5842FF1FAF
:1016400010B502A804880B20002C10D14968087836
:101650004978090201430C48814209D102211980CD
:101660000A4B59881170DB7800205BB2537010BDB3
:10167000074C0A20A142FAD102211980034B998814
:1016800011705B79F0E7C0466E2A00006861FF1FA9
:101690006F2A0000F7B5150008AA16884A680F4F90
:1016A00014785278120222430A24BA4214D1012239
:1016B000DBB2019200962A0005F0BEFB041E0BD19E
:1016C000074B1B68002B07D068782A78000210436C
:1016D00042425041013098472000FEBD02290000DF
:1016E000D463FF1F30B5012503790400BFB02B423E
:1016F00027D01549408804F00BFF28420DD06A46D8
:10170000124B69465B8D138002235380104B5B881C
:1017100093806088002201F0AFFF0E49608804F0DA
:10172000F7FEC0070DD56A460B4B69461B88138030
:1017300002235380064B9B8893806088002201F02F
:101740009BFF3FB030BDC046CC63FF1F8042FF1FF0
:101750006861FF1FC463FF1FDA42FF1F10B5074C0B
:101760000749200004F08AFE2000064904F086FEA6
:101770000721054A054804F043FE10BDFFFF0000A5
:10178000CC63FF1FC463FF1FB07D02118042FF1FA7
:1017900010B5024802F0F6FD10BDC046E516021174
:1017A00010B5034C0B000122210000F06BFA10BDB4
:1017B000611902110B8870B506000D000224162B6A
:1017C00011D92B000322094900F05CFA041E0AD14A
:1017D000074B2A881B88191C934200D9111C300022
:1017E00089B200F0EFFA200070BDC0468D190211D9
:1017F0003264FF1F10B54A780400013A0B00022042
:10180000012A07D80A78002A04D0052220000249BC
:1018100000F038FA10BDC046BB1902110A7810B5A5
:101820000B0004000220002A04D0072220000249F5
:1018300000F028FA10BDC046671A02110A7810B5E8
:101840000B0004000220002A04D0092220000249D3
:1018500000F018FA10BDC046CD1A021110B5034CA5
:101860000B000B22210000F00DFA10BDFD1A021131
:1018700010B5034C0B000D22210000F003FA10BD3F
:101880006F1B021110B5034C0B000F22210000F05A
:10189000F9F910BDC91B02110A7810B50B0004003C
:1018A0000220002A04D011222000024900F0EAF9A7
:1018B00010BDC046D91B0211002310B51322190018
:1018C00000F0E0F910BD000010B5034C0B0017222A
:1018D000210000F0D7F910BD2B1C0211002310B518
:1018E0001922190000F0CEF910BD000010B5034C0C
:1018F0000B001B22210000F0C5F910BD651C021170
:10190000F7B584890D0006000121002C22D00023A8
:101910008268D3561778002B1EDA0C2C1AD90C3C8F
:10192000A4B2131940880093230002F086FE431EE0
:10193000984101307B06DB0F6B703F23013C1F4059
:10194000A4B22870AF70AC80002C07D0B36801330C
:10195000AB6000210800FEBD0020EBE7AC60F8E7BB
:101960000B7803704B8843704B881B0A83700B798C
:10197000C370042070470420022B06D10020537846
:1019800011781B02009A0B43138070470B88037079
:101990000B881B0A43700220704704200099834281
:1019A0000AD1537810781B0203430B80D3789078C8
:1019B0001B02034300204B807047F8B50D004B78A5
:1019C00001240021461C03702B788B4201D8200093
:1019D000F8BD6B78B01C4F1C012B10D18900691821
:1019E0004B88022233704B88B9001B0A7370691848
:1019F00006F00AF904360434A4B2F9B2E4E712237B
:101A000059436B185A88043132705B8810221B0AC4
:101A10007370691806F0F8F812361234ECE770B5F6
:101A2000049D14001E00052B01D8042070BD6378AE
:101A300012781B0213432B80E378A2781B02134316
:101A400002226B802A71211D681D063E06F0DCF81B
:101A5000B2B22A81F02AE8D82800A11D0A3006F087
:101A6000D3F80020E2E7002310B50A789A4201D8A3
:101A7000900010BD9A008A1854880133047054886D
:101A8000DBB2240A4470948884709288120AC2706F
:101A90000430EAE710B51100029C062B04D00420A4
:101AA0001022142B01D010BD022222714B7808782D
:101AB0001B0203432380CB7888781B020343638097
:101AC0000431601D06F0A0F80020ECE710B50C789A
:101AD0008B7804315C43E4B203702200013006F0DD
:101AE00093F8601C10BD0420022B06D1002053780F
:101AF00011781B02009A0B431380704710B50C003D
:101B00000A88023106F080F8208810BD70B5040004
:101B10000D0004981100012B01D8042070BD167827
:101B200052781202324302800200F832557014706B
:101B3000E825002C00D10C35023B9AB24280AA4223
:101B4000EBD80231043006F05FF80020E6E704200D
:101B5000009983420AD1537810781B0203430B800B
:101B6000D37890781B02034300204B80704710B558
:101B70000C000A88023106F047F8208810BD0000EA
:101B800070B501211E000420049C0E400B4218D1A8
:101B9000CB40DDB28D4214D90A49DBB209889942A3
:101BA0000FD32300F6331D70330058001118497805
:101BB000165C0902314301332152D9B28D42F4D867
:101BC000002070BDFC42FF1F10B50C000A880231D6
:101BD00006F01AF8208810BD10B50C788B78043107
:101BE0005C43E4B203702200013006F00DF8601C83
:101BF00010BD10B511000298032B01D8042010BDB0
:101C000014785278043B120222430280CA788C78FE
:101C10001202224342809AB28280F22AEED8043124
:101C2000063005F0F1FF0020E9E710B50C000B8845
:101C300003700B881B0A43704B8883704B881B0A08
:101C4000C3708A880430063105F0DEFFA0880430B6
:101C500080B210BD0420012B03D100201378009A1C
:101C60001370704710B50C000B8803700B881B0AAB
:101C700043704A880230043105F0C6FF60880230A4
:101C800080B210BDF0B589B003931E4B02924200A2
:101C90000700D05A019102F020F81325061E2DD01E
:101CA000029B01240370019B002B04D000190399AF
:101CB0009847001984B26B461B7A5BB2002B0FDA8F
:101CC0001021380002F01CFB1925002813D1300028
:101CD0003219E1B202F066FC051E0CD10C34A4B23C
:101CE000042304AA380005A993800696948101F084
:101CF000AFFD051E02D0300005F026FE280009B019
:101D0000F0BDC0463064FF1F70B505000C00002810
:101D10000CD00020814209D010222000044905F097
:101D200073FF01202B7823736B78637370BDC046FB
:101D3000CA7D0211F0B506000D0017001C0085B029
:101D400002291BD00020102907D1022B07D0102B0D
:101D500003D115E00020102C08D005B0F0BD694675
:101D60003800FFF7D1FF2A0069460BE069463000D2
:101D7000FFF7CAFF22006946380004E0022BE9D1D0
:101D80002A003900300005F01FFEE6E7031CF728A3
:101D900000D9F723032008499AB2013A0B80D317E0
:101DA000034006499B189B100B80D30F04499B18D6
:101DB0005B100B807047C0460043FF1FFE42FF1FB1
:101DC000FC42FF1F034B1B888B4202D3024B400097
:101DD000C15270470043FF1F3064FF1F014B40009A
:101DE000185A70473064FF1F1722014B1A80704742
:101DF0003064FF1F70B505000E2005F09DFC041E29
:101E000013D0D02303700023062283700749457046
:101E1000033005F0F9FE064B2100DA8A62811B7E51
:101E20002373044B187805F027FD70BD4C64FF1F29
:101E30003C64FF1F5043FF1F03000220262B06D8DF
:101E4000034A914203D00020024A5B009952704736
:101E5000FFFF00000243FF1F262803D8024B40006B
:101E6000C05A70470148FCE70243FF1FFFFF000014
:101E700070B506000C00094D1C220021280005F059
:101E80009BFE074B1E70074B1C7005F08DFD012358
:101E9000002801D0002312202B7070BD3C64FF1F6E
:101EA0005043FF1F5D64FF1F70B505000D4C080017
:101EB000E260A16010220021656005F0C5FE0128E6
:101EC00003D11021A06802F048FD10220021280053
:101ED00005F0BAFE012803D11021606802F03DFD33
:101EE00070BDC0463C64FF1F70B5041E05D10029BB
:101EF00003D006220D4805F087FE0D4B1D78012DFD
:101F000011D1002C05D102221A7005F0E5FC280041
:101F100070BD00221A70074B1B78FF2BF7D02000F2
:101F2000FFF768FFF3E70025F1E7C0464C64FF1FA9
:101F30003C64FF1F5043FF1F030010B5002801D170
:101F4000002010BD00780B4A002803D15988D182A7
:101F50001B7913761378022BF2D10023984200D11B
:101F600003331370044B1B78FF2B01D0FFF742FFA4
:101F70000120E6E73C64FF1F5043FF1F002911D0FA
:101F800000280CD04B79012803D140225242134340
:101F900003E03F221340032802D001204B71704719
:101FA0004022F4E70800FAE770B5094D01002878EF
:101FB00000280BD0074C0622200005F025FE21004A
:101FC0002878FFF7DBFF200005F046FC70BDC04617
:101FD0005C64FF1F3664FF1F00290AD0012808D166
:101FE0003F224B799343C02B03D0403B5A4253418D
:101FF000981C704770B5174D06002B78FF2B15D035
:102000000A2005F099FB041E10D0D0230370C83BB2
:102010008370114B11491B784670C370062204303F
:1020200005F0F2FD2100287805F026FC0C4B1B780A
:10203000012B0DD10B4B1B68002B03D09B68002B91
:1020400000D09847084B04211878084A05F0D4FDC1
:1020500070BDC0465043FF1F5C64FF1F3664FF1F06
:102060005864FF1F8464FF1F8864FF1F60EA00003C
:10207000014B98687047C0463C64FF1F014BDB680A
:10208000186870473C64FF1F074B10B5DA68136887
:1020900001331360054B1878FF2803D08021C90154
:1020A00005F092FD10BDC0463C64FF1F5043FF1F6A
:1020B000F7B50E0002F0B8F8051E1CD00E4B0662F4
:1020C0001F78002F00D10778AB791020019305F01D
:1020D00033FB041E0FD0D0230380C73B8370019BCA
:1020E000E91DC3700622043005F08EFD2100380082
:1020F000E66005F0C1FBF7BD4E43FF1F014B1878AA
:102100007047C0465C64FF1F054B002805D1054B96
:102110001A78054B002A00D1014B18007047C046C1
:102120004C64FF1F5C64FF1F3664FF1F014B58683F
:102130007047C0463C64FF1F024B1868431E98411D
:10214000C0B270476064FF1F421E03000120152AC1
:1021500003D9FF3B5A425341D8B27047F0B51C0037
:1021600000230E0085B0039002920B70029A9342F6
:1021700001D3002019E0E55C5A1CD2B2002DF8D042
:10218000029851198142F4DC0233DFB2A35C1800DB
:102190000193FFF7D9FF002807D0013D019A039969
:1021A000EBB233708A4202D1E01905B0F0BDDB1901
:1021B000DBB2DBE710B50C0002F08EF80300122052
:1021C000002B03D02100588805F03EFC10BD000014
:1021D00070B50E4D84006359002B15D0186A002885
:1021E00001D005F0D1FB2B59586A002801D005F029
:1021F000CBFB2B59986A002801D005F0C5FB285964
:1022000005F0C2FB00232B5170BDC0466C64FF1F5C
:102210001C4B70B504000E00150099420AD11A4BF0
:102220001B68002B01D1122070BD1B68002BFAD057
:102230009847F9E7154B994215D1134B1B68002BB2
:102240000AD01B68002B07D09847002804D1104BF8
:102250001C70104B1D70E7E729002000FFF7AAFF54
:102260000028E1D1F3E7080001F0DEFF0028DAD012
:1022700003780320A342D7D12900300005F0E4FB06
:10228000D2E7C046FEFF00006864FF1FFFFF0000AA
:102290006564FF1F6464FF1FF7B50400808801F0C8
:1022A000C3FF0025A84203D00578A08801F0F8FFFD
:1022B0001C4E3378002B1FD0AB421DD11A4B280087
:1022C0001978FFF777FF002818D000233370A3791F
:1022D0000820A778A688019305F02EFA011E0DD0DC
:1022E000D0230370CA3B8370019B47708680837143
:1022F000280005F0C1FA01E0002DE8D1A0880B4BC1
:102300008200D358002B01D0FFF762FF1721A0886D
:10231000FFF758FDA08801F017FDA08801F0EEFD41
:10232000F7BDC0466564FF1F6464FF1F6C64FF1F38
:10233000F0B587B01D000CAB1B88070001930DABF7
:102340001B88142002930EAB1B88160003930FAB5F
:102350001B880091049310AB1B88059305F0ECF9E2
:10236000041E1AD0D0230370CB3B47708370C67015
:10237000062229000430002D11D005F045FC019BF8
:1023800021006381029B0098A381039BE381049B4E
:102390002382059BA37405F06FFA07B0F0BD05F02A
:1023A0000BFCECE7F7B5009308AB1B8807000C208B
:1023B0000D001600019305F0BFF9041E13D028008C
:1023C00001F032FF00280FD00078D0232370C93BE2
:1023D000A370009B21002381019B6770A580E6808C
:1023E000638105F049FAF7BD014B1878EDE7C04667
:1023F0005043FF1F13B5040064890389C288818894
:10240000C0780094FFF7CEFF13BD000010B5044C58
:102410002068002803D005F0B7FA0023236010BD20
:102420007064FF1FA122F0B5818892004A43384BA7
:10243000384F1B6804009B189D2292009B188279DC
:1024400089B01A603B68002B5FD01D78324B1B6847
:10245000002B04D05B68002B01D000209847260099
:1024600008363100E079FFF7B7FD237DE071020007
:10247000E0780493638A29000393238A0293E38913
:102480000193A38800933300FFF752FFE378002BFA
:102490000BD1E289A379A18802920196E279280002
:1024A0000092012201F0CAFEE0703B68002B20D0B0
:1024B000FFF7ACFF194D287800281AD0184B19786F
:1024C000FFF778FE002814D02B78E67808200793D1
:1024D000A78805F031F9011E09D0D0230370CA3B4B
:1024E0004670837087808671079805F0C5F90023D0
:1024F0002B701721A088FFF765FCA08801F024FC51
:10250000A08801F0FBFC09B0F0BD064B9DE7C0467A
:102510003409FF1F7064FF1F8464FF1F6564FF1F81
:102520006464FF1F5043FF1FF8B5070008000E004A
:1025300001F07AFE041E18D02620FFF78DFC051E40
:1025400000D12578062005F0F7F8041E0DD00021F3
:10255000062205F031FBD0232370C23B21006770B7
:10256000A370A680E8B205F087F9F8BDF0B585B094
:1025700001930AAB1B78070002930BAB1B78080092
:102580000D000092039301F04FFE061E22D0102092
:1025900005F0D2F8041E1DD01022002105F00CFB1E
:1025A0002620FFF759FC002800D13078D023237073
:1025B000C13BA370009B21002372019B6770637273
:1025C000029BA580A372039BC0B2E3720C9BE360E5
:1025D00005F052F905B0F0BDF7B50D00019001F01E
:1025E00023FE071E20D00E2005F0A6F8041E1BD0E7
:1025F0002620FFF731FC061E00D13E78D023238031
:10260000C53B0622A370F91DE01C05F0FDFA019BF5
:102610002A0063810123DD401A401D4021002273FE
:102620006573F0B205F028F9F7BD0000F0B585B08C
:10263000029010000D0017000A9E039301F0F4FDB4
:10264000041E31D0029B002B2ED1039B02795B0725
:1026500024D5122313430422002E08D10B990029FC
:1026600005D10C99002902D10D9900291AD01A43DD
:102670000D9B2271002B00D0C9E0002E00D1CFE0CD
:10268000002D00D0CCE0606A002801D005F07CF974
:102690001C21300005F048F9606205E002239A43EE
:1026A0000E33D7E793432371654BBA00D458002CFF
:1026B00000D1AAE0002E10D0236A002B03D11C20E9
:1026C00005F0BAF820625E4BBA00D358186A0028A9
:1026D00003D01C22310005F097FA0C9B002B12D07E
:1026E000574CBB001D596B6A002B03D1162005F017
:1026F000A3F86862BB00E358586A002803D016228A
:102700000C9905F081FA0D9B002B11D04C4DBC00AB
:102710006659B36A002B03D1142005F08DF8B0621E
:102720002B59986A002803D014220D9905F06CFAF1
:10273000380001F079FD051E67D0414BBA00D3582F
:10274000002B62D01A6A3420002A00D11C389A6A01
:10275000002A01D0143080B20B9A002A01D01C301C
:1027600080B25B6A002B01D0163080B204F0E4FF27
:10277000041E4AD01822002105F01EFA2620FFF779
:102780006BFB0190002801D12B780193D02323709B
:10279000029B200063700A23294EA370039BBD0097
:1027A000A371AB59A780196A1830002905D01C22E3
:1027B000A06005F029FA200034307359996A002985
:1027C00007D0030014221433E060029305F01CFAD2
:1027D00002980B9B002B08D003001C221C330B9982
:1027E0002061029305F010FA02987359596A002982
:1027F00003D01622606105F007FA6B4621001879B4
:1028000005F03AF83800FFF7E3FC05B0F0BD102200
:102810000D9B0D991B69A018236205F0F5F92CE7B3
:102820000B9B002B00D13FE7012D00D03CE7606AF5
:10283000002801D005F0A8F81C210B982AE7C04613
:102840006C64FF1F10B5044C2068002803D005F00D
:102850009BF80023236010BD6064FF1F0B4B07B57E
:102860001A68002A01D100200EBD6946531C0120C0
:1028700012780731FFF772FC0028F4D002780123A8
:10288000100018401A42EED0EEE7C0467C64FF1FED
:10289000F0B51F4F01203B6887B0002B25D09B78F7
:1028A000059300F0B3FB002821D00A20FFF7D4FAEB
:1028B00004000B20FFF7D0FA164B05001E78731E9C
:1028C0009E413B68F6B2191DD878FFF757FB3B686D
:1028D0002900DA7A043303929A79019302920090E4
:1028E00033002000059A05F047F907B0F0BDFFF767
:1028F000B5FF002805D00620FFF7AEFA0400072038
:10290000D8E70820FFF7A8FA04000920D2E7C0465C
:102910006064FF1F5C64FF1F70B50A4E04003378CB
:102920000D00FF2B0DD0042004F006FF011E08D07F
:10293000D0230370CE3B45708370C470307804F0B0
:102940009BFF70BD6043FF1F70B5040006200D00A3
:1029500004F0F2FE011E0AD0D0230370CD3B837039
:10296000054B44701B688580187804F085FF002CA7
:1029700001D0FFF767FF70BD6064FF1FF8B5264FF9
:1029800006003B680D001124002B05D10522234BC6
:102990001B78134202D112242000F8BD204A1024D3
:1029A0001268002AF8D01278002AF5D0DB0719D572
:1029B0002B789A1E012A1AD80C2004F03DFF13240C
:1029C00038600028E8D000230A22437029000670EE
:1029D000023005F019F9FFF75BFF041E0AD0FFF77C
:1029E00031FFD9E700F012FB0028E1D1E4E7002B2A
:1029F000E2D0D0E70B4B1B78032BCDD11D20FFF786
:102A00002BFA094B18800028C6D0084B04211878EF
:102A1000074A05F0F1F8BFE76064FF1F5D64FF1F20
:102A20007C64FF1F5C64FF1F5A64FF1F8864FF1FE4
:102A300060EA0000F7B50193194B14001A780523DA
:102A400006000F0012201A4221D0012920D1154B77
:102A50001D68002D1BD002201F2C18D8002C02D07E
:102A6000019B002B13D0104B1F221E706E1C0021E7
:102A7000300005F0A1F801992200300005F0C4F8FB
:102A8000310020002C70002F06D004F0D5FFFEBDD1
:102A9000064B12201D68DCE704F07EFEF7E7C04617
:102AA0005D64FF1F7C64FF1F6043FF1F7864FF1F8E
:102AB000F8B50F4E12243368002B17D01B780F3C4B
:102AC000834213D100250B4F0221387804F0BCFE5D
:102AD000094B042138781D8004F0B6FE074B28000E
:102AE0001D8033685C7005F03FF804002000F8BDDD
:102AF0006064FF1F8864FF1F7464FF1F5A64FF1F18
:102B000070B5012823D11B4C2388002B03D01A4A0F
:102B10001578002D07D0194B1B68002B02D01878B0
:102B2000FFF7C6FF70BD3B2B02D93C3B2380F9E782
:102B3000134E0221307804F087FEFA222388920097
:102B400002215A43307804F097FF2580EAE70B4BC7
:102B50001B68002BE6D00B4B1B785B07E2D5084BBC
:102B60000221187804F070FE0022024B1A80FFF751
:102B700069FED7E77464FF1F5864FF1F6064FF1F7E
:102B80008864FF1F5D64FF1FF8B51E4D286800288C
:102B900003D004F0F9FE00232B601B4E30680028A0
:102BA00003D004F0F1FE00233360184F05243B7876
:102BB00018002040234221D0154800F02BFA3B7822
:102BC000234213D0202004F037FE2860002813D0C1
:102BD0002022002104F0F0FF202004F02DFE041E2E
:102BE000306005D02022002104F0E6FF002004E040
:102BF000286804F0C9FE2C601320F8BD00F00AFA22
:102C0000F4E7C0467C64FF1F7864FF1F5D64FF1F0C
:102C10005443FF1F10B50A4C23681A1E0ED000281B
:102C200008D10130587004F09FFF002805D02368B8
:102C3000002B02D00021FFF787FE0122100010BDFB
:102C40006064FF1FF7B5274E050033680191181E19
:102C500021D05C78244F012C30D1FFF7FFFD0028F4
:102C600025D02000FFF7F8F80400412814D91F4BA5
:102C7000022118781E4A04F0BFFF1E4B3C3C1C800A
:102C8000022233685A703B78002B14D12800019936
:102C9000FFF75AFE0120FEBDFA2292004243002AAD
:102CA000EED0124B0221187804F0E6FEE8E7FFF7B9
:102CB000D3F80200F3E700233B70EBE73B78002BEF
:102CC000E8D1032004F038FD011E08D0D0230370A2
:102CD000CC3B457083703368187804F0CDFDFFF766
:102CE000B1FDD7E76064FF1F5864FF1F8864FF1FB2
:102CF00060EA00007464FF1F10B517498388020062
:102D00008B4220D011D815498B4217D0144900208E
:102D10005B1899B2012907D8926811785A42534139
:102D2000D8B2FFF7F9FD012010BD0E4A00209B1814
:102D300007229BB29A424041C0B2F5E783681878F7
:102D4000FFF768FFF0E7836899785A7809021878E6
:102D50001143FFF777FFE7E70A2000000620000095
:102D6000F8DFFFFFAFDFFFFF014B18707047C04671
:102D70006143FF1F10B5064C207001F031FA207836
:102D800004F0EAFE0521207800F052FD10BDC04697
:102D90008864FF1F0BB273B50D00002B00DBC4E08D
:102DA000884B187804F0B8FC041E0ED00378912BE1
:102DB0000FD0A22B00D1A1E0834B1878FF2852D06E
:102DC000210004F059FD00284DD180200002684008
:102DD00076BD43780F2B76D013D8052B70D00E2BF1
:102DE000EAD18088794B98422BD8794B98421BD8EE
:102DF000784B9842E0D1A3681878591CFFF774F813
:102E000038E03E2BD8D18378032B74D06CD8012BBB
:102E10006ED0022BD0D1704B1B68002B23D05B6887
:102E2000002B20D098471EE06C4BC0180C28C3D84C
:102E300004F0DEFB1DC2C2150BC20B0B0B3223C20A
:102E40003C00674BC0180728B6D8664B1B68002BA0
:102E500009D01B68002B06D0200098470AE0A36821
:102E60001878FFF7C7F8200004F076FDADE7A068FA
:102E7000FFF762F800289FD0F5E7A3681B78002BC6
:102E8000F1D0554B1B68002BEDD01B68002BEAD00E
:102E9000210055489847EDE74F4B1B68002BE2D0C7
:102EA0001B68002BDFD021005048F3E7504B1B6814
:102EB000002BD8D05B68002BD5D021004348E9E730
:102EC000FFF7EAF9CFE780884A4B984203D04A4B94
:102ED000984200D070E7464B1B68002BC3D05B685C
:102EE000002BC0D02100D5E7153B012BBBD963E7F0
:102EF000FFF798FAB7E7FFF77DFAB4E73F4B1B7887
:102F0000042B07D100236A4613800179408800F022
:102F1000B5FCA8E7364B1B68002BA4D05B68002BE0
:102F2000A1D00100364898479DE7012421420AD0EC
:102F3000294B1B68002B04D05B68002B01D00020BC
:102F40009847012043E78B070AD5264B1B68002BC7
:102F500004D05B68002B01D020009847022036E7A0
:102F60000421280008400D4200D131E7254E338866
:102F7000002B21D0013B9BB23380002B1AD1FFF7ED
:102F8000DBF800280AD0204B1C70164B1B68002B66
:102F900004D05B68002B01D020009847FFF7C6F8EB
:102FA000694601F0F1FC6846FEF7FEFF1D20FEF7C2
:102FB00053FF308004200AE7024B187804F044FCE9
:102FC000F8E7C0468864FF1F6143FF1F0E20000022
:102FD00001200000091000008064FF1FFEDFFFFFDA
:102FE000AFDFFFFF8464FF1F0C2000000B200000F8
:102FF0006864FF1F0D200000132000005D64FF1FA8
:10300000FFFF00005A64FF1F5864FF1F10B501F056
:103010008BF910BD014B18607047C0468464FF1FD8
:103020000B880020162B01D817230420014A138097
:103030007047C0463264FF1F00207047074A0300F4
:103040001188814207D091880020994202D1013035
:103050008000101870470020FAE7C0469064FF1FF8
:10306000F0B58F7806000D00C7B01E2F15D1FFF701
:10307000E5FF051E03D10024200047B0F0BD00226B
:103080003B003100C078009200F0A2FB0400A81CB5
:1030900000F0C3FBFF23EB70EEE7264B06240393FF
:1030A0001B78FF2BE8D0182FE6D87B08224A013B7B
:1030B000DB0002929A589446002ADDD0029AD31877
:1030C0005B68002BD8D00878002802D14B78012B00
:1030D00002D10624122FCFD107AFAB8869780097B1
:1030E0006446AA68A047041EC6D1AB78029A5B0862
:1030F000013BDB00D318390030005B689847041EA1
:103100000BD1AB78042BB6D0039A31001078220093
:10311000009700F05DFB0400AEE76A78002AABD1AF
:10312000AA7805A93B88087130000A704B80FEF729
:1031300037FBA0E76443FF1FDC7D02111D4B37B551
:10314000050098420BD000290AD1FFF777FF00282D
:1031500005D11948FFF772FF002800D0058037BD60
:1031600001291AD1FFF76AFF041EF8D001235B4240
:103170000380A378FF2BF2D0FE2B07D00023E0784A
:103180001422009329001E3300F022FBA01C00F043
:1031900044FB01235B426380E1E70229DFD101396F
:1031A00001F0AEF80028DAD12800FFF747FF041E2F
:1031B000DFD1D4E7FEFF0000FFFF0000022210B5C0
:1031C000074B52421A80074801325A809A80DA80AF
:1031D00000F06EFA044801F015F8002010BDC0465A
:1031E0009064FF1F613002113D3102110388F7B571
:1031F0000400002B02D102252800FEBD42680221F6
:10320000137825485268FEF795FD00282ED0234FED
:1032100001253A88002AEFD0802321885B0201250E
:103220009B1A9942E8DC0C2004F006FB061E31D004
:103230003B8822889C4600231800019561469DB278
:10324000491989B2AA421BD8002801D062443A80A9
:1032500000233000082208C0210004F0D5FC104AE9
:103260001368002B13D100251660C5E762680221A0
:1032700013780C485268FEF75DFD0028C7D1BAE705
:1032800060681D014019418101330198D6E71A0099
:103290001B68E6E71325AFE74A7E02116243FF1F72
:1032A0008C64FF1F487E0211014B18707047C046A6
:1032B0006443FF1F14230A0010B51A40194204D0BA
:1032C0000122102101F038F810BD4B06F9D401207D
:1032D00088434000F8E710B514008B0604D501229E
:1032E000102101F029F810BD08230A001A401942E4
:1032F00002D14BB2002B0FDA102101F01DF800288B
:1033000008D02300F9331B78002BECD0F834237855
:10331000012BE8D10020E6E703208907FAD4E2E791
:10332000F0B51F00184B85B01C6801900291039204
:10333000002C27D1200005B0F0BDA5683301ED18A1
:103340006B89019A934211D3029A93420ED8002FAF
:1033500004D10A9B002B10D12C00EBE73B0029780D
:10336000039A6868FEF7E6FC0028F2D10136B6B28F
:10337000A388B342E1D82468DAE7A3680A9A5B8994
:103380001380E9E70026F3E78C64FF1F37B50C00D4
:103390000A8849880123914217D3002A15D0651D58
:1033A00023792A0002210A48FEF7C4FC10230028D2
:1033B0000BD023796188208800242A000094FFF72D
:1033C000AFFF0A23A04200D0230018003EBDC04634
:1033D0004A7E021113B50A000888498801238842F1
:1033E0000BD8002809D00024137905320094FFF788
:1033F00097FF0A23A04200D02300180016BD13B582
:103400000A0008884988012388420BD8002809D07F
:103410000024137905320094FFF782FF0A23A042AB
:1034200000D02300180016BDF0B58BB003904A8879
:1034300008880E000123824255D3002853D0002370
:10344000012704AC23700022718813000092FFF75B
:1034500067FF051E3ED02078002835D12B78022B3F
:1034600018D167706A8983000130E31880005A80A0
:1034700069680222201804F0C7FB23780133DBB20D
:103480002370042B19D93B006889013080B2002BCE
:10349000D9D01FE002236370122358436A8923188E
:1034A00004305A8069681022201804F0ADFB23789C
:1034B0000133DBB22370002BE5D10C4A6B899B18DA
:1034C0005A425341DBB2DFE76378012BE4D12B781A
:1034D000022BC7D022780A23002A04D021000398A7
:1034E000FEF788F9002318000BB0F0BD0100FFFFC4
:1034F0000F4BF0B504001868002816D083685D896A
:10350000A54207D88288AE18B44203DA12019A188D
:10351000934201D10068EFE71E005F891036A74291
:1035200004D1002900D00D801800F0BD3300EFE772
:103530008C64FF1F70B505000C0008880021FFF7A0
:10354000D7FF03000120002B04D022002800197AA5
:10355000FFF7C1FE70BDF7B50C00002501902300F8
:10356000F6331B78AB4201D800200AE06B00E65A24
:1035700000213000E718FFF7BBFF002802D12680AA
:103580000130FEBD017A0198FFF794FE002802D0B9
:103590003B882380F5E70135EDB2E0E710B5040084
:1035A00008880021FFF7A4FF03000120002B03D0AF
:1035B0002000197AFFF77EFE10BD0000054B1B6846
:1035C000002B01D1180004E09A6852898242F6D19A
:1035D000988870478C64FF1FF0B50E27002687B0CF
:1035E000039302ABFF183E8005001F4B4089140077
:1035F000984207D02B78013000976A6880B2FFF7B5
:103600008FFE060002212B7818486A68FEF792FBAD
:1036100000280FD06C892000FFF7D0FF002802D0CF
:10362000013C0419A4B2039B002B00D01C80300085
:1036300007B0F0BD02212B780D486A68FEF77AFBCF
:103640000028E7D102212B780A486A68FEF772FB4E
:10365000002807D0002EDED03B88A342DBD174893E
:10366000013CDFE76C89DEE7FFFF00004A7E0211C4
:10367000487E0211467E021170B504000D0016004E
:10368000FFF7DCFC002803D083781720FE2B05D041
:10369000002E04D129002000FEF728F970BD012278
:1036A0001021200000F048FE0028F3D0F6E70000CB
:1036B000014B18607047C0469C64FF1F37B56B46CE
:1036C0009D1D010004000222280003F0AFFF2B889B
:1036D000B02B0ED12379122B09D12300FF339B7815
:1036E000012B06D10121608800F0E0F801E01B2BDE
:1036F000F8D037BD10B5054B0421187000F098F8CC
:10370000FFF75CFDFEF770FB10BDC046A064FF1F15
:103710000020F0B50BB20F0087B0834234DA274B9C
:10372000187803F0F9FF051E2BD00378A02B25D1C4
:1037300003AE3100FEF7E4F8041E0BD1B378DB07CB
:1037400024D51F4B06341B68002B03D0310068883A
:1037500098470400A868002801D004F0F5F8002C70
:1037600008D1184A039B1340174A934206D0B378F6
:103770001B2B03D00121688800F098F8280004F082
:10378000EBF880200002784007B0F0BD0F4B1B68BB
:10379000002B10D0310068889847041EDAD0737867
:1037A000002BD7D1B27801A90A704B800C716888C0
:1037B000FDF7F6FFCEE70624F1E7C046A064FF1F41
:1037C0009864FF1F00FFFF00000112009C64FF1FB0
:1037D000F7B50190822040000D0017001E0003F095
:1037E000ABFF04001320002C12D0B0232000237064
:1037F000089BFC226770658026710830002B08D07A
:10380000190004F001FA2100019804F035F80020B5
:10381000FEBD089904F0D0F9F5E710B5041E06D0F6
:103820000078FD2803D804F04FF8FF23237010BD63
:103830000A1F93B210B504000220032B05D8824062
:103840000020024BD1529B189C7010BDC064FF1F1A
:103850000B8870B5043B04000D000220032B0BD82D
:103860000121200000F04CFD03001420002B03D0A8
:103870002900200000F0DEFB70BD000007B513003A
:10388000034A00920A00012100F02CFC0EBDC04644
:10389000B93A021107B5019203220092024B0A00C5
:1038A000122100F049FC0EBD373B021107B56B46F3
:1038B00001AA11800449D88008780633012802D172
:1038C000190003F001FF07BDA164FF1F0C4B10B5E9
:1038D00018700023FF210B4A13801381938193807A
:1038E000094A53801370517293819372D174D382B9
:1038F0001375517703F008FF00F0FCF910BDC046C6
:10390000D064FF1FC064FF1FA264FF1FF0B58DB01D
:103910006B46002003910C229B5E834200DBB0E0EB
:103920005D4B187803F0F8FE051E00D1A4E0037883
:10393000902B00D09DE006AF01004688380000F0D3
:1039400013FA79680400002900D19CE03B88052B1C
:103950006ED13B89032B1CD905AC200000F0A2F8E6
:103960006288172A61D83989131D994231D1796843
:10397000237804310291D90738D5607800F08EF9A8
:10398000071E06D0002303712378012B08D0132BC8
:1039900023D0A868002800D178E003F0D5FF75E0B7
:1039A0006288029909A800F0A6F80290380000F099
:1039B0008BF909AA2378387A01920022310000920B
:1039C000029A00F012F9380000F064F9029B002B13
:1039D000DFD0300000F080F9DBE70378032BD8D18B
:1039E0006288029909A800F0D6F8DEE7122B13D1FD
:1039F000029909A800F0B5F8021EEAD127498B8880
:103A0000002BC6D0887909A92378019161780091AB
:103A1000310000F0EAF8BCE7002302AA93833000EB
:103A2000617809AAFFF72AFFB3E71D4B0993F6E770
:103A3000042B02D09A1F012AABD8184A043B9B00E2
:103A4000995A0029A5D0D218907831003A0000F098
:103A5000AEF800289DD13B88042B03D00121300013
:103A6000FFF724FF012C04D1A868002801D003F03F
:103A70006BFF280003F070FF8020039B000243408F
:103A800018000DB0F0BD012800D182E701213000FF
:103A9000FFF70CFFEDE7C046D064FF1FC064FF1FB7
:103AA000010017000B7803704B784370CB788A784D
:103AB0001B021343438070470A88030002700A8880
:103AC000120A42700A88012A06D14A8882704A88FE
:103AD000120AC2700420704702208242FBD14A8839
:103AE00004309A704A88120ADA708A881A718A88B1
:103AF000120A5A71EFE710B50400012082420CD976
:103B00004B780A781B0213432380834206D1CB787B
:103B10008A781B0213436380002010BD022BFBD167
:103B2000CB788A781B02134363804B790A791B0296
:103B30001343A380F0E70B8803700B881B0A4370C4
:103B40004B8883704B881B0AC3708B8803718B88EA
:103B50001B0A4371CB888371CB881B0AC371082071
:103B6000704703000120082A14D14A78087812020D
:103B700002431A80CA788878120202435A804A792E
:103B80000879120202439A80CA79887912020243A4
:103B90000020DA80704710B504000120022A05D108
:103BA00000204B780A781B021343238010BDF8B520
:103BB000060010200F00150003F0BEFD04000120D8
:103BC000002C0ED0A0230C22290023806780201D0A
:103BD000002D07D004F018F82100300003F04CFE4F
:103BE0000020F8BD03F0E8FFF6E7F7B51E000090EF
:103BF00008AB142017001D78019103F09DFD041EF1
:103C000012D0A2230370019B47704380099B05716A
:103C100046710C220830002B07D0190003F0F4FF86
:103C20002100009803F028FEF7BD099903F0C4FFB6
:103C3000F6E737B5041E0FD04388002B0CD00025C3
:103C4000C1881323007A172201950095FFF7CDFF55
:103C5000FF2365806372257037BD000010B50C49E5
:103C600004004A88002A09D08B89002B05D0002047
:103C7000CB8A0222834201D010BD012213000A2008
:103C8000434300204032C854C81842800472F3E70E
:103C9000A264FF1F0023438003707047094B00217B
:103CA0001A0010B55C88002C06D01C79844203D120
:103CB0000A234B43D01810BD01310A330329F1D137
:103CC0000020F8E7A264FF1F10B50400407A03F05B
:103CD000FBFDFF23637210BD7047043010B580B246
:103CE00003F092FE002803D00421494203F0F4FCC3
:103CF00010BD000070B50025104CA0682580A5817E
:103D0000A580A84202D003F01FFEA56000250C4C40
:103D10000C4B606D1D80230058331D70A84202D0EB
:103D200003F012FE656500256068002801D003F0ED
:103D30000BFE013508340A2DF6D170BD6865FF1FF2
:103D40000C65FF1F5C65FF1F70B5041E09D1054D92
:103D50002880A881A880A868002802D003F0F4FD7C
:103D6000AC6070BD6865FF1FF0B54B8885B00193EE
:103D7000002343600A7905000F00022A00D07BE08F
:103D8000CA88032A17D98B685E7819783602DC78DE
:103D9000D8790E4399781B7A24021B020C43034303
:103DA00053495BBA0B80331D93421ED1042C04D0BF
:103DB000631F022B0ED9012015E0019A4D4B120111
:103DC000D35A002B06D00198FFF7BEFF4A4A136969
:103DD000013313610421B8682E812C80494203F01D
:103DE0007BFC6860002005B0F0BD434D042C06D07C
:103DF000631F022B0FD9EB680133EB60DBE7019AFD
:103E00003C4B1201D35A002B05D00198FFF79CFFC1
:103E10002B6901332B61374B30000293019B029ACF
:103E20001B010193002301998C468B5213006344BC
:103E30009C8003939E81FFF750FF039B041E9860B4
:103E400016D00421B868494203F046FCFA88010004
:103E5000043A200003F0D8FE0199029AFB888A5A9E
:103E6000043B9B18029A8B522B6801332B60A2E70C
:103E7000AB690133AB619EE71E4B0293019B1E01B0
:103E8000029BF35A002B2DD002998C19A0680028B0
:103E900028D0012A26D1FA889B189BB27352A18997
:103EA000994217D39B1AC018B96803F0ADFE029B64
:103EB000A289F35A934200D07DE700222B81A38888
:103EC0002B80A3686B60029BF2520B4A536801334C
:103ED000536070E7084A9368013393600198FFF7D5
:103EE00033FF68E7044A536901335361F6E7C0467C
:103EF000D264FF1F6865FF1FD864FF1F70B5051EE1
:103F000015D10B4C0B4B1880230058331870606D83
:103F1000002802D003F018FD656525005035606863
:103F2000002801D003F010FD0834AC42F7D170BD79
:103F30000C65FF1F5C65FF1FF0B51700A12285B05F
:103F4000920001934243394B06001B680C009B18FA
:103F5000D933FF331D78FDF741FF0430854204DD7E
:103F60003000FDF73BFF0430C5B2BD4207D33A0035
:103F700000213000019B03F0E7FB05B0F0BD2900F4
:103F8000380003F099FB2300C6B250331E70039330
:103F9000019B29006365380003F08EFCCBB20293CD
:103FA000002B02D0039B01361E70002623005033E5
:103FB00003931B78B34204D8606D002831D10020F0
:103FC000DBE7029A2800002A04D0013B1000B3422C
:103FD00000D02800F700E719387003F00DFC786076
:103FE00000280ED03A78019903F00EFE019A3B7832
:103FF0000136D3180E4A0193D369F6B20133D36167
:10400000D4E7039B18706065A74205D1084A1320C6
:10401000D36A0133D362B0E7606803F095FC0834DB
:10402000F2E703F091FC00236365C8E73409FF1F42
:10403000D864FF1FF7B50D0007000421686803F07E
:104040004BFB2B89040003702B891B0A43702B88C0
:1040500083702B881B0AC3702E8902250436F6B2A2
:10406000FB2E15D81B4B9F4214D10C2003F064FB90
:104070001135011E0CD0902303708E3B0371043B5D
:104080004380154B8460C680187803F0F5FB00254B
:104090002800FEBD5C237B43104AD318009358339D
:1040A00001931B78002B0FD10300320038000099D8
:1040B000FFF742FF019B05001B78002BE8D1380079
:1040C000009903F071FDE3E7054A0725536A0133C0
:1040D0005362DDE7FEFF0000D064FF1F0C65FF1F89
:1040E000D864FF1FF0B587B0009017200F001600AE
:1040F0000193FFF7F2FD1325041E19D00C98031E3F
:1041000002D00199201D9847030AE370052302AAF3
:10411000A0700430908127700098667003A9938086
:104120000494FFF787FF051E02D0200003F00CFC6B
:10413000280007B0F0BD0000F0B587B01F000CAB41
:104140001B780391059301210DAB06001C780492A6
:1041500000F0D6F81425002821D02000FFF77EFDBE
:104160000135041E1BD01149059B0A7803700132EA
:10417000D2B2131EC68001D101231A000B70227126
:104180003000049B03990097FFF7ACFF051E09D18F
:10419000230021000648074A093303F065FD280083
:1041A00007B0F0BD002363802370F8E7D464FF1FDD
:1041B000333C021130750000F8B505000E00064CC6
:1041C000064F2368002B02D03100280098470434A2
:1041D000BC42F6D1F8BDC0467865FF1F8C65FF1F55
:1041E0000123064A5B425380002313715362044A41
:1041F000136053609360D360136170478C65FF1F39
:104200007865FF1F0200002310B506499C0008597D
:10421000002801D1625010BD0133052BF6D11320C7
:10422000F9E7C0467865FF1F034A5388181A4342CE
:1042300058414042104070478C65FF1FF0B585B073
:1042400002930AAB1F780CAB1B88009008000E008D
:1042500001920393FFF7E8FF05001120002D1BD109
:104260000E48FFF7E1FF04001520002C14D00622B1
:104270000B99A771E01D03F0C7FC019B300023716F
:10428000029B29006371009B66802370039B65621B
:10429000E381FFF791FF280005B0F0BDFFFF0000AC
:1042A00010B5FFF7C1FF04000220002C12D0608877
:1042B0000121FFF781FF606A002801D003F064FB51
:1042C00028220021200003F077FC012300205B421C
:1042D0006380207110BD000030B5074A074C558837
:1042E000010013780020A54204D05B1A59424B41CB
:1042F0005842104030BDC0468C65FF1FFFFF0000D4
:10430000084A10B501230C00904208D0FFF78CFF3B
:10431000031E04D0037923405A1E9341DBB21800D8
:1043200010BDC046FEFF0000024B1879431E9841A5
:10433000C0B270478C65FF1F70B504000D001600F9
:10434000FFF772FF002804D10D4B9C4200D01430BF
:1043500070BD416A03790520002907D012221A4056
:10436000102A02D10520002EF2D10F20DB06EFD556
:10437000897E0C20A9428941494249420840E7E729
:10438000FEFF0000030010B5002800D110BD034857
:10439000034A41889142F9D09847F7E78C65FF1F9F
:1043A000FFFF0000002330B5C45CCD5C6C40D454EA
:1043B0000133102BF8D130BD0F23002210B5C45C9F
:1043C00064002243CA54C25CD209013BF7D210BD3B
:1043D0000200010010B52032103103F005FB10BDC2
:1043E000F0B58BB00390102005931700049103F0F3
:1043F00023FA0090102003F01FFA009B1324019071
:10440000002B05D000280CD11324009803F0BCFA2F
:10441000019B002B02D0180003F0B6FA20000BB06D
:10442000F0BD102003F008FA0600102003F004FA93
:1044300013240500002E00D1AEE0002819D0102270
:10444000002103F0B9FB32002900039803F0CCFAF5
:10445000041E0ED133787F2B51D830000099FFF71E
:10446000ABFF009B1B787F2B53D801990098FFF777
:10447000A3FF300003F088FA002D02D0280003F0DB
:1044800083FA002CC1D1102003F0D6F906001020C9
:1044900003F0D2F90290002E7CD0002878D03A00A8
:1044A0000F3223000125121105D00F333B4015B206
:1044B0005A4253411BB26A1E1201002B33D0049B97
:1044C000D2B298180099029AFFF76CFF013D1022B2
:1044D0000021300003F070FBADB2049F2D017D1967
:1044E000AF4242D0002C33D0300003F04DFA029B93
:1044F000002B00D189E7180003F046FA85E7290070
:104500003000FFF759FF28002549009AFFF74AFFBE
:10451000A7E729000098FFF74FFF28002049019ADC
:10452000FFF740FFA5E70F210F4004998A18D9B281
:104530008F4208D9D15C06A819540133102BF6D14B
:10454000029A0199C0E7791A48424141C901F2E74C
:104550003900300006AAFFF725FF3200039806A9AC
:1045600003F042FA10370400BAE7002CBCD1300047
:10457000029906AAFFF716FF320006A9039803F076
:1045800033FA082204003100059803F03DFBABE745
:104590001324A9E71324AAE7002800D06EE733E725
:1045A000507E0211F0B58BB00F001600022500906E
:1045B00000283FD0002A3DD00B1DDBB2180002932B
:1045C00003F03AF91135041E34D0FDF757FD05000C
:1045D0003A000099201D03F0A7FAEBB20393E370B1
:1045E0002B0CDBB22F0A00936370FFB22B0E2370EB
:1045F000A7700193FDF73CFD1022010006A803F00F
:1046000093FA2100029A04AB06A8FFF7E9FE051E03
:104610000DD1039B08223370009B04A9B370019B4A
:104620007770F370301D03F07FFAFDF72DFD200049
:1046300003F0AAF928000BB0F0BDF0B58FB00D0063
:10464000149E039004920593002A03D102242000B3
:104650000FB0F0BD002EF9D00398FFF7E5FD14244C
:10466000071EF4D07278337812021A43B3781B0411
:104670001343F27812061A43036A0192934201D35C
:104680000133E3D1002D03D03B7901249B07DED514
:104690000822002106A803F08FFA059B1324043397
:1046A000DBB21800029303F0C7F8051ECFD0059ABD
:1046B0000499043003F038FA04223100280003F092
:1046C00033FA3900102210310AA803F02DFA29001C
:1046D000029A06AB0AA8FFF783FE041E0FD1082238
:1046E00006A908A803F020FA0822311D08A803F043
:1046F0006BF9012807D101990398FDF7D9FC28002F
:1047000003F042F9A3E70124F9E7000070B51C4C5F
:1047100005002368181E10D0002D14D11A78002A25
:104720000CD1981C083203F06FFA03F065F90135DB
:10473000002808D123681D70012070BD0A331800BD
:10474000082203F061FA2368002BF5D0122002F052
:10475000F3FF061E0DD0C12321680370457002319E
:104760001022023003F050FA23683100587803F029
:1047700083F8206803F008F900232360DCE7C046D3
:10478000B465FF1FF8B504002020FDF765FB0D4E52
:10479000A700BB590500002B0DD000280BD0D878FE
:1047A000FF2809D108492A000C55F359074803335B
:1047B000611803F059FAF8BD290003F015F8002834
:1047C000F0D1F8E7D065FF1FB865FF1FDD59021172
:1047D00070B5064D84006359002B05D0D87803F0DE
:1047E00073F8FF226359DA7070BDC046D065FF1FB1
:1047F00070B506008CB00C00150000213022684610
:1048000003F0DAF931001022684603F08DF91D201B
:1048100021000322684403F087F96846FFF7D8FDBA
:104820002D21040003222800694403F07DF92000B3
:104830000CB070BDF0B50700160097B001931CAB2B
:104840001D7830221EAB00910AA800211C7803F0CD
:10485000B3F9102239000AA803F066F910220021EA
:1048600002A803F0A9F90722310002A803F05CF9BD
:10487000072202AB9818631E9C41019903F054F97A
:1048800002AB9C732B005A1E934102AAD3730021E2
:10489000102206A803F090F906221D9907A803F03C
:1048A00043F91A2002ABC01806221F9903F03CF905
:1048B000102200990EA803F037F9102202AB0EA9BE
:1048C00008781C78013A6040D2B208700133013197
:1048D000002AF5D10AA8FFF77BFD102212A90400D7
:1048E0000EA803F091F9102206AB0EA908781D78E6
:1048F000013A6840D2B2087001330131002AF5D183
:104900000AA8FFF765FD044310222098E4B212A91B
:1049100003F00AF9200017B0F0BD70B50E001400C6
:104920008CB00100102268461D0003F0FDF8310034
:10493000082204A803F0F8F82100082206A803F0D2
:10494000F3F86846FFF744FD04001022280008A988
:1049500003F0EAF820000CB070BDF8B506000D00B9
:1049600000243719AC4200D3F8BD02F0C5FE030A9B
:104970003B70631CDBB201379D4203D90234F05413
:10498000E4B2EEE71C00EDE773B506000C0002256B
:10499000002819D0002917D0032101A8FFF7DDFF57
:1049A0006B469A793F231A40013313436A4630001D
:1049B000937101A92200FFF71BFF051E04D10322FA
:1049C000E01C01A903F020F9280076BD0378580700
:1049D000DA08C00FD20080009B0710439B0F1843DA
:1049E000C0B2704707230B40C908C9000B430370CE
:1049F0007047000070B50400FFF7EAFE134DA400F5
:104A00006359002B21D0186A002801D002F0BCFFA6
:104A10002B59986E002801D002F0B6FF2B59D86EA2
:104A2000002801D002F0B0FF2B59186F002801D0E8
:104A300002F0AAFF2B59586F002801D002F0A4FF02
:104A4000285902F0A1FF00232B5170BDD065FF1F34
:104A50000E4B8000C35870B50C00002B0FD09D6822
:104A6000002D0CD02B78201D0B706B784B70A97C1F
:104A7000FFF7B8FF2B7E23726B69E36070BD1022D5
:104A80000021200003F098F8F8E7C046D065FF1F2A
:104A9000014B18607047C046CC65FF1F074A0300F2
:104AA0008000825810B5002A06D0D088984203D1E1
:104AB000012901D1FFF79EFF10BDC046D065FF1F41
:104AC000F0B5264E95B087000B93BB5905000991B0
:104AD00012200A92002B31D0D888FFF7A5FB0400E2
:104AE0001420002C2AD0280010A9FFF7B1FFBB59D1
:104AF0001E781D6A002E23D00895FDF7FFFA0700E7
:104B00000020FDF701FB0790A379E61D069310AD89
:104B10000CA9089800F0E2FA0EA9280000F0D7FAD4
:104B20000B9B0A990493069B09980293079B039693
:104B3000019300970EAB0CAAFFF77CFE15B0F0BDF9
:104B4000FDF7DCFA06903000FDF7DEFAE31DA779E9
:104B5000079310AB06000893DAE7C046D065FF1F45
:104B600030B50C4C85002A59030085B00120002A7D
:104B70000ED018006946FFF76BFF2B591A78D888BA
:104B8000054B002A00D1054B6A46072100F0D9FBEE
:104B900005B030BDD065FF1FCF500211DD500211AE
:104BA00030B5094C8500295985B010226846253159
:104BB00003F02AF82A591121044BD0886A4600F0E4
:104BC000C0FB05B030BDC046D065FF1F7951021152
:104BD00030B5094C8500295985B010226846353119
:104BE00003F012F82A591121044BD0886A4600F0CC
:104BF000A8FB05B030BDC046D065FF1FB7510211FC
:104C0000F7B54D4F86001020F4590D0002F014FE48
:104C1000F3592062186A132200286CD0033A290045
:104C20009C6802F0F1FFF3591A780192002A58D1DA
:104C30001E6A227D317B944651400122019F114220
:104C400001D167461740217D914339432175377B58
:104C50004F40BC4660460027800701D44F081740EC
:104C6000012102208F40227D82433A432275377B07
:104C70005740BC4660460027400701D497080F40C4
:104C80000420227DBF0082433A432275627D0027C3
:104C900094466046727B42400A4201D167460F400B
:104CA0000121627D8A433A436275777B5740BC4657
:104CB00060460027800701D457080F400220627D1C
:104CC0007F00824317436775767B00227E4076071C
:104CD00001D4BA080A400426617D9200B1430A4318
:104CE00062756A78002A08D06278002A05D0052209
:104CF0000533DA7700221000FEBD04222979114223
:104D000005D1A17C114202D10533033AF1E7019AA2
:104D100021782C78002A02D10A00210014001822E0
:104D20000429E8D8042CE6D805206043034A05335B
:104D30001218525CDDE7C046D065FF1F607E02118D
:104D400010B50A001121024B00F0FBFA10BDC0465D
:104D5000135202110B0030B587B001AD2B806B46AA
:104D600004001100981D082202F04EFF2A000B21BA
:104D70002000024B00F0E5FA07B030BD3B520211B3
:104D800010B50A001121024B00F0DBFA10BDC0463D
:104D90008F52021113B50B0011006A4613706B4657
:104DA00004000622581C02F02FFF6A46082120004A
:104DB000014B00F0C6FA13BDAF52021110B50A0044
:104DC0001121024B00F0BDFA10BDC046FF52021186
:104DD0007FB505000B4BAA00D4580800002C0FD05B
:104DE000666F237FE28821780396266F0296E66E2F
:104DF0000196A46E0094FDF719FC2800FFF7FAFD58
:104E00007FBDC046D065FF1F10B51721FFF7E0FF3B
:104E100010BD000070B50A000D00064B0221040011
:104E200000F08FFA060029782000FFF7D1FF30004C
:104E300070BDC046DF51021170B586B000236A46CE
:104E40001370836804001D78681E0A2859D801A9C8
:104E500002F0D8FB060633373B3F43474B4F530026
:104E6000180000F042F9062312284BD000281BD16D
:104E70006088FFF7D9F90823002813D04279002A67
:104E800047D1264B1A78072312070BD5244B1A68F3
:104E90000723002A06D01668002E03D0290001AA95
:104EA000B04703006A4613706B461B786088002B7E
:104EB0002AD1FFF767FC06B070BD180000F06CF94E
:104EC000D4E7180000F087F9D0E7180000F093F954
:104ED000CCE7180000F0ADF9C8E7180000F0C3F9FE
:104EE000C4E7180000F0F6F9C0E7180000F0F6F982
:104EF000BCE7180000F013FAB8E7180000F013FA46
:104F0000B4E707236A46137069466088FFF782FF9B
:104F1000D1E70523012AC5D1024BB8E75D64FF1F25
:104F2000C865FF1FCC65FF1FF8B52C4F8600F359ED
:104F300004000D00002B40D0DA8882423DD15A781F
:104F4000062A33D11A78002A2ED0012099681A6ACD
:104F5000097D014206D0157B054203D007225A7015
:104F60000120F8BD0220014204D0157B054201D08A
:104F70000922F4E70420014204D0127B024201D04E
:104F80000B22ECE7164B1B68002BE9D05B68002B6B
:104F9000E6D020009847BB5900215B78122BDFD167
:104FA0002000FFF715FFDBE70E4BECE7112A04D1D9
:104FB000002900D032252900F2E7002D08D1200079
:104FC000FFF732F9002803D010230279134303714D
:104FD00021002800FDF7A8FAC2E7C046D065FF1FF0
:104FE000C865FF1FCC65FF1F70B50E4E8500AB591D
:104FF0000400002B13D01B78002B11D10A4B1B6827
:10500000002B04D05B68002B01D020009847735917
:105010005B78122B03D100212000FFF7D9FE70BD71
:10502000024BECE7D065FF1FCC65FF1FC865FF1F73
:10503000094B8000C3581020002B0CD01A6A002A9C
:1050400009D09B68002B06D0127A1B7E101C9A4256
:1050500000D9181CC0B27047D065FF1F70B503009F
:105060000D0014000220002A30D000292ED0137029
:105070000B78081D53704B789370FFF7A7FCE07016
:10508000012002212B7A23716B7B034063716A7BC1
:105090000A401343042263716E7B164033436371ED
:1050A0006E7BF608F600334363712B7B0340A371DC
:1050B000287B014000200B43A371297B0A40134346
:1050C000A3712A7BD208D2001343A37170BD10B51F
:1050D0000A0001000120FFF7C1FF10BD10B50A0052
:1050E00001000220FFF7BAFF10BD70B506000C00EA
:1050F0000220002E30D000292ED07378201D0B7096
:10510000B3784B70F178FFF76DFC01223579257289
:1051100071794B10080013409340104003438810EE
:1051200010408000C9080343C9000B436373B17981
:105130004B10080013409340104003438810024076
:105140009200C9081343C9000B4321202373FCF7C5
:1051500083FE854201D2122070BD2220257AFCF701
:105160007BFE8542F7D823781820042BF4D8637887
:10517000012BF1D80020EFE7030010B50220002931
:1051800009D0002B07D00322481C0A7019000D32E9
:1051900002F03AFD002010BD03000222080010B505
:1051A000002B06D0002904D00E32591C02F02CFD31
:1051B0000022100010BD030010B50220002909D004
:1051C000002B07D00422481C0A7019000C3202F090
:1051D0001BFD002010BD10B5FFF7DEFF10BD030062
:1051E0000220002906D0002B04D0052200200A70DE
:1051F0001B784B70704703000220002B08D0002959
:1052000006D05B7800200B70013B082B00D91830CA
:105210007047030010B50220002909D0002B07D0E9
:105220000622481C0A7019000A3202F0EDFC002028
:1052300010BD10B5FFF7B0FF10BD02000B0002203B
:1052400010B500290ED0002A0CD007211970118842
:1052500059701188090A997011180822D81C02F097
:10526000D3FC002010BD03000A00022010B5002B63
:105270000CD000290AD0997858780902014311808E
:10528000901CD91C082202F0BFFC002010BD0300B6
:1052900010B50220002909D0002B07D00822481C95
:1052A0000A701900921802F0AFFC002010BD020035
:1052B0000B00022010B500290BD0002A09D00921CB
:1052C0001970117818185970511C062202F09CFCB4
:1052D000002010BD10B5FFF75FFF10BD02000B00EE
:1052E000022010B5002A09D0002907D05178197082
:1052F00011180622581C02F087FC002010BD030084
:1053000010B50220002909D0002B07D00A22481C22
:105310000A701900063202F077FC002010BD10B5AB
:10532000FFF73AFF10BD02000B00022010B5002A63
:1053300006D0002904D018005178FFF753FB002055
:1053400010BDF0B585B017001E006A4606230500A3
:10535000080091819380FEF7C0FC1324011E029087
:105360000CD03800B047041E05D1280001A9FEF773
:105370006FFA041E02D0029802F0E6FA2800FFF746
:1053800001FA200005B0F0BDF0B504008BB001912A
:1053900015000021102202A802F00EFC334EA700D7
:1053A000B85900283CD0C388A34239D10378002BD8
:1053B00036D14278062A18D1020001005532353123
:1053C0000C3006ABFFF7A9FA002829D12000FFF71F
:1053D0002FFE020006A902A802F016FC200002A976
:1053E00002F082FA01200BB0F0BD816E002917D0C7
:1053F0000B8A112A28D19D420ED101981231093A07
:1054000002F0E2FA012807D1BB5920009D6EFFF798
:105410000FFE29000200DEE732212000FFF7D8FC52
:105420002000FEF701FF061E1BD0416A002918D09C
:105430000B8AAB4215D108220198123102F0C4FA4E
:1054400001280ED1716A0AE09D42E9D10822019833
:10545000123102F0B9FA0128E2D1BB59996E8A7E65
:10546000B9E7200002F0E0FBBCE7C046D065FF1FB3
:10547000F0B56B4D87007E5985B033780290039369
:10548000002B00D087E0B368346A01937078062857
:1054900017D101221B7D134202D0217B114218D16A
:1054A0000222134202D0217B114251D10422134225
:1054B00003D0237B134200D08BE0019B5A7DEB5934
:1054C00091E007380428F8D802F09CF8032E4267D0
:1054D0008300B36E002B03D11C2002F0ADF9B0663F
:1054E000EB599C6E002C1CD010220021200002F0F1
:1054F00063FB0298FFF79CFD01002000FFF72DFAE7
:1055000002F0FAF82082200008211230FFF725FA75
:105510000298FFF78DFDA076EB592100D888FFF7A0
:105520000FFC0822EB591CE0B36E002B05D01A00CB
:10553000198AF0881232FFF70DFC0222019B197DB7
:10554000EB5911423DD0207B10423AD0073208E09F
:10555000F488FCF7EBFD01002000FFF711FC0A22A4
:10556000EB595A70029B9C002A595378073B042B35
:1055700011D8D088FEF758FE00284ED0C3895A08AB
:10558000D2182849029B0298CB542B594118043356
:10559000254802F069FB05B0F0BDFCF7AFFD030044
:1055A0000120834201D100200393EB59DE88FCF7F0
:1055B000ABFD039902003000FFF7ECFB019AEB59B9
:1055C000117D042211420CD0217B114209D00B2203
:1055D000C7E7F688FCF74CFD01003000FFF7EEFB53
:1055E0006BE7019A527D01210A4204D0607B084298
:1055F00001D00C22B5E702210A4204D0607B0842A8
:1056000001D00E22ADE704210A4204D0627B0A4297
:1056100001D01022A5E71222A3E7FA225200B0E738
:10562000D065FF1FD465FF1FE759021110B5064B67
:105630001A780423100018401A4200D00348FFF7DC
:1056400027FA002010BDC0465D64FF1F6843FF1F9E
:1056500070B50400FFF7D4FA051E43D12000FFF710
:105660007FFA234EA400A0598268937CDB0708D5FB
:105670000321036A1B790B40012B02D1017F0B43ED
:105680000377431DD97F8B1E022B0DD8022900D032
:105690000121C088FCF7A0FF042133591A7F5970FB
:1056A0000A431A77280070BD01290CD10223102269
:1056B000437000210C3002F07FFA30591021353050
:1056C000FFF74BF9EEE70529ECD10223D11843701F
:1056D00010220C3002F098FA04233259117F0B4348
:1056E0001377EAE708251828DCD1053DDAE7C0463C
:1056F000D065FF1FF0B58BB0059143887E4F9E00AB
:10570000F45915000493002C15D1012902D0002072
:105710000BB0F0BD101D57781678FFF757F9EB68FE
:10572000320002932B7A0499019300903B002000F1
:10573000FCF71CFFEBE7E388049A934201D00820B2
:10574000E6E72378012B00D1D4E0059B581E0928F9
:1057500000D9CFE001F056FF05CE0A29CC506C8568
:105760009AB229000498FFF773FFD1E720002900BF
:105770001022453002F048FAB9594B78042B02D177
:10578000013B4B70C3E70B000A00253335320C3167
:105790000498FFF795F90498FFF702FA0522431ED3
:1057A0009841BB59C0005A70B2E72000290010226E
:1057B000553002F029FA049B4F4C9D00295904985A
:1057C0000A0006AB55320C31FFF77AF9295910223D
:1057D000453106A802F0F8F8012808D10498FFF72F
:1057E000F7F90590002804D106222B595A70059824
:1057F0008EE708230593FAE763780C2B7AD1E36EE2
:10580000002B03D11C2002F017F8E066BB59D86EBC
:1058100000286FD01022290002F0F6F9BB59049835
:10582000DC6EFFF705FC0D22A076BB595A706EE7BF
:10583000E06E00285ED063780D2B5BD12B880822A8
:105840000382A91C123002F0DFF9BB599A68517D1E
:105850000222114226D0186A407B104222D00C321C
:10586000E4E763780E2B45D1236F002B03D116207C
:1058700001F0E2FF2067BB59186F002803D0102207
:10588000290002F0C1F90F22BB59CFE763780F2B33
:1058900030D1206F0622691C103002F0B5F9BB59D7
:1058A0009A68517D0422114203D0196A497B114242
:1058B000D5D100210498FFF78BFA28E7636F002BFE
:1058C0000DD0BB59586F0028F3D01022290002F0E8
:1058D0009BF90122BB5952425B6F1A61E9E7142020
:1058E00001F0AAFFBB5960675B6F002BE9D126E787
:1058F0002978DFE707200BE7D065FF1F10B5064CBE
:10590000207001F0F9FF06212078FDF791FF034890
:10591000FEF778FC10BDC046E365FF1F9D4A0211EB
:1059200000200BB270B50D00834216DA264B1878B2
:1059300001F0F2FE041E0DD00378922B0ED0A02BA6
:1059400037D0224B1878FF283AD0210001F094FF7D
:10595000002835D180200002684070BD43780E2BAE
:105960000BD03E2BEDD18378052B12D0082BE8D13C
:1059700081798088FFF7D8FA08E0154B82889A422F
:10598000DFD183681878591CFEF7C0FE002817D1B4
:10599000D7E7104B1B785B0712D50F4B1B68002B0A
:1059A0000ED09B68002B0BD0C289811D8088984740
:1059B000ECE7FFF741FAA068002801D001F0C4FF2E
:1059C000200001F0C9FFC5E7E365FF1F6143FF1F2A
:1059D000182000005D64FF1FCC65FF1F10B5007824
:1059E000FFF712FA10BD10B50078FFF7FDFA10BDF1
:1059F0000C234343084A10B59B185A68002A03D069
:105A0000012901D1904710BD9B68002BFBD00029D4
:105A1000F9D19847F7E7C0460066FF1F10B5162872
:105A200013D801238340094A946B1C439463506B41
:105A300098435063D46B20009843012901D1200082
:105A40001843D063116B0B43136310BD00800040FB
:105A5000F0B500240127154B85B0DA6B144E039284
:105A60001A6C0192DA64019BE3403B4217D0039D1C
:105A7000E5403D400295E5B202992800FFF7B8FFE6
:105A8000316A736A002908D03900002B01D00299CD
:105A900079402800FFF7C2FF01E0002BF9D1013463
:105AA0000C36172CDFD105B0F0BDC0460080004099
:105AB000E465FF1F10B5012402002000162A08D853
:105AC000054B5968D140214204D01868D0400123C9
:105AD000184010BD186DF9E700800040162807D85F
