:020000041100E9
:10300000002310B5294C0120636101F0F9F940203B
:103010000223FE21264A207401F078FA002835D1D7
:103020000223FF21234A207C01F070FA00282DD1D1
:10303000214BA2899A4226D1E389204A93420ED19C
:103040001F4B204963612368002B05D1002903D061
:103050000C22200008F02CFB01F046FA10BD1A4AA1
:10306000934201D00021EEE7184B194A1B689342A6
:1030700005D9C0220421207C920001F0C1FA104B36
:1030800014496361DFE700232374EBE7CC22382087
:10309000AC219201207401F0B3FA0028F3D10E4B59
:1030A0000E4963610E4BE381CDE7C046E462FF1F2A
:1030B000F062FF1FF262FF1F5959000083050000F4
:1030C0006542001174B80011821500002863FF1FCB
:1030D0008713000080B800110143001168B8001187
:1030E000AAAAFFFFF7B5164B0192C318021D0020D4
:1030F000009388235B05D3181B685C1C1AD09CB214
:10310000402C18D88D781E0CAC466746CD782D0221
:103110003D43AE4206D1019800280ED110000C703C
:10312000240A4C7003249BB20733A343D218009B9C
:103130009A42DED3FEBD4432F9E71000FAE7C046FA
:10314000FC0F0000802213B503000324019189B213
:10315000520107319B18A14304305A1A88235B059A
:10316000C3181B68591C03D190429241104016BDF0
:1031700099B2402907D80B000733A343C0189042E7
:10318000ECD30020F3E74430F9E7134B134A1B68F4
:10319000126810B5FA24934201D81A00F824104B93
:1031A000E4021B689A4210D813000E4A12689A4231
:1031B0000ED3013307D1F823DB029C4203D10A4925
:1031C000054808F025F9200010BDFC24E402ECE7D6
:1031D000FE24E402F7E7C04600C0071100D0071143
:1031E00000E0071100F00711FFFFFF7FF0B59BB073
:1031F000150004900391402A00D9A0E006AB598045
:103200001A80FFF7C2FF0400042816D9002206A97D
:10321000FFF768FF052810D906AB1B88AB420CD11D
:10322000002D07D0514B2A000499C01808F018F857
:10323000002802D101201BB0F0BD06AB1D8020008C
:103240000699FFF77FFF041E7BD1069B0793FFF7CC
:103250009CFF80235B01C618802307001B039E424E
:1032600001D3F826F60288235B05F31801931B6847
:10327000013302D0019808F07BFA3D49019808F02B
:10328000C7F83B1D0293331D05938822029B52050C
:103290009B181B6808935A1C3CD044219AB2009199
:1032A000402A04D80320D11D814389B2009103999B
:1032B0001B0C8B4224D0402A22D80122300008A9BE
:1032C000FFF710FF021E1BD1380008A9FFF70AFF05
:1032D0000400042831D9009A059B9B1880225201D2
:1032E000B218934240D288235B05C118009A09A8FE
:1032F00008F036FA1D4B009A09A9F01807F080FF74
:10330000009A029B9446634402931A4B029AFB185C
:103310009A42BAD388235B05FC18216801980139C9
:1033200008F076F8200008F023FA039A07AB5A80D9
:1033300030000799FFF706FF0400002C03D100209E
:1033400079E70428FBD988235B05E018069908F083
:103350005FF80323EA1C9A4300D16BE7034B0499FF
:10336000E01807F04DFF65E70424ECE704000011C6
:10337000FFFFFF7FF80F0000F7B505001400402A9B
:1033800021D8002701AE71803780FFF7FEFE0428A8
:1033900016D93A003100FFF7A5FE042810D9368867
:1033A000BC420BD0BD4209D0221CB44200D9321C11
:1033B000064B92B2C118280008F0D2F930B2FEBD17
:1033C000C04300B2FBE703204042F8E704000011CD
:1033D00037B5042204000D0001A81649FFF7CCFF01
:1033E000020004280BD1019BA34208D3AB4204D0B6
:1033F000104901A80195FFF7F9FE01203EBD0E4CD2
:1034000023682000019308F0B3F9019920000139E5
:10341000019107F0FDFF80235B01E418074B9C42FC
:10342000EED10422034901A80195FFF7DFFE002039
:10343000E4E7C0465555000000C007110000081120
:1034400030B589B008F08CF810226946254807F09D
:10345000FFFE254B009A9A420ED1019B029A0F2B38
:1034600033D8002101240698013B08D2002900D05E
:103470000292029B013331D10023029325E0551CB7
:10348000F2D102002100EFE710341022200004A93D
:1034900007F0DEFE029B013301D1069B02938823D5
:1034A00004995B05C918059B06981A03120B049131
:1034B0000592814203D02B4201D108F0F9F8019B1B
:1034C000013B0193019B002BDED1029B002B03D01B
:1034D000049304984168084709B030BDE025014CC9
:1034E0002D03EFE70000011150485936F7B50F4999
:1034F0000F4B0A6804001A4084235B0013430B60DF
:10350000030003271033019300252E00112007F03C
:10351000FFFE084B1B683B40AB4002351E43202D8D
:10352000F4D1019B40C4A342EED1F7BD5CF0004052
:1035300000FEFEFF64F00040802270B5AD4CAE4B43
:10354000D200002120001C6007F012FE2300AB4ACD
:1035500088331A60AA4B1A786E23002A00D01133E0
:10356000E3620A232365A74B1878A74BA0630138B1
:10357000E361C3B2032B01D810232362A34B37228C
:103580006361C823DB00A36123008C331A60082326
:1035900036210F3AE518E16323646264E967043970
:1035A000251DE96725003B26BC352E602500C0356A
:1035B0002B602500C4352A6025000636CC352E60E8
:1035C0002500083EC8352E602500D0352960210031
:1035D000D4310B602100D8310A6021000225E0318E
:1035E0000D6025004221DC35296025001B3EE435B5
:1035F0002E602500E8352B602500EC352A6022007E
:103600000525F43215602200F032116022001831D5
:103610009032116022009432136023003C229833D0
:103620001A60AF23DB002360794B2363032805D89E
:1036300007F0D6FF33023537152363609623210048
:10364000FA225B00A360E360C8332361714BFC3155
:103650009200A3640A6062626F4A704DA262732294
:10366000E2656D3A6265A2650232E5644A60022154
:10367000616696218900A166626709210022E166E0
:10368000A2676749674A684E2167E2673560032889
:1036900011D807F0A5FF96089EA61023CDE70E23AC
:1036A000CBE70C23C9E720001A259C3005602000D9
:1036B0000735A03005602000A83003602300FA2001
:1036C000F8338000186023006420A43318602300BE
:1036D0005F38AC33186023000338B0331860230020
:1036E000C630B433186023000020B83318602300BC
:1036F0003825FC339D604D4D5A665D644C4D9A648F
:10370000DD619625AD001D624A4D9A675D62F53D0B
:10371000FF3D9D621E25484ADD6618675867D965DA
:103720001966DA67BE23C021444A5B00E250444B6D
:103730004900635004316250C4225200A350FA235E
:10374000E4205B000432A3500432A3503D493E4ABA
:103750003E4BD1603E49800019503E49E938FF3860
:1037600019503D49043019503C491038D1613C4949
:1037700011633C4951633C4911603C49195019009F
:103780003B48F83108603B49D16582213A4A8900BB
:103790005A501A0039490832D1671A003849B432F0
:1037A00011608821374A89005A501A0036498832F8
:1037B0001160364ADA6407F073FF012007F070FEEB
:1037C00070BD200014259C30056020000435A03019
:1037D00070E7200010259C30056020000335A030E4
:1037E00068E720000E259C30056020000235A030DF
:1037F00060E7C0460004FF1FB865FF1FB070FF1FE1
:103800007845FF1F4A0AFF1F3A07000080C3C9011D
:103810009A02000050C300006A180000280A000045
:10382000204E000088130000F009FF1F0040001127
:1038300068100000C4090000DC05000040420F00D1
:1038400010270000FD1BFF1FFC00FF1F0000FF1FD3
:10385000252FFF1F4D32FF1FE530FF1FD91FFF1F10
:10386000F51FFF1FA121FF1F491FFF1FC528FF1FB5
:103870008D2CFF1FD918FF1FD127FF1F3925FF1FD0
:103880004525FF1F491EFF1F011FFF1FC11DFF1FF1
:10389000F7B50B0CFF270122009300233C001E000C
:1038A0001D009446019089B262469A40100008407B
:1038B00018413618B6B2FF2F02D1012E00D19FB2A7
:1038C000009802401A41AD18ADB2FF2C02D1012D73
:1038D00000D19CB20133102BE6D10320012E07D179
:1038E000012D04D1019B2401E4191C700138FEBD97
:1038F000102EFCD10238102DF9D00230F7E710B5A8
:10390000064C2378002B07D10548FFF7EFFD05484B
:10391000FFF7ECFD0123237010BDC0467865FF1F43
:103920008C65FF1F7C65FF1FF0B58BB00D00012378
:103930000190102936D8FFF7E2FF00231A001B4838
:10394000C15C01335218102BFAD1023B002A29D056
:10395000174B184C1F68002306A9E25C1600FA5C9E
:1039600056405E540133102BF7D102AA07F0F8FB42
:103970002A0002A9019807F09BFE07F0F1FC2368DA
:103980001B18236007F0ECFC63681B18636007F0EA
:10399000E7FCA3681B18A36007F0E2FCE3681B18B0
:1039A000E360002318000BB0F0BDC0468C65FF1F1C
:1039B0001844FF1F7C65FF1F0223F0B50124574EFA
:1039C000574D3370574B2C701B688FB0552B10D050
:1039D000042006F057F900280BD0002321000093A3
:1039E0000420514A07F014FE8023DB059C62FFF798
:1039F00027FD002006F0DEFB07F03AFEFFF79CFDF6
:103A000007F05EFC1F2201240021484B0EAF1A7004
:103A1000474B1C70474B1970474B19689143163A36
:103A20000A431A60602219689143403A0A431A60B7
:103A300007F0AEFC07F074FCC120FF213F4B800073
:103A40001A588A431A50C522920098588843BF39A1
:103A50000143995098583A4908408021C9010143CF
:103A6000802099509958C0050902090A01439950CC
:103A700080213448490107F00BFD0323220032491D
:103A800001940093314807F07BFC2C22304903A8B5
:103A900007F066FE03AC61782078023406F018F96E
:103AA000BC42F8D10021112006F02CFA294B2A4AF9
:103AB000196803201140A022D2020A431A60802212
:103AC000196892040A431A601968244A1140802236
:103AD00092030A431A60224B224A934200D80120E3
:103AE00007F076FD07F024FD07F0B2FC307807F010
:103AF000FFFC2878C0B207F023FE07F081FC0A49DA
:103B0000042007F0D5FC06F021FB00F09FF800F040
:103B100009FE00F001FA00200FB0F0BD4A0AFF1FB5
:103B20007845FF1F34F000403B000108480AFF1FA2
:103B3000490AFF1F680AFF1FBCF0004000E100E0D7
:103B4000FF00FFFF7C45FF1F0058FF1F7C55FF1F34
:103B500090B7001114F00040FF7FF8FFFFFF9FFFB8
:103B6000B070FF1F0080FF1F70B500252849294A4B
:103B700029484D6308CA1B051B0DED188242F9D177
:103B80000022264B8B63264B08211A628022254B8C
:103B90009205DA67244BDA688A43DA60234A12789E
:103BA000012A03D09A6822490A409A600121EE2432
:103BB0002048E40002686C438A430260DA681120FE
:103BC0008A43DA6007F0F4FA112007F011FB1120A4
:103BD00007F056FB184A200C0400642390420AD8D0
:103BE000FA220023D200904205D9144B0A21C018B2
:103BF00007F01EFCC3B2124A1372124BD4801B781A
:103C0000002B04D1104B1021187807F059FC70BD1F
:103C1000000005408805054000060540FF01000042
:103C200000F0004004E100E03CF000404A0AFF1FC1
:103C3000FFDFFFFF00380040B70B000030F8FFFF48
:103C4000FC62FF1F3465FF1F2463FF1F002210B5B5
:103C50001100112007F004FD10BD0000F8B500238D
:103C600001250826344F354C3B62E3681120AB43F5
:103C7000E360E368B343E36007F0BAFA112007F0AA
:103C800097FA112007F0FCFB402322681120134310
:103C9000236080236268DB02134363608023A26891
:103CA0001343A360A368264A1340A3608023A2683D
:103CB0009B0113431022A360236C93432364236C62
:103CC0002B43236480235B003B62226B1D4B1A4015
:103CD0002263626B1A406263A26B1A40A263E26BBA
:103CE0001340E363E368184A1340184AE36013681B
:103CF0002B43136007F02CFDFD21154B154A89005D
:103D00005A508023C720626B5B0313436363E368ED
:103D100080003343E360E3680F4A1D430F4BE560C7
:103D200019581140802212020A431A50802292052B
:103D30001A600B4B5E63F8BD00F000403CF00040A1
:103D4000FFFFDFFFEFFFEFFFFFFF7FFF00380040C7
:103D50000000FF1F693B0011FF00FFFF00E100E0D2
:103D60000000054030B503A804880B20002C0ED1BC
:103D70004968074D08784978090201430A20A94299
:103D800005D1012120001980024B1B7A137030BD30
:103D9000192A0000FC62FF1FF7B5150008AA168853
:103DA0004A680F4F14785278120222430A24BA420A
:103DB00014D10122DBB2019200962A0007F016F915
:103DC000041E0BD1074B1B68002B07D068782A789C
:103DD0000002104342425041013098472000FEBD8E
:103DE000022900008062FF1F30B50125037904001D
:103DF000BFB02B4212D00A49408806F063FC28422B
:103E00000CD06A46074B69465B8D55801380064B84
:103E100060881B7A1371002203F01AFD3FB030BD99
:103E20007862FF1FC041FF1FFC62FF1F10B50549EC
:103E3000054806F0FDFB0421044A054806F0BAFBDC
:103E400010BDC0467862FF1FFFFF0000BCB7001125
:103E5000C041FF1F10B5024804F07CFB10BDC046F6
:103E6000E93D0011062310B5837010330371443B04
:103E700043712A3383714433C37100230222012129
:103E800003720E4B027041701C8881724472197A61
:103E90000273C1729A784273DA7882730322C27312
:103EA0001A7902745A7942740C2282749A79C27413
:103EB000DB7903751123C370152010BDFC62FF1F51
:103EC00010B5142007F08CFA124B14220021186050
:103ED00007F0E6F9002007F0B3FB012007F098F99E
:103EE000022007F0B5FB032003F0D8FD042005F005
:103EF000EDFD052003F016F8062003F0E3FC072093
:103F000001F06EF8082006F035FB092000F054FEA1
:103F100010BDC0468462FF1F10B507F039FB0120B9
:103F200007F08EFA07F044FB002010BD094B10B5D6
:103F30000400984205D0012904D12000064906F06A
:103F400077FB10BD0229FCD1013904F0C1FA002829
:103F5000F3D0F6E7FEFF0000AA62FF1F70B50D7AEE
:103F6000100004AA2C00168810221440154220D1FB
:103F7000002E20D10A78022A18D14A685178157883
:103F80000E4A09022943914205D00D4A914209D0B7
:103F90001C800A2404E014220A491A8007F088FBD6
:103FA000200070BD0C2208491A80F7E71C8001240C
:103FB000F6E70824F4E70B24F2E7C046F3FF00001D
:103FC000F4FF0000FC43FF1F98B8001110B5040077
:103FD0000749084806F02CFB074804F0FBF90020CD
:103FE000E40704D50721054A054806F0E3FA10BDA9
:103FF000AA62FF1FFFFF00002D3F001100B8001153
:104000000442FF1F00B50C4BBFB01A780B4901A842
:1040100000F0BCFB6B4680B25880002809D06A468D
:10402000074B69461B881380064B0022188803F053
:104030000FFC3FB000BDC0468862FF1F8962FF1FB2
:104040005E42FF1F5E43FF1F00B50C4BBFB01A78E6
:104050000B4901A801F03EFB6B4680B25880002856
:1040600009D06A46074B69465B8D1380064B0022D8
:10407000188803F0EDFB3FB000BDC046B262FF1FE1
:10408000B362FF1F0442FF1F5E43FF1FF7B50E0020
:10409000377A1C0008AB11003D001A8820231D4010
:1040A0001F423CD13378022B3BD173681F785B7879
:1040B0001B023B431E4FBB4208D01E4FBB4214D0D5
:1040C0001D4DAB4221D00A252800FEBD002A2AD171
:1040D000142C2AD82200F06807F0EAFA174B1C705B
:1040E000012CF1D9FFF7B0FFEEE7002A1BD1202CFD
:1040F0001BD82200F06807F0DBFA114B04211C707A
:10410000104B187807F0DCF9DEE7E3B201240092E7
:1041100001940A00310006F069FF0500D4E7082584
:10412000D2E70125D0E70B25CEE70D25CCE7C04629
:10413000F3FF0000F4FF000002290000B262FF1F3D
:104140008862FF1F2463FF1F07B5074B01A918886A
:1041500003F06AFB172805D1044B1E224021187872
:1041600007F0A6F807BDC0465E43FF1F2463FF1F8C
:1041700070B5160004AA148805AA15784A68507804
:10418000117800022A4A0843801805284BD807F006
:1041900027FA03131E29343F0720032C0BD80422CF
:1041A000121BAA4200D92A0022491A80300009199C
:1041B00007F07EFA002070BD0720112CFBD81222D8
:1041C000121BAA4200D92A001B491A80EEE70720D9
:1041D0000E2CF0D80F22121BAA4200D92A00174930
:1041E0001A80E3E70720032CE5D80422121BAA4219
:1041F00000D92A0012491A80D8E70720032CDAD800
:104200000422121BAA4200D92A000E491A80CDE7C7
:104210000720032CCFD80422121BAA4200D92A005F
:1042200009491A80C2E700220A201A80C3E7C04663
:10423000DCD5FFFF4BB80011D062FF1F3BB8001167
:1042400036B8001131B800112CB8001110B50D218D
:10425000024A034806F0AEF910BDC04620B800116E
:104260007442FF1F37B5012000F0CAF8204D214BE2
:10427000EA89287C9A422AD1042201A900F074F923
:10428000040000F031F9002C30D16B4699882B687E
:10429000C9BA4B432989184A1B145B1853806B46D3
:1042A000D9886B6849BA89B24B4369891B0C5B1882
:1042B0001248191C1BB2834200DD011C0B0400D5FF
:1042C0000021138891800133138020003EBD02231A
:1042D000002101AA00F01AF96A4604000223012114
:1042E000287C063200F012F90443CAE70124ECE707
:1042F000E462FF1F83050000FC62FF1F0F27000020
:1043000037B5012000F07CF81E4D07226946287C55
:1043100000F02AF9041E31D16B461B787F2B2DD873
:1043200000F0E2F86B46D878F02302041B031A4031
:104330006B469B8814495BBA9BB21A432B680009F1
:1043400053432A891B0C9B184B806B465A789B78E9
:1043500012031B011A436B68024353436A891B0C07
:104360009B181AB21B0402D58C8020003EBD074B5F
:104370009A4201DC8A80F8E78B80F6E700F0B4F817
:104380000124F2E7E462FF1FFC62FF1F0F27000019
:1043900010B50F4C237C002B0CD0382B0BD10120F7
:1043A00000F02EF8CC22AC21207C920100F028F9FC
:1043B00000F09AF810BD074BE2899A42FAD1012029
:1043C00000F01EF80021207C00F0FAF8F0E7C0466B
:1043D000E462FF1F8305000010B5084B1A7C002A19
:1043E00009D05B69002B06D09847041E01D0FEF768
:1043F00007FE200010BD0124F9E7C046E462FF1F5C
:1044000070B5002106000D2005F0B8FD01210C203B
:1044100005F0B4FD06F03CFF0400092007F030F879
:1044200000222B4B2B4DDA6661321A6019685B3A19
:104430009143002E28D0023A0A431A60AC4209D1B7
:104440000A22DA6107321A6200221A639A63013281
:10445000DA6370BD204A944203D11E22DA6105322C
:10446000F1E71E4A944203D13022DA610632EAE7CC
:104470001B4A944203D14322DA610832E3E7194A26
:104480009442E1D16922F7E702220A431A604622E8
:10449000AC4203D0104A944204D194225A610632AD
:1044A0009A61D1E70D4A944201D1E622F6E70C4A1F
:1044B000944204D13422FF325A610D32F0E7094AA6
:1044C0009442C1D1E62252005A610A32E8E7C0465E
:1044D000005000400024F4000048E801006CDC02B9
:1044E0000090D00300D8B80510B50024064B092071
:1044F000DC6606F07DFE21000D2005F0D3FC2100D6
:104500000C2005F0CFFC10BD00500040F8B51C0099
:104510000023134D0F00EB666860160007F020F8CB
:1045200001238022EB6623002F615200013B08D259
:1045300007F026F808200B4A1168002C03D1200050
:10454000F8BD2A61F2E72B6F034203D02B69013CCF
:104550003370013613685B1A012BEED90124EEE7A4
:10456000005000406008FF1F002370B5124D14007A
:10457000EB6668600E0006F0F3FF01238022EB6615
:1045800023005200013B08D206F0FAFF08200B4A34
:104590001168002C03D1200070BD2A61F2E72B6F57
:1045A000034203D02B69013C3370013613685B1A58
:1045B000012BEED90124EEE7005000406008FF1FF8
:1045C000002370B50C4C0D00E366606006F0C8FF78
:1045D0000123E366256106F0D3FF8020074A8000AF
:1045E0001168636B034205D113685B1A012BF8D97C
:1045F000012070BD0020FCE7005000406008FF1F54
:10460000002370B5134C0E00E3666060150006F0E1
:10461000A7FF0123E36626610F33626B1A42FCD0C9
:104620002B0A23611023626B1A42FCD0EDB2256184
:1046300006F0A6FF8020084A80001168636B0342E1
:1046400005D113685B1A012BF8D9012070BD002039
:10465000FCE7C046005000406008FF1F0A4B0B4AB1
:1046600019689068884202D980235B04C91853688E
:1046700091601B1A5B181168D80B5B0440185B0C27
:10468000106053607047C04628F000401463FF1F5D
:1046900010B51B4B1A793F2A01D93F221A7119799B
:1046A000184A1948117018221849028018480A80BF
:1046B00002804A809A791748802402800C208A80E0
:1046C000013242432401101CA24200D9201C124A8C
:1046D000C88010805A79002A01D101325A711A7AA1
:1046E000012A01D802221A725A791B7A0B485343C5
:1046F0000A21584306F09CFE094C206010BDC046BC
:104700000863FF1F480AFF1F5C43FF1F2445FF1F6C
:104710005A43FF1F0065FF1F5843FF1F710200002F
:104720002863FF1F10B507210020FEF751FE124C31
:10473000002807D10C222000104906F0B9FFFFF72E
:10474000A7FF10BD0C2220000D49FEF715FE0C2816
:1047500004D00C222000094906F0AAFF094C0C22C3
:1047600020000949FEF708FE0C28E8D00C220021A1
:10477000200006F095FDE2E70863FF1F8CB80011EA
:10478000FC0C0000E462FF1FF50C0000F0B5040013
:104790000D00160085B0002A00D1C8E0087800217D
:1047A00020706170262800D18EE00FD8072805D828
:1047B00006F016FF502B2B2B2B95A39C232800D102
:1047C000B7E0252868D0FF236370A5E0712800D1E9
:1047D0009AE014D8552845D05628F4D1854D0C229E
:1047E0008549280006F064FFFFF752FF0C22834939
:1047F0002800FEF7FBFC0C222900601C46E0722812
:1048000000D18BE0DC2800D1ABE0DB2800D0C5E094
:10481000042ED8D9AA786B7812021A43EB781027A5
:104820001B0413432A7912061A430192052E05D060
:10483000771F3A000198691D06F03AFF052229000A
:10484000200006F035FF3A000199601D06F030FFA8
:10485000781D05E00C222000694906F029FF0C2094
:1048600005B0F0BD013A634E0C2A13D8002A0AD0D5
:10487000691C300006F01CFFFFF70AFF0C22300015
:104880005E49FEF7B3FC0C223100601C06F010FFFD
:104890000D20E5E70C22EBE7013A5A4E0C2A11D81D
:1048A000002A08D0691C300006F002FF0C223000FC
:1048B0005549FEF79BFC13223100601C06F0F8FE00
:1048C0001420CDE70C22EDE74E4D1322280006F010
:1048D000E7FCFEF795FB13222900601CEEE705229A
:1048E0004A49601C06F0E4FE0620B9E71222484956
:1048F000601C06F0DDFE1320B2E708224549601C6B
:1049000006F0D6FE0920ABE76978F72900D95AE707
:10491000414B188801F03EFB0220A1E700F04CFB60
:10492000012E02D06A783D4B1A6006F051FC00203F
:1049300096E7013A3A4E042A11D8002A06D03000F0
:10494000691C06F00DFF374B1B68B360FFF786FE4E
:1049500004223100601C06F0ABFE052080E7042233
:10496000EDE7022A00D82EE76B786370AB78A3706E
:104970006F781B021F43032A05D0033E3900B2B2F1
:10498000E81CFEF733FC10223900E01CFEF7F4FCB3
:1049900003000330002B00DB62E715E7DA2800D0C4
:1049A00011E7042E00D80EE7AB786A781B02134398
:1049B000EA7812041A432B791B061343082E16D9E2
:1049C000AA79697912020A43E979090411432A7A1A
:1049D00012060A4303921A601B6805222900200070
:1049E000039306F065FE0422601D03A988E7FE22FA
:1049F0006270F1E70863FF1F8CB80011FC0C000027
:104A000098B80011E462FF1FF50C0000F062FF1F70
:104A1000D062FF1F9844FF1F5E43FF1F34F0004029
:104A20001463FF1F28F0004070470000013870B584
:104A3000042809D806F0D4FD030920081200184BF9
:104A40000221187806F03CFD70BD154B082118783E
:104A500006F0CEFD0022134B1A72F5E70024114B2D
:104A60000F4D082128781A681C8106F031FD2100BD
:104A7000287806F095FCE7E7094B0821187806F03E
:104A8000B7FD0948FFF7EEF9084B094A9B79938077
:104A9000084A13808022034B52001A81D4E7C04693
:104AA0002463FF1F2863FF1F6743FF1F0863FF1F67
:104AB0002445FF1F0065FF1F10B5002902D11120FA
:104AC00005F020FA10BD0000020010B5094B0A32B3
:104AD000094C92B2DA815A8298811882207802F0C9
:104AE000BFF80422054B012120781A7006F0E8FC7B
:104AF00010BDC0462244FF1F6265FF1F6165FF1F96
:104B000010B501290CD1112005F0FCF9054B1B78DB
:104B1000002B05D02622044B04485A72FFF7D4FF1D
:104B200010BDC0463465FF1F2863FF1FC409000085
:104B30000300F0B50A4D8E18B14202D15200801820
:104B4000F0BD0C782F6824093C5D0F271C700C7891
:104B500001313C402F683C5D5C700233ECE7C0469D
:104B60005443FF1F10B5114B1A781870002A0ED04D
:104B700000280BD10E4B1A78062A07D85423D340AD
:104B8000DB0703D50B4B187802F06AF810BD00283C
:104B9000FCD0074B1B78012B02D0033B022BF5D82E
:104BA000044B0121187806F08BFCEFE73465FF1FFA
:104BB0006165FF1F6265FF1FF7B55C4D5C4A5D498B
:104BC0002870042005F0A0FA0021112005F09AF9C0
:104BD000112005F083FAFEF713FA06F041FC0322D8
:104BE00055495648FFF7A4FF2D24030004221C70EA
:104BF00053490130FFF79CFF3023022204704370B9
:104C00008370504C504B2000DA8706F0D9FC022804
:104C100015D0062220004D49FEF7AEFB06280ED027
:104C20000321200006F06CFA8D23E3706E3B2371A4
:104C300006221933200045496371FEF7D7FA0D2388
:104C4000434F444C444E3B70013B042230004349E7
:104C50002370033B6370019606F02AFD2D23012289
:104C60003F494048A371FFF763FF01223E49FFF728
:104C70005FFF01223349FFF75BFF0020FFF772FF60
:104C80003A4E3B4A01213B4B1278307801F0AAFFA3
:104C9000230000213A78307801F0A4FF0122217826
:104CA000354B01391A700020019AC9B205F0A0FBFA
:104CB000324B1A68552A30D100221A60304B3C32F0
:104CC00030485A72FFF700FF2021287806F038FBA1
:104CD0000120404205F0D8FB0120404205F074FC61
:104CE000FFF7B4FAFFF7A2F800F08CFC0120404275
:104CF000FFF76CF9012006F02BFBF72001F02EF9ED
:104D00000121287806F0DCFB287802F005F91E481E
:104D100006F02EFBFEF7A2FFF7BDFA210A4B1B4A55
:104D200049019981DA8119825A82CDE72463FF1FF4
:104D3000B94A0011014B00119844FF1FD062FF1FB8
:104D4000F062FF1F6509FF1F2244FF1FADAC00008A
:104D50003065FF1F1165FF1F1365FF1F4BB8001162
:104D60006709FF1F1865FF1F6609FF1F6265FF1FA8
:104D70008643FF1F6743FF1F0265FF1F34F000409B
:104D80002863FF1FC40900003463FF1F4A1F00008F
:104D9000F8B50A0020230D001A40194238D0464BBE
:104DA0001B78002B23D0FFF759FC444C444E63681A
:104DB000727AC31A934202D36060FEF74FFF327AD1
:104DC000217A531EDBB2994214D1FFF7E1FA637ADC
:104DD000002B09D0013BDBB26372002B04D1707948
:104DE00064335843FFF770FE237A01332372202087
:104DF0006840F8BD9142EAD300232372FFF7ECFA32
:104E0000304F3800FFF72EF8390006F0A1F9DEE741
:104E10000BB2002B0ADA2C4B187806F001FB0028A5
:104E200001D006F0B5F980200002E1E7022421421A
:104E300006D0224B01201A72FFF794FE2000D7E71C
:104E40000B0713D5FFF70AFC1C4A1D495368497A22
:104E5000C31A8B4202D35060FEF700FFFFF7BCFA83
:104E6000FFF796FA00F0E8FB0820C1E71024214282
:104E700006D0114B1B78002BE0D1FEF7EBFFDDE7EE
:104E80000124214209D0114800F06EF806F0F8FB29
:104E90002100112005F036F8D0E74024214202D04D
:104EA000FFF752F9CAE70424080020402142A0D0AD
:104EB000FFF7A8F8C2E7C0463465FF1F2863FF1F4D
:104EC0000863FF1F6743FF1F2463FF1F4C43FF1F3F
:104ED000F0B51B4B1B4F1B883A8804001A4E1B4D24
:104EE00085B09A420DD832889A420AD3184B1A8854
:104EF0002B889A4205D1174A174B12881B889A4271
:104F00001BD0052001F080F83B8802AA138033886B
:104F1000019053802B88114D93800F4B02A91B8861
:104F2000D3800F4B2A78188802F09CFD0D4B082186
:104F30002878019A1C7006F0BBF905B0F0BDC04698
:104F4000FE64FF1F5C43FF1F5A43FF1F0065FF1FE6
:104F5000FC64FF1FFA64FF1F5843FF1F6265FF1FB9
:104F60005E43FF1FF864FF1F13B50C4B1C78002C29
:104F700011D1002801D00A4B18600A4A0A4B117857
:104F80000A4A10780A4A01920A4A0092002205F061
:104F900027F9200016BD1124FBE7C0466165FF1FFD
:104FA000F464FF1F6065FF1F5065FF1F6265FF1FF0
:104FB0003C65FF1F4065FF1F10B5064B12201B7894
:104FC000052B06D1044B13221988044B187801F0E5
:104FD000F7F910BD6165FF1F5E43FF1F6265FF1F8C
:104FE00010B500240122114B52421870104B1C7056
:104FF000104B1A8001F090FF04220F4B21001A7011
:105000000E480C3206F04CF9102221000C4806F034
:1050100047F907220B4B1C600B4B1C700B4B1C7091
:105020000B4B1A700B4B1C7010BDC0466265FF1F06
:105030006165FF1F5E43FF1F6065FF1F5065FF1F17
:105040004065FF1F3C65FF1F1065FF1F0F65FF1FB9
:105050006043FF1F0E65FF1FF8B5174C060025784B
:1050600006A814240078052D23D1B41F134FA5B230
:105070001824BD421DD88D1FADB2BD4219D8FA25E6
:105080006D00AA4215D21D000D4F0A3DADB2BD42C2
:105090000FD80C4C26800C4C21800C4900240A802F
:1050A0000B4A1380FFF714FF0A4B0421187806F00F
:1050B0009FFA2000F8BDC0466165FF1F790C000013
:1050C000750C00005C43FF1F5A43FF1F0065FF1F64
:1050D0005843FF1F6265FF1FF0B50BB20D0089B08A
:1050E000002B00DB76E1A64E307806F099F9041E1D
:1050F00055D00378A22B00D127E1D02B1AD0912BC9
:105100004AD143780E2B47D19E4B82889A4243D195
:105110009D4A83681278052A3ED1032018567F28BD
:105120003AD09A4B1B68002B36D05B68002B33D0EB
:10513000984731E0807807282ED806F051FA042DE0
:105140001D444479ADDD6378002B11D10622E11CAA
:105150008F4806F0ADFA01218B4B19708D4B1A78F0
:10516000002A5BD08C4B307801F03CFD002855D0F4
:105170000722854B1A7051E061780029F8D1E37855
:10518000002B11D0854A864B1278307801F02AFD29
:1051900060706378002BEBD1200005F0F9FF8020D0
:1051A0000002684009B0F0BD774B1B78022BF3D0AA
:1051B0000121307806F03CF80028EAD1012130784E
:1051C00006F07EF9E5E76378002BD1D16E4F032816
:1051D00007D13B78052B02D101333B701EE002233F
:1051E000FBE7704B1A88704B0293002A0BD01B7898
:1051F000002B03D00121307806F05AF83B78062BBB
:1052000004D1013BE9E7029B1A70F7E7042B41D177
:105210000121029B3078197006F052F95B4B1B6834
:10522000002BB9D01B68002BB6D0574A10787FE707
:105230006378554F002B27D10622211D5B4806F0CD
:1052400037FA62895A4B5B491A80A2895A4B1A80F5
:10525000E3890B800521397058490A80584A138028
:10526000228A584B1A80584B1B78012B09D11F20DA
:1052700000F0CAFEFA22920042430421307806F080
:1052800017F80022484B75E7312B00D070E7002259
:10529000454B1A700323A0E706220021434805F07E
:1052A000FFFF0023454A04211380454A30781380CC
:1052B000444A138006F09CF90821307806F098F9EA
:1052C000A379083B5A4253412F4A03331370314BA1
:1052D0001B78002B06D0344B30781A78002A06D081
:1052E00001F0BEFC0122324B52421A8096E70121A6
:1052F000197006F0E5F8F5E70821307806F078F93E
:105300006378002B00D047E72C4B2E4F0293E388A5
:10531000029A042113802A4B307803932389039A3D
:10532000138063893B8005F083FF002800D033E7BA
:10533000264B1B68002B00D12EE7039902983A8870
:10534000098800881B68984726E74379132B00D00B
:1053500022E70389012B0AD11D4B1B78022B06D1B2
:105360000821307806F044F9FFF726FE14E70520FF
:1053700000F04AFE08210200307805F099FF0BE7A3
:105380006265FF1F051400006165FF1FF464FF1FC5
:105390003565FF1F8643FF1F6743FF1F3065FF1FF3
:1053A0001165FF1F3265FF1F3465FF1F0365FF1F77
:1053B0005E43FF1F0A65FF1F0C65FF1FFE64FF1F92
:1053C000FC64FF1FFA64FF1F0265FF1FF064FF1FEC
:1053D000F864FF1F8020C001014200D0E1E6CB0746
:1053E00031D5324B1B78002B1DD0314E05AC3378B4
:1053F000052B1AD1023B23702E4B21001B78237200
:105400002D4B1B7863722D4B187801F08FFB002811
:1054100009D007202A4B30701B68002B03D01B6873
:10542000002B00D098470120BBE60E20254B06221A
:105430001B7825492370254B1B78637002ABC0187D
:1054400006F036F9D8E7022308001840194209D0BF
:10545000174B1B78052B03D11D4B188806F0A0F8BD
:1054600002209EE60424214203D0FFF731FD2000F4
:1054700097E6082308001840194200D192E6154B20
:105480001C78012C03D0022C0DD0082089E6124B89
:10549000124A134913481B8812880988008800940F
:1054A000FFF7DAFDF1E7FFF787FDEEE73465FF1F51
:1054B0006165FF1F6043FF1F0E65FF1F6265FF1FD1
:1054C000F464FF1F1065FF1F6143FF1F0F65FF1F7F
:1054D0005E43FF1FF864FF1F5843FF1F0065FF1F57
:1054E0005A43FF1F5C43FF1F10B502A804880B201E
:1054F000002C10D1496808784978090201430C480A
:10550000814209D1022119800A4B59881170DB7838
:1055100000205BB2537010BD074C0A20A142FAD1A3
:1055200002211980034B998811705B79F0E7C0461E
:105530006E2A0000FC62FF1F6F2A0000F7B51500FD
:1055400008AA16884A680F4F14785278120222432C
:105550000A24BA4214D10122DBB2019200962A0039
:1055600005F044FD041E0BD1074B1B68002B07D030
:1055700068782A780002104342425041013098472F
:105580002000FEBD022900007465FF1F30B5012513
:1055900003790400BFB02B4227D01549408805F09D
:1055A00091F828420DD06A46124B69465B8D1380F4
:1055B00002235380104B5B8893806088002202F0A6
:1055C00047F90E49608805F07DF8C0070DD56A4699
:1055D0000B4B69461B88138002235380064B9B8824
:1055E00093806088002202F033F93FB030BDC0469E
:1055F0006C65FF1F8843FF1FFC62FF1F6465FF1F70
:10560000E243FF1F10B5074C0749200005F010F8D2
:105610002000064905F00CF80721054A054804F06A
:10562000C9FF10BDFFFF00006C65FF1F6465FF1F11
:1056300018B900118843FF1F10B5024802F08AFF15
:1056400010BDC0468D5500110200F0B501270A4873
:105650000A4E51188B1A002B00DCF0BD0824157877
:105660004308684038404000805B013C58406D086A
:10567000002CF5D10132EDE7FFFF000032B9001137
:10568000F0B500250F269D4200DBF0BD4C5D0709FB
:1056900044403440A400A05801357840F3E70000AE
:1056A000F0B589B06A460D000B000F2711001035C8
:1056B0001C780133260024093E40167054700232D3
:1056C000AB42F5D12023024AFFF7DAFF09B0F0BD63
:1056D00038B90011F0B54E780B7889B036020C005D
:1056E000170001901E43012A61D9974B9E4200D8B2
:1056F00077E001339E421CD1062A17D1CA788B78F5
:1057000012021A430B791B0413434A7912061A43F7
:105710008E4B5A6100221A705A808D4A5A608D4A07
:105720009A608D4ADA60002009B0F0BD88225205E7
:10573000EEE78A4B9E423CD184498B78002B00D007
:10574000F9E00C2A31D10F22A3789343E2781202B8
:1057500013432279120413436279120613434B60F8
:10576000E279A07912020243207A00041043627A9F
:1057700012060243CA60E27AA07A12020243784813
:105780004A81834208D804237049142201980B707F
:1057900005F08EFF1420C7E71201D21889235B059C
:1057A0009A42F0D801238B70BDE7022AFAD0052374
:1057B000EAE76C4A01239642E6D1FFF7FDFB052F8D
:1057C0000CD9E378A2781B021343227912041A43FE
:1057D00063791B061343644A0393136005F0F8FCD6
:1057E000A1E75A4D2B78002B9DD1AB78002B00D12F
:1057F000A3E02B8901339BB20093B34200D094E025
:10580000132AD4D9CF7C8B7C3F02122120001F4366
:10581000FFF71AFF874200D091E0002E3ED1E378D7
:10582000A2781B0213432279E96812041A436379B0
:105830001B06134303930A228B4213D1FF23A37049
:10584000E370237163716B89002B0AD1E37B227CA7
:105850001B0212041343A27B134303931B0901335E
:105860006B8100226B89002B8DD0002A69D168687A
:1058700037013818000B6B6900030390984205D973
:10588000686105F075FFEB780133EB7068681022F2
:10589000A11C381805F0B4FC2E8144E76F89009AEA
:1058A0007B1E9BB293423CD1E378A2781B02134348
:1058B00022792E4E12041A4363796C681B06134337
:1058C0003100042204A8039305F0F2FE211D0C22EE
:1058D00005A805F0EDFE012004A940421034FFF7B1
:1058E000DFFE013F012F17D1039A0B23286182426B
:1058F00000D049E704223100686805F081FC0422E9
:1059000003A9686805F07CFEE968039AFF239142C9
:1059100000D139E7F73B37E72100FFF7C1FE10342C
:10592000DFE70923B742A2D82EE7009BB34200D994
:10593000F9E6072328E7022326E7032324E70623C3
:1059400022E70A2320E7C046FFFE0000FC43FF1FBA
:1059500000000111FFFF00005048593601FF000010
:10596000FFFF001102FF000034F000400844FF1F59
:1059700010B5034C0B000122210000F06BFA10BDA2
:10598000315B00110B8870B506000D000224162B48
:1059900011D92B000322094900F05CFA041E0AD138
:1059A000074B2A881B88191C934200D9111C300010
:1059B00089B200F0EFFA200070BDC0465D5B0011B7
:1059C000D265FF1F10B54A780400013A0B0002208F
:1059D000012A07D80A78002A04D0052220000249AB
:1059E00000F038FA10BDC0468B5B00110A7810B584
:1059F0000B0004000220002A04D0072220000249E4
:105A000000F028FA10BDC046375C00110A7810B5C6
:105A10000B0004000220002A04D0092220000249C1
:105A200000F018FA10BDC0469D5C001110B5034C83
:105A30000B000B22210000F00DFA10BDCD5C00110F
:105A400010B5034C0B000D22210000F003FA10BD2D
:105A50003F5D001110B5034C0B000F22210000F038
:105A6000F9F910BD995D00110A7810B50B0004001A
:105A70000220002A04D011222000024900F0EAF995
:105A800010BDC046A95D0011002310B513221900F6
:105A900000F0E0F910BD000010B5034C0B00172218
:105AA000210000F0D7F910BDFB5D0011002310B5F7
:105AB0001922190000F0CEF910BD000010B5034CFA
:105AC0000B001B22210000F0C5F910BD355E00114E
:105AD000F7B584890D0006000121002C22D0002397
:105AE0008268D3561778002B1EDA0C2C1AD90C3C7E
:105AF000A4B2131940880093230002F086FE431ECF
:105B0000984101307B06DB0F6B703F23013C1F4047
:105B1000A4B22870AF70AC80002C07D0B3680133FA
:105B2000AB6000210800FEBD0020EBE7AC60F8E7A9
:105B30000B7803704B8843704B881B0A83700B797A
:105B4000C370042070470420022B06D10020537834
:105B500011781B02009A0B43138070470B88037067
:105B60000B881B0A4370022070470420009983426F
:105B70000AD1537810781B0203430B80D3789078B6
:105B80001B02034300204B807047F8B50D004B7893
:105B900001240021461C03702B788B4201D8200081
:105BA000F8BD6B78B01C4F1C012B10D1890069180F
:105BB0004B88022233704B88B9001B0A7370691836
:105BC00005F076FD04360434A4B2F9B2E4E71223FA
:105BD00059436B185A88043132705B8810221B0AB3
:105BE0007370691805F064FD12361234ECE770B575
:105BF000049D14001E00052B01D8042070BD63789D
:105C000012781B0213432B80E378A2781B02134304
:105C100002226B802A71211D681D063E05F048FD99
:105C2000B2B22A81F02AE8D82800A11D0A3005F076
:105C30003FFD0020E2E7002310B50A789A4201D820
:105C4000900010BD9A008A1854880133047054885B
:105C5000DBB2240A4470948884709288120AC2705D
:105C60000430EAE710B51100029C062B04D0042092
:105C70001022142B01D010BD022222714B7808781B
:105C80001B0203432380CB7888781B020343638085
:105C90000431601D05F00CFD0020ECE710B50C7818
:105CA0008B7804315C43E4B203702200013005F0CC
:105CB000FFFC601C10BD0420022B06D1002053788D
:105CC00011781B02009A0B431380704710B50C002B
:105CD0000A88023105F0ECFC208810BD70B5040084
:105CE0000D0004981100012B01D8042070BD167816
:105CF00052781202324302800200F832557014705A
:105D0000E825002C00D10C35023B9AB24280AA4211
:105D1000EBD80231043005F0CBFC0020E6E704208C
:105D2000009983420AD1537810781B0203430B80F9
:105D3000D37890781B02034300204B80704710B546
:105D40000C000A88023105F0B3FC208810BD000069
:105D500070B501211E000420049C0E400B4218D196
:105D6000CB40DDB28D4214D90A49DBB20988994291
:105D70000FD32300F6331D703300580011184978F3
:105D8000165C0902314301332152D9B28D42F4D855
:105D9000002070BD1C44FF1F10B50C000A880231A2
:105DA00005F086FC208810BD10B50C788B78043186
:105DB0005C43E4B203702200013005F079FC601C02
:105DC00010BD10B511000298032B01D8042010BD9E
:105DD00014785278043B120222430280CA788C78ED
:105DE0001202224342809AB28280F22AEED8043113
:105DF000063005F05DFC0020E9E710B50C000B88CB
:105E000003700B881B0A43704B8883704B881B0AF6
:105E1000C3708A880430063105F04AFCA08804303B
:105E200080B210BD0420012B03D100201378009A0A
:105E30001370704710B50C000B8803700B881B0A99
:105E400043704A880230043105F032FC6088023029
:105E500080B210BDF0B589B003931E4B0292420090
:105E60000700D05A019102F020F81325061E2DD00C
:105E7000029B01240370019B002B04D0001903999D
:105E80009847001984B26B461B7A5BB2002B0FDA7D
:105E90001021380002F01CFB1925002813D1300016
:105EA0003219E1B202F066FC051E0CD10C34A4B22A
:105EB000042304AA380005A993800696948101F072
:105EC000AFFD051E02D0300005F012FC280009B01D
:105ED000F0BDC046D065FF1F70B505000C0000285E
:105EE0000CD00020814209D010222000044905F086
:105EF000DFFB01202B7823736B78637370BDC04682
:105F000078B90011F0B506000D0017001C0085B02F
:105F100002291BD00020102907D1022B07D0102BFB
:105F200003D115E00020102C08D005B0F0BD694663
:105F30003800FFF7D1FF2A0069460BE069463000C0
:105F4000FFF7CAFF22006946380004E0022BE9D1BE
:105F50002A003900300005F0D3F9E6E7031CF728E2
:105F600000D9F723032008499AB2013A0B80D317CE
:105F7000034006499B189B100B80D30F04499B18C4
:105F80005B100B807047C0462044FF1F1E44FF1F5C
:105F90001C44FF1F034B1B888B4202D3024B400063
:105FA000C15270472044FF1FD065FF1F014B4000C6
:105FB000185A7047D065FF1F1722014B1A8070478F
:105FC000D065FF1F70B505000E2005F089FB041E8B
:105FD00013D0D02303700023062283700749457035
:105FE000033005F065FB064B2100DA8A62811B7ED7
:105FF0002373044B187805F0BBFA70BDEC65FF1FE6
:10600000DC65FF1F7044FF1F262803D8024B4000A9
:10601000C05A70470148FCE72244FF1FFFFF000001
:1060200070B506000C00094D1C220021280005F067
:1060300037F9074B1E70074B1C7005F081F80123E0
:10604000002801D0002312202B7070BDDC65FF1FDB
:106050007044FF1FFD65FF1F70B505000D4C080063
:10606000E260A16010220021656005F0B9F8012806
:1060700003D11021A06802F058FD10220021280051
:1060800005F0AEF8012803D11021606802F04DFD43
:1060900070BDC046DC65FF1F70B5041E05D1002928
:1060A00003D006220D4805F003FB0D4B1D78012D92
:1060B00011D1002C05D102221A7005F009F928002F
:1060C00070BD00221A70074B1B78FF2BF7D0200001
:1060D000FFF778FFF3E70025F1E7C046EC65FF1F07
:1060E000DC65FF1F7044FF1F030010B5002801D1BD
:1060F000002010BD00780B4A002803D15988D182B6
:106100001B7913761378022BF2D10023984200D129
:1061100003331370044B1B78FF2B01D0FFF752FFA2
:106120000120E6E7DC65FF1F7044FF1F002911D046
:1061300000280CD04B79012803D14022524213434E
:1061400003E03F221340032802D001204B71704727
:106150004022F4E70800FAE770B5094D01002878FD
:1061600000280BD0074C0622200005F0A1FA2100E0
:106170002878FFF7DBFF200005F0D2F970BDC0469C
:10618000FC65FF1FD665FF1F00290AD0012808D132
:106190003F224B799343C02B03D0403B5A4253419B
:1061A000981C704770B5174D06002B78FF2B15D043
:1061B0000A2005F095FA041E10D0D0230370C83BC6
:1061C0008370114B11491B784670C370062204304E
:1061D00005F06EFA2100287805F0CAF90C4B1B78FF
:1061E000012B0DD10B4B1B68002B03D09B68002BA0
:1061F00000D09847084B04211878084A05F068F940
:1062000070BDC0467044FF1FFC65FF1FD665FF1FB1
:10621000F865FF1F2466FF1F2866FF1F60EA000065
:10622000014B98687047C046DC65FF1F014BDB6877
:1062300018687047DC65FF1F074B10B5DA681368F4
:1062400001331360054B1878FF2803D08021C90162
:1062500005F036F910BDC046DC65FF1F7044FF1F16
:10626000F7B50E0002F0C8F8051E1CD00E4B0662F2
:106270001F78002F00D10778AB791020019305F02B
:106280002FFA041E0FD0D0230380C73B8370019BDD
:10629000E91DC3700622043005F00AFA2100380017
:1062A000E66005F065F9F7BD6E44FF1F014B1878F5
:1062B0007047C046FC65FF1F054B002805D1054B04
:1062C0001A78054B002A00D1014B18007047C046D0
:1062D000EC65FF1FFC65FF1FD665FF1F014B58686B
:1062E0007047C046DC65FF1F024B1868431E98418B
:1062F000C0B270470066FF1F421E03000120152A2E
:1063000003D9FF3B5A425341D8B27047F0B51C0045
:1063100000230E0085B0039002920B70029A934204
:1063200001D3002019E0E55C5A1CD2B2002DF8D050
:10633000029851198142F4DC0233DFB2A35C1800E9
:106340000193FFF7D9FF002807D0013D019A039977
:10635000EBB233708A4202D1E01905B0F0BDDB190F
:10636000DBB2DBE710B50C0002F09EF80300122050
:10637000002B03D02100588805F0B2F810BD0000B2
:1063800070B50E4D84006359002B15D0186A002893
:1063900001D004F0C5FE2B59586A002801D004F042
:1063A000BFFE2B59986A002801D004F0B9FE285985
:1063B00004F0B6FE00232B5170BDC0460C66FF1FD3
:1063C0001C4B70B504000E00150099420AD11A4BFF
:1063D0001B68002B01D1122070BD1B68002BFAD066
:1063E0009847F9E7154B994215D1134B1B68002BC1
:1063F0000AD01B68002B07D09847002804D1104B07
:106400001C70104B1D70E7E729002000FFF7AAFF62
:106410000028E1D1F3E7080001F0EEFF0028DAD010
:1064200003780320A342D7D12900300005F058F8A3
:10643000D2E7C046FEFF00000866FF1FFFFF000016
:106440000566FF1F0466FF1FF7B50400808801F092
:10645000D3FF0025A84203D00578A08802F008F8F1
:106460001C4E3378002B1FD0AB421DD11A4B280095
:106470001978FFF777FF002818D000233370A3792D
:106480000820A778A688019305F02AF9011E0DD0EF
:10649000D0230370CA3B8370019B47708680837151
:1064A000280005F065F801E0002DE8D1A0880B4B2D
:1064B0008200D358002B01D0FFF762FF1721A0887C
:1064C000FFF768FDA08801F027FDA08801F0FEFD20
:1064D000F7BDC0460566FF1F0466FF1F0C66FF1F61
:1064E000F0B587B01D000CAB1B88070001930DAB06
:1064F0001B88142002930EAB1B88160003930FAB6E
:106500001B880091049310AB1B88059305F0E8F8F5
:10651000041E1AD0D0230370CB3B47708370C67023
:10652000062229000430002D11D005F0C1F8019B8E
:1065300021006381029B0098A381039BE381049B5C
:106540002382059BA37405F013F807B0F0BD04F097
:10655000A7FEECE7F7B5009308AB1B8807000C20FB
:106560000D001600019305F0BBF8041E13D028009F
:1065700001F042FF00280FD00078D0232370C93BE0
:10658000A370009B21002381019B6770A580E6809A
:10659000638104F0EDFFF7BD014B1878EDE7C046CD
:1065A0007044FF1F13B5040064890389C288818881
:1065B000C0780094FFF7CEFF13BD000010B5044C67
:1065C0002068002803D004F0ABFD0023236010BD39
:1065D0001066FF1FA122F0B5818892004A43384B14
:1065E000384F1B6804009B189D2292009B188279EB
:1065F00089B01A603B68002B5FD01D78324B1B6856
:10660000002B04D05B68002B01D0002098472600A7
:1066100008363100E079FFF7B7FD237DE071020015
:10662000E0780493638A29000393238A0293E38921
:106630000193A38800933300FFF752FFE378002B08
:106640000BD1E289A379A18802920196E279280010
:106650000092012201F0DAFEE0703B68002B20D0AE
:10666000FFF7ACFF194D287800281AD0184B19787D
:10667000FFF778FE002814D02B78E67808200793DF
:10668000A78805F02DF8011E09D0D0230370CA3B5E
:106690004670837087808671079804F069FF002335
:1066A0002B701721A088FFF775FCA08801F034FC3F
:1066B000A08801F00BFD09B0F0BD064B9DE7C04678
:1066C0003409FF1F1066FF1F2466FF1F0566FF1FAA
:1066D0000466FF1F7044FF1FF8B5070008000E0096
:1066E00001F08AFE041E18D02620FFF78DFC051E3F
:1066F00000D12578062004F0F3FF041E0DD0002100
:10670000062204F0CDFDD0232370C23B2100677028
:10671000A370A680E8B204F02BFFF8BDF0B585B0F9
:1067200001930AAB1B78070002930BAB1B780800A0
:106730000D000092039301F05FFE061E22D0102090
:1067400004F0CEFF041E1DD01022002104F0A8FD8D
:106750002620FFF759FC002800D13078D023237081
:10676000C13BA370009B21002372019B6770637281
:10677000029BA580A372039BC0B2E3720C9BE360F3
:1067800004F0F6FE05B0F0BDF7B50D00019001F084
:1067900033FE071E20D00E2004F0A2FF041E1BD0E3
:1067A0002620FFF731FC061E00D13E78D02323803F
:1067B000C53B0622A370F91DE01C04F079FF019B84
:1067C0002A0063810123DD401A401D40210022730D
:1067D0006573F0B204F0CCFEF7BD0000F0B585B0F3
:1067E000029010000D0017000A9E039301F004FEB2
:1067F000041E31D0029B002B2ED1039B02795B0734
:1068000024D5122313430422002E08D10B9900290A
:1068100005D10C99002902D10D9900291AD01A43EB
:106820000D9B2271002B00D0C9E0002E00D1CFE0DB
:10683000002D00D0CCE0606A002801D004F070FC8C
:106840001C21300004F07CFE606205E002239A43C4
:106850000E33D7E793432371654BBA00D458002C0D
:1068600000D1AAE0002E10D0236A002B03D11C20F7
:1068700004F0B6FD20625E4BBA00D358186A0028B7
:1068800003D01C22310004F013FF0C9B002B12D00C
:10689000574CBB001D596B6A002B03D1162004F026
:1068A0009FFD6862BB00E358586A002803D0162297
:1068B0000C9904F0FDFE0D9B002B11D04C4DBC003B
:1068C0006659B36A002B03D1142004F089FDB0622D
:1068D0002B59986A002803D014220D9904F0E8FE81
:1068E000380001F089FD051E67D0414BBA00D3582E
:1068F000002B62D01A6A3420002A00D11C389A6A10
:10690000002A01D0143080B20B9A002A01D01C302A
:1069100080B25B6A002B01D0163080B204F0E0FE3A
:10692000041E4AD01822002104F0BAFC2620FFF7EA
:106930006BFB0190002801D12B780193D0232370A9
:10694000029B200063700A23294EA370039BBD00A5
:10695000A371AB59A780196A1830002905D01C22F1
:10696000A06004F0A5FE200034307359996A002914
:1069700007D0030014221433E060029304F098FE61
:1069800002980B9B002B08D003001C221C330B9990
:106990002061029304F08CFE02987359596A002911
:1069A00003D01622606104F083FE6B462100187943
:1069B00004F0DEFD3800FFF7E3FC05B0F0BD102267
:1069C0000D9B0D991B69A018236204F071FE2CE742
:1069D0000B9B002B00D13FE7012D00D03CE7606A04
:1069E000002801D004F09CFB1C210B982AE7C0462C
:1069F0000C66FF1F10B5044C2068002803D004F07B
:106A00008FFB0023236010BD0066FF1F0B4B07B5F3
:106A10001A68002A01D100200EBD6946531C0120CE
:106A200012780731FFF772FC0028F4D002780123B6
:106A3000100018401A42EED0EEE7C0461C66FF1F59
:106A4000F0B51F4F01203B6887B0002B25D09B7805
:106A5000059300F0B3FB002821D00A20FFF7D4FAF9
:106A600004000B20FFF7D0FA164B05001E78731EAA
:106A70009E413B68F6B2191DD878FFF757FB3B687B
:106A80002900DA7A043303929A79019302920090F2
:106A900033002000059A04F033FD07B0F0BDFFF786
:106AA000B5FF002805D00620FFF7AEFA0400072046
:106AB000D8E70820FFF7A8FA04000920D2E7C0466B
:106AC0000066FF1FFC65FF1F70B50A4E0400337897
:106AD0000D00FF2B0DD0042004F002FE011E08D093
:106AE000D0230370CE3B45708370C470307804F0BF
:106AF0003FFD70BD8044FF1F70B5040006200D00EF
:106B000004F0EEFD011E0AD0D0230370CD3B83704C
:106B1000054B44701B688580187804F029FD002C13
:106B200001D0FFF767FF70BD0066FF1FF8B5264F65
:106B300006003B680D001124002B05D10522234BD4
:106B40001B78134202D112242000F8BD204A1024E1
:106B50001268002AF8D01278002AF5D0DB0719D580
:106B60002B789A1E012A1AD80C2004F039FC132421
:106B700038600028E8D000230A22437029000670FC
:106B8000023004F095FDFFF75BFF041E0AD0FFF70B
:106B900031FFD9E700F012FB0028E1D1E4E7002B38
:106BA000E2D0D0E70B4B1B78032BCDD11D20FFF794
:106BB0002BFA094B18800028C6D0084B04211878FE
:106BC000074A04F085FCBFE70066FF1FFD65FF1F55
:106BD0001C66FF1FFC65FF1FFA65FF1F2866FF1F6D
:106BE00060EA0000F7B50193194B14001A780523E9
:106BF00006000F0012201A4221D0012920D1154B86
:106C00001D68002D1BD002201F2C18D8002C02D08C
:106C1000019B002B13D0104B1F221E706E1C0021F5
:106C2000300004F03DFB01992200300004F040FDEB
:106C3000310020002C70002F06D004F019FCFEBD9E
:106C4000064B12201D68DCE704F072FDF7E7C04632
:106C5000FD65FF1F1C66FF1F8044FF1F1866FF1F96
:106C6000F8B50F4E12243368002B17D01B780F3C59
:106C7000834213D100250B4F0221387804F0B8FC71
:106C8000094B042138781D8004F0B2FC074B280022
:106C90001D8033685C7004F03BFD04002000F8BDEB
:106CA0000066FF1F2866FF1F1466FF1FFA65FF1F9F
:106CB00070B5012823D11B4C2388002B03D01A4A1E
:106CC0001578002D07D0194B1B68002B02D01878BF
:106CD000FFF7C6FF70BD3B2B02D93C3B2380F9E791
:106CE000134E0221307804F083FCFA2223889200AC
:106CF00002215A43307804F0DBFA2580EAE70B4B97
:106D00001B68002BE6D00B4B1B785B07E2D5084BCA
:106D10000221187804F06CFC0022024B1A80FFF765
:106D200069FED7E71466FF1FF865FF1F0066FF1FA7
:106D30002866FF1FFD65FF1FF8B51E4D2868002857
:106D400003D004F0EDF900232B601B4E30680028BF
:106D500003D004F0E5F900233360184F05243B7895
:106D600018002040234221D0154800F02BFA3B7830
:106D7000234213D0202004F033FB2860002813D0D6
:106D80002022002104F08CFA202004F029FB041EAC
:106D9000306005D02022002104F082FA002004E0B7
:106DA000286804F0BDF92C601320F8BD00F00AFA41
:106DB000F4E7C0461C66FF1F1866FF1FFD65FF1F36
:106DC0007444FF1F10B50A4C23681A1E0ED0002809
:106DD00008D10130587004F09BFC002805D02368CE
:106DE000002B02D00021FFF787FE0122100010BD0A
:106DF0000066FF1FF7B5274E050033680191181E86
:106E000021D05C78244F012C30D1FFF7FFFD002802
:106E100025D02000FFF7F8F80400412814D91F4BB3
:106E2000022118781E4A04F053FB1E4B3C3C1C8088
:106E3000022233685A703B78002B14D12800019944
:106E4000FFF75AFE0120FEBDFA2292004243002ABB
:106E5000EED0124B0221187804F02AFAE8E7FFF787
:106E6000D3F80200F3E700233B70EBE73B78002BFD
:106E7000E8D1032004F034FC011E08D0D0230370B5
:106E8000CC3B457083703368187804F071FBFFF7D2
:106E9000B1FDD7E70066FF1FF865FF1F2866FF1FDB
:106EA00060EA00001466FF1F10B5174983880200CE
:106EB0008B4220D011D815498B4217D0144900209D
:106EC0005B1899B2012907D8926811785A42534148
:106ED000D8B2FFF7F9FD012010BD0E4A00209B1823
:106EE00007229BB29A424041C0B2F5E78368187806
:106EF000FFF768FFF0E7836899785A7809021878F5
:106F00001143FFF777FFE7E70A20000006200000A3
:106F1000F8DFFFFFAFDFFFFF014B18707047C0467F
:106F20008144FF1F10B5064C207001F041FA207813
:106F300004F0C6FB0521207800F062FD10BDC046BC
:106F40002866FF1F0BB273B50D00002B00DBC4E0F9
:106F5000884B187804F064FA041E0ED00378912B45
:106F60000FD0A22B00D1A1E0834B1878FF2852D07C
:106F7000210004F0FDFA00284DD180200002684075
:106F800076BD43780F2B76D013D8052B70D00E2BFF
:106F9000EAD18088794B98422BD8794B98421BD8FC
:106FA000784B9842E0D1A3681878591CFFF774F821
:106FB00038E03E2BD8D18378032B74D06CD8012BCA
:106FC0006ED0022BD0D1704B1B68002B23D05B6896
:106FD000002B20D098471EE06C4BC0180C28C3D85B
:106FE00004F01EFB1DC2C2150BC20B0B0B3223C2D9
:106FF0003C00674BC0180728B6D8664B1B68002BAF
:1070000009D01B68002B06D0200098470AE0A3682F
:107010001878FFF7C7F8200004F0BAF8ADE7A068C9
:10702000FFF762F800289FD0F5E7A3681B78002BD4
:10703000F1D0554B1B68002BEDD01B68002BEAD01C
:10704000210055489847EDE74F4B1B68002BE2D0D5
:107050001B68002BDFD021005048F3E7504B1B6822
:10706000002BD8D05B68002BD5D021004348E9E73E
:10707000FFF7EAF9CFE780884A4B984203D04A4BA2
:10708000984200D070E7464B1B68002BC3D05B686A
:10709000002BC0D02100D5E7153B012BBBD963E7FE
:1070A000FFF798FAB7E7FFF77DFAB4E73F4B1B7895
:1070B000042B07D100236A4613800179408800F031
:1070C000C5FCA8E7364B1B68002BA4D05B68002BDF
:1070D000A1D00100364898479DE7012421420AD0FB
:1070E000294B1B68002B04D05B68002B01D00020CB
:1070F0009847012043E78B070AD5264B1B68002BD6
:1071000004D05B68002B01D020009847022036E7AE
:107110000421280008400D4200D131E7254E338874
:10712000002B21D0013B9BB23380002B1AD1FFF7FB
:10713000DBF800280AD0204B1C70164B1B68002B74
:1071400004D05B68002B01D020009847FFF7C6F8F9
:10715000694601F001FD6846FEF7FEFF1D20FEF7BF
:1071600053FF308004200AE7024B187804F040FAFD
:10717000F8E7C0462866FF1F8144FF1F0E2000006D
:1071800001200000091000002066FF1FFEDFFFFF46
:10719000AFDFFFFF2466FF1F0C2000000B20000064
:1071A0000866FF1F0D20000013200000FD65FF1F73
:1071B000FFFF0000FA65FF1FF865FF1F10B501F023
:1071C0009BF910BD014B18607047C0462466FF1F35
:1071D0000B880020162B01D817230420014A1380A6
:1071E0007047C046D265FF1F00207047074A030062
:1071F0001188814207D091880020994202D1013044
:107200008000101870470020FAE7C0463066FF1F64
:10721000F0B58F7806000D00C7B01E2F15D1FFF70F
:10722000E5FF051E03D10024200047B0F0BD002279
:107230003B003100C078009200F0B2FB0400A81CB3
:1072400000F0D3FBFF23EB70EEE7264B06240393FD
:107250001B78FF2BE8D0182FE6D87B08224A013B89
:10726000DB0002929A589446002ADDD0029AD31885
:107270005B68002BD8D00878002802D14B78012B0E
:1072800002D10624122FCFD107AFAB8869780097BF
:107290006446AA68A047041EC6D1AB78029A5B0870
:1072A000013BDB00D318390030005B689847041EAF
:1072B0000BD1AB78042BB6D0039A310010782200A2
:1072C000009700F06DFB0400AEE76A78002AABD1AE
:1072D000AA7805A93B88087130000A704B80FEF738
:1072E00047FBA0E78444FF1F88B900111D4B37B549
:1072F000050098420BD000290AD1FFF777FF00283C
:1073000005D11948FFF772FF002800D0058037BD6E
:1073100001291AD1FFF76AFF041EF8D001235B424E
:107320000380A378FF2BF2D0FE2B07D00023E07858
:107330001422009329001E3300F032FBA01C00F041
:1073400054FB01235B426380E1E70229DFD101396D
:1073500001F0BEF80028DAD12800FFF747FF041E2D
:10736000DFD1D4E7FEFF0000FFFF0000022210B5CE
:10737000074B52421A80074801325A809A80DA80BD
:1073800000F07EFA044801F025F8002010BDC04648
:107390003066FF1F11720011ED7200110388F7B5FE
:1073A0000400002B02D102252800FEBD4268022104
:1073B000137825485268FEF7A5FD00282ED0234FEC
:1073C00001253A88002AEFD0802321885B0201251D
:1073D0009B1A9942E8DC0C2004F002F8061E31D01A
:1073E0003B8822889C4600231800019561469DB287
:1073F000491989B2AA421BD8002801D062443A80B8
:1074000000233000082208C0210004F051F9104A7E
:107410001368002B13D100251660C5E762680221AE
:1074200013780C485268FEF76DFD0028C7D1BAE703
:1074300060681D014019418101330198D6E71A00A7
:107440001B68E6E71325AFE7F6B900118244FF1F7A
:107450002C66FF1FF4B90011014B18707047C0462D
:107460008444FF1F14230A0010B51A40194204D0A7
:107470000122102101F048F810BD4B06F9D401207B
:1074800088434000F8E710B514008B0604D50122AC
:10749000102101F039F810BD08230A001A401942E2
:1074A00002D14BB2002B0FDA102101F02DF8002889
:1074B00008D02300F9331B78002BECD0F834237864
:1074C000012BE8D10020E6E703208907FAD4E2E7A0
:1074D000F0B51F00184B85B01C6801900291039213
:1074E000002C27D1200005B0F0BDA5683301ED18B0
:1074F0006B89019A934211D3029A93420ED8002FBE
:1075000004D10A9B002B10D12C00EBE73B0029781B
:10751000039A6868FEF7F6FC0028F2D10136B6B28D
:10752000A388B342E1D82468DAE7A3680A9A5B89A2
:107530001380E9E70026F3E72C66FF1F37B50C0040
:107540000A8849880123914217D3002A15D0651D66
:1075500023792A0002210A48FEF7D4FC10230028D0
:107560000BD023796188208800242A000094FFF73B
:10757000AFFF0A23A04200D0230018003EBDC04642
:10758000F6B9001113B50A0008884988012388421A
:107590000BD8002809D00024137905320094FFF796
:1075A00097FF0A23A04200D02300180016BD13B590
:1075B0000A0008884988012388420BD8002809D08E
:1075C0000024137905320094FFF782FF0A23A042BA
:1075D00000D02300180016BDF0B58BB003904A8888
:1075E00008880E000123824255D3002853D000237F
:1075F000012704AC23700022718813000092FFF76A
:1076000067FF051E3ED02078002835D12B78022B4D
:1076100018D167706A8983000130E31880005A80AE
:1076200069680222201804F043F823780133DBB2A2
:107630002370042B19D93B006889013080B2002BDC
:10764000D9D01FE002236370122358436A8923189C
:1076500004305A8069681022201804F029F8237831
:107660000133DBB22370002BE5D10C4A6B899B18E8
:107670005A425341DBB2DFE76378012BE4D12B7828
:10768000022BC7D022780A23002A04D021000398B5
:10769000FEF798F9002318000BB0F0BD0100FFFFC2
:1076A0000F4BF0B504001868002816D083685D8978
:1076B000A54207D88288AE18B44203DA12019A189C
:1076C000934201D10068EFE71E005F891036A742A0
:1076D00004D1002900D00D801800F0BD3300EFE781
:1076E0002C66FF1F70B505000C0008880021FFF70D
:1076F000D7FF03000120002B04D022002800197AB4
:10770000FFF7C1FE70BDF7B50C0000250190230006
:10771000F6331B78AB4201D800200AE06B00E65A32
:1077200000213000E718FFF7BBFF002802D12680B8
:107730000130FEBD017A0198FFF794FE002802D0C7
:107740003B882380F5E70135EDB2E0E710B5040092
:1077500008880021FFF7A4FF03000120002B03D0BD
:107760002000197AFFF77EFE10BD0000054B1B6854
:10777000002B01D1180004E09A6852898242F6D1A8
:10778000988870472C66FF1FF0B50E27002687B03B
:10779000039302ABFF183E8005001F4B4089140085
:1077A000984207D02B78013000976A6880B2FFF7C3
:1077B0008FFE060002212B7818486A68FEF7A2FBAC
:1077C00000280FD06C892000FFF7D0FF002802D0DE
:1077D000013C0419A4B2039B002B00D01C80300094
:1077E00007B0F0BD02212B780D486A68FEF78AFBCE
:1077F0000028E7D102212B780A486A68FEF782FB4D
:10780000002807D0002EDED03B88A342DBD174894C
:10781000013CDFE76C89DEE7FFFF0000F6B90011ED
:10782000F4B90011F2B9001110B50C00FFF7DEFC3D
:1078300003000220002B0AD0002C00D023609B788C
:107840001720FE2B03D00138FF2B00D1002010BDE4
:1078500073B50D0001A904001600FFF7E5FF172816
:1078600005D0002E04D129002000FEF727F976BDAF
:1078700001221021200000F047FE0028F3D0F6E797
:10788000014B18607047C0463C66FF1F37B56B461A
:107890009D1D010004000222280003F061FF2B88D7
:1078A000B02B0ED12379122B09D12300FF339B7803
:1078B000012B06D10121608800F0E0F801E01B2BCC
:1078C000F8D037BD10B5054B0421187000F098F8BA
:1078D000FFF74CFDFEF770FB10BDC0464066FF1F72
:1078E0000020F0B50BB20F0087B0834234DA274B8B
:1078F000187803F095FD051E2BD00378A02B25D119
:1079000003AE3100FEF7E4F8041E0BD1B378DB07B9
:1079100024D51F4B06341B68002B03D03100688828
:1079200098470400A868002801D003F0E1FE002C6D
:1079300008D1184A039B1340174A934206D0B378E4
:107940001B2B03D00121688800F098F8280003F071
:107950001FFC80200002784007B0F0BD0F4B1B6871
:10796000002B10D0310068889847041EDAD0737855
:10797000002BD7D1B27801A90A704B800C716888AE
:10798000FDF7F6FFCEE70624F1E7C0464066FF1F8D
:107990003866FF1F00FFFF00000112003C66FF1F5A
:1079A000F7B50190822040000D0017001E0003F083
:1079B00097FE04001320002C12D0B0232000237067
:1079C000089BFC226770658026710830002B08D068
:1079D000190003F06DFE2100019803F0C9FD00209D
:1079E000FEBD089903F05CFCF5E710B5041E06D057
:1079F0000078FD2803D803F07BFCFF23237010BD23
:107A00000A1F93B210B504000220032B05D8824050
:107A10000020024BD1529B189C7010BD6066FF1F66
:107A20000B8870B5043B04000D000220032B0BD81B
:107A30000121200000F04CFD03001420002B03D096
:107A40002900200000F0DEFB70BD000007B5130028
:107A5000034A00920A00012100F02CFC0EBDC04632
:107A6000897C001107B5019203220092024B0A00A3
:107A7000122100F049FC0EBD077D001107B56B46D1
:107A800001AA11800449D88008780633012802D160
:107A9000190003F035FE07BD4166FF1F0C4B10B502
:107AA00018700023FF210B4A138013819381938068
:107AB000094A53801370517293819372D174D382A7
:107AC0001375517703F024FB00F0FCF910BDC0469C
:107AD0007066FF1F6066FF1F4266FF1FF0B58DB026
:107AE0006B46002003910C229B5E834200DBB0E0DA
:107AF0005D4B187803F094FC051E00D1A4E00378D8
:107B0000902B00D09DE006AF01004688380000F0C1
:107B100013FA79680400002900D19CE03B88052B0A
:107B20006ED13B89032B1CD905AC200000F0A2F8D4
:107B30006288172A61D83989131D994231D1796831
:107B4000237804310291D90738D5607800F08EF996
:107B5000071E06D0002303712378012B08D0132BB6
:107B600023D0A868002800D178E003F0C1FD75E0BB
:107B70006288029909A800F0A6F80290380000F087
:107B80008BF909AA2378387A0192002231000092F9
:107B9000029A00F012F9380000F064F9029B002B01
:107BA000DFD0300000F080F9DBE70378032BD8D179
:107BB0006288029909A800F0D6F8DEE7122B13D1EB
:107BC000029909A800F0B5F8021EEAD127498B886E
:107BD000002BC6D0887909A923780191617800919A
:107BE000310000F0EAF8BCE7002302AA93833000DA
:107BF000617809AAFFF72AFFB3E71D4B0993F6E75F
:107C0000042B02D09A1F012AABD8184A043B9B00D0
:107C1000995A0029A5D0D218907831003A0000F086
:107C2000AEF800289DD13B88042B03D00121300001
:107C3000FFF724FF012C04D1A868002801D003F02D
:107C400057FD280003F0A4FA8020039B0002434064
:107C500018000DB0F0BD012800D182E701213000ED
:107C6000FFF70CFFEDE7C0467066FF1F6066FF1F61
:107C7000010017000B7803704B784370CB788A783B
:107C80001B021343438070470A88030002700A886E
:107C9000120A42700A88012A06D14A8882704A88EC
:107CA000120AC2700420704702208242FBD14A8827
:107CB00004309A704A88120ADA708A881A718A889F
:107CC000120A5A71EFE710B50400012082420CD964
:107CD0004B780A781B0213432380834206D1CB786A
:107CE0008A781B0213436380002010BD022BFBD156
:107CF000CB788A781B02134363804B790A791B0285
:107D00001343A380F0E70B8803700B881B0A4370B2
:107D10004B8883704B881B0AC3708B8803718B88D8
:107D20001B0A4371CB888371CB881B0AC37108205F
:107D3000704703000120082A14D14A7808781202FB
:107D400002431A80CA788878120202435A804A791C
:107D50000879120202439A80CA7988791202024392
:107D60000020DA80704710B504000120022A05D1F6
:107D700000204B780A781B021343238010BDF8B50E
:107D8000060010200F00150003F0AAFC04000120DB
:107D9000002C0ED0A0230C22290023806780201DF8
:107DA000002D07D003F084FC2100300003F0E0FB3D
:107DB0000020F8BD03F074FAF6E7F7B51E00009056
:107DC00008AB142017001D78019103F089FC041EF4
:107DD00012D0A2230370019B47704380099B057159
:107DE00046710C220830002B07D0190003F060FC0C
:107DF0002100009803F0BCFBF7BD099903F050FA8D
:107E0000F6E737B5041E0FD04388002B0CD00025B1
:107E1000C1881323007A172201950095FFF7CDFF43
:107E2000FF2365806372257037BD000010B50C49D3
:107E300004004A88002A09D08B89002B05D0002035
:107E4000CB8A0222834201D010BD012213000A20F6
:107E5000434300204032C854C81842800472F3E7FC
:107E60004266FF1F0023438003707047094B0021C7
:107E70001A0010B55C88002C06D01C79844203D10E
:107E80000A234B43D01810BD01310A330329F1D125
:107E90000020F8E74266FF1F10B50400407A03F0A7
:107EA00027FAFF23637210BD7047043010B580B20B
:107EB00003F0DEF9002803D00421494203F0B8FBA7
:107EC00010BD000070B50025104CA0682580A5816C
:107ED000A580A84202D003F00BFCA56000250C4C45
:107EE0000C4B606D1D80230058331D70A84202D0DA
:107EF00003F0FEFB656500256068002801D003F0F3
:107F0000F7FB013508340A2DF6D170BD0867FF1F55
:107F1000AC66FF1FFC66FF1F70B5041E09D1054D3E
:107F20002880A881A880A868002802D003F0E0FB80
:107F3000AC6070BD0867FF1FF0B54B8885B001933A
:107F4000002343600A7905000F00022A00D07BE07D
:107F5000CA88032A17D98B685E7819783602DC78CC
:107F6000D8790E4399781B7A24021B020C430343F1
:107F700053495BBA0B80331D93421ED1042C04D0AD
:107F8000631F022B0ED9012015E0019A4D4B1201FF
:107F9000D35A002B06D00198FFF7BEFF4A4A136957
:107FA000013313610421B8682E812C80494203F00B
:107FB0003FFB6860002005B0F0BD434D042C06D0A7
:107FC000631F022B0FD9EB680133EB60DBE7019AEB
:107FD0003C4B1201D35A002B05D00198FFF79CFFB0
:107FE0002B6901332B61374B30000293019B029ABE
:107FF0001B010193002301998C468B5213006344AB
:108000009C8003939E81FFF750FF039B041E9860A2
:1080100016D00421B868494203F00AFBFA8801002F
:10802000043A200003F044FB0199029AFB888A5A23
:10803000043B9B18029A8B522B6801332B60A2E7FA
:10804000AB690133AB619EE71E4B0293019B1E019E
:10805000029BF35A002B2DD002998C19A06800289E
:1080600028D0012A26D1FA889B189BB27352A18985
:10807000994217D39B1AC018B96803F019FB029BE9
:10808000A289F35A934200D07DE700222B81A38876
:108090002B80A3686B60029BF2520B4A536801333A
:1080A000536070E7084A9368013393600198FFF7C3
:1080B00033FF68E7044A536901335361F6E7C0466A
:1080C0007266FF1F0867FF1F7866FF1F70B5051EE9
:1080D00015D10B4C0B4B1880230058331870606D72
:1080E000002802D003F004FB656525005035606868
:1080F000002801D003F0FCFA0834AC42F7D170BD7F
:10810000AC66FF1FFC66FF1FF0B51700A12285B00B
:10811000920001934243394B06001B680C009B18E8
:10812000D933FF331D78FDF741FF0430854204DD6C
:108130003000FDF73BFF0430C5B2BD4207D33A0023
:1081400000213000019B03F02BF805B0F0BD2900A1
:10815000380003F075F82300C6B250331E70039345
:10816000019B29006365380003F05AF8CBB20293F3
:10817000002B02D0039B01361E70002623005033D3
:1081800003931B78B34204D8606D002831D10020DE
:10819000DBE7029A2800002A04D0013B1000B3421A
:1081A00000D02800F700E719387003F0D1F97860A3
:1081B00000280ED03A78019903F07AFA019A3B78B8
:1081C0000136D3180E4A0193D369F6B20133D36155
:1081D000D4E7039B18706065A74205D1084A1320B5
:1081E000D36A0133D362B0E7606803F081FA0834E0
:1081F000F2E703F07DFA00236365C8E73409FF1F47
:108200007866FF1FF7B50D0007000421686803F0CA
:108210000FFA2B89040003702B891B0A43702B88EB
:1082200083702B881B0AC3702E8902250436F6B290
:10823000FB2E15D81B4B9F4214D10C2003F050FA93
:108240001135011E0CD0902303708E3B0371043B4B
:108250004380154B8460C680187803F089F90025A7
:108260002800FEBD5C237B43104AD318009358338B
:1082700001931B78002B0FD10300320038000099C6
:10828000FFF742FF019B05001B78002BE8D1380067
:10829000009903F045FAE3E7054A0725536A0133DD
:1082A0005362DDE7FEFF00007066FF1FAC66FF1F34
:1082B0007866FF1FF0B587B0009017200F001600FA
:1082C0000193FFF7F2FD1325041E19D00C98031E2D
:1082D00002D00199201D9847030AE370052302AAE2
:1082E000A0700430908127700098667003A9938075
:1082F0000494FFF787FF051E02D0200003F0F8F971
:10830000280007B0F0BD0000F0B587B01F000CAB2F
:108310001B780391059301210DAB06001C78049294
:1083200000F0D6F81425002821D02000FFF77EFDAC
:108330000135041E1BD01149059B0A7803700132D8
:10834000D2B2131EC68001D101231A000B70227114
:108350003000049B03990097FFF7ACFF051E09D17D
:10836000230021000648074A093302F0E1FE2800F5
:1083700007B0F0BD002363802370F8E77466FF1F29
:10838000037E001130750000F8B505000E00064CA4
:10839000064F2368002B02D0310028009847043490
:1083A000BC42F6D1F8BDC0461867FF1F2C67FF1FFF
:1083B0000123064A5B425380002313715362044A2F
:1083C000136053609360D360136170472C67FF1F85
:1083D0001867FF1F0200002310B506499C000859CA
:1083E000002801D1625010BD0133052BF6D11320B6
:1083F000F9E7C0461867FF1F034A5388181A43421B
:1084000058414042104070472C67FF1FF0B585B0BF
:1084100002930AAB1F780CAB1B88009008000E007B
:1084200001920393FFF7E8FF05001120002D1BD1F7
:108430000E48FFF7E1FF04001520002C14D006229F
:108440000B99A771E01D03F033F9019B30002371F4
:10845000029B29006371009B66802370039B656209
:10846000E381FFF791FF280005B0F0BDFFFF00009A
:1084700010B5FFF7C1FF04000220002C12D0608865
:108480000121FFF781FF606A002801D002F048FE59
:1084900028220021200002F003FF012300205B427C
:1084A0006380207110BD000030B5074A074C558825
:1084B000010013780020A54204D05B1A59424B41B9
:1084C0005842104030BDC0462C67FF1FFFFF000020
:1084D000084A10B501230C00904208D0FFF78CFF2A
:1084E000031E04D0037923405A1E9341DBB21800C7
:1084F00010BDC046FEFF0000024B1879431E984194
:10850000C0B270472C67FF1F70B504000D00160045
:10851000FFF772FF002804D10D4B9C4200D01430AD
:1085200070BD416A03790520002907D012221A4044
:10853000102A02D10520002EF2D10F20DB06EFD544
:10854000897E0C20A9428941494249420840E7E717
:10855000FEFF0000030010B5002800D110BD034845
:10856000034A41889142F9D09847F7E72C67FF1FEB
:10857000FFFF0000002330B5C45CCD5C6C40D454D8
:108580000133102BF8D130BD0F23002210B5C45C8D
:1085900064002243CA54C25CD209013BF7D210BD29
:1085A0000200010010B52032103102F001FF10BDB1
:1085B000F0B58BB00390102005931700049102F0E2
:1085C0000FFF0090102002F00BFF009B132401907E
:1085D000002B05D000280CD11324009802F0A0FD38
:1085E000019B002B02D0180002F09AFD20000BB076
:1085F000F0BD102002F0F4FE0600102002F0F0FEA4
:1086000013240500002E00D1AEE0002819D010225E
:10861000002102F045FE32002900039802F0C8FE56
:10862000041E0ED133787F2B51D830000099FFF70C
:10863000ABFF009B1B787F2B53D801990098FFF765
:10864000A3FF300002F06CFD002D02D0280002F0E4
:1086500067FD002CC1D1102002F0C2FE06001020E0
:1086600002F0BEFE0290002E7CD0002878D03A00A6
:108670000F3223000125121105D00F333B4015B2F4
:108680005A4253411BB26A1E1201002B33D0049B85
:10869000D2B298180099029AFFF76CFF013D1022A0
:1086A0000021300002F0FCFDADB2049F2D017D19C8
:1086B000AF4242D0002C33D0300002F031FD029B9B
:1086C000002B00D189E7180002F02AFD85E7290078
:1086D0003000FFF759FF28002549009AFFF74AFFAD
:1086E000A7E729000098FFF74FFF28002049019ACB
:1086F000FFF740FFA5E70F210F4004998A18D9B270
:108700008F4208D9D15C06A819540133102BF6D139
:10871000029A0199C0E7791A48424141C901F2E73A
:108720003900300006AAFFF725FF3200039806A99A
:1087300002F03EFE10370400BAE7002CBCD1300036
:10874000029906AAFFF716FF320006A9039802F065
:108750002FFE082204003100059802F0A9FFABE7C4
:108760001324A9E71324AAE7002800D06EE733E713
:10877000FCB90011F0B58BB00F0016000225009077
:1087800000283FD0002A3DD00B1DDBB21800029319
:1087900002F026FE1135041E34D0FDF747FD05001A
:1087A0003A000099201D02F09BFDEBB20393E370A9
:1087B0002B0CDBB22F0A00936370FFB22B0E2370D9
:1087C000A7700193FDF72CFD1022010006A802F00E
:1087D00087FD2100029A04AB06A8FFF7E9FE051EFB
:1087E0000DD1039B08223370009B04A9B370019B39
:1087F0007770F370301D02F073FDFDF71DFD200052
:1088000002F08EFC28000BB0F0BDF0B58FB00D006B
:10881000149E039004920593002A03D102242000A1
:108820000FB0F0BD002EF9D00398FFF7E5FD14243A
:10883000071EF4D07278337812021A43B3781B04FF
:108840001343F27812061A43036A0192934201D34A
:108850000133E3D1002D03D03B7901249B07DED502
:108860000822002106A802F01BFD059B13240433F7
:10887000DBB21800029302F0B3FD051ECFD0059ABB
:108880000499043002F02CFD04223100280002F08B
:1088900027FD3900102210310AA802F021FD29001D
:1088A000029A06AB0AA8FFF783FE041E0FD1082226
:1088B00006A908A802F014FD0822311D08A802F03C
:1088C0001FFD012807D101990398FDF7C9FC280075
:1088D00002F026FCA3E70124F9E7000070B51C4C68
:1088E00005002368181E10D0002D14D11A78002A14
:1088F0000CD1981C083202F0DBFE02F069FD013554
:10890000002808D123681D70012070BD0A331800AB
:10891000082202F0CDFE2368002BF5D0122002F0D1
:10892000DFFE061E0DD0C1232168037045700231A1
:108930001022023002F0BCFE23683100587802F0A9
:1089400017FE206802F0ECFB00232360DCE7C04642
:108950005467FF1FF8B504002020FDF755FB0D4EAE
:10896000A700BB590500002B0DD000280BD0D878EC
:10897000FF2809D108492A000C55F3590748033349
:10898000611802F0D5FBF8BD290002F019FC00289F
:10899000F0D1F8E77067FF1F5867FF1FAD9B00110C
:1089A00070B5064D84006359002B05D0D87802F0CD
:1089B0009FFCFF226359DA7070BDC0467067FF1FCD
:1089C00070B506008CB00C001500002130226846FE
:1089D00002F066FC31001022684602F081FC1D2086
:1089E00021000322684402F07BFC6846FFF7D8FDB3
:1089F0002D21040003222800694402F071FC2000AC
:108A00000CB070BDF0B50700160097B001931CAB19
:108A10001D7830221EAB00910AA800211C7802F0BC
:108A20003FFC102239000AA802F05AFC1022002153
:108A300002A802F035FC0722310002A802F050FC27
:108A4000072202AB9818631E9C41019902F048FC72
:108A500002AB9C732B005A1E934102AAD3730021D0
:108A6000102206A802F01CFC06221D9907A802F09D
:108A700037FC1A2002ABC01806221F9902F030FC06
:108A8000102200990EA802F02BFC102202AB0EA9B6
:108A900008781C78013A6040D2B208700133013185
:108AA000002AF5D10AA8FFF77BFD102212A90400C5
:108AB0000EA802F0FDFD102206AB0EA908781D7865
:108AC000013A6840D2B2087001330131002AF5D171
:108AD0000AA8FFF765FD044310222098E4B212A90A
