:020000041100E9
:10300000002373B52B4D2C4C28006361022601F080
:1030100057FA4021FE2221742800284B009601F027
:10302000A1FA002836D1217CFF222800244B0096EB
:1030300001F098FA00282DD1224BA2899A4226D17C
:10304000E389214A93420DD1204B6361204B2268D2
:10305000002A03D1002B01D043CB43C4280001F048
:103060006DFA73BD1B4A934201D00023EFE71A4B60
:103070001A4A1B68934206D9C02304222800217CE7
:103080009B0001F0E5FA114B6361154BDFE700236C
:103090002374EAE7CC233821AC2228009B01217459
:1030A00001F0D6FA0028F2D10E4B63610E4BE3819A
:1030B0000E4BCCE7E444FF1F8864FF1F9464FF1F9E
:1030C0009664FF1F5959000083050000ED4200116E
:1030D00054BB001182150000AC64FF1F8713000071
:1030E00060BB0011A5430011AAAAFFFF48BB001155
:1030F000F7B5164B0192C318021D002000938823D8
:103100005B05D3181B685C1C1AD09CB2402C18D8E5
:103110008D781E0CAC466746CD782D023D43AE42FD
:1031200006D1019800280ED110000C70240A4C70B2
:1031300003249BB20733A343D218009B9A42DED3E9
:10314000FEBD4432F9E71000FAE7C046FC0F00006C
:10315000802213B503000324019189B25201073183
:103160009B18A14304305A1A88235B05C3181B68B7
:10317000591C03D190429241104016BD99B240298A
:1031800007D80B000733A343C0189042ECD30020AC
:10319000F3E74430F9E7134B134A1B68126810B584
:1031A000FA24934201D81A00F824104BE4021B6859
:1031B0009A4210D813000E4A12689A420ED3013375
:1031C00007D1F823DB029C4203D10A49054808F0E5
:1031D000FFF9200010BDFC24E402ECE7FE24E40229
:1031E000F7E7C04600C0071100D0071100E0071143
:1031F00000F00711FFFFFF7FF0B59BB015000490B2
:103200000391402A00D9A0E006AB59801A80FFF74D
:10321000C2FF0400042816D9002206A9FFF768FFA0
:10322000052810D906AB1B88AB420CD1002D07D066
:10323000514B2A000499C01808F0C2FB002802D1A3
:1032400001201BB0F0BD06AB1D8020000699FFF7E2
:103250007FFF041E7BD1069B0793FFF79CFF802313
:103260005B01C618802307001B039E4201D3F8268A
:10327000F60288235B05F31801931B68013302D023
:10328000019808F06DFA3D49019808F0A1F93B1D3D
:103290000293331D05938822029B52059B181B68DD
:1032A00008935A1C3CD044219AB20091402A04D879
:1032B0000320D11D814389B2009103991B0C8B42DD
:1032C00024D0402A22D80122300008A9FFF710FF9D
:1032D000021E1BD1380008A9FFF70AFF04000428CA
:1032E00031D9009A059B9B1880225201B218934253
:1032F00040D288235B05C118009A09A808F090FA0B
:103300001D4B009A09A9F01808F0A2FA009A029B36
:103310009446634402931A4B029AFB189A42BAD31A
:1033200088235B05FC1821680198013908F050F9E1
:10333000200008F015FA039A07AB5A80300007996D
:10334000FFF706FF0400002C03D1002079E70428D2
:10335000FBD988235B05E018069908F039F90323A7
:10336000EA1C9A4300D16BE7034B0499E01808F07C
:103370006FFA65E70424ECE704000011FFFFFF7F0C
:10338000F80F0000F7B505001400402A21D80027E7
:1033900001AE71803780FFF7FEFE042816D93A008F
:1033A0003100FFF7A5FE042810D93688BC420BD0A7
:1033B000BD4209D0221CB44200D9321C064B92B245
:1033C000C118280008F02CFA30B2FEBDC04300B28C
:1033D000FBE703204042F8E70400001137B5042260
:1033E00004000D0001A81649FFF7CCFF02000428D5
:1033F0000BD1019BA34208D3AB4204D0104901A8D2
:103400000195FFF7F9FE01203EBD0E4C2368200018
:10341000019308F0A5F9019920000139019108F004
:10342000D7F880235B01E418074B9C42EED10422BD
:10343000034901A80195FFF7DFFE0020E4E7C0463D
:103440005555000000C007110000081130B589B0C3
:1034500008F00EFA10226946254807F0F9FF254BBF
:10346000009A9A420ED1019B029A0F2B33D8002169
:1034700001240698013B08D2002900D00292029B49
:10348000013331D10023029325E0551CF2D1020013
:103490002100EFE710341022200004A907F0D8FF24
:1034A000029B013301D1069B0293882304995B059B
:1034B000C918059B06981A03120B049105928142C4
:1034C00003D02B4201D108F0ABF9019B013B0193E2
:1034D000019B002BDED1029B002B03D004930498A8
:1034E0004168084709B030BDE025014C2D03EFE7E6
:1034F0000000011150485936F7B50F4F0F4BFA6DC8
:1035000004001A4084235B001343FB65030010335F
:10351000019300252E00112007F08AFF0322BB6EC5
:103520001340AB4002351E43202DF4D1019B40C413
:10353000A342EED1F7BDC04600F0004000FEFEFF02
:10354000802270B5AD4CAE4BD200002120001C6033
:1035500007F036FF2300AB4A88331A60AA4B1A786B
:103560006E23002A00D01133E3620A232365A74BA0
:103570001878A74BA0630138E361C3B2032B01D8CD
:1035800010232362A34B37226361C823DB00A361AE
:1035900023008C331A60082336210F3AE518E163C3
:1035A00023646264E9670439251DE96725003B2629
:1035B000BC352E602500C0352B602500C4352A603F
:1035C00025000636CC352E602500083EC8352E6015
:1035D0002500D03529602100D4310B602100D8317D
:1035E0000A6021000225E0310D6025004221DC3512
:1035F000296025001B3EE4352E602500E8352B6050
:103600002500EC352A6022000525F43215602200E1
:10361000F032116022001831903211602200943291
:10362000136023003C2298331A60AF23DB00236031
:10363000794B2363032805D808F08AF9330235371C
:103640001523636096232100FA225B00A360E360E8
:10365000C8332361714BFC319200A3640A6062623B
:103660006F4A704DA2627322E2656D3A6265A2658F
:103670000232E5644A600221616696218900A166F2
:10368000626709210022E166A2676749674A684EBE
:103690002167E2673560032811D808F059F99608C8
:1036A0009EA61023CDE70E23CBE70C23C9E720000D
:1036B0001A259C30056020000735A03005602000E9
:1036C000A83003602300FA20F8338000186023003C
:1036D0006420A433186023005F38AC3318602300E3
:1036E0000338B03318602300C630B43318602300A9
:1036F0000020B833186023003825FC339D604D4D01
:103700005A665D644C4D9A64DD619625AD001D627C
:103710004A4D9A675D62F53DFF3D9D621E25484A10
:10372000DD6618675867D9651966DA67BE23C02158
:10373000444A5B00E250444B4900635004316250FC
:10374000C4225200A350FA23E4205B000432A350A9
:103750000432A3503D493E4A3E4BD1603E49800071
:1037600019503E49E938FF3819503D490430195085
:103770003C491038D1613C4911633C4951633C4993
:1037800011603C49195019003B48F83108603B4929
:10379000D16582213A4A89005A501A0039490832C3
:1037A000D1671A003849B43211608821374A89003C
:1037B0005A501A00364988321160364ADA6408F0E5
:1037C00017F8012008F0A4F870BD200014259C30E3
:1037D000056020000435A03070E7200010259C30E3
:1037E000056020000335A03068E720000E259C30DE
:1037F000056020000235A03060E7C0460004FF1FCE
:103800005867FF1F5072FF1F1C47FF1F4A0AFF1F08
:103810003A07000080C3C9019A02000050C30000AB
:103820006A180000280A0000204E000088130000DB
:10383000F009FF1F001F001168100000C4090000FC
:10384000DC05000040420F0010270000FD1BFF1F99
:10385000FC00FF1F0000FF1F012FFF1F2932FF1F69
:10386000C130FF1FD51FFF1FF11FFF1F9D21FF1F2D
:10387000491FFF1FC128FF1F692CFF1FD918FF1FF9
:10388000CD27FF1F3525FF1F4125FF1F491EFF1FA5
:10389000011FFF1FC11DFF1FF7B50B0CFF270122E2
:1038A000009300233C001E001D009446019089B245
:1038B00062469A401000084018413618B6B2FF2FF1
:1038C00002D1012E00D19FB2009802401A41AD18DA
:1038D000ADB2FF2C02D1012D00D19CB20133102BCF
:1038E000E6D10320012E07D1012D04D1019B240133
:1038F000E4191C700138FEBD102EFCD10238102DC9
:10390000F9D00230F7E710B5064C2378002B07D129
:103910000548FFF7F1FD0548FFF7EEFD0123237091
:1039200010BDC0461867FF1F2C67FF1F1C67FF1FD5
:10393000F0B58BB00D0001230190102936D8FFF7A8
:10394000E2FF00231A001B48C15C01335218102B00
:10395000FAD1023B002A29D0174B184C1F680023CC
:1039600006A9E25C1600FA5C56405E540133102B47
:10397000F7D102AA08F044F82A0002A9019807F03A
:10398000BFFE08F025F823681B18236008F020F814
:1039900063681B18636008F01BF8A3681B18A3601A
:1039A00008F016F8E3681B18E360002318000BB05A
:1039B000F0BDC0462C67FF1FBC45FF1F1C67FF1FE3
:1039C0000223F0B501245F4D5F4E2B705F4B91B029
:1039D0001C705F4F03933368002104207B7006F056
:1039E000CFFB042006F0C6FA0023984205D07A786F
:1039F000552A02D0332A00D098E03360002006F028
:103A000039FD07F0D5FEFFF79BFD07F039FE1F22B9
:103A1000012400214F4B10AE1A704F4B1C704F4BBE
:103A200019704F4B19689143163A0A431A60602285
:103A300019689143403A0A431A6007F0A9FF08F059
:103A40000FF8C120FF21474B80001A588A431A50B3
:103A5000C522920098588843BF390143995098581D
:103A6000414908408021C90101438020995099585B
:103A7000C0050902090A0143995080213B484901C8
:103A800007F03EFF0323220039490194009339488F
:103A900007F0BEFF2C22384905A807F0C1FE05AC8F
:103AA00061782078023406F085FAA642F8D1002128
:103AB000112006F093FB314B314A19680320114065
:103AC000A022D2020A431A608022196892040A4393
:103AD0001A6019682B4A1140802292030A431A6027
:103AE000294B2A4A934200D8012007F0D9FE07F05B
:103AF00077FF07F0A5FF287807F032FF039B1878BF
:103B0000C0B207F0C5FD07F04BFD2149042007F0C6
:103B1000F7FC06F07BFC00F0AFF800F0C5FD00F00C
:103B20004FFE00F00FFA002011B0F0BD009321000D
:103B3000174A042007F004FD8023DB059C62FFF791
:103B400085FC5BE74A0AFF1F34F000401C47FF1F5B
:103B5000B864FF1F480AFF1F490AFF1F680AFF1FBA
:103B6000BCF0004000E100E0FF00FFFF2047FF1F26
:103B7000A459FF1F2057FF1F70BA001114F0004016
:103B8000FF7FF8FFFFFF9FFF5072FF1F0080FF1FA6
:103B90003B00010870B500252849294A29484D6392
:103BA00008CA1B051B0DED188242F9D10022264BD5
:103BB0008B63264B08211A628022254B9205DA6717
:103BC000244BDA688A43DA60234A1278012A03D048
:103BD0009A6822490A409A600121EE242048E400B4
:103BE00002686C438A430260DA6811208A43DA6013
:103BF00007F0C6FE112007F04BFE112007F098FCDD
:103C0000184A200C0400642390420AD8FA220023A8
:103C1000D200904205D9144B0A21C01807F010FCBD
:103C2000C3B2124A1372124BD4801B78002B04D1FA
:103C3000104B1021187807F0A3FC70BD0000054060
:103C40008805054000060540FF01000000F0004027
:103C500004E100E03CF000404A0AFF1FFFDFFFFFE5
:103C600000380040B70B000030F8FFFFA064FF1FD2
:103C7000DA66FF1FD864FF1F002210B51100112063
:103C800007F0BEFB10BD0000F8B500230125082693
:103C9000344F354C3B62E3681120AB43E360E3688B
:103CA000B343E36007F0F4FD112007F069FE112033
:103CB00007F08EFB402322681120134323608023EA
:103CC0006268DB02134363608023A2681343A3602E
:103CD000A368264A1340A3608023A2689B01134374
:103CE0001022A360236C93432364236C2B4323642F
:103CF00080235B003B62226B1D4B1A402263626B88
:103D00001A406263A26B1A40A263E26B1340E36342
:103D1000E368184A1340184AE36013682B431360A2
:103D200007F06EFCFD21154B154A89005A5080237F
:103D3000C720626B5B0313436363E3688000334314
:103D4000E360E3680F4A1D430F4BE56019581140CB
:103D5000802212020A431A50802292051A600B4BED
:103D60005E63F8BD00F000403CF00040FFFFDFFF65
:103D7000EFFFEFFFFFFF7FFF003800400000FF1F55
:103D8000953B0011FF00FFFF00E100E0000005404F
:103D900030B503A804880B20002C0ED14968074DCC
:103DA00008784978090201430A20A94205D1012176
:103DB00020001980024B1B7A137030BD192A0000B5
:103DC000A064FF1FF7B5150008AA16884A680F4FB0
:103DD00014785278120222430A24BA4214D10122E2
:103DE000DBB2019200962A0007F060FA041E0BD1A4
:103DF000074B1B68002B07D068782A780002104315
:103E000042425041013098472000FEBD0229000087
:103E10002464FF1F30B5012503790400BFB02B4295
:103E200012D00A49408806F0ADFD28420CD06A46FF
:103E3000074B69465B8D55801380064B60881B7A63
:103E40001371002203F07EFE3FB030BD1C64FF1FE3
:103E50005843FF1FA064FF1F10B50549054806F031
:103E600047FD0421044A054806F004FD10BDC04684
:103E70001C64FF1FFFFF00009CBA00115843FF1F86
:103E800010B5024804F0E0FC10BDC046153E00111C
:103E9000062310B5837010330371443B43712A33FA
:103EA00083714433C37100230222012103720E4B3C
:103EB000027041701C8881724472197A0273C17257
:103EC0009A784273DA7882730322C2731A79027481
:103ED0005A7942740C2282749A79C274DB79037520
:103EE0001123C370152010BDA064FF1F10B514204E
:103EF00007F0DEFC124B14220021186007F060FA74
:103F0000002007F025FB012007F022FC022007F02B
:103F1000DFFB032003F03CFF042005F051FF0520E8
:103F200003F07AF9062003F047FE072001F0DCF9E0
:103F3000082006F07FFC092000F0C6FF10BDC04637
:103F40002864FF1F10B507F073FC012007F0B8FCD0
:103F500007F0B6FB002010BD094B10B504009842D5
:103F600005D0012904D12000064906F0C1FC10BD8E
:103F70000229FCD1013904F025FC0028F3D0F6E732
:103F8000FEFF00004E64FF1F70B50D7A100004AAFA
:103F90002C00168810221440154220D1002E20D16A
:103FA0000A78022A18D14A68517815780E4A09020F
:103FB0002943914205D00D4A914209D01C800A2420
:103FC00004E014220A491A8007F02AFC200070BD80
:103FD0000C2208491A80F7E71C800124F6E7082420
:103FE000F4E70B24F2E7C046F3FF0000F4FF000003
:103FF000A045FF1F78BB001110B504000749084811
:1040000006F076FC074804F05FFB0020E40704D5C7
:104010000721054A054806F02DFC10BD4E64FF1F20
:10402000FFFF0000593F0011E0BA00119C43FF1F41
:1040300000B50C4BBFB01A780B4901A800F07AFC10
:104040006B4680B25880002809D06A46074B694603
:104050001B881380064B0022188803F073FD3FB0C5
:1040600000BDC0462C64FF1F2D64FF1FF643FF1FD9
:104070000045FF1F00B50C4BBFB01A780B4901A8D3
:1040800001F0A6FC6B4680B25880002809D06A4631
:10409000074B69465B8D1380064B0022188803F09E
:1040A00051FD3FB000BDC0465664FF1F5764FF1F5F
:1040B0009C43FF1F0045FF1FF7B50E00377A1C0019
:1040C00008AB11003D001A8820231D401F423CD13F
:1040D0003378022B3BD173681F785B781B023B431C
:1040E0001E4FBB4208D01E4FBB4214D01D4DAB42E9
:1040F00021D00A252800FEBD002A2AD1142C2AD856
:104100002200F06807F08CFB174B1C70012CF1D9D2
:10411000FFF7B0FFEEE7002A1BD1202C1BD82200AE
:10412000F06807F07DFB114B04211C70104B1878D0
:1041300007F026FADEE7E3B20124009201940A00B8
:10414000310007F0B3F80500D4E70825D2E70125D0
:10415000D0E70B25CEE70D25CCE7C046F3FF0000E6
:10416000F4FF0000022900005664FF1F2C64FF1FAB
:10417000D864FF1F332310B5040003700A220749D7
:10418000013007F04DFB064B0F201B681A0AE37243
:1041900022731A0C1B0E6273A37310BDA064FF1F61
:1041A000C864FF1F30B5012503790400BFB02B425E
:1041B00013D00B49408806F0E5FB28420DD06A4633
:1041C000084B01A81B881380FFF7D4FF6B4658806B
:1041D00000226946608803F0B5FC3FB030BDC046A0
:1041E0004E64FF1FF643FF1F10B5024804F02CFB7E
:1041F00010BDC046A541001170B5160004AA148870
:1042000005AA15784A685078117800022A4A0843AE
:10421000801805284BD807F09BFB03131E29343F59
:104220000720032C0BD80422121BAA4200D92A0013
:1042300022491A803000091907F0F2FA002070BDF7
:104240000720112CFBD81222121BAA4200D92A00E7
:104250001B491A80EEE707200E2CF0D80F22121B04
:10426000AA4200D92A0017491A80E3E70720032C45
:10427000E5D80422121BAA4200D92A0012491A804A
:10428000D8E70720032CDAD80422121BAA4200D94F
:104290002A000E491A80CDE70720032CCFD804222C
:1042A000121BAA4200D92A0009491A80C2E700223B
:1042B0000A201A80C3E7C046DCD5FFFF2BBB0011E4
:1042C0007464FF1F1BBB001116BB001111BB001152
:1042D0000CBB001110B50D21024A034806F0CAFAC2
:1042E00010BDC04600BB00110C44FF1FF0B50024F8
:1042F000274E85B03000B47100F0E2F8254D264B12
:10430000EA89297C9A422FD10423300003AA00F0C5
:1043100057F90400300000F011F90123B371002CAB
:1043200034D16B4699892B68C9BA4B4329891B4AFA
:104330001B145B1853806B46D9896B6849BA89B2E4
:104340004B4369891B0C5B181548191C1BB283422F
:1043500000DD011C0B0400D500211388918001337E
:104360001380200005B0F0BD0227220003AB30000F
:10437000009700F0F7F80E230400297C012230009A
:1043800000976B4400F0EEF80443C3E71C00E8E735
:10439000E444FF1F8864FF1F83050000A064FF1F23
:1043A0000F27000073B5234E300000F089F8224D2E
:1043B00007236A463000297C00F002F9040030002F
:1043C000002C33D16B461B787F2B2FD800F0B6F82A
:1043D0006B46D878F02302041B031A406B469B8877
:1043E00016495BBA9BB21A432B68000953432A89CA
:1043F0001B0C9B184B806B465A789B7812031B0151
:104400001A436B68024353436A891B0C9B180C4880
:104410001A1C1BB2834200DD021C130400D50022CB
:104420000B888A8001330B80200076BD00F086F86F
:104430000124F9E7E444FF1F8864FF1FA064FF1F05
:104440000F27000070B5114C237C002B0FD0382BA8
:104450000ED10F4D280000F033F8CC23AC222800F9
:10446000217C9B0100F0F4F8280000F067F870BD93
:10447000084BE2899A42FAD1054D280000F020F855
:1044800000222800217C00F0C5F8EDE78864FF1FBA
:10449000E444FF1F8305000010B5084B1A7C002A76
:1044A00009D05B69002B06D09847041E01D0FEF7A7
:1044B000A7FD200010BD0124F9E7C0468864FF1F56
:1044C00070B5C17905000C00631E9C411A4BE402D3
:1044D000E41849000460C9B2007905F0B5FEE97935
:1044E000687949000131C9B205F0AEFEE8790930BA
:1044F000C0B206F06DFF0023E36661332360AA7942
:104500005B3B002A0ED022689A43023B1343236090
:104510000A23E3610733236200232363A363013388
:10452000E36370BD22689A4302231343236046234A
:1045300063610633A361EFE70050004070B50025CA
:1045400004000368DD66C0790930C0B207F0A0F945
:104550002900207905F014FE2900607905F010FE8D
:1045600070BD0000F8B51E0006AB1D78002304687E
:104570001700E366616007F07BF901238022E366A0
:104580002B0027615200013B08D207F0D1F8082028
:104590000A4A1168002D03D12800F8BD2261F2E714
:1045A000236F034203D02369013D33700136136842
:1045B0005B1A032BEED90125EEE7C0466008FF1F0A
:1045C00070B51C00002305681600EB66696007F0F3
:1045D0004FF901238022EB6623005200013B08D2F1
:1045E00007F0A6F808200A4A1168002C03D1200021
:1045F00070BD2A61F2E72B6F034203D02B69013CA7
:104600003370013613685B1A032BEED90124EEE7F1
:104610006008FF1F002370B504681500E366616041
:1046200007F026F90123E366256107F081F8802071
:10463000064A80001168636B034205D113685B1A58
:10464000032BF8D9012070BD0020FCE76008FF1F94
:1046500070B51D00002304681600E366616007F072
:1046600007F90123E36626610F33626B1A42FCD01F
:104670002B0A23611023626B1A42FCD0EDB2256134
:1046800007F056F88020074A80001168636B0342E8
:1046900005D113685B1A032BF8D9012070BD0020E7
:1046A000FCE7C0466008FF1F10B5084CE368002B0C
:1046B00008D1074B1B685B045B0C0A336360054B36
:1046C0001B68236006F0CCFFA06010BDC864FF1F0C
:1046D000C8F00040CCF0004010B507F0C9F80F4B0F
:1046E000996A9A6A8A42FBD10D4C6268A0688A185E
:1046F000121A531E884200D31300A1602168DA0BFE
:1047000052185B0407495B0C636022600B60064B28
:104710001A6007F00DF8206810BDC04600F0004098
:10472000C864FF1FC8F00040CCF0004070B51C4CBE
:1047300023793F2B01D93F2323711A4B22791A7019
:104740001878C0B206F09CFE1822174B80211A8000
:10475000164B17481A80A379164A090113805A1C70
:104760000C2353431A1C8B4200D90A1C0280637924
:10477000002B11D101336371237A012B01D802235D
:1047800023726279237A0C4853430A21584306F076
:1047900057FE0A4D286070BDA02BEDD9A023EAE793
:1047A000BC64FF1F480AFF1FFE44FF1FFC44FF1F9D
:1047B000F844FF1FFA44FF1F71020000AC64FF1FA2
:1047C000F8B513210020FEF709FE114C011E114D12
:1047D00009D10C22104BC1CBC1C4280006F0F0FD5A
:1047E000FFF7A4FFF8BD0C2220000C49FEF7CAFD1C
:1047F0000C2802D0084B43CB43C40C2228000849A4
:10480000FEF7C0FD0C28EBD00C220021E5E7C046E6
:10481000BC64FF1F8864FF1F6CBB0011FC0C000010
:10482000F50C0000F0B51D4C8022A5440400882042
:1048300069465201400507F023F8902212016A44AC
:104840001300200032C832C316C816C38023144C8C
:10485000144FA6689B033343A3603B6006F028FE19
:104860008823A0685B05C01806F07AFF002588231E
:1048700029008022A0685B05C018401969445200D5
:1048800006F0E6FF80230135FF355B019D42EED146
:10489000A6603E60044B9D44F0BDC046FCEFFFFFA8
:1048A0003846FF1F9808FF1F04100000F0B50400F1
:1048B00087B0002825D0684606F0C2FE1B4C0228AF
:1048C00006D106226946200007F07AF8002816D0A3
:1048D0006946002301250F262F00E25C01331009F1
:1048E0001030874038002F00324097403A00024392
:1048F0004A610439062BEFD16846FFF793FF07B0F2
:10490000F0BD182269460A4806F0BAFF6A46A300BD
:10491000D358013305D01822FF21684606F050FD18
:10492000EAE70134062CF1D1E9E7C0466509FF1F2B
:1049300000090011F0B5002504000E0085B0AA4260
:1049400000D183E04B1C087801934B788978377944
:1049500009021943F3783F061B040B431F430397D7
:1049600020706570252800D193E033D8112813D822
:1049700006F00EFE66000D010D010D010D01A700F0
:10498000B500AE000D010D010D010D010D010D0170
:104990000D010D01E7000701232800D1C0E0DB284D
:1049A00000D016E1042A00D8A9E01025052A05D078
:1049B000551F2A003800711D06F032FF0522310014
:1049C000200006F02DFF2A003900601D06F028FFA8
:1049D00005353BE0562856D010D8332800D19AE050
:1049E000552836D02628DAD1894B29001322180001
:1049F0001D0006F0E5FCFEF703FB59E0712800D12D
:104A000074E0722800D17DE0DC28C8D1022A00D8E9
:104A100075E07378BFB26370B378A370032A05D0D2
:104A2000033A390092B2F01CFEF7E6FB102239007F
:104A3000E01CFEF7A7FCC51C002807DA60705CE0EC
:104A40000C222000734906F0EBFE0C25280005B06F
:104A5000F0BD013A704D0C2A13D8002A0AD0280064
:104A6000019906F0DDFEFFF761FE0C2228006B497C
:104A7000FEF7C2FB29000C22601C06F0D1FE0D25BA
:104A8000E4E70C22EBE7644D654B2A0043CB43C2BD
:104A9000E9E7013A5E4D0C2A11D8002A08D00199A5
:104AA000280006F0BDFE0C2228005E49FEF7A4FB9C
:104AB00029001322601C06F0B3FE1425C6E70C2261
:104AC000EDE705225849601C06F0AAFE0625BDE761
:104AD00012225649601C06F0A3FE1325B6E70822F1
:104AE0005349601C06F09CFE0925AFE77178F72951
:104AF00005D8504B188801F0C7FB0225A6E7FF2315
:104B00006370FAE74C4B012A03D072781A70627016
:104B1000F3E71B78F4E72000FFF72CFB050095E78F
:104B2000042A04D9454D2F6006F09AFDA860FFF7CE
:104B3000D3FD0422039003A9601C06F071FE052535
:104B400084E73F4D062A15D906222800019906F070
:104B500037FF00280ED006220199280006F060FEDB
:104B6000062238492800FEF747FB0123324A117814
:104B70000B43137029000622601C06F051FE072526
:104B800064E7012ABBD07078FFF790FEB5E70128F3
:104B900000D004E7931E2C4F1A2B04D87378002BF7
:104BA00009D100F005F9294B39001D78601C6A1EF7
:104BB00006F036FE4AE7551E2A000199380006F035
:104BC0002FFE2349AAB23800FEF716FB00F026F9A3
:104BD000E9E7DA2893D1042A91D9082A15D9B379BB
:104BE00072791B021343F27912041A43337A1B06BB
:104BF00013433B603B68052231002000039306F01D
:104C00000FFE0422601D03A96CE7FE236370F1E729
:104C10008864FF1F78BB0011BC64FF1FFC0C000000
:104C20006CBB0011F50C00009464FF1F7464FF1F3F
:104C30003C46FF1F0045FF1FB864FF1FC864FF1FED
:104C40006509FF1FADAC0000B966FF1FB766FF1F07
:104C5000AEDE000070470000020010B5094B0A32BA
:104C6000094C92B2DA815A8298811882207802F037
:104C700071F90422054B012120781A7006F080FC9E
:104C800010BDC046C645FF1F0267FF1F0167FF1F1B
:104C9000013870B5042809D806F05AFE0309230824
:104CA00012001D4B0221187806F06AFC70BD1A4BE9
:104CB0000821187806F03CFE0022184B1A72F5E71E
:104CC00080220024154B144D52001A8108212878A7
:104CD0001A68DC7206F024FE2100287806F070FDC8
:104CE000E4E70D4B0821187806F022FE0C48FFF788
:104CF000CFF80C4A0C4B92791A800022074BDA72DB
:104D00000132FF321A81094B1B78002BCED0084AA2
:104D1000136006F0D5FBC9E7D864FF1FAC64FF1F22
:104D20000945FF1FBC64FF1FFA44FF1FB864FF1F43
:104D300034F0004010B5002904D1042802D10D3010
:104D400005F04CFA10BD000010B501290ED1042861
:104D50000CD10D3005F042FA054B1B78002B05D025
:104D60002622044B04485A72FFF776FF10BDC04656
:104D7000DA66FF1FAC64FF1FC40900000300F0B532
:104D80000A4D8E18B14202D152008018F0BD0C7845
:104D90002F6824093C5D0F271C700C7801313C40C2
:104DA0002F683C5D5C700233ECE7C046F444FF1FA3
:104DB0000D22114B10B51A700C23104C10492370A2
:104DC000093A033B0F48637006F02AFD2D230122A8
:104DD0000D490E48A371FFF7D1FF01220C49FFF7DF
:104DE000CDFF01220B49FFF7C9FF00220A4910003D
:104DF000FEF702FA10BDC046D666FF1FB766FF1F5A
:104E00002BBB0011B966FF1F6709FF1FBE66FF1F9E
:104E10006609FF1F6509FF1FAEDE000070B5124C6A
:104E2000132220001149FEF7ADFA114D002817DDBD
:104E3000AB78002B14D0431C2B7009236B7000231C
:104E400000190370287829000130C0B206F0C8FCB0
:104E5000297822000139C9B2002005F029FC70BD73
:104E6000FFF7A6FFEEE7C046B966FF1FAEDE000003
:104E7000B766FF1F10B5114B1A781870002A0ED0B4
:104E800000280BD10E4B1A78062A07D85423D3409A
:104E9000DB0703D50B4B187802F05CF810BD002837
:104EA000FCD0074B1B78012B02D0033B022BF5D81B
:104EB000044B0121187806F063FBEFE7DA66FF1F69
:104EC0000167FF1F0267FF1F70B54D4E4D4A4E49E7
:104ED0003070042005F078FA0021112005F07EF9E9
:104EE000112005F05FFAFEF78BF806F0B1FD032202
:104EF00046494748FFF742FF2D24030004221C7057
:104F000044490130FFF73AFF30230470424D434CCF
:104F1000437083702E3B062220004149EB87FEF749
:104F200031FA062813D0200006F08AFB022809D0A7
:104F30000321200006F084FC8D23E3706E3B237177
:104F400019336371062220003549FEF755F9354BB8
:104F50001B68FC335C64FFF761FF0020FFF78AFFEA
:104F6000314C324A0121324B1278207801F0B4FFE3
:104F7000304A314B12780021207801F0ADFF012238
:104F80002E4B1A702E4B5B78552B31D12D4B3B326B
:104F90005A722D4B2D4AAB81EA812B826A822021E5
:104FA000307806F0FDFC0120404205F0CDFB0120E9
:104FB000404205F069FCFFF78DF9FEF74DFF00F068
:104FC0009FFC01204042FFF717F8012006F068FA25
:104FD000F72001F03DF90121307806F0D1FA307860
:104FE00002F014F91A4806F063FBFEF74DFE70BD9F
:104FF0006422184B5B7953431A000A32CBE7C04650
:10500000D864FF1F354D0011494D00113C46FF1F6C
:105010007464FF1F9464FF1FC645FF1F6509FF1FCF
:10502000ADAC00005867FF1F0267FF1F2845FF1F38
:105030000945FF1FD666FF1FB766FF1FA866FF1F43
:10504000B864FF1FAC64FF1FC4090000CE09000054
:10505000DA64FF1FBC64FF1FF8B50A0020230D00AF
:105060001A40194251D0534B1B78002B3CD0FFF70C
:1050700033FB514B514C524E99686268737A8A1ACD
:10508000DB039A4202D36160FEF7FEFD327A217A99
:10509000531EDBB299422AD1FFF7D4F9637A002B71
:1050A0001FD0013BDBB26372002B1AD1454B5B78FA
:1050B000552B01D106F004FAE37A002B0CD0002323
:1050C000414A424FE3721388380001331380FEF7E0
:1050D000DFFE390006F01CFB642370795843FFF7AC
:1050E000BBFD237A0133237220206840F8BD914232
:1050F000D4D300232372FFF7CFF9344F3800FEF7E3
:10510000C7FE390006F004FBC8E70BB2002B0ADA31
:105110002F4B187806F04CFC002801D006F0C0FA9E
:1051200080200002E1E70224214206D0234B012027
:105130001A72FFF79FFE2000D7E70B071BD5FFF77A
:10514000CBFA1D4B1D491E4C98684A68637A821A37
:10515000DB039A4202D34860FEF796FDFFF79CF905
:10516000FFF770F900F0E6FB2368DB0701D5FFF7D6
:105170003BF80820B9E71024214206D00D4B1B78DC
:10518000002BD8D1FEF77CFED5E70124214209D0BF
:10519000104800F06DF806F00BFA2100112005F020
:1051A0001DF8C8E704240800204021429ED0FEF7E5
:1051B0003FFFC0E7DA66FF1FC864FF1FAC64FF1F34
:1051C000BC64FF1FB864FF1FA064FF1F0945FF1FD9
:1051D000D864FF1FEC44FF1FF0B51B4B1B4F1B880F
:1051E0003A8804001A4E1B4D85B09A420DD8328879
:1051F0009A420AD3184B1A882B889A4205D1174A2B
:10520000174B12881B889A421BD0052001F076F8B4
:105210003B8802AA13803388019053802B88114D5C
:1052200093800F4B02A91B88D3800F4B2A781888D4
:1052300002F092FD0D4B08212878019A1C7006F0AF
:10524000F7F905B0F0BDC046A666FF1FFE44FF1F7C
:10525000FC44FF1FFA44FF1FA466FF1FA266FF1F46
:10526000F844FF1F0267FF1F0045FF1FA066FF1FD6
:1052700013B50C4B1C78002C11D1002801D00A4B1F
:1052800018600A4A0A4B11780A4A10780A4A0192B1
:105290000A4A0092002205F003F9200016BD1124ED
:1052A000FBE7C0460167FF1F9C66FF1F0067FF1FEB
:1052B000F066FF1F0267FF1FDC66FF1FE066FF1F2F
:1052C00010B5064B12201B78052B06D1044B132278
:1052D0001988044B187801F0EDF910BD0167FF1F24
:1052E0000045FF1F0267FF1F10B500240122114B6C
:1052F00052421870104B1C70104B1A8001F086FF40
:1053000004220F4B21001A700E480C3206F028F9C7
:10531000102221000C4806F023F907220B4B1C60D9
:105320000B4B1C700B4B1C700B4B1A700B4B1C70F7
:1053300010BDC0460267FF1F0167FF1F0045FF1F2A
:105340000067FF1FF066FF1FE066FF1FDC66FF1FA0
:10535000B666FF1FB566FF1F0245FF1FB466FF1F3D
:10536000F8B5174C0600257806A814240078052DFA
:1053700023D1B41F134FA5B21824BD421DD88D1FD1
:10538000ADB2BD4219D8FA256D00AA4215D21D0052
:105390000D4F0A3DADB2BD420FD80C4C26800C4CCF
:1053A00021800C4900240A800B4A1380FFF714FF68
:1053B0000A4B0421187806F0BBFA2000F8BDC0465D
:1053C0000167FF1F790C0000750C0000FE44FF1FF1
:1053D000FC44FF1FFA44FF1FF844FF1F0267FF1F32
:1053E000F0B50BB20D0089B0002B00DB70E1A44ECC
:1053F000307806F0DDFA041E50D00378A22B00D1DD
:1054000022E1D02B1AD0912B45D143780E2B42D1DB
:105410009C4B82889A423ED19B4A83681278052A27
:1054200039D1032018567F2835D0984B1B68002BA4
:1054300031D05B68002B2ED098472CE0807807286D
:1054400029D806F085FA0428183F3F74A8D8637855
:10545000002B0CD101218C4B19708D4B1A78002A2E
:105460005BD08C4B307801F037FD002855D00722F7
:10547000854B1A7051E061780029F8D1E378002B50
:1054800011D0854A854B1278307801F025FD607087
:105490006378002BEBD1200006F002F98020000297
:1054A000684009B0F0BD784B1B78022BF3D0012186
:1054B000307806F0A5F90028EAD10121307806F00D
:1054C0005FF8E5E76378002BD1D16F4F032807D150
:1054D0003B78052B02D101333B701EE00223FBE732
:1054E0006F4B1A886F4B0293002A0BD01B78002B4E
:1054F00003D00121307806F09BF83B78062B04D1CD
:10550000013BE9E7029B1A70F7E7042B41D1012127
:10551000029B3078197006F033F85C4B1B68002B47
:10552000B9D01B68002BB6D0574A107884E763784F
:10553000554F002B27D10622211D5B4806F070F93C
:1055400062895A4B5A491A80A2895A4B1A80E389B8
:105550000B800521397058490A80584A1380228AE5
:10556000574B1A80574B1B78012B09D11F2000F095
:10557000C5FEFA22920042430421307806F058F822
:105580000022484B75E7312B00D070E70022454BD5
:105590001A700323A0E706220021434805F0E0FF2C
:1055A0000023454A04211380444A30781380444A3A
:1055B000138006F0BDF90821307806F0B9F9A37917
:1055C000083B5A425341304A03331370304B1B7827
:1055D000002B06D0334B30781A78002A06D001F021
:1055E000B9FC0122314B52421A8096E70121197011
:1055F00005F0C6FFF5E70821307806F099F96378E1
:10560000002B00D047E72C4B2D4F0293E388029AE2
:1056100004211380294B307803932389039A138044
:1056200063893B8006F0ECF8002800D033E7264B76
:105630001B68002B00D12EE7039902983A8809884D
:1056400000881B68984726E74379132B00D022E790
:105650000389012B0AD11D4B1B78022B06D108218F
:10566000307806F065F9FFF72BFE14E7052000F00F
:1056700045FE08210200307805F0DAFF0BE7C0464E
:105680000267FF1F051400000167FF1F9C66FF1FD4
:105690002845FF1F0945FF1FD666FF1FB766FF1F7E
:1056A000D866FF1FDA66FF1FA966FF1F0045FF1FB0
:1056B000B066FF1FB266FF1FA666FF1FA466FF1F2E
:1056C000A266FF1FA866FF1F9866FF1FA066FF1F48
:1056D0008020C001014200D0E2E6CB0731D5324B39
:1056E0001B78002B1DD0314E05AC3378052B1AD119
:1056F000023B23702E4B21001B7823722D4B1B780D
:1057000063722D4B187801F08BFB002809D007201D
:105710002A4B30701B68002B03D01B68002B00D075
:1057200098470120BCE60E20254B06221B78254910
:105730002370254B1B78637002ABC01806F070F81D
:10574000D8E7022308001840194209D0174B1B78EC
:10575000052B03D11D4B188805F0F2FF02209FE6B0
:105760000424214203D0FFF737FD200098E60823E8
:1057700008001840194200D193E6154B1C78012C03
:1057800003D0022C0DD008208AE6124B124A13498E
:1057900013481B881288098800880094FFF7E0FDF1
:1057A000F1E7FFF78DFDEEE7DA66FF1F0167FF1FE8
:1057B0000245FF1FB466FF1F0267FF1F9C66FF1FA5
:1057C000B666FF1F0345FF1FB566FF1F0045FF1F9D
:1057D000A066FF1FF844FF1FFA44FF1FFC44FF1F91
:1057E000FE44FF1F10B502A804880B20002C10D126
:1057F000496808784978090201430C48814209D177
:10580000022119800A4B59881170DB7800205BB2A5
:10581000537010BD074C0A20A142FAD10221198011
:10582000034B998811705B79F0E7C0466E2A00003F
:10583000A064FF1F6F2A0000F7B5150008AA16889C
:105840004A680F4F14785278120222430A24BA424F
:1058500014D10122DBB2019200962A0005F026FD48
:10586000041E0BD1074B1B68002B07D068782A78E1
:105870000002104342425041013098472000FEBDD3
:10588000022900001467FF1F30B5012503790400C9
:10589000BFB02B4227D01549408805F073F8284245
:1058A0000DD06A46124B69465B8D138002235380EC
:1058B000104B5B8893806088002202F043F90E4908
:1058C000608805F05FF8C0070DD56A460B4B694646
:1058D0001B88138002235380064B9B88938060882B
:1058E000002202F02FF93FB030BDC0460C67FF1F09
:1058F0002C45FF1FA064FF1F0467FF1F8645FF1F85
:1059000010B5074C0749200004F0F2FF20000649BB
:1059100004F0EEFF0721054A054804F0ABFF10BD77
:10592000FFFF00000C67FF1F0467FF1FF8BB00119B
:105930002C45FF1F10B5024802F086FF10BDC0467F
:10594000895800110200F0B501270A480A4E511883
:105950008B1A002B00DCF0BD082415784308684042
:1059600038404000805B013C58406D08002CF5D168
:105970000132EDE7FFFF000012BC0011F0B5002579
:105980000F269D4200DBF0BD4C5D070944403440CA
:10599000A400A05801357840F3E70000F0B589B0C5
:1059A0006A460D000B000F27110010351C780133DB
:1059B000260024093E40167054700232AB42F5D1E5
:1059C0002023024AFFF7DAFF09B0F0BD18BC00112E
:1059D000F0B54E780B7889B036020C0017000190B4
:1059E0001E43012A61D9954B9E4200D877E00133CE
:1059F0009E421CD1062A17D1CA788B7812021A430C
:105A00000B791B0413434A7912061A438C4B5A61D3
:105A100000221A705A808B4A5A608B4A9A608B4ACD
:105A2000DA60002009B0F0BD88225205EEE7884B0D
:105A30009E423CD182498B78002B00D0F6E00C2AA4
:105A400031D10F22A3789343E278120213432279D3
:105A5000120413436279120613434B60E279A07972
:105A600012020243207A00041043627A12060243B3
:105A7000CA60E27AA07A1202024376484A818342DF
:105A800008D804236E49142201980B7005F0C8FE53
:105A90001420C7E71201D21889235B059A42F0D877
:105AA00001238B70BDE7022AFAD00523EAE76A4A90
:105AB00001239642E6D1FFF703FC052F0CD9E378CA
:105AC000A2781B021343227912041A4363791B063E
:105AD0001343624A0393136005F0F2FCA1E7584DAB
:105AE0002B78002B9DD1AB78002B00D1A0E02B8927
:105AF00001339BB20093B34200D091E0132AD4D972
:105B0000CF7C8B7C3F02122120001F43FFF71AFF3E
:105B1000874200D08EE0002E3DD1E378A2781B02B0
:105B200013432279E96812041A4363791B0613436D
:105B300003930A228B4212D1FF23A370E3702371D7
:105B400063716B89002B09D1E37B227C1B02120459
:105B50001343A27B13431B0901336B8100226B8922
:105B6000002B8ED0002A67D1686837013818000BE7
:105B70006B6900030390984205D9686105F0F0FD58
:105B8000EB780133EB7068681022A11C381805F01F
:105B90005FFE2E8145E76F89009A7B1E9BB2934280
:105BA0003AD1E278A37812021A43237905A81B049C
:105BB000134362796C6812061A43EB6800920392F1
:105BC000211D0C22049305F02BFE0120260004A9C0
:105BD00040421036FFF7E2FE013F012F17D1009A35
:105BE0000B232861824200D04CE704221C4920008C
:105BF00005F02EFE042203A9686805F041FEE9685D
:105C0000039AFF23914200D13CE7F73B3AE731008A
:105C1000FFF7C4FE1036DFE70923B742A4D831E707
:105C2000009BB34200D9FCE607232BE7022329E7B8
:105C3000032327E7062325E70A2323E7FFFE0000C7
:105C4000A045FF1F00000111FFFF0000504859361A
:105C500001FF0000FFFF001102FF000034F00040D0
:105C6000AC45FF1F10B5034C0B000122210000F0D2
:105C70006BFA10BD255E00110B8870B506000D0093
:105C80000224162B11D92B000322094900F05CFADB
:105C9000041E0AD1074B2A881B88191C934200D97D
:105CA000111C300089B200F0EFFA200070BDC04630
:105CB000515E00117267FF1F10B54A780400013A67
:105CC0000B000220012A07D80A78002A04D00522F6
:105CD0002000024900F038FA10BDC0467F5E001176
:105CE0000A7810B50B0004000220002A04D0072215
:105CF0002000024900F028FA10BDC0462B5F0011B9
:105D00000A7810B50B0004000220002A04D00922F2
:105D10002000024900F018FA10BDC046915F001142
:105D200010B5034C0B000B22210000F00DFA10BD42
:105D3000C15F001110B5034C0B000D22210000F0D3
:105D400003FA10BD3360001110B5034C0B000F2295
:105D5000210000F0F9F910BD8D6000110A7810B52E
:105D60000B0004000220002A04D011222000024966
:105D700000F0EAF910BDC0469D600011002310B587
:105D80001322190000F0E0F910BD000010B5034C1B
:105D90000B001722210000F0D7F910BDEF600011B1
:105DA000002310B51922190000F0CEF910BD000033
:105DB00010B5034C0B001B22210000F0C5F910BDEB
:105DC00029610011F7B584890D0006000121002C1E
:105DD00022D000238268D3561778002B1EDA0C2CB1
:105DE0001AD90C3CA4B2131940880093230002F086
:105DF00086FE431E984101307B06DB0F6B703F230C
:105E0000013C1F40A4B22870AF70AC80002C07D0BA
:105E1000B3680133AB6000210800FEBD0020EBE752
:105E2000AC60F8E70B7803704B8843704B881B0A13
:105E300083700B79C370042070470420022B06D1B5
:105E40000020537811781B02009A0B43138070478F
:105E50000B8803700B881B0A4370022070470420D4
:105E6000009983420AD1537810781B0203430B80B8
:105E7000D37890781B02034300204B807047F8B51D
:105E80000D004B7801240021461C03702B788B42B7
:105E900001D82000F8BD6B78B01C4F1C012B10D12D
:105EA000890069184B88022233704B88B9001B0A9D
:105EB0007370691805F024FC04360434A4B2F9B2F6
:105EC000E4E7122359436B185A88043132705B8817
:105ED00010221B0A7370691805F012FC1236123476
:105EE000ECE770B5049D14001E00052B01D80420BA
:105EF00070BD637812781B0213432B80E378A2787D
:105F00001B02134302226B802A71211D681D063E6D
:105F100005F0F6FBB2B22A81F02AE8D82800A11DCC
:105F20000A3005F0EDFB0020E2E7002310B50A7807
:105F30009A4201D8900010BD9A008A185488013303
:105F400004705488DBB2240A447094888470928868
:105F5000120AC2700430EAE710B51100029C062B49
:105F600004D004201022142B01D010BD0222227173
:105F70004B7808781B0203432380CB7888781B0278
:105F8000034363800431601D05F0BAFB0020ECE799
:105F900010B50C788B7804315C43E4B203702200B6
:105FA000013005F0ADFB601C10BD0420022B06D1B2
:105FB0000020537811781B02009A0B43138070471E
:105FC00010B50C000A88023105F09AFB208810BD3C
:105FD00070B504000D0004981100012B01D80420B5
:105FE00070BD167852781202324302800200F832F5
:105FF00055701470E825002C00D10C35023B9AB284
:106000004280AA42EBD80231043005F079FB00202F
:10601000E6E70420009983420AD1537810781B02E6
:1060200003430B80D37890781B02034300204B80FE
:10603000704710B50C000A88023105F061FB20881A
:1060400010BD000070B501211E000420049C0E400C
:106050000B4218D1CB40DDB28D4214D90A49DBB2D4
:10606000098899420FD32300F6331D70330058007E
:1060700011184978165C0902314301332152D9B213
:106080008D42F4D8002070BDC045FF1F10B50C0034
:106090000A88023105F034FB208810BD10B50C7859
:1060A0008B7804315C43E4B203702200013005F0C8
:1060B00027FB601C10BD10B511000298032B01D8FE
:1060C000042010BD14785278043B1202224302804F
:1060D000CA788C781202224342809AB28280F22AD5
:1060E000EED80431063005F00BFB0020E9E710B5CF
:1060F0000C000B8803700B881B0A43704B8883705D
:106100004B881B0AC3708A880430063105F0F8FA00
:10611000A088043080B210BD0420012B03D10020E0
:106120001378009A1370704710B50C000B88037039
:106130000B881B0A43704A880230043105F0E0FAEC
:106140006088023080B210BDF0B589B003931E4B59
:10615000029242000700D05A019102F020F8132564
:10616000061E2DD0029B01240370019B002B04D03E
:10617000001903999847001984B26B461B7A5BB2E9
:10618000002B0FDA1021380002F01CFB1925002823
:1061900013D130003219E1B202F066FC051E0CD1B9
:1061A0000C34A4B2042304AA380005A993800696EF
:1061B000948101F0AFFD051E02D0300005F018F902
:1061C000280009B0F0BDC0467067FF1F70B505001C
:1061D0000C0000280CD00020814209D010222000A1
:1061E000044905F08DFA01202B7823736B786373D3
:1061F00070BDC04658BC0011F0B506000D00170078
:106200001C0085B002291BD00020102907D1022BC9
:1062100007D0102B03D115E00020102C08D005B0BA
:10622000F0BD69463800FFF7D1FF2A0069460BE050
:1062300069463000FFF7CAFF22006946380004E0D3
:10624000022BE9D12A003900300005F091F9E6E788
:10625000031CF72800D9F723032008499AB2013A12
:106260000B80D317034006499B189B100B80D30F5C
:1062700004499B185B100B807047C046C445FF1F44
:10628000C245FF1FC045FF1F034B1B888B4202D333
:10629000024B4000C1527047C445FF1F7067FF1F8B
:1062A000014B4000185A70477067FF1F1722014BBF
:1062B0001A8070477067FF1F70B505000E2005F04B
:1062C000AFF8041E13D0D02303700023062283707E
:1062D00007494570033005F013FA064B2100DA8AAE
:1062E00062811B7E2373044B187805F0F9FA70BDA8
:1062F0008C67FF1F7C67FF1F1446FF1F262803D8EB
:10630000024B4000C05A70470148FCE7C645FF1FDA
:10631000FFFF000070B506000C00094D1C22002193
:10632000280005F01DF9074B1E70074B1C7005F087
:10633000DFFA0123002801D0002312202B7070BD4A
:106340007C67FF1F1446FF1F9D67FF1F70B5050088
:106350000D4C0800E260A16010220021656005F08C
:1063600047F9012803D11021A06802F058FD10223E
:106370000021280005F03CF9012803D110216068B4
:1063800002F04DFD70BDC0467C67FF1F70B5041E56
:1063900005D1002903D006220D4805F0B1F90D4BB7
:1063A0001D78012D11D1002C05D102221A7005F0A3
:1063B0008FFA280070BD00221A70074B1B78FF2B44
:1063C000F7D02000FFF778FFF3E70025F1E7C0469C
:1063D0008C67FF1F7C67FF1F1446FF1F030010B56B
:1063E000002801D1002010BD00780B4A002803D1FD
:1063F0005988D1821B7913761378022BF2D10023AE
:10640000984200D103331370044B1B78FF2B01D04B
:10641000FFF752FF0120E6E77C67FF1F1446FF1FCE
:10642000002911D000280CD04B79012803D140223B
:106430005242134303E03F221340032802D00120BD
:106440004B7170474022F4E70800FAE770B5094D38
:106450000100287800280BD0074C0622200005F008
:106460004FF921002878FFF7DBFF200004F0D0FF70
:1064700070BDC0469C67FF1F7667FF1F00290AD0CA
:10648000012808D13F224B799343C02B03D0403BD6
:106490005A425341981C704770B5174D06002B782F
:1064A000FF2B15D00A2004F0BBFF041E10D0D02310
:1064B0000370C83B8370114B11491B784670C37041
:1064C0000622043005F01CF92100287805F008FAAE
:1064D0000C4B1B78012B0DD10B4B1B68002B03D0F1
:1064E0009B68002B00D09847084B04211878084A75
:1064F00005F016FA70BDC0461446FF1F9C67FF1FCB
:106500007667FF1F9867FF1FC467FF1FC867FF1FDD
:1065100060EA0000014B98687047C0467C67FF1F27
:10652000014BDB68186870477C67FF1F074B10B58D
:10653000DA68136801331360054B1878FF2803D01D
:106540008021C90105F01CF810BDC0467C67FF1F03
:106550001446FF1FF7B50E0002F0C8F8051E1CD048
:106560000E4B06621F78002F00D10778AB79102000
:10657000019304F055FF041E0FD0D0230380C73BC6
:106580008370019BE91DC3700622043005F0B8F842
:1065900021003800E66005F0A3F9F7BD1246FF1FA1
:1065A000014B18787047C0469C67FF1F054B0028B9
:1065B00005D1054B1A78054B002A00D1014B180074
:1065C0007047C0468C67FF1F9C67FF1F7667FF1FE1
:1065D000014B58687047C0467C67FF1F024B186824
:1065E000431E9841C0B27047A067FF1F421E0300C0
:1065F0000120152A03D9FF3B5A425341D8B27047B4
:10660000F0B51C0000230E0085B0039002920B70C1
:10661000029A934201D3002019E0E55C5A1CD2B2E1
:10662000002DF8D0029851198142F4DC0233DFB218
:10663000A35C18000193FFF7D9FF002807D0013DA4
:10664000019A0399EBB233708A4202D1E01905B086
:10665000F0BDDB19DBB2DBE710B50C0002F09EF8F1
:1066600003001220002B03D02100588804F058FFAB
:1066700010BD000070B50E4D84006359002B15D07D
:10668000186A002801D004F003FF2B59586A00282B
:1066900001D004F0FDFE2B59986A002801D004F0C7
:1066A000F7FE285904F0F4FE00232B5170BDC046BC
:1066B000AC67FF1F1C4B70B504000E00150099421B
:1066C0000AD11A4B1B68002B01D1122070BD1B6828
:1066D000002BFAD09847F9E7154B994215D1134B87
:1066E0001B68002B0AD01B68002B07D09847002896
:1066F00004D1104B1C70104B1D70E7E729002000DF
:10670000FFF7AAFF0028E1D1F3E7080001F0EEFF50
:106710000028DAD003780320A342D7D12900300023
:1067200004F0FEFED2E7C046FEFF0000A867FF1F90
:10673000FFFF0000A567FF1FA467FF1FF7B5040058
:10674000808801F0D3FF0025A84203D00578A088F7
:1067500002F008F81C4E3378002B1FD0AB421DD13D
:106760001A4B28001978FFF777FF002818D000236C
:106770003370A3790820A778A688019304F050FE0F
:10678000011E0DD0D0230370CA3B8370019B47705C
:1067900086808371280005F0A3F801E0002DE8D180
:1067A000A0880B4B8200D358002B01D0FFF762FF6B
:1067B0001721A088FFF768FDA08801F027FDA088B9
:1067C00001F0FEFDF7BDC046A567FF1FA467FF1FD0
:1067D000AC67FF1FF0B587B01D000CAB1B8807002E
:1067E00001930DAB1B88142002930EAB1B8816007F
:1067F00003930FAB1B880091049310AB1B88059388
:1068000004F00EFE041E1AD0D0230370CB3B477059
:106810008370C670062229000430002D11D004F0C8
:106820006FFF019B21006381029B0098A381039B62
:10683000E381049B2382059BA37405F051F807B004
:10684000F0BD04F08DFEECE7F7B5009308AB1B88B4
:1068500007000C200D001600019304F0E1FD041E5A
:1068600013D0280001F042FF00280FD00078D02379
:106870002370C93BA370009B21002381019B67709B
:10688000A580E680638105F02BF8F7BD014B1878F1
:10689000EDE7C0461446FF1F13B504006489038961
:1068A000C2888188C0780094FFF7CEFF13BD000036
:1068B00010B5044C2068002803D004F0E9FD002343
:1068C000236010BDB067FF1FA122F0B58188920040
:1068D0004A43384B384F1B6804009B189D22920096
:1068E0009B18827989B01A603B68002B5FD01D78B5
:1068F000324B1B68002B04D05B68002B01D00020BA
:106900009847260008363100E079FFF7B7FD237D70
:10691000E0710200E0780493638A29000393238ADC
:106920000293E3890193A38800933300FFF752FF9A
:10693000E378002B0BD1E289A379A188029201961A
:10694000E27928000092012201F0DAFEE0703B6853
:10695000002B20D0FFF7ACFF194D287800281AD063
:10696000184B1978FFF778FE002814D02B78E678BA
:1069700008200793A78804F053FD011E09D0D023F7
:106980000370CA3B4670837087808671079804F055
:10699000A7FF00232B701721A088FFF775FCA088A4
:1069A00001F034FCA08801F00BFD09B0F0BD064BEE
:1069B0009DE7C0463409FF1FB067FF1FC467FF1F74
:1069C000A567FF1FA467FF1F1446FF1FF8B5070048
:1069D00008000E0001F08AFE041E18D02620FFF7E2
:1069E0008DFC051E00D12578062004F019FD041E3B
:1069F0000DD00021062204F0B3FDD0232370C23B4A
:106A000021006770A370A680E8B204F069FFF8BDAA
:106A1000F0B585B001930AAB1B78070002930BAB6E
:106A20001B7808000D000092039301F05FFE061E24
:106A300022D0102004F0F4FC041E1DD010220021EE
:106A400004F08EFD2620FFF759FC002800D1307895
:106A5000D0232370C13BA370009B21002372019BB4
:106A600067706372029BA580A372039BC0B2E3723E
:106A70000C9BE36004F034FF05B0F0BDF7B50D00EA
:106A8000019001F033FE071E20D00E2004F0C8FC58
:106A9000041E1BD02620FFF731FC061E00D13E78D5
:106AA000D0232380C53B0622A370F91DE01C04F00F
:106AB00027FE019B2A0063810123DD401A401D400F
:106AC000210022736573F0B204F00AFFF7BD0000E5
:106AD000F0B585B0029010000D0017000A9E0393D8
:106AE00001F004FE041E31D0029B002B2ED1039B2B
:106AF00002795B0724D5122313430422002E08D108
:106B00000B99002905D10C99002902D10D99002972
:106B10001AD01A430D9B2271002B00D0C9E0002E21
:106B200000D1CFE0002D00D0CCE0606A002801D079
:106B300004F0AEFC1C21300004F0DAFC606205E0D9
:106B400002239A430E33D7E793432371654BBA0070
:106B5000D458002C00D1AAE0002E10D0236A002BBC
:106B600003D11C2004F0A4FE20625E4BBA00D3586F
:106B7000186A002803D01C22310004F0C1FD0C9BD0
:106B8000002B12D0574CBB001D596B6A002B03D150
:106B9000162004F08DFE6862BB00E358586A002896
:106BA00003D016220C9904F0ABFD0D9B002B11D0E5
:106BB0004C4DBC006659B36A002B03D1142004F07D
:106BC00077FEB0622B59986A002803D014220D99E1
:106BD00004F096FD380001F089FD051E67D0414B99
:106BE000BA00D358002B62D01A6A3420002A00D190
:106BF0001C389A6A002A01D0143080B20B9A002AFD
:106C000001D01C3080B25B6A002B01D0163080B2FC
:106C100004F006FC041E4AD01822002104F0A0FC57
:106C20002620FFF76BFB0190002801D12B78019300
:106C3000D0232370029B200063700A23294EA37087
:106C4000039BBD00A371AB59A780196A18300029B6
:106C500005D01C22A06004F053FD2000343073598D
:106C6000996A002907D0030014221433E0600293CC
:106C700004F046FD02980B9B002B08D003001C2259
:106C80001C330B992061029304F03AFD029873596A
:106C9000596A002903D01622606104F031FD6B4669
:106CA0002100187904F01CFE3800FFF7E3FC05B062
:106CB000F0BD10220D9B0D991B69A018236204F0F2
:106CC0001FFD2CE70B9B002B00D13FE7012D00D0CF
:106CD0003CE7606A002801D004F0DAFB1C210B9825
:106CE0002AE7C046AC67FF1F10B5044C2068002897
:106CF00003D004F0CDFB0023236010BDA067FF1F6D
:106D00000B4B07B51A68002A01D100200EBD694659
:106D1000531C012012780731FFF772FC0028F4D0D1
:106D200002780123100018401A42EED0EEE7C04668
:106D3000BC67FF1FF0B51F4F01203B6887B0002BD9
:106D400025D09B78059300F0B3FB002821D00A20C2
:106D5000FFF7D4FA04000B20FFF7D0FA164B05001A
:106D60001E78731E9E413B68F6B2191DD878FFF756
:106D700057FB3B682900DA7A043303929A7901932E
:106D80000292009033002000059A04F0A9FC07B09D
:106D9000F0BDFFF7B5FF002805D00620FFF7AEFADB
:106DA00004000720D8E70820FFF7A8FA040009200C
:106DB000D2E7C046A067FF1F9C67FF1F70B50A4E51
:106DC000040033780D00FF2B0DD0042004F028FBC5
:106DD000011E08D0D0230370CE3B45708370C47071
:106DE000307804F07DFD70BD2446FF1F70B50400AF
:106DF00006200D0004F014FB011E0AD0D0230370FE
:106E0000CD3B8370054B44701B688580187804F077
:106E100067FD002C01D0FFF767FF70BDA067FF1F63
:106E2000F8B5264F06003B680D001124002B05D154
:106E30000522234B1B78134202D112242000F8BDF7
:106E4000204A10241268002AF8D01278002AF5D0BF
:106E5000DB0719D52B789A1E012A1AD80C2004F0CA
:106E600027FD132438600028E8D000230A2243704D
:106E700029000670023004F043FCFFF75BFF041E9C
:106E80000AD0FFF731FFD9E700F012FB0028E1D16B
:106E9000E4E7002BE2D0D0E70B4B1B78032BCDD1DE
:106EA0001D20FFF72BFA094B18800028C6D0084B8D
:106EB00004211878074A04F033FDBFE7A067FF1FDD
:106EC0009D67FF1FBC67FF1F9C67FF1F9A67FF1F1F
:106ED000C867FF1F60EA0000F7B50193194B140063
:106EE0001A78052306000F0012201A4221D001292A
:106EF00020D1154B1D68002D1BD002201F2C18D847
:106F0000002C02D0019B002B13D0104B1F221E70AF
:106F10006E1C0021300004F023FB01992200300098
:106F200004F0EEFB310020002C70002F06D004F09E
:106F30002FFCFEBD064B12201D68DCE704F050FC60
:106F4000F7E7C0469D67FF1FBC67FF1F2446FF1F72
:106F5000B867FF1FF8B50F4E12243368002B17D007
:106F60001B780F3C834213D100250B4F0221387848
:106F700004F0DEFC094B042138781D8004F0D8FCB5
:106F8000074B28001D8033685C7004F071FB04001F
:106F90002000F8BDA067FF1FC867FF1FB467FF1F71
:106FA0009A67FF1F70B5012823D11B4C2388002B43
:106FB00003D01A4A1578002D07D0194B1B68002BF7
:106FC00002D01878FFF7C6FF70BD3B2B02D93C3BBF
:106FD0002380F9E7134E0221307804F0A9FCFA224D
:106FE0002388920002215A43307804F021FB258047
:106FF000EAE70B4B1B68002BE6D00B4B1B785B07BB
:10700000E2D5084B0221187804F092FC0022024BD2
:107010001A80FFF769FED7E7B467FF1F9867FF1F65
:10702000A067FF1FC867FF1F9D67FF1FF8B51E4DB4
:107030002868002803D004F02BFA00232B601B4E95
:107040003068002803D004F023FA00233360184F7F
:1070500005243B7818002040234221D0154800F039
:107060002BFA3B78234213D0202004F021FC286027
:10707000002813D02022002104F072FA202004F00E
:1070800017FC041E306005D02022002104F068FAAD
:10709000002004E0286804F0FBF92C601320F8BD00
:1070A00000F00AFAF4E7C046BC67FF1FB867FF1F8D
:1070B0009D67FF1F1846FF1F10B50A4C23681A1E54
:1070C0000ED0002808D10130587004F0D1FA002801
:1070D00005D02368002B02D00021FFF787FE012294
:1070E000100010BDA067FF1FF7B5274E05003368DD
:1070F0000191181E21D05C78244F012C30D1FFF76C
:10710000FFFD002825D02000FFF7F8F804004128F3
:1071100014D91F4B022118781E4A04F001FC1E4BA3
:107120003C3C1C80022233685A703B78002B14D1FF
:1071300028000199FFF75AFE0120FEBDFA229200B5
:107140004243002AEED0124B0221187804F070FA64
:10715000E8E7FFF7D3F80200F3E700233B70EBE723
:107160003B78002BE8D1032004F05AF9011E08D027
:10717000D0230370CC3B457083703368187804F0DB
:10718000AFFBFFF7B1FDD7E7A067FF1F9867FF1FB1
:10719000C867FF1F60EA0000B467FF1F10B51749FA
:1071A000838802008B4220D011D815498B4217D01A
:1071B000144900205B1899B2012907D89268117808
:1071C0005A425341D8B2FFF7F9FD012010BD0E4AD3
:1071D00000209B1807229BB29A424041C0B2F5E7BB
:1071E00083681878FFF768FFF0E7836899785A7822
:1071F000090218781143FFF777FFE7E70A2000003C
:1072000006200000F8DFFFFFAFDFFFFF014B187023
:107210007047C0462546FF1F10B5064C207001F090
:1072200041FA207804F074F90521207800F062FD1D
:1072300010BDC046C867FF1F0BB273B50D00002B11
:1072400000DBC4E0884B187804F0B2FB041E0ED0BB
:107250000378912B0FD0A22B00D1A1E0834B18789B
:10726000FF2852D0210004F03BFB00284DD18020A4
:107270000002684076BD43780F2B76D013D8052BDB
:1072800070D00E2BEAD18088794B98422BD8794B5D
:1072900098421BD8784B9842E0D1A3681878591CC3
:1072A000FFF774F838E03E2BD8D18378032B74D0E5
:1072B0006CD8012B6ED0022BD0D1704B1B68002BE9
:1072C00023D05B68002B20D098471EE06C4BC01881
:1072D0000C28C3D804F0C4FA1DC2C2150BC20B0B94
:1072E0000B3223C23C00674BC0180728B6D8664B48
:1072F0001B68002B09D01B68002B06D02000984784
:107300000AE0A3681878FFF7C7F8200004F0C8F96E
:10731000ADE7A068FFF762F800289FD0F5E7A36803
:107320001B78002BF1D0554B1B68002BEDD01B6850
:10733000002BEAD0210055489847EDE74F4B1B68DA
:10734000002BE2D01B68002BDFD021005048F3E770
:10735000504B1B68002BD8D05B68002BD5D0210088
:107360004348E9E7FFF7EAF9CFE780884A4B9842BC
:1073700003D04A4B984200D070E7464B1B68002B65
:10738000C3D05B68002BC0D02100D5E7153B012B93
:10739000BBD963E7FFF798FAB7E7FFF77DFAB4E7E1
:1073A0003F4B1B78042B07D100236A4613800179D9
:1073B000408800F0C5FCA8E7364B1B68002BA4D022
:1073C0005B68002BA1D00100364898479DE7012457
:1073D00021420AD0294B1B68002B04D05B68002B8C
:1073E00001D000209847012043E78B070AD5264BA0
:1073F0001B68002B04D05B68002B01D0200098474D
:10740000022036E70421280008400D4200D131E770
:10741000254E3388002B21D0013B9BB23380002BBB
:107420001AD1FFF7DBF800280AD0204B1C70164B4E
:107430001B68002B04D05B68002B01D0200098470C
:10744000FFF7C6F8694601F001FD6846FEF7FEFF4A
:107450001D20FEF753FF308004200AE7024B187806
:1074600004F066FAF8E7C046C867FF1F2546FF1F0D
:107470000E2000000120000009100000C067FF1F5F
:10748000FEDFFFFFAFDFFFFFC467FF1F0C20000020
:107490000B200000A867FF1F0D2000001320000034
:1074A0009D67FF1FFFFF00009A67FF1F9867FF1F80
:1074B00010B501F09BF910BD014B18607047C04634
:1074C000C467FF1F0B880020162B01D81723042048
:1074D000014A13807047C0467267FF1F0020704743
:1074E000074A03001188814207D091880020994201
:1074F00002D101308000101870470020FAE7C04622
:10750000D067FF1FF0B58F7806000D00C7B01E2FA3
:1075100015D1FFF7E5FF051E03D10024200047B079
:10752000F0BD00223B003100C078009200F0B2FBB9
:107530000400A81C00F0D3FBFF23EB70EEE7264B02
:10754000062403931B78FF2BE8D0182FE6D87B087E
:10755000224A013BDB0002929A589446002ADDD071
:10756000029AD3185B68002BD8D00878002802D183
:107570004B78012B02D10624122FCFD107AFAB8855
:10758000697800976446AA68A047041EC6D1AB7804
:10759000029A5B08013BDB00D318390030005B68BE
:1075A0009847041E0BD1AB78042BB6D0039A310058
:1075B00010782200009700F06DFB0400AEE76A78B7
:1075C000002AABD1AA7805A93B88087130000A705F
:1075D0004B80FEF747FBA0E72846FF1F68BC001161
:1075E0001D4B37B5050098420BD000290AD1FFF793
:1075F00077FF002805D11948FFF772FF002800D057
:10760000058037BD01291AD1FFF76AFF041EF8D0A3
:1076100001235B420380A378FF2BF2D0FE2B07D01F
:107620000023E0781422009329001E3300F032FB7F
:10763000A01C00F054FB01235B426380E1E70229B8
:10764000DFD1013901F0BEF80028DAD12800FFF7B8
:1076500047FF041EDFD1D4E7FEFF0000FFFF00005C
:10766000022210B5074B52421A80074801325A8055
:107670009A80DA8000F07EFA044801F025F80020B4
:1076800010BDC046D067FF1F05750011E1750011E0
:107690000388F7B50400002B02D102252800FEBDA7
:1076A00042680221137825485268FEF7A5FD00289C
:1076B0002ED0234F01253A88002AEFD0802321883D
:1076C0005B0201259B1A9942E8DC0C2004F0F0F8DB
:1076D000061E31D03B8822889C4600231800019565
:1076E00061469DB2491989B2AA421BD8002801D02F
:1076F00062443A8000233000082208C0210003F0D1
:10770000FFFF104A1368002B13D100251660C5E750
:107710006268022113780C485268FEF76DFD00285C
:10772000C7D1BAE760681D01401941810133019852
:10773000D6E71A001B68E6E71325AFE7D6BC0011B1
:107740002646FF1FCC67FF1FD4BC0011014B1870E9
:107750007047C0462846FF1F14230A0010B51A4080
:10776000194204D00122102101F048F810BD4B0647
:10777000F9D4012088434000F8E710B514008B06C7
:1077800004D50122102101F039F810BD08230A00A8
:107790001A40194202D14BB2002B0FDA102101F02E
:1077A0002DF8002808D02300F9331B78002BECD0EB
:1077B000F8342378012BE8D10020E6E7032089077D
:1077C000FAD4E2E7F0B51F00184B85B01C680190B1
:1077D00002910392002C27D1200005B0F0BDA568CE
:1077E0003301ED186B89019A934211D3029A9342A7
:1077F0000ED8002F04D10A9B002B10D12C00EBE7F0
:107800003B002978039A6868FEF7F6FC0028F2D15D
:107810000136B6B2A388B342E1D82468DAE7A36898
:107820000A9A5B891380E9E70026F3E7CC67FF1F1C
:1078300037B50C000A8849880123914217D3002AE2
:1078400015D0651D23792A0002210A48FEF7D4FCD1
:10785000102300280BD023796188208800242A0077
:107860000094FFF7AFFF0A23A04200D023001800C6
:107870003EBDC046D6BC001113B50A000888498831
:10788000012388420BD8002809D00024137905323F
:107890000094FFF797FF0A23A04200D023001800AE
:1078A00016BD13B50A0008884988012388420BD801
:1078B000002809D00024137905320094FFF782FFD5
:1078C0000A23A04200D02300180016BDF0B58BB0EB
:1078D00003904A8808880E000123824255D300286D
:1078E00053D00023012704AC2370002271881300B9
:1078F0000092FFF767FF051E3ED02078002835D1A3
:107900002B78022B18D167706A8983000130E31845
:1079100080005A8069680222201803F0F1FE237863
:107920000133DBB22370042B19D93B006889013085
:1079300080B2002BD9D01FE002236370122358437A
:107940006A89231804305A8069681022201803F0CD
:10795000D7FE23780133DBB22370002BE5D10C4A2C
:107960006B899B185A425341DBB2DFE76378012BE6
:10797000E4D12B78022BC7D022780A23002A04D026
:1079800021000398FEF798F9002318000BB0F0BD12
:107990000100FFFF0F4BF0B504001868002816D057
:1079A00083685D89A54207D88288AE18B44203DA9D
:1079B00012019A18934201D10068EFE71E005F8917
:1079C0001036A74204D1002900D00D801800F0BD68
:1079D0003300EFE7CC67FF1F70B505000C00088887
:1079E0000021FFF7D7FF03000120002B04D0220065
:1079F0002800197AFFF7C1FE70BDF7B50C0000250D
:107A000001902300F6331B78AB4201D800200AE036
:107A10006B00E65A00213000E718FFF7BBFF002893
:107A200002D126800130FEBD017A0198FFF794FE55
:107A3000002802D03B882380F5E70135EDB2E0E76E
:107A400010B5040008880021FFF7A4FF03000120FF
:107A5000002B03D02000197AFFF77EFE10BD000036
:107A6000054B1B68002B01D1180004E09A6852896D
:107A70008242F6D198887047CC67FF1FF0B50E2779
:107A8000002687B0039302ABFF183E8005001F4B12
:107A900040891400984207D02B78013000976A681B
:107AA00080B2FFF78FFE060002212B7818486A6823
:107AB000FEF7A2FB00280FD06C892000FFF7D0FF53
:107AC000002802D0013C0419A4B2039B002B00D073
:107AD0001C80300007B0F0BD02212B780D486A6889
:107AE000FEF78AFB0028E7D102212B780A486A6852
:107AF000FEF782FB002807D0002EDED03B88A34291
:107B0000DBD17489013CDFE76C89DEE7FFFF000011
:107B1000D6BC0011D4BC0011D2BC001110B50C00B1
:107B2000FFF7DEFC03000220002B0AD0002C00D05F
:107B300023609B781720FE2B03D00138FF2B00D148
:107B4000002010BD73B50D0001A904001600FFF759
:107B5000E5FF172805D0002E04D129002000FEF7EC
:107B600027F976BD01221021200000F047FE0028F1
:107B7000F3D0F6E7014B18607047C046DC67FF1F83
:107B800037B56B469D1D010004000222280003F05A
:107B900047FE2B88B02B0ED12379122B09D123005D
:107BA000FF339B78012B06D10121608800F0E0F8BB
:107BB00001E01B2BF8D037BD10B5054B0421187020
:107BC00000F098F8FFF74CFDFEF770FB10BDC046C3
:107BD000E067FF1F0020F0B50BB20F0087B08342B3
:107BE00034DA274B187803F0E3FE051E2BD0037818
:107BF000A02B25D103AE3100FEF7E4F8041E0BD113
:107C0000B378DB0724D51F4B06341B68002B03D049
:107C10003100688898470400A868002801D003F064
:107C2000E7FB002C08D1184A039B1340174A9342E4
:107C300006D0B3781B2B03D00121688800F098F898
:107C4000280003F02DFD80200002784007B0F0BD31
:107C50000F4B1B68002B10D0310068889847041E1A
:107C6000DAD07378002BD7D1B27801A90A704B8093
:107C70000C716888FDF7F6FFCEE70624F1E7C046F1
:107C8000E067FF1FD867FF1F00FFFF000001120021
:107C9000DC67FF1FF7B50190822040000D00170040
:107CA0001E0003F0BDFB04001320002C12D0B023F3
:107CB00020002370089BFC226770658026710830C5
:107CC000002B08D0190003F01BFD2100019803F0E0
:107CD00007FE0020FEBD089903F042FCF5E710B551
:107CE000041E06D00078FD2803D803F0A1FEFF2370
:107CF000237010BD0A1F93B210B504000220032B9D
:107D000005D882400020024BD1529B189C7010BDB8
:107D10000068FF1F0B8870B5043B04000D000220B3
:107D2000032B0BD80121200000F04CFD0300142090
:107D3000002B03D02900200000F0DEFB70BD000006
:107D400007B51300034A00920A00012100F02CFC41
:107D50000EBDC0467D7F001107B50192032200923F
:107D6000024B0A00122100F049FC0EBDFB7F0011FE
:107D700007B56B4601AA11800449D88008780633FC
:107D8000012802D1190003F02BFB07BDE167FF1F9B
:107D90000C4B10B518700023FF210B4A1380138180
:107DA00093819380094A5380137051729381937227
:107DB000D174D3821375517703F05AFB00F0FCF9AC
:107DC00010BDC0461068FF1F0068FF1FE267FF1F5D
:107DD000F0B58DB06B46002003910C229B5E834270
:107DE00000DBB0E05D4B187803F0E2FD051E00D12A
:107DF000A4E00378902B00D09DE006AF01004688F8
:107E0000380000F013FA79680400002900D19CE0E2
:107E10003B88052B6ED13B89032B1CD905AC200078
:107E200000F0A2F86288172A61D83989131D994297
:107E300031D17968237804310291D90738D5607837
:107E400000F08EF9071E06D0002303712378012B62
:107E500008D0132B23D0A868002800D178E003F0C5
:107E6000C7FA75E06288029909A800F0A6F80290A6
:107E7000380000F08BF909AA2378387A01920022A1
:107E800031000092029A00F012F9380000F064F913
:107E9000029B002BDFD0300000F080F9DBE7037895
:107EA000032BD8D16288029909A800F0D6F8DEE742
:107EB000122B13D1029909A800F0B5F8021EEAD1DD
:107EC00027498B88002BC6D0887909A9237801918E
:107ED00061780091310000F0EAF8BCE7002302AAC3
:107EE00093833000617809AAFFF72AFFB3E71D4B9F
:107EF0000993F6E7042B02D09A1F012AABD8184A3F
:107F0000043B9B00995A0029A5D0D21890783100E3
:107F10003A0000F0AEF800289DD13B88042B03D036
:107F200001213000FFF724FF012C04D1A8680028AC
:107F300001D003F05DFA280003F0B2FB8020039B20
:107F40000002434018000DB0F0BD012800D182E7C7
:107F500001213000FFF70CFFEDE7C0461068FF1F5E
:107F60000068FF1F010017000B7803704B78437007
:107F7000CB788A781B021343438070470A8803003A
:107F800002700A88120A42700A88012A06D14A88B9
:107F900082704A88120AC27004207047022082420E
:107FA000FBD14A8804309A704A88120ADA708A88AB
:107FB0001A718A88120A5A71EFE710B5040001207D
:107FC00082420CD94B780A781B02134323808342E8
:107FD00006D1CB788A781B0213436380002010BD42
:107FE000022BFBD1CB788A781B02134363804B7939
:107FF0000A791B021343A380F0E70B8803700B88F8
:108000001B0A43704B8883704B881B0AC3708B8894
:1080100003718B881B0A4371CB888371CB881B0A41
:10802000C3710820704703000120082A14D14A7840
:108030000878120202431A80CA7888781202024332
:108040005A804A790879120202439A80CA7988795B
:10805000120202430020DA80704710B504000120AC
:10806000022A05D100204B780A781B021343238093
:1080700010BDF8B5060010200F00150003F0D0F970
:1080800004000120002C0ED0A0230C222900238004
:108090006780201D002D07D003F032FB2100300047
:1080A00003F01EFC0020F8BD03F05AFAF6E7F7B51E
:1080B0001E00009008AB142017001D78019103F0FA
:1080C000AFF9041E12D0A2230370019B47704380B6
:1080D000099B057146710C220830002B07D019004E
:1080E00003F00EFB2100009803F0FAFBF7BD09999D
:1080F00003F036FAF6E737B5041E0FD04388002B9D
:108100000CD00025C1881323007A17220195009511
:10811000FFF7CDFFFF2365806372257037BD000038
:1081200010B50C4904004A88002A09D08B89002B1D
:1081300005D00020CB8A0222834201D010BD01224B
:1081400013000A20434300204032C854C81842801C
:108150000472F3E7E267FF1F002343800370704758
:10816000094B00211A0010B55C88002C06D01C7940
:10817000844203D10A234B43D01810BD01310A3386
:108180000329F1D10020F8E7E267FF1F10B50400D2
:10819000407A03F04DFCFF23637210BD704704303A
:1081A00010B580B203F0A4FA002803D0042149429C
:1081B00003F02EFA10BD000070B50025104CA06829
:1081C0002580A581A580A84202D003F011F9A56001
:1081D00000250C4C0C4B606D1D80230058331D7026
:1081E000A84202D003F004F9656500256068002804
:1081F00001D003F0FDF8013508340A2DF6D170BD29
:10820000A868FF1F4C68FF1F9C68FF1F70B5041E05
:1082100009D1054D2880A881A880A868002802D02F
:1082200003F0E6F8AC6070BDA868FF1FF0B54B889E
:1082300085B00193002343600A7905000F00022AEC
:1082400000D07BE0CA88032A17D98B685E7819783A
:108250003602DC78D8790E4399781B7A24021B0207
:108260000C43034353495BBA0B80331D93421ED129
:10827000042C04D0631F022B0ED9012015E0019AB3
:108280004D4B1201D35A002B06D00198FFF7BEFFC9
:108290004A4A1369013313610421B8682E812C8086
:1082A000494203F0B5F96860002005B0F0BD434DC8
:1082B000042C06D0631F022B0FD9EB680133EB604F
:1082C000DBE7019A3C4B1201D35A002B05D00198F1
:1082D000FFF79CFF2B6901332B61374B3000029372
:1082E000019B029A1B010193002301998C468B523A
:1082F000130063449C8003939E81FFF750FF039B10
:10830000041E986016D00421B868494203F080F931
:10831000FA880100043A200003F0F2F90199029A68
:10832000FB888A5A043B9B18029A8B522B680133B4
:108330002B60A2E7AB690133AB619EE71E4B029352
:10834000019B1E01029BF35A002B2DD002998C1920
:10835000A068002828D0012A26D1FA889B189BB251
:108360007352A189994217D39B1AC018B96803F0B8
:10837000C7F9029BA289F35A934200D07DE70022FD
:108380002B81A3882B80A3686B60029BF2520B4A5F
:1083900053680133536070E7084A93680133936070
:1083A0000198FFF733FF68E7044A536901335361CB
:1083B000F6E7C0461268FF1FA868FF1F1868FF1F76
:1083C00070B5051E15D10B4C0B4B1880230058338C
:1083D0001870606D002802D003F00AF8656525006A
:1083E00050356068002801D003F002F80834AC4230
:1083F000F7D170BD4C68FF1F9C68FF1FF0B51700D8
:10840000A12285B0920001934243394B06001B68BC
:108410000C009B18D933FF331D78FDF741FF043062
:10842000854204DD3000FDF73BFF0430C5B2BD429C
:1084300007D33A0000213000019B03F0F1FA05B0A8
:10844000F0BD2900380003F00BF82300C6B250330A
:108450001E700393019B29006365380003F038F810
:10846000CBB20293002B02D0039B01361E70002674
:108470002300503303931B78B34204D8606D002867
:1084800031D10020DBE7029A2800002A04D0013B0A
:108490001000B34200D02800F700E719387003F04D
:1084A0004FFA786000280ED03A78019903F028F945
:1084B000019A3B780136D3180E4A0193D369F6B27C
:1084C0000133D361D4E7039B18706065A74205D1DF
:1084D000084A1320D36A0133D362B0E7606802F020
:1084E00087FF0834F2E702F083FF00236365C8E7E3
:1084F0003409FF1F1868FF1FF7B50D00070004219E
:10850000686803F085F82B89040003702B891B0A27
:1085100043702B8883702B881B0AC3702E89022519
:108520000436F6B2FB2E15D81B4B9F4214D10C20FB
:1085300002F076FF1135011E0CD0902303708E3BA4
:108540000371043B4380154B8460C680187803F0A8
:10855000C7F900252800FEBD5C237B43104AD318D1
:108560000093583301931B78002B0FD10300320086
:1085700038000099FFF742FF019B05001B78002B94
:10858000E8D13800009903F04BF8E3E7054A0725E6
:10859000536A01335362DDE7FEFF00001068FF1FDE
:1085A0004C68FF1F1868FF1FF0B587B000901720B8
:1085B0000F0016000193FFF7F2FD1325041E19D0DA
:1085C0000C98031E02D00199201D9847030AE370FE
:1085D000052302AAA070043090812770009866706D
:1085E00003A993800494FFF787FF051E02D02000A3
:1085F00002F0FEFE280007B0F0BD0000F0B587B025
:108600001F000CAB1B780391059301210DAB0600F5
:108610001C78049200F0D6F81425002821D0200000
:10862000FFF77EFD0135041E1BD01149059B0A781A
:1086300003700132D2B2131EC68001D101231A0089
:108640000B7022713000049B03990097FFF7ACFF79
:10865000051E09D1230021000648074A093302F00C
:10866000AFFF280007B0F0BD002363802370F8E758
:108670001468FF1FF780001130750000F8B5050081
:108680000E00064C064F2368002B02D03100280054
:1086900098470434BC42F6D1F8BDC046B868FF1F05
:1086A000CC68FF1F0123064A5B42538000231371ED
:1086B0005362044A136053609360D3601361704740
:1086C000CC68FF1FB868FF1F0200002310B50649E1
:1086D0009C000859002801D1625010BD0133052BC0
:1086E000F6D11320F9E7C046B868FF1F034A538844
:1086F000181A43425841404210407047CC68FF1F4F
:10870000F0B585B002930AAB1F780CAB1B880090C4
:1087100008000E0001920393FFF7E8FF0500112007
:10872000002D1BD10E48FFF7E1FF04001520002C9F
:1087300014D006220B99A771E01D02F0E1FF019B06
:1087400030002371029B29006371009B66802370B7
:10875000039B6562E381FFF791FF280005B0F0BD40
:10876000FFFF000010B5FFF7C1FF04000220002C3E
:1087700012D060880121FFF781FF606A002801D0D4
:1087800002F086FE28220021200002F0E9FE0123EB
:1087900000205B426380207110BD000030B5074AA5
:1087A000074C5588010013780020A54204D05B1ABD
:1087B00059424B415842104030BDC046CC68FF1F63
:1087C000FFFF0000084A10B501230C00904208D0BA
:1087D000FFF78CFF031E04D0037923405A1E9341F8
:1087E000DBB2180010BDC046FEFF0000024B187936
:1087F000431E9841C0B27047CC68FF1F70B504009B
:108800000D001600FFF772FF002804D10D4B9C42AB
:1088100000D0143070BD416A03790520002907D0CB
:1088200012221A40102A02D10520002EF2D10F2068
:10883000DB06EFD5897E0C20A94289414942494295
:108840000840E7E7FEFF0000030010B5002800D154
:1088500010BD0348034A41889142F9D09847F7E791
:10886000CC68FF1FFFFF0000002330B5C45CCD5C67
:108870006C40D4540133102BF8D130BD0F230022AB
:1088800010B5C45C64002243CA54C25CD209013BE7
:10889000F7D210BD0200010010B52032103102F0F5
:1088A0006FFF10BDF0B58BB003901020059317003B
:1088B000049102F0FDFF0090102002F0F9FF009BF0
:1088C00013240190002B05D000280CD1132400980C
:1088D00002F0DEFD019B002B02D0180002F0D8FD53
:1088E00020000BB0F0BD102002F0E2FF06001020C7
:1088F00002F0DEFF13240500002E00D1AEE00028B8
:1089000019D01022002102F02BFE3200290003981A
:1089100002F036FF041E0ED133787F2B51D8300081
:108920000099FFF7ABFF009B1B787F2B53D8019971
:108930000098FFF7A3FF300002F0AAFD002D02D03F
:10894000280002F0A5FD002CC1D1102002F0B0FFDC
:108950000600102002F0ACFF0290002E7CD0002810
:1089600078D03A000F3223000125121105D00F33C1
:108970003B4015B25A4253411BB26A1E1201002BF2
:1089800033D0049BD2B298180099029AFFF76CFF7B
:10899000013D10220021300002F0E2FDADB2049F43
:1089A0002D017D19AF4242D0002C33D0300002F0AF
:1089B0006FFD029B002B00D189E7180002F068FDD3
:1089C00085E729003000FFF759FF28002549009A64
:1089D000FFF74AFFA7E729000098FFF74FFF28009D
:1089E0002049019AFFF740FFA5E70F210F400499A6
:1089F0008A18D9B28F4208D9D15C06A8195401331C
:108A0000102BF6D1029A0199C0E7791A48424141E8
:108A1000C901F2E73900300006AAFFF725FF32004E
:108A2000039806A902F0ACFE10370400BAE7002C48
:108A3000BCD13000029906AAFFF716FF320006A942
:108A4000039802F09DFE082204003100059802F010
:108A500057FEABE71324A9E71324AAE7002800D0A8
:108A60006EE733E7DCBC0011F0B58BB00F001600E9
:108A70000225009000283FD0002A3DD00B1DDBB21C
:108A80001800029302F014FF1135041E34D0FDF7D4
:108A900047FD05003A000099201D02F041FEEBB2AF
:108AA0000393E3702B0CDBB22F0A00936370FFB2C9
:108AB0002B0E2370A7700193FDF72CFD10220100EF
:108AC00006A802F02DFE2100029A04AB06A8FFF7CB
:108AD000E9FE051E0DD1039B08223370009B04A9FB
